
rv32uf-p-fdiv:     file format elf32-littleriscv


Disassembly of section .text.init:

80000000 <_start>:
80000000:	aa0d                	j	80000132 <reset_vector>
80000002:	0001                	nop

80000004 <trap_vector>:
80000004:	34051073          	csrw	mscratch,a0
80000008:	00002517          	auipc	a0,0x2
8000000c:	ff850513          	addi	a0,a0,-8 # 80002000 <test_trap_data>
80000010:	01e52023          	sw	t5,0(a0)
80000014:	01f52223          	sw	t6,4(a0)
80000018:	34202f73          	csrr	t5,mcause
8000001c:	040f4163          	bltz	t5,8000005e <other_interrupts>
80000020:	4fa1                	li	t6,8
80000022:	07ff0263          	beq	t5,t6,80000086 <write_tohost>
80000026:	4fa5                	li	t6,9
80000028:	05ff0f63          	beq	t5,t6,80000086 <write_tohost>
8000002c:	4fad                	li	t6,11
8000002e:	05ff0c63          	beq	t5,t6,80000086 <write_tohost>
80000032:	4f85                	li	t6,1
80000034:	0bff0563          	beq	t5,t6,800000de <ifetch_error_handler>
80000038:	4f95                	li	t6,5
8000003a:	0dff0063          	beq	t5,t6,800000fa <load_error_handler>
8000003e:	4f9d                	li	t6,7
80000040:	0dff0b63          	beq	t5,t6,80000116 <store_error_handler>
80000044:	80000f17          	auipc	t5,0x80000
80000048:	fbcf0f13          	addi	t5,t5,-68 # 0 <_start-0x80000000>
8000004c:	000f0363          	beqz	t5,80000052 <trap_vector+0x4e>
80000050:	8f02                	jr	t5
80000052:	34202f73          	csrr	t5,mcause
80000056:	000f5363          	bgez	t5,8000005c <handle_exception>
8000005a:	a009                	j	8000005c <handle_exception>

8000005c <handle_exception>:
8000005c:	a01d                	j	80000082 <other_interrupts+0x24>

8000005e <other_interrupts>:
8000005e:	80000fb7          	lui	t6,0x80000
80000062:	003f8f93          	addi	t6,t6,3 # 80000003 <_end+0xffffdf83>
80000066:	05ff0463          	beq	t5,t6,800000ae <sft_irq_handler>
8000006a:	80000fb7          	lui	t6,0x80000
8000006e:	007f8f93          	addi	t6,t6,7 # 80000007 <_end+0xffffdf87>
80000072:	05ff0a63          	beq	t5,t6,800000c6 <tmr_irq_handler>
80000076:	80000fb7          	lui	t6,0x80000
8000007a:	00bf8f93          	addi	t6,t6,11 # 8000000b <_end+0xffffdf8b>
8000007e:	01ff0c63          	beq	t5,t6,80000096 <ext_irq_handler>
80000082:	5391e193          	ori	gp,gp,1337

80000086 <write_tohost>:
80000086:	4521                	li	a0,8
80000088:	30052073          	csrs	mstatus,a0
8000008c:	00001f17          	auipc	t5,0x1
80000090:	f63f2a23          	sw	gp,-140(t5) # 80001000 <tohost>
80000094:	bfcd                	j	80000086 <write_tohost>

80000096 <ext_irq_handler>:
80000096:	00002517          	auipc	a0,0x2
8000009a:	f6a50513          	addi	a0,a0,-150 # 80002000 <test_trap_data>
8000009e:	00052f03          	lw	t5,0(a0)
800000a2:	00452f83          	lw	t6,4(a0)
800000a6:	34002573          	csrr	a0,mscratch
800000aa:	30200073          	mret

800000ae <sft_irq_handler>:
800000ae:	00002517          	auipc	a0,0x2
800000b2:	f5250513          	addi	a0,a0,-174 # 80002000 <test_trap_data>
800000b6:	00052f03          	lw	t5,0(a0)
800000ba:	00452f83          	lw	t6,4(a0)
800000be:	34002573          	csrr	a0,mscratch
800000c2:	30200073          	mret

800000c6 <tmr_irq_handler>:
800000c6:	00002517          	auipc	a0,0x2
800000ca:	f3a50513          	addi	a0,a0,-198 # 80002000 <test_trap_data>
800000ce:	00052f03          	lw	t5,0(a0)
800000d2:	00452f83          	lw	t6,4(a0)
800000d6:	34002573          	csrr	a0,mscratch
800000da:	30200073          	mret

800000de <ifetch_error_handler>:
800000de:	00002517          	auipc	a0,0x2
800000e2:	f2250513          	addi	a0,a0,-222 # 80002000 <test_trap_data>
800000e6:	00052f03          	lw	t5,0(a0)
800000ea:	00452f83          	lw	t6,4(a0)
800000ee:	34302573          	csrr	a0,mbadaddr
800000f2:	34002573          	csrr	a0,mscratch
800000f6:	30200073          	mret

800000fa <load_error_handler>:
800000fa:	00002517          	auipc	a0,0x2
800000fe:	f0650513          	addi	a0,a0,-250 # 80002000 <test_trap_data>
80000102:	00052f03          	lw	t5,0(a0)
80000106:	00452f83          	lw	t6,4(a0)
8000010a:	34302573          	csrr	a0,mbadaddr
8000010e:	34002573          	csrr	a0,mscratch
80000112:	30200073          	mret

80000116 <store_error_handler>:
80000116:	00002517          	auipc	a0,0x2
8000011a:	eea50513          	addi	a0,a0,-278 # 80002000 <test_trap_data>
8000011e:	00052f03          	lw	t5,0(a0)
80000122:	00452f83          	lw	t6,4(a0)
80000126:	34302573          	csrr	a0,mbadaddr
8000012a:	34002573          	csrr	a0,mscratch
8000012e:	30200073          	mret

80000132 <reset_vector>:
80000132:	00000f13          	li	t5,0
80000136:	00000f93          	li	t6,0
8000013a:	f1402573          	csrr	a0,mhartid
8000013e:	e101                	bnez	a0,8000013e <reset_vector+0xc>
80000140:	4181                	li	gp,0
80000142:	00000297          	auipc	t0,0x0
80000146:	ec228293          	addi	t0,t0,-318 # 80000004 <trap_vector>
8000014a:	4521                	li	a0,8
8000014c:	30052073          	csrs	mstatus,a0
80000150:	fff00513          	li	a0,-1
80000154:	30452073          	csrs	mie,a0
80000158:	30529073          	csrw	mtvec,t0

8000015c <post_mtvec>:
8000015c:	80000297          	auipc	t0,0x80000
80000160:	ea428293          	addi	t0,t0,-348 # 0 <_start-0x80000000>
80000164:	00028e63          	beqz	t0,80000180 <post_mtvec+0x24>
80000168:	10529073          	csrw	stvec,t0
8000016c:	0000b2b7          	lui	t0,0xb
80000170:	10928293          	addi	t0,t0,265 # b109 <_start-0x7fff4ef7>
80000174:	30229073          	csrw	medeleg,t0
80000178:	30202373          	csrr	t1,medeleg
8000017c:	ee6290e3          	bne	t0,t1,8000005c <handle_exception>
80000180:	30005073          	csrwi	mstatus,0
80000184:	08000513          	li	a0,128
80000188:	30052073          	csrs	mstatus,a0
8000018c:	4501                	li	a0,0
8000018e:	bfc51073          	csrw	0xbfc,a0
80000192:	0000100f          	fence.i
80000196:	000012b7          	lui	t0,0x1
8000019a:	a0028293          	addi	t0,t0,-1536 # a00 <_start-0x7ffff600>

8000019e <waitloop1>:
8000019e:	12fd                	addi	t0,t0,-1
800001a0:	fe029fe3          	bnez	t0,8000019e <waitloop1>
800001a4:	100083b7          	lui	t2,0x10008
800001a8:	00838393          	addi	t2,t2,8 # 10008008 <_start-0x6fff7ff8>
800001ac:	0003a283          	lw	t0,0(t2)
800001b0:	00040337          	lui	t1,0x40
800001b4:	fff34313          	not	t1,t1
800001b8:	0062f2b3          	and	t0,t0,t1
800001bc:	0053a023          	sw	t0,0(t2)
800001c0:	40000293          	li	t0,1024

800001c4 <waitloop2>:
800001c4:	12fd                	addi	t0,t0,-1
800001c6:	0003ae03          	lw	t3,0(t2)
800001ca:	fe029de3          	bnez	t0,800001c4 <waitloop2>
800001ce:	0003a283          	lw	t0,0(t2)
800001d2:	00040337          	lui	t1,0x40
800001d6:	0062e2b3          	or	t0,t0,t1
800001da:	0053a023          	sw	t0,0(t2)
800001de:	0003a283          	lw	t0,0(t2)
800001e2:	4305                	li	t1,1
800001e4:	0062e2b3          	or	t0,t0,t1
800001e8:	0053a023          	sw	t0,0(t2)
800001ec:	0003a283          	lw	t0,0(t2)
800001f0:	02000313          	li	t1,32
800001f4:	0062e2b3          	or	t0,t0,t1
800001f8:	0053a023          	sw	t0,0(t2)
800001fc:	000012b7          	lui	t0,0x1
80000200:	a0028293          	addi	t0,t0,-1536 # a00 <_start-0x7ffff600>

80000204 <waitloop3>:
80000204:	12fd                	addi	t0,t0,-1
80000206:	fe029fe3          	bnez	t0,80000204 <waitloop3>
8000020a:	0003a283          	lw	t0,0(t2)
8000020e:	00040337          	lui	t1,0x40
80000212:	fff34313          	not	t1,t1
80000216:	0062f2b3          	and	t0,t0,t1
8000021a:	0053a023          	sw	t0,0(t2)
8000021e:	10000293          	li	t0,256

80000222 <waitloop4>:
80000222:	12fd                	addi	t0,t0,-1
80000224:	fe029fe3          	bnez	t0,80000222 <waitloop4>
80000228:	100083b7          	lui	t2,0x10008
8000022c:	00c38393          	addi	t2,t2,12 # 1000800c <_start-0x6fff7ff4>
80000230:	0003a283          	lw	t0,0(t2)
80000234:	10000313          	li	t1,256
80000238:	fff34313          	not	t1,t1
8000023c:	0062f2b3          	and	t0,t0,t1
80000240:	4309                	li	t1,2
80000242:	0062e2b3          	or	t0,t0,t1
80000246:	0053a023          	sw	t0,0(t2)
8000024a:	40000293          	li	t0,1024
8000024e:	6509                	lui	a0,0x2
80000250:	30052073          	csrs	mstatus,a0
80000254:	00305073          	csrwi	fcsr,0
80000258:	00000297          	auipc	t0,0x0
8000025c:	01428293          	addi	t0,t0,20 # 8000026c <test_2>
80000260:	34129073          	csrw	mepc,t0
80000264:	f1402573          	csrr	a0,mhartid
80000268:	30200073          	mret

8000026c <test_2>:
8000026c:	4189                	li	gp,2
8000026e:	00002517          	auipc	a0,0x2
80000272:	d9a50513          	addi	a0,a0,-614 # 80002008 <test_2_data>
80000276:	00052007          	flw	ft0,0(a0)
8000027a:	00452087          	flw	ft1,4(a0)
8000027e:	00852107          	flw	ft2,8(a0)
80000282:	4554                	lw	a3,12(a0)
80000284:	181071d3          	fdiv.s	ft3,ft0,ft1
80000288:	e0018553          	fmv.x.w	a0,ft3
8000028c:	001015f3          	fsflags	a1,zero
80000290:	4605                	li	a2,1
80000292:	12d51063          	bne	a0,a3,800003b2 <fail>
80000296:	10c59e63          	bne	a1,a2,800003b2 <fail>

8000029a <test_3>:
8000029a:	418d                	li	gp,3
8000029c:	00002517          	auipc	a0,0x2
800002a0:	d7c50513          	addi	a0,a0,-644 # 80002018 <test_3_data>
800002a4:	00052007          	flw	ft0,0(a0)
800002a8:	00452087          	flw	ft1,4(a0)
800002ac:	00852107          	flw	ft2,8(a0)
800002b0:	4554                	lw	a3,12(a0)
800002b2:	181071d3          	fdiv.s	ft3,ft0,ft1
800002b6:	e0018553          	fmv.x.w	a0,ft3
800002ba:	001015f3          	fsflags	a1,zero
800002be:	4605                	li	a2,1
800002c0:	0ed51963          	bne	a0,a3,800003b2 <fail>
800002c4:	0ec59763          	bne	a1,a2,800003b2 <fail>

800002c8 <test_4>:
800002c8:	4191                	li	gp,4
800002ca:	00002517          	auipc	a0,0x2
800002ce:	d5e50513          	addi	a0,a0,-674 # 80002028 <test_4_data>
800002d2:	00052007          	flw	ft0,0(a0)
800002d6:	00452087          	flw	ft1,4(a0)
800002da:	00852107          	flw	ft2,8(a0)
800002de:	4554                	lw	a3,12(a0)
800002e0:	181071d3          	fdiv.s	ft3,ft0,ft1
800002e4:	e0018553          	fmv.x.w	a0,ft3
800002e8:	001015f3          	fsflags	a1,zero
800002ec:	4601                	li	a2,0
800002ee:	0cd51263          	bne	a0,a3,800003b2 <fail>
800002f2:	0cc59063          	bne	a1,a2,800003b2 <fail>

800002f6 <test_5>:
800002f6:	4195                	li	gp,5
800002f8:	00002517          	auipc	a0,0x2
800002fc:	d4050513          	addi	a0,a0,-704 # 80002038 <test_5_data>
80000300:	00052007          	flw	ft0,0(a0)
80000304:	00452087          	flw	ft1,4(a0)
80000308:	00852107          	flw	ft2,8(a0)
8000030c:	4554                	lw	a3,12(a0)
8000030e:	580071d3          	fsqrt.s	ft3,ft0
80000312:	e0018553          	fmv.x.w	a0,ft3
80000316:	001015f3          	fsflags	a1,zero
8000031a:	4605                	li	a2,1
8000031c:	08d51b63          	bne	a0,a3,800003b2 <fail>
80000320:	08c59963          	bne	a1,a2,800003b2 <fail>

80000324 <test_6>:
80000324:	4199                	li	gp,6
80000326:	00002517          	auipc	a0,0x2
8000032a:	d2250513          	addi	a0,a0,-734 # 80002048 <test_6_data>
8000032e:	00052007          	flw	ft0,0(a0)
80000332:	00452087          	flw	ft1,4(a0)
80000336:	00852107          	flw	ft2,8(a0)
8000033a:	4554                	lw	a3,12(a0)
8000033c:	580071d3          	fsqrt.s	ft3,ft0
80000340:	e0018553          	fmv.x.w	a0,ft3
80000344:	001015f3          	fsflags	a1,zero
80000348:	4601                	li	a2,0
8000034a:	06d51463          	bne	a0,a3,800003b2 <fail>
8000034e:	06c59263          	bne	a1,a2,800003b2 <fail>

80000352 <test_7>:
80000352:	419d                	li	gp,7
80000354:	00002517          	auipc	a0,0x2
80000358:	d0450513          	addi	a0,a0,-764 # 80002058 <test_7_data>
8000035c:	00052007          	flw	ft0,0(a0)
80000360:	00452087          	flw	ft1,4(a0)
80000364:	00852107          	flw	ft2,8(a0)
80000368:	4554                	lw	a3,12(a0)
8000036a:	580071d3          	fsqrt.s	ft3,ft0
8000036e:	e0018553          	fmv.x.w	a0,ft3
80000372:	001015f3          	fsflags	a1,zero
80000376:	4641                	li	a2,16
80000378:	02d51d63          	bne	a0,a3,800003b2 <fail>
8000037c:	02c59b63          	bne	a1,a2,800003b2 <fail>

80000380 <test_8>:
80000380:	41a1                	li	gp,8
80000382:	00002517          	auipc	a0,0x2
80000386:	cea50513          	addi	a0,a0,-790 # 8000206c <test_8_data>
8000038a:	00052007          	flw	ft0,0(a0)
8000038e:	00452087          	flw	ft1,4(a0)
80000392:	00852107          	flw	ft2,8(a0)
80000396:	4554                	lw	a3,12(a0)
80000398:	580071d3          	fsqrt.s	ft3,ft0
8000039c:	e0018553          	fmv.x.w	a0,ft3
800003a0:	001015f3          	fsflags	a1,zero
800003a4:	4605                	li	a2,1
800003a6:	00d51663          	bne	a0,a3,800003b2 <fail>
800003aa:	00c59463          	bne	a1,a2,800003b2 <fail>
800003ae:	00301b63          	bne	zero,gp,800003c4 <pass>

800003b2 <fail>:
800003b2:	0ff0000f          	fence
800003b6:	00018063          	beqz	gp,800003b6 <fail+0x4>
800003ba:	0186                	slli	gp,gp,0x1
800003bc:	0011e193          	ori	gp,gp,1
800003c0:	00000073          	ecall

800003c4 <pass>:
800003c4:	0ff0000f          	fence
800003c8:	4185                	li	gp,1
800003ca:	00000073          	ecall
	...

Disassembly of section .tohost:

80001000 <tohost>:
	...

80001040 <fromhost>:
	...

Disassembly of section .data:

80002000 <test_trap_data>:
	...

80002008 <test_2_data>:
80002008:	40490fdb          	0x40490fdb
8000200c:	f854                	fsw	fa3,52(s0)
8000200e:	402d                	c.li	zero,11
80002010:	0000                	unimp
80002012:	0000                	unimp
80002014:	eee0                	fsw	fs0,92(a3)
80002016:	          	sltiu	t6,zero,1024

80002018 <test_3_data>:
80002018:	4000                	lw	s0,0(s0)
8000201a:	c49a                	sw	t1,72(sp)
8000201c:	449a6333          	0x449a6333
80002020:	0000                	unimp
80002022:	0000                	unimp
80002024:	c5a2                	sw	s0,200(sp)
80002026:	bf7f                	0xbf7f

80002028 <test_4_data>:
80002028:	40490fdb          	0x40490fdb
8000202c:	0000                	unimp
8000202e:	3f80                	fld	fs0,56(a5)
80002030:	0000                	unimp
80002032:	0000                	unimp
80002034:	40490fdb          	0x40490fdb

80002038 <test_5_data>:
80002038:	40490fdb          	0x40490fdb
	...
80002044:	dfc5                	beqz	a5,80001ffc <fromhost+0xfbc>
80002046:	3fe2                	fld	ft11,56(sp)

80002048 <test_6_data>:
80002048:	4000                	lw	s0,0(s0)
8000204a:	461c                	lw	a5,8(a2)
	...
80002054:	0000                	unimp
80002056:	42c8                	lw	a0,4(a3)

80002058 <test_7_data>:
80002058:	0000                	unimp
8000205a:	bf80                	fsd	fs0,56(a5)
	...
80002064:	0000                	unimp
80002066:	7fc0                	flw	fs0,60(a5)
80002068:	0000                	unimp
	...

8000206c <test_8_data>:
8000206c:	0000                	unimp
8000206e:	0000432b          	0x432b
80002072:	0000                	unimp
80002074:	0000                	unimp
80002076:	0000                	unimp
80002078:	3a26                	fld	fs4,104(sp)
8000207a:	4151                	li	sp,20
8000207c:	0000                	unimp
	...
