
rv32ud-p-structural:     file format elf32-littleriscv


Disassembly of section .text.init:

80000000 <_start>:
80000000:	aa0d                	j	80000132 <reset_vector>
80000002:	0001                	nop

80000004 <trap_vector>:
80000004:	34051073          	csrw	mscratch,a0
80000008:	00002517          	auipc	a0,0x2
8000000c:	ff850513          	addi	a0,a0,-8 # 80002000 <test_trap_data>
80000010:	01e52023          	sw	t5,0(a0)
80000014:	01f52223          	sw	t6,4(a0)
80000018:	34202f73          	csrr	t5,mcause
8000001c:	040f4163          	bltz	t5,8000005e <other_interrupts>
80000020:	4fa1                	li	t6,8
80000022:	07ff0263          	beq	t5,t6,80000086 <write_tohost>
80000026:	4fa5                	li	t6,9
80000028:	05ff0f63          	beq	t5,t6,80000086 <write_tohost>
8000002c:	4fad                	li	t6,11
8000002e:	05ff0c63          	beq	t5,t6,80000086 <write_tohost>
80000032:	4f85                	li	t6,1
80000034:	0bff0563          	beq	t5,t6,800000de <ifetch_error_handler>
80000038:	4f95                	li	t6,5
8000003a:	0dff0063          	beq	t5,t6,800000fa <load_error_handler>
8000003e:	4f9d                	li	t6,7
80000040:	0dff0b63          	beq	t5,t6,80000116 <store_error_handler>
80000044:	80000f17          	auipc	t5,0x80000
80000048:	fbcf0f13          	addi	t5,t5,-68 # 0 <_start-0x80000000>
8000004c:	000f0363          	beqz	t5,80000052 <trap_vector+0x4e>
80000050:	8f02                	jr	t5
80000052:	34202f73          	csrr	t5,mcause
80000056:	000f5363          	bgez	t5,8000005c <handle_exception>
8000005a:	a009                	j	8000005c <handle_exception>

8000005c <handle_exception>:
8000005c:	a01d                	j	80000082 <other_interrupts+0x24>

8000005e <other_interrupts>:
8000005e:	80000fb7          	lui	t6,0x80000
80000062:	003f8f93          	addi	t6,t6,3 # 80000003 <_end+0xffffdfd3>
80000066:	05ff0463          	beq	t5,t6,800000ae <sft_irq_handler>
8000006a:	80000fb7          	lui	t6,0x80000
8000006e:	007f8f93          	addi	t6,t6,7 # 80000007 <_end+0xffffdfd7>
80000072:	05ff0a63          	beq	t5,t6,800000c6 <tmr_irq_handler>
80000076:	80000fb7          	lui	t6,0x80000
8000007a:	00bf8f93          	addi	t6,t6,11 # 8000000b <_end+0xffffdfdb>
8000007e:	01ff0c63          	beq	t5,t6,80000096 <ext_irq_handler>
80000082:	5391e193          	ori	gp,gp,1337

80000086 <write_tohost>:
80000086:	4521                	li	a0,8
80000088:	30052073          	csrs	mstatus,a0
8000008c:	00001f17          	auipc	t5,0x1
80000090:	f63f2a23          	sw	gp,-140(t5) # 80001000 <tohost>
80000094:	bfcd                	j	80000086 <write_tohost>

80000096 <ext_irq_handler>:
80000096:	00002517          	auipc	a0,0x2
8000009a:	f6a50513          	addi	a0,a0,-150 # 80002000 <test_trap_data>
8000009e:	00052f03          	lw	t5,0(a0)
800000a2:	00452f83          	lw	t6,4(a0)
800000a6:	34002573          	csrr	a0,mscratch
800000aa:	30200073          	mret

800000ae <sft_irq_handler>:
800000ae:	00002517          	auipc	a0,0x2
800000b2:	f5250513          	addi	a0,a0,-174 # 80002000 <test_trap_data>
800000b6:	00052f03          	lw	t5,0(a0)
800000ba:	00452f83          	lw	t6,4(a0)
800000be:	34002573          	csrr	a0,mscratch
800000c2:	30200073          	mret

800000c6 <tmr_irq_handler>:
800000c6:	00002517          	auipc	a0,0x2
800000ca:	f3a50513          	addi	a0,a0,-198 # 80002000 <test_trap_data>
800000ce:	00052f03          	lw	t5,0(a0)
800000d2:	00452f83          	lw	t6,4(a0)
800000d6:	34002573          	csrr	a0,mscratch
800000da:	30200073          	mret

800000de <ifetch_error_handler>:
800000de:	00002517          	auipc	a0,0x2
800000e2:	f2250513          	addi	a0,a0,-222 # 80002000 <test_trap_data>
800000e6:	00052f03          	lw	t5,0(a0)
800000ea:	00452f83          	lw	t6,4(a0)
800000ee:	34302573          	csrr	a0,mbadaddr
800000f2:	34002573          	csrr	a0,mscratch
800000f6:	30200073          	mret

800000fa <load_error_handler>:
800000fa:	00002517          	auipc	a0,0x2
800000fe:	f0650513          	addi	a0,a0,-250 # 80002000 <test_trap_data>
80000102:	00052f03          	lw	t5,0(a0)
80000106:	00452f83          	lw	t6,4(a0)
8000010a:	34302573          	csrr	a0,mbadaddr
8000010e:	34002573          	csrr	a0,mscratch
80000112:	30200073          	mret

80000116 <store_error_handler>:
80000116:	00002517          	auipc	a0,0x2
8000011a:	eea50513          	addi	a0,a0,-278 # 80002000 <test_trap_data>
8000011e:	00052f03          	lw	t5,0(a0)
80000122:	00452f83          	lw	t6,4(a0)
80000126:	34302573          	csrr	a0,mbadaddr
8000012a:	34002573          	csrr	a0,mscratch
8000012e:	30200073          	mret

80000132 <reset_vector>:
80000132:	00000f13          	li	t5,0
80000136:	00000f93          	li	t6,0
8000013a:	f1402573          	csrr	a0,mhartid
8000013e:	e101                	bnez	a0,8000013e <reset_vector+0xc>
80000140:	4181                	li	gp,0
80000142:	00000297          	auipc	t0,0x0
80000146:	ec228293          	addi	t0,t0,-318 # 80000004 <trap_vector>
8000014a:	4521                	li	a0,8
8000014c:	30052073          	csrs	mstatus,a0
80000150:	fff00513          	li	a0,-1
80000154:	30452073          	csrs	mie,a0
80000158:	30529073          	csrw	mtvec,t0

8000015c <post_mtvec>:
8000015c:	80000297          	auipc	t0,0x80000
80000160:	ea428293          	addi	t0,t0,-348 # 0 <_start-0x80000000>
80000164:	00028e63          	beqz	t0,80000180 <post_mtvec+0x24>
80000168:	10529073          	csrw	stvec,t0
8000016c:	0000b2b7          	lui	t0,0xb
80000170:	10928293          	addi	t0,t0,265 # b109 <_start-0x7fff4ef7>
80000174:	30229073          	csrw	medeleg,t0
80000178:	30202373          	csrr	t1,medeleg
8000017c:	ee6290e3          	bne	t0,t1,8000005c <handle_exception>
80000180:	30005073          	csrwi	mstatus,0
80000184:	08000513          	li	a0,128
80000188:	30052073          	csrs	mstatus,a0
8000018c:	4501                	li	a0,0
8000018e:	bfc51073          	csrw	0xbfc,a0
80000192:	0000100f          	fence.i
80000196:	000012b7          	lui	t0,0x1
8000019a:	a0028293          	addi	t0,t0,-1536 # a00 <_start-0x7ffff600>

8000019e <waitloop1>:
8000019e:	12fd                	addi	t0,t0,-1
800001a0:	fe029fe3          	bnez	t0,8000019e <waitloop1>
800001a4:	100083b7          	lui	t2,0x10008
800001a8:	00838393          	addi	t2,t2,8 # 10008008 <_start-0x6fff7ff8>
800001ac:	0003a283          	lw	t0,0(t2)
800001b0:	00040337          	lui	t1,0x40
800001b4:	fff34313          	not	t1,t1
800001b8:	0062f2b3          	and	t0,t0,t1
800001bc:	0053a023          	sw	t0,0(t2)
800001c0:	40000293          	li	t0,1024

800001c4 <waitloop2>:
800001c4:	12fd                	addi	t0,t0,-1
800001c6:	0003ae03          	lw	t3,0(t2)
800001ca:	fe029de3          	bnez	t0,800001c4 <waitloop2>
800001ce:	0003a283          	lw	t0,0(t2)
800001d2:	00040337          	lui	t1,0x40
800001d6:	0062e2b3          	or	t0,t0,t1
800001da:	0053a023          	sw	t0,0(t2)
800001de:	0003a283          	lw	t0,0(t2)
800001e2:	4305                	li	t1,1
800001e4:	0062e2b3          	or	t0,t0,t1
800001e8:	0053a023          	sw	t0,0(t2)
800001ec:	0003a283          	lw	t0,0(t2)
800001f0:	02000313          	li	t1,32
800001f4:	0062e2b3          	or	t0,t0,t1
800001f8:	0053a023          	sw	t0,0(t2)
800001fc:	000012b7          	lui	t0,0x1
80000200:	a0028293          	addi	t0,t0,-1536 # a00 <_start-0x7ffff600>

80000204 <waitloop3>:
80000204:	12fd                	addi	t0,t0,-1
80000206:	fe029fe3          	bnez	t0,80000204 <waitloop3>
8000020a:	0003a283          	lw	t0,0(t2)
8000020e:	00040337          	lui	t1,0x40
80000212:	fff34313          	not	t1,t1
80000216:	0062f2b3          	and	t0,t0,t1
8000021a:	0053a023          	sw	t0,0(t2)
8000021e:	10000293          	li	t0,256

80000222 <waitloop4>:
80000222:	12fd                	addi	t0,t0,-1
80000224:	fe029fe3          	bnez	t0,80000222 <waitloop4>
80000228:	100083b7          	lui	t2,0x10008
8000022c:	00c38393          	addi	t2,t2,12 # 1000800c <_start-0x6fff7ff4>
80000230:	0003a283          	lw	t0,0(t2)
80000234:	10000313          	li	t1,256
80000238:	fff34313          	not	t1,t1
8000023c:	0062f2b3          	and	t0,t0,t1
80000240:	4309                	li	t1,2
80000242:	0062e2b3          	or	t0,t0,t1
80000246:	0053a023          	sw	t0,0(t2)
8000024a:	40000293          	li	t0,1024
8000024e:	6509                	lui	a0,0x2
80000250:	30052073          	csrs	mstatus,a0
80000254:	00305073          	csrwi	fcsr,0
80000258:	00000297          	auipc	t0,0x0
8000025c:	01428293          	addi	t0,t0,20 # 8000026c <waitloop4+0x4a>
80000260:	34129073          	csrw	mepc,t0
80000264:	f1402573          	csrr	a0,mhartid
80000268:	30200073          	mret
8000026c:	00002597          	auipc	a1,0x2
80000270:	da458593          	addi	a1,a1,-604 # 80002010 <begin_signature>
80000274:	4c85                	li	s9,1
80000276:	0085a103          	lw	sp,8(a1)
8000027a:	0105a083          	lw	ra,16(a1)
8000027e:	0005b207          	fld	ft4,0(a1)
80000282:	0005a187          	flw	ft3,0(a1)
80000286:	0085b107          	fld	ft2,8(a1)
8000028a:	0105a087          	flw	ft1,16(a1)
8000028e:	a809                	j	800002a0 <waitloop4+0x7e>
80000290:	00000013          	nop
80000294:	00000013          	nop
80000298:	00000013          	nop
8000029c:	00000013          	nop
800002a0:	12217253          	fmul.d	ft4,ft2,ft2
800002a4:	201081d3          	fmv.s	ft3,ft1
800002a8:	0045bc27          	fsd	ft4,24(a1)
800002ac:	4d98                	lw	a4,24(a1)
800002ae:	4ddc                	lw	a5,28(a1)
800002b0:	e00182d3          	fmv.x.w	t0,ft3
800002b4:	00508b63          	beq	ra,t0,800002ca <waitloop4+0xa8>
800002b8:	0ff0000f          	fence
800002bc:	00018063          	beqz	gp,800002bc <waitloop4+0x9a>
800002c0:	0186                	slli	gp,gp,0x1
800002c2:	0011e193          	ori	gp,gp,1
800002c6:	00000073          	ecall
800002ca:	0085a803          	lw	a6,8(a1)
800002ce:	00c5a883          	lw	a7,12(a1)
800002d2:	01070b63          	beq	a4,a6,800002e8 <waitloop4+0xc6>
800002d6:	0ff0000f          	fence
800002da:	00018063          	beqz	gp,800002da <waitloop4+0xb8>
800002de:	0186                	slli	gp,gp,0x1
800002e0:	0011e193          	ori	gp,gp,1
800002e4:	00000073          	ecall
800002e8:	01178b63          	beq	a5,a7,800002fe <waitloop4+0xdc>
800002ec:	0ff0000f          	fence
800002f0:	00018063          	beqz	gp,800002f0 <waitloop4+0xce>
800002f4:	0186                	slli	gp,gp,0x1
800002f6:	0011e193          	ori	gp,gp,1
800002fa:	00000073          	ecall
800002fe:	0005b107          	fld	ft2,0(a1)
80000302:	f00000d3          	fmv.w.x	ft1,zero
80000306:	0005b207          	fld	ft4,0(a1)
8000030a:	0005a187          	flw	ft3,0(a1)
8000030e:	0085b107          	fld	ft2,8(a1)
80000312:	0105a087          	flw	ft1,16(a1)
80000316:	a029                	j	80000320 <waitloop4+0xfe>
80000318:	00000013          	nop
8000031c:	00000013          	nop
80000320:	12217253          	fmul.d	ft4,ft2,ft2
80000324:	0001                	nop
80000326:	201081d3          	fmv.s	ft3,ft1
8000032a:	0045bc27          	fsd	ft4,24(a1)
8000032e:	4d98                	lw	a4,24(a1)
80000330:	4ddc                	lw	a5,28(a1)
80000332:	e00182d3          	fmv.x.w	t0,ft3
80000336:	00508b63          	beq	ra,t0,8000034c <waitloop4+0x12a>
8000033a:	0ff0000f          	fence
8000033e:	00018063          	beqz	gp,8000033e <waitloop4+0x11c>
80000342:	0186                	slli	gp,gp,0x1
80000344:	0011e193          	ori	gp,gp,1
80000348:	00000073          	ecall
8000034c:	0085a803          	lw	a6,8(a1)
80000350:	00c5a883          	lw	a7,12(a1)
80000354:	01070b63          	beq	a4,a6,8000036a <waitloop4+0x148>
80000358:	0ff0000f          	fence
8000035c:	00018063          	beqz	gp,8000035c <waitloop4+0x13a>
80000360:	0186                	slli	gp,gp,0x1
80000362:	0011e193          	ori	gp,gp,1
80000366:	00000073          	ecall
8000036a:	01178b63          	beq	a5,a7,80000380 <waitloop4+0x15e>
8000036e:	0ff0000f          	fence
80000372:	00018063          	beqz	gp,80000372 <waitloop4+0x150>
80000376:	0186                	slli	gp,gp,0x1
80000378:	0011e193          	ori	gp,gp,1
8000037c:	00000073          	ecall
80000380:	0005b107          	fld	ft2,0(a1)
80000384:	f00000d3          	fmv.w.x	ft1,zero
80000388:	0005b207          	fld	ft4,0(a1)
8000038c:	0005a187          	flw	ft3,0(a1)
80000390:	0085b107          	fld	ft2,8(a1)
80000394:	0105a087          	flw	ft1,16(a1)
80000398:	a021                	j	800003a0 <waitloop4+0x17e>
8000039a:	00000013          	nop
8000039e:	0001                	nop
800003a0:	12217253          	fmul.d	ft4,ft2,ft2
800003a4:	0001                	nop
800003a6:	0001                	nop
800003a8:	201081d3          	fmv.s	ft3,ft1
800003ac:	0045bc27          	fsd	ft4,24(a1)
800003b0:	4d98                	lw	a4,24(a1)
800003b2:	4ddc                	lw	a5,28(a1)
800003b4:	e00182d3          	fmv.x.w	t0,ft3
800003b8:	00508b63          	beq	ra,t0,800003ce <waitloop4+0x1ac>
800003bc:	0ff0000f          	fence
800003c0:	00018063          	beqz	gp,800003c0 <waitloop4+0x19e>
800003c4:	0186                	slli	gp,gp,0x1
800003c6:	0011e193          	ori	gp,gp,1
800003ca:	00000073          	ecall
800003ce:	0085a803          	lw	a6,8(a1)
800003d2:	00c5a883          	lw	a7,12(a1)
800003d6:	01070b63          	beq	a4,a6,800003ec <waitloop4+0x1ca>
800003da:	0ff0000f          	fence
800003de:	00018063          	beqz	gp,800003de <waitloop4+0x1bc>
800003e2:	0186                	slli	gp,gp,0x1
800003e4:	0011e193          	ori	gp,gp,1
800003e8:	00000073          	ecall
800003ec:	01178b63          	beq	a5,a7,80000402 <waitloop4+0x1e0>
800003f0:	0ff0000f          	fence
800003f4:	00018063          	beqz	gp,800003f4 <waitloop4+0x1d2>
800003f8:	0186                	slli	gp,gp,0x1
800003fa:	0011e193          	ori	gp,gp,1
800003fe:	00000073          	ecall
80000402:	0005b107          	fld	ft2,0(a1)
80000406:	f00000d3          	fmv.w.x	ft1,zero
8000040a:	0005b207          	fld	ft4,0(a1)
8000040e:	0005a187          	flw	ft3,0(a1)
80000412:	0085b107          	fld	ft2,8(a1)
80000416:	0105a087          	flw	ft1,16(a1)
8000041a:	a019                	j	80000420 <waitloop4+0x1fe>
8000041c:	00000013          	nop
80000420:	12217253          	fmul.d	ft4,ft2,ft2
80000424:	0001                	nop
80000426:	0001                	nop
80000428:	0001                	nop
8000042a:	201081d3          	fmv.s	ft3,ft1
8000042e:	0045bc27          	fsd	ft4,24(a1)
80000432:	4d98                	lw	a4,24(a1)
80000434:	4ddc                	lw	a5,28(a1)
80000436:	e00182d3          	fmv.x.w	t0,ft3
8000043a:	00508b63          	beq	ra,t0,80000450 <waitloop4+0x22e>
8000043e:	0ff0000f          	fence
80000442:	00018063          	beqz	gp,80000442 <waitloop4+0x220>
80000446:	0186                	slli	gp,gp,0x1
80000448:	0011e193          	ori	gp,gp,1
8000044c:	00000073          	ecall
80000450:	0085a803          	lw	a6,8(a1)
80000454:	00c5a883          	lw	a7,12(a1)
80000458:	01070b63          	beq	a4,a6,8000046e <waitloop4+0x24c>
8000045c:	0ff0000f          	fence
80000460:	00018063          	beqz	gp,80000460 <waitloop4+0x23e>
80000464:	0186                	slli	gp,gp,0x1
80000466:	0011e193          	ori	gp,gp,1
8000046a:	00000073          	ecall
8000046e:	01178b63          	beq	a5,a7,80000484 <waitloop4+0x262>
80000472:	0ff0000f          	fence
80000476:	00018063          	beqz	gp,80000476 <waitloop4+0x254>
8000047a:	0186                	slli	gp,gp,0x1
8000047c:	0011e193          	ori	gp,gp,1
80000480:	00000073          	ecall
80000484:	0005b107          	fld	ft2,0(a1)
80000488:	f00000d3          	fmv.w.x	ft1,zero
8000048c:	0005b207          	fld	ft4,0(a1)
80000490:	0005a187          	flw	ft3,0(a1)
80000494:	0085b107          	fld	ft2,8(a1)
80000498:	0105a087          	flw	ft1,16(a1)
8000049c:	a011                	j	800004a0 <waitloop4+0x27e>
8000049e:	0001                	nop
800004a0:	12217253          	fmul.d	ft4,ft2,ft2
800004a4:	0001                	nop
800004a6:	0001                	nop
800004a8:	0001                	nop
800004aa:	0001                	nop
800004ac:	201081d3          	fmv.s	ft3,ft1
800004b0:	0045bc27          	fsd	ft4,24(a1)
800004b4:	4d98                	lw	a4,24(a1)
800004b6:	4ddc                	lw	a5,28(a1)
800004b8:	e00182d3          	fmv.x.w	t0,ft3
800004bc:	00508b63          	beq	ra,t0,800004d2 <waitloop4+0x2b0>
800004c0:	0ff0000f          	fence
800004c4:	00018063          	beqz	gp,800004c4 <waitloop4+0x2a2>
800004c8:	0186                	slli	gp,gp,0x1
800004ca:	0011e193          	ori	gp,gp,1
800004ce:	00000073          	ecall
800004d2:	0085a803          	lw	a6,8(a1)
800004d6:	00c5a883          	lw	a7,12(a1)
800004da:	01070b63          	beq	a4,a6,800004f0 <waitloop4+0x2ce>
800004de:	0ff0000f          	fence
800004e2:	00018063          	beqz	gp,800004e2 <waitloop4+0x2c0>
800004e6:	0186                	slli	gp,gp,0x1
800004e8:	0011e193          	ori	gp,gp,1
800004ec:	00000073          	ecall
800004f0:	01178b63          	beq	a5,a7,80000506 <waitloop4+0x2e4>
800004f4:	0ff0000f          	fence
800004f8:	00018063          	beqz	gp,800004f8 <waitloop4+0x2d6>
800004fc:	0186                	slli	gp,gp,0x1
800004fe:	0011e193          	ori	gp,gp,1
80000502:	00000073          	ecall
80000506:	0005b107          	fld	ft2,0(a1)
8000050a:	f00000d3          	fmv.w.x	ft1,zero
8000050e:	0005b207          	fld	ft4,0(a1)
80000512:	0005a187          	flw	ft3,0(a1)
80000516:	0085b107          	fld	ft2,8(a1)
8000051a:	0105a087          	flw	ft1,16(a1)
8000051e:	a009                	j	80000520 <waitloop4+0x2fe>
80000520:	12217253          	fmul.d	ft4,ft2,ft2
80000524:	0001                	nop
80000526:	0001                	nop
80000528:	0001                	nop
8000052a:	0001                	nop
8000052c:	0001                	nop
8000052e:	201081d3          	fmv.s	ft3,ft1
80000532:	0045bc27          	fsd	ft4,24(a1)
80000536:	4d98                	lw	a4,24(a1)
80000538:	4ddc                	lw	a5,28(a1)
8000053a:	e00182d3          	fmv.x.w	t0,ft3
8000053e:	00508b63          	beq	ra,t0,80000554 <waitloop4+0x332>
80000542:	0ff0000f          	fence
80000546:	00018063          	beqz	gp,80000546 <waitloop4+0x324>
8000054a:	0186                	slli	gp,gp,0x1
8000054c:	0011e193          	ori	gp,gp,1
80000550:	00000073          	ecall
80000554:	0085a803          	lw	a6,8(a1)
80000558:	00c5a883          	lw	a7,12(a1)
8000055c:	01070b63          	beq	a4,a6,80000572 <waitloop4+0x350>
80000560:	0ff0000f          	fence
80000564:	00018063          	beqz	gp,80000564 <waitloop4+0x342>
80000568:	0186                	slli	gp,gp,0x1
8000056a:	0011e193          	ori	gp,gp,1
8000056e:	00000073          	ecall
80000572:	01178b63          	beq	a5,a7,80000588 <waitloop4+0x366>
80000576:	0ff0000f          	fence
8000057a:	00018063          	beqz	gp,8000057a <waitloop4+0x358>
8000057e:	0186                	slli	gp,gp,0x1
80000580:	0011e193          	ori	gp,gp,1
80000584:	00000073          	ecall
80000588:	0005b107          	fld	ft2,0(a1)
8000058c:	f00000d3          	fmv.w.x	ft1,zero
80000590:	0005b207          	fld	ft4,0(a1)
80000594:	0005a187          	flw	ft3,0(a1)
80000598:	0085b107          	fld	ft2,8(a1)
8000059c:	0105a087          	flw	ft1,16(a1)
800005a0:	a005                	j	800005c0 <waitloop4+0x39e>
800005a2:	0001                	nop
800005a4:	00000013          	nop
800005a8:	00000013          	nop
800005ac:	00000013          	nop
800005b0:	00000013          	nop
800005b4:	00000013          	nop
800005b8:	00000013          	nop
800005bc:	00000013          	nop
800005c0:	12217253          	fmul.d	ft4,ft2,ft2
800005c4:	0001                	nop
800005c6:	0001                	nop
800005c8:	0001                	nop
800005ca:	0001                	nop
800005cc:	0001                	nop
800005ce:	0001                	nop
800005d0:	201081d3          	fmv.s	ft3,ft1
800005d4:	0045bc27          	fsd	ft4,24(a1)
800005d8:	4d98                	lw	a4,24(a1)
800005da:	4ddc                	lw	a5,28(a1)
800005dc:	e00182d3          	fmv.x.w	t0,ft3
800005e0:	00508b63          	beq	ra,t0,800005f6 <waitloop4+0x3d4>
800005e4:	0ff0000f          	fence
800005e8:	00018063          	beqz	gp,800005e8 <waitloop4+0x3c6>
800005ec:	0186                	slli	gp,gp,0x1
800005ee:	0011e193          	ori	gp,gp,1
800005f2:	00000073          	ecall
800005f6:	0085a803          	lw	a6,8(a1)
800005fa:	00c5a883          	lw	a7,12(a1)
800005fe:	01070b63          	beq	a4,a6,80000614 <waitloop4+0x3f2>
80000602:	0ff0000f          	fence
80000606:	00018063          	beqz	gp,80000606 <waitloop4+0x3e4>
8000060a:	0186                	slli	gp,gp,0x1
8000060c:	0011e193          	ori	gp,gp,1
80000610:	00000073          	ecall
80000614:	01178b63          	beq	a5,a7,8000062a <waitloop4+0x408>
80000618:	0ff0000f          	fence
8000061c:	00018063          	beqz	gp,8000061c <waitloop4+0x3fa>
80000620:	0186                	slli	gp,gp,0x1
80000622:	0011e193          	ori	gp,gp,1
80000626:	00000073          	ecall
8000062a:	0005b107          	fld	ft2,0(a1)
8000062e:	f00000d3          	fmv.w.x	ft1,zero
80000632:	0ff0000f          	fence
80000636:	4185                	li	gp,1
80000638:	00000073          	ecall
	...

Disassembly of section .tohost:

80001000 <tohost>:
	...

80001040 <fromhost>:
	...

Disassembly of section .data:

80002000 <test_trap_data>:
	...

80002010 <begin_signature>:
	...
8000201c:	0000                	unimp
8000201e:	3ff0                	fld	fa2,248(a5)
80002020:	0000                	unimp
80002022:	3f80                	fld	fs0,56(a5)
	...
