
rv32ui-p-srai:     file format elf32-littleriscv


Disassembly of section .text.init:

80000000 <_start>:
80000000:	aa0d                	j	80000132 <reset_vector>
80000002:	0001                	nop

80000004 <trap_vector>:
80000004:	34051073          	csrw	mscratch,a0
80000008:	00002517          	auipc	a0,0x2
8000000c:	ff850513          	addi	a0,a0,-8 # 80002000 <test_trap_data>
80000010:	01e52023          	sw	t5,0(a0)
80000014:	01f52223          	sw	t6,4(a0)
80000018:	34202f73          	csrr	t5,mcause
8000001c:	040f4163          	bltz	t5,8000005e <other_interrupts>
80000020:	4fa1                	li	t6,8
80000022:	07ff0263          	beq	t5,t6,80000086 <write_tohost>
80000026:	4fa5                	li	t6,9
80000028:	05ff0f63          	beq	t5,t6,80000086 <write_tohost>
8000002c:	4fad                	li	t6,11
8000002e:	05ff0c63          	beq	t5,t6,80000086 <write_tohost>
80000032:	4f85                	li	t6,1
80000034:	0bff0563          	beq	t5,t6,800000de <ifetch_error_handler>
80000038:	4f95                	li	t6,5
8000003a:	0dff0063          	beq	t5,t6,800000fa <load_error_handler>
8000003e:	4f9d                	li	t6,7
80000040:	0dff0b63          	beq	t5,t6,80000116 <store_error_handler>
80000044:	80000f17          	auipc	t5,0x80000
80000048:	fbcf0f13          	addi	t5,t5,-68 # 0 <_start-0x80000000>
8000004c:	000f0363          	beqz	t5,80000052 <trap_vector+0x4e>
80000050:	8f02                	jr	t5
80000052:	34202f73          	csrr	t5,mcause
80000056:	000f5363          	bgez	t5,8000005c <handle_exception>
8000005a:	a009                	j	8000005c <handle_exception>

8000005c <handle_exception>:
8000005c:	a01d                	j	80000082 <other_interrupts+0x24>

8000005e <other_interrupts>:
8000005e:	80000fb7          	lui	t6,0x80000
80000062:	003f8f93          	addi	t6,t6,3 # 80000003 <_end+0xffffdff3>
80000066:	05ff0463          	beq	t5,t6,800000ae <sft_irq_handler>
8000006a:	80000fb7          	lui	t6,0x80000
8000006e:	007f8f93          	addi	t6,t6,7 # 80000007 <_end+0xffffdff7>
80000072:	05ff0a63          	beq	t5,t6,800000c6 <tmr_irq_handler>
80000076:	80000fb7          	lui	t6,0x80000
8000007a:	00bf8f93          	addi	t6,t6,11 # 8000000b <_end+0xffffdffb>
8000007e:	01ff0c63          	beq	t5,t6,80000096 <ext_irq_handler>
80000082:	5391e193          	ori	gp,gp,1337

80000086 <write_tohost>:
80000086:	4521                	li	a0,8
80000088:	30052073          	csrs	mstatus,a0
8000008c:	00001f17          	auipc	t5,0x1
80000090:	f63f2a23          	sw	gp,-140(t5) # 80001000 <tohost>
80000094:	bfcd                	j	80000086 <write_tohost>

80000096 <ext_irq_handler>:
80000096:	00002517          	auipc	a0,0x2
8000009a:	f6a50513          	addi	a0,a0,-150 # 80002000 <test_trap_data>
8000009e:	00052f03          	lw	t5,0(a0)
800000a2:	00452f83          	lw	t6,4(a0)
800000a6:	34002573          	csrr	a0,mscratch
800000aa:	30200073          	mret

800000ae <sft_irq_handler>:
800000ae:	00002517          	auipc	a0,0x2
800000b2:	f5250513          	addi	a0,a0,-174 # 80002000 <test_trap_data>
800000b6:	00052f03          	lw	t5,0(a0)
800000ba:	00452f83          	lw	t6,4(a0)
800000be:	34002573          	csrr	a0,mscratch
800000c2:	30200073          	mret

800000c6 <tmr_irq_handler>:
800000c6:	00002517          	auipc	a0,0x2
800000ca:	f3a50513          	addi	a0,a0,-198 # 80002000 <test_trap_data>
800000ce:	00052f03          	lw	t5,0(a0)
800000d2:	00452f83          	lw	t6,4(a0)
800000d6:	34002573          	csrr	a0,mscratch
800000da:	30200073          	mret

800000de <ifetch_error_handler>:
800000de:	00002517          	auipc	a0,0x2
800000e2:	f2250513          	addi	a0,a0,-222 # 80002000 <test_trap_data>
800000e6:	00052f03          	lw	t5,0(a0)
800000ea:	00452f83          	lw	t6,4(a0)
800000ee:	34302573          	csrr	a0,mbadaddr
800000f2:	34002573          	csrr	a0,mscratch
800000f6:	30200073          	mret

800000fa <load_error_handler>:
800000fa:	00002517          	auipc	a0,0x2
800000fe:	f0650513          	addi	a0,a0,-250 # 80002000 <test_trap_data>
80000102:	00052f03          	lw	t5,0(a0)
80000106:	00452f83          	lw	t6,4(a0)
8000010a:	34302573          	csrr	a0,mbadaddr
8000010e:	34002573          	csrr	a0,mscratch
80000112:	30200073          	mret

80000116 <store_error_handler>:
80000116:	00002517          	auipc	a0,0x2
8000011a:	eea50513          	addi	a0,a0,-278 # 80002000 <test_trap_data>
8000011e:	00052f03          	lw	t5,0(a0)
80000122:	00452f83          	lw	t6,4(a0)
80000126:	34302573          	csrr	a0,mbadaddr
8000012a:	34002573          	csrr	a0,mscratch
8000012e:	30200073          	mret

80000132 <reset_vector>:
80000132:	00000f13          	li	t5,0
80000136:	00000f93          	li	t6,0
8000013a:	f1402573          	csrr	a0,mhartid
8000013e:	e101                	bnez	a0,8000013e <reset_vector+0xc>
80000140:	4181                	li	gp,0
80000142:	00000297          	auipc	t0,0x0
80000146:	ec228293          	addi	t0,t0,-318 # 80000004 <trap_vector>
8000014a:	4521                	li	a0,8
8000014c:	30052073          	csrs	mstatus,a0
80000150:	fff00513          	li	a0,-1
80000154:	30452073          	csrs	mie,a0
80000158:	30529073          	csrw	mtvec,t0

8000015c <post_mtvec>:
8000015c:	80000297          	auipc	t0,0x80000
80000160:	ea428293          	addi	t0,t0,-348 # 0 <_start-0x80000000>
80000164:	00028e63          	beqz	t0,80000180 <post_mtvec+0x24>
80000168:	10529073          	csrw	stvec,t0
8000016c:	0000b2b7          	lui	t0,0xb
80000170:	10928293          	addi	t0,t0,265 # b109 <_start-0x7fff4ef7>
80000174:	30229073          	csrw	medeleg,t0
80000178:	30202373          	csrr	t1,medeleg
8000017c:	ee6290e3          	bne	t0,t1,8000005c <handle_exception>
80000180:	30005073          	csrwi	mstatus,0
80000184:	08000513          	li	a0,128
80000188:	30052073          	csrs	mstatus,a0
8000018c:	4501                	li	a0,0
8000018e:	bfc51073          	csrw	0xbfc,a0
80000192:	0000100f          	fence.i
80000196:	000012b7          	lui	t0,0x1
8000019a:	a0028293          	addi	t0,t0,-1536 # a00 <_start-0x7ffff600>

8000019e <waitloop1>:
8000019e:	12fd                	addi	t0,t0,-1
800001a0:	fe029fe3          	bnez	t0,8000019e <waitloop1>
800001a4:	100083b7          	lui	t2,0x10008
800001a8:	00838393          	addi	t2,t2,8 # 10008008 <_start-0x6fff7ff8>
800001ac:	0003a283          	lw	t0,0(t2)
800001b0:	00040337          	lui	t1,0x40
800001b4:	fff34313          	not	t1,t1
800001b8:	0062f2b3          	and	t0,t0,t1
800001bc:	0053a023          	sw	t0,0(t2)
800001c0:	40000293          	li	t0,1024

800001c4 <waitloop2>:
800001c4:	12fd                	addi	t0,t0,-1
800001c6:	0003ae03          	lw	t3,0(t2)
800001ca:	fe029de3          	bnez	t0,800001c4 <waitloop2>
800001ce:	0003a283          	lw	t0,0(t2)
800001d2:	00040337          	lui	t1,0x40
800001d6:	0062e2b3          	or	t0,t0,t1
800001da:	0053a023          	sw	t0,0(t2)
800001de:	0003a283          	lw	t0,0(t2)
800001e2:	4305                	li	t1,1
800001e4:	0062e2b3          	or	t0,t0,t1
800001e8:	0053a023          	sw	t0,0(t2)
800001ec:	0003a283          	lw	t0,0(t2)
800001f0:	02000313          	li	t1,32
800001f4:	0062e2b3          	or	t0,t0,t1
800001f8:	0053a023          	sw	t0,0(t2)
800001fc:	000012b7          	lui	t0,0x1
80000200:	a0028293          	addi	t0,t0,-1536 # a00 <_start-0x7ffff600>

80000204 <waitloop3>:
80000204:	12fd                	addi	t0,t0,-1
80000206:	fe029fe3          	bnez	t0,80000204 <waitloop3>
8000020a:	0003a283          	lw	t0,0(t2)
8000020e:	00040337          	lui	t1,0x40
80000212:	fff34313          	not	t1,t1
80000216:	0062f2b3          	and	t0,t0,t1
8000021a:	0053a023          	sw	t0,0(t2)
8000021e:	10000293          	li	t0,256

80000222 <waitloop4>:
80000222:	12fd                	addi	t0,t0,-1
80000224:	fe029fe3          	bnez	t0,80000222 <waitloop4>
80000228:	100083b7          	lui	t2,0x10008
8000022c:	00c38393          	addi	t2,t2,12 # 1000800c <_start-0x6fff7ff4>
80000230:	0003a283          	lw	t0,0(t2)
80000234:	10000313          	li	t1,256
80000238:	fff34313          	not	t1,t1
8000023c:	0062f2b3          	and	t0,t0,t1
80000240:	4309                	li	t1,2
80000242:	0062e2b3          	or	t0,t0,t1
80000246:	0053a023          	sw	t0,0(t2)
8000024a:	40000293          	li	t0,1024
8000024e:	00000297          	auipc	t0,0x0
80000252:	01428293          	addi	t0,t0,20 # 80000262 <test_2>
80000256:	34129073          	csrw	mepc,t0
8000025a:	f1402573          	csrr	a0,mhartid
8000025e:	30200073          	mret

80000262 <test_2>:
80000262:	4081                	li	ra,0
80000264:	4000df13          	srai	t5,ra,0x0
80000268:	4e81                	li	t4,0
8000026a:	4189                	li	gp,2
8000026c:	25df1263          	bne	t5,t4,800004b0 <fail>

80000270 <test_3>:
80000270:	800000b7          	lui	ra,0x80000
80000274:	4010df13          	srai	t5,ra,0x1
80000278:	c0000eb7          	lui	t4,0xc0000
8000027c:	418d                	li	gp,3
8000027e:	23df1963          	bne	t5,t4,800004b0 <fail>

80000282 <test_4>:
80000282:	800000b7          	lui	ra,0x80000
80000286:	4070df13          	srai	t5,ra,0x7
8000028a:	ff000eb7          	lui	t4,0xff000
8000028e:	4191                	li	gp,4
80000290:	23df1063          	bne	t5,t4,800004b0 <fail>

80000294 <test_5>:
80000294:	800000b7          	lui	ra,0x80000
80000298:	40e0df13          	srai	t5,ra,0xe
8000029c:	fffe0eb7          	lui	t4,0xfffe0
800002a0:	4195                	li	gp,5
800002a2:	21df1763          	bne	t5,t4,800004b0 <fail>

800002a6 <test_6>:
800002a6:	800000b7          	lui	ra,0x80000
800002aa:	00108093          	addi	ra,ra,1 # 80000001 <_end+0xffffdff1>
800002ae:	41f0df13          	srai	t5,ra,0x1f
800002b2:	fff00e93          	li	t4,-1
800002b6:	4199                	li	gp,6
800002b8:	1fdf1c63          	bne	t5,t4,800004b0 <fail>

800002bc <test_7>:
800002bc:	800000b7          	lui	ra,0x80000
800002c0:	fff08093          	addi	ra,ra,-1 # 7fffffff <_end+0xffffdfef>
800002c4:	4000df13          	srai	t5,ra,0x0
800002c8:	80000eb7          	lui	t4,0x80000
800002cc:	fffe8e93          	addi	t4,t4,-1 # 7fffffff <_end+0xffffdfef>
800002d0:	419d                	li	gp,7
800002d2:	1ddf1f63          	bne	t5,t4,800004b0 <fail>

800002d6 <test_8>:
800002d6:	800000b7          	lui	ra,0x80000
800002da:	fff08093          	addi	ra,ra,-1 # 7fffffff <_end+0xffffdfef>
800002de:	4010df13          	srai	t5,ra,0x1
800002e2:	40000eb7          	lui	t4,0x40000
800002e6:	fffe8e93          	addi	t4,t4,-1 # 3fffffff <_start-0x40000001>
800002ea:	41a1                	li	gp,8
800002ec:	1ddf1263          	bne	t5,t4,800004b0 <fail>

800002f0 <test_9>:
800002f0:	800000b7          	lui	ra,0x80000
800002f4:	fff08093          	addi	ra,ra,-1 # 7fffffff <_end+0xffffdfef>
800002f8:	4070df13          	srai	t5,ra,0x7
800002fc:	01000eb7          	lui	t4,0x1000
80000300:	fffe8e93          	addi	t4,t4,-1 # ffffff <_start-0x7f000001>
80000304:	41a5                	li	gp,9
80000306:	1bdf1563          	bne	t5,t4,800004b0 <fail>

8000030a <test_10>:
8000030a:	800000b7          	lui	ra,0x80000
8000030e:	fff08093          	addi	ra,ra,-1 # 7fffffff <_end+0xffffdfef>
80000312:	40e0df13          	srai	t5,ra,0xe
80000316:	00020eb7          	lui	t4,0x20
8000031a:	fffe8e93          	addi	t4,t4,-1 # 1ffff <_start-0x7ffe0001>
8000031e:	41a9                	li	gp,10
80000320:	19df1863          	bne	t5,t4,800004b0 <fail>

80000324 <test_11>:
80000324:	800000b7          	lui	ra,0x80000
80000328:	fff08093          	addi	ra,ra,-1 # 7fffffff <_end+0xffffdfef>
8000032c:	41f0df13          	srai	t5,ra,0x1f
80000330:	4e81                	li	t4,0
80000332:	41ad                	li	gp,11
80000334:	17df1e63          	bne	t5,t4,800004b0 <fail>

80000338 <test_12>:
80000338:	818180b7          	lui	ra,0x81818
8000033c:	18108093          	addi	ra,ra,385 # 81818181 <_end+0x1816171>
80000340:	4000df13          	srai	t5,ra,0x0
80000344:	81818eb7          	lui	t4,0x81818
80000348:	181e8e93          	addi	t4,t4,385 # 81818181 <_end+0x1816171>
8000034c:	41b1                	li	gp,12
8000034e:	17df1163          	bne	t5,t4,800004b0 <fail>

80000352 <test_13>:
80000352:	818180b7          	lui	ra,0x81818
80000356:	18108093          	addi	ra,ra,385 # 81818181 <_end+0x1816171>
8000035a:	4010df13          	srai	t5,ra,0x1
8000035e:	c0c0ceb7          	lui	t4,0xc0c0c
80000362:	0c0e8e93          	addi	t4,t4,192 # c0c0c0c0 <_end+0x40c0a0b0>
80000366:	41b5                	li	gp,13
80000368:	15df1463          	bne	t5,t4,800004b0 <fail>

8000036c <test_14>:
8000036c:	818180b7          	lui	ra,0x81818
80000370:	18108093          	addi	ra,ra,385 # 81818181 <_end+0x1816171>
80000374:	4070df13          	srai	t5,ra,0x7
80000378:	ff030eb7          	lui	t4,0xff030
8000037c:	303e8e93          	addi	t4,t4,771 # ff030303 <_end+0x7f02e2f3>
80000380:	41b9                	li	gp,14
80000382:	13df1763          	bne	t5,t4,800004b0 <fail>

80000386 <test_15>:
80000386:	818180b7          	lui	ra,0x81818
8000038a:	18108093          	addi	ra,ra,385 # 81818181 <_end+0x1816171>
8000038e:	40e0df13          	srai	t5,ra,0xe
80000392:	fffe0eb7          	lui	t4,0xfffe0
80000396:	606e8e93          	addi	t4,t4,1542 # fffe0606 <_end+0x7ffde5f6>
8000039a:	41bd                	li	gp,15
8000039c:	11df1a63          	bne	t5,t4,800004b0 <fail>

800003a0 <test_16>:
800003a0:	818180b7          	lui	ra,0x81818
800003a4:	18108093          	addi	ra,ra,385 # 81818181 <_end+0x1816171>
800003a8:	41f0df13          	srai	t5,ra,0x1f
800003ac:	fff00e93          	li	t4,-1
800003b0:	41c1                	li	gp,16
800003b2:	0fdf1f63          	bne	t5,t4,800004b0 <fail>

800003b6 <test_17>:
800003b6:	800000b7          	lui	ra,0x80000
800003ba:	4070d093          	srai	ra,ra,0x7
800003be:	ff000eb7          	lui	t4,0xff000
800003c2:	41c5                	li	gp,17
800003c4:	0fd09663          	bne	ra,t4,800004b0 <fail>

800003c8 <test_18>:
800003c8:	4201                	li	tp,0
800003ca:	800000b7          	lui	ra,0x80000
800003ce:	4070df13          	srai	t5,ra,0x7
800003d2:	000f0313          	mv	t1,t5
800003d6:	0205                	addi	tp,tp,1
800003d8:	4289                	li	t0,2
800003da:	fe5218e3          	bne	tp,t0,800003ca <test_18+0x2>
800003de:	ff000eb7          	lui	t4,0xff000
800003e2:	41c9                	li	gp,18
800003e4:	0dd31663          	bne	t1,t4,800004b0 <fail>

800003e8 <test_19>:
800003e8:	4201                	li	tp,0
800003ea:	800000b7          	lui	ra,0x80000
800003ee:	40e0df13          	srai	t5,ra,0xe
800003f2:	0001                	nop
800003f4:	000f0313          	mv	t1,t5
800003f8:	0205                	addi	tp,tp,1
800003fa:	4289                	li	t0,2
800003fc:	fe5217e3          	bne	tp,t0,800003ea <test_19+0x2>
80000400:	fffe0eb7          	lui	t4,0xfffe0
80000404:	41cd                	li	gp,19
80000406:	0bd31563          	bne	t1,t4,800004b0 <fail>

8000040a <test_20>:
8000040a:	4201                	li	tp,0
8000040c:	800000b7          	lui	ra,0x80000
80000410:	00108093          	addi	ra,ra,1 # 80000001 <_end+0xffffdff1>
80000414:	41f0df13          	srai	t5,ra,0x1f
80000418:	0001                	nop
8000041a:	0001                	nop
8000041c:	000f0313          	mv	t1,t5
80000420:	0205                	addi	tp,tp,1
80000422:	4289                	li	t0,2
80000424:	fe5214e3          	bne	tp,t0,8000040c <test_20+0x2>
80000428:	fff00e93          	li	t4,-1
8000042c:	41d1                	li	gp,20
8000042e:	09d31163          	bne	t1,t4,800004b0 <fail>

80000432 <test_21>:
80000432:	4201                	li	tp,0
80000434:	800000b7          	lui	ra,0x80000
80000438:	4070df13          	srai	t5,ra,0x7
8000043c:	0205                	addi	tp,tp,1
8000043e:	4289                	li	t0,2
80000440:	fe521ae3          	bne	tp,t0,80000434 <test_21+0x2>
80000444:	ff000eb7          	lui	t4,0xff000
80000448:	41d5                	li	gp,21
8000044a:	07df1363          	bne	t5,t4,800004b0 <fail>

8000044e <test_22>:
8000044e:	4201                	li	tp,0
80000450:	800000b7          	lui	ra,0x80000
80000454:	0001                	nop
80000456:	40e0df13          	srai	t5,ra,0xe
8000045a:	0205                	addi	tp,tp,1
8000045c:	4289                	li	t0,2
8000045e:	fe5219e3          	bne	tp,t0,80000450 <test_22+0x2>
80000462:	fffe0eb7          	lui	t4,0xfffe0
80000466:	41d9                	li	gp,22
80000468:	05df1463          	bne	t5,t4,800004b0 <fail>

8000046c <test_23>:
8000046c:	4201                	li	tp,0
8000046e:	800000b7          	lui	ra,0x80000
80000472:	00108093          	addi	ra,ra,1 # 80000001 <_end+0xffffdff1>
80000476:	0001                	nop
80000478:	0001                	nop
8000047a:	41f0df13          	srai	t5,ra,0x1f
8000047e:	0205                	addi	tp,tp,1
80000480:	4289                	li	t0,2
80000482:	fe5216e3          	bne	tp,t0,8000046e <test_23+0x2>
80000486:	fff00e93          	li	t4,-1
8000048a:	41dd                	li	gp,23
8000048c:	03df1263          	bne	t5,t4,800004b0 <fail>

80000490 <test_24>:
80000490:	40405093          	srai	ra,zero,0x4
80000494:	4e81                	li	t4,0
80000496:	41e1                	li	gp,24
80000498:	01d09c63          	bne	ra,t4,800004b0 <fail>

8000049c <test_25>:
8000049c:	02100093          	li	ra,33
800004a0:	40a0d013          	srai	zero,ra,0xa
800004a4:	4e81                	li	t4,0
800004a6:	41e5                	li	gp,25
800004a8:	01d01463          	bne	zero,t4,800004b0 <fail>
800004ac:	00301b63          	bne	zero,gp,800004c2 <pass>

800004b0 <fail>:
800004b0:	0ff0000f          	fence
800004b4:	00018063          	beqz	gp,800004b4 <fail+0x4>
800004b8:	0186                	slli	gp,gp,0x1
800004ba:	0011e193          	ori	gp,gp,1
800004be:	00000073          	ecall

800004c2 <pass>:
800004c2:	0ff0000f          	fence
800004c6:	4185                	li	gp,1
800004c8:	00000073          	ecall
	...

Disassembly of section .tohost:

80001000 <tohost>:
	...

80001040 <fromhost>:
	...

Disassembly of section .data:

80002000 <test_trap_data>:
	...
