
rv32ud-p-fdiv:     file format elf32-littleriscv


Disassembly of section .text.init:

80000000 <_start>:
80000000:	aa0d                	j	80000132 <reset_vector>
80000002:	0001                	nop

80000004 <trap_vector>:
80000004:	34051073          	csrw	mscratch,a0
80000008:	00002517          	auipc	a0,0x2
8000000c:	ff850513          	addi	a0,a0,-8 # 80002000 <test_trap_data>
80000010:	01e52023          	sw	t5,0(a0)
80000014:	01f52223          	sw	t6,4(a0)
80000018:	34202f73          	csrr	t5,mcause
8000001c:	040f4163          	bltz	t5,8000005e <other_interrupts>
80000020:	4fa1                	li	t6,8
80000022:	07ff0263          	beq	t5,t6,80000086 <write_tohost>
80000026:	4fa5                	li	t6,9
80000028:	05ff0f63          	beq	t5,t6,80000086 <write_tohost>
8000002c:	4fad                	li	t6,11
8000002e:	05ff0c63          	beq	t5,t6,80000086 <write_tohost>
80000032:	4f85                	li	t6,1
80000034:	0bff0563          	beq	t5,t6,800000de <ifetch_error_handler>
80000038:	4f95                	li	t6,5
8000003a:	0dff0063          	beq	t5,t6,800000fa <load_error_handler>
8000003e:	4f9d                	li	t6,7
80000040:	0dff0b63          	beq	t5,t6,80000116 <store_error_handler>
80000044:	80000f17          	auipc	t5,0x80000
80000048:	fbcf0f13          	addi	t5,t5,-68 # 0 <_start-0x80000000>
8000004c:	000f0363          	beqz	t5,80000052 <trap_vector+0x4e>
80000050:	8f02                	jr	t5
80000052:	34202f73          	csrr	t5,mcause
80000056:	000f5363          	bgez	t5,8000005c <handle_exception>
8000005a:	a009                	j	8000005c <handle_exception>

8000005c <handle_exception>:
8000005c:	a01d                	j	80000082 <other_interrupts+0x24>

8000005e <other_interrupts>:
8000005e:	80000fb7          	lui	t6,0x80000
80000062:	003f8f93          	addi	t6,t6,3 # 80000003 <_end+0xffffdef3>
80000066:	05ff0463          	beq	t5,t6,800000ae <sft_irq_handler>
8000006a:	80000fb7          	lui	t6,0x80000
8000006e:	007f8f93          	addi	t6,t6,7 # 80000007 <_end+0xffffdef7>
80000072:	05ff0a63          	beq	t5,t6,800000c6 <tmr_irq_handler>
80000076:	80000fb7          	lui	t6,0x80000
8000007a:	00bf8f93          	addi	t6,t6,11 # 8000000b <_end+0xffffdefb>
8000007e:	01ff0c63          	beq	t5,t6,80000096 <ext_irq_handler>
80000082:	5391e193          	ori	gp,gp,1337

80000086 <write_tohost>:
80000086:	4521                	li	a0,8
80000088:	30052073          	csrs	mstatus,a0
8000008c:	00001f17          	auipc	t5,0x1
80000090:	f63f2a23          	sw	gp,-140(t5) # 80001000 <tohost>
80000094:	bfcd                	j	80000086 <write_tohost>

80000096 <ext_irq_handler>:
80000096:	00002517          	auipc	a0,0x2
8000009a:	f6a50513          	addi	a0,a0,-150 # 80002000 <test_trap_data>
8000009e:	00052f03          	lw	t5,0(a0)
800000a2:	00452f83          	lw	t6,4(a0)
800000a6:	34002573          	csrr	a0,mscratch
800000aa:	30200073          	mret

800000ae <sft_irq_handler>:
800000ae:	00002517          	auipc	a0,0x2
800000b2:	f5250513          	addi	a0,a0,-174 # 80002000 <test_trap_data>
800000b6:	00052f03          	lw	t5,0(a0)
800000ba:	00452f83          	lw	t6,4(a0)
800000be:	34002573          	csrr	a0,mscratch
800000c2:	30200073          	mret

800000c6 <tmr_irq_handler>:
800000c6:	00002517          	auipc	a0,0x2
800000ca:	f3a50513          	addi	a0,a0,-198 # 80002000 <test_trap_data>
800000ce:	00052f03          	lw	t5,0(a0)
800000d2:	00452f83          	lw	t6,4(a0)
800000d6:	34002573          	csrr	a0,mscratch
800000da:	30200073          	mret

800000de <ifetch_error_handler>:
800000de:	00002517          	auipc	a0,0x2
800000e2:	f2250513          	addi	a0,a0,-222 # 80002000 <test_trap_data>
800000e6:	00052f03          	lw	t5,0(a0)
800000ea:	00452f83          	lw	t6,4(a0)
800000ee:	34302573          	csrr	a0,mbadaddr
800000f2:	34002573          	csrr	a0,mscratch
800000f6:	30200073          	mret

800000fa <load_error_handler>:
800000fa:	00002517          	auipc	a0,0x2
800000fe:	f0650513          	addi	a0,a0,-250 # 80002000 <test_trap_data>
80000102:	00052f03          	lw	t5,0(a0)
80000106:	00452f83          	lw	t6,4(a0)
8000010a:	34302573          	csrr	a0,mbadaddr
8000010e:	34002573          	csrr	a0,mscratch
80000112:	30200073          	mret

80000116 <store_error_handler>:
80000116:	00002517          	auipc	a0,0x2
8000011a:	eea50513          	addi	a0,a0,-278 # 80002000 <test_trap_data>
8000011e:	00052f03          	lw	t5,0(a0)
80000122:	00452f83          	lw	t6,4(a0)
80000126:	34302573          	csrr	a0,mbadaddr
8000012a:	34002573          	csrr	a0,mscratch
8000012e:	30200073          	mret

80000132 <reset_vector>:
80000132:	00000f13          	li	t5,0
80000136:	00000f93          	li	t6,0
8000013a:	f1402573          	csrr	a0,mhartid
8000013e:	e101                	bnez	a0,8000013e <reset_vector+0xc>
80000140:	4181                	li	gp,0
80000142:	00000297          	auipc	t0,0x0
80000146:	ec228293          	addi	t0,t0,-318 # 80000004 <trap_vector>
8000014a:	4521                	li	a0,8
8000014c:	30052073          	csrs	mstatus,a0
80000150:	fff00513          	li	a0,-1
80000154:	30452073          	csrs	mie,a0
80000158:	30529073          	csrw	mtvec,t0

8000015c <post_mtvec>:
8000015c:	80000297          	auipc	t0,0x80000
80000160:	ea428293          	addi	t0,t0,-348 # 0 <_start-0x80000000>
80000164:	00028e63          	beqz	t0,80000180 <post_mtvec+0x24>
80000168:	10529073          	csrw	stvec,t0
8000016c:	0000b2b7          	lui	t0,0xb
80000170:	10928293          	addi	t0,t0,265 # b109 <_start-0x7fff4ef7>
80000174:	30229073          	csrw	medeleg,t0
80000178:	30202373          	csrr	t1,medeleg
8000017c:	ee6290e3          	bne	t0,t1,8000005c <handle_exception>
80000180:	30005073          	csrwi	mstatus,0
80000184:	08000513          	li	a0,128
80000188:	30052073          	csrs	mstatus,a0
8000018c:	4501                	li	a0,0
8000018e:	bfc51073          	csrw	0xbfc,a0
80000192:	0000100f          	fence.i
80000196:	000012b7          	lui	t0,0x1
8000019a:	a0028293          	addi	t0,t0,-1536 # a00 <_start-0x7ffff600>

8000019e <waitloop1>:
8000019e:	12fd                	addi	t0,t0,-1
800001a0:	fe029fe3          	bnez	t0,8000019e <waitloop1>
800001a4:	100083b7          	lui	t2,0x10008
800001a8:	00838393          	addi	t2,t2,8 # 10008008 <_start-0x6fff7ff8>
800001ac:	0003a283          	lw	t0,0(t2)
800001b0:	00040337          	lui	t1,0x40
800001b4:	fff34313          	not	t1,t1
800001b8:	0062f2b3          	and	t0,t0,t1
800001bc:	0053a023          	sw	t0,0(t2)
800001c0:	40000293          	li	t0,1024

800001c4 <waitloop2>:
800001c4:	12fd                	addi	t0,t0,-1
800001c6:	0003ae03          	lw	t3,0(t2)
800001ca:	fe029de3          	bnez	t0,800001c4 <waitloop2>
800001ce:	0003a283          	lw	t0,0(t2)
800001d2:	00040337          	lui	t1,0x40
800001d6:	0062e2b3          	or	t0,t0,t1
800001da:	0053a023          	sw	t0,0(t2)
800001de:	0003a283          	lw	t0,0(t2)
800001e2:	4305                	li	t1,1
800001e4:	0062e2b3          	or	t0,t0,t1
800001e8:	0053a023          	sw	t0,0(t2)
800001ec:	0003a283          	lw	t0,0(t2)
800001f0:	02000313          	li	t1,32
800001f4:	0062e2b3          	or	t0,t0,t1
800001f8:	0053a023          	sw	t0,0(t2)
800001fc:	000012b7          	lui	t0,0x1
80000200:	a0028293          	addi	t0,t0,-1536 # a00 <_start-0x7ffff600>

80000204 <waitloop3>:
80000204:	12fd                	addi	t0,t0,-1
80000206:	fe029fe3          	bnez	t0,80000204 <waitloop3>
8000020a:	0003a283          	lw	t0,0(t2)
8000020e:	00040337          	lui	t1,0x40
80000212:	fff34313          	not	t1,t1
80000216:	0062f2b3          	and	t0,t0,t1
8000021a:	0053a023          	sw	t0,0(t2)
8000021e:	10000293          	li	t0,256

80000222 <waitloop4>:
80000222:	12fd                	addi	t0,t0,-1
80000224:	fe029fe3          	bnez	t0,80000222 <waitloop4>
80000228:	100083b7          	lui	t2,0x10008
8000022c:	00c38393          	addi	t2,t2,12 # 1000800c <_start-0x6fff7ff4>
80000230:	0003a283          	lw	t0,0(t2)
80000234:	10000313          	li	t1,256
80000238:	fff34313          	not	t1,t1
8000023c:	0062f2b3          	and	t0,t0,t1
80000240:	4309                	li	t1,2
80000242:	0062e2b3          	or	t0,t0,t1
80000246:	0053a023          	sw	t0,0(t2)
8000024a:	40000293          	li	t0,1024
8000024e:	6509                	lui	a0,0x2
80000250:	30052073          	csrs	mstatus,a0
80000254:	00305073          	csrwi	fcsr,0
80000258:	00000297          	auipc	t0,0x0
8000025c:	01428293          	addi	t0,t0,20 # 8000026c <test_2>
80000260:	34129073          	csrw	mepc,t0
80000264:	f1402573          	csrr	a0,mhartid
80000268:	30200073          	mret

8000026c <test_2>:
8000026c:	4189                	li	gp,2
8000026e:	00002517          	auipc	a0,0x2
80000272:	d9a50513          	addi	a0,a0,-614 # 80002008 <test_2_data>
80000276:	00053007          	fld	ft0,0(a0)
8000027a:	00853087          	fld	ft1,8(a0)
8000027e:	01053107          	fld	ft2,16(a0)
80000282:	4d14                	lw	a3,24(a0)
80000284:	4d58                	lw	a4,28(a0)
80000286:	1a1071d3          	fdiv.d	ft3,ft0,ft1
8000028a:	00353c27          	fsd	ft3,24(a0)
8000028e:	01852803          	lw	a6,24(a0)
80000292:	4d5c                	lw	a5,28(a0)
80000294:	1af71663          	bne	a4,a5,80000440 <fail>
80000298:	001015f3          	fsflags	a1,zero
8000029c:	4605                	li	a2,1
8000029e:	1ad81163          	bne	a6,a3,80000440 <fail>
800002a2:	18c59f63          	bne	a1,a2,80000440 <fail>

800002a6 <test_3>:
800002a6:	418d                	li	gp,3
800002a8:	00002517          	auipc	a0,0x2
800002ac:	d8050513          	addi	a0,a0,-640 # 80002028 <test_3_data>
800002b0:	00053007          	fld	ft0,0(a0)
800002b4:	00853087          	fld	ft1,8(a0)
800002b8:	01053107          	fld	ft2,16(a0)
800002bc:	4d14                	lw	a3,24(a0)
800002be:	4d58                	lw	a4,28(a0)
800002c0:	1a1071d3          	fdiv.d	ft3,ft0,ft1
800002c4:	00353c27          	fsd	ft3,24(a0)
800002c8:	01852803          	lw	a6,24(a0)
800002cc:	4d5c                	lw	a5,28(a0)
800002ce:	16f71963          	bne	a4,a5,80000440 <fail>
800002d2:	001015f3          	fsflags	a1,zero
800002d6:	4605                	li	a2,1
800002d8:	16d81463          	bne	a6,a3,80000440 <fail>
800002dc:	16c59263          	bne	a1,a2,80000440 <fail>

800002e0 <test_4>:
800002e0:	4191                	li	gp,4
800002e2:	00002517          	auipc	a0,0x2
800002e6:	d6650513          	addi	a0,a0,-666 # 80002048 <test_4_data>
800002ea:	00053007          	fld	ft0,0(a0)
800002ee:	00853087          	fld	ft1,8(a0)
800002f2:	01053107          	fld	ft2,16(a0)
800002f6:	4d14                	lw	a3,24(a0)
800002f8:	4d58                	lw	a4,28(a0)
800002fa:	1a1071d3          	fdiv.d	ft3,ft0,ft1
800002fe:	00353c27          	fsd	ft3,24(a0)
80000302:	01852803          	lw	a6,24(a0)
80000306:	4d5c                	lw	a5,28(a0)
80000308:	12f71c63          	bne	a4,a5,80000440 <fail>
8000030c:	001015f3          	fsflags	a1,zero
80000310:	4601                	li	a2,0
80000312:	12d81763          	bne	a6,a3,80000440 <fail>
80000316:	12c59563          	bne	a1,a2,80000440 <fail>

8000031a <test_5>:
8000031a:	4195                	li	gp,5
8000031c:	00002517          	auipc	a0,0x2
80000320:	d4c50513          	addi	a0,a0,-692 # 80002068 <test_5_data>
80000324:	00053007          	fld	ft0,0(a0)
80000328:	00853087          	fld	ft1,8(a0)
8000032c:	01053107          	fld	ft2,16(a0)
80000330:	4d14                	lw	a3,24(a0)
80000332:	4d58                	lw	a4,28(a0)
80000334:	5a0071d3          	fsqrt.d	ft3,ft0
80000338:	00353c27          	fsd	ft3,24(a0)
8000033c:	01852803          	lw	a6,24(a0)
80000340:	4d5c                	lw	a5,28(a0)
80000342:	0ef71f63          	bne	a4,a5,80000440 <fail>
80000346:	001015f3          	fsflags	a1,zero
8000034a:	4605                	li	a2,1
8000034c:	0ed81a63          	bne	a6,a3,80000440 <fail>
80000350:	0ec59863          	bne	a1,a2,80000440 <fail>

80000354 <test_6>:
80000354:	4199                	li	gp,6
80000356:	00002517          	auipc	a0,0x2
8000035a:	d3250513          	addi	a0,a0,-718 # 80002088 <test_6_data>
8000035e:	00053007          	fld	ft0,0(a0)
80000362:	00853087          	fld	ft1,8(a0)
80000366:	01053107          	fld	ft2,16(a0)
8000036a:	4d14                	lw	a3,24(a0)
8000036c:	4d58                	lw	a4,28(a0)
8000036e:	5a0071d3          	fsqrt.d	ft3,ft0
80000372:	00353c27          	fsd	ft3,24(a0)
80000376:	01852803          	lw	a6,24(a0)
8000037a:	4d5c                	lw	a5,28(a0)
8000037c:	0cf71263          	bne	a4,a5,80000440 <fail>
80000380:	001015f3          	fsflags	a1,zero
80000384:	4601                	li	a2,0
80000386:	0ad81d63          	bne	a6,a3,80000440 <fail>
8000038a:	0ac59b63          	bne	a1,a2,80000440 <fail>

8000038e <test_16>:
8000038e:	41c1                	li	gp,16
80000390:	00002517          	auipc	a0,0x2
80000394:	d1850513          	addi	a0,a0,-744 # 800020a8 <test_16_data>
80000398:	00053007          	fld	ft0,0(a0)
8000039c:	00853087          	fld	ft1,8(a0)
800003a0:	01053107          	fld	ft2,16(a0)
800003a4:	4d14                	lw	a3,24(a0)
800003a6:	4d58                	lw	a4,28(a0)
800003a8:	5a0071d3          	fsqrt.d	ft3,ft0
800003ac:	00353c27          	fsd	ft3,24(a0)
800003b0:	01852803          	lw	a6,24(a0)
800003b4:	4d5c                	lw	a5,28(a0)
800003b6:	08f71563          	bne	a4,a5,80000440 <fail>
800003ba:	001015f3          	fsflags	a1,zero
800003be:	4641                	li	a2,16
800003c0:	08d81063          	bne	a6,a3,80000440 <fail>
800003c4:	06c59e63          	bne	a1,a2,80000440 <fail>

800003c8 <test_7>:
800003c8:	419d                	li	gp,7
800003ca:	00002517          	auipc	a0,0x2
800003ce:	cfe50513          	addi	a0,a0,-770 # 800020c8 <test_7_data>
800003d2:	00053007          	fld	ft0,0(a0)
800003d6:	00853087          	fld	ft1,8(a0)
800003da:	01053107          	fld	ft2,16(a0)
800003de:	4d14                	lw	a3,24(a0)
800003e0:	4d58                	lw	a4,28(a0)
800003e2:	5a0071d3          	fsqrt.d	ft3,ft0
800003e6:	00353c27          	fsd	ft3,24(a0)
800003ea:	01852803          	lw	a6,24(a0)
800003ee:	4d5c                	lw	a5,28(a0)
800003f0:	04f71863          	bne	a4,a5,80000440 <fail>
800003f4:	001015f3          	fsflags	a1,zero
800003f8:	4605                	li	a2,1
800003fa:	04d81363          	bne	a6,a3,80000440 <fail>
800003fe:	04c59163          	bne	a1,a2,80000440 <fail>

80000402 <test_8>:
80000402:	41a1                	li	gp,8
80000404:	00002517          	auipc	a0,0x2
80000408:	ce450513          	addi	a0,a0,-796 # 800020e8 <test_8_data>
8000040c:	00053007          	fld	ft0,0(a0)
80000410:	00853087          	fld	ft1,8(a0)
80000414:	01053107          	fld	ft2,16(a0)
80000418:	4d14                	lw	a3,24(a0)
8000041a:	4d58                	lw	a4,28(a0)
8000041c:	5a0071d3          	fsqrt.d	ft3,ft0
80000420:	00353c27          	fsd	ft3,24(a0)
80000424:	01852803          	lw	a6,24(a0)
80000428:	4d5c                	lw	a5,28(a0)
8000042a:	00f71b63          	bne	a4,a5,80000440 <fail>
8000042e:	001015f3          	fsflags	a1,zero
80000432:	4605                	li	a2,1
80000434:	00d81663          	bne	a6,a3,80000440 <fail>
80000438:	00c59463          	bne	a1,a2,80000440 <fail>
8000043c:	00301b63          	bne	zero,gp,80000452 <pass>

80000440 <fail>:
80000440:	0ff0000f          	fence
80000444:	00018063          	beqz	gp,80000444 <fail+0x4>
80000448:	0186                	slli	gp,gp,0x1
8000044a:	0011e193          	ori	gp,gp,1
8000044e:	00000073          	ecall

80000452 <pass>:
80000452:	0ff0000f          	fence
80000456:	4185                	li	gp,1
80000458:	00000073          	ecall
	...

Disassembly of section .tohost:

80001000 <tohost>:
	...

80001040 <fromhost>:
	...

Disassembly of section .data:

80002000 <test_trap_data>:
	...

80002008 <test_2_data>:
80002008:	d4f1                	beqz	s1,80001fd4 <fromhost+0xf94>
8000200a:	53c8                	lw	a0,36(a5)
8000200c:	400921fb          	0x400921fb
80002010:	b0dd                	j	800018f6 <fromhost+0x8b6>
80002012:	89f1                	andi	a1,a1,28
80002014:	bf0a                	fsd	ft2,440(sp)
80002016:	4005                	c.li	zero,1
	...
80002020:	83ec                	0x83ec
80002022:	7ddbf6c3          	0x7ddbf6c3
80002026:	3ff2                	fld	ft11,312(sp)

80002028 <test_3_data>:
80002028:	0000                	unimp
8000202a:	0000                	unimp
8000202c:	4800                	lw	s0,16(s0)
8000202e:	6666c093          	xori	ra,a3,1638
80002032:	6666                	flw	fa2,88(sp)
80002034:	4c66                	lw	s8,88(sp)
80002036:	00004093          	xori	ra,zero,0
8000203a:	0000                	unimp
8000203c:	0000                	unimp
8000203e:	0000                	unimp
80002040:	29a5                	jal	800024b8 <_end+0x3a8>
80002042:	3e19                	jal	80001b58 <fromhost+0xb18>
80002044:	f8b4                	fsw	fa3,112(s1)
80002046:	          	jal	t6,7ff1dd94 <_start-0xe226c>

80002048 <test_4_data>:
80002048:	d4f1                	beqz	s1,80002014 <test_2_data+0xc>
8000204a:	53c8                	lw	a0,36(a5)
8000204c:	400921fb          	0x400921fb
80002050:	0000                	unimp
80002052:	0000                	unimp
80002054:	0000                	unimp
80002056:	3ff0                	fld	fa2,248(a5)
	...
80002060:	d4f1                	beqz	s1,8000202c <test_3_data+0x4>
80002062:	53c8                	lw	a0,36(a5)
80002064:	400921fb          	0x400921fb

80002068 <test_5_data>:
80002068:	d4f1                	beqz	s1,80002034 <test_3_data+0xc>
8000206a:	53c8                	lw	a0,36(a5)
8000206c:	400921fb          	0x400921fb
	...
80002080:	916f587b          	0x916f587b
80002084:	5bf8                	lw	a4,116(a5)
80002086:	3ffc                	fld	fa5,248(a5)

80002088 <test_6_data>:
80002088:	0000                	unimp
8000208a:	0000                	unimp
8000208c:	8800                	0x8800
8000208e:	000040c3          	fmadd.s	ft1,ft0,ft0,ft0,rmm
	...
800020a6:	4059                	c.li	zero,22

800020a8 <test_16_data>:
800020a8:	0000                	unimp
800020aa:	0000                	unimp
800020ac:	0000                	unimp
800020ae:	bff0                	fsd	fa2,248(a5)
	...
800020c4:	0000                	unimp
800020c6:	7ff8                	flw	fa4,124(a5)

800020c8 <test_7_data>:
800020c8:	0000                	unimp
800020ca:	0000                	unimp
800020cc:	6000                	flw	fs0,0(s0)
800020ce:	4065                	c.li	zero,25
	...
800020e0:	74f5                	lui	s1,0xffffd
800020e2:	ce96                	sw	t0,92(sp)
800020e4:	2744                	fld	fs1,136(a4)
800020e6:	402a                	0x402a

800020e8 <test_8_data>:
800020e8:	a105                	j	80002508 <_end+0x3f8>
800020ea:	c70a                	sw	sp,140(sp)
800020ec:	94df 3e85 0000      	0x3e8594df
	...
800020fe:	0000                	unimp
80002100:	7f99                	lui	t6,0xfffe6
80002102:	4789c0e3          	blt	s3,s8,80002d62 <_end+0xc52>
80002106:	3f3a                	fld	ft10,424(sp)
	...
