
rv32ui-p-and:     file format elf32-littleriscv


Disassembly of section .text.init:

80000000 <_start>:
80000000:	aa0d                	j	80000132 <reset_vector>
80000002:	0001                	nop

80000004 <trap_vector>:
80000004:	34051073          	csrw	mscratch,a0
80000008:	00002517          	auipc	a0,0x2
8000000c:	ff850513          	addi	a0,a0,-8 # 80002000 <test_trap_data>
80000010:	01e52023          	sw	t5,0(a0)
80000014:	01f52223          	sw	t6,4(a0)
80000018:	34202f73          	csrr	t5,mcause
8000001c:	040f4163          	bltz	t5,8000005e <other_interrupts>
80000020:	4fa1                	li	t6,8
80000022:	07ff0263          	beq	t5,t6,80000086 <write_tohost>
80000026:	4fa5                	li	t6,9
80000028:	05ff0f63          	beq	t5,t6,80000086 <write_tohost>
8000002c:	4fad                	li	t6,11
8000002e:	05ff0c63          	beq	t5,t6,80000086 <write_tohost>
80000032:	4f85                	li	t6,1
80000034:	0bff0563          	beq	t5,t6,800000de <ifetch_error_handler>
80000038:	4f95                	li	t6,5
8000003a:	0dff0063          	beq	t5,t6,800000fa <load_error_handler>
8000003e:	4f9d                	li	t6,7
80000040:	0dff0b63          	beq	t5,t6,80000116 <store_error_handler>
80000044:	80000f17          	auipc	t5,0x80000
80000048:	fbcf0f13          	addi	t5,t5,-68 # 0 <_start-0x80000000>
8000004c:	000f0363          	beqz	t5,80000052 <trap_vector+0x4e>
80000050:	8f02                	jr	t5
80000052:	34202f73          	csrr	t5,mcause
80000056:	000f5363          	bgez	t5,8000005c <handle_exception>
8000005a:	a009                	j	8000005c <handle_exception>

8000005c <handle_exception>:
8000005c:	a01d                	j	80000082 <other_interrupts+0x24>

8000005e <other_interrupts>:
8000005e:	80000fb7          	lui	t6,0x80000
80000062:	003f8f93          	addi	t6,t6,3 # 80000003 <_end+0xffffdff3>
80000066:	05ff0463          	beq	t5,t6,800000ae <sft_irq_handler>
8000006a:	80000fb7          	lui	t6,0x80000
8000006e:	007f8f93          	addi	t6,t6,7 # 80000007 <_end+0xffffdff7>
80000072:	05ff0a63          	beq	t5,t6,800000c6 <tmr_irq_handler>
80000076:	80000fb7          	lui	t6,0x80000
8000007a:	00bf8f93          	addi	t6,t6,11 # 8000000b <_end+0xffffdffb>
8000007e:	01ff0c63          	beq	t5,t6,80000096 <ext_irq_handler>
80000082:	5391e193          	ori	gp,gp,1337

80000086 <write_tohost>:
80000086:	4521                	li	a0,8
80000088:	30052073          	csrs	mstatus,a0
8000008c:	00001f17          	auipc	t5,0x1
80000090:	f63f2a23          	sw	gp,-140(t5) # 80001000 <tohost>
80000094:	bfcd                	j	80000086 <write_tohost>

80000096 <ext_irq_handler>:
80000096:	00002517          	auipc	a0,0x2
8000009a:	f6a50513          	addi	a0,a0,-150 # 80002000 <test_trap_data>
8000009e:	00052f03          	lw	t5,0(a0)
800000a2:	00452f83          	lw	t6,4(a0)
800000a6:	34002573          	csrr	a0,mscratch
800000aa:	30200073          	mret

800000ae <sft_irq_handler>:
800000ae:	00002517          	auipc	a0,0x2
800000b2:	f5250513          	addi	a0,a0,-174 # 80002000 <test_trap_data>
800000b6:	00052f03          	lw	t5,0(a0)
800000ba:	00452f83          	lw	t6,4(a0)
800000be:	34002573          	csrr	a0,mscratch
800000c2:	30200073          	mret

800000c6 <tmr_irq_handler>:
800000c6:	00002517          	auipc	a0,0x2
800000ca:	f3a50513          	addi	a0,a0,-198 # 80002000 <test_trap_data>
800000ce:	00052f03          	lw	t5,0(a0)
800000d2:	00452f83          	lw	t6,4(a0)
800000d6:	34002573          	csrr	a0,mscratch
800000da:	30200073          	mret

800000de <ifetch_error_handler>:
800000de:	00002517          	auipc	a0,0x2
800000e2:	f2250513          	addi	a0,a0,-222 # 80002000 <test_trap_data>
800000e6:	00052f03          	lw	t5,0(a0)
800000ea:	00452f83          	lw	t6,4(a0)
800000ee:	34302573          	csrr	a0,mbadaddr
800000f2:	34002573          	csrr	a0,mscratch
800000f6:	30200073          	mret

800000fa <load_error_handler>:
800000fa:	00002517          	auipc	a0,0x2
800000fe:	f0650513          	addi	a0,a0,-250 # 80002000 <test_trap_data>
80000102:	00052f03          	lw	t5,0(a0)
80000106:	00452f83          	lw	t6,4(a0)
8000010a:	34302573          	csrr	a0,mbadaddr
8000010e:	34002573          	csrr	a0,mscratch
80000112:	30200073          	mret

80000116 <store_error_handler>:
80000116:	00002517          	auipc	a0,0x2
8000011a:	eea50513          	addi	a0,a0,-278 # 80002000 <test_trap_data>
8000011e:	00052f03          	lw	t5,0(a0)
80000122:	00452f83          	lw	t6,4(a0)
80000126:	34302573          	csrr	a0,mbadaddr
8000012a:	34002573          	csrr	a0,mscratch
8000012e:	30200073          	mret

80000132 <reset_vector>:
80000132:	00000f13          	li	t5,0
80000136:	00000f93          	li	t6,0
8000013a:	f1402573          	csrr	a0,mhartid
8000013e:	e101                	bnez	a0,8000013e <reset_vector+0xc>
80000140:	4181                	li	gp,0
80000142:	00000297          	auipc	t0,0x0
80000146:	ec228293          	addi	t0,t0,-318 # 80000004 <trap_vector>
8000014a:	4521                	li	a0,8
8000014c:	30052073          	csrs	mstatus,a0
80000150:	fff00513          	li	a0,-1
80000154:	30452073          	csrs	mie,a0
80000158:	30529073          	csrw	mtvec,t0

8000015c <post_mtvec>:
8000015c:	80000297          	auipc	t0,0x80000
80000160:	ea428293          	addi	t0,t0,-348 # 0 <_start-0x80000000>
80000164:	00028e63          	beqz	t0,80000180 <post_mtvec+0x24>
80000168:	10529073          	csrw	stvec,t0
8000016c:	0000b2b7          	lui	t0,0xb
80000170:	10928293          	addi	t0,t0,265 # b109 <_start-0x7fff4ef7>
80000174:	30229073          	csrw	medeleg,t0
80000178:	30202373          	csrr	t1,medeleg
8000017c:	ee6290e3          	bne	t0,t1,8000005c <handle_exception>
80000180:	30005073          	csrwi	mstatus,0
80000184:	08000513          	li	a0,128
80000188:	30052073          	csrs	mstatus,a0
8000018c:	4501                	li	a0,0
8000018e:	bfc51073          	csrw	0xbfc,a0
80000192:	0000100f          	fence.i
80000196:	000012b7          	lui	t0,0x1
8000019a:	a0028293          	addi	t0,t0,-1536 # a00 <_start-0x7ffff600>

8000019e <waitloop1>:
8000019e:	12fd                	addi	t0,t0,-1
800001a0:	fe029fe3          	bnez	t0,8000019e <waitloop1>
800001a4:	100083b7          	lui	t2,0x10008
800001a8:	00838393          	addi	t2,t2,8 # 10008008 <_start-0x6fff7ff8>
800001ac:	0003a283          	lw	t0,0(t2)
800001b0:	00040337          	lui	t1,0x40
800001b4:	fff34313          	not	t1,t1
800001b8:	0062f2b3          	and	t0,t0,t1
800001bc:	0053a023          	sw	t0,0(t2)
800001c0:	40000293          	li	t0,1024

800001c4 <waitloop2>:
800001c4:	12fd                	addi	t0,t0,-1
800001c6:	0003ae03          	lw	t3,0(t2)
800001ca:	fe029de3          	bnez	t0,800001c4 <waitloop2>
800001ce:	0003a283          	lw	t0,0(t2)
800001d2:	00040337          	lui	t1,0x40
800001d6:	0062e2b3          	or	t0,t0,t1
800001da:	0053a023          	sw	t0,0(t2)
800001de:	0003a283          	lw	t0,0(t2)
800001e2:	4305                	li	t1,1
800001e4:	0062e2b3          	or	t0,t0,t1
800001e8:	0053a023          	sw	t0,0(t2)
800001ec:	0003a283          	lw	t0,0(t2)
800001f0:	02000313          	li	t1,32
800001f4:	0062e2b3          	or	t0,t0,t1
800001f8:	0053a023          	sw	t0,0(t2)
800001fc:	000012b7          	lui	t0,0x1
80000200:	a0028293          	addi	t0,t0,-1536 # a00 <_start-0x7ffff600>

80000204 <waitloop3>:
80000204:	12fd                	addi	t0,t0,-1
80000206:	fe029fe3          	bnez	t0,80000204 <waitloop3>
8000020a:	0003a283          	lw	t0,0(t2)
8000020e:	00040337          	lui	t1,0x40
80000212:	fff34313          	not	t1,t1
80000216:	0062f2b3          	and	t0,t0,t1
8000021a:	0053a023          	sw	t0,0(t2)
8000021e:	10000293          	li	t0,256

80000222 <waitloop4>:
80000222:	12fd                	addi	t0,t0,-1
80000224:	fe029fe3          	bnez	t0,80000222 <waitloop4>
80000228:	100083b7          	lui	t2,0x10008
8000022c:	00c38393          	addi	t2,t2,12 # 1000800c <_start-0x6fff7ff4>
80000230:	0003a283          	lw	t0,0(t2)
80000234:	10000313          	li	t1,256
80000238:	fff34313          	not	t1,t1
8000023c:	0062f2b3          	and	t0,t0,t1
80000240:	4309                	li	t1,2
80000242:	0062e2b3          	or	t0,t0,t1
80000246:	0053a023          	sw	t0,0(t2)
8000024a:	40000293          	li	t0,1024
8000024e:	00000297          	auipc	t0,0x0
80000252:	01428293          	addi	t0,t0,20 # 80000262 <test_2>
80000256:	34129073          	csrw	mepc,t0
8000025a:	f1402573          	csrr	a0,mhartid
8000025e:	30200073          	mret

80000262 <test_2>:
80000262:	ff0100b7          	lui	ra,0xff010
80000266:	f0008093          	addi	ra,ra,-256 # ff00ff00 <_end+0x7f00def0>
8000026a:	0f0f1137          	lui	sp,0xf0f1
8000026e:	f0f10113          	addi	sp,sp,-241 # f0f0f0f <_start-0x70f0f0f1>
80000272:	0020ff33          	and	t5,ra,sp
80000276:	0f001eb7          	lui	t4,0xf001
8000027a:	f00e8e93          	addi	t4,t4,-256 # f000f00 <_start-0x70fff100>
8000027e:	4189                	li	gp,2
80000280:	3ddf1f63          	bne	t5,t4,8000065e <fail>

80000284 <test_3>:
80000284:	0ff010b7          	lui	ra,0xff01
80000288:	ff008093          	addi	ra,ra,-16 # ff00ff0 <_start-0x700ff010>
8000028c:	f0f0f137          	lui	sp,0xf0f0f
80000290:	0f010113          	addi	sp,sp,240 # f0f0f0f0 <_end+0x70f0d0e0>
80000294:	0020ff33          	and	t5,ra,sp
80000298:	00f00eb7          	lui	t4,0xf00
8000029c:	0f0e8e93          	addi	t4,t4,240 # f000f0 <_start-0x7f0fff10>
800002a0:	418d                	li	gp,3
800002a2:	3bdf1e63          	bne	t5,t4,8000065e <fail>

800002a6 <test_4>:
800002a6:	00ff00b7          	lui	ra,0xff0
800002aa:	0ff08093          	addi	ra,ra,255 # ff00ff <_start-0x7f00ff01>
800002ae:	0f0f1137          	lui	sp,0xf0f1
800002b2:	f0f10113          	addi	sp,sp,-241 # f0f0f0f <_start-0x70f0f0f1>
800002b6:	0020ff33          	and	t5,ra,sp
800002ba:	000f0eb7          	lui	t4,0xf0
800002be:	00fe8e93          	addi	t4,t4,15 # f000f <_start-0x7ff0fff1>
800002c2:	4191                	li	gp,4
800002c4:	39df1d63          	bne	t5,t4,8000065e <fail>

800002c8 <test_5>:
800002c8:	f00ff0b7          	lui	ra,0xf00ff
800002cc:	00f08093          	addi	ra,ra,15 # f00ff00f <_end+0x700fcfff>
800002d0:	f0f0f137          	lui	sp,0xf0f0f
800002d4:	0f010113          	addi	sp,sp,240 # f0f0f0f0 <_end+0x70f0d0e0>
800002d8:	0020ff33          	and	t5,ra,sp
800002dc:	f000feb7          	lui	t4,0xf000f
800002e0:	4195                	li	gp,5
800002e2:	37df1e63          	bne	t5,t4,8000065e <fail>

800002e6 <test_6>:
800002e6:	ff0100b7          	lui	ra,0xff010
800002ea:	f0008093          	addi	ra,ra,-256 # ff00ff00 <_end+0x7f00def0>
800002ee:	0f0f1137          	lui	sp,0xf0f1
800002f2:	f0f10113          	addi	sp,sp,-241 # f0f0f0f <_start-0x70f0f0f1>
800002f6:	0020f0b3          	and	ra,ra,sp
800002fa:	0f001eb7          	lui	t4,0xf001
800002fe:	f00e8e93          	addi	t4,t4,-256 # f000f00 <_start-0x70fff100>
80000302:	4199                	li	gp,6
80000304:	35d09d63          	bne	ra,t4,8000065e <fail>

80000308 <test_7>:
80000308:	0ff010b7          	lui	ra,0xff01
8000030c:	ff008093          	addi	ra,ra,-16 # ff00ff0 <_start-0x700ff010>
80000310:	f0f0f137          	lui	sp,0xf0f0f
80000314:	0f010113          	addi	sp,sp,240 # f0f0f0f0 <_end+0x70f0d0e0>
80000318:	0020f133          	and	sp,ra,sp
8000031c:	00f00eb7          	lui	t4,0xf00
80000320:	0f0e8e93          	addi	t4,t4,240 # f000f0 <_start-0x7f0fff10>
80000324:	419d                	li	gp,7
80000326:	33d11c63          	bne	sp,t4,8000065e <fail>

8000032a <test_8>:
8000032a:	ff0100b7          	lui	ra,0xff010
8000032e:	f0008093          	addi	ra,ra,-256 # ff00ff00 <_end+0x7f00def0>
80000332:	0010f0b3          	and	ra,ra,ra
80000336:	ff010eb7          	lui	t4,0xff010
8000033a:	f00e8e93          	addi	t4,t4,-256 # ff00ff00 <_end+0x7f00def0>
8000033e:	41a1                	li	gp,8
80000340:	31d09f63          	bne	ra,t4,8000065e <fail>

80000344 <test_9>:
80000344:	4201                	li	tp,0
80000346:	ff0100b7          	lui	ra,0xff010
8000034a:	f0008093          	addi	ra,ra,-256 # ff00ff00 <_end+0x7f00def0>
8000034e:	0f0f1137          	lui	sp,0xf0f1
80000352:	f0f10113          	addi	sp,sp,-241 # f0f0f0f <_start-0x70f0f0f1>
80000356:	0020ff33          	and	t5,ra,sp
8000035a:	000f0313          	mv	t1,t5
8000035e:	0205                	addi	tp,tp,1
80000360:	4289                	li	t0,2
80000362:	fe5212e3          	bne	tp,t0,80000346 <test_9+0x2>
80000366:	0f001eb7          	lui	t4,0xf001
8000036a:	f00e8e93          	addi	t4,t4,-256 # f000f00 <_start-0x70fff100>
8000036e:	41a5                	li	gp,9
80000370:	2fd31763          	bne	t1,t4,8000065e <fail>

80000374 <test_10>:
80000374:	4201                	li	tp,0
80000376:	0ff010b7          	lui	ra,0xff01
8000037a:	ff008093          	addi	ra,ra,-16 # ff00ff0 <_start-0x700ff010>
8000037e:	f0f0f137          	lui	sp,0xf0f0f
80000382:	0f010113          	addi	sp,sp,240 # f0f0f0f0 <_end+0x70f0d0e0>
80000386:	0020ff33          	and	t5,ra,sp
8000038a:	0001                	nop
8000038c:	000f0313          	mv	t1,t5
80000390:	0205                	addi	tp,tp,1
80000392:	4289                	li	t0,2
80000394:	fe5211e3          	bne	tp,t0,80000376 <test_10+0x2>
80000398:	00f00eb7          	lui	t4,0xf00
8000039c:	0f0e8e93          	addi	t4,t4,240 # f000f0 <_start-0x7f0fff10>
800003a0:	41a9                	li	gp,10
800003a2:	2bd31e63          	bne	t1,t4,8000065e <fail>

800003a6 <test_11>:
800003a6:	4201                	li	tp,0
800003a8:	00ff00b7          	lui	ra,0xff0
800003ac:	0ff08093          	addi	ra,ra,255 # ff00ff <_start-0x7f00ff01>
800003b0:	0f0f1137          	lui	sp,0xf0f1
800003b4:	f0f10113          	addi	sp,sp,-241 # f0f0f0f <_start-0x70f0f0f1>
800003b8:	0020ff33          	and	t5,ra,sp
800003bc:	0001                	nop
800003be:	0001                	nop
800003c0:	000f0313          	mv	t1,t5
800003c4:	0205                	addi	tp,tp,1
800003c6:	4289                	li	t0,2
800003c8:	fe5210e3          	bne	tp,t0,800003a8 <test_11+0x2>
800003cc:	000f0eb7          	lui	t4,0xf0
800003d0:	00fe8e93          	addi	t4,t4,15 # f000f <_start-0x7ff0fff1>
800003d4:	41ad                	li	gp,11
800003d6:	29d31463          	bne	t1,t4,8000065e <fail>

800003da <test_12>:
800003da:	4201                	li	tp,0
800003dc:	ff0100b7          	lui	ra,0xff010
800003e0:	f0008093          	addi	ra,ra,-256 # ff00ff00 <_end+0x7f00def0>
800003e4:	0f0f1137          	lui	sp,0xf0f1
800003e8:	f0f10113          	addi	sp,sp,-241 # f0f0f0f <_start-0x70f0f0f1>
800003ec:	0020ff33          	and	t5,ra,sp
800003f0:	0205                	addi	tp,tp,1
800003f2:	4289                	li	t0,2
800003f4:	fe5214e3          	bne	tp,t0,800003dc <test_12+0x2>
800003f8:	0f001eb7          	lui	t4,0xf001
800003fc:	f00e8e93          	addi	t4,t4,-256 # f000f00 <_start-0x70fff100>
80000400:	41b1                	li	gp,12
80000402:	25df1e63          	bne	t5,t4,8000065e <fail>

80000406 <test_13>:
80000406:	4201                	li	tp,0
80000408:	0ff010b7          	lui	ra,0xff01
8000040c:	ff008093          	addi	ra,ra,-16 # ff00ff0 <_start-0x700ff010>
80000410:	f0f0f137          	lui	sp,0xf0f0f
80000414:	0f010113          	addi	sp,sp,240 # f0f0f0f0 <_end+0x70f0d0e0>
80000418:	0001                	nop
8000041a:	0020ff33          	and	t5,ra,sp
8000041e:	0205                	addi	tp,tp,1
80000420:	4289                	li	t0,2
80000422:	fe5213e3          	bne	tp,t0,80000408 <test_13+0x2>
80000426:	00f00eb7          	lui	t4,0xf00
8000042a:	0f0e8e93          	addi	t4,t4,240 # f000f0 <_start-0x7f0fff10>
8000042e:	41b5                	li	gp,13
80000430:	23df1763          	bne	t5,t4,8000065e <fail>

80000434 <test_14>:
80000434:	4201                	li	tp,0
80000436:	00ff00b7          	lui	ra,0xff0
8000043a:	0ff08093          	addi	ra,ra,255 # ff00ff <_start-0x7f00ff01>
8000043e:	0f0f1137          	lui	sp,0xf0f1
80000442:	f0f10113          	addi	sp,sp,-241 # f0f0f0f <_start-0x70f0f0f1>
80000446:	0001                	nop
80000448:	0001                	nop
8000044a:	0020ff33          	and	t5,ra,sp
8000044e:	0205                	addi	tp,tp,1
80000450:	4289                	li	t0,2
80000452:	fe5212e3          	bne	tp,t0,80000436 <test_14+0x2>
80000456:	000f0eb7          	lui	t4,0xf0
8000045a:	00fe8e93          	addi	t4,t4,15 # f000f <_start-0x7ff0fff1>
8000045e:	41b9                	li	gp,14
80000460:	1fdf1f63          	bne	t5,t4,8000065e <fail>

80000464 <test_15>:
80000464:	4201                	li	tp,0
80000466:	ff0100b7          	lui	ra,0xff010
8000046a:	f0008093          	addi	ra,ra,-256 # ff00ff00 <_end+0x7f00def0>
8000046e:	0001                	nop
80000470:	0f0f1137          	lui	sp,0xf0f1
80000474:	f0f10113          	addi	sp,sp,-241 # f0f0f0f <_start-0x70f0f0f1>
80000478:	0020ff33          	and	t5,ra,sp
8000047c:	0205                	addi	tp,tp,1
8000047e:	4289                	li	t0,2
80000480:	fe5213e3          	bne	tp,t0,80000466 <test_15+0x2>
80000484:	0f001eb7          	lui	t4,0xf001
80000488:	f00e8e93          	addi	t4,t4,-256 # f000f00 <_start-0x70fff100>
8000048c:	41bd                	li	gp,15
8000048e:	1ddf1863          	bne	t5,t4,8000065e <fail>

80000492 <test_16>:
80000492:	4201                	li	tp,0
80000494:	0ff010b7          	lui	ra,0xff01
80000498:	ff008093          	addi	ra,ra,-16 # ff00ff0 <_start-0x700ff010>
8000049c:	0001                	nop
8000049e:	f0f0f137          	lui	sp,0xf0f0f
800004a2:	0f010113          	addi	sp,sp,240 # f0f0f0f0 <_end+0x70f0d0e0>
800004a6:	0001                	nop
800004a8:	0020ff33          	and	t5,ra,sp
800004ac:	0205                	addi	tp,tp,1
800004ae:	4289                	li	t0,2
800004b0:	fe5212e3          	bne	tp,t0,80000494 <test_16+0x2>
800004b4:	00f00eb7          	lui	t4,0xf00
800004b8:	0f0e8e93          	addi	t4,t4,240 # f000f0 <_start-0x7f0fff10>
800004bc:	41c1                	li	gp,16
800004be:	1bdf1063          	bne	t5,t4,8000065e <fail>

800004c2 <test_17>:
800004c2:	4201                	li	tp,0
800004c4:	00ff00b7          	lui	ra,0xff0
800004c8:	0ff08093          	addi	ra,ra,255 # ff00ff <_start-0x7f00ff01>
800004cc:	0001                	nop
800004ce:	0001                	nop
800004d0:	0f0f1137          	lui	sp,0xf0f1
800004d4:	f0f10113          	addi	sp,sp,-241 # f0f0f0f <_start-0x70f0f0f1>
800004d8:	0020ff33          	and	t5,ra,sp
800004dc:	0205                	addi	tp,tp,1
800004de:	4289                	li	t0,2
800004e0:	fe5212e3          	bne	tp,t0,800004c4 <test_17+0x2>
800004e4:	000f0eb7          	lui	t4,0xf0
800004e8:	00fe8e93          	addi	t4,t4,15 # f000f <_start-0x7ff0fff1>
800004ec:	41c5                	li	gp,17
800004ee:	17df1863          	bne	t5,t4,8000065e <fail>

800004f2 <test_18>:
800004f2:	4201                	li	tp,0
800004f4:	0f0f1137          	lui	sp,0xf0f1
800004f8:	f0f10113          	addi	sp,sp,-241 # f0f0f0f <_start-0x70f0f0f1>
800004fc:	ff0100b7          	lui	ra,0xff010
80000500:	f0008093          	addi	ra,ra,-256 # ff00ff00 <_end+0x7f00def0>
80000504:	0020ff33          	and	t5,ra,sp
80000508:	0205                	addi	tp,tp,1
8000050a:	4289                	li	t0,2
8000050c:	fe5214e3          	bne	tp,t0,800004f4 <test_18+0x2>
80000510:	0f001eb7          	lui	t4,0xf001
80000514:	f00e8e93          	addi	t4,t4,-256 # f000f00 <_start-0x70fff100>
80000518:	41c9                	li	gp,18
8000051a:	15df1263          	bne	t5,t4,8000065e <fail>

8000051e <test_19>:
8000051e:	4201                	li	tp,0
80000520:	f0f0f137          	lui	sp,0xf0f0f
80000524:	0f010113          	addi	sp,sp,240 # f0f0f0f0 <_end+0x70f0d0e0>
80000528:	0ff010b7          	lui	ra,0xff01
8000052c:	ff008093          	addi	ra,ra,-16 # ff00ff0 <_start-0x700ff010>
80000530:	0001                	nop
80000532:	0020ff33          	and	t5,ra,sp
80000536:	0205                	addi	tp,tp,1
80000538:	4289                	li	t0,2
8000053a:	fe5213e3          	bne	tp,t0,80000520 <test_19+0x2>
8000053e:	00f00eb7          	lui	t4,0xf00
80000542:	0f0e8e93          	addi	t4,t4,240 # f000f0 <_start-0x7f0fff10>
80000546:	41cd                	li	gp,19
80000548:	11df1b63          	bne	t5,t4,8000065e <fail>

8000054c <test_20>:
8000054c:	4201                	li	tp,0
8000054e:	0f0f1137          	lui	sp,0xf0f1
80000552:	f0f10113          	addi	sp,sp,-241 # f0f0f0f <_start-0x70f0f0f1>
80000556:	00ff00b7          	lui	ra,0xff0
8000055a:	0ff08093          	addi	ra,ra,255 # ff00ff <_start-0x7f00ff01>
8000055e:	0001                	nop
80000560:	0001                	nop
80000562:	0020ff33          	and	t5,ra,sp
80000566:	0205                	addi	tp,tp,1
80000568:	4289                	li	t0,2
8000056a:	fe5212e3          	bne	tp,t0,8000054e <test_20+0x2>
8000056e:	000f0eb7          	lui	t4,0xf0
80000572:	00fe8e93          	addi	t4,t4,15 # f000f <_start-0x7ff0fff1>
80000576:	41d1                	li	gp,20
80000578:	0fdf1363          	bne	t5,t4,8000065e <fail>

8000057c <test_21>:
8000057c:	4201                	li	tp,0
8000057e:	0f0f1137          	lui	sp,0xf0f1
80000582:	f0f10113          	addi	sp,sp,-241 # f0f0f0f <_start-0x70f0f0f1>
80000586:	0001                	nop
80000588:	ff0100b7          	lui	ra,0xff010
8000058c:	f0008093          	addi	ra,ra,-256 # ff00ff00 <_end+0x7f00def0>
80000590:	0020ff33          	and	t5,ra,sp
80000594:	0205                	addi	tp,tp,1
80000596:	4289                	li	t0,2
80000598:	fe5213e3          	bne	tp,t0,8000057e <test_21+0x2>
8000059c:	0f001eb7          	lui	t4,0xf001
800005a0:	f00e8e93          	addi	t4,t4,-256 # f000f00 <_start-0x70fff100>
800005a4:	41d5                	li	gp,21
800005a6:	0bdf1c63          	bne	t5,t4,8000065e <fail>

800005aa <test_22>:
800005aa:	4201                	li	tp,0
800005ac:	f0f0f137          	lui	sp,0xf0f0f
800005b0:	0f010113          	addi	sp,sp,240 # f0f0f0f0 <_end+0x70f0d0e0>
800005b4:	0001                	nop
800005b6:	0ff010b7          	lui	ra,0xff01
800005ba:	ff008093          	addi	ra,ra,-16 # ff00ff0 <_start-0x700ff010>
800005be:	0001                	nop
800005c0:	0020ff33          	and	t5,ra,sp
800005c4:	0205                	addi	tp,tp,1
800005c6:	4289                	li	t0,2
800005c8:	fe5212e3          	bne	tp,t0,800005ac <test_22+0x2>
800005cc:	00f00eb7          	lui	t4,0xf00
800005d0:	0f0e8e93          	addi	t4,t4,240 # f000f0 <_start-0x7f0fff10>
800005d4:	41d9                	li	gp,22
800005d6:	09df1463          	bne	t5,t4,8000065e <fail>

800005da <test_23>:
800005da:	4201                	li	tp,0
800005dc:	0f0f1137          	lui	sp,0xf0f1
800005e0:	f0f10113          	addi	sp,sp,-241 # f0f0f0f <_start-0x70f0f0f1>
800005e4:	0001                	nop
800005e6:	0001                	nop
800005e8:	00ff00b7          	lui	ra,0xff0
800005ec:	0ff08093          	addi	ra,ra,255 # ff00ff <_start-0x7f00ff01>
800005f0:	0020ff33          	and	t5,ra,sp
800005f4:	0205                	addi	tp,tp,1
800005f6:	4289                	li	t0,2
800005f8:	fe5212e3          	bne	tp,t0,800005dc <test_23+0x2>
800005fc:	000f0eb7          	lui	t4,0xf0
80000600:	00fe8e93          	addi	t4,t4,15 # f000f <_start-0x7ff0fff1>
80000604:	41dd                	li	gp,23
80000606:	05df1c63          	bne	t5,t4,8000065e <fail>

8000060a <test_24>:
8000060a:	ff0100b7          	lui	ra,0xff010
8000060e:	f0008093          	addi	ra,ra,-256 # ff00ff00 <_end+0x7f00def0>
80000612:	00107133          	and	sp,zero,ra
80000616:	4e81                	li	t4,0
80000618:	41e1                	li	gp,24
8000061a:	05d11263          	bne	sp,t4,8000065e <fail>

8000061e <test_25>:
8000061e:	00ff00b7          	lui	ra,0xff0
80000622:	0ff08093          	addi	ra,ra,255 # ff00ff <_start-0x7f00ff01>
80000626:	0000f133          	and	sp,ra,zero
8000062a:	4e81                	li	t4,0
8000062c:	41e5                	li	gp,25
8000062e:	03d11863          	bne	sp,t4,8000065e <fail>

80000632 <test_26>:
80000632:	000070b3          	and	ra,zero,zero
80000636:	4e81                	li	t4,0
80000638:	41e9                	li	gp,26
8000063a:	03d09263          	bne	ra,t4,8000065e <fail>

8000063e <test_27>:
8000063e:	111110b7          	lui	ra,0x11111
80000642:	11108093          	addi	ra,ra,273 # 11111111 <_start-0x6eeeeeef>
80000646:	22222137          	lui	sp,0x22222
8000064a:	22210113          	addi	sp,sp,546 # 22222222 <_start-0x5dddddde>
8000064e:	0020f033          	and	zero,ra,sp
80000652:	4e81                	li	t4,0
80000654:	41ed                	li	gp,27
80000656:	01d01463          	bne	zero,t4,8000065e <fail>
8000065a:	00301b63          	bne	zero,gp,80000670 <pass>

8000065e <fail>:
8000065e:	0ff0000f          	fence
80000662:	00018063          	beqz	gp,80000662 <fail+0x4>
80000666:	0186                	slli	gp,gp,0x1
80000668:	0011e193          	ori	gp,gp,1
8000066c:	00000073          	ecall

80000670 <pass>:
80000670:	0ff0000f          	fence
80000674:	4185                	li	gp,1
80000676:	00000073          	ecall
	...

Disassembly of section .tohost:

80001000 <tohost>:
	...

80001040 <fromhost>:
	...

Disassembly of section .data:

80002000 <test_trap_data>:
	...
