
rv32ui-p-slt:     file format elf32-littleriscv


Disassembly of section .text.init:

80000000 <_start>:
80000000:	aa0d                	j	80000132 <reset_vector>
80000002:	0001                	nop

80000004 <trap_vector>:
80000004:	34051073          	csrw	mscratch,a0
80000008:	00002517          	auipc	a0,0x2
8000000c:	ff850513          	addi	a0,a0,-8 # 80002000 <test_trap_data>
80000010:	01e52023          	sw	t5,0(a0)
80000014:	01f52223          	sw	t6,4(a0)
80000018:	34202f73          	csrr	t5,mcause
8000001c:	040f4163          	bltz	t5,8000005e <other_interrupts>
80000020:	4fa1                	li	t6,8
80000022:	07ff0263          	beq	t5,t6,80000086 <write_tohost>
80000026:	4fa5                	li	t6,9
80000028:	05ff0f63          	beq	t5,t6,80000086 <write_tohost>
8000002c:	4fad                	li	t6,11
8000002e:	05ff0c63          	beq	t5,t6,80000086 <write_tohost>
80000032:	4f85                	li	t6,1
80000034:	0bff0563          	beq	t5,t6,800000de <ifetch_error_handler>
80000038:	4f95                	li	t6,5
8000003a:	0dff0063          	beq	t5,t6,800000fa <load_error_handler>
8000003e:	4f9d                	li	t6,7
80000040:	0dff0b63          	beq	t5,t6,80000116 <store_error_handler>
80000044:	80000f17          	auipc	t5,0x80000
80000048:	fbcf0f13          	addi	t5,t5,-68 # 0 <_start-0x80000000>
8000004c:	000f0363          	beqz	t5,80000052 <trap_vector+0x4e>
80000050:	8f02                	jr	t5
80000052:	34202f73          	csrr	t5,mcause
80000056:	000f5363          	bgez	t5,8000005c <handle_exception>
8000005a:	a009                	j	8000005c <handle_exception>

8000005c <handle_exception>:
8000005c:	a01d                	j	80000082 <other_interrupts+0x24>

8000005e <other_interrupts>:
8000005e:	80000fb7          	lui	t6,0x80000
80000062:	003f8f93          	addi	t6,t6,3 # 80000003 <_end+0xffffdff3>
80000066:	05ff0463          	beq	t5,t6,800000ae <sft_irq_handler>
8000006a:	80000fb7          	lui	t6,0x80000
8000006e:	007f8f93          	addi	t6,t6,7 # 80000007 <_end+0xffffdff7>
80000072:	05ff0a63          	beq	t5,t6,800000c6 <tmr_irq_handler>
80000076:	80000fb7          	lui	t6,0x80000
8000007a:	00bf8f93          	addi	t6,t6,11 # 8000000b <_end+0xffffdffb>
8000007e:	01ff0c63          	beq	t5,t6,80000096 <ext_irq_handler>
80000082:	5391e193          	ori	gp,gp,1337

80000086 <write_tohost>:
80000086:	4521                	li	a0,8
80000088:	30052073          	csrs	mstatus,a0
8000008c:	00001f17          	auipc	t5,0x1
80000090:	f63f2a23          	sw	gp,-140(t5) # 80001000 <tohost>
80000094:	bfcd                	j	80000086 <write_tohost>

80000096 <ext_irq_handler>:
80000096:	00002517          	auipc	a0,0x2
8000009a:	f6a50513          	addi	a0,a0,-150 # 80002000 <test_trap_data>
8000009e:	00052f03          	lw	t5,0(a0)
800000a2:	00452f83          	lw	t6,4(a0)
800000a6:	34002573          	csrr	a0,mscratch
800000aa:	30200073          	mret

800000ae <sft_irq_handler>:
800000ae:	00002517          	auipc	a0,0x2
800000b2:	f5250513          	addi	a0,a0,-174 # 80002000 <test_trap_data>
800000b6:	00052f03          	lw	t5,0(a0)
800000ba:	00452f83          	lw	t6,4(a0)
800000be:	34002573          	csrr	a0,mscratch
800000c2:	30200073          	mret

800000c6 <tmr_irq_handler>:
800000c6:	00002517          	auipc	a0,0x2
800000ca:	f3a50513          	addi	a0,a0,-198 # 80002000 <test_trap_data>
800000ce:	00052f03          	lw	t5,0(a0)
800000d2:	00452f83          	lw	t6,4(a0)
800000d6:	34002573          	csrr	a0,mscratch
800000da:	30200073          	mret

800000de <ifetch_error_handler>:
800000de:	00002517          	auipc	a0,0x2
800000e2:	f2250513          	addi	a0,a0,-222 # 80002000 <test_trap_data>
800000e6:	00052f03          	lw	t5,0(a0)
800000ea:	00452f83          	lw	t6,4(a0)
800000ee:	34302573          	csrr	a0,mbadaddr
800000f2:	34002573          	csrr	a0,mscratch
800000f6:	30200073          	mret

800000fa <load_error_handler>:
800000fa:	00002517          	auipc	a0,0x2
800000fe:	f0650513          	addi	a0,a0,-250 # 80002000 <test_trap_data>
80000102:	00052f03          	lw	t5,0(a0)
80000106:	00452f83          	lw	t6,4(a0)
8000010a:	34302573          	csrr	a0,mbadaddr
8000010e:	34002573          	csrr	a0,mscratch
80000112:	30200073          	mret

80000116 <store_error_handler>:
80000116:	00002517          	auipc	a0,0x2
8000011a:	eea50513          	addi	a0,a0,-278 # 80002000 <test_trap_data>
8000011e:	00052f03          	lw	t5,0(a0)
80000122:	00452f83          	lw	t6,4(a0)
80000126:	34302573          	csrr	a0,mbadaddr
8000012a:	34002573          	csrr	a0,mscratch
8000012e:	30200073          	mret

80000132 <reset_vector>:
80000132:	00000f13          	li	t5,0
80000136:	00000f93          	li	t6,0
8000013a:	f1402573          	csrr	a0,mhartid
8000013e:	e101                	bnez	a0,8000013e <reset_vector+0xc>
80000140:	4181                	li	gp,0
80000142:	00000297          	auipc	t0,0x0
80000146:	ec228293          	addi	t0,t0,-318 # 80000004 <trap_vector>
8000014a:	4521                	li	a0,8
8000014c:	30052073          	csrs	mstatus,a0
80000150:	fff00513          	li	a0,-1
80000154:	30452073          	csrs	mie,a0
80000158:	30529073          	csrw	mtvec,t0

8000015c <post_mtvec>:
8000015c:	80000297          	auipc	t0,0x80000
80000160:	ea428293          	addi	t0,t0,-348 # 0 <_start-0x80000000>
80000164:	00028e63          	beqz	t0,80000180 <post_mtvec+0x24>
80000168:	10529073          	csrw	stvec,t0
8000016c:	0000b2b7          	lui	t0,0xb
80000170:	10928293          	addi	t0,t0,265 # b109 <_start-0x7fff4ef7>
80000174:	30229073          	csrw	medeleg,t0
80000178:	30202373          	csrr	t1,medeleg
8000017c:	ee6290e3          	bne	t0,t1,8000005c <handle_exception>
80000180:	30005073          	csrwi	mstatus,0
80000184:	08000513          	li	a0,128
80000188:	30052073          	csrs	mstatus,a0
8000018c:	4501                	li	a0,0
8000018e:	bfc51073          	csrw	0xbfc,a0
80000192:	0000100f          	fence.i
80000196:	000012b7          	lui	t0,0x1
8000019a:	a0028293          	addi	t0,t0,-1536 # a00 <_start-0x7ffff600>

8000019e <waitloop1>:
8000019e:	12fd                	addi	t0,t0,-1
800001a0:	fe029fe3          	bnez	t0,8000019e <waitloop1>
800001a4:	100083b7          	lui	t2,0x10008
800001a8:	00838393          	addi	t2,t2,8 # 10008008 <_start-0x6fff7ff8>
800001ac:	0003a283          	lw	t0,0(t2)
800001b0:	00040337          	lui	t1,0x40
800001b4:	fff34313          	not	t1,t1
800001b8:	0062f2b3          	and	t0,t0,t1
800001bc:	0053a023          	sw	t0,0(t2)
800001c0:	40000293          	li	t0,1024

800001c4 <waitloop2>:
800001c4:	12fd                	addi	t0,t0,-1
800001c6:	0003ae03          	lw	t3,0(t2)
800001ca:	fe029de3          	bnez	t0,800001c4 <waitloop2>
800001ce:	0003a283          	lw	t0,0(t2)
800001d2:	00040337          	lui	t1,0x40
800001d6:	0062e2b3          	or	t0,t0,t1
800001da:	0053a023          	sw	t0,0(t2)
800001de:	0003a283          	lw	t0,0(t2)
800001e2:	4305                	li	t1,1
800001e4:	0062e2b3          	or	t0,t0,t1
800001e8:	0053a023          	sw	t0,0(t2)
800001ec:	0003a283          	lw	t0,0(t2)
800001f0:	02000313          	li	t1,32
800001f4:	0062e2b3          	or	t0,t0,t1
800001f8:	0053a023          	sw	t0,0(t2)
800001fc:	000012b7          	lui	t0,0x1
80000200:	a0028293          	addi	t0,t0,-1536 # a00 <_start-0x7ffff600>

80000204 <waitloop3>:
80000204:	12fd                	addi	t0,t0,-1
80000206:	fe029fe3          	bnez	t0,80000204 <waitloop3>
8000020a:	0003a283          	lw	t0,0(t2)
8000020e:	00040337          	lui	t1,0x40
80000212:	fff34313          	not	t1,t1
80000216:	0062f2b3          	and	t0,t0,t1
8000021a:	0053a023          	sw	t0,0(t2)
8000021e:	10000293          	li	t0,256

80000222 <waitloop4>:
80000222:	12fd                	addi	t0,t0,-1
80000224:	fe029fe3          	bnez	t0,80000222 <waitloop4>
80000228:	100083b7          	lui	t2,0x10008
8000022c:	00c38393          	addi	t2,t2,12 # 1000800c <_start-0x6fff7ff4>
80000230:	0003a283          	lw	t0,0(t2)
80000234:	10000313          	li	t1,256
80000238:	fff34313          	not	t1,t1
8000023c:	0062f2b3          	and	t0,t0,t1
80000240:	4309                	li	t1,2
80000242:	0062e2b3          	or	t0,t0,t1
80000246:	0053a023          	sw	t0,0(t2)
8000024a:	40000293          	li	t0,1024
8000024e:	00000297          	auipc	t0,0x0
80000252:	01428293          	addi	t0,t0,20 # 80000262 <test_2>
80000256:	34129073          	csrw	mepc,t0
8000025a:	f1402573          	csrr	a0,mhartid
8000025e:	30200073          	mret

80000262 <test_2>:
80000262:	4081                	li	ra,0
80000264:	4101                	li	sp,0
80000266:	0020af33          	slt	t5,ra,sp
8000026a:	4e81                	li	t4,0
8000026c:	4189                	li	gp,2
8000026e:	35df1863          	bne	t5,t4,800005be <fail>

80000272 <test_3>:
80000272:	4085                	li	ra,1
80000274:	4105                	li	sp,1
80000276:	0020af33          	slt	t5,ra,sp
8000027a:	4e81                	li	t4,0
8000027c:	418d                	li	gp,3
8000027e:	35df1063          	bne	t5,t4,800005be <fail>

80000282 <test_4>:
80000282:	408d                	li	ra,3
80000284:	411d                	li	sp,7
80000286:	0020af33          	slt	t5,ra,sp
8000028a:	4e85                	li	t4,1
8000028c:	4191                	li	gp,4
8000028e:	33df1863          	bne	t5,t4,800005be <fail>

80000292 <test_5>:
80000292:	409d                	li	ra,7
80000294:	410d                	li	sp,3
80000296:	0020af33          	slt	t5,ra,sp
8000029a:	4e81                	li	t4,0
8000029c:	4195                	li	gp,5
8000029e:	33df1063          	bne	t5,t4,800005be <fail>

800002a2 <test_6>:
800002a2:	4081                	li	ra,0
800002a4:	ffff8137          	lui	sp,0xffff8
800002a8:	0020af33          	slt	t5,ra,sp
800002ac:	4e81                	li	t4,0
800002ae:	4199                	li	gp,6
800002b0:	31df1763          	bne	t5,t4,800005be <fail>

800002b4 <test_7>:
800002b4:	800000b7          	lui	ra,0x80000
800002b8:	4101                	li	sp,0
800002ba:	0020af33          	slt	t5,ra,sp
800002be:	4e85                	li	t4,1
800002c0:	419d                	li	gp,7
800002c2:	2fdf1e63          	bne	t5,t4,800005be <fail>

800002c6 <test_8>:
800002c6:	800000b7          	lui	ra,0x80000
800002ca:	ffff8137          	lui	sp,0xffff8
800002ce:	0020af33          	slt	t5,ra,sp
800002d2:	4e85                	li	t4,1
800002d4:	41a1                	li	gp,8
800002d6:	2fdf1463          	bne	t5,t4,800005be <fail>

800002da <test_9>:
800002da:	4081                	li	ra,0
800002dc:	00008137          	lui	sp,0x8
800002e0:	fff10113          	addi	sp,sp,-1 # 7fff <_start-0x7fff8001>
800002e4:	0020af33          	slt	t5,ra,sp
800002e8:	4e85                	li	t4,1
800002ea:	41a5                	li	gp,9
800002ec:	2ddf1963          	bne	t5,t4,800005be <fail>

800002f0 <test_10>:
800002f0:	800000b7          	lui	ra,0x80000
800002f4:	fff08093          	addi	ra,ra,-1 # 7fffffff <_end+0xffffdfef>
800002f8:	4101                	li	sp,0
800002fa:	0020af33          	slt	t5,ra,sp
800002fe:	4e81                	li	t4,0
80000300:	41a9                	li	gp,10
80000302:	2bdf1e63          	bne	t5,t4,800005be <fail>

80000306 <test_11>:
80000306:	800000b7          	lui	ra,0x80000
8000030a:	fff08093          	addi	ra,ra,-1 # 7fffffff <_end+0xffffdfef>
8000030e:	00008137          	lui	sp,0x8
80000312:	fff10113          	addi	sp,sp,-1 # 7fff <_start-0x7fff8001>
80000316:	0020af33          	slt	t5,ra,sp
8000031a:	4e81                	li	t4,0
8000031c:	41ad                	li	gp,11
8000031e:	2bdf1063          	bne	t5,t4,800005be <fail>

80000322 <test_12>:
80000322:	800000b7          	lui	ra,0x80000
80000326:	00008137          	lui	sp,0x8
8000032a:	fff10113          	addi	sp,sp,-1 # 7fff <_start-0x7fff8001>
8000032e:	0020af33          	slt	t5,ra,sp
80000332:	4e85                	li	t4,1
80000334:	41b1                	li	gp,12
80000336:	29df1463          	bne	t5,t4,800005be <fail>

8000033a <test_13>:
8000033a:	800000b7          	lui	ra,0x80000
8000033e:	fff08093          	addi	ra,ra,-1 # 7fffffff <_end+0xffffdfef>
80000342:	ffff8137          	lui	sp,0xffff8
80000346:	0020af33          	slt	t5,ra,sp
8000034a:	4e81                	li	t4,0
8000034c:	41b5                	li	gp,13
8000034e:	27df1863          	bne	t5,t4,800005be <fail>

80000352 <test_14>:
80000352:	4081                	li	ra,0
80000354:	fff00113          	li	sp,-1
80000358:	0020af33          	slt	t5,ra,sp
8000035c:	4e81                	li	t4,0
8000035e:	41b9                	li	gp,14
80000360:	25df1f63          	bne	t5,t4,800005be <fail>

80000364 <test_15>:
80000364:	fff00093          	li	ra,-1
80000368:	4105                	li	sp,1
8000036a:	0020af33          	slt	t5,ra,sp
8000036e:	4e85                	li	t4,1
80000370:	41bd                	li	gp,15
80000372:	25df1663          	bne	t5,t4,800005be <fail>

80000376 <test_16>:
80000376:	fff00093          	li	ra,-1
8000037a:	fff00113          	li	sp,-1
8000037e:	0020af33          	slt	t5,ra,sp
80000382:	4e81                	li	t4,0
80000384:	41c1                	li	gp,16
80000386:	23df1c63          	bne	t5,t4,800005be <fail>

8000038a <test_17>:
8000038a:	40b9                	li	ra,14
8000038c:	4135                	li	sp,13
8000038e:	0020a0b3          	slt	ra,ra,sp
80000392:	4e81                	li	t4,0
80000394:	41c5                	li	gp,17
80000396:	23d09463          	bne	ra,t4,800005be <fail>

8000039a <test_18>:
8000039a:	40ad                	li	ra,11
8000039c:	4135                	li	sp,13
8000039e:	0020a133          	slt	sp,ra,sp
800003a2:	4e85                	li	t4,1
800003a4:	41c9                	li	gp,18
800003a6:	21d11c63          	bne	sp,t4,800005be <fail>

800003aa <test_19>:
800003aa:	40b5                	li	ra,13
800003ac:	0010a0b3          	slt	ra,ra,ra
800003b0:	4e81                	li	t4,0
800003b2:	41cd                	li	gp,19
800003b4:	21d09563          	bne	ra,t4,800005be <fail>

800003b8 <test_20>:
800003b8:	4201                	li	tp,0
800003ba:	40ad                	li	ra,11
800003bc:	4135                	li	sp,13
800003be:	0020af33          	slt	t5,ra,sp
800003c2:	000f0313          	mv	t1,t5
800003c6:	0205                	addi	tp,tp,1
800003c8:	4289                	li	t0,2
800003ca:	fe5218e3          	bne	tp,t0,800003ba <test_20+0x2>
800003ce:	4e85                	li	t4,1
800003d0:	41d1                	li	gp,20
800003d2:	1fd31663          	bne	t1,t4,800005be <fail>

800003d6 <test_21>:
800003d6:	4201                	li	tp,0
800003d8:	40b9                	li	ra,14
800003da:	4135                	li	sp,13
800003dc:	0020af33          	slt	t5,ra,sp
800003e0:	0001                	nop
800003e2:	000f0313          	mv	t1,t5
800003e6:	0205                	addi	tp,tp,1
800003e8:	4289                	li	t0,2
800003ea:	fe5217e3          	bne	tp,t0,800003d8 <test_21+0x2>
800003ee:	4e81                	li	t4,0
800003f0:	41d5                	li	gp,21
800003f2:	1dd31663          	bne	t1,t4,800005be <fail>

800003f6 <test_22>:
800003f6:	4201                	li	tp,0
800003f8:	40b1                	li	ra,12
800003fa:	4135                	li	sp,13
800003fc:	0020af33          	slt	t5,ra,sp
80000400:	0001                	nop
80000402:	0001                	nop
80000404:	000f0313          	mv	t1,t5
80000408:	0205                	addi	tp,tp,1
8000040a:	4289                	li	t0,2
8000040c:	fe5216e3          	bne	tp,t0,800003f8 <test_22+0x2>
80000410:	4e85                	li	t4,1
80000412:	41d9                	li	gp,22
80000414:	1bd31563          	bne	t1,t4,800005be <fail>

80000418 <test_23>:
80000418:	4201                	li	tp,0
8000041a:	40b9                	li	ra,14
8000041c:	4135                	li	sp,13
8000041e:	0020af33          	slt	t5,ra,sp
80000422:	0205                	addi	tp,tp,1
80000424:	4289                	li	t0,2
80000426:	fe521ae3          	bne	tp,t0,8000041a <test_23+0x2>
8000042a:	4e81                	li	t4,0
8000042c:	41dd                	li	gp,23
8000042e:	19df1863          	bne	t5,t4,800005be <fail>

80000432 <test_24>:
80000432:	4201                	li	tp,0
80000434:	40ad                	li	ra,11
80000436:	4135                	li	sp,13
80000438:	0001                	nop
8000043a:	0020af33          	slt	t5,ra,sp
8000043e:	0205                	addi	tp,tp,1
80000440:	4289                	li	t0,2
80000442:	fe5219e3          	bne	tp,t0,80000434 <test_24+0x2>
80000446:	4e85                	li	t4,1
80000448:	41e1                	li	gp,24
8000044a:	17df1a63          	bne	t5,t4,800005be <fail>

8000044e <test_25>:
8000044e:	4201                	li	tp,0
80000450:	40bd                	li	ra,15
80000452:	4135                	li	sp,13
80000454:	0001                	nop
80000456:	0001                	nop
80000458:	0020af33          	slt	t5,ra,sp
8000045c:	0205                	addi	tp,tp,1
8000045e:	4289                	li	t0,2
80000460:	fe5218e3          	bne	tp,t0,80000450 <test_25+0x2>
80000464:	4e81                	li	t4,0
80000466:	41e5                	li	gp,25
80000468:	15df1b63          	bne	t5,t4,800005be <fail>

8000046c <test_26>:
8000046c:	4201                	li	tp,0
8000046e:	40a9                	li	ra,10
80000470:	0001                	nop
80000472:	4135                	li	sp,13
80000474:	0020af33          	slt	t5,ra,sp
80000478:	0205                	addi	tp,tp,1
8000047a:	4289                	li	t0,2
8000047c:	fe5219e3          	bne	tp,t0,8000046e <test_26+0x2>
80000480:	4e85                	li	t4,1
80000482:	41e9                	li	gp,26
80000484:	13df1d63          	bne	t5,t4,800005be <fail>

80000488 <test_27>:
80000488:	4201                	li	tp,0
8000048a:	40c1                	li	ra,16
8000048c:	0001                	nop
8000048e:	4135                	li	sp,13
80000490:	0001                	nop
80000492:	0020af33          	slt	t5,ra,sp
80000496:	0205                	addi	tp,tp,1
80000498:	4289                	li	t0,2
8000049a:	fe5218e3          	bne	tp,t0,8000048a <test_27+0x2>
8000049e:	4e81                	li	t4,0
800004a0:	41ed                	li	gp,27
800004a2:	11df1e63          	bne	t5,t4,800005be <fail>

800004a6 <test_28>:
800004a6:	4201                	li	tp,0
800004a8:	40a5                	li	ra,9
800004aa:	0001                	nop
800004ac:	0001                	nop
800004ae:	4135                	li	sp,13
800004b0:	0020af33          	slt	t5,ra,sp
800004b4:	0205                	addi	tp,tp,1
800004b6:	4289                	li	t0,2
800004b8:	fe5218e3          	bne	tp,t0,800004a8 <test_28+0x2>
800004bc:	4e85                	li	t4,1
800004be:	41f1                	li	gp,28
800004c0:	0fdf1f63          	bne	t5,t4,800005be <fail>

800004c4 <test_29>:
800004c4:	4201                	li	tp,0
800004c6:	4135                	li	sp,13
800004c8:	40c5                	li	ra,17
800004ca:	0020af33          	slt	t5,ra,sp
800004ce:	0205                	addi	tp,tp,1
800004d0:	4289                	li	t0,2
800004d2:	fe521ae3          	bne	tp,t0,800004c6 <test_29+0x2>
800004d6:	4e81                	li	t4,0
800004d8:	41f5                	li	gp,29
800004da:	0fdf1263          	bne	t5,t4,800005be <fail>

800004de <test_30>:
800004de:	4201                	li	tp,0
800004e0:	4135                	li	sp,13
800004e2:	40a1                	li	ra,8
800004e4:	0001                	nop
800004e6:	0020af33          	slt	t5,ra,sp
800004ea:	0205                	addi	tp,tp,1
800004ec:	4289                	li	t0,2
800004ee:	fe5219e3          	bne	tp,t0,800004e0 <test_30+0x2>
800004f2:	4e85                	li	t4,1
800004f4:	41f9                	li	gp,30
800004f6:	0ddf1463          	bne	t5,t4,800005be <fail>

800004fa <test_31>:
800004fa:	4201                	li	tp,0
800004fc:	4135                	li	sp,13
800004fe:	40c9                	li	ra,18
80000500:	0001                	nop
80000502:	0001                	nop
80000504:	0020af33          	slt	t5,ra,sp
80000508:	0205                	addi	tp,tp,1
8000050a:	4289                	li	t0,2
8000050c:	fe5218e3          	bne	tp,t0,800004fc <test_31+0x2>
80000510:	4e81                	li	t4,0
80000512:	41fd                	li	gp,31
80000514:	0bdf1563          	bne	t5,t4,800005be <fail>

80000518 <test_32>:
80000518:	4201                	li	tp,0
8000051a:	4135                	li	sp,13
8000051c:	0001                	nop
8000051e:	409d                	li	ra,7
80000520:	0020af33          	slt	t5,ra,sp
80000524:	0205                	addi	tp,tp,1
80000526:	4289                	li	t0,2
80000528:	fe5219e3          	bne	tp,t0,8000051a <test_32+0x2>
8000052c:	4e85                	li	t4,1
8000052e:	02000193          	li	gp,32
80000532:	09df1663          	bne	t5,t4,800005be <fail>

80000536 <test_33>:
80000536:	4201                	li	tp,0
80000538:	4135                	li	sp,13
8000053a:	0001                	nop
8000053c:	40cd                	li	ra,19
8000053e:	0001                	nop
80000540:	0020af33          	slt	t5,ra,sp
80000544:	0205                	addi	tp,tp,1
80000546:	4289                	li	t0,2
80000548:	fe5218e3          	bne	tp,t0,80000538 <test_33+0x2>
8000054c:	4e81                	li	t4,0
8000054e:	02100193          	li	gp,33
80000552:	07df1663          	bne	t5,t4,800005be <fail>

80000556 <test_34>:
80000556:	4201                	li	tp,0
80000558:	4135                	li	sp,13
8000055a:	0001                	nop
8000055c:	0001                	nop
8000055e:	4099                	li	ra,6
80000560:	0020af33          	slt	t5,ra,sp
80000564:	0205                	addi	tp,tp,1
80000566:	4289                	li	t0,2
80000568:	fe5218e3          	bne	tp,t0,80000558 <test_34+0x2>
8000056c:	4e85                	li	t4,1
8000056e:	02200193          	li	gp,34
80000572:	05df1663          	bne	t5,t4,800005be <fail>

80000576 <test_35>:
80000576:	fff00093          	li	ra,-1
8000057a:	00102133          	sgtz	sp,ra
8000057e:	4e81                	li	t4,0
80000580:	02300193          	li	gp,35
80000584:	03d11d63          	bne	sp,t4,800005be <fail>

80000588 <test_36>:
80000588:	fff00093          	li	ra,-1
8000058c:	0000a133          	sltz	sp,ra
80000590:	4e85                	li	t4,1
80000592:	02400193          	li	gp,36
80000596:	03d11463          	bne	sp,t4,800005be <fail>

8000059a <test_37>:
8000059a:	000020b3          	sltz	ra,zero
8000059e:	4e81                	li	t4,0
800005a0:	02500193          	li	gp,37
800005a4:	01d09d63          	bne	ra,t4,800005be <fail>

800005a8 <test_38>:
800005a8:	40c1                	li	ra,16
800005aa:	4179                	li	sp,30
800005ac:	0020a033          	slt	zero,ra,sp
800005b0:	4e81                	li	t4,0
800005b2:	02600193          	li	gp,38
800005b6:	01d01463          	bne	zero,t4,800005be <fail>
800005ba:	00301b63          	bne	zero,gp,800005d0 <pass>

800005be <fail>:
800005be:	0ff0000f          	fence
800005c2:	00018063          	beqz	gp,800005c2 <fail+0x4>
800005c6:	0186                	slli	gp,gp,0x1
800005c8:	0011e193          	ori	gp,gp,1
800005cc:	00000073          	ecall

800005d0 <pass>:
800005d0:	0ff0000f          	fence
800005d4:	4185                	li	gp,1
800005d6:	00000073          	ecall
	...

Disassembly of section .tohost:

80001000 <tohost>:
	...

80001040 <fromhost>:
	...

Disassembly of section .data:

80002000 <test_trap_data>:
	...
