
rv32uf-p-fadd:     file format elf32-littleriscv


Disassembly of section .text.init:

80000000 <_start>:
80000000:	aa0d                	j	80000132 <reset_vector>
80000002:	0001                	nop

80000004 <trap_vector>:
80000004:	34051073          	csrw	mscratch,a0
80000008:	00002517          	auipc	a0,0x2
8000000c:	ff850513          	addi	a0,a0,-8 # 80002000 <test_trap_data>
80000010:	01e52023          	sw	t5,0(a0)
80000014:	01f52223          	sw	t6,4(a0)
80000018:	34202f73          	csrr	t5,mcause
8000001c:	040f4163          	bltz	t5,8000005e <other_interrupts>
80000020:	4fa1                	li	t6,8
80000022:	07ff0263          	beq	t5,t6,80000086 <write_tohost>
80000026:	4fa5                	li	t6,9
80000028:	05ff0f63          	beq	t5,t6,80000086 <write_tohost>
8000002c:	4fad                	li	t6,11
8000002e:	05ff0c63          	beq	t5,t6,80000086 <write_tohost>
80000032:	4f85                	li	t6,1
80000034:	0bff0563          	beq	t5,t6,800000de <ifetch_error_handler>
80000038:	4f95                	li	t6,5
8000003a:	0dff0063          	beq	t5,t6,800000fa <load_error_handler>
8000003e:	4f9d                	li	t6,7
80000040:	0dff0b63          	beq	t5,t6,80000116 <store_error_handler>
80000044:	80000f17          	auipc	t5,0x80000
80000048:	fbcf0f13          	addi	t5,t5,-68 # 0 <_start-0x80000000>
8000004c:	000f0363          	beqz	t5,80000052 <trap_vector+0x4e>
80000050:	8f02                	jr	t5
80000052:	34202f73          	csrr	t5,mcause
80000056:	000f5363          	bgez	t5,8000005c <handle_exception>
8000005a:	a009                	j	8000005c <handle_exception>

8000005c <handle_exception>:
8000005c:	a01d                	j	80000082 <other_interrupts+0x24>

8000005e <other_interrupts>:
8000005e:	80000fb7          	lui	t6,0x80000
80000062:	003f8f93          	addi	t6,t6,3 # 80000003 <_end+0xffffdf53>
80000066:	05ff0463          	beq	t5,t6,800000ae <sft_irq_handler>
8000006a:	80000fb7          	lui	t6,0x80000
8000006e:	007f8f93          	addi	t6,t6,7 # 80000007 <_end+0xffffdf57>
80000072:	05ff0a63          	beq	t5,t6,800000c6 <tmr_irq_handler>
80000076:	80000fb7          	lui	t6,0x80000
8000007a:	00bf8f93          	addi	t6,t6,11 # 8000000b <_end+0xffffdf5b>
8000007e:	01ff0c63          	beq	t5,t6,80000096 <ext_irq_handler>
80000082:	5391e193          	ori	gp,gp,1337

80000086 <write_tohost>:
80000086:	4521                	li	a0,8
80000088:	30052073          	csrs	mstatus,a0
8000008c:	00001f17          	auipc	t5,0x1
80000090:	f63f2a23          	sw	gp,-140(t5) # 80001000 <tohost>
80000094:	bfcd                	j	80000086 <write_tohost>

80000096 <ext_irq_handler>:
80000096:	00002517          	auipc	a0,0x2
8000009a:	f6a50513          	addi	a0,a0,-150 # 80002000 <test_trap_data>
8000009e:	00052f03          	lw	t5,0(a0)
800000a2:	00452f83          	lw	t6,4(a0)
800000a6:	34002573          	csrr	a0,mscratch
800000aa:	30200073          	mret

800000ae <sft_irq_handler>:
800000ae:	00002517          	auipc	a0,0x2
800000b2:	f5250513          	addi	a0,a0,-174 # 80002000 <test_trap_data>
800000b6:	00052f03          	lw	t5,0(a0)
800000ba:	00452f83          	lw	t6,4(a0)
800000be:	34002573          	csrr	a0,mscratch
800000c2:	30200073          	mret

800000c6 <tmr_irq_handler>:
800000c6:	00002517          	auipc	a0,0x2
800000ca:	f3a50513          	addi	a0,a0,-198 # 80002000 <test_trap_data>
800000ce:	00052f03          	lw	t5,0(a0)
800000d2:	00452f83          	lw	t6,4(a0)
800000d6:	34002573          	csrr	a0,mscratch
800000da:	30200073          	mret

800000de <ifetch_error_handler>:
800000de:	00002517          	auipc	a0,0x2
800000e2:	f2250513          	addi	a0,a0,-222 # 80002000 <test_trap_data>
800000e6:	00052f03          	lw	t5,0(a0)
800000ea:	00452f83          	lw	t6,4(a0)
800000ee:	34302573          	csrr	a0,mbadaddr
800000f2:	34002573          	csrr	a0,mscratch
800000f6:	30200073          	mret

800000fa <load_error_handler>:
800000fa:	00002517          	auipc	a0,0x2
800000fe:	f0650513          	addi	a0,a0,-250 # 80002000 <test_trap_data>
80000102:	00052f03          	lw	t5,0(a0)
80000106:	00452f83          	lw	t6,4(a0)
8000010a:	34302573          	csrr	a0,mbadaddr
8000010e:	34002573          	csrr	a0,mscratch
80000112:	30200073          	mret

80000116 <store_error_handler>:
80000116:	00002517          	auipc	a0,0x2
8000011a:	eea50513          	addi	a0,a0,-278 # 80002000 <test_trap_data>
8000011e:	00052f03          	lw	t5,0(a0)
80000122:	00452f83          	lw	t6,4(a0)
80000126:	34302573          	csrr	a0,mbadaddr
8000012a:	34002573          	csrr	a0,mscratch
8000012e:	30200073          	mret

80000132 <reset_vector>:
80000132:	00000f13          	li	t5,0
80000136:	00000f93          	li	t6,0
8000013a:	f1402573          	csrr	a0,mhartid
8000013e:	e101                	bnez	a0,8000013e <reset_vector+0xc>
80000140:	4181                	li	gp,0
80000142:	00000297          	auipc	t0,0x0
80000146:	ec228293          	addi	t0,t0,-318 # 80000004 <trap_vector>
8000014a:	4521                	li	a0,8
8000014c:	30052073          	csrs	mstatus,a0
80000150:	fff00513          	li	a0,-1
80000154:	30452073          	csrs	mie,a0
80000158:	30529073          	csrw	mtvec,t0

8000015c <post_mtvec>:
8000015c:	80000297          	auipc	t0,0x80000
80000160:	ea428293          	addi	t0,t0,-348 # 0 <_start-0x80000000>
80000164:	00028e63          	beqz	t0,80000180 <post_mtvec+0x24>
80000168:	10529073          	csrw	stvec,t0
8000016c:	0000b2b7          	lui	t0,0xb
80000170:	10928293          	addi	t0,t0,265 # b109 <_start-0x7fff4ef7>
80000174:	30229073          	csrw	medeleg,t0
80000178:	30202373          	csrr	t1,medeleg
8000017c:	ee6290e3          	bne	t0,t1,8000005c <handle_exception>
80000180:	30005073          	csrwi	mstatus,0
80000184:	08000513          	li	a0,128
80000188:	30052073          	csrs	mstatus,a0
8000018c:	4501                	li	a0,0
8000018e:	bfc51073          	csrw	0xbfc,a0
80000192:	0000100f          	fence.i
80000196:	000012b7          	lui	t0,0x1
8000019a:	a0028293          	addi	t0,t0,-1536 # a00 <_start-0x7ffff600>

8000019e <waitloop1>:
8000019e:	12fd                	addi	t0,t0,-1
800001a0:	fe029fe3          	bnez	t0,8000019e <waitloop1>
800001a4:	100083b7          	lui	t2,0x10008
800001a8:	00838393          	addi	t2,t2,8 # 10008008 <_start-0x6fff7ff8>
800001ac:	0003a283          	lw	t0,0(t2)
800001b0:	00040337          	lui	t1,0x40
800001b4:	fff34313          	not	t1,t1
800001b8:	0062f2b3          	and	t0,t0,t1
800001bc:	0053a023          	sw	t0,0(t2)
800001c0:	40000293          	li	t0,1024

800001c4 <waitloop2>:
800001c4:	12fd                	addi	t0,t0,-1
800001c6:	0003ae03          	lw	t3,0(t2)
800001ca:	fe029de3          	bnez	t0,800001c4 <waitloop2>
800001ce:	0003a283          	lw	t0,0(t2)
800001d2:	00040337          	lui	t1,0x40
800001d6:	0062e2b3          	or	t0,t0,t1
800001da:	0053a023          	sw	t0,0(t2)
800001de:	0003a283          	lw	t0,0(t2)
800001e2:	4305                	li	t1,1
800001e4:	0062e2b3          	or	t0,t0,t1
800001e8:	0053a023          	sw	t0,0(t2)
800001ec:	0003a283          	lw	t0,0(t2)
800001f0:	02000313          	li	t1,32
800001f4:	0062e2b3          	or	t0,t0,t1
800001f8:	0053a023          	sw	t0,0(t2)
800001fc:	000012b7          	lui	t0,0x1
80000200:	a0028293          	addi	t0,t0,-1536 # a00 <_start-0x7ffff600>

80000204 <waitloop3>:
80000204:	12fd                	addi	t0,t0,-1
80000206:	fe029fe3          	bnez	t0,80000204 <waitloop3>
8000020a:	0003a283          	lw	t0,0(t2)
8000020e:	00040337          	lui	t1,0x40
80000212:	fff34313          	not	t1,t1
80000216:	0062f2b3          	and	t0,t0,t1
8000021a:	0053a023          	sw	t0,0(t2)
8000021e:	10000293          	li	t0,256

80000222 <waitloop4>:
80000222:	12fd                	addi	t0,t0,-1
80000224:	fe029fe3          	bnez	t0,80000222 <waitloop4>
80000228:	100083b7          	lui	t2,0x10008
8000022c:	00c38393          	addi	t2,t2,12 # 1000800c <_start-0x6fff7ff4>
80000230:	0003a283          	lw	t0,0(t2)
80000234:	10000313          	li	t1,256
80000238:	fff34313          	not	t1,t1
8000023c:	0062f2b3          	and	t0,t0,t1
80000240:	4309                	li	t1,2
80000242:	0062e2b3          	or	t0,t0,t1
80000246:	0053a023          	sw	t0,0(t2)
8000024a:	40000293          	li	t0,1024
8000024e:	6509                	lui	a0,0x2
80000250:	30052073          	csrs	mstatus,a0
80000254:	00305073          	csrwi	fcsr,0
80000258:	00000297          	auipc	t0,0x0
8000025c:	01428293          	addi	t0,t0,20 # 8000026c <test_2>
80000260:	34129073          	csrw	mepc,t0
80000264:	f1402573          	csrr	a0,mhartid
80000268:	30200073          	mret

8000026c <test_2>:
8000026c:	4189                	li	gp,2
8000026e:	00002517          	auipc	a0,0x2
80000272:	d9a50513          	addi	a0,a0,-614 # 80002008 <test_2_data>
80000276:	00052007          	flw	ft0,0(a0)
8000027a:	00452087          	flw	ft1,4(a0)
8000027e:	00852107          	flw	ft2,8(a0)
80000282:	4554                	lw	a3,12(a0)
80000284:	001071d3          	fadd.s	ft3,ft0,ft1
80000288:	e0018553          	fmv.x.w	a0,ft3
8000028c:	001015f3          	fsflags	a1,zero
80000290:	4601                	li	a2,0
80000292:	1ad51563          	bne	a0,a3,8000043c <fail>
80000296:	1ac59363          	bne	a1,a2,8000043c <fail>

8000029a <test_3>:
8000029a:	418d                	li	gp,3
8000029c:	00002517          	auipc	a0,0x2
800002a0:	d7c50513          	addi	a0,a0,-644 # 80002018 <test_3_data>
800002a4:	00052007          	flw	ft0,0(a0)
800002a8:	00452087          	flw	ft1,4(a0)
800002ac:	00852107          	flw	ft2,8(a0)
800002b0:	4554                	lw	a3,12(a0)
800002b2:	001071d3          	fadd.s	ft3,ft0,ft1
800002b6:	e0018553          	fmv.x.w	a0,ft3
800002ba:	001015f3          	fsflags	a1,zero
800002be:	4605                	li	a2,1
800002c0:	16d51e63          	bne	a0,a3,8000043c <fail>
800002c4:	16c59c63          	bne	a1,a2,8000043c <fail>

800002c8 <test_4>:
800002c8:	4191                	li	gp,4
800002ca:	00002517          	auipc	a0,0x2
800002ce:	d5e50513          	addi	a0,a0,-674 # 80002028 <test_4_data>
800002d2:	00052007          	flw	ft0,0(a0)
800002d6:	00452087          	flw	ft1,4(a0)
800002da:	00852107          	flw	ft2,8(a0)
800002de:	4554                	lw	a3,12(a0)
800002e0:	001071d3          	fadd.s	ft3,ft0,ft1
800002e4:	e0018553          	fmv.x.w	a0,ft3
800002e8:	001015f3          	fsflags	a1,zero
800002ec:	4605                	li	a2,1
800002ee:	14d51763          	bne	a0,a3,8000043c <fail>
800002f2:	14c59563          	bne	a1,a2,8000043c <fail>

800002f6 <test_5>:
800002f6:	4195                	li	gp,5
800002f8:	00002517          	auipc	a0,0x2
800002fc:	d4050513          	addi	a0,a0,-704 # 80002038 <test_5_data>
80000300:	00052007          	flw	ft0,0(a0)
80000304:	00452087          	flw	ft1,4(a0)
80000308:	00852107          	flw	ft2,8(a0)
8000030c:	4554                	lw	a3,12(a0)
8000030e:	081071d3          	fsub.s	ft3,ft0,ft1
80000312:	e0018553          	fmv.x.w	a0,ft3
80000316:	001015f3          	fsflags	a1,zero
8000031a:	4601                	li	a2,0
8000031c:	12d51063          	bne	a0,a3,8000043c <fail>
80000320:	10c59e63          	bne	a1,a2,8000043c <fail>

80000324 <test_6>:
80000324:	4199                	li	gp,6
80000326:	00002517          	auipc	a0,0x2
8000032a:	d2250513          	addi	a0,a0,-734 # 80002048 <test_6_data>
8000032e:	00052007          	flw	ft0,0(a0)
80000332:	00452087          	flw	ft1,4(a0)
80000336:	00852107          	flw	ft2,8(a0)
8000033a:	4554                	lw	a3,12(a0)
8000033c:	081071d3          	fsub.s	ft3,ft0,ft1
80000340:	e0018553          	fmv.x.w	a0,ft3
80000344:	001015f3          	fsflags	a1,zero
80000348:	4605                	li	a2,1
8000034a:	0ed51963          	bne	a0,a3,8000043c <fail>
8000034e:	0ec59763          	bne	a1,a2,8000043c <fail>

80000352 <test_7>:
80000352:	419d                	li	gp,7
80000354:	00002517          	auipc	a0,0x2
80000358:	d0450513          	addi	a0,a0,-764 # 80002058 <test_7_data>
8000035c:	00052007          	flw	ft0,0(a0)
80000360:	00452087          	flw	ft1,4(a0)
80000364:	00852107          	flw	ft2,8(a0)
80000368:	4554                	lw	a3,12(a0)
8000036a:	081071d3          	fsub.s	ft3,ft0,ft1
8000036e:	e0018553          	fmv.x.w	a0,ft3
80000372:	001015f3          	fsflags	a1,zero
80000376:	4605                	li	a2,1
80000378:	0cd51263          	bne	a0,a3,8000043c <fail>
8000037c:	0cc59063          	bne	a1,a2,8000043c <fail>

80000380 <test_8>:
80000380:	41a1                	li	gp,8
80000382:	00002517          	auipc	a0,0x2
80000386:	ce650513          	addi	a0,a0,-794 # 80002068 <test_8_data>
8000038a:	00052007          	flw	ft0,0(a0)
8000038e:	00452087          	flw	ft1,4(a0)
80000392:	00852107          	flw	ft2,8(a0)
80000396:	4554                	lw	a3,12(a0)
80000398:	101071d3          	fmul.s	ft3,ft0,ft1
8000039c:	e0018553          	fmv.x.w	a0,ft3
800003a0:	001015f3          	fsflags	a1,zero
800003a4:	4601                	li	a2,0
800003a6:	08d51b63          	bne	a0,a3,8000043c <fail>
800003aa:	08c59963          	bne	a1,a2,8000043c <fail>

800003ae <test_9>:
800003ae:	41a5                	li	gp,9
800003b0:	00002517          	auipc	a0,0x2
800003b4:	cc850513          	addi	a0,a0,-824 # 80002078 <test_9_data>
800003b8:	00052007          	flw	ft0,0(a0)
800003bc:	00452087          	flw	ft1,4(a0)
800003c0:	00852107          	flw	ft2,8(a0)
800003c4:	4554                	lw	a3,12(a0)
800003c6:	101071d3          	fmul.s	ft3,ft0,ft1
800003ca:	e0018553          	fmv.x.w	a0,ft3
800003ce:	001015f3          	fsflags	a1,zero
800003d2:	4605                	li	a2,1
800003d4:	06d51463          	bne	a0,a3,8000043c <fail>
800003d8:	06c59263          	bne	a1,a2,8000043c <fail>

800003dc <test_10>:
800003dc:	41a9                	li	gp,10
800003de:	00002517          	auipc	a0,0x2
800003e2:	caa50513          	addi	a0,a0,-854 # 80002088 <test_10_data>
800003e6:	00052007          	flw	ft0,0(a0)
800003ea:	00452087          	flw	ft1,4(a0)
800003ee:	00852107          	flw	ft2,8(a0)
800003f2:	4554                	lw	a3,12(a0)
800003f4:	101071d3          	fmul.s	ft3,ft0,ft1
800003f8:	e0018553          	fmv.x.w	a0,ft3
800003fc:	001015f3          	fsflags	a1,zero
80000400:	4605                	li	a2,1
80000402:	02d51d63          	bne	a0,a3,8000043c <fail>
80000406:	02c59b63          	bne	a1,a2,8000043c <fail>

8000040a <test_11>:
8000040a:	41ad                	li	gp,11
8000040c:	00002517          	auipc	a0,0x2
80000410:	c8c50513          	addi	a0,a0,-884 # 80002098 <test_11_data>
80000414:	00052007          	flw	ft0,0(a0)
80000418:	00452087          	flw	ft1,4(a0)
8000041c:	00852107          	flw	ft2,8(a0)
80000420:	4554                	lw	a3,12(a0)
80000422:	081071d3          	fsub.s	ft3,ft0,ft1
80000426:	e0018553          	fmv.x.w	a0,ft3
8000042a:	001015f3          	fsflags	a1,zero
8000042e:	4641                	li	a2,16
80000430:	00d51663          	bne	a0,a3,8000043c <fail>
80000434:	00c59463          	bne	a1,a2,8000043c <fail>
80000438:	00301b63          	bne	zero,gp,8000044e <pass>

8000043c <fail>:
8000043c:	0ff0000f          	fence
80000440:	00018063          	beqz	gp,80000440 <fail+0x4>
80000444:	0186                	slli	gp,gp,0x1
80000446:	0011e193          	ori	gp,gp,1
8000044a:	00000073          	ecall

8000044e <pass>:
8000044e:	0ff0000f          	fence
80000452:	4185                	li	gp,1
80000454:	00000073          	ecall
	...

Disassembly of section .tohost:

80001000 <tohost>:
	...

80001040 <fromhost>:
	...

Disassembly of section .data:

80002000 <test_trap_data>:
	...

80002008 <test_2_data>:
80002008:	0000                	unimp
8000200a:	4020                	lw	s0,64(s0)
8000200c:	0000                	unimp
8000200e:	3f80                	fld	fs0,56(a5)
80002010:	0000                	unimp
80002012:	0000                	unimp
80002014:	0000                	unimp
80002016:	4060                	lw	s0,68(s0)

80002018 <test_3_data>:
80002018:	c49a6333          	0xc49a6333
8000201c:	cccd                	beqz	s1,800020d6 <_end+0x26>
8000201e:	3f8c                	fld	fa1,56(a5)
80002020:	0000                	unimp
80002022:	0000                	unimp
80002024:	4000                	lw	s0,0(s0)
80002026:	c49a                	sw	t1,72(sp)

80002028 <test_4_data>:
80002028:	40490fdb          	0x40490fdb
8000202c:	322bcc77          	0x322bcc77
80002030:	0000                	unimp
80002032:	0000                	unimp
80002034:	40490fdb          	0x40490fdb

80002038 <test_5_data>:
80002038:	0000                	unimp
8000203a:	4020                	lw	s0,64(s0)
8000203c:	0000                	unimp
8000203e:	3f80                	fld	fs0,56(a5)
80002040:	0000                	unimp
80002042:	0000                	unimp
80002044:	0000                	unimp
80002046:	3fc0                	fld	fs0,184(a5)

80002048 <test_6_data>:
80002048:	c49a6333          	0xc49a6333
8000204c:	cccd                	beqz	s1,80002106 <_end+0x56>
8000204e:	bf8c                	fsd	fa1,56(a5)
80002050:	0000                	unimp
80002052:	0000                	unimp
80002054:	4000                	lw	s0,0(s0)
80002056:	c49a                	sw	t1,72(sp)

80002058 <test_7_data>:
80002058:	40490fdb          	0x40490fdb
8000205c:	322bcc77          	0x322bcc77
80002060:	0000                	unimp
80002062:	0000                	unimp
80002064:	40490fdb          	0x40490fdb

80002068 <test_8_data>:
80002068:	0000                	unimp
8000206a:	4020                	lw	s0,64(s0)
8000206c:	0000                	unimp
8000206e:	3f80                	fld	fs0,56(a5)
80002070:	0000                	unimp
80002072:	0000                	unimp
80002074:	0000                	unimp
80002076:	4020                	lw	s0,64(s0)

80002078 <test_9_data>:
80002078:	c49a6333          	0xc49a6333
8000207c:	cccd                	beqz	s1,80002136 <_end+0x86>
8000207e:	bf8c                	fsd	fa1,56(a5)
80002080:	0000                	unimp
80002082:	0000                	unimp
80002084:	d385                	beqz	a5,80001fa4 <fromhost+0xf64>
80002086:	44a9                	li	s1,10

80002088 <test_10_data>:
80002088:	40490fdb          	0x40490fdb
8000208c:	322bcc77          	0x322bcc77
80002090:	0000                	unimp
80002092:	0000                	unimp
80002094:	ee2d                	bnez	a2,8000210e <_end+0x5e>
80002096:	3306                	fld	ft6,96(sp)

80002098 <test_11_data>:
80002098:	0000                	unimp
8000209a:	7f80                	flw	fs0,56(a5)
8000209c:	0000                	unimp
8000209e:	7f80                	flw	fs0,56(a5)
800020a0:	0000                	unimp
800020a2:	0000                	unimp
800020a4:	0000                	unimp
800020a6:	7fc0                	flw	fs0,60(a5)
	...
