
rv32ud-p-recoding:     file format elf32-littleriscv


Disassembly of section .text.init:

80000000 <_start>:
80000000:	aa0d                	j	80000132 <reset_vector>
80000002:	0001                	nop

80000004 <trap_vector>:
80000004:	34051073          	csrw	mscratch,a0
80000008:	00002517          	auipc	a0,0x2
8000000c:	ff850513          	addi	a0,a0,-8 # 80002000 <test_trap_data>
80000010:	01e52023          	sw	t5,0(a0)
80000014:	01f52223          	sw	t6,4(a0)
80000018:	34202f73          	csrr	t5,mcause
8000001c:	040f4163          	bltz	t5,8000005e <other_interrupts>
80000020:	4fa1                	li	t6,8
80000022:	07ff0263          	beq	t5,t6,80000086 <write_tohost>
80000026:	4fa5                	li	t6,9
80000028:	05ff0f63          	beq	t5,t6,80000086 <write_tohost>
8000002c:	4fad                	li	t6,11
8000002e:	05ff0c63          	beq	t5,t6,80000086 <write_tohost>
80000032:	4f85                	li	t6,1
80000034:	0bff0563          	beq	t5,t6,800000de <ifetch_error_handler>
80000038:	4f95                	li	t6,5
8000003a:	0dff0063          	beq	t5,t6,800000fa <load_error_handler>
8000003e:	4f9d                	li	t6,7
80000040:	0dff0b63          	beq	t5,t6,80000116 <store_error_handler>
80000044:	80000f17          	auipc	t5,0x80000
80000048:	fbcf0f13          	addi	t5,t5,-68 # 0 <_start-0x80000000>
8000004c:	000f0363          	beqz	t5,80000052 <trap_vector+0x4e>
80000050:	8f02                	jr	t5
80000052:	34202f73          	csrr	t5,mcause
80000056:	000f5363          	bgez	t5,8000005c <handle_exception>
8000005a:	a009                	j	8000005c <handle_exception>

8000005c <handle_exception>:
8000005c:	a01d                	j	80000082 <other_interrupts+0x24>

8000005e <other_interrupts>:
8000005e:	80000fb7          	lui	t6,0x80000
80000062:	003f8f93          	addi	t6,t6,3 # 80000003 <_end+0xffffdfd3>
80000066:	05ff0463          	beq	t5,t6,800000ae <sft_irq_handler>
8000006a:	80000fb7          	lui	t6,0x80000
8000006e:	007f8f93          	addi	t6,t6,7 # 80000007 <_end+0xffffdfd7>
80000072:	05ff0a63          	beq	t5,t6,800000c6 <tmr_irq_handler>
80000076:	80000fb7          	lui	t6,0x80000
8000007a:	00bf8f93          	addi	t6,t6,11 # 8000000b <_end+0xffffdfdb>
8000007e:	01ff0c63          	beq	t5,t6,80000096 <ext_irq_handler>
80000082:	5391e193          	ori	gp,gp,1337

80000086 <write_tohost>:
80000086:	4521                	li	a0,8
80000088:	30052073          	csrs	mstatus,a0
8000008c:	00001f17          	auipc	t5,0x1
80000090:	f63f2a23          	sw	gp,-140(t5) # 80001000 <tohost>
80000094:	bfcd                	j	80000086 <write_tohost>

80000096 <ext_irq_handler>:
80000096:	00002517          	auipc	a0,0x2
8000009a:	f6a50513          	addi	a0,a0,-150 # 80002000 <test_trap_data>
8000009e:	00052f03          	lw	t5,0(a0)
800000a2:	00452f83          	lw	t6,4(a0)
800000a6:	34002573          	csrr	a0,mscratch
800000aa:	30200073          	mret

800000ae <sft_irq_handler>:
800000ae:	00002517          	auipc	a0,0x2
800000b2:	f5250513          	addi	a0,a0,-174 # 80002000 <test_trap_data>
800000b6:	00052f03          	lw	t5,0(a0)
800000ba:	00452f83          	lw	t6,4(a0)
800000be:	34002573          	csrr	a0,mscratch
800000c2:	30200073          	mret

800000c6 <tmr_irq_handler>:
800000c6:	00002517          	auipc	a0,0x2
800000ca:	f3a50513          	addi	a0,a0,-198 # 80002000 <test_trap_data>
800000ce:	00052f03          	lw	t5,0(a0)
800000d2:	00452f83          	lw	t6,4(a0)
800000d6:	34002573          	csrr	a0,mscratch
800000da:	30200073          	mret

800000de <ifetch_error_handler>:
800000de:	00002517          	auipc	a0,0x2
800000e2:	f2250513          	addi	a0,a0,-222 # 80002000 <test_trap_data>
800000e6:	00052f03          	lw	t5,0(a0)
800000ea:	00452f83          	lw	t6,4(a0)
800000ee:	34302573          	csrr	a0,mbadaddr
800000f2:	34002573          	csrr	a0,mscratch
800000f6:	30200073          	mret

800000fa <load_error_handler>:
800000fa:	00002517          	auipc	a0,0x2
800000fe:	f0650513          	addi	a0,a0,-250 # 80002000 <test_trap_data>
80000102:	00052f03          	lw	t5,0(a0)
80000106:	00452f83          	lw	t6,4(a0)
8000010a:	34302573          	csrr	a0,mbadaddr
8000010e:	34002573          	csrr	a0,mscratch
80000112:	30200073          	mret

80000116 <store_error_handler>:
80000116:	00002517          	auipc	a0,0x2
8000011a:	eea50513          	addi	a0,a0,-278 # 80002000 <test_trap_data>
8000011e:	00052f03          	lw	t5,0(a0)
80000122:	00452f83          	lw	t6,4(a0)
80000126:	34302573          	csrr	a0,mbadaddr
8000012a:	34002573          	csrr	a0,mscratch
8000012e:	30200073          	mret

80000132 <reset_vector>:
80000132:	00000f13          	li	t5,0
80000136:	00000f93          	li	t6,0
8000013a:	f1402573          	csrr	a0,mhartid
8000013e:	e101                	bnez	a0,8000013e <reset_vector+0xc>
80000140:	4181                	li	gp,0
80000142:	00000297          	auipc	t0,0x0
80000146:	ec228293          	addi	t0,t0,-318 # 80000004 <trap_vector>
8000014a:	4521                	li	a0,8
8000014c:	30052073          	csrs	mstatus,a0
80000150:	fff00513          	li	a0,-1
80000154:	30452073          	csrs	mie,a0
80000158:	30529073          	csrw	mtvec,t0

8000015c <post_mtvec>:
8000015c:	80000297          	auipc	t0,0x80000
80000160:	ea428293          	addi	t0,t0,-348 # 0 <_start-0x80000000>
80000164:	00028e63          	beqz	t0,80000180 <post_mtvec+0x24>
80000168:	10529073          	csrw	stvec,t0
8000016c:	0000b2b7          	lui	t0,0xb
80000170:	10928293          	addi	t0,t0,265 # b109 <_start-0x7fff4ef7>
80000174:	30229073          	csrw	medeleg,t0
80000178:	30202373          	csrr	t1,medeleg
8000017c:	ee6290e3          	bne	t0,t1,8000005c <handle_exception>
80000180:	30005073          	csrwi	mstatus,0
80000184:	08000513          	li	a0,128
80000188:	30052073          	csrs	mstatus,a0
8000018c:	4501                	li	a0,0
8000018e:	bfc51073          	csrw	0xbfc,a0
80000192:	0000100f          	fence.i
80000196:	000012b7          	lui	t0,0x1
8000019a:	a0028293          	addi	t0,t0,-1536 # a00 <_start-0x7ffff600>

8000019e <waitloop1>:
8000019e:	12fd                	addi	t0,t0,-1
800001a0:	fe029fe3          	bnez	t0,8000019e <waitloop1>
800001a4:	100083b7          	lui	t2,0x10008
800001a8:	00838393          	addi	t2,t2,8 # 10008008 <_start-0x6fff7ff8>
800001ac:	0003a283          	lw	t0,0(t2)
800001b0:	00040337          	lui	t1,0x40
800001b4:	fff34313          	not	t1,t1
800001b8:	0062f2b3          	and	t0,t0,t1
800001bc:	0053a023          	sw	t0,0(t2)
800001c0:	40000293          	li	t0,1024

800001c4 <waitloop2>:
800001c4:	12fd                	addi	t0,t0,-1
800001c6:	0003ae03          	lw	t3,0(t2)
800001ca:	fe029de3          	bnez	t0,800001c4 <waitloop2>
800001ce:	0003a283          	lw	t0,0(t2)
800001d2:	00040337          	lui	t1,0x40
800001d6:	0062e2b3          	or	t0,t0,t1
800001da:	0053a023          	sw	t0,0(t2)
800001de:	0003a283          	lw	t0,0(t2)
800001e2:	4305                	li	t1,1
800001e4:	0062e2b3          	or	t0,t0,t1
800001e8:	0053a023          	sw	t0,0(t2)
800001ec:	0003a283          	lw	t0,0(t2)
800001f0:	02000313          	li	t1,32
800001f4:	0062e2b3          	or	t0,t0,t1
800001f8:	0053a023          	sw	t0,0(t2)
800001fc:	000012b7          	lui	t0,0x1
80000200:	a0028293          	addi	t0,t0,-1536 # a00 <_start-0x7ffff600>

80000204 <waitloop3>:
80000204:	12fd                	addi	t0,t0,-1
80000206:	fe029fe3          	bnez	t0,80000204 <waitloop3>
8000020a:	0003a283          	lw	t0,0(t2)
8000020e:	00040337          	lui	t1,0x40
80000212:	fff34313          	not	t1,t1
80000216:	0062f2b3          	and	t0,t0,t1
8000021a:	0053a023          	sw	t0,0(t2)
8000021e:	10000293          	li	t0,256

80000222 <waitloop4>:
80000222:	12fd                	addi	t0,t0,-1
80000224:	fe029fe3          	bnez	t0,80000222 <waitloop4>
80000228:	100083b7          	lui	t2,0x10008
8000022c:	00c38393          	addi	t2,t2,12 # 1000800c <_start-0x6fff7ff4>
80000230:	0003a283          	lw	t0,0(t2)
80000234:	10000313          	li	t1,256
80000238:	fff34313          	not	t1,t1
8000023c:	0062f2b3          	and	t0,t0,t1
80000240:	4309                	li	t1,2
80000242:	0062e2b3          	or	t0,t0,t1
80000246:	0053a023          	sw	t0,0(t2)
8000024a:	40000293          	li	t0,1024
8000024e:	6509                	lui	a0,0x2
80000250:	30052073          	csrs	mstatus,a0
80000254:	00305073          	csrwi	fcsr,0
80000258:	00000297          	auipc	t0,0x0
8000025c:	01428293          	addi	t0,t0,20 # 8000026c <waitloop4+0x4a>
80000260:	34129073          	csrw	mepc,t0
80000264:	f1402573          	csrr	a0,mhartid
80000268:	30200073          	mret
8000026c:	00002517          	auipc	a0,0x2
80000270:	da453007          	fld	ft0,-604(a0) # 80002010 <begin_signature>
80000274:	0001                	nop
80000276:	0001                	nop
80000278:	00002517          	auipc	a0,0x2
8000027c:	da053087          	fld	ft1,-608(a0) # 80002018 <three>
80000280:	1200f0d3          	fmul.d	ft1,ft1,ft0

80000284 <test_2>:
80000284:	a2102553          	feq.d	a0,ft0,ft1
80000288:	4e85                	li	t4,1
8000028a:	4189                	li	gp,2
8000028c:	0bd51863          	bne	a0,t4,8000033c <fail>

80000290 <test_3>:
80000290:	a2100553          	fle.d	a0,ft0,ft1
80000294:	4e85                	li	t4,1
80000296:	418d                	li	gp,3
80000298:	0bd51263          	bne	a0,t4,8000033c <fail>

8000029c <test_4>:
8000029c:	a2101553          	flt.d	a0,ft0,ft1
800002a0:	4e81                	li	t4,0
800002a2:	4191                	li	gp,4
800002a4:	09d51c63          	bne	a0,t4,8000033c <fail>
800002a8:	d2000053          	fcvt.d.w	ft0,zero
800002ac:	4505                	li	a0,1
800002ae:	d20500d3          	fcvt.d.w	ft1,a0
800002b2:	1200f0d3          	fmul.d	ft1,ft1,ft0

800002b6 <test_5>:
800002b6:	a2102553          	feq.d	a0,ft0,ft1
800002ba:	4e85                	li	t4,1
800002bc:	4195                	li	gp,5
800002be:	07d51f63          	bne	a0,t4,8000033c <fail>

800002c2 <test_6>:
800002c2:	a2100553          	fle.d	a0,ft0,ft1
800002c6:	4e85                	li	t4,1
800002c8:	4199                	li	gp,6
800002ca:	07d51963          	bne	a0,t4,8000033c <fail>

800002ce <test_7>:
800002ce:	a2101553          	flt.d	a0,ft0,ft1
800002d2:	4e81                	li	t4,0
800002d4:	419d                	li	gp,7
800002d6:	07d51363          	bne	a0,t4,8000033c <fail>
800002da:	00002517          	auipc	a0,0x2
800002de:	d4652007          	flw	ft0,-698(a0) # 80002020 <big>
800002e2:	0001                	nop
800002e4:	0001                	nop
800002e6:	00002517          	auipc	a0,0x2
800002ea:	d4253087          	fld	ft1,-702(a0) # 80002028 <tiny>
800002ee:	4010f0d3          	fcvt.s.d	ft1,ft1
800002f2:	10107053          	fmul.s	ft0,ft0,ft1
800002f6:	e0000553          	fmv.x.w	a0,ft0
800002fa:	00002597          	auipc	a1,0x2
800002fe:	d2a5a583          	lw	a1,-726(a1) # 80002024 <small>

80000302 <test_10>:
80000302:	8d0d                	sub	a0,a0,a1
80000304:	4e81                	li	t4,0
80000306:	41a9                	li	gp,10
80000308:	03d51a63          	bne	a0,t4,8000033c <fail>
8000030c:	00002517          	auipc	a0,0x2
80000310:	d0c52007          	flw	ft0,-756(a0) # 80002018 <three>
80000314:	000070d3          	fadd.s	ft1,ft0,ft0
80000318:	00007053          	fadd.s	ft0,ft0,ft0
8000031c:	00002517          	auipc	a0,0x2
80000320:	d0053627          	fsd	ft0,-756(a0) # 80002028 <tiny>
80000324:	00002517          	auipc	a0,0x2
80000328:	d0453007          	fld	ft0,-764(a0) # 80002028 <tiny>

8000032c <test_20>:
8000032c:	a0102553          	feq.s	a0,ft0,ft1
80000330:	4e85                	li	t4,1
80000332:	41d1                	li	gp,20
80000334:	01d51463          	bne	a0,t4,8000033c <fail>
80000338:	00301b63          	bne	zero,gp,8000034e <pass>

8000033c <fail>:
8000033c:	0ff0000f          	fence
80000340:	00018063          	beqz	gp,80000340 <fail+0x4>
80000344:	0186                	slli	gp,gp,0x1
80000346:	0011e193          	ori	gp,gp,1
8000034a:	00000073          	ecall

8000034e <pass>:
8000034e:	0ff0000f          	fence
80000352:	4185                	li	gp,1
80000354:	00000073          	ecall
	...

Disassembly of section .tohost:

80001000 <tohost>:
	...

80001040 <fromhost>:
	...

Disassembly of section .data:

80002000 <test_trap_data>:
	...

80002010 <begin_signature>:
80002010:	0000                	unimp
80002012:	0000                	unimp
80002014:	0000                	unimp
80002016:	fff0                	fsw	fa2,124(a5)

80002018 <three>:
80002018:	0000                	unimp
8000201a:	0000                	unimp
8000201c:	0000                	unimp
8000201e:	4008                	lw	a0,0(s0)

80002020 <big>:
80002020:	a000                	fsd	fs0,0(s0)
80002022:	4498                	lw	a4,8(s1)

80002024 <small>:
80002024:	450e                	lw	a0,192(sp)
80002026:	02c6                	slli	t0,t0,0x11

80002028 <tiny>:
80002028:	0000                	unimp
8000202a:	0000                	unimp
8000202c:	c8f8                	sw	a4,84(s1)
8000202e:	37b4                	fld	fa3,104(a5)
