
rv32ud-p-fclass:     file format elf32-littleriscv


Disassembly of section .text.init:

80000000 <_start>:
80000000:	aa0d                	j	80000132 <reset_vector>
80000002:	0001                	nop

80000004 <trap_vector>:
80000004:	34051073          	csrw	mscratch,a0
80000008:	00002517          	auipc	a0,0x2
8000000c:	ff850513          	addi	a0,a0,-8 # 80002000 <test_trap_data>
80000010:	01e52023          	sw	t5,0(a0)
80000014:	01f52223          	sw	t6,4(a0)
80000018:	34202f73          	csrr	t5,mcause
8000001c:	040f4163          	bltz	t5,8000005e <other_interrupts>
80000020:	4fa1                	li	t6,8
80000022:	07ff0263          	beq	t5,t6,80000086 <write_tohost>
80000026:	4fa5                	li	t6,9
80000028:	05ff0f63          	beq	t5,t6,80000086 <write_tohost>
8000002c:	4fad                	li	t6,11
8000002e:	05ff0c63          	beq	t5,t6,80000086 <write_tohost>
80000032:	4f85                	li	t6,1
80000034:	0bff0563          	beq	t5,t6,800000de <ifetch_error_handler>
80000038:	4f95                	li	t6,5
8000003a:	0dff0063          	beq	t5,t6,800000fa <load_error_handler>
8000003e:	4f9d                	li	t6,7
80000040:	0dff0b63          	beq	t5,t6,80000116 <store_error_handler>
80000044:	80000f17          	auipc	t5,0x80000
80000048:	fbcf0f13          	addi	t5,t5,-68 # 0 <_start-0x80000000>
8000004c:	000f0363          	beqz	t5,80000052 <trap_vector+0x4e>
80000050:	8f02                	jr	t5
80000052:	34202f73          	csrr	t5,mcause
80000056:	000f5363          	bgez	t5,8000005c <handle_exception>
8000005a:	a009                	j	8000005c <handle_exception>

8000005c <handle_exception>:
8000005c:	a01d                	j	80000082 <other_interrupts+0x24>

8000005e <other_interrupts>:
8000005e:	80000fb7          	lui	t6,0x80000
80000062:	003f8f93          	addi	t6,t6,3 # 80000003 <_end+0xffffdfa3>
80000066:	05ff0463          	beq	t5,t6,800000ae <sft_irq_handler>
8000006a:	80000fb7          	lui	t6,0x80000
8000006e:	007f8f93          	addi	t6,t6,7 # 80000007 <_end+0xffffdfa7>
80000072:	05ff0a63          	beq	t5,t6,800000c6 <tmr_irq_handler>
80000076:	80000fb7          	lui	t6,0x80000
8000007a:	00bf8f93          	addi	t6,t6,11 # 8000000b <_end+0xffffdfab>
8000007e:	01ff0c63          	beq	t5,t6,80000096 <ext_irq_handler>
80000082:	5391e193          	ori	gp,gp,1337

80000086 <write_tohost>:
80000086:	4521                	li	a0,8
80000088:	30052073          	csrs	mstatus,a0
8000008c:	00001f17          	auipc	t5,0x1
80000090:	f63f2a23          	sw	gp,-140(t5) # 80001000 <tohost>
80000094:	bfcd                	j	80000086 <write_tohost>

80000096 <ext_irq_handler>:
80000096:	00002517          	auipc	a0,0x2
8000009a:	f6a50513          	addi	a0,a0,-150 # 80002000 <test_trap_data>
8000009e:	00052f03          	lw	t5,0(a0)
800000a2:	00452f83          	lw	t6,4(a0)
800000a6:	34002573          	csrr	a0,mscratch
800000aa:	30200073          	mret

800000ae <sft_irq_handler>:
800000ae:	00002517          	auipc	a0,0x2
800000b2:	f5250513          	addi	a0,a0,-174 # 80002000 <test_trap_data>
800000b6:	00052f03          	lw	t5,0(a0)
800000ba:	00452f83          	lw	t6,4(a0)
800000be:	34002573          	csrr	a0,mscratch
800000c2:	30200073          	mret

800000c6 <tmr_irq_handler>:
800000c6:	00002517          	auipc	a0,0x2
800000ca:	f3a50513          	addi	a0,a0,-198 # 80002000 <test_trap_data>
800000ce:	00052f03          	lw	t5,0(a0)
800000d2:	00452f83          	lw	t6,4(a0)
800000d6:	34002573          	csrr	a0,mscratch
800000da:	30200073          	mret

800000de <ifetch_error_handler>:
800000de:	00002517          	auipc	a0,0x2
800000e2:	f2250513          	addi	a0,a0,-222 # 80002000 <test_trap_data>
800000e6:	00052f03          	lw	t5,0(a0)
800000ea:	00452f83          	lw	t6,4(a0)
800000ee:	34302573          	csrr	a0,mbadaddr
800000f2:	34002573          	csrr	a0,mscratch
800000f6:	30200073          	mret

800000fa <load_error_handler>:
800000fa:	00002517          	auipc	a0,0x2
800000fe:	f0650513          	addi	a0,a0,-250 # 80002000 <test_trap_data>
80000102:	00052f03          	lw	t5,0(a0)
80000106:	00452f83          	lw	t6,4(a0)
8000010a:	34302573          	csrr	a0,mbadaddr
8000010e:	34002573          	csrr	a0,mscratch
80000112:	30200073          	mret

80000116 <store_error_handler>:
80000116:	00002517          	auipc	a0,0x2
8000011a:	eea50513          	addi	a0,a0,-278 # 80002000 <test_trap_data>
8000011e:	00052f03          	lw	t5,0(a0)
80000122:	00452f83          	lw	t6,4(a0)
80000126:	34302573          	csrr	a0,mbadaddr
8000012a:	34002573          	csrr	a0,mscratch
8000012e:	30200073          	mret

80000132 <reset_vector>:
80000132:	00000f13          	li	t5,0
80000136:	00000f93          	li	t6,0
8000013a:	f1402573          	csrr	a0,mhartid
8000013e:	e101                	bnez	a0,8000013e <reset_vector+0xc>
80000140:	4181                	li	gp,0
80000142:	00000297          	auipc	t0,0x0
80000146:	ec228293          	addi	t0,t0,-318 # 80000004 <trap_vector>
8000014a:	4521                	li	a0,8
8000014c:	30052073          	csrs	mstatus,a0
80000150:	fff00513          	li	a0,-1
80000154:	30452073          	csrs	mie,a0
80000158:	30529073          	csrw	mtvec,t0

8000015c <post_mtvec>:
8000015c:	80000297          	auipc	t0,0x80000
80000160:	ea428293          	addi	t0,t0,-348 # 0 <_start-0x80000000>
80000164:	00028e63          	beqz	t0,80000180 <post_mtvec+0x24>
80000168:	10529073          	csrw	stvec,t0
8000016c:	0000b2b7          	lui	t0,0xb
80000170:	10928293          	addi	t0,t0,265 # b109 <_start-0x7fff4ef7>
80000174:	30229073          	csrw	medeleg,t0
80000178:	30202373          	csrr	t1,medeleg
8000017c:	ee6290e3          	bne	t0,t1,8000005c <handle_exception>
80000180:	30005073          	csrwi	mstatus,0
80000184:	08000513          	li	a0,128
80000188:	30052073          	csrs	mstatus,a0
8000018c:	4501                	li	a0,0
8000018e:	bfc51073          	csrw	0xbfc,a0
80000192:	0000100f          	fence.i
80000196:	000012b7          	lui	t0,0x1
8000019a:	a0028293          	addi	t0,t0,-1536 # a00 <_start-0x7ffff600>

8000019e <waitloop1>:
8000019e:	12fd                	addi	t0,t0,-1
800001a0:	fe029fe3          	bnez	t0,8000019e <waitloop1>
800001a4:	100083b7          	lui	t2,0x10008
800001a8:	00838393          	addi	t2,t2,8 # 10008008 <_start-0x6fff7ff8>
800001ac:	0003a283          	lw	t0,0(t2)
800001b0:	00040337          	lui	t1,0x40
800001b4:	fff34313          	not	t1,t1
800001b8:	0062f2b3          	and	t0,t0,t1
800001bc:	0053a023          	sw	t0,0(t2)
800001c0:	40000293          	li	t0,1024

800001c4 <waitloop2>:
800001c4:	12fd                	addi	t0,t0,-1
800001c6:	0003ae03          	lw	t3,0(t2)
800001ca:	fe029de3          	bnez	t0,800001c4 <waitloop2>
800001ce:	0003a283          	lw	t0,0(t2)
800001d2:	00040337          	lui	t1,0x40
800001d6:	0062e2b3          	or	t0,t0,t1
800001da:	0053a023          	sw	t0,0(t2)
800001de:	0003a283          	lw	t0,0(t2)
800001e2:	4305                	li	t1,1
800001e4:	0062e2b3          	or	t0,t0,t1
800001e8:	0053a023          	sw	t0,0(t2)
800001ec:	0003a283          	lw	t0,0(t2)
800001f0:	02000313          	li	t1,32
800001f4:	0062e2b3          	or	t0,t0,t1
800001f8:	0053a023          	sw	t0,0(t2)
800001fc:	000012b7          	lui	t0,0x1
80000200:	a0028293          	addi	t0,t0,-1536 # a00 <_start-0x7ffff600>

80000204 <waitloop3>:
80000204:	12fd                	addi	t0,t0,-1
80000206:	fe029fe3          	bnez	t0,80000204 <waitloop3>
8000020a:	0003a283          	lw	t0,0(t2)
8000020e:	00040337          	lui	t1,0x40
80000212:	fff34313          	not	t1,t1
80000216:	0062f2b3          	and	t0,t0,t1
8000021a:	0053a023          	sw	t0,0(t2)
8000021e:	10000293          	li	t0,256

80000222 <waitloop4>:
80000222:	12fd                	addi	t0,t0,-1
80000224:	fe029fe3          	bnez	t0,80000222 <waitloop4>
80000228:	100083b7          	lui	t2,0x10008
8000022c:	00c38393          	addi	t2,t2,12 # 1000800c <_start-0x6fff7ff4>
80000230:	0003a283          	lw	t0,0(t2)
80000234:	10000313          	li	t1,256
80000238:	fff34313          	not	t1,t1
8000023c:	0062f2b3          	and	t0,t0,t1
80000240:	4309                	li	t1,2
80000242:	0062e2b3          	or	t0,t0,t1
80000246:	0053a023          	sw	t0,0(t2)
8000024a:	40000293          	li	t0,1024
8000024e:	6509                	lui	a0,0x2
80000250:	30052073          	csrs	mstatus,a0
80000254:	00305073          	csrwi	fcsr,0
80000258:	00000297          	auipc	t0,0x0
8000025c:	01428293          	addi	t0,t0,20 # 8000026c <test_2>
80000260:	34129073          	csrw	mepc,t0
80000264:	f1402573          	csrr	a0,mhartid
80000268:	30200073          	mret

8000026c <test_2>:
8000026c:	00002517          	auipc	a0,0x2
80000270:	d9c50513          	addi	a0,a0,-612 # 80002008 <test_2_data>
80000274:	2108                	fld	fa0,0(a0)
80000276:	e2051553          	fclass.d	a0,fa0
8000027a:	4e85                	li	t4,1
8000027c:	4189                	li	gp,2
8000027e:	0dd51c63          	bne	a0,t4,80000356 <fail>

80000282 <test_3>:
80000282:	00002517          	auipc	a0,0x2
80000286:	d8e50513          	addi	a0,a0,-626 # 80002010 <test_3_data>
8000028a:	2108                	fld	fa0,0(a0)
8000028c:	e2051553          	fclass.d	a0,fa0
80000290:	4e89                	li	t4,2
80000292:	418d                	li	gp,3
80000294:	0dd51163          	bne	a0,t4,80000356 <fail>

80000298 <test_4>:
80000298:	00002517          	auipc	a0,0x2
8000029c:	d8050513          	addi	a0,a0,-640 # 80002018 <test_4_data>
800002a0:	2108                	fld	fa0,0(a0)
800002a2:	e2051553          	fclass.d	a0,fa0
800002a6:	4e91                	li	t4,4
800002a8:	4191                	li	gp,4
800002aa:	0bd51663          	bne	a0,t4,80000356 <fail>

800002ae <test_5>:
800002ae:	00002517          	auipc	a0,0x2
800002b2:	d7250513          	addi	a0,a0,-654 # 80002020 <test_5_data>
800002b6:	2108                	fld	fa0,0(a0)
800002b8:	e2051553          	fclass.d	a0,fa0
800002bc:	4ea1                	li	t4,8
800002be:	4195                	li	gp,5
800002c0:	09d51b63          	bne	a0,t4,80000356 <fail>

800002c4 <test_6>:
800002c4:	00002517          	auipc	a0,0x2
800002c8:	d6450513          	addi	a0,a0,-668 # 80002028 <test_6_data>
800002cc:	2108                	fld	fa0,0(a0)
800002ce:	e2051553          	fclass.d	a0,fa0
800002d2:	4ec1                	li	t4,16
800002d4:	4199                	li	gp,6
800002d6:	09d51063          	bne	a0,t4,80000356 <fail>

800002da <test_7>:
800002da:	00002517          	auipc	a0,0x2
800002de:	d5650513          	addi	a0,a0,-682 # 80002030 <test_7_data>
800002e2:	2108                	fld	fa0,0(a0)
800002e4:	e2051553          	fclass.d	a0,fa0
800002e8:	02000e93          	li	t4,32
800002ec:	419d                	li	gp,7
800002ee:	07d51463          	bne	a0,t4,80000356 <fail>

800002f2 <test_8>:
800002f2:	00002517          	auipc	a0,0x2
800002f6:	d4650513          	addi	a0,a0,-698 # 80002038 <test_8_data>
800002fa:	2108                	fld	fa0,0(a0)
800002fc:	e2051553          	fclass.d	a0,fa0
80000300:	04000e93          	li	t4,64
80000304:	41a1                	li	gp,8
80000306:	05d51863          	bne	a0,t4,80000356 <fail>

8000030a <test_9>:
8000030a:	00002517          	auipc	a0,0x2
8000030e:	d3650513          	addi	a0,a0,-714 # 80002040 <test_9_data>
80000312:	2108                	fld	fa0,0(a0)
80000314:	e2051553          	fclass.d	a0,fa0
80000318:	08000e93          	li	t4,128
8000031c:	41a5                	li	gp,9
8000031e:	03d51c63          	bne	a0,t4,80000356 <fail>

80000322 <test_10>:
80000322:	00002517          	auipc	a0,0x2
80000326:	d2650513          	addi	a0,a0,-730 # 80002048 <test_10_data>
8000032a:	2108                	fld	fa0,0(a0)
8000032c:	e2051553          	fclass.d	a0,fa0
80000330:	10000e93          	li	t4,256
80000334:	41a9                	li	gp,10
80000336:	03d51063          	bne	a0,t4,80000356 <fail>

8000033a <test_11>:
8000033a:	00002517          	auipc	a0,0x2
8000033e:	d1650513          	addi	a0,a0,-746 # 80002050 <test_11_data>
80000342:	2108                	fld	fa0,0(a0)
80000344:	e2051553          	fclass.d	a0,fa0
80000348:	20000e93          	li	t4,512
8000034c:	41ad                	li	gp,11
8000034e:	01d51463          	bne	a0,t4,80000356 <fail>
80000352:	00301b63          	bne	zero,gp,80000368 <pass>

80000356 <fail>:
80000356:	0ff0000f          	fence
8000035a:	00018063          	beqz	gp,8000035a <fail+0x4>
8000035e:	0186                	slli	gp,gp,0x1
80000360:	0011e193          	ori	gp,gp,1
80000364:	00000073          	ecall

80000368 <pass>:
80000368:	0ff0000f          	fence
8000036c:	4185                	li	gp,1
8000036e:	00000073          	ecall
	...

Disassembly of section .tohost:

80001000 <tohost>:
	...

80001040 <fromhost>:
	...

Disassembly of section .data:

80002000 <test_trap_data>:
	...

80002008 <test_2_data>:
80002008:	0000                	unimp
8000200a:	0000                	unimp
8000200c:	0000                	unimp
8000200e:	fff0                	fsw	fa2,124(a5)

80002010 <test_3_data>:
80002010:	0000                	unimp
80002012:	0000                	unimp
80002014:	0000                	unimp
80002016:	bff0                	fsd	fa2,248(a5)

80002018 <test_4_data>:
80002018:	ffff                	0xffff
8000201a:	ffff                	0xffff
8000201c:	ffff                	0xffff
8000201e:	          	0x800f

80002020 <test_5_data>:
80002020:	0000                	unimp
80002022:	0000                	unimp
80002024:	0000                	unimp
80002026:	8000                	0x8000

80002028 <test_6_data>:
	...

80002030 <test_7_data>:
80002030:	ffff                	0xffff
80002032:	ffff                	0xffff
80002034:	ffff                	0xffff
80002036:	          	fence	unknown,unknown

80002038 <test_8_data>:
80002038:	0000                	unimp
8000203a:	0000                	unimp
8000203c:	0000                	unimp
8000203e:	3ff0                	fld	fa2,248(a5)

80002040 <test_9_data>:
80002040:	0000                	unimp
80002042:	0000                	unimp
80002044:	0000                	unimp
80002046:	7ff0                	flw	fa2,124(a5)

80002048 <test_10_data>:
80002048:	0001                	nop
8000204a:	0000                	unimp
8000204c:	0000                	unimp
8000204e:	7ff0                	flw	fa2,124(a5)

80002050 <test_11_data>:
80002050:	0000                	unimp
80002052:	0000                	unimp
80002054:	0000                	unimp
80002056:	7ff8                	flw	fa4,124(a5)
	...
