
rv32ui-p-xori:     file format elf32-littleriscv


Disassembly of section .text.init:

80000000 <_start>:
80000000:	aa0d                	j	80000132 <reset_vector>
80000002:	0001                	nop

80000004 <trap_vector>:
80000004:	34051073          	csrw	mscratch,a0
80000008:	00002517          	auipc	a0,0x2
8000000c:	ff850513          	addi	a0,a0,-8 # 80002000 <test_trap_data>
80000010:	01e52023          	sw	t5,0(a0)
80000014:	01f52223          	sw	t6,4(a0)
80000018:	34202f73          	csrr	t5,mcause
8000001c:	040f4163          	bltz	t5,8000005e <other_interrupts>
80000020:	4fa1                	li	t6,8
80000022:	07ff0263          	beq	t5,t6,80000086 <write_tohost>
80000026:	4fa5                	li	t6,9
80000028:	05ff0f63          	beq	t5,t6,80000086 <write_tohost>
8000002c:	4fad                	li	t6,11
8000002e:	05ff0c63          	beq	t5,t6,80000086 <write_tohost>
80000032:	4f85                	li	t6,1
80000034:	0bff0563          	beq	t5,t6,800000de <ifetch_error_handler>
80000038:	4f95                	li	t6,5
8000003a:	0dff0063          	beq	t5,t6,800000fa <load_error_handler>
8000003e:	4f9d                	li	t6,7
80000040:	0dff0b63          	beq	t5,t6,80000116 <store_error_handler>
80000044:	80000f17          	auipc	t5,0x80000
80000048:	fbcf0f13          	addi	t5,t5,-68 # 0 <_start-0x80000000>
8000004c:	000f0363          	beqz	t5,80000052 <trap_vector+0x4e>
80000050:	8f02                	jr	t5
80000052:	34202f73          	csrr	t5,mcause
80000056:	000f5363          	bgez	t5,8000005c <handle_exception>
8000005a:	a009                	j	8000005c <handle_exception>

8000005c <handle_exception>:
8000005c:	a01d                	j	80000082 <other_interrupts+0x24>

8000005e <other_interrupts>:
8000005e:	80000fb7          	lui	t6,0x80000
80000062:	003f8f93          	addi	t6,t6,3 # 80000003 <_end+0xffffdff3>
80000066:	05ff0463          	beq	t5,t6,800000ae <sft_irq_handler>
8000006a:	80000fb7          	lui	t6,0x80000
8000006e:	007f8f93          	addi	t6,t6,7 # 80000007 <_end+0xffffdff7>
80000072:	05ff0a63          	beq	t5,t6,800000c6 <tmr_irq_handler>
80000076:	80000fb7          	lui	t6,0x80000
8000007a:	00bf8f93          	addi	t6,t6,11 # 8000000b <_end+0xffffdffb>
8000007e:	01ff0c63          	beq	t5,t6,80000096 <ext_irq_handler>
80000082:	5391e193          	ori	gp,gp,1337

80000086 <write_tohost>:
80000086:	4521                	li	a0,8
80000088:	30052073          	csrs	mstatus,a0
8000008c:	00001f17          	auipc	t5,0x1
80000090:	f63f2a23          	sw	gp,-140(t5) # 80001000 <tohost>
80000094:	bfcd                	j	80000086 <write_tohost>

80000096 <ext_irq_handler>:
80000096:	00002517          	auipc	a0,0x2
8000009a:	f6a50513          	addi	a0,a0,-150 # 80002000 <test_trap_data>
8000009e:	00052f03          	lw	t5,0(a0)
800000a2:	00452f83          	lw	t6,4(a0)
800000a6:	34002573          	csrr	a0,mscratch
800000aa:	30200073          	mret

800000ae <sft_irq_handler>:
800000ae:	00002517          	auipc	a0,0x2
800000b2:	f5250513          	addi	a0,a0,-174 # 80002000 <test_trap_data>
800000b6:	00052f03          	lw	t5,0(a0)
800000ba:	00452f83          	lw	t6,4(a0)
800000be:	34002573          	csrr	a0,mscratch
800000c2:	30200073          	mret

800000c6 <tmr_irq_handler>:
800000c6:	00002517          	auipc	a0,0x2
800000ca:	f3a50513          	addi	a0,a0,-198 # 80002000 <test_trap_data>
800000ce:	00052f03          	lw	t5,0(a0)
800000d2:	00452f83          	lw	t6,4(a0)
800000d6:	34002573          	csrr	a0,mscratch
800000da:	30200073          	mret

800000de <ifetch_error_handler>:
800000de:	00002517          	auipc	a0,0x2
800000e2:	f2250513          	addi	a0,a0,-222 # 80002000 <test_trap_data>
800000e6:	00052f03          	lw	t5,0(a0)
800000ea:	00452f83          	lw	t6,4(a0)
800000ee:	34302573          	csrr	a0,mbadaddr
800000f2:	34002573          	csrr	a0,mscratch
800000f6:	30200073          	mret

800000fa <load_error_handler>:
800000fa:	00002517          	auipc	a0,0x2
800000fe:	f0650513          	addi	a0,a0,-250 # 80002000 <test_trap_data>
80000102:	00052f03          	lw	t5,0(a0)
80000106:	00452f83          	lw	t6,4(a0)
8000010a:	34302573          	csrr	a0,mbadaddr
8000010e:	34002573          	csrr	a0,mscratch
80000112:	30200073          	mret

80000116 <store_error_handler>:
80000116:	00002517          	auipc	a0,0x2
8000011a:	eea50513          	addi	a0,a0,-278 # 80002000 <test_trap_data>
8000011e:	00052f03          	lw	t5,0(a0)
80000122:	00452f83          	lw	t6,4(a0)
80000126:	34302573          	csrr	a0,mbadaddr
8000012a:	34002573          	csrr	a0,mscratch
8000012e:	30200073          	mret

80000132 <reset_vector>:
80000132:	00000f13          	li	t5,0
80000136:	00000f93          	li	t6,0
8000013a:	f1402573          	csrr	a0,mhartid
8000013e:	e101                	bnez	a0,8000013e <reset_vector+0xc>
80000140:	4181                	li	gp,0
80000142:	00000297          	auipc	t0,0x0
80000146:	ec228293          	addi	t0,t0,-318 # 80000004 <trap_vector>
8000014a:	4521                	li	a0,8
8000014c:	30052073          	csrs	mstatus,a0
80000150:	fff00513          	li	a0,-1
80000154:	30452073          	csrs	mie,a0
80000158:	30529073          	csrw	mtvec,t0

8000015c <post_mtvec>:
8000015c:	80000297          	auipc	t0,0x80000
80000160:	ea428293          	addi	t0,t0,-348 # 0 <_start-0x80000000>
80000164:	00028e63          	beqz	t0,80000180 <post_mtvec+0x24>
80000168:	10529073          	csrw	stvec,t0
8000016c:	0000b2b7          	lui	t0,0xb
80000170:	10928293          	addi	t0,t0,265 # b109 <_start-0x7fff4ef7>
80000174:	30229073          	csrw	medeleg,t0
80000178:	30202373          	csrr	t1,medeleg
8000017c:	ee6290e3          	bne	t0,t1,8000005c <handle_exception>
80000180:	30005073          	csrwi	mstatus,0
80000184:	08000513          	li	a0,128
80000188:	30052073          	csrs	mstatus,a0
8000018c:	4501                	li	a0,0
8000018e:	bfc51073          	csrw	0xbfc,a0
80000192:	0000100f          	fence.i
80000196:	000012b7          	lui	t0,0x1
8000019a:	a0028293          	addi	t0,t0,-1536 # a00 <_start-0x7ffff600>

8000019e <waitloop1>:
8000019e:	12fd                	addi	t0,t0,-1
800001a0:	fe029fe3          	bnez	t0,8000019e <waitloop1>
800001a4:	100083b7          	lui	t2,0x10008
800001a8:	00838393          	addi	t2,t2,8 # 10008008 <_start-0x6fff7ff8>
800001ac:	0003a283          	lw	t0,0(t2)
800001b0:	00040337          	lui	t1,0x40
800001b4:	fff34313          	not	t1,t1
800001b8:	0062f2b3          	and	t0,t0,t1
800001bc:	0053a023          	sw	t0,0(t2)
800001c0:	40000293          	li	t0,1024

800001c4 <waitloop2>:
800001c4:	12fd                	addi	t0,t0,-1
800001c6:	0003ae03          	lw	t3,0(t2)
800001ca:	fe029de3          	bnez	t0,800001c4 <waitloop2>
800001ce:	0003a283          	lw	t0,0(t2)
800001d2:	00040337          	lui	t1,0x40
800001d6:	0062e2b3          	or	t0,t0,t1
800001da:	0053a023          	sw	t0,0(t2)
800001de:	0003a283          	lw	t0,0(t2)
800001e2:	4305                	li	t1,1
800001e4:	0062e2b3          	or	t0,t0,t1
800001e8:	0053a023          	sw	t0,0(t2)
800001ec:	0003a283          	lw	t0,0(t2)
800001f0:	02000313          	li	t1,32
800001f4:	0062e2b3          	or	t0,t0,t1
800001f8:	0053a023          	sw	t0,0(t2)
800001fc:	000012b7          	lui	t0,0x1
80000200:	a0028293          	addi	t0,t0,-1536 # a00 <_start-0x7ffff600>

80000204 <waitloop3>:
80000204:	12fd                	addi	t0,t0,-1
80000206:	fe029fe3          	bnez	t0,80000204 <waitloop3>
8000020a:	0003a283          	lw	t0,0(t2)
8000020e:	00040337          	lui	t1,0x40
80000212:	fff34313          	not	t1,t1
80000216:	0062f2b3          	and	t0,t0,t1
8000021a:	0053a023          	sw	t0,0(t2)
8000021e:	10000293          	li	t0,256

80000222 <waitloop4>:
80000222:	12fd                	addi	t0,t0,-1
80000224:	fe029fe3          	bnez	t0,80000222 <waitloop4>
80000228:	100083b7          	lui	t2,0x10008
8000022c:	00c38393          	addi	t2,t2,12 # 1000800c <_start-0x6fff7ff4>
80000230:	0003a283          	lw	t0,0(t2)
80000234:	10000313          	li	t1,256
80000238:	fff34313          	not	t1,t1
8000023c:	0062f2b3          	and	t0,t0,t1
80000240:	4309                	li	t1,2
80000242:	0062e2b3          	or	t0,t0,t1
80000246:	0053a023          	sw	t0,0(t2)
8000024a:	40000293          	li	t0,1024
8000024e:	00000297          	auipc	t0,0x0
80000252:	01428293          	addi	t0,t0,20 # 80000262 <test_2>
80000256:	34129073          	csrw	mepc,t0
8000025a:	f1402573          	csrr	a0,mhartid
8000025e:	30200073          	mret

80000262 <test_2>:
80000262:	00ff10b7          	lui	ra,0xff1
80000266:	f0008093          	addi	ra,ra,-256 # ff0f00 <_start-0x7f00f100>
8000026a:	f0f0cf13          	xori	t5,ra,-241
8000026e:	ff00feb7          	lui	t4,0xff00f
80000272:	00fe8e93          	addi	t4,t4,15 # ff00f00f <_end+0x7f00cfff>
80000276:	4189                	li	gp,2
80000278:	19df1163          	bne	t5,t4,800003fa <fail>

8000027c <test_3>:
8000027c:	0ff010b7          	lui	ra,0xff01
80000280:	ff008093          	addi	ra,ra,-16 # ff00ff0 <_start-0x700ff010>
80000284:	0f00cf13          	xori	t5,ra,240
80000288:	0ff01eb7          	lui	t4,0xff01
8000028c:	f00e8e93          	addi	t4,t4,-256 # ff00f00 <_start-0x700ff100>
80000290:	418d                	li	gp,3
80000292:	17df1463          	bne	t5,t4,800003fa <fail>

80000296 <test_4>:
80000296:	00ff10b7          	lui	ra,0xff1
8000029a:	8ff08093          	addi	ra,ra,-1793 # ff08ff <_start-0x7f00f701>
8000029e:	70f0cf13          	xori	t5,ra,1807
800002a2:	00ff1eb7          	lui	t4,0xff1
800002a6:	ff0e8e93          	addi	t4,t4,-16 # ff0ff0 <_start-0x7f00f010>
800002aa:	4191                	li	gp,4
800002ac:	15df1763          	bne	t5,t4,800003fa <fail>

800002b0 <test_5>:
800002b0:	f00ff0b7          	lui	ra,0xf00ff
800002b4:	00f08093          	addi	ra,ra,15 # f00ff00f <_end+0x700fcfff>
800002b8:	0f00cf13          	xori	t5,ra,240
800002bc:	f00ffeb7          	lui	t4,0xf00ff
800002c0:	0ffe8e93          	addi	t4,t4,255 # f00ff0ff <_end+0x700fd0ef>
800002c4:	4195                	li	gp,5
800002c6:	13df1a63          	bne	t5,t4,800003fa <fail>

800002ca <test_6>:
800002ca:	ff00f0b7          	lui	ra,0xff00f
800002ce:	70008093          	addi	ra,ra,1792 # ff00f700 <_end+0x7f00d6f0>
800002d2:	70f0c093          	xori	ra,ra,1807
800002d6:	ff00feb7          	lui	t4,0xff00f
800002da:	00fe8e93          	addi	t4,t4,15 # ff00f00f <_end+0x7f00cfff>
800002de:	4199                	li	gp,6
800002e0:	11d09d63          	bne	ra,t4,800003fa <fail>

800002e4 <test_7>:
800002e4:	4201                	li	tp,0
800002e6:	0ff010b7          	lui	ra,0xff01
800002ea:	ff008093          	addi	ra,ra,-16 # ff00ff0 <_start-0x700ff010>
800002ee:	0f00cf13          	xori	t5,ra,240
800002f2:	000f0313          	mv	t1,t5
800002f6:	0205                	addi	tp,tp,1
800002f8:	4289                	li	t0,2
800002fa:	fe5216e3          	bne	tp,t0,800002e6 <test_7+0x2>
800002fe:	0ff01eb7          	lui	t4,0xff01
80000302:	f00e8e93          	addi	t4,t4,-256 # ff00f00 <_start-0x700ff100>
80000306:	419d                	li	gp,7
80000308:	0fd31963          	bne	t1,t4,800003fa <fail>

8000030c <test_8>:
8000030c:	4201                	li	tp,0
8000030e:	00ff10b7          	lui	ra,0xff1
80000312:	8ff08093          	addi	ra,ra,-1793 # ff08ff <_start-0x7f00f701>
80000316:	70f0cf13          	xori	t5,ra,1807
8000031a:	0001                	nop
8000031c:	000f0313          	mv	t1,t5
80000320:	0205                	addi	tp,tp,1
80000322:	4289                	li	t0,2
80000324:	fe5215e3          	bne	tp,t0,8000030e <test_8+0x2>
80000328:	00ff1eb7          	lui	t4,0xff1
8000032c:	ff0e8e93          	addi	t4,t4,-16 # ff0ff0 <_start-0x7f00f010>
80000330:	41a1                	li	gp,8
80000332:	0dd31463          	bne	t1,t4,800003fa <fail>

80000336 <test_9>:
80000336:	4201                	li	tp,0
80000338:	f00ff0b7          	lui	ra,0xf00ff
8000033c:	00f08093          	addi	ra,ra,15 # f00ff00f <_end+0x700fcfff>
80000340:	0f00cf13          	xori	t5,ra,240
80000344:	0001                	nop
80000346:	0001                	nop
80000348:	000f0313          	mv	t1,t5
8000034c:	0205                	addi	tp,tp,1
8000034e:	4289                	li	t0,2
80000350:	fe5214e3          	bne	tp,t0,80000338 <test_9+0x2>
80000354:	f00ffeb7          	lui	t4,0xf00ff
80000358:	0ffe8e93          	addi	t4,t4,255 # f00ff0ff <_end+0x700fd0ef>
8000035c:	41a5                	li	gp,9
8000035e:	09d31e63          	bne	t1,t4,800003fa <fail>

80000362 <test_10>:
80000362:	4201                	li	tp,0
80000364:	0ff010b7          	lui	ra,0xff01
80000368:	ff008093          	addi	ra,ra,-16 # ff00ff0 <_start-0x700ff010>
8000036c:	0f00cf13          	xori	t5,ra,240
80000370:	0205                	addi	tp,tp,1
80000372:	4289                	li	t0,2
80000374:	fe5218e3          	bne	tp,t0,80000364 <test_10+0x2>
80000378:	0ff01eb7          	lui	t4,0xff01
8000037c:	f00e8e93          	addi	t4,t4,-256 # ff00f00 <_start-0x700ff100>
80000380:	41a9                	li	gp,10
80000382:	07df1c63          	bne	t5,t4,800003fa <fail>

80000386 <test_11>:
80000386:	4201                	li	tp,0
80000388:	00ff10b7          	lui	ra,0xff1
8000038c:	fff08093          	addi	ra,ra,-1 # ff0fff <_start-0x7f00f001>
80000390:	0001                	nop
80000392:	00f0cf13          	xori	t5,ra,15
80000396:	0205                	addi	tp,tp,1
80000398:	4289                	li	t0,2
8000039a:	fe5217e3          	bne	tp,t0,80000388 <test_11+0x2>
8000039e:	00ff1eb7          	lui	t4,0xff1
800003a2:	ff0e8e93          	addi	t4,t4,-16 # ff0ff0 <_start-0x7f00f010>
800003a6:	41ad                	li	gp,11
800003a8:	05df1963          	bne	t5,t4,800003fa <fail>

800003ac <test_12>:
800003ac:	4201                	li	tp,0
800003ae:	f00ff0b7          	lui	ra,0xf00ff
800003b2:	00f08093          	addi	ra,ra,15 # f00ff00f <_end+0x700fcfff>
800003b6:	0001                	nop
800003b8:	0001                	nop
800003ba:	0f00cf13          	xori	t5,ra,240
800003be:	0205                	addi	tp,tp,1
800003c0:	4289                	li	t0,2
800003c2:	fe5216e3          	bne	tp,t0,800003ae <test_12+0x2>
800003c6:	f00ffeb7          	lui	t4,0xf00ff
800003ca:	0ffe8e93          	addi	t4,t4,255 # f00ff0ff <_end+0x700fd0ef>
800003ce:	41b1                	li	gp,12
800003d0:	03df1563          	bne	t5,t4,800003fa <fail>

800003d4 <test_13>:
800003d4:	0f004093          	xori	ra,zero,240
800003d8:	0f000e93          	li	t4,240
800003dc:	41b5                	li	gp,13
800003de:	01d09e63          	bne	ra,t4,800003fa <fail>

800003e2 <test_14>:
800003e2:	00ff00b7          	lui	ra,0xff0
800003e6:	0ff08093          	addi	ra,ra,255 # ff00ff <_start-0x7f00ff01>
800003ea:	70f0c013          	xori	zero,ra,1807
800003ee:	4e81                	li	t4,0
800003f0:	41b9                	li	gp,14
800003f2:	01d01463          	bne	zero,t4,800003fa <fail>
800003f6:	00301b63          	bne	zero,gp,8000040c <pass>

800003fa <fail>:
800003fa:	0ff0000f          	fence
800003fe:	00018063          	beqz	gp,800003fe <fail+0x4>
80000402:	0186                	slli	gp,gp,0x1
80000404:	0011e193          	ori	gp,gp,1
80000408:	00000073          	ecall

8000040c <pass>:
8000040c:	0ff0000f          	fence
80000410:	4185                	li	gp,1
80000412:	00000073          	ecall
	...

Disassembly of section .tohost:

80001000 <tohost>:
	...

80001040 <fromhost>:
	...

Disassembly of section .data:

80002000 <test_trap_data>:
	...
