
rv32ui-p-lw:     file format elf32-littleriscv


Disassembly of section .text.init:

80000000 <_start>:
80000000:	aa0d                	j	80000132 <reset_vector>
80000002:	0001                	nop

80000004 <trap_vector>:
80000004:	34051073          	csrw	mscratch,a0
80000008:	00002517          	auipc	a0,0x2
8000000c:	ff850513          	addi	a0,a0,-8 # 80002000 <test_trap_data>
80000010:	01e52023          	sw	t5,0(a0)
80000014:	01f52223          	sw	t6,4(a0)
80000018:	34202f73          	csrr	t5,mcause
8000001c:	040f4163          	bltz	t5,8000005e <other_interrupts>
80000020:	4fa1                	li	t6,8
80000022:	07ff0263          	beq	t5,t6,80000086 <write_tohost>
80000026:	4fa5                	li	t6,9
80000028:	05ff0f63          	beq	t5,t6,80000086 <write_tohost>
8000002c:	4fad                	li	t6,11
8000002e:	05ff0c63          	beq	t5,t6,80000086 <write_tohost>
80000032:	4f85                	li	t6,1
80000034:	0bff0563          	beq	t5,t6,800000de <ifetch_error_handler>
80000038:	4f95                	li	t6,5
8000003a:	0dff0063          	beq	t5,t6,800000fa <load_error_handler>
8000003e:	4f9d                	li	t6,7
80000040:	0dff0b63          	beq	t5,t6,80000116 <store_error_handler>
80000044:	80000f17          	auipc	t5,0x80000
80000048:	fbcf0f13          	addi	t5,t5,-68 # 0 <_start-0x80000000>
8000004c:	000f0363          	beqz	t5,80000052 <trap_vector+0x4e>
80000050:	8f02                	jr	t5
80000052:	34202f73          	csrr	t5,mcause
80000056:	000f5363          	bgez	t5,8000005c <handle_exception>
8000005a:	a009                	j	8000005c <handle_exception>

8000005c <handle_exception>:
8000005c:	a01d                	j	80000082 <other_interrupts+0x24>

8000005e <other_interrupts>:
8000005e:	80000fb7          	lui	t6,0x80000
80000062:	003f8f93          	addi	t6,t6,3 # 80000003 <_end+0xffffdfe3>
80000066:	05ff0463          	beq	t5,t6,800000ae <sft_irq_handler>
8000006a:	80000fb7          	lui	t6,0x80000
8000006e:	007f8f93          	addi	t6,t6,7 # 80000007 <_end+0xffffdfe7>
80000072:	05ff0a63          	beq	t5,t6,800000c6 <tmr_irq_handler>
80000076:	80000fb7          	lui	t6,0x80000
8000007a:	00bf8f93          	addi	t6,t6,11 # 8000000b <_end+0xffffdfeb>
8000007e:	01ff0c63          	beq	t5,t6,80000096 <ext_irq_handler>
80000082:	5391e193          	ori	gp,gp,1337

80000086 <write_tohost>:
80000086:	4521                	li	a0,8
80000088:	30052073          	csrs	mstatus,a0
8000008c:	00001f17          	auipc	t5,0x1
80000090:	f63f2a23          	sw	gp,-140(t5) # 80001000 <tohost>
80000094:	bfcd                	j	80000086 <write_tohost>

80000096 <ext_irq_handler>:
80000096:	00002517          	auipc	a0,0x2
8000009a:	f6a50513          	addi	a0,a0,-150 # 80002000 <test_trap_data>
8000009e:	00052f03          	lw	t5,0(a0)
800000a2:	00452f83          	lw	t6,4(a0)
800000a6:	34002573          	csrr	a0,mscratch
800000aa:	30200073          	mret

800000ae <sft_irq_handler>:
800000ae:	00002517          	auipc	a0,0x2
800000b2:	f5250513          	addi	a0,a0,-174 # 80002000 <test_trap_data>
800000b6:	00052f03          	lw	t5,0(a0)
800000ba:	00452f83          	lw	t6,4(a0)
800000be:	34002573          	csrr	a0,mscratch
800000c2:	30200073          	mret

800000c6 <tmr_irq_handler>:
800000c6:	00002517          	auipc	a0,0x2
800000ca:	f3a50513          	addi	a0,a0,-198 # 80002000 <test_trap_data>
800000ce:	00052f03          	lw	t5,0(a0)
800000d2:	00452f83          	lw	t6,4(a0)
800000d6:	34002573          	csrr	a0,mscratch
800000da:	30200073          	mret

800000de <ifetch_error_handler>:
800000de:	00002517          	auipc	a0,0x2
800000e2:	f2250513          	addi	a0,a0,-222 # 80002000 <test_trap_data>
800000e6:	00052f03          	lw	t5,0(a0)
800000ea:	00452f83          	lw	t6,4(a0)
800000ee:	34302573          	csrr	a0,mbadaddr
800000f2:	34002573          	csrr	a0,mscratch
800000f6:	30200073          	mret

800000fa <load_error_handler>:
800000fa:	00002517          	auipc	a0,0x2
800000fe:	f0650513          	addi	a0,a0,-250 # 80002000 <test_trap_data>
80000102:	00052f03          	lw	t5,0(a0)
80000106:	00452f83          	lw	t6,4(a0)
8000010a:	34302573          	csrr	a0,mbadaddr
8000010e:	34002573          	csrr	a0,mscratch
80000112:	30200073          	mret

80000116 <store_error_handler>:
80000116:	00002517          	auipc	a0,0x2
8000011a:	eea50513          	addi	a0,a0,-278 # 80002000 <test_trap_data>
8000011e:	00052f03          	lw	t5,0(a0)
80000122:	00452f83          	lw	t6,4(a0)
80000126:	34302573          	csrr	a0,mbadaddr
8000012a:	34002573          	csrr	a0,mscratch
8000012e:	30200073          	mret

80000132 <reset_vector>:
80000132:	00000f13          	li	t5,0
80000136:	00000f93          	li	t6,0
8000013a:	f1402573          	csrr	a0,mhartid
8000013e:	e101                	bnez	a0,8000013e <reset_vector+0xc>
80000140:	4181                	li	gp,0
80000142:	00000297          	auipc	t0,0x0
80000146:	ec228293          	addi	t0,t0,-318 # 80000004 <trap_vector>
8000014a:	4521                	li	a0,8
8000014c:	30052073          	csrs	mstatus,a0
80000150:	fff00513          	li	a0,-1
80000154:	30452073          	csrs	mie,a0
80000158:	30529073          	csrw	mtvec,t0

8000015c <post_mtvec>:
8000015c:	80000297          	auipc	t0,0x80000
80000160:	ea428293          	addi	t0,t0,-348 # 0 <_start-0x80000000>
80000164:	00028e63          	beqz	t0,80000180 <post_mtvec+0x24>
80000168:	10529073          	csrw	stvec,t0
8000016c:	0000b2b7          	lui	t0,0xb
80000170:	10928293          	addi	t0,t0,265 # b109 <_start-0x7fff4ef7>
80000174:	30229073          	csrw	medeleg,t0
80000178:	30202373          	csrr	t1,medeleg
8000017c:	ee6290e3          	bne	t0,t1,8000005c <handle_exception>
80000180:	30005073          	csrwi	mstatus,0
80000184:	08000513          	li	a0,128
80000188:	30052073          	csrs	mstatus,a0
8000018c:	4501                	li	a0,0
8000018e:	bfc51073          	csrw	0xbfc,a0
80000192:	0000100f          	fence.i
80000196:	000012b7          	lui	t0,0x1
8000019a:	a0028293          	addi	t0,t0,-1536 # a00 <_start-0x7ffff600>

8000019e <waitloop1>:
8000019e:	12fd                	addi	t0,t0,-1
800001a0:	fe029fe3          	bnez	t0,8000019e <waitloop1>
800001a4:	100083b7          	lui	t2,0x10008
800001a8:	00838393          	addi	t2,t2,8 # 10008008 <_start-0x6fff7ff8>
800001ac:	0003a283          	lw	t0,0(t2)
800001b0:	00040337          	lui	t1,0x40
800001b4:	fff34313          	not	t1,t1
800001b8:	0062f2b3          	and	t0,t0,t1
800001bc:	0053a023          	sw	t0,0(t2)
800001c0:	40000293          	li	t0,1024

800001c4 <waitloop2>:
800001c4:	12fd                	addi	t0,t0,-1
800001c6:	0003ae03          	lw	t3,0(t2)
800001ca:	fe029de3          	bnez	t0,800001c4 <waitloop2>
800001ce:	0003a283          	lw	t0,0(t2)
800001d2:	00040337          	lui	t1,0x40
800001d6:	0062e2b3          	or	t0,t0,t1
800001da:	0053a023          	sw	t0,0(t2)
800001de:	0003a283          	lw	t0,0(t2)
800001e2:	4305                	li	t1,1
800001e4:	0062e2b3          	or	t0,t0,t1
800001e8:	0053a023          	sw	t0,0(t2)
800001ec:	0003a283          	lw	t0,0(t2)
800001f0:	02000313          	li	t1,32
800001f4:	0062e2b3          	or	t0,t0,t1
800001f8:	0053a023          	sw	t0,0(t2)
800001fc:	000012b7          	lui	t0,0x1
80000200:	a0028293          	addi	t0,t0,-1536 # a00 <_start-0x7ffff600>

80000204 <waitloop3>:
80000204:	12fd                	addi	t0,t0,-1
80000206:	fe029fe3          	bnez	t0,80000204 <waitloop3>
8000020a:	0003a283          	lw	t0,0(t2)
8000020e:	00040337          	lui	t1,0x40
80000212:	fff34313          	not	t1,t1
80000216:	0062f2b3          	and	t0,t0,t1
8000021a:	0053a023          	sw	t0,0(t2)
8000021e:	10000293          	li	t0,256

80000222 <waitloop4>:
80000222:	12fd                	addi	t0,t0,-1
80000224:	fe029fe3          	bnez	t0,80000222 <waitloop4>
80000228:	100083b7          	lui	t2,0x10008
8000022c:	00c38393          	addi	t2,t2,12 # 1000800c <_start-0x6fff7ff4>
80000230:	0003a283          	lw	t0,0(t2)
80000234:	10000313          	li	t1,256
80000238:	fff34313          	not	t1,t1
8000023c:	0062f2b3          	and	t0,t0,t1
80000240:	4309                	li	t1,2
80000242:	0062e2b3          	or	t0,t0,t1
80000246:	0053a023          	sw	t0,0(t2)
8000024a:	40000293          	li	t0,1024
8000024e:	00000297          	auipc	t0,0x0
80000252:	01428293          	addi	t0,t0,20 # 80000262 <test_2>
80000256:	34129073          	csrw	mepc,t0
8000025a:	f1402573          	csrr	a0,mhartid
8000025e:	30200073          	mret

80000262 <test_2>:
80000262:	00002097          	auipc	ra,0x2
80000266:	dae08093          	addi	ra,ra,-594 # 80002010 <begin_signature>
8000026a:	0000af03          	lw	t5,0(ra)
8000026e:	00ff0eb7          	lui	t4,0xff0
80000272:	0ffe8e93          	addi	t4,t4,255 # ff00ff <_start-0x7f00ff01>
80000276:	4189                	li	gp,2
80000278:	21df1a63          	bne	t5,t4,8000048c <fail>

8000027c <test_3>:
8000027c:	00002097          	auipc	ra,0x2
80000280:	d9408093          	addi	ra,ra,-620 # 80002010 <begin_signature>
80000284:	0040af03          	lw	t5,4(ra)
80000288:	ff010eb7          	lui	t4,0xff010
8000028c:	f00e8e93          	addi	t4,t4,-256 # ff00ff00 <_end+0x7f00dee0>
80000290:	418d                	li	gp,3
80000292:	1fdf1d63          	bne	t5,t4,8000048c <fail>

80000296 <test_4>:
80000296:	00002097          	auipc	ra,0x2
8000029a:	d7a08093          	addi	ra,ra,-646 # 80002010 <begin_signature>
8000029e:	0080af03          	lw	t5,8(ra)
800002a2:	0ff01eb7          	lui	t4,0xff01
800002a6:	ff0e8e93          	addi	t4,t4,-16 # ff00ff0 <_start-0x700ff010>
800002aa:	4191                	li	gp,4
800002ac:	1fdf1063          	bne	t5,t4,8000048c <fail>

800002b0 <test_5>:
800002b0:	00002097          	auipc	ra,0x2
800002b4:	d6008093          	addi	ra,ra,-672 # 80002010 <begin_signature>
800002b8:	00c0af03          	lw	t5,12(ra)
800002bc:	f00ffeb7          	lui	t4,0xf00ff
800002c0:	00fe8e93          	addi	t4,t4,15 # f00ff00f <_end+0x700fcfef>
800002c4:	4195                	li	gp,5
800002c6:	1ddf1363          	bne	t5,t4,8000048c <fail>

800002ca <test_6>:
800002ca:	00002097          	auipc	ra,0x2
800002ce:	d5208093          	addi	ra,ra,-686 # 8000201c <tdat4>
800002d2:	ff40af03          	lw	t5,-12(ra)
800002d6:	00ff0eb7          	lui	t4,0xff0
800002da:	0ffe8e93          	addi	t4,t4,255 # ff00ff <_start-0x7f00ff01>
800002de:	4199                	li	gp,6
800002e0:	1bdf1663          	bne	t5,t4,8000048c <fail>

800002e4 <test_7>:
800002e4:	00002097          	auipc	ra,0x2
800002e8:	d3808093          	addi	ra,ra,-712 # 8000201c <tdat4>
800002ec:	ff80af03          	lw	t5,-8(ra)
800002f0:	ff010eb7          	lui	t4,0xff010
800002f4:	f00e8e93          	addi	t4,t4,-256 # ff00ff00 <_end+0x7f00dee0>
800002f8:	419d                	li	gp,7
800002fa:	19df1963          	bne	t5,t4,8000048c <fail>

800002fe <test_8>:
800002fe:	00002097          	auipc	ra,0x2
80000302:	d1e08093          	addi	ra,ra,-738 # 8000201c <tdat4>
80000306:	ffc0af03          	lw	t5,-4(ra)
8000030a:	0ff01eb7          	lui	t4,0xff01
8000030e:	ff0e8e93          	addi	t4,t4,-16 # ff00ff0 <_start-0x700ff010>
80000312:	41a1                	li	gp,8
80000314:	17df1c63          	bne	t5,t4,8000048c <fail>

80000318 <test_9>:
80000318:	00002097          	auipc	ra,0x2
8000031c:	d0408093          	addi	ra,ra,-764 # 8000201c <tdat4>
80000320:	0000af03          	lw	t5,0(ra)
80000324:	f00ffeb7          	lui	t4,0xf00ff
80000328:	00fe8e93          	addi	t4,t4,15 # f00ff00f <_end+0x700fcfef>
8000032c:	41a5                	li	gp,9
8000032e:	15df1f63          	bne	t5,t4,8000048c <fail>

80000332 <test_10>:
80000332:	00002097          	auipc	ra,0x2
80000336:	cde08093          	addi	ra,ra,-802 # 80002010 <begin_signature>
8000033a:	1081                	addi	ra,ra,-32
8000033c:	0200a283          	lw	t0,32(ra)
80000340:	00ff0eb7          	lui	t4,0xff0
80000344:	0ffe8e93          	addi	t4,t4,255 # ff00ff <_start-0x7f00ff01>
80000348:	41a9                	li	gp,10
8000034a:	15d29163          	bne	t0,t4,8000048c <fail>

8000034e <test_11>:
8000034e:	00002097          	auipc	ra,0x2
80000352:	cc208093          	addi	ra,ra,-830 # 80002010 <begin_signature>
80000356:	10f5                	addi	ra,ra,-3
80000358:	0070a283          	lw	t0,7(ra)
8000035c:	ff010eb7          	lui	t4,0xff010
80000360:	f00e8e93          	addi	t4,t4,-256 # ff00ff00 <_end+0x7f00dee0>
80000364:	41ad                	li	gp,11
80000366:	13d29363          	bne	t0,t4,8000048c <fail>

8000036a <test_12>:
8000036a:	41b1                	li	gp,12
8000036c:	4201                	li	tp,0
8000036e:	00002097          	auipc	ra,0x2
80000372:	ca608093          	addi	ra,ra,-858 # 80002014 <tdat2>
80000376:	0040af03          	lw	t5,4(ra)
8000037a:	000f0313          	mv	t1,t5
8000037e:	0ff01eb7          	lui	t4,0xff01
80000382:	ff0e8e93          	addi	t4,t4,-16 # ff00ff0 <_start-0x700ff010>
80000386:	11d31363          	bne	t1,t4,8000048c <fail>
8000038a:	0205                	addi	tp,tp,1
8000038c:	4289                	li	t0,2
8000038e:	fe5210e3          	bne	tp,t0,8000036e <test_12+0x4>

80000392 <test_13>:
80000392:	41b5                	li	gp,13
80000394:	4201                	li	tp,0
80000396:	00002097          	auipc	ra,0x2
8000039a:	c8208093          	addi	ra,ra,-894 # 80002018 <tdat3>
8000039e:	0040af03          	lw	t5,4(ra)
800003a2:	0001                	nop
800003a4:	000f0313          	mv	t1,t5
800003a8:	f00ffeb7          	lui	t4,0xf00ff
800003ac:	00fe8e93          	addi	t4,t4,15 # f00ff00f <_end+0x700fcfef>
800003b0:	0dd31e63          	bne	t1,t4,8000048c <fail>
800003b4:	0205                	addi	tp,tp,1
800003b6:	4289                	li	t0,2
800003b8:	fc521fe3          	bne	tp,t0,80000396 <test_13+0x4>

800003bc <test_14>:
800003bc:	41b9                	li	gp,14
800003be:	4201                	li	tp,0
800003c0:	00002097          	auipc	ra,0x2
800003c4:	c5008093          	addi	ra,ra,-944 # 80002010 <begin_signature>
800003c8:	0040af03          	lw	t5,4(ra)
800003cc:	0001                	nop
800003ce:	0001                	nop
800003d0:	000f0313          	mv	t1,t5
800003d4:	ff010eb7          	lui	t4,0xff010
800003d8:	f00e8e93          	addi	t4,t4,-256 # ff00ff00 <_end+0x7f00dee0>
800003dc:	0bd31863          	bne	t1,t4,8000048c <fail>
800003e0:	0205                	addi	tp,tp,1
800003e2:	4289                	li	t0,2
800003e4:	fc521ee3          	bne	tp,t0,800003c0 <test_14+0x4>

800003e8 <test_15>:
800003e8:	41bd                	li	gp,15
800003ea:	4201                	li	tp,0
800003ec:	00002097          	auipc	ra,0x2
800003f0:	c2808093          	addi	ra,ra,-984 # 80002014 <tdat2>
800003f4:	0040af03          	lw	t5,4(ra)
800003f8:	0ff01eb7          	lui	t4,0xff01
800003fc:	ff0e8e93          	addi	t4,t4,-16 # ff00ff0 <_start-0x700ff010>
80000400:	09df1663          	bne	t5,t4,8000048c <fail>
80000404:	0205                	addi	tp,tp,1
80000406:	4289                	li	t0,2
80000408:	fe5212e3          	bne	tp,t0,800003ec <test_15+0x4>

8000040c <test_16>:
8000040c:	41c1                	li	gp,16
8000040e:	4201                	li	tp,0
80000410:	00002097          	auipc	ra,0x2
80000414:	c0808093          	addi	ra,ra,-1016 # 80002018 <tdat3>
80000418:	0001                	nop
8000041a:	0040af03          	lw	t5,4(ra)
8000041e:	f00ffeb7          	lui	t4,0xf00ff
80000422:	00fe8e93          	addi	t4,t4,15 # f00ff00f <_end+0x700fcfef>
80000426:	07df1363          	bne	t5,t4,8000048c <fail>
8000042a:	0205                	addi	tp,tp,1
8000042c:	4289                	li	t0,2
8000042e:	fe5211e3          	bne	tp,t0,80000410 <test_16+0x4>

80000432 <test_17>:
80000432:	41c5                	li	gp,17
80000434:	4201                	li	tp,0
80000436:	00002097          	auipc	ra,0x2
8000043a:	bda08093          	addi	ra,ra,-1062 # 80002010 <begin_signature>
8000043e:	0001                	nop
80000440:	0001                	nop
80000442:	0040af03          	lw	t5,4(ra)
80000446:	ff010eb7          	lui	t4,0xff010
8000044a:	f00e8e93          	addi	t4,t4,-256 # ff00ff00 <_end+0x7f00dee0>
8000044e:	03df1f63          	bne	t5,t4,8000048c <fail>
80000452:	0205                	addi	tp,tp,1
80000454:	4289                	li	t0,2
80000456:	fe5210e3          	bne	tp,t0,80000436 <test_17+0x4>

8000045a <test_18>:
8000045a:	00002297          	auipc	t0,0x2
8000045e:	bb628293          	addi	t0,t0,-1098 # 80002010 <begin_signature>
80000462:	0002a103          	lw	sp,0(t0)
80000466:	4109                	li	sp,2
80000468:	4e89                	li	t4,2
8000046a:	41c9                	li	gp,18
8000046c:	03d11063          	bne	sp,t4,8000048c <fail>

80000470 <test_19>:
80000470:	00002297          	auipc	t0,0x2
80000474:	ba028293          	addi	t0,t0,-1120 # 80002010 <begin_signature>
80000478:	0002a103          	lw	sp,0(t0)
8000047c:	0001                	nop
8000047e:	4109                	li	sp,2
80000480:	4e89                	li	t4,2
80000482:	41cd                	li	gp,19
80000484:	01d11463          	bne	sp,t4,8000048c <fail>
80000488:	00301b63          	bne	zero,gp,8000049e <pass>

8000048c <fail>:
8000048c:	0ff0000f          	fence
80000490:	00018063          	beqz	gp,80000490 <fail+0x4>
80000494:	0186                	slli	gp,gp,0x1
80000496:	0011e193          	ori	gp,gp,1
8000049a:	00000073          	ecall

8000049e <pass>:
8000049e:	0ff0000f          	fence
800004a2:	4185                	li	gp,1
800004a4:	00000073          	ecall
	...

Disassembly of section .tohost:

80001000 <tohost>:
	...

80001040 <fromhost>:
	...

Disassembly of section .data:

80002000 <test_trap_data>:
	...

80002010 <begin_signature>:
80002010:	00ff                	0xff
80002012:	00ff                	0xff

80002014 <tdat2>:
80002014:	ff00                	fsw	fs0,56(a4)
80002016:	ff00                	fsw	fs0,56(a4)

80002018 <tdat3>:
80002018:	0ff0                	addi	a2,sp,988
8000201a:	0ff0                	addi	a2,sp,988

8000201c <tdat4>:
8000201c:	f00ff00f          	0xf00ff00f
