
rv32uf-p-fcmp:     file format elf32-littleriscv


Disassembly of section .text.init:

80000000 <_start>:
80000000:	aa0d                	j	80000132 <reset_vector>
80000002:	0001                	nop

80000004 <trap_vector>:
80000004:	34051073          	csrw	mscratch,a0
80000008:	00002517          	auipc	a0,0x2
8000000c:	ff850513          	addi	a0,a0,-8 # 80002000 <test_trap_data>
80000010:	01e52023          	sw	t5,0(a0)
80000014:	01f52223          	sw	t6,4(a0)
80000018:	34202f73          	csrr	t5,mcause
8000001c:	040f4163          	bltz	t5,8000005e <other_interrupts>
80000020:	4fa1                	li	t6,8
80000022:	07ff0263          	beq	t5,t6,80000086 <write_tohost>
80000026:	4fa5                	li	t6,9
80000028:	05ff0f63          	beq	t5,t6,80000086 <write_tohost>
8000002c:	4fad                	li	t6,11
8000002e:	05ff0c63          	beq	t5,t6,80000086 <write_tohost>
80000032:	4f85                	li	t6,1
80000034:	0bff0563          	beq	t5,t6,800000de <ifetch_error_handler>
80000038:	4f95                	li	t6,5
8000003a:	0dff0063          	beq	t5,t6,800000fa <load_error_handler>
8000003e:	4f9d                	li	t6,7
80000040:	0dff0b63          	beq	t5,t6,80000116 <store_error_handler>
80000044:	80000f17          	auipc	t5,0x80000
80000048:	fbcf0f13          	addi	t5,t5,-68 # 0 <_start-0x80000000>
8000004c:	000f0363          	beqz	t5,80000052 <trap_vector+0x4e>
80000050:	8f02                	jr	t5
80000052:	34202f73          	csrr	t5,mcause
80000056:	000f5363          	bgez	t5,8000005c <handle_exception>
8000005a:	a009                	j	8000005c <handle_exception>

8000005c <handle_exception>:
8000005c:	a01d                	j	80000082 <other_interrupts+0x24>

8000005e <other_interrupts>:
8000005e:	80000fb7          	lui	t6,0x80000
80000062:	003f8f93          	addi	t6,t6,3 # 80000003 <_end+0xffffdf03>
80000066:	05ff0463          	beq	t5,t6,800000ae <sft_irq_handler>
8000006a:	80000fb7          	lui	t6,0x80000
8000006e:	007f8f93          	addi	t6,t6,7 # 80000007 <_end+0xffffdf07>
80000072:	05ff0a63          	beq	t5,t6,800000c6 <tmr_irq_handler>
80000076:	80000fb7          	lui	t6,0x80000
8000007a:	00bf8f93          	addi	t6,t6,11 # 8000000b <_end+0xffffdf0b>
8000007e:	01ff0c63          	beq	t5,t6,80000096 <ext_irq_handler>
80000082:	5391e193          	ori	gp,gp,1337

80000086 <write_tohost>:
80000086:	4521                	li	a0,8
80000088:	30052073          	csrs	mstatus,a0
8000008c:	00001f17          	auipc	t5,0x1
80000090:	f63f2a23          	sw	gp,-140(t5) # 80001000 <tohost>
80000094:	bfcd                	j	80000086 <write_tohost>

80000096 <ext_irq_handler>:
80000096:	00002517          	auipc	a0,0x2
8000009a:	f6a50513          	addi	a0,a0,-150 # 80002000 <test_trap_data>
8000009e:	00052f03          	lw	t5,0(a0)
800000a2:	00452f83          	lw	t6,4(a0)
800000a6:	34002573          	csrr	a0,mscratch
800000aa:	30200073          	mret

800000ae <sft_irq_handler>:
800000ae:	00002517          	auipc	a0,0x2
800000b2:	f5250513          	addi	a0,a0,-174 # 80002000 <test_trap_data>
800000b6:	00052f03          	lw	t5,0(a0)
800000ba:	00452f83          	lw	t6,4(a0)
800000be:	34002573          	csrr	a0,mscratch
800000c2:	30200073          	mret

800000c6 <tmr_irq_handler>:
800000c6:	00002517          	auipc	a0,0x2
800000ca:	f3a50513          	addi	a0,a0,-198 # 80002000 <test_trap_data>
800000ce:	00052f03          	lw	t5,0(a0)
800000d2:	00452f83          	lw	t6,4(a0)
800000d6:	34002573          	csrr	a0,mscratch
800000da:	30200073          	mret

800000de <ifetch_error_handler>:
800000de:	00002517          	auipc	a0,0x2
800000e2:	f2250513          	addi	a0,a0,-222 # 80002000 <test_trap_data>
800000e6:	00052f03          	lw	t5,0(a0)
800000ea:	00452f83          	lw	t6,4(a0)
800000ee:	34302573          	csrr	a0,mbadaddr
800000f2:	34002573          	csrr	a0,mscratch
800000f6:	30200073          	mret

800000fa <load_error_handler>:
800000fa:	00002517          	auipc	a0,0x2
800000fe:	f0650513          	addi	a0,a0,-250 # 80002000 <test_trap_data>
80000102:	00052f03          	lw	t5,0(a0)
80000106:	00452f83          	lw	t6,4(a0)
8000010a:	34302573          	csrr	a0,mbadaddr
8000010e:	34002573          	csrr	a0,mscratch
80000112:	30200073          	mret

80000116 <store_error_handler>:
80000116:	00002517          	auipc	a0,0x2
8000011a:	eea50513          	addi	a0,a0,-278 # 80002000 <test_trap_data>
8000011e:	00052f03          	lw	t5,0(a0)
80000122:	00452f83          	lw	t6,4(a0)
80000126:	34302573          	csrr	a0,mbadaddr
8000012a:	34002573          	csrr	a0,mscratch
8000012e:	30200073          	mret

80000132 <reset_vector>:
80000132:	00000f13          	li	t5,0
80000136:	00000f93          	li	t6,0
8000013a:	f1402573          	csrr	a0,mhartid
8000013e:	e101                	bnez	a0,8000013e <reset_vector+0xc>
80000140:	4181                	li	gp,0
80000142:	00000297          	auipc	t0,0x0
80000146:	ec228293          	addi	t0,t0,-318 # 80000004 <trap_vector>
8000014a:	4521                	li	a0,8
8000014c:	30052073          	csrs	mstatus,a0
80000150:	fff00513          	li	a0,-1
80000154:	30452073          	csrs	mie,a0
80000158:	30529073          	csrw	mtvec,t0

8000015c <post_mtvec>:
8000015c:	80000297          	auipc	t0,0x80000
80000160:	ea428293          	addi	t0,t0,-348 # 0 <_start-0x80000000>
80000164:	00028e63          	beqz	t0,80000180 <post_mtvec+0x24>
80000168:	10529073          	csrw	stvec,t0
8000016c:	0000b2b7          	lui	t0,0xb
80000170:	10928293          	addi	t0,t0,265 # b109 <_start-0x7fff4ef7>
80000174:	30229073          	csrw	medeleg,t0
80000178:	30202373          	csrr	t1,medeleg
8000017c:	ee6290e3          	bne	t0,t1,8000005c <handle_exception>
80000180:	30005073          	csrwi	mstatus,0
80000184:	08000513          	li	a0,128
80000188:	30052073          	csrs	mstatus,a0
8000018c:	4501                	li	a0,0
8000018e:	bfc51073          	csrw	0xbfc,a0
80000192:	0000100f          	fence.i
80000196:	000012b7          	lui	t0,0x1
8000019a:	a0028293          	addi	t0,t0,-1536 # a00 <_start-0x7ffff600>

8000019e <waitloop1>:
8000019e:	12fd                	addi	t0,t0,-1
800001a0:	fe029fe3          	bnez	t0,8000019e <waitloop1>
800001a4:	100083b7          	lui	t2,0x10008
800001a8:	00838393          	addi	t2,t2,8 # 10008008 <_start-0x6fff7ff8>
800001ac:	0003a283          	lw	t0,0(t2)
800001b0:	00040337          	lui	t1,0x40
800001b4:	fff34313          	not	t1,t1
800001b8:	0062f2b3          	and	t0,t0,t1
800001bc:	0053a023          	sw	t0,0(t2)
800001c0:	40000293          	li	t0,1024

800001c4 <waitloop2>:
800001c4:	12fd                	addi	t0,t0,-1
800001c6:	0003ae03          	lw	t3,0(t2)
800001ca:	fe029de3          	bnez	t0,800001c4 <waitloop2>
800001ce:	0003a283          	lw	t0,0(t2)
800001d2:	00040337          	lui	t1,0x40
800001d6:	0062e2b3          	or	t0,t0,t1
800001da:	0053a023          	sw	t0,0(t2)
800001de:	0003a283          	lw	t0,0(t2)
800001e2:	4305                	li	t1,1
800001e4:	0062e2b3          	or	t0,t0,t1
800001e8:	0053a023          	sw	t0,0(t2)
800001ec:	0003a283          	lw	t0,0(t2)
800001f0:	02000313          	li	t1,32
800001f4:	0062e2b3          	or	t0,t0,t1
800001f8:	0053a023          	sw	t0,0(t2)
800001fc:	000012b7          	lui	t0,0x1
80000200:	a0028293          	addi	t0,t0,-1536 # a00 <_start-0x7ffff600>

80000204 <waitloop3>:
80000204:	12fd                	addi	t0,t0,-1
80000206:	fe029fe3          	bnez	t0,80000204 <waitloop3>
8000020a:	0003a283          	lw	t0,0(t2)
8000020e:	00040337          	lui	t1,0x40
80000212:	fff34313          	not	t1,t1
80000216:	0062f2b3          	and	t0,t0,t1
8000021a:	0053a023          	sw	t0,0(t2)
8000021e:	10000293          	li	t0,256

80000222 <waitloop4>:
80000222:	12fd                	addi	t0,t0,-1
80000224:	fe029fe3          	bnez	t0,80000222 <waitloop4>
80000228:	100083b7          	lui	t2,0x10008
8000022c:	00c38393          	addi	t2,t2,12 # 1000800c <_start-0x6fff7ff4>
80000230:	0003a283          	lw	t0,0(t2)
80000234:	10000313          	li	t1,256
80000238:	fff34313          	not	t1,t1
8000023c:	0062f2b3          	and	t0,t0,t1
80000240:	4309                	li	t1,2
80000242:	0062e2b3          	or	t0,t0,t1
80000246:	0053a023          	sw	t0,0(t2)
8000024a:	40000293          	li	t0,1024
8000024e:	6509                	lui	a0,0x2
80000250:	30052073          	csrs	mstatus,a0
80000254:	00305073          	csrwi	fcsr,0
80000258:	00000297          	auipc	t0,0x0
8000025c:	01428293          	addi	t0,t0,20 # 8000026c <test_2>
80000260:	34129073          	csrw	mepc,t0
80000264:	f1402573          	csrr	a0,mhartid
80000268:	30200073          	mret

8000026c <test_2>:
8000026c:	4189                	li	gp,2
8000026e:	00002517          	auipc	a0,0x2
80000272:	d9a50513          	addi	a0,a0,-614 # 80002008 <test_2_data>
80000276:	00052007          	flw	ft0,0(a0)
8000027a:	00452087          	flw	ft1,4(a0)
8000027e:	00852107          	flw	ft2,8(a0)
80000282:	4554                	lw	a3,12(a0)
80000284:	a0102553          	feq.s	a0,ft0,ft1
80000288:	001015f3          	fsflags	a1,zero
8000028c:	4601                	li	a2,0
8000028e:	24d51c63          	bne	a0,a3,800004e6 <fail>
80000292:	24c59a63          	bne	a1,a2,800004e6 <fail>

80000296 <test_3>:
80000296:	418d                	li	gp,3
80000298:	00002517          	auipc	a0,0x2
8000029c:	d8050513          	addi	a0,a0,-640 # 80002018 <test_3_data>
800002a0:	00052007          	flw	ft0,0(a0)
800002a4:	00452087          	flw	ft1,4(a0)
800002a8:	00852107          	flw	ft2,8(a0)
800002ac:	4554                	lw	a3,12(a0)
800002ae:	a0100553          	fle.s	a0,ft0,ft1
800002b2:	001015f3          	fsflags	a1,zero
800002b6:	4601                	li	a2,0
800002b8:	22d51763          	bne	a0,a3,800004e6 <fail>
800002bc:	22c59563          	bne	a1,a2,800004e6 <fail>

800002c0 <test_4>:
800002c0:	4191                	li	gp,4
800002c2:	00002517          	auipc	a0,0x2
800002c6:	d6650513          	addi	a0,a0,-666 # 80002028 <test_4_data>
800002ca:	00052007          	flw	ft0,0(a0)
800002ce:	00452087          	flw	ft1,4(a0)
800002d2:	00852107          	flw	ft2,8(a0)
800002d6:	4554                	lw	a3,12(a0)
800002d8:	a0101553          	flt.s	a0,ft0,ft1
800002dc:	001015f3          	fsflags	a1,zero
800002e0:	4601                	li	a2,0
800002e2:	20d51263          	bne	a0,a3,800004e6 <fail>
800002e6:	20c59063          	bne	a1,a2,800004e6 <fail>

800002ea <test_5>:
800002ea:	4195                	li	gp,5
800002ec:	00002517          	auipc	a0,0x2
800002f0:	d4c50513          	addi	a0,a0,-692 # 80002038 <test_5_data>
800002f4:	00052007          	flw	ft0,0(a0)
800002f8:	00452087          	flw	ft1,4(a0)
800002fc:	00852107          	flw	ft2,8(a0)
80000300:	4554                	lw	a3,12(a0)
80000302:	a0102553          	feq.s	a0,ft0,ft1
80000306:	001015f3          	fsflags	a1,zero
8000030a:	4601                	li	a2,0
8000030c:	1cd51d63          	bne	a0,a3,800004e6 <fail>
80000310:	1cc59b63          	bne	a1,a2,800004e6 <fail>

80000314 <test_6>:
80000314:	4199                	li	gp,6
80000316:	00002517          	auipc	a0,0x2
8000031a:	d3250513          	addi	a0,a0,-718 # 80002048 <test_6_data>
8000031e:	00052007          	flw	ft0,0(a0)
80000322:	00452087          	flw	ft1,4(a0)
80000326:	00852107          	flw	ft2,8(a0)
8000032a:	4554                	lw	a3,12(a0)
8000032c:	a0100553          	fle.s	a0,ft0,ft1
80000330:	001015f3          	fsflags	a1,zero
80000334:	4601                	li	a2,0
80000336:	1ad51863          	bne	a0,a3,800004e6 <fail>
8000033a:	1ac59663          	bne	a1,a2,800004e6 <fail>

8000033e <test_7>:
8000033e:	419d                	li	gp,7
80000340:	00002517          	auipc	a0,0x2
80000344:	d1850513          	addi	a0,a0,-744 # 80002058 <test_7_data>
80000348:	00052007          	flw	ft0,0(a0)
8000034c:	00452087          	flw	ft1,4(a0)
80000350:	00852107          	flw	ft2,8(a0)
80000354:	4554                	lw	a3,12(a0)
80000356:	a0101553          	flt.s	a0,ft0,ft1
8000035a:	001015f3          	fsflags	a1,zero
8000035e:	4601                	li	a2,0
80000360:	18d51363          	bne	a0,a3,800004e6 <fail>
80000364:	18c59163          	bne	a1,a2,800004e6 <fail>

80000368 <test_8>:
80000368:	41a1                	li	gp,8
8000036a:	00002517          	auipc	a0,0x2
8000036e:	cfe50513          	addi	a0,a0,-770 # 80002068 <test_8_data>
80000372:	00052007          	flw	ft0,0(a0)
80000376:	00452087          	flw	ft1,4(a0)
8000037a:	00852107          	flw	ft2,8(a0)
8000037e:	4554                	lw	a3,12(a0)
80000380:	a0102553          	feq.s	a0,ft0,ft1
80000384:	001015f3          	fsflags	a1,zero
80000388:	4601                	li	a2,0
8000038a:	14d51e63          	bne	a0,a3,800004e6 <fail>
8000038e:	14c59c63          	bne	a1,a2,800004e6 <fail>

80000392 <test_9>:
80000392:	41a5                	li	gp,9
80000394:	00002517          	auipc	a0,0x2
80000398:	ce450513          	addi	a0,a0,-796 # 80002078 <test_9_data>
8000039c:	00052007          	flw	ft0,0(a0)
800003a0:	00452087          	flw	ft1,4(a0)
800003a4:	00852107          	flw	ft2,8(a0)
800003a8:	4554                	lw	a3,12(a0)
800003aa:	a0102553          	feq.s	a0,ft0,ft1
800003ae:	001015f3          	fsflags	a1,zero
800003b2:	4601                	li	a2,0
800003b4:	12d51963          	bne	a0,a3,800004e6 <fail>
800003b8:	12c59763          	bne	a1,a2,800004e6 <fail>

800003bc <test_10>:
800003bc:	41a9                	li	gp,10
800003be:	00002517          	auipc	a0,0x2
800003c2:	cca50513          	addi	a0,a0,-822 # 80002088 <test_10_data>
800003c6:	00052007          	flw	ft0,0(a0)
800003ca:	00452087          	flw	ft1,4(a0)
800003ce:	00852107          	flw	ft2,8(a0)
800003d2:	4554                	lw	a3,12(a0)
800003d4:	a0102553          	feq.s	a0,ft0,ft1
800003d8:	001015f3          	fsflags	a1,zero
800003dc:	4641                	li	a2,16
800003de:	10d51463          	bne	a0,a3,800004e6 <fail>
800003e2:	10c59263          	bne	a1,a2,800004e6 <fail>

800003e6 <test_11>:
800003e6:	41ad                	li	gp,11
800003e8:	00002517          	auipc	a0,0x2
800003ec:	cb050513          	addi	a0,a0,-848 # 80002098 <test_11_data>
800003f0:	00052007          	flw	ft0,0(a0)
800003f4:	00452087          	flw	ft1,4(a0)
800003f8:	00852107          	flw	ft2,8(a0)
800003fc:	4554                	lw	a3,12(a0)
800003fe:	a0101553          	flt.s	a0,ft0,ft1
80000402:	001015f3          	fsflags	a1,zero
80000406:	4641                	li	a2,16
80000408:	0cd51f63          	bne	a0,a3,800004e6 <fail>
8000040c:	0cc59d63          	bne	a1,a2,800004e6 <fail>

80000410 <test_12>:
80000410:	41b1                	li	gp,12
80000412:	00002517          	auipc	a0,0x2
80000416:	c9650513          	addi	a0,a0,-874 # 800020a8 <test_12_data>
8000041a:	00052007          	flw	ft0,0(a0)
8000041e:	00452087          	flw	ft1,4(a0)
80000422:	00852107          	flw	ft2,8(a0)
80000426:	4554                	lw	a3,12(a0)
80000428:	a0101553          	flt.s	a0,ft0,ft1
8000042c:	001015f3          	fsflags	a1,zero
80000430:	4641                	li	a2,16
80000432:	0ad51a63          	bne	a0,a3,800004e6 <fail>
80000436:	0ac59863          	bne	a1,a2,800004e6 <fail>

8000043a <test_13>:
8000043a:	41b5                	li	gp,13
8000043c:	00002517          	auipc	a0,0x2
80000440:	c7c50513          	addi	a0,a0,-900 # 800020b8 <test_13_data>
80000444:	00052007          	flw	ft0,0(a0)
80000448:	00452087          	flw	ft1,4(a0)
8000044c:	00852107          	flw	ft2,8(a0)
80000450:	4554                	lw	a3,12(a0)
80000452:	a0101553          	flt.s	a0,ft0,ft1
80000456:	001015f3          	fsflags	a1,zero
8000045a:	4641                	li	a2,16
8000045c:	08d51563          	bne	a0,a3,800004e6 <fail>
80000460:	08c59363          	bne	a1,a2,800004e6 <fail>

80000464 <test_14>:
80000464:	41b9                	li	gp,14
80000466:	00002517          	auipc	a0,0x2
8000046a:	c6250513          	addi	a0,a0,-926 # 800020c8 <test_14_data>
8000046e:	00052007          	flw	ft0,0(a0)
80000472:	00452087          	flw	ft1,4(a0)
80000476:	00852107          	flw	ft2,8(a0)
8000047a:	4554                	lw	a3,12(a0)
8000047c:	a0100553          	fle.s	a0,ft0,ft1
80000480:	001015f3          	fsflags	a1,zero
80000484:	4641                	li	a2,16
80000486:	06d51063          	bne	a0,a3,800004e6 <fail>
8000048a:	04c59e63          	bne	a1,a2,800004e6 <fail>

8000048e <test_15>:
8000048e:	41bd                	li	gp,15
80000490:	00002517          	auipc	a0,0x2
80000494:	c4850513          	addi	a0,a0,-952 # 800020d8 <test_15_data>
80000498:	00052007          	flw	ft0,0(a0)
8000049c:	00452087          	flw	ft1,4(a0)
800004a0:	00852107          	flw	ft2,8(a0)
800004a4:	4554                	lw	a3,12(a0)
800004a6:	a0100553          	fle.s	a0,ft0,ft1
800004aa:	001015f3          	fsflags	a1,zero
800004ae:	4641                	li	a2,16
800004b0:	02d51b63          	bne	a0,a3,800004e6 <fail>
800004b4:	02c59963          	bne	a1,a2,800004e6 <fail>

800004b8 <test_16>:
800004b8:	41c1                	li	gp,16
800004ba:	00002517          	auipc	a0,0x2
800004be:	c2e50513          	addi	a0,a0,-978 # 800020e8 <test_16_data>
800004c2:	00052007          	flw	ft0,0(a0)
800004c6:	00452087          	flw	ft1,4(a0)
800004ca:	00852107          	flw	ft2,8(a0)
800004ce:	4554                	lw	a3,12(a0)
800004d0:	a0100553          	fle.s	a0,ft0,ft1
800004d4:	001015f3          	fsflags	a1,zero
800004d8:	4641                	li	a2,16
800004da:	00d51663          	bne	a0,a3,800004e6 <fail>
800004de:	00c59463          	bne	a1,a2,800004e6 <fail>
800004e2:	00301b63          	bne	zero,gp,800004f8 <pass>

800004e6 <fail>:
800004e6:	0ff0000f          	fence
800004ea:	00018063          	beqz	gp,800004ea <fail+0x4>
800004ee:	0186                	slli	gp,gp,0x1
800004f0:	0011e193          	ori	gp,gp,1
800004f4:	00000073          	ecall

800004f8 <pass>:
800004f8:	0ff0000f          	fence
800004fc:	4185                	li	gp,1
800004fe:	00000073          	ecall
	...

Disassembly of section .tohost:

80001000 <tohost>:
	...

80001040 <fromhost>:
	...

Disassembly of section .data:

80002000 <test_trap_data>:
	...

80002008 <test_2_data>:
80002008:	bfae147b          	0xbfae147b
8000200c:	bfae147b          	0xbfae147b
80002010:	0000                	unimp
80002012:	0000                	unimp
80002014:	0001                	nop
	...

80002018 <test_3_data>:
80002018:	bfae147b          	0xbfae147b
8000201c:	bfae147b          	0xbfae147b
80002020:	0000                	unimp
80002022:	0000                	unimp
80002024:	0001                	nop
	...

80002028 <test_4_data>:
80002028:	bfae147b          	0xbfae147b
8000202c:	bfae147b          	0xbfae147b
	...

80002038 <test_5_data>:
80002038:	5c29                	li	s8,-22
8000203a:	147bbfaf          	0x147bbfaf
8000203e:	bfae                	fsd	fa1,504(sp)
	...

80002048 <test_6_data>:
80002048:	5c29                	li	s8,-22
8000204a:	147bbfaf          	0x147bbfaf
8000204e:	bfae                	fsd	fa1,504(sp)
80002050:	0000                	unimp
80002052:	0000                	unimp
80002054:	0001                	nop
	...

80002058 <test_7_data>:
80002058:	5c29                	li	s8,-22
8000205a:	147bbfaf          	0x147bbfaf
8000205e:	bfae                	fsd	fa1,504(sp)
80002060:	0000                	unimp
80002062:	0000                	unimp
80002064:	0001                	nop
	...

80002068 <test_8_data>:
80002068:	ffff                	0xffff
8000206a:	7fff                	0x7fff
	...

80002078 <test_9_data>:
80002078:	ffff                	0xffff
8000207a:	7fff                	0x7fff
8000207c:	ffff                	0xffff
8000207e:	7fff                	0x7fff
	...

80002088 <test_10_data>:
80002088:	0001                	nop
8000208a:	7f80                	flw	fs0,56(a5)
	...

80002098 <test_11_data>:
80002098:	ffff                	0xffff
8000209a:	7fff                	0x7fff
	...

800020a8 <test_12_data>:
800020a8:	ffff                	0xffff
800020aa:	7fff                	0x7fff
800020ac:	ffff                	0xffff
800020ae:	7fff                	0x7fff
	...

800020b8 <test_13_data>:
800020b8:	0001                	nop
800020ba:	7f80                	flw	fs0,56(a5)
	...

800020c8 <test_14_data>:
800020c8:	ffff                	0xffff
800020ca:	7fff                	0x7fff
	...

800020d8 <test_15_data>:
800020d8:	ffff                	0xffff
800020da:	7fff                	0x7fff
800020dc:	ffff                	0xffff
800020de:	7fff                	0x7fff
	...

800020e8 <test_16_data>:
800020e8:	0001                	nop
800020ea:	7f80                	flw	fs0,56(a5)
	...
