
rv32mi-p-csr:     file format elf32-littleriscv


Disassembly of section .text.init:

80000000 <_start>:
80000000:	aa0d                	j	80000132 <reset_vector>
80000002:	0001                	nop

80000004 <trap_vector>:
80000004:	34051073          	csrw	mscratch,a0
80000008:	00002517          	auipc	a0,0x2
8000000c:	ff850513          	addi	a0,a0,-8 # 80002000 <test_trap_data>
80000010:	01e52023          	sw	t5,0(a0)
80000014:	01f52223          	sw	t6,4(a0)
80000018:	34202f73          	csrr	t5,mcause
8000001c:	040f4163          	bltz	t5,8000005e <other_interrupts>
80000020:	4fa1                	li	t6,8
80000022:	07ff0263          	beq	t5,t6,80000086 <write_tohost>
80000026:	4fa5                	li	t6,9
80000028:	05ff0f63          	beq	t5,t6,80000086 <write_tohost>
8000002c:	4fad                	li	t6,11
8000002e:	05ff0c63          	beq	t5,t6,80000086 <write_tohost>
80000032:	4f85                	li	t6,1
80000034:	0bff0563          	beq	t5,t6,800000de <ifetch_error_handler>
80000038:	4f95                	li	t6,5
8000003a:	0dff0063          	beq	t5,t6,800000fa <load_error_handler>
8000003e:	4f9d                	li	t6,7
80000040:	0dff0b63          	beq	t5,t6,80000116 <store_error_handler>
80000044:	00000f17          	auipc	t5,0x0
80000048:	360f0f13          	addi	t5,t5,864 # 800003a4 <mtvec_handler>
8000004c:	000f0363          	beqz	t5,80000052 <trap_vector+0x4e>
80000050:	8f02                	jr	t5
80000052:	34202f73          	csrr	t5,mcause
80000056:	000f5363          	bgez	t5,8000005c <handle_exception>
8000005a:	a009                	j	8000005c <handle_exception>

8000005c <handle_exception>:
8000005c:	a01d                	j	80000082 <other_interrupts+0x24>

8000005e <other_interrupts>:
8000005e:	80000fb7          	lui	t6,0x80000
80000062:	003f8f93          	addi	t6,t6,3 # 80000003 <_end+0xffffdfe3>
80000066:	05ff0463          	beq	t5,t6,800000ae <sft_irq_handler>
8000006a:	80000fb7          	lui	t6,0x80000
8000006e:	007f8f93          	addi	t6,t6,7 # 80000007 <_end+0xffffdfe7>
80000072:	05ff0a63          	beq	t5,t6,800000c6 <tmr_irq_handler>
80000076:	80000fb7          	lui	t6,0x80000
8000007a:	00bf8f93          	addi	t6,t6,11 # 8000000b <_end+0xffffdfeb>
8000007e:	01ff0c63          	beq	t5,t6,80000096 <ext_irq_handler>
80000082:	5391e193          	ori	gp,gp,1337

80000086 <write_tohost>:
80000086:	4521                	li	a0,8
80000088:	30052073          	csrs	mstatus,a0
8000008c:	00001f17          	auipc	t5,0x1
80000090:	f63f2a23          	sw	gp,-140(t5) # 80001000 <tohost>
80000094:	bfcd                	j	80000086 <write_tohost>

80000096 <ext_irq_handler>:
80000096:	00002517          	auipc	a0,0x2
8000009a:	f6a50513          	addi	a0,a0,-150 # 80002000 <test_trap_data>
8000009e:	00052f03          	lw	t5,0(a0)
800000a2:	00452f83          	lw	t6,4(a0)
800000a6:	34002573          	csrr	a0,mscratch
800000aa:	30200073          	mret

800000ae <sft_irq_handler>:
800000ae:	00002517          	auipc	a0,0x2
800000b2:	f5250513          	addi	a0,a0,-174 # 80002000 <test_trap_data>
800000b6:	00052f03          	lw	t5,0(a0)
800000ba:	00452f83          	lw	t6,4(a0)
800000be:	34002573          	csrr	a0,mscratch
800000c2:	30200073          	mret

800000c6 <tmr_irq_handler>:
800000c6:	00002517          	auipc	a0,0x2
800000ca:	f3a50513          	addi	a0,a0,-198 # 80002000 <test_trap_data>
800000ce:	00052f03          	lw	t5,0(a0)
800000d2:	00452f83          	lw	t6,4(a0)
800000d6:	34002573          	csrr	a0,mscratch
800000da:	30200073          	mret

800000de <ifetch_error_handler>:
800000de:	00002517          	auipc	a0,0x2
800000e2:	f2250513          	addi	a0,a0,-222 # 80002000 <test_trap_data>
800000e6:	00052f03          	lw	t5,0(a0)
800000ea:	00452f83          	lw	t6,4(a0)
800000ee:	34302573          	csrr	a0,mbadaddr
800000f2:	34002573          	csrr	a0,mscratch
800000f6:	30200073          	mret

800000fa <load_error_handler>:
800000fa:	00002517          	auipc	a0,0x2
800000fe:	f0650513          	addi	a0,a0,-250 # 80002000 <test_trap_data>
80000102:	00052f03          	lw	t5,0(a0)
80000106:	00452f83          	lw	t6,4(a0)
8000010a:	34302573          	csrr	a0,mbadaddr
8000010e:	34002573          	csrr	a0,mscratch
80000112:	30200073          	mret

80000116 <store_error_handler>:
80000116:	00002517          	auipc	a0,0x2
8000011a:	eea50513          	addi	a0,a0,-278 # 80002000 <test_trap_data>
8000011e:	00052f03          	lw	t5,0(a0)
80000122:	00452f83          	lw	t6,4(a0)
80000126:	34302573          	csrr	a0,mbadaddr
8000012a:	34002573          	csrr	a0,mscratch
8000012e:	30200073          	mret

80000132 <reset_vector>:
80000132:	00000f13          	li	t5,0
80000136:	00000f93          	li	t6,0
8000013a:	f1402573          	csrr	a0,mhartid
8000013e:	e101                	bnez	a0,8000013e <reset_vector+0xc>
80000140:	4181                	li	gp,0
80000142:	00000297          	auipc	t0,0x0
80000146:	ec228293          	addi	t0,t0,-318 # 80000004 <trap_vector>
8000014a:	4521                	li	a0,8
8000014c:	30052073          	csrs	mstatus,a0
80000150:	fff00513          	li	a0,-1
80000154:	30452073          	csrs	mie,a0
80000158:	30529073          	csrw	mtvec,t0

8000015c <post_mtvec>:
8000015c:	80000297          	auipc	t0,0x80000
80000160:	ea428293          	addi	t0,t0,-348 # 0 <_start-0x80000000>
80000164:	00028e63          	beqz	t0,80000180 <post_mtvec+0x24>
80000168:	10529073          	csrw	stvec,t0
8000016c:	0000b2b7          	lui	t0,0xb
80000170:	10928293          	addi	t0,t0,265 # b109 <_start-0x7fff4ef7>
80000174:	30229073          	csrw	medeleg,t0
80000178:	30202373          	csrr	t1,medeleg
8000017c:	ee6290e3          	bne	t0,t1,8000005c <handle_exception>
80000180:	30005073          	csrwi	mstatus,0
80000184:	08000513          	li	a0,128
80000188:	30052073          	csrs	mstatus,a0
8000018c:	4501                	li	a0,0
8000018e:	bfc51073          	csrw	0xbfc,a0
80000192:	0000100f          	fence.i
80000196:	000012b7          	lui	t0,0x1
8000019a:	a0028293          	addi	t0,t0,-1536 # a00 <_start-0x7ffff600>

8000019e <waitloop1>:
8000019e:	12fd                	addi	t0,t0,-1
800001a0:	fe029fe3          	bnez	t0,8000019e <waitloop1>
800001a4:	100083b7          	lui	t2,0x10008
800001a8:	00838393          	addi	t2,t2,8 # 10008008 <_start-0x6fff7ff8>
800001ac:	0003a283          	lw	t0,0(t2)
800001b0:	00040337          	lui	t1,0x40
800001b4:	fff34313          	not	t1,t1
800001b8:	0062f2b3          	and	t0,t0,t1
800001bc:	0053a023          	sw	t0,0(t2)
800001c0:	40000293          	li	t0,1024

800001c4 <waitloop2>:
800001c4:	12fd                	addi	t0,t0,-1
800001c6:	0003ae03          	lw	t3,0(t2)
800001ca:	fe029de3          	bnez	t0,800001c4 <waitloop2>
800001ce:	0003a283          	lw	t0,0(t2)
800001d2:	00040337          	lui	t1,0x40
800001d6:	0062e2b3          	or	t0,t0,t1
800001da:	0053a023          	sw	t0,0(t2)
800001de:	0003a283          	lw	t0,0(t2)
800001e2:	4305                	li	t1,1
800001e4:	0062e2b3          	or	t0,t0,t1
800001e8:	0053a023          	sw	t0,0(t2)
800001ec:	0003a283          	lw	t0,0(t2)
800001f0:	02000313          	li	t1,32
800001f4:	0062e2b3          	or	t0,t0,t1
800001f8:	0053a023          	sw	t0,0(t2)
800001fc:	000012b7          	lui	t0,0x1
80000200:	a0028293          	addi	t0,t0,-1536 # a00 <_start-0x7ffff600>

80000204 <waitloop3>:
80000204:	12fd                	addi	t0,t0,-1
80000206:	fe029fe3          	bnez	t0,80000204 <waitloop3>
8000020a:	0003a283          	lw	t0,0(t2)
8000020e:	00040337          	lui	t1,0x40
80000212:	fff34313          	not	t1,t1
80000216:	0062f2b3          	and	t0,t0,t1
8000021a:	0053a023          	sw	t0,0(t2)
8000021e:	10000293          	li	t0,256

80000222 <waitloop4>:
80000222:	12fd                	addi	t0,t0,-1
80000224:	fe029fe3          	bnez	t0,80000222 <waitloop4>
80000228:	100083b7          	lui	t2,0x10008
8000022c:	00c38393          	addi	t2,t2,12 # 1000800c <_start-0x6fff7ff4>
80000230:	0003a283          	lw	t0,0(t2)
80000234:	10000313          	li	t1,256
80000238:	fff34313          	not	t1,t1
8000023c:	0062f2b3          	and	t0,t0,t1
80000240:	4309                	li	t1,2
80000242:	0062e2b3          	or	t0,t0,t1
80000246:	0053a023          	sw	t0,0(t2)
8000024a:	40000293          	li	t0,1024
8000024e:	00002537          	lui	a0,0x2
80000252:	80050513          	addi	a0,a0,-2048 # 1800 <_start-0x7fffe800>
80000256:	30052073          	csrs	mstatus,a0
8000025a:	00000297          	auipc	t0,0x0
8000025e:	01428293          	addi	t0,t0,20 # 8000026e <waitloop4+0x4c>
80000262:	34129073          	csrw	mepc,t0
80000266:	f1402573          	csrr	a0,mhartid
8000026a:	30200073          	mret
8000026e:	30005073          	csrwi	mstatus,0
80000272:	3401d073          	csrwi	mscratch,3

80000276 <test_2>:
80000276:	34002573          	csrr	a0,mscratch
8000027a:	4e8d                	li	t4,3
8000027c:	4189                	li	gp,2
8000027e:	11d51563          	bne	a0,t4,80000388 <fail>

80000282 <test_3>:
80000282:	3400f5f3          	csrrci	a1,mscratch,1
80000286:	4e8d                	li	t4,3
80000288:	418d                	li	gp,3
8000028a:	0fd59f63          	bne	a1,t4,80000388 <fail>

8000028e <test_4>:
8000028e:	34026673          	csrrsi	a2,mscratch,4
80000292:	4e89                	li	t4,2
80000294:	4191                	li	gp,4
80000296:	0fd61963          	bne	a2,t4,80000388 <fail>

8000029a <test_5>:
8000029a:	340156f3          	csrrwi	a3,mscratch,2
8000029e:	4e99                	li	t4,6
800002a0:	4195                	li	gp,5
800002a2:	0fd69363          	bne	a3,t4,80000388 <fail>

800002a6 <test_6>:
800002a6:	0bad2537          	lui	a0,0xbad2
800002aa:	dea50513          	addi	a0,a0,-534 # bad1dea <_start-0x7452e216>
800002ae:	340515f3          	csrrw	a1,mscratch,a0
800002b2:	4e89                	li	t4,2
800002b4:	4199                	li	gp,6
800002b6:	0dd59963          	bne	a1,t4,80000388 <fail>

800002ba <test_7>:
800002ba:	00002537          	lui	a0,0x2
800002be:	dea50513          	addi	a0,a0,-534 # 1dea <_start-0x7fffe216>
800002c2:	34053573          	csrrc	a0,mscratch,a0
800002c6:	0bad2eb7          	lui	t4,0xbad2
800002ca:	deae8e93          	addi	t4,t4,-534 # bad1dea <_start-0x7452e216>
800002ce:	419d                	li	gp,7
800002d0:	0bd51c63          	bne	a0,t4,80000388 <fail>

800002d4 <test_8>:
800002d4:	0000c537          	lui	a0,0xc
800002d8:	eef50513          	addi	a0,a0,-273 # beef <_start-0x7fff4111>
800002dc:	34052573          	csrrs	a0,mscratch,a0
800002e0:	0bad0eb7          	lui	t4,0xbad0
800002e4:	41a1                	li	gp,8
800002e6:	0bd51163          	bne	a0,t4,80000388 <fail>

800002ea <test_9>:
800002ea:	34002573          	csrr	a0,mscratch
800002ee:	0badceb7          	lui	t4,0xbadc
800002f2:	eefe8e93          	addi	t4,t4,-273 # badbeef <_start-0x74524111>
800002f6:	41a5                	li	gp,9
800002f8:	09d51863          	bne	a0,t4,80000388 <fail>
800002fc:	4521                	li	a0,8
800002fe:	30052073          	csrs	mstatus,a0
80000302:	30102573          	csrr	a0,misa
80000306:	02057513          	andi	a0,a0,32
8000030a:	c11d                	beqz	a0,80000330 <test_10+0xe>
8000030c:	6599                	lui	a1,0x6
8000030e:	3005a073          	csrs	mstatus,a1
80000312:	f0000053          	fmv.w.x	ft0,zero
80000316:	3005b073          	csrc	mstatus,a1
8000031a:	00002597          	auipc	a1,0x2
8000031e:	cf658593          	addi	a1,a1,-778 # 80002010 <begin_signature>

80000322 <test_10>:
80000322:	0005a027          	fsw	ft0,0(a1)
80000326:	4188                	lw	a0,0(a1)
80000328:	4e85                	li	t4,1
8000032a:	41a9                	li	gp,10
8000032c:	05d51e63          	bne	a0,t4,80000388 <fail>
80000330:	30102573          	csrr	a0,misa
80000334:	8151                	srli	a0,a0,0x14
80000336:	8905                	andi	a0,a0,1
80000338:	c129                	beqz	a0,8000037a <finish>
8000033a:	000022b7          	lui	t0,0x2
8000033e:	80028293          	addi	t0,t0,-2048 # 1800 <_start-0x7fffe800>
80000342:	3002b073          	csrc	mstatus,t0
80000346:	00000297          	auipc	t0,0x0
8000034a:	01028293          	addi	t0,t0,16 # 80000356 <test_11>
8000034e:	34129073          	csrw	mepc,t0
80000352:	30200073          	mret

80000356 <test_11>:
80000356:	0ff00513          	li	a0,255
8000035a:	c0001573          	csrrw	a0,cycle,zero
8000035e:	0ff00e93          	li	t4,255
80000362:	41ad                	li	gp,11
80000364:	03d51263          	bne	a0,t4,80000388 <fail>

80000368 <test_12>:
80000368:	0ff00513          	li	a0,255
8000036c:	30002573          	csrr	a0,mstatus
80000370:	0ff00e93          	li	t4,255
80000374:	41b1                	li	gp,12
80000376:	01d51963          	bne	a0,t4,80000388 <fail>

8000037a <finish>:
8000037a:	0ff0000f          	fence
8000037e:	4185                	li	gp,1
80000380:	00000073          	ecall
80000384:	00301b63          	bne	zero,gp,8000039a <pass>

80000388 <fail>:
80000388:	0ff0000f          	fence
8000038c:	00018063          	beqz	gp,8000038c <fail+0x4>
80000390:	0186                	slli	gp,gp,0x1
80000392:	0011e193          	ori	gp,gp,1
80000396:	00000073          	ecall

8000039a <pass>:
8000039a:	0ff0000f          	fence
8000039e:	4185                	li	gp,1
800003a0:	00000073          	ecall

800003a4 <mtvec_handler>:
800003a4:	42a5                	li	t0,9
800003a6:	0051e563          	bltu	gp,t0,800003b0 <mtvec_handler+0xc>
800003aa:	42ad                	li	t0,11
800003ac:	0032fc63          	bleu	gp,t0,800003c4 <privileged>
800003b0:	342022f3          	csrr	t0,mcause
800003b4:	4321                	li	t1,8
800003b6:	fc6299e3          	bne	t0,t1,80000388 <fail>
800003ba:	0ff0000f          	fence
800003be:	4185                	li	gp,1
800003c0:	00000073          	ecall

800003c4 <privileged>:
800003c4:	342022f3          	csrr	t0,mcause
800003c8:	4309                	li	t1,2
800003ca:	fa629fe3          	bne	t0,t1,80000388 <fail>
800003ce:	341022f3          	csrr	t0,mepc
800003d2:	0291                	addi	t0,t0,4
800003d4:	34129073          	csrw	mepc,t0
800003d8:	30200073          	mret
	...

Disassembly of section .tohost:

80001000 <tohost>:
	...

80001040 <fromhost>:
	...

Disassembly of section .data:

80002000 <test_trap_data>:
	...

80002010 <begin_signature>:
80002010:	0001                	nop
	...
