
software/coremark4sim/coremark4sim:     file format elf32-littleriscv


Disassembly of section .init:

80000000 <_start>:
80000000:	30047073          	csrci	mstatus,8
80000004:	10001197          	auipc	gp,0x10001
80000008:	58418193          	addi	gp,gp,1412 # 90001588 <__global_pointer$>
8000000c:	10010117          	auipc	sp,0x10010
80000010:	ff410113          	addi	sp,sp,-12 # 90010000 <_sp>
80000014:	00000517          	auipc	a0,0x0
80000018:	08c50513          	addi	a0,a0,140 # 800000a0 <_itcm>
8000001c:	00000597          	auipc	a1,0x0
80000020:	08458593          	addi	a1,a1,132 # 800000a0 <_itcm>
80000024:	02b50063          	beq	a0,a1,80000044 <_start+0x44>
80000028:	0000a617          	auipc	a2,0xa
8000002c:	d6460613          	addi	a2,a2,-668 # 80009d8c <_data_lma>
80000030:	00c5fa63          	bleu	a2,a1,80000044 <_start+0x44>
80000034:	00052283          	lw	t0,0(a0)
80000038:	0055a023          	sw	t0,0(a1)
8000003c:	0511                	addi	a0,a0,4
8000003e:	0591                	addi	a1,a1,4
80000040:	fec5eae3          	bltu	a1,a2,80000034 <_start+0x34>
80000044:	0000a517          	auipc	a0,0xa
80000048:	d4850513          	addi	a0,a0,-696 # 80009d8c <_data_lma>
8000004c:	10000597          	auipc	a1,0x10000
80000050:	fb458593          	addi	a1,a1,-76 # 90000000 <_data>
80000054:	81818613          	addi	a2,gp,-2024 # 90000da0 <seed1_volatile>
80000058:	00c5fa63          	bleu	a2,a1,8000006c <_start+0x6c>
8000005c:	00052283          	lw	t0,0(a0)
80000060:	0055a023          	sw	t0,0(a1)
80000064:	0511                	addi	a0,a0,4
80000066:	0591                	addi	a1,a1,4
80000068:	fec5eae3          	bltu	a1,a2,8000005c <_start+0x5c>
8000006c:	81818513          	addi	a0,gp,-2024 # 90000da0 <seed1_volatile>
80000070:	8d818593          	addi	a1,gp,-1832 # 90000e60 <_end>
80000074:	00b57763          	bleu	a1,a0,80000082 <_start+0x82>
80000078:	00052023          	sw	zero,0(a0)
8000007c:	0511                	addi	a0,a0,4
8000007e:	feb56de3          	bltu	a0,a1,80000078 <_start+0x78>
80000082:	00005517          	auipc	a0,0x5
80000086:	45e50513          	addi	a0,a0,1118 # 800054e0 <__libc_fini_array>
8000008a:	420050ef          	jal	ra,800054aa <atexit>
8000008e:	49e050ef          	jal	ra,8000552c <__libc_init_array>
80000092:	4501                	li	a0,0
80000094:	4581                	li	a1,0
80000096:	2029                	jal	800000a0 <_itcm>
80000098:	41e0506f          	j	800054b6 <exit>
8000009c:	a001                	j	8000009c <_start+0x9c>

Disassembly of section .ilalign:

8000009e <_itcm-0x2>:
	...

Disassembly of section .text:

800000a0 <main>:
800000a0:	81010113          	addi	sp,sp,-2032
800000a4:	7e112623          	sw	ra,2028(sp)
800000a8:	7e812423          	sw	s0,2024(sp)
800000ac:	7e912223          	sw	s1,2020(sp)
800000b0:	7f212023          	sw	s2,2016(sp)
800000b4:	7d312e23          	sw	s3,2012(sp)
800000b8:	7d412c23          	sw	s4,2008(sp)
800000bc:	7d512a23          	sw	s5,2004(sp)
800000c0:	7d612823          	sw	s6,2000(sp)
800000c4:	7d712623          	sw	s7,1996(sp)
800000c8:	7d812423          	sw	s8,1992(sp)
800000cc:	7d912223          	sw	s9,1988(sp)
800000d0:	4505                	li	a0,1
800000d2:	7159                	addi	sp,sp,-112
800000d4:	7bc030ef          	jal	ra,80003890 <get_seed_32>
800000d8:	6705                	lui	a4,0x1
800000da:	82070293          	addi	t0,a4,-2016 # 820 <__stack_size+0x20>
800000de:	0814                	addi	a3,sp,16
800000e0:	77fd                	lui	a5,0xfffff
800000e2:	00d28333          	add	t1,t0,a3
800000e6:	00f303b3          	add	t2,t1,a5
800000ea:	7ea39423          	sh	a0,2024(t2)
800000ee:	4509                	li	a0,2
800000f0:	c61e                	sw	t2,12(sp)
800000f2:	79e030ef          	jal	ra,80003890 <get_seed_32>
800000f6:	4432                	lw	s0,12(sp)
800000f8:	7ea41523          	sh	a0,2026(s0)
800000fc:	450d                	li	a0,3
800000fe:	792030ef          	jal	ra,80003890 <get_seed_32>
80000102:	44b2                	lw	s1,12(sp)
80000104:	7ea49623          	sh	a0,2028(s1)
80000108:	4511                	li	a0,4
8000010a:	786030ef          	jal	ra,80003890 <get_seed_32>
8000010e:	4589                	li	a1,2
80000110:	4515                	li	a0,5
80000112:	da2e                	sw	a1,52(sp)
80000114:	77c030ef          	jal	ra,80003890 <get_seed_32>
80000118:	64050763          	beqz	a0,80000766 <main+0x6c6>
8000011c:	dc2a                	sw	a0,56(sp)
8000011e:	6605                	lui	a2,0x1
80000120:	82060813          	addi	a6,a2,-2016 # 820 <__stack_size+0x20>
80000124:	01010893          	addi	a7,sp,16
80000128:	757d                	lui	a0,0xfffff
8000012a:	01180933          	add	s2,a6,a7
8000012e:	00a909b3          	add	s3,s2,a0
80000132:	7e89aa03          	lw	s4,2024(s3)
80000136:	c64e                	sw	s3,12(sp)
80000138:	620a1a63          	bnez	s4,8000076c <main+0x6cc>
8000013c:	4f32                	lw	t5,12(sp)
8000013e:	7ecf1f83          	lh	t6,2028(t5)
80000142:	660f8d63          	beqz	t6,800007bc <main+0x71c>
80000146:	52e2                	lw	t0,56(sp)
80000148:	6385                	lui	t2,0x1
8000014a:	82038413          	addi	s0,t2,-2016 # 820 <__stack_size+0x20>
8000014e:	0804                	addi	s1,sp,16
80000150:	737d                	lui	t1,0xfffff
80000152:	009405b3          	add	a1,s0,s1
80000156:	006580b3          	add	ra,a1,t1
8000015a:	0012f693          	andi	a3,t0,1
8000015e:	1088                	addi	a0,sp,96
80000160:	01069613          	slli	a2,a3,0x10
80000164:	c606                	sw	ra,12(sp)
80000166:	7ea0a823          	sw	a0,2032(ra)
8000016a:	04011c23          	sh	zero,88(sp)
8000016e:	0022f913          	andi	s2,t0,2
80000172:	01065813          	srli	a6,a2,0x10
80000176:	00090963          	beqz	s2,80000188 <main+0xe8>
8000017a:	00180893          	addi	a7,a6,1
8000017e:	01089993          	slli	s3,a7,0x10
80000182:	0109d813          	srli	a6,s3,0x10
80000186:	0001                	nop
80000188:	0042fa13          	andi	s4,t0,4
8000018c:	000a0863          	beqz	s4,8000019c <main+0xfc>
80000190:	00180a93          	addi	s5,a6,1
80000194:	010a9b13          	slli	s6,s5,0x10
80000198:	010b5813          	srli	a6,s6,0x10
8000019c:	7d000b93          	li	s7,2000
800001a0:	030bd533          	divu	a0,s7,a6
800001a4:	7c7d                	lui	s8,0xfffff
800001a6:	4581                	li	a1,0
800001a8:	d82a                	sw	a0,48(sp)
800001aa:	64069a63          	bnez	a3,800007fe <main+0x75e>
800001ae:	60091d63          	bnez	s2,800007c8 <main+0x728>
800001b2:	660a1763          	bnez	s4,80000820 <main+0x780>
800001b6:	54069763          	bnez	a3,80000704 <main+0x664>
800001ba:	56091b63          	bnez	s2,80000730 <main+0x690>
800001be:	0042fa93          	andi	s5,t0,4
800001c2:	020a8463          	beqz	s5,800001ea <main+0x14a>
800001c6:	6b05                	lui	s6,0x1
800001c8:	820b0b93          	addi	s7,s6,-2016 # 820 <__stack_size+0x20>
800001cc:	01010c13          	addi	s8,sp,16
800001d0:	7a7d                	lui	s4,0xfffff
800001d2:	018b8cb3          	add	s9,s7,s8
800001d6:	014c8e33          	add	t3,s9,s4
800001da:	7fce2603          	lw	a2,2044(t3)
800001de:	7e8e1583          	lh	a1,2024(t3)
800001e2:	5542                	lw	a0,48(sp)
800001e4:	c672                	sw	t3,12(sp)
800001e6:	55b020ef          	jal	ra,80002f40 <core_init_state>
800001ea:	5ed2                	lw	t4,52(sp)
800001ec:	1e0e9663          	bnez	t4,800003d8 <main+0x338>
800001f0:	90000f37          	lui	t5,0x90000
800001f4:	6785                	lui	a5,0x1
800001f6:	7ffd                	lui	t6,0xfffff
800001f8:	82078313          	addi	t1,a5,-2016 # 820 <__stack_size+0x20>
800001fc:	0818                	addi	a4,sp,16
800001fe:	010f2903          	lw	s2,16(t5) # 90000010 <_sp+0xffff0010>
80000202:	014f2983          	lw	s3,20(t5)
80000206:	4285                	li	t0,1
80000208:	7e8f8693          	addi	a3,t6,2024 # fffff7e8 <_sp+0x6ffef7e8>
8000020c:	00e30533          	add	a0,t1,a4
80000210:	da16                	sw	t0,52(sp)
80000212:	00d50433          	add	s0,a0,a3
80000216:	0001                	nop
80000218:	53d2                	lw	t2,52(sp)
8000021a:	00239593          	slli	a1,t2,0x2
8000021e:	007584b3          	add	s1,a1,t2
80000222:	00149093          	slli	ra,s1,0x1
80000226:	da06                	sw	ra,52(sp)
80000228:	034040ef          	jal	ra,8000425c <start_time>
8000022c:	5ad2                	lw	s5,52(sp)
8000022e:	c882                	sw	zero,80(sp)
80000230:	ca82                	sw	zero,84(sp)
80000232:	160a8663          	beqz	s5,8000039e <main+0x2fe>
80000236:	003af813          	andi	a6,s5,3
8000023a:	4c81                	li	s9,0
8000023c:	08080f63          	beqz	a6,800002da <main+0x23a>
80000240:	4885                	li	a7,1
80000242:	07180363          	beq	a6,a7,800002a8 <main+0x208>
80000246:	4609                	li	a2,2
80000248:	02c80963          	beq	a6,a2,8000027a <main+0x1da>
8000024c:	4585                	li	a1,1
8000024e:	8522                	mv	a0,s0
80000250:	774000ef          	jal	ra,800009c4 <core_bench_list>
80000254:	05015583          	lhu	a1,80(sp)
80000258:	4c85                	li	s9,1
8000025a:	68a030ef          	jal	ra,800038e4 <crcu16>
8000025e:	04a11823          	sh	a0,80(sp)
80000262:	55fd                	li	a1,-1
80000264:	8522                	mv	a0,s0
80000266:	75e000ef          	jal	ra,800009c4 <core_bench_list>
8000026a:	05015583          	lhu	a1,80(sp)
8000026e:	676030ef          	jal	ra,800038e4 <crcu16>
80000272:	04a11823          	sh	a0,80(sp)
80000276:	04a11923          	sh	a0,82(sp)
8000027a:	4585                	li	a1,1
8000027c:	8522                	mv	a0,s0
8000027e:	746000ef          	jal	ra,800009c4 <core_bench_list>
80000282:	05015583          	lhu	a1,80(sp)
80000286:	65e030ef          	jal	ra,800038e4 <crcu16>
8000028a:	04a11823          	sh	a0,80(sp)
8000028e:	55fd                	li	a1,-1
80000290:	8522                	mv	a0,s0
80000292:	732000ef          	jal	ra,800009c4 <core_bench_list>
80000296:	05015583          	lhu	a1,80(sp)
8000029a:	64a030ef          	jal	ra,800038e4 <crcu16>
8000029e:	04a11823          	sh	a0,80(sp)
800002a2:	6a0c8a63          	beqz	s9,80000956 <main+0x8b6>
800002a6:	0c85                	addi	s9,s9,1
800002a8:	4585                	li	a1,1
800002aa:	8522                	mv	a0,s0
800002ac:	718000ef          	jal	ra,800009c4 <core_bench_list>
800002b0:	05015583          	lhu	a1,80(sp)
800002b4:	630030ef          	jal	ra,800038e4 <crcu16>
800002b8:	04a11823          	sh	a0,80(sp)
800002bc:	55fd                	li	a1,-1
800002be:	8522                	mv	a0,s0
800002c0:	704000ef          	jal	ra,800009c4 <core_bench_list>
800002c4:	05015583          	lhu	a1,80(sp)
800002c8:	61c030ef          	jal	ra,800038e4 <crcu16>
800002cc:	04a11823          	sh	a0,80(sp)
800002d0:	680c8763          	beqz	s9,8000095e <main+0x8be>
800002d4:	0c85                	addi	s9,s9,1
800002d6:	0d9a8463          	beq	s5,s9,8000039e <main+0x2fe>
800002da:	4585                	li	a1,1
800002dc:	8522                	mv	a0,s0
800002de:	6e6000ef          	jal	ra,800009c4 <core_bench_list>
800002e2:	05015583          	lhu	a1,80(sp)
800002e6:	001c8a13          	addi	s4,s9,1
800002ea:	5fa030ef          	jal	ra,800038e4 <crcu16>
800002ee:	04a11823          	sh	a0,80(sp)
800002f2:	55fd                	li	a1,-1
800002f4:	8522                	mv	a0,s0
800002f6:	6ce000ef          	jal	ra,800009c4 <core_bench_list>
800002fa:	05015583          	lhu	a1,80(sp)
800002fe:	5e6030ef          	jal	ra,800038e4 <crcu16>
80000302:	8b2a                	mv	s6,a0
80000304:	05611823          	sh	s6,80(sp)
80000308:	4585                	li	a1,1
8000030a:	8522                	mv	a0,s0
8000030c:	620c8f63          	beqz	s9,8000094a <main+0x8aa>
80000310:	6b4000ef          	jal	ra,800009c4 <core_bench_list>
80000314:	05015583          	lhu	a1,80(sp)
80000318:	5cc030ef          	jal	ra,800038e4 <crcu16>
8000031c:	04a11823          	sh	a0,80(sp)
80000320:	55fd                	li	a1,-1
80000322:	8522                	mv	a0,s0
80000324:	6a0000ef          	jal	ra,800009c4 <core_bench_list>
80000328:	05015583          	lhu	a1,80(sp)
8000032c:	5b8030ef          	jal	ra,800038e4 <crcu16>
80000330:	04a11823          	sh	a0,80(sp)
80000334:	600a0e63          	beqz	s4,80000950 <main+0x8b0>
80000338:	4585                	li	a1,1
8000033a:	8522                	mv	a0,s0
8000033c:	688000ef          	jal	ra,800009c4 <core_bench_list>
80000340:	05015583          	lhu	a1,80(sp)
80000344:	001a0b93          	addi	s7,s4,1 # fffff001 <_sp+0x6ffef001>
80000348:	002a0c13          	addi	s8,s4,2
8000034c:	598030ef          	jal	ra,800038e4 <crcu16>
80000350:	04a11823          	sh	a0,80(sp)
80000354:	55fd                	li	a1,-1
80000356:	8522                	mv	a0,s0
80000358:	66c000ef          	jal	ra,800009c4 <core_bench_list>
8000035c:	05015583          	lhu	a1,80(sp)
80000360:	003a0c93          	addi	s9,s4,3
80000364:	580030ef          	jal	ra,800038e4 <crcu16>
80000368:	8e2a                	mv	t3,a0
8000036a:	05c11823          	sh	t3,80(sp)
8000036e:	4585                	li	a1,1
80000370:	8522                	mv	a0,s0
80000372:	5c0b8963          	beqz	s7,80000944 <main+0x8a4>
80000376:	25b9                	jal	800009c4 <core_bench_list>
80000378:	05015583          	lhu	a1,80(sp)
8000037c:	568030ef          	jal	ra,800038e4 <crcu16>
80000380:	04a11823          	sh	a0,80(sp)
80000384:	55fd                	li	a1,-1
80000386:	8522                	mv	a0,s0
80000388:	2d35                	jal	800009c4 <core_bench_list>
8000038a:	05015583          	lhu	a1,80(sp)
8000038e:	556030ef          	jal	ra,800038e4 <crcu16>
80000392:	04a11823          	sh	a0,80(sp)
80000396:	4c0c0063          	beqz	s8,80000856 <main+0x7b6>
8000039a:	f59a90e3          	bne	s5,s9,800002da <main+0x23a>
8000039e:	6d3030ef          	jal	ra,80004270 <stop_time>
800003a2:	6e3030ef          	jal	ra,80004284 <get_time>
800003a6:	70b030ef          	jal	ra,800042b0 <time_in_secs>
800003aa:	864a                	mv	a2,s2
800003ac:	86ce                	mv	a3,s3
800003ae:	84aa                	mv	s1,a0
800003b0:	8aae                	mv	s5,a1
800003b2:	13d040ef          	jal	ra,80004cee <__ledf2>
800003b6:	e60541e3          	bltz	a0,80000218 <main+0x178>
800003ba:	8526                	mv	a0,s1
800003bc:	85d6                	mv	a1,s5
800003be:	1eb040ef          	jal	ra,80004da8 <__fixunsdfsi>
800003c2:	3e050b63          	beqz	a0,800007b8 <main+0x718>
800003c6:	4ea9                	li	t4,10
800003c8:	02aedf33          	divu	t5,t4,a0
800003cc:	59d2                	lw	s3,52(sp)
800003ce:	001f0913          	addi	s2,t5,1
800003d2:	03390fb3          	mul	t6,s2,s3
800003d6:	da7e                	sw	t6,52(sp)
800003d8:	685030ef          	jal	ra,8000425c <start_time>
800003dc:	6a05                	lui	s4,0x1
800003de:	820a0693          	addi	a3,s4,-2016 # 820 <__stack_size+0x20>
800003e2:	081c                	addi	a5,sp,16
800003e4:	747d                	lui	s0,0xfffff
800003e6:	7e840293          	addi	t0,s0,2024 # fffff7e8 <_sp+0x6ffef7e8>
800003ea:	00f68333          	add	t1,a3,a5
800003ee:	00530533          	add	a0,t1,t0
800003f2:	2da010ef          	jal	ra,800016cc <iterate>
800003f6:	67b030ef          	jal	ra,80004270 <stop_time>
800003fa:	68b030ef          	jal	ra,80004284 <get_time>
800003fe:	0818                	addi	a4,sp,16
80000400:	84aa                	mv	s1,a0
80000402:	820a0513          	addi	a0,s4,-2016
80000406:	00e503b3          	add	t2,a0,a4
8000040a:	892e                	mv	s2,a1
8000040c:	008385b3          	add	a1,t2,s0
80000410:	7e859503          	lh	a0,2024(a1)
80000414:	c62e                	sw	a1,12(sp)
80000416:	4581                	li	a1,0
80000418:	3dd030ef          	jal	ra,80003ff4 <crc16>
8000041c:	4832                	lw	a6,12(sp)
8000041e:	85aa                	mv	a1,a0
80000420:	7ea81503          	lh	a0,2026(a6)
80000424:	3d1030ef          	jal	ra,80003ff4 <crc16>
80000428:	48b2                	lw	a7,12(sp)
8000042a:	85aa                	mv	a1,a0
8000042c:	7ec89503          	lh	a0,2028(a7)
80000430:	3c5030ef          	jal	ra,80003ff4 <crc16>
80000434:	85aa                	mv	a1,a0
80000436:	03011503          	lh	a0,48(sp)
8000043a:	3bb030ef          	jal	ra,80003ff4 <crc16>
8000043e:	6621                	lui	a2,0x8
80000440:	b0560b13          	addi	s6,a2,-1275 # 7b05 <__stack_size+0x7305>
80000444:	8c2a                	mv	s8,a0
80000446:	4d650f63          	beq	a0,s6,80000924 <main+0x884>
8000044a:	34ab6563          	bltu	s6,a0,80000794 <main+0x6f4>
8000044e:	6089                	lui	ra,0x2
80000450:	8f208b93          	addi	s7,ra,-1806 # 18f2 <__stack_size+0x10f2>
80000454:	4f750063          	beq	a0,s7,80000934 <main+0x894>
80000458:	6c95                	lui	s9,0x5
8000045a:	eafc8e13          	addi	t3,s9,-337 # 4eaf <__stack_size+0x46af>
8000045e:	3fc51763          	bne	a0,t3,8000084c <main+0x7ac>
80000462:	90000ab7          	lui	s5,0x90000
80000466:	070a8513          	addi	a0,s5,112 # 90000070 <_sp+0xffff0070>
8000046a:	4a7050ef          	jal	ra,80006110 <puts>
8000046e:	4989                	li	s3,2
80000470:	5562                	lw	a0,56(sp)
80000472:	04011c23          	sh	zero,88(sp)
80000476:	00157713          	andi	a4,a0,1
8000047a:	cf0d                	beqz	a4,800004b4 <main+0x414>
8000047c:	900005b7          	lui	a1,0x90000
80000480:	00199393          	slli	t2,s3,0x1
80000484:	00058813          	mv	a6,a1
80000488:	007808b3          	add	a7,a6,t2
8000048c:	05215603          	lhu	a2,82(sp)
80000490:	0008d683          	lhu	a3,0(a7)
80000494:	02d60063          	beq	a2,a3,800004b4 <main+0x414>
80000498:	900000b7          	lui	ra,0x90000
8000049c:	4581                	li	a1,0
8000049e:	0f808513          	addi	a0,ra,248 # 900000f8 <_sp+0xffff00f8>
800004a2:	323050ef          	jal	ra,80005fc4 <iprintf>
800004a6:	05815603          	lhu	a2,88(sp)
800004aa:	5562                	lw	a0,56(sp)
800004ac:	00160b93          	addi	s7,a2,1
800004b0:	05711c23          	sh	s7,88(sp)
800004b4:	00257c93          	andi	s9,a0,2
800004b8:	020c8e63          	beqz	s9,800004f4 <main+0x454>
800004bc:	90000ab7          	lui	s5,0x90000
800004c0:	00199e13          	slli	t3,s3,0x1
800004c4:	528a8e93          	addi	t4,s5,1320 # 90000528 <_sp+0xffff0528>
800004c8:	01ce8f33          	add	t5,t4,t3
800004cc:	05415603          	lhu	a2,84(sp)
800004d0:	000f5683          	lhu	a3,0(t5)
800004d4:	02d60063          	beq	a2,a3,800004f4 <main+0x454>
800004d8:	90000fb7          	lui	t6,0x90000
800004dc:	4581                	li	a1,0
800004de:	128f8513          	addi	a0,t6,296 # 90000128 <_sp+0xffff0128>
800004e2:	2e3050ef          	jal	ra,80005fc4 <iprintf>
800004e6:	05815403          	lhu	s0,88(sp)
800004ea:	5562                	lw	a0,56(sp)
800004ec:	00140293          	addi	t0,s0,1
800004f0:	04511c23          	sh	t0,88(sp)
800004f4:	00457a13          	andi	s4,a0,4
800004f8:	020a0d63          	beqz	s4,80000532 <main+0x492>
800004fc:	900006b7          	lui	a3,0x90000
80000500:	53468793          	addi	a5,a3,1332 # 90000534 <_sp+0xffff0534>
80000504:	00199b13          	slli	s6,s3,0x1
80000508:	01678333          	add	t1,a5,s6
8000050c:	05615603          	lhu	a2,86(sp)
80000510:	00035683          	lhu	a3,0(t1) # fffff000 <_sp+0x6ffef000>
80000514:	00d60f63          	beq	a2,a3,80000532 <main+0x492>
80000518:	90000537          	lui	a0,0x90000
8000051c:	4581                	li	a1,0
8000051e:	15c50513          	addi	a0,a0,348 # 9000015c <_sp+0xffff015c>
80000522:	2a3050ef          	jal	ra,80005fc4 <iprintf>
80000526:	05815703          	lhu	a4,88(sp)
8000052a:	00170393          	addi	t2,a4,1
8000052e:	04711c23          	sh	t2,88(sp)
80000532:	05815b03          	lhu	s6,88(sp)
80000536:	51f030ef          	jal	ra,80004254 <check_data_types>
8000053a:	55c2                	lw	a1,48(sp)
8000053c:	00ab0833          	add	a6,s6,a0
80000540:	900008b7          	lui	a7,0x90000
80000544:	01081613          	slli	a2,a6,0x10
80000548:	18c88513          	addi	a0,a7,396 # 9000018c <_sp+0xffff018c>
8000054c:	41065c93          	srai	s9,a2,0x10
80000550:	90000bb7          	lui	s7,0x90000
80000554:	271050ef          	jal	ra,80005fc4 <iprintf>
80000558:	85a6                	mv	a1,s1
8000055a:	1a4b8513          	addi	a0,s7,420 # 900001a4 <_sp+0xffff01a4>
8000055e:	267050ef          	jal	ra,80005fc4 <iprintf>
80000562:	8526                	mv	a0,s1
80000564:	85ca                	mv	a1,s2
80000566:	54b030ef          	jal	ra,800042b0 <time_in_secs>
8000056a:	86ae                	mv	a3,a1
8000056c:	900005b7          	lui	a1,0x90000
80000570:	862a                	mv	a2,a0
80000572:	1bc58513          	addi	a0,a1,444 # 900001bc <_sp+0xffff01bc>
80000576:	24f050ef          	jal	ra,80005fc4 <iprintf>
8000057a:	8526                	mv	a0,s1
8000057c:	85ca                	mv	a1,s2
8000057e:	533030ef          	jal	ra,800042b0 <time_in_secs>
80000582:	4601                	li	a2,0
80000584:	4681                	li	a3,0
80000586:	6b6040ef          	jal	ra,80004c3c <__gedf2>
8000058a:	02a05963          	blez	a0,800005bc <main+0x51c>
8000058e:	5552                	lw	a0,52(sp)
80000590:	075040ef          	jal	ra,80004e04 <__floatunsidf>
80000594:	8aaa                	mv	s5,a0
80000596:	842e                	mv	s0,a1
80000598:	8526                	mv	a0,s1
8000059a:	85ca                	mv	a1,s2
8000059c:	515030ef          	jal	ra,800042b0 <time_in_secs>
800005a0:	862a                	mv	a2,a0
800005a2:	86ae                	mv	a3,a1
800005a4:	8556                	mv	a0,s5
800005a6:	85a2                	mv	a1,s0
800005a8:	08c040ef          	jal	ra,80004634 <__divdf3>
800005ac:	90000e37          	lui	t3,0x90000
800005b0:	862a                	mv	a2,a0
800005b2:	86ae                	mv	a3,a1
800005b4:	1d4e0513          	addi	a0,t3,468 # 900001d4 <_sp+0xffff01d4>
800005b8:	20d050ef          	jal	ra,80005fc4 <iprintf>
800005bc:	55d2                	lw	a1,52(sp)
800005be:	900000b7          	lui	ra,0x90000
800005c2:	4ac08513          	addi	a0,ra,1196 # 900004ac <_sp+0xffff04ac>
800005c6:	1ff050ef          	jal	ra,80005fc4 <iprintf>
800005ca:	90000eb7          	lui	t4,0x90000
800005ce:	90000a37          	lui	s4,0x90000
800005d2:	4c4e8513          	addi	a0,t4,1220 # 900004c4 <_sp+0xffff04c4>
800005d6:	314a0593          	addi	a1,s4,788 # 90000314 <_sp+0xffff0314>
800005da:	1eb050ef          	jal	ra,80005fc4 <iprintf>
800005de:	90000f37          	lui	t5,0x90000
800005e2:	90000b37          	lui	s6,0x90000
800005e6:	4dcf0513          	addi	a0,t5,1244 # 900004dc <_sp+0xffff04dc>
800005ea:	28cb0593          	addi	a1,s6,652 # 9000028c <_sp+0xffff028c>
800005ee:	1d7050ef          	jal	ra,80005fc4 <iprintf>
800005f2:	90000fb7          	lui	t6,0x90000
800005f6:	90000bb7          	lui	s7,0x90000
800005fa:	33cb8593          	addi	a1,s7,828 # 9000033c <_sp+0xffff033c>
800005fe:	4f4f8513          	addi	a0,t6,1268 # 900004f4 <_sp+0xffff04f4>
80000602:	1c3050ef          	jal	ra,80005fc4 <iprintf>
80000606:	85e2                	mv	a1,s8
80000608:	90000c37          	lui	s8,0x90000
8000060c:	50cc0513          	addi	a0,s8,1292 # 9000050c <_sp+0xffff050c>
80000610:	1b5050ef          	jal	ra,80005fc4 <iprintf>
80000614:	52e2                	lw	t0,56(sp)
80000616:	0012f693          	andi	a3,t0,1
8000061a:	2a069a63          	bnez	a3,800008ce <main+0x82e>
8000061e:	0022f793          	andi	a5,t0,2
80000622:	2c079463          	bnez	a5,800008ea <main+0x84a>
80000626:	0042f393          	andi	t2,t0,4
8000062a:	2c039b63          	bnez	t2,80000900 <main+0x860>
8000062e:	05015603          	lhu	a2,80(sp)
80000632:	900008b7          	lui	a7,0x90000
80000636:	4581                	li	a1,0
80000638:	22488513          	addi	a0,a7,548 # 90000224 <_sp+0xffff0224>
8000063c:	189050ef          	jal	ra,80005fc4 <iprintf>
80000640:	220c8063          	beqz	s9,80000860 <main+0x7c0>
80000644:	27905e63          	blez	s9,800008c0 <main+0x820>
80000648:	90000637          	lui	a2,0x90000
8000064c:	34c60513          	addi	a0,a2,844 # 9000034c <_sp+0xffff034c>
80000650:	2c1050ef          	jal	ra,80006110 <puts>
80000654:	50d2                	lw	ra,52(sp)
80000656:	000f4eb7          	lui	t4,0xf4
8000065a:	240e8b13          	addi	s6,t4,576 # f4240 <__stack_size+0xf3a40>
8000065e:	03608533          	mul	a0,ra,s6
80000662:	90000c37          	lui	s8,0x90000
80000666:	2fd040ef          	jal	ra,80005162 <__floatunsisf>
8000066a:	8baa                	mv	s7,a0
8000066c:	85ca                	mv	a1,s2
8000066e:	8526                	mv	a0,s1
80000670:	3bf040ef          	jal	ra,8000522e <__floatundisf>
80000674:	85aa                	mv	a1,a0
80000676:	855e                	mv	a0,s7
80000678:	007040ef          	jal	ra,80004e7e <__divsf3>
8000067c:	84aa                	mv	s1,a0
8000067e:	4529                	li	a0,10
80000680:	187050ef          	jal	ra,80006006 <putchar>
80000684:	4529                	li	a0,10
80000686:	181050ef          	jal	ra,80006006 <putchar>
8000068a:	90000937          	lui	s2,0x90000
8000068e:	3c090513          	addi	a0,s2,960 # 900003c0 <_sp+0xffff03c0>
80000692:	27f050ef          	jal	ra,80006110 <puts>
80000696:	4529                	li	a0,10
80000698:	16f050ef          	jal	ra,80006006 <putchar>
8000069c:	90000f37          	lui	t5,0x90000
800006a0:	3fcf0513          	addi	a0,t5,1020 # 900003fc <_sp+0xffff03fc>
800006a4:	26d050ef          	jal	ra,80006110 <puts>
800006a8:	90000fb7          	lui	t6,0x90000
800006ac:	424f8513          	addi	a0,t6,1060 # 90000424 <_sp+0xffff0424>
800006b0:	261050ef          	jal	ra,80006110 <puts>
800006b4:	8526                	mv	a0,s1
800006b6:	4a9040ef          	jal	ra,8000535e <__extendsfdf2>
800006ba:	862a                	mv	a2,a0
800006bc:	86ae                	mv	a3,a1
800006be:	454c0513          	addi	a0,s8,1108 # 90000454 <_sp+0xffff0454>
800006c2:	103050ef          	jal	ra,80005fc4 <iprintf>
800006c6:	4529                	li	a0,10
800006c8:	13f050ef          	jal	ra,80006006 <putchar>
800006cc:	6165                	addi	sp,sp,112
800006ce:	7ec12083          	lw	ra,2028(sp)
800006d2:	4501                	li	a0,0
800006d4:	7e812403          	lw	s0,2024(sp)
800006d8:	7e412483          	lw	s1,2020(sp)
800006dc:	7e012903          	lw	s2,2016(sp)
800006e0:	7dc12983          	lw	s3,2012(sp)
800006e4:	7d812a03          	lw	s4,2008(sp)
800006e8:	7d412a83          	lw	s5,2004(sp)
800006ec:	7d012b03          	lw	s6,2000(sp)
800006f0:	7cc12b83          	lw	s7,1996(sp)
800006f4:	7c812c03          	lw	s8,1992(sp)
800006f8:	7c412c83          	lw	s9,1988(sp)
800006fc:	7f010113          	addi	sp,sp,2032
80000700:	8082                	ret
80000702:	0001                	nop
80000704:	6685                	lui	a3,0x1
80000706:	82068913          	addi	s2,a3,-2016 # 820 <__stack_size+0x20>
8000070a:	081c                	addi	a5,sp,16
8000070c:	72fd                	lui	t0,0xfffff
8000070e:	00f90733          	add	a4,s2,a5
80000712:	00570333          	add	t1,a4,t0
80000716:	7e831603          	lh	a2,2024(t1)
8000071a:	7f432583          	lw	a1,2036(t1)
8000071e:	c61a                	sw	t1,12(sp)
80000720:	121000ef          	jal	ra,80001040 <core_list_init>
80000724:	52e2                	lw	t0,56(sp)
80000726:	de2a                	sw	a0,60(sp)
80000728:	0022f913          	andi	s2,t0,2
8000072c:	a80909e3          	beqz	s2,800001be <main+0x11e>
80000730:	6385                	lui	t2,0x1
80000732:	82038413          	addi	s0,t2,-2016 # 820 <__stack_size+0x20>
80000736:	080c                	addi	a1,sp,16
80000738:	757d                	lui	a0,0xfffff
8000073a:	00b404b3          	add	s1,s0,a1
8000073e:	00a480b3          	add	ra,s1,a0
80000742:	c606                	sw	ra,12(sp)
80000744:	48b2                	lw	a7,12(sp)
80000746:	7ea09803          	lh	a6,2026(ra)
8000074a:	5542                	lw	a0,48(sp)
8000074c:	7e889603          	lh	a2,2024(a7)
80000750:	7f88a583          	lw	a1,2040(a7)
80000754:	01081993          	slli	s3,a6,0x10
80000758:	0094                	addi	a3,sp,64
8000075a:	00c9e633          	or	a2,s3,a2
8000075e:	4ea020ef          	jal	ra,80002c48 <core_init_matrix>
80000762:	52e2                	lw	t0,56(sp)
80000764:	bca9                	j	800001be <main+0x11e>
80000766:	409d                	li	ra,7
80000768:	dc06                	sw	ra,56(sp)
8000076a:	ba55                	j	8000011e <main+0x7e>
8000076c:	4a85                	li	s5,1
8000076e:	9d5a1ce3          	bne	s4,s5,80000146 <main+0xa6>
80000772:	4b32                	lw	s6,12(sp)
80000774:	7ecb1b83          	lh	s7,2028(s6)
80000778:	9c0b97e3          	bnez	s7,80000146 <main+0xa6>
8000077c:	4e32                	lw	t3,12(sp)
8000077e:	34153c37          	lui	s8,0x34153
80000782:	415c0c93          	addi	s9,s8,1045 # 34153415 <__stack_size+0x34152c15>
80000786:	06600e93          	li	t4,102
8000078a:	7f9e2423          	sw	s9,2024(t3)
8000078e:	7fde1623          	sh	t4,2028(t3)
80000792:	ba55                	j	80000146 <main+0xa6>
80000794:	6f25                	lui	t5,0x9
80000796:	a02f0f93          	addi	t6,t5,-1534 # 8a02 <__stack_size+0x8202>
8000079a:	17f50d63          	beq	a0,t6,80000914 <main+0x874>
8000079e:	643d                	lui	s0,0xf
800007a0:	9f540293          	addi	t0,s0,-1547 # e9f5 <__stack_size+0xe1f5>
800007a4:	0a551463          	bne	a0,t0,8000084c <main+0x7ac>
800007a8:	900006b7          	lui	a3,0x90000
800007ac:	0a068513          	addi	a0,a3,160 # 900000a0 <_sp+0xffff00a0>
800007b0:	161050ef          	jal	ra,80006110 <puts>
800007b4:	498d                	li	s3,3
800007b6:	b96d                	j	80000470 <main+0x3d0>
800007b8:	4505                	li	a0,1
800007ba:	b131                	j	800003c6 <main+0x326>
800007bc:	4732                	lw	a4,12(sp)
800007be:	06600793          	li	a5,102
800007c2:	7ef71623          	sh	a5,2028(a4)
800007c6:	b241                	j	80000146 <main+0xa6>
800007c8:	02a58733          	mul	a4,a1,a0
800007cc:	6605                	lui	a2,0x1
800007ce:	82060813          	addi	a6,a2,-2016 # 820 <__stack_size+0x20>
800007d2:	01010893          	addi	a7,sp,16
800007d6:	737d                	lui	t1,0xfffff
800007d8:	1084                	addi	s1,sp,96
800007da:	011809b3          	add	s3,a6,a7
800007de:	00158393          	addi	t2,a1,1
800007e2:	00698ab3          	add	s5,s3,t1
800007e6:	01039413          	slli	s0,t2,0x10
800007ea:	00e480b3          	add	ra,s1,a4
800007ee:	c656                	sw	s5,12(sp)
800007f0:	7e1aac23          	sw	ra,2040(s5)
800007f4:	01045593          	srli	a1,s0,0x10
800007f8:	9a0a0fe3          	beqz	s4,800001b6 <main+0x116>
800007fc:	a015                	j	80000820 <main+0x780>
800007fe:	6c85                	lui	s9,0x1
80000800:	820c8e13          	addi	t3,s9,-2016 # 820 <__stack_size+0x20>
80000804:	01010e93          	addi	t4,sp,16
80000808:	01de0f33          	add	t5,t3,t4
8000080c:	018f0fb3          	add	t6,t5,s8
80000810:	109c                	addi	a5,sp,96
80000812:	c67e                	sw	t6,12(sp)
80000814:	7effaa23          	sw	a5,2036(t6)
80000818:	4585                	li	a1,1
8000081a:	98090ce3          	beqz	s2,800001b2 <main+0x112>
8000081e:	b76d                	j	800007c8 <main+0x728>
80000820:	02a58a33          	mul	s4,a1,a0
80000824:	6c85                	lui	s9,0x1
80000826:	820c8e13          	addi	t3,s9,-2016 # 820 <__stack_size+0x20>
8000082a:	01010e93          	addi	t4,sp,16
8000082e:	7b7d                	lui	s6,0xfffff
80000830:	06010b93          	addi	s7,sp,96
80000834:	01de0f33          	add	t5,t3,t4
80000838:	016f0fb3          	add	t6,t5,s6
8000083c:	c67e                	sw	t6,12(sp)
8000083e:	014b8c33          	add	s8,s7,s4
80000842:	7f8fae23          	sw	s8,2044(t6)
80000846:	96068ae3          	beqz	a3,800001ba <main+0x11a>
8000084a:	bd6d                	j	80000704 <main+0x664>
8000084c:	6a41                	lui	s4,0x10
8000084e:	fffa0b13          	addi	s6,s4,-1 # ffff <__stack_size+0xf7ff>
80000852:	59fd                	li	s3,-1
80000854:	b1cd                	j	80000536 <main+0x496>
80000856:	04a11923          	sh	a0,82(sp)
8000085a:	a99a90e3          	bne	s5,s9,800002da <main+0x23a>
8000085e:	b681                	j	8000039e <main+0x2fe>
80000860:	90000cb7          	lui	s9,0x90000
80000864:	240c8513          	addi	a0,s9,576 # 90000240 <_sp+0xffff0240>
80000868:	0a9050ef          	jal	ra,80006110 <puts>
8000086c:	458d                	li	a1,3
8000086e:	deb993e3          	bne	s3,a1,80000654 <main+0x5b4>
80000872:	5552                	lw	a0,52(sp)
80000874:	590040ef          	jal	ra,80004e04 <__floatunsidf>
80000878:	8aaa                	mv	s5,a0
8000087a:	842e                	mv	s0,a1
8000087c:	8526                	mv	a0,s1
8000087e:	85ca                	mv	a1,s2
80000880:	231030ef          	jal	ra,800042b0 <time_in_secs>
80000884:	862a                	mv	a2,a0
80000886:	86ae                	mv	a3,a1
80000888:	8556                	mv	a0,s5
8000088a:	85a2                	mv	a1,s0
8000088c:	5a9030ef          	jal	ra,80004634 <__divdf3>
80000890:	90000e37          	lui	t3,0x90000
80000894:	862a                	mv	a2,a0
80000896:	86ae                	mv	a3,a1
80000898:	314a0713          	addi	a4,s4,788
8000089c:	28cb0793          	addi	a5,s6,652 # fffff28c <_sp+0x6ffef28c>
800008a0:	320e0513          	addi	a0,t3,800 # 90000320 <_sp+0xffff0320>
800008a4:	720050ef          	jal	ra,80005fc4 <iprintf>
800008a8:	90000a37          	lui	s4,0x90000
800008ac:	33cb8593          	addi	a1,s7,828
800008b0:	344a0513          	addi	a0,s4,836 # 90000344 <_sp+0xffff0344>
800008b4:	710050ef          	jal	ra,80005fc4 <iprintf>
800008b8:	4529                	li	a0,10
800008ba:	74c050ef          	jal	ra,80006006 <putchar>
800008be:	bb59                	j	80000654 <main+0x5b4>
800008c0:	900009b7          	lui	s3,0x90000
800008c4:	35c98513          	addi	a0,s3,860 # 9000035c <_sp+0xffff035c>
800008c8:	049050ef          	jal	ra,80006110 <puts>
800008cc:	b361                	j	80000654 <main+0x5b4>
800008ce:	05215603          	lhu	a2,82(sp)
800008d2:	90000337          	lui	t1,0x90000
800008d6:	4581                	li	a1,0
800008d8:	49030513          	addi	a0,t1,1168 # 90000490 <_sp+0xffff0490>
800008dc:	6e8050ef          	jal	ra,80005fc4 <iprintf>
800008e0:	52e2                	lw	t0,56(sp)
800008e2:	0022f513          	andi	a0,t0,2
800008e6:	d40500e3          	beqz	a0,80000626 <main+0x586>
800008ea:	05415603          	lhu	a2,84(sp)
800008ee:	90000737          	lui	a4,0x90000
800008f2:	4581                	li	a1,0
800008f4:	1ec70513          	addi	a0,a4,492 # 900001ec <_sp+0xffff01ec>
800008f8:	6cc050ef          	jal	ra,80005fc4 <iprintf>
800008fc:	52e2                	lw	t0,56(sp)
800008fe:	b325                	j	80000626 <main+0x586>
80000900:	05615603          	lhu	a2,86(sp)
80000904:	90000837          	lui	a6,0x90000
80000908:	4581                	li	a1,0
8000090a:	20880513          	addi	a0,a6,520 # 90000208 <_sp+0xffff0208>
8000090e:	6b6050ef          	jal	ra,80005fc4 <iprintf>
80000912:	bb31                	j	8000062e <main+0x58e>
80000914:	900007b7          	lui	a5,0x90000
80000918:	01878513          	addi	a0,a5,24 # 90000018 <_sp+0xffff0018>
8000091c:	7f4050ef          	jal	ra,80006110 <puts>
80000920:	4981                	li	s3,0
80000922:	b6b9                	j	80000470 <main+0x3d0>
80000924:	90000337          	lui	t1,0x90000
80000928:	04430513          	addi	a0,t1,68 # 90000044 <_sp+0xffff0044>
8000092c:	7e4050ef          	jal	ra,80006110 <puts>
80000930:	4985                	li	s3,1
80000932:	be3d                	j	80000470 <main+0x3d0>
80000934:	90000eb7          	lui	t4,0x90000
80000938:	0cce8513          	addi	a0,t4,204 # 900000cc <_sp+0xffff00cc>
8000093c:	7d4050ef          	jal	ra,80006110 <puts>
80000940:	4991                	li	s3,4
80000942:	b63d                	j	80000470 <main+0x3d0>
80000944:	05c11923          	sh	t3,82(sp)
80000948:	b43d                	j	80000376 <main+0x2d6>
8000094a:	05611923          	sh	s6,82(sp)
8000094e:	b2c9                	j	80000310 <main+0x270>
80000950:	04a11923          	sh	a0,82(sp)
80000954:	b2d5                	j	80000338 <main+0x298>
80000956:	04a11923          	sh	a0,82(sp)
8000095a:	94dff06f          	j	800002a6 <main+0x206>
8000095e:	04a11923          	sh	a0,82(sp)
80000962:	ba8d                	j	800002d4 <main+0x234>
80000964:	0000                	unimp
	...

80000968 <trap_entry>:
80000968:	7139                	addi	sp,sp,-64
8000096a:	c006                	sw	ra,0(sp)
8000096c:	c216                	sw	t0,4(sp)
8000096e:	c41a                	sw	t1,8(sp)
80000970:	c61e                	sw	t2,12(sp)
80000972:	c82a                	sw	a0,16(sp)
80000974:	ca2e                	sw	a1,20(sp)
80000976:	cc32                	sw	a2,24(sp)
80000978:	ce36                	sw	a3,28(sp)
8000097a:	d03a                	sw	a4,32(sp)
8000097c:	d23e                	sw	a5,36(sp)
8000097e:	d442                	sw	a6,40(sp)
80000980:	d646                	sw	a7,44(sp)
80000982:	d872                	sw	t3,48(sp)
80000984:	da76                	sw	t4,52(sp)
80000986:	dc7a                	sw	t5,56(sp)
80000988:	de7e                	sw	t6,60(sp)
8000098a:	34202573          	csrr	a0,mcause
8000098e:	341025f3          	csrr	a1,mepc
80000992:	1d3030ef          	jal	ra,80004364 <handle_trap>
80000996:	34151073          	csrw	mepc,a0
8000099a:	4082                	lw	ra,0(sp)
8000099c:	4292                	lw	t0,4(sp)
8000099e:	4322                	lw	t1,8(sp)
800009a0:	43b2                	lw	t2,12(sp)
800009a2:	4542                	lw	a0,16(sp)
800009a4:	45d2                	lw	a1,20(sp)
800009a6:	4662                	lw	a2,24(sp)
800009a8:	46f2                	lw	a3,28(sp)
800009aa:	5702                	lw	a4,32(sp)
800009ac:	5792                	lw	a5,36(sp)
800009ae:	5822                	lw	a6,40(sp)
800009b0:	58b2                	lw	a7,44(sp)
800009b2:	5e42                	lw	t3,48(sp)
800009b4:	5ed2                	lw	t4,52(sp)
800009b6:	5f62                	lw	t5,56(sp)
800009b8:	5ff2                	lw	t6,60(sp)
800009ba:	6121                	addi	sp,sp,64
800009bc:	30200073          	mret
800009c0:	a001                	j	800009c0 <trap_entry+0x58>
	...

800009c4 <core_bench_list>:
800009c4:	00451e03          	lh	t3,4(a0) # fffff004 <_sp+0x6ffef004>
800009c8:	711d                	addi	sp,sp,-96
800009ca:	c8ca                	sw	s2,80(sp)
800009cc:	ce86                	sw	ra,92(sp)
800009ce:	cca2                	sw	s0,88(sp)
800009d0:	caa6                	sw	s1,84(sp)
800009d2:	c6ce                	sw	s3,76(sp)
800009d4:	c4d2                	sw	s4,72(sp)
800009d6:	c2d6                	sw	s5,68(sp)
800009d8:	c0da                	sw	s6,64(sp)
800009da:	de5e                	sw	s7,60(sp)
800009dc:	dc62                	sw	s8,56(sp)
800009de:	da66                	sw	s9,52(sp)
800009e0:	d86a                	sw	s10,48(sp)
800009e2:	d66e                	sw	s11,44(sp)
800009e4:	c62e                	sw	a1,12(sp)
800009e6:	02452903          	lw	s2,36(a0)
800009ea:	61c05663          	blez	t3,80000ff6 <core_bench_list+0x632>
800009ee:	4601                	li	a2,0
800009f0:	4301                	li	t1,0
800009f2:	4f81                	li	t6,0
800009f4:	4881                	li	a7,0
800009f6:	40b2                	lw	ra,12(sp)
800009f8:	0ff67793          	andi	a5,a2,255
800009fc:	ce3e                	sw	a5,28(sp)
800009fe:	3000c363          	bltz	ra,80000d04 <core_bench_list+0x340>
80000a02:	32090963          	beqz	s2,80000d34 <core_bench_list+0x370>
80000a06:	00492983          	lw	s3,4(s2)
80000a0a:	4ab2                	lw	s5,12(sp)
80000a0c:	8b4a                	mv	s6,s2
80000a0e:	00299a03          	lh	s4,2(s3)
80000a12:	015a1a63          	bne	s4,s5,80000a26 <core_bench_list+0x62>
80000a16:	a821                	j	80000a2e <core_bench_list+0x6a>
80000a18:	004b2b83          	lw	s7,4(s6)
80000a1c:	4cb2                	lw	s9,12(sp)
80000a1e:	002b9c03          	lh	s8,2(s7)
80000a22:	019c0663          	beq	s8,s9,80000a2e <core_bench_list+0x6a>
80000a26:	000b2b03          	lw	s6,0(s6)
80000a2a:	fe0b17e3          	bnez	s6,80000a18 <core_bench_list+0x54>
80000a2e:	4d01                	li	s10,0
80000a30:	a021                	j	80000a38 <core_bench_list+0x74>
80000a32:	0001                	nop
80000a34:	8d4a                	mv	s10,s2
80000a36:	896e                	mv	s2,s11
80000a38:	00092d83          	lw	s11,0(s2)
80000a3c:	01a92023          	sw	s10,0(s2)
80000a40:	fe0d9ae3          	bnez	s11,80000a34 <core_bench_list+0x70>
80000a44:	2e0b0b63          	beqz	s6,80000d3a <core_bench_list+0x376>
80000a48:	004b2e83          	lw	t4,4(s6)
80000a4c:	001f8813          	addi	a6,t6,1
80000a50:	01081f13          	slli	t5,a6,0x10
80000a54:	000e9783          	lh	a5,0(t4)
80000a58:	010f5f93          	srli	t6,t5,0x10
80000a5c:	0017f093          	andi	ra,a5,1
80000a60:	00008b63          	beqz	ra,80000a76 <core_bench_list+0xb2>
80000a64:	4097d713          	srai	a4,a5,0x9
80000a68:	00177293          	andi	t0,a4,1
80000a6c:	9896                	add	a7,a7,t0
80000a6e:	01089693          	slli	a3,a7,0x10
80000a72:	0106d893          	srli	a7,a3,0x10
80000a76:	000b2383          	lw	t2,0(s6)
80000a7a:	00038c63          	beqz	t2,80000a92 <core_bench_list+0xce>
80000a7e:	0003a403          	lw	s0,0(t2)
80000a82:	008b2023          	sw	s0,0(s6)
80000a86:	00092483          	lw	s1,0(s2)
80000a8a:	0093a023          	sw	s1,0(t2)
80000a8e:	00792023          	sw	t2,0(s2)
80000a92:	4cb2                	lw	s9,12(sp)
80000a94:	000cc963          	bltz	s9,80000aa6 <core_bench_list+0xe2>
80000a98:	001c8d13          	addi	s10,s9,1
80000a9c:	010d1d93          	slli	s11,s10,0x10
80000aa0:	410dde93          	srai	t4,s11,0x10
80000aa4:	c676                	sw	t4,12(sp)
80000aa6:	0605                	addi	a2,a2,1
80000aa8:	01061813          	slli	a6,a2,0x10
80000aac:	41085613          	srai	a2,a6,0x10
80000ab0:	f4ce13e3          	bne	t3,a2,800009f6 <core_bench_list+0x32>
80000ab4:	002f9e13          	slli	t3,t6,0x2
80000ab8:	406e0f33          	sub	t5,t3,t1
80000abc:	01e88fb3          	add	t6,a7,t5
80000ac0:	010f9793          	slli	a5,t6,0x10
80000ac4:	0107d093          	srli	ra,a5,0x10
80000ac8:	cc06                	sw	ra,24(sp)
80000aca:	8d2a                	mv	s10,a0
80000acc:	28b04963          	bgtz	a1,80000d5e <core_bench_list+0x39a>
80000ad0:	00092c83          	lw	s9,0(s2)
80000ad4:	4eb2                	lw	t4,12(sp)
80000ad6:	8aca                	mv	s5,s2
80000ad8:	000ca983          	lw	s3,0(s9)
80000adc:	004ca083          	lw	ra,4(s9)
80000ae0:	0049ad03          	lw	s10,4(s3)
80000ae4:	0009ad83          	lw	s11,0(s3)
80000ae8:	01aca223          	sw	s10,4(s9)
80000aec:	0019a223          	sw	ra,4(s3)
80000af0:	01bca023          	sw	s11,0(s9)
80000af4:	0009a023          	sw	zero,0(s3)
80000af8:	1c0ec363          	bltz	t4,80000cbe <core_bench_list+0x2fa>
80000afc:	004aaf03          	lw	t5,4(s5)
80000b00:	47b2                	lw	a5,12(sp)
80000b02:	002f1f83          	lh	t6,2(t5)
80000b06:	00ff8a63          	beq	t6,a5,80000b1a <core_bench_list+0x156>
80000b0a:	000aaa83          	lw	s5,0(s5)
80000b0e:	fe0a97e3          	bnez	s5,80000afc <core_bench_list+0x138>
80000b12:	00092503          	lw	a0,0(s2)
80000b16:	8aaa                	mv	s5,a0
80000b18:	c10d                	beqz	a0,80000b3a <core_bench_list+0x176>
80000b1a:	00492703          	lw	a4,4(s2)
80000b1e:	45e2                	lw	a1,24(sp)
80000b20:	00071503          	lh	a0,0(a4)
80000b24:	4d0030ef          	jal	ra,80003ff4 <crc16>
80000b28:	000aaa83          	lw	s5,0(s5)
80000b2c:	cc2a                	sw	a0,24(sp)
80000b2e:	fe0a96e3          	bnez	s5,80000b1a <core_bench_list+0x156>
80000b32:	0049a083          	lw	ra,4(s3)
80000b36:	00092503          	lw	a0,0(s2)
80000b3a:	414c                	lw	a1,4(a0)
80000b3c:	00052283          	lw	t0,0(a0)
80000b40:	4d05                	li	s10,1
80000b42:	00b9a223          	sw	a1,4(s3)
80000b46:	00152223          	sw	ra,4(a0)
80000b4a:	0059a023          	sw	t0,0(s3)
80000b4e:	01352023          	sw	s3,0(a0)
80000b52:	4605                	li	a2,1
80000b54:	87ca                	mv	a5,s2
80000b56:	4681                	li	a3,0
80000b58:	4901                	li	s2,0
80000b5a:	4f01                	li	t5,0
80000b5c:	007d7893          	andi	a7,s10,7
80000b60:	0f05                	addi	t5,t5,1
80000b62:	8a3e                	mv	s4,a5
80000b64:	4c81                	li	s9,0
80000b66:	06088963          	beqz	a7,80000bd8 <core_bench_list+0x214>
80000b6a:	4385                	li	t2,1
80000b6c:	04788f63          	beq	a7,t2,80000bca <core_bench_list+0x206>
80000b70:	4309                	li	t1,2
80000b72:	04688763          	beq	a7,t1,80000bc0 <core_bench_list+0x1fc>
80000b76:	4b0d                	li	s6,3
80000b78:	03688f63          	beq	a7,s6,80000bb6 <core_bench_list+0x1f2>
80000b7c:	4b91                	li	s7,4
80000b7e:	03788763          	beq	a7,s7,80000bac <core_bench_list+0x1e8>
80000b82:	4415                	li	s0,5
80000b84:	00888f63          	beq	a7,s0,80000ba2 <core_bench_list+0x1de>
80000b88:	4c19                	li	s8,6
80000b8a:	01888763          	beq	a7,s8,80000b98 <core_bench_list+0x1d4>
80000b8e:	0007aa03          	lw	s4,0(a5)
80000b92:	4c85                	li	s9,1
80000b94:	0a0a0263          	beqz	s4,80000c38 <core_bench_list+0x274>
80000b98:	000a2a03          	lw	s4,0(s4)
80000b9c:	0c85                	addi	s9,s9,1
80000b9e:	080a0d63          	beqz	s4,80000c38 <core_bench_list+0x274>
80000ba2:	000a2a03          	lw	s4,0(s4)
80000ba6:	0c85                	addi	s9,s9,1
80000ba8:	080a0863          	beqz	s4,80000c38 <core_bench_list+0x274>
80000bac:	000a2a03          	lw	s4,0(s4)
80000bb0:	0c85                	addi	s9,s9,1
80000bb2:	080a0363          	beqz	s4,80000c38 <core_bench_list+0x274>
80000bb6:	000a2a03          	lw	s4,0(s4)
80000bba:	0c85                	addi	s9,s9,1
80000bbc:	060a0e63          	beqz	s4,80000c38 <core_bench_list+0x274>
80000bc0:	000a2a03          	lw	s4,0(s4)
80000bc4:	0c85                	addi	s9,s9,1
80000bc6:	060a0963          	beqz	s4,80000c38 <core_bench_list+0x274>
80000bca:	000a2a03          	lw	s4,0(s4)
80000bce:	0c85                	addi	s9,s9,1
80000bd0:	060a0463          	beqz	s4,80000c38 <core_bench_list+0x274>
80000bd4:	07ac8263          	beq	s9,s10,80000c38 <core_bench_list+0x274>
80000bd8:	000a2a03          	lw	s4,0(s4)
80000bdc:	0c85                	addi	s9,s9,1
80000bde:	84e6                	mv	s1,s9
80000be0:	040a0c63          	beqz	s4,80000c38 <core_bench_list+0x274>
80000be4:	000a2a03          	lw	s4,0(s4)
80000be8:	0c85                	addi	s9,s9,1
80000bea:	040a0763          	beqz	s4,80000c38 <core_bench_list+0x274>
80000bee:	000a2a03          	lw	s4,0(s4)
80000bf2:	00248c93          	addi	s9,s1,2
80000bf6:	040a0163          	beqz	s4,80000c38 <core_bench_list+0x274>
80000bfa:	000a2a03          	lw	s4,0(s4)
80000bfe:	00348c93          	addi	s9,s1,3
80000c02:	020a0b63          	beqz	s4,80000c38 <core_bench_list+0x274>
80000c06:	000a2a03          	lw	s4,0(s4)
80000c0a:	00448c93          	addi	s9,s1,4
80000c0e:	020a0563          	beqz	s4,80000c38 <core_bench_list+0x274>
80000c12:	000a2a03          	lw	s4,0(s4)
80000c16:	00548c93          	addi	s9,s1,5
80000c1a:	000a0f63          	beqz	s4,80000c38 <core_bench_list+0x274>
80000c1e:	000a2a03          	lw	s4,0(s4)
80000c22:	00648c93          	addi	s9,s1,6
80000c26:	000a0963          	beqz	s4,80000c38 <core_bench_list+0x274>
80000c2a:	000a2a03          	lw	s4,0(s4)
80000c2e:	00748c93          	addi	s9,s1,7
80000c32:	fa0a11e3          	bnez	s4,80000bd4 <core_bench_list+0x210>
80000c36:	0001                	nop
80000c38:	85ea                	mv	a1,s10
80000c3a:	060c8763          	beqz	s9,80000ca8 <core_bench_list+0x2e4>
80000c3e:	0001                	nop
80000c40:	c1c5                	beqz	a1,80000ce0 <core_bench_list+0x31c>
80000c42:	080a0f63          	beqz	s4,80000ce0 <core_bench_list+0x31c>
80000c46:	0047af83          	lw	t6,4(a5)
80000c4a:	004a2083          	lw	ra,4(s4)
80000c4e:	000f9983          	lh	s3,0(t6)
80000c52:	00209e83          	lh	t4,2(ra)
80000c56:	002f9803          	lh	a6,2(t6)
80000c5a:	01099e13          	slli	t3,s3,0x10
80000c5e:	010e5513          	srli	a0,t3,0x10
80000c62:	f009fa93          	andi	s5,s3,-256
80000c66:	00855713          	srli	a4,a0,0x8
80000c6a:	00eae2b3          	or	t0,s5,a4
80000c6e:	005f9023          	sh	t0,0(t6)
80000c72:	00009883          	lh	a7,0(ra)
80000c76:	41d803b3          	sub	t2,a6,t4
80000c7a:	01089313          	slli	t1,a7,0x10
80000c7e:	01035b13          	srli	s6,t1,0x10
80000c82:	f008fb93          	andi	s7,a7,-256
80000c86:	008b5413          	srli	s0,s6,0x8
80000c8a:	008bec33          	or	s8,s7,s0
80000c8e:	01809023          	sh	s8,0(ra)
80000c92:	04705763          	blez	t2,80000ce0 <core_bench_list+0x31c>
80000c96:	84d2                	mv	s1,s4
80000c98:	000a2a03          	lw	s4,0(s4)
80000c9c:	15fd                	addi	a1,a1,-1
80000c9e:	ce89                	beqz	a3,80000cb8 <core_bench_list+0x2f4>
80000ca0:	c284                	sw	s1,0(a3)
80000ca2:	86a6                	mv	a3,s1
80000ca4:	f80c9ee3          	bnez	s9,80000c40 <core_bench_list+0x27c>
80000ca8:	c1a1                	beqz	a1,80000ce8 <core_bench_list+0x324>
80000caa:	040a0363          	beqz	s4,80000cf0 <core_bench_list+0x32c>
80000cae:	84d2                	mv	s1,s4
80000cb0:	15fd                	addi	a1,a1,-1
80000cb2:	000a2a03          	lw	s4,0(s4)
80000cb6:	f6ed                	bnez	a3,80000ca0 <core_bench_list+0x2dc>
80000cb8:	8926                	mv	s2,s1
80000cba:	86a6                	mv	a3,s1
80000cbc:	b7e5                	j	80000ca4 <core_bench_list+0x2e0>
80000cbe:	004aa803          	lw	a6,4(s5)
80000cc2:	4e72                	lw	t3,28(sp)
80000cc4:	00084603          	lbu	a2,0(a6)
80000cc8:	e4ce09e3          	beq	t3,a2,80000b1a <core_bench_list+0x156>
80000ccc:	000aaa83          	lw	s5,0(s5)
80000cd0:	fe0a97e3          	bnez	s5,80000cbe <core_bench_list+0x2fa>
80000cd4:	00092503          	lw	a0,0(s2)
80000cd8:	8aaa                	mv	s5,a0
80000cda:	e40510e3          	bnez	a0,80000b1a <core_bench_list+0x156>
80000cde:	bdb1                	j	80000b3a <core_bench_list+0x176>
80000ce0:	84be                	mv	s1,a5
80000ce2:	1cfd                	addi	s9,s9,-1
80000ce4:	439c                	lw	a5,0(a5)
80000ce6:	bf65                	j	80000c9e <core_bench_list+0x2da>
80000ce8:	87d2                	mv	a5,s4
80000cea:	e60a19e3          	bnez	s4,80000b5c <core_bench_list+0x198>
80000cee:	0001                	nop
80000cf0:	0006a023          	sw	zero,0(a3)
80000cf4:	30cf0563          	beq	t5,a2,80000ffe <core_bench_list+0x63a>
80000cf8:	0d06                	slli	s10,s10,0x1
80000cfa:	e4091de3          	bnez	s2,80000b54 <core_bench_list+0x190>
80000cfe:	00002023          	sw	zero,0(zero) # 0 <__stack_size-0x800>
80000d02:	9002                	ebreak
80000d04:	02090863          	beqz	s2,80000d34 <core_bench_list+0x370>
80000d08:	00492703          	lw	a4,4(s2)
80000d0c:	0ff67693          	andi	a3,a2,255
80000d10:	8b4a                	mv	s6,s2
80000d12:	00074283          	lbu	t0,0(a4)
80000d16:	00569a63          	bne	a3,t0,80000d2a <core_bench_list+0x366>
80000d1a:	bb11                	j	80000a2e <core_bench_list+0x6a>
80000d1c:	004b2383          	lw	t2,4(s6)
80000d20:	44f2                	lw	s1,28(sp)
80000d22:	0003c403          	lbu	s0,0(t2)
80000d26:	d09404e3          	beq	s0,s1,80000a2e <core_bench_list+0x6a>
80000d2a:	000b2b03          	lw	s6,0(s6)
80000d2e:	fe0b17e3          	bnez	s6,80000d1c <core_bench_list+0x358>
80000d32:	b9f5                	j	80000a2e <core_bench_list+0x6a>
80000d34:	00002783          	lw	a5,0(zero) # 0 <__stack_size-0x800>
80000d38:	9002                	ebreak
80000d3a:	004d2983          	lw	s3,4(s10)
80000d3e:	0305                	addi	t1,t1,1
80000d40:	01031a13          	slli	s4,t1,0x10
80000d44:	00198a83          	lb	s5,1(s3)
80000d48:	010a5313          	srli	t1,s4,0x10
80000d4c:	001afb13          	andi	s6,s5,1
80000d50:	01688bb3          	add	s7,a7,s6
80000d54:	010b9c13          	slli	s8,s7,0x10
80000d58:	010c5893          	srli	a7,s8,0x10
80000d5c:	bb1d                	j	80000a92 <core_bench_list+0xce>
80000d5e:	02850513          	addi	a0,a0,40
80000d62:	4a05                	li	s4,1
80000d64:	ca2a                	sw	a0,20(sp)
80000d66:	f8090ce3          	beqz	s2,80000cfe <core_bench_list+0x33a>
80000d6a:	4481                	li	s1,0
80000d6c:	4981                	li	s3,0
80000d6e:	c802                	sw	zero,16(sp)
80000d70:	4742                	lw	a4,16(sp)
80000d72:	007a7593          	andi	a1,s4,7
80000d76:	844a                	mv	s0,s2
80000d78:	00170293          	addi	t0,a4,1
80000d7c:	c816                	sw	t0,16(sp)
80000d7e:	4c01                	li	s8,0
80000d80:	c9b9                	beqz	a1,80000dd6 <core_bench_list+0x412>
80000d82:	4685                	li	a3,1
80000d84:	04d58463          	beq	a1,a3,80000dcc <core_bench_list+0x408>
80000d88:	4889                	li	a7,2
80000d8a:	03158e63          	beq	a1,a7,80000dc6 <core_bench_list+0x402>
80000d8e:	438d                	li	t2,3
80000d90:	02758863          	beq	a1,t2,80000dc0 <core_bench_list+0x3fc>
80000d94:	4311                	li	t1,4
80000d96:	02658263          	beq	a1,t1,80000dba <core_bench_list+0x3f6>
80000d9a:	4a95                	li	s5,5
80000d9c:	01558c63          	beq	a1,s5,80000db4 <core_bench_list+0x3f0>
80000da0:	4b19                	li	s6,6
80000da2:	01658663          	beq	a1,s6,80000dae <core_bench_list+0x3ea>
80000da6:	00092403          	lw	s0,0(s2)
80000daa:	4c05                	li	s8,1
80000dac:	c425                	beqz	s0,80000e14 <core_bench_list+0x450>
80000dae:	4000                	lw	s0,0(s0)
80000db0:	0c05                	addi	s8,s8,1
80000db2:	c02d                	beqz	s0,80000e14 <core_bench_list+0x450>
80000db4:	4000                	lw	s0,0(s0)
80000db6:	0c05                	addi	s8,s8,1
80000db8:	cc31                	beqz	s0,80000e14 <core_bench_list+0x450>
80000dba:	4000                	lw	s0,0(s0)
80000dbc:	0c05                	addi	s8,s8,1
80000dbe:	c839                	beqz	s0,80000e14 <core_bench_list+0x450>
80000dc0:	4000                	lw	s0,0(s0)
80000dc2:	0c05                	addi	s8,s8,1
80000dc4:	c821                	beqz	s0,80000e14 <core_bench_list+0x450>
80000dc6:	4000                	lw	s0,0(s0)
80000dc8:	0c05                	addi	s8,s8,1
80000dca:	c429                	beqz	s0,80000e14 <core_bench_list+0x450>
80000dcc:	4000                	lw	s0,0(s0)
80000dce:	0c05                	addi	s8,s8,1
80000dd0:	c031                	beqz	s0,80000e14 <core_bench_list+0x450>
80000dd2:	054c0163          	beq	s8,s4,80000e14 <core_bench_list+0x450>
80000dd6:	4000                	lw	s0,0(s0)
80000dd8:	0c05                	addi	s8,s8,1
80000dda:	8be2                	mv	s7,s8
80000ddc:	cc05                	beqz	s0,80000e14 <core_bench_list+0x450>
80000dde:	4000                	lw	s0,0(s0)
80000de0:	0c05                	addi	s8,s8,1
80000de2:	c80d                	beqz	s0,80000e14 <core_bench_list+0x450>
80000de4:	4000                	lw	s0,0(s0)
80000de6:	002b8c13          	addi	s8,s7,2
80000dea:	c40d                	beqz	s0,80000e14 <core_bench_list+0x450>
80000dec:	4000                	lw	s0,0(s0)
80000dee:	003b8c13          	addi	s8,s7,3
80000df2:	c00d                	beqz	s0,80000e14 <core_bench_list+0x450>
80000df4:	4000                	lw	s0,0(s0)
80000df6:	004b8c13          	addi	s8,s7,4
80000dfa:	cc09                	beqz	s0,80000e14 <core_bench_list+0x450>
80000dfc:	4000                	lw	s0,0(s0)
80000dfe:	005b8c13          	addi	s8,s7,5
80000e02:	c809                	beqz	s0,80000e14 <core_bench_list+0x450>
80000e04:	4000                	lw	s0,0(s0)
80000e06:	006b8c13          	addi	s8,s7,6
80000e0a:	c409                	beqz	s0,80000e14 <core_bench_list+0x450>
80000e0c:	4000                	lw	s0,0(s0)
80000e0e:	007b8c13          	addi	s8,s7,7
80000e12:	f061                	bnez	s0,80000dd2 <core_bench_list+0x40e>
80000e14:	8cd2                	mv	s9,s4
80000e16:	100c0e63          	beqz	s8,80000f32 <core_bench_list+0x56e>
80000e1a:	0001                	nop
80000e1c:	120c8663          	beqz	s9,80000f48 <core_bench_list+0x584>
80000e20:	12040463          	beqz	s0,80000f48 <core_bench_list+0x584>
80000e24:	00492a83          	lw	s5,4(s2)
80000e28:	00442d83          	lw	s11,4(s0)
80000e2c:	000a9b03          	lh	s6,0(s5)
80000e30:	080b7793          	andi	a5,s6,128
80000e34:	07fb7b93          	andi	s7,s6,127
80000e38:	e7ad                	bnez	a5,80000ea2 <core_bench_list+0x4de>
80000e3a:	403b5613          	srai	a2,s6,0x3
80000e3e:	00f67f13          	andi	t5,a2,15
80000e42:	004f1f93          	slli	t6,t5,0x4
80000e46:	007b7093          	andi	ra,s6,7
80000e4a:	01ff65b3          	or	a1,t5,t6
80000e4e:	038d5783          	lhu	a5,56(s10)
80000e52:	14008563          	beqz	ra,80000f9c <core_bench_list+0x5d8>
80000e56:	4805                	li	a6,1
80000e58:	15009063          	bne	ra,a6,80000f98 <core_bench_list+0x5d4>
80000e5c:	4552                	lw	a0,20(sp)
80000e5e:	863e                	mv	a2,a5
80000e60:	5c5010ef          	jal	ra,80002c24 <core_bench_matrix>
80000e64:	03cd5e83          	lhu	t4,60(s10)
80000e68:	01051e13          	slli	t3,a0,0x10
80000e6c:	410e5b93          	srai	s7,t3,0x10
80000e70:	000e9463          	bnez	t4,80000e78 <core_bench_list+0x4b4>
80000e74:	02ad1e23          	sh	a0,60(s10)
80000e78:	038d5783          	lhu	a5,56(s10)
80000e7c:	010b9393          	slli	t2,s7,0x10
80000e80:	85be                	mv	a1,a5
80000e82:	0103d513          	srli	a0,t2,0x10
80000e86:	25f020ef          	jal	ra,800038e4 <crcu16>
80000e8a:	f00b7313          	andi	t1,s6,-256
80000e8e:	07fbfb93          	andi	s7,s7,127
80000e92:	08036593          	ori	a1,t1,128
80000e96:	02ad1c23          	sh	a0,56(s10)
80000e9a:	00bbe6b3          	or	a3,s7,a1
80000e9e:	00da9023          	sh	a3,0(s5)
80000ea2:	000d9a83          	lh	s5,0(s11)
80000ea6:	080afb13          	andi	s6,s5,128
80000eaa:	07faf313          	andi	t1,s5,127
80000eae:	060b1563          	bnez	s6,80000f18 <core_bench_list+0x554>
80000eb2:	403ad793          	srai	a5,s5,0x3
80000eb6:	00f7f613          	andi	a2,a5,15
80000eba:	00461f13          	slli	t5,a2,0x4
80000ebe:	007aff93          	andi	t6,s5,7
80000ec2:	01e665b3          	or	a1,a2,t5
80000ec6:	038d5783          	lhu	a5,56(s10)
80000eca:	080f8763          	beqz	t6,80000f58 <core_bench_list+0x594>
80000ece:	4085                	li	ra,1
80000ed0:	081f9263          	bne	t6,ra,80000f54 <core_bench_list+0x590>
80000ed4:	4552                	lw	a0,20(sp)
80000ed6:	863e                	mv	a2,a5
80000ed8:	54d010ef          	jal	ra,80002c24 <core_bench_matrix>
80000edc:	03cd5803          	lhu	a6,60(s10)
80000ee0:	01051e93          	slli	t4,a0,0x10
80000ee4:	410edb13          	srai	s6,t4,0x10
80000ee8:	00081463          	bnez	a6,80000ef0 <core_bench_list+0x52c>
80000eec:	02ad1e23          	sh	a0,60(s10)
80000ef0:	038d5783          	lhu	a5,56(s10)
80000ef4:	010b1513          	slli	a0,s6,0x10
80000ef8:	85be                	mv	a1,a5
80000efa:	8141                	srli	a0,a0,0x10
80000efc:	1e9020ef          	jal	ra,800038e4 <crcu16>
80000f00:	f00af393          	andi	t2,s5,-256
80000f04:	07fb7313          	andi	t1,s6,127
80000f08:	0803e593          	ori	a1,t2,128
80000f0c:	02ad1c23          	sh	a0,56(s10)
80000f10:	00b366b3          	or	a3,t1,a1
80000f14:	00dd9023          	sh	a3,0(s11)
80000f18:	406b8db3          	sub	s11,s7,t1
80000f1c:	03b05663          	blez	s11,80000f48 <core_bench_list+0x584>
80000f20:	8ba2                	mv	s7,s0
80000f22:	4000                	lw	s0,0(s0)
80000f24:	1cfd                	addi	s9,s9,-1
80000f26:	cc89                	beqz	s1,80000f40 <core_bench_list+0x57c>
80000f28:	0174a023          	sw	s7,0(s1)
80000f2c:	84de                	mv	s1,s7
80000f2e:	ee0c17e3          	bnez	s8,80000e1c <core_bench_list+0x458>
80000f32:	0a0c8563          	beqz	s9,80000fdc <core_bench_list+0x618>
80000f36:	c45d                	beqz	s0,80000fe4 <core_bench_list+0x620>
80000f38:	8ba2                	mv	s7,s0
80000f3a:	1cfd                	addi	s9,s9,-1
80000f3c:	4000                	lw	s0,0(s0)
80000f3e:	f4ed                	bnez	s1,80000f28 <core_bench_list+0x564>
80000f40:	89de                	mv	s3,s7
80000f42:	84de                	mv	s1,s7
80000f44:	b7ed                	j	80000f2e <core_bench_list+0x56a>
80000f46:	0001                	nop
80000f48:	8bca                	mv	s7,s2
80000f4a:	1c7d                	addi	s8,s8,-1
80000f4c:	00092903          	lw	s2,0(s2)
80000f50:	bfd9                	j	80000f26 <core_bench_list+0x562>
80000f52:	0001                	nop
80000f54:	8b56                	mv	s6,s5
80000f56:	bf79                	j	80000ef4 <core_bench_list+0x530>
80000f58:	02200e13          	li	t3,34
80000f5c:	872e                	mv	a4,a1
80000f5e:	01c5d463          	ble	t3,a1,80000f66 <core_bench_list+0x5a2>
80000f62:	02200713          	li	a4,34
80000f66:	002d1683          	lh	a3,2(s10)
80000f6a:	000d1603          	lh	a2,0(s10)
80000f6e:	014d2583          	lw	a1,20(s10)
80000f72:	018d2503          	lw	a0,24(s10)
80000f76:	0ff77713          	andi	a4,a4,255
80000f7a:	486020ef          	jal	ra,80003400 <core_bench_state>
80000f7e:	03ed5283          	lhu	t0,62(s10)
80000f82:	01051893          	slli	a7,a0,0x10
80000f86:	4108db13          	srai	s6,a7,0x10
80000f8a:	f60293e3          	bnez	t0,80000ef0 <core_bench_list+0x52c>
80000f8e:	02ad1f23          	sh	a0,62(s10)
80000f92:	038d5783          	lhu	a5,56(s10)
80000f96:	bfb9                	j	80000ef4 <core_bench_list+0x530>
80000f98:	8bda                	mv	s7,s6
80000f9a:	b5cd                	j	80000e7c <core_bench_list+0x4b8>
80000f9c:	02200513          	li	a0,34
80000fa0:	872e                	mv	a4,a1
80000fa2:	00a5d463          	ble	a0,a1,80000faa <core_bench_list+0x5e6>
80000fa6:	02200713          	li	a4,34
80000faa:	002d1683          	lh	a3,2(s10)
80000fae:	000d1603          	lh	a2,0(s10)
80000fb2:	014d2583          	lw	a1,20(s10)
80000fb6:	018d2503          	lw	a0,24(s10)
80000fba:	0ff77713          	andi	a4,a4,255
80000fbe:	442020ef          	jal	ra,80003400 <core_bench_state>
80000fc2:	03ed5283          	lhu	t0,62(s10)
80000fc6:	01051893          	slli	a7,a0,0x10
80000fca:	4108db93          	srai	s7,a7,0x10
80000fce:	ea0295e3          	bnez	t0,80000e78 <core_bench_list+0x4b4>
80000fd2:	02ad1f23          	sh	a0,62(s10)
80000fd6:	038d5783          	lhu	a5,56(s10)
80000fda:	b54d                	j	80000e7c <core_bench_list+0x4b8>
80000fdc:	8922                	mv	s2,s0
80000fde:	d80419e3          	bnez	s0,80000d70 <core_bench_list+0x3ac>
80000fe2:	0001                	nop
80000fe4:	0004a023          	sw	zero,0(s1)
80000fe8:	44c2                	lw	s1,16(sp)
80000fea:	4905                	li	s2,1
80000fec:	01248763          	beq	s1,s2,80000ffa <core_bench_list+0x636>
80000ff0:	0a06                	slli	s4,s4,0x1
80000ff2:	894e                	mv	s2,s3
80000ff4:	bb8d                	j	80000d66 <core_bench_list+0x3a2>
80000ff6:	cc02                	sw	zero,24(sp)
80000ff8:	bcc9                	j	80000aca <core_bench_list+0x106>
80000ffa:	894e                	mv	s2,s3
80000ffc:	bcd1                	j	80000ad0 <core_bench_list+0x10c>
80000ffe:	00092d83          	lw	s11,0(s2)
80001002:	000d8e63          	beqz	s11,8000101e <core_bench_list+0x65a>
80001006:	00492683          	lw	a3,4(s2)
8000100a:	45e2                	lw	a1,24(sp)
8000100c:	00069503          	lh	a0,0(a3)
80001010:	7e5020ef          	jal	ra,80003ff4 <crc16>
80001014:	000dad83          	lw	s11,0(s11)
80001018:	cc2a                	sw	a0,24(sp)
8000101a:	fe0d96e3          	bnez	s11,80001006 <core_bench_list+0x642>
8000101e:	40f6                	lw	ra,92(sp)
80001020:	4466                	lw	s0,88(sp)
80001022:	4562                	lw	a0,24(sp)
80001024:	44d6                	lw	s1,84(sp)
80001026:	4946                	lw	s2,80(sp)
80001028:	49b6                	lw	s3,76(sp)
8000102a:	4a26                	lw	s4,72(sp)
8000102c:	4a96                	lw	s5,68(sp)
8000102e:	4b06                	lw	s6,64(sp)
80001030:	5bf2                	lw	s7,60(sp)
80001032:	5c62                	lw	s8,56(sp)
80001034:	5cd2                	lw	s9,52(sp)
80001036:	5d42                	lw	s10,48(sp)
80001038:	5db2                	lw	s11,44(sp)
8000103a:	6125                	addi	sp,sp,96
8000103c:	8082                	ret
	...

80001040 <core_list_init>:
80001040:	47d1                	li	a5,20
80001042:	02f55533          	divu	a0,a0,a5
80001046:	7361                	lui	t1,0xffff8
80001048:	0005a023          	sw	zero,0(a1)
8000104c:	08030713          	addi	a4,t1,128 # ffff8080 <_sp+0x6ffe8080>
80001050:	01058e13          	addi	t3,a1,16
80001054:	00858793          	addi	a5,a1,8
80001058:	4681                	li	a3,0
8000105a:	ffe50e93          	addi	t4,a0,-2
8000105e:	003e9813          	slli	a6,t4,0x3
80001062:	982e                	add	a6,a6,a1
80001064:	0105a223          	sw	a6,4(a1)
80001068:	002e9893          	slli	a7,t4,0x2
8000106c:	00e81023          	sh	a4,0(a6)
80001070:	00081123          	sh	zero,2(a6)
80001074:	98c2                	add	a7,a7,a6
80001076:	00480713          	addi	a4,a6,4
8000107a:	010e7663          	bleu	a6,t3,80001086 <core_list_init+0x46>
8000107e:	00880293          	addi	t0,a6,8
80001082:	5512e163          	bltu	t0,a7,800015c4 <core_list_init+0x584>
80001086:	380e8d63          	beqz	t4,80001420 <core_list_init+0x3e0>
8000108a:	01061f93          	slli	t6,a2,0x10
8000108e:	7361                	lui	t1,0xffff8
80001090:	007ef293          	andi	t0,t4,7
80001094:	010fde13          	srli	t3,t6,0x10
80001098:	4501                	li	a0,0
8000109a:	fff34313          	not	t1,t1
8000109e:	12028963          	beqz	t0,800011d0 <core_list_init+0x190>
800010a2:	4385                	li	t2,1
800010a4:	0e728063          	beq	t0,t2,80001184 <core_list_init+0x144>
800010a8:	4f09                	li	t5,2
800010aa:	09e28963          	beq	t0,t5,8000113c <core_list_init+0xfc>
800010ae:	4f8d                	li	t6,3
800010b0:	07f28d63          	beq	t0,t6,8000112a <core_list_init+0xea>
800010b4:	4391                	li	t2,4
800010b6:	06728163          	beq	t0,t2,80001118 <core_list_init+0xd8>
800010ba:	4f15                	li	t5,5
800010bc:	05e28563          	beq	t0,t5,80001106 <core_list_init+0xc6>
800010c0:	4f99                	li	t6,6
800010c2:	03f28d63          	beq	t0,t6,800010fc <core_list_init+0xbc>
800010c6:	00878293          	addi	t0,a5,8
800010ca:	0302f863          	bleu	a6,t0,800010fa <core_list_init+0xba>
800010ce:	00470393          	addi	t2,a4,4
800010d2:	0313f463          	bleu	a7,t2,800010fa <core_list_init+0xba>
800010d6:	003e1513          	slli	a0,t3,0x3
800010da:	c394                	sw	a3,0(a5)
800010dc:	07857693          	andi	a3,a0,120
800010e0:	c19c                	sw	a5,0(a1)
800010e2:	00869f13          	slli	t5,a3,0x8
800010e6:	c3d8                	sw	a4,4(a5)
800010e8:	00df6fb3          	or	t6,t5,a3
800010ec:	01f71023          	sh	t6,0(a4)
800010f0:	00671123          	sh	t1,2(a4)
800010f4:	86be                	mv	a3,a5
800010f6:	871e                	mv	a4,t2
800010f8:	8796                	mv	a5,t0
800010fa:	4505                	li	a0,1
800010fc:	00878293          	addi	t0,a5,8
80001100:	5902e563          	bltu	t0,a6,8000168a <core_list_init+0x64a>
80001104:	0505                	addi	a0,a0,1
80001106:	00878293          	addi	t0,a5,8
8000110a:	0102f663          	bleu	a6,t0,80001116 <core_list_init+0xd6>
8000110e:	00470393          	addi	t2,a4,4
80001112:	5513e063          	bltu	t2,a7,80001652 <core_list_init+0x612>
80001116:	0505                	addi	a0,a0,1
80001118:	00878293          	addi	t0,a5,8
8000111c:	0102f663          	bleu	a6,t0,80001128 <core_list_init+0xe8>
80001120:	00470393          	addi	t2,a4,4
80001124:	4f13eb63          	bltu	t2,a7,8000161a <core_list_init+0x5da>
80001128:	0505                	addi	a0,a0,1
8000112a:	00878293          	addi	t0,a5,8
8000112e:	0102f663          	bleu	a6,t0,8000113a <core_list_init+0xfa>
80001132:	00470393          	addi	t2,a4,4
80001136:	4b13e663          	bltu	t2,a7,800015e2 <core_list_init+0x5a2>
8000113a:	0505                	addi	a0,a0,1
8000113c:	00878293          	addi	t0,a5,8
80001140:	0502f163          	bleu	a6,t0,80001182 <core_list_init+0x142>
80001144:	00470393          	addi	t2,a4,4
80001148:	0313fd63          	bleu	a7,t2,80001182 <core_list_init+0x142>
8000114c:	01051f13          	slli	t5,a0,0x10
80001150:	010f5f93          	srli	t6,t5,0x10
80001154:	01cfcf33          	xor	t5,t6,t3
80001158:	0f0e                	slli	t5,t5,0x3
8000115a:	078f7f13          	andi	t5,t5,120
8000115e:	007fff93          	andi	t6,t6,7
80001162:	c394                	sw	a3,0(a5)
80001164:	01ff66b3          	or	a3,t5,t6
80001168:	c19c                	sw	a5,0(a1)
8000116a:	00869f13          	slli	t5,a3,0x8
8000116e:	c3d8                	sw	a4,4(a5)
80001170:	00df6fb3          	or	t6,t5,a3
80001174:	01f71023          	sh	t6,0(a4)
80001178:	00671123          	sh	t1,2(a4)
8000117c:	86be                	mv	a3,a5
8000117e:	871e                	mv	a4,t2
80001180:	8796                	mv	a5,t0
80001182:	0505                	addi	a0,a0,1
80001184:	00878293          	addi	t0,a5,8
80001188:	0502f163          	bleu	a6,t0,800011ca <core_list_init+0x18a>
8000118c:	00470393          	addi	t2,a4,4
80001190:	0313fd63          	bleu	a7,t2,800011ca <core_list_init+0x18a>
80001194:	01051f13          	slli	t5,a0,0x10
80001198:	010f5f93          	srli	t6,t5,0x10
8000119c:	01cfcf33          	xor	t5,t6,t3
800011a0:	0f0e                	slli	t5,t5,0x3
800011a2:	078f7f13          	andi	t5,t5,120
800011a6:	007fff93          	andi	t6,t6,7
800011aa:	c394                	sw	a3,0(a5)
800011ac:	01ff66b3          	or	a3,t5,t6
800011b0:	c19c                	sw	a5,0(a1)
800011b2:	00869f13          	slli	t5,a3,0x8
800011b6:	c3d8                	sw	a4,4(a5)
800011b8:	00df6fb3          	or	t6,t5,a3
800011bc:	01f71023          	sh	t6,0(a4)
800011c0:	00671123          	sh	t1,2(a4)
800011c4:	86be                	mv	a3,a5
800011c6:	871e                	mv	a4,t2
800011c8:	8796                	mv	a5,t0
800011ca:	0505                	addi	a0,a0,1
800011cc:	24ae8a63          	beq	t4,a0,80001420 <core_list_init+0x3e0>
800011d0:	00878293          	addi	t0,a5,8
800011d4:	0502f163          	bleu	a6,t0,80001216 <core_list_init+0x1d6>
800011d8:	00470393          	addi	t2,a4,4
800011dc:	0313fd63          	bleu	a7,t2,80001216 <core_list_init+0x1d6>
800011e0:	01051f13          	slli	t5,a0,0x10
800011e4:	010f5f93          	srli	t6,t5,0x10
800011e8:	01cfcf33          	xor	t5,t6,t3
800011ec:	0f0e                	slli	t5,t5,0x3
800011ee:	078f7f13          	andi	t5,t5,120
800011f2:	007fff93          	andi	t6,t6,7
800011f6:	c394                	sw	a3,0(a5)
800011f8:	01ff66b3          	or	a3,t5,t6
800011fc:	c19c                	sw	a5,0(a1)
800011fe:	00869f13          	slli	t5,a3,0x8
80001202:	c3d8                	sw	a4,4(a5)
80001204:	00df6fb3          	or	t6,t5,a3
80001208:	01f71023          	sh	t6,0(a4)
8000120c:	00671123          	sh	t1,2(a4)
80001210:	86be                	mv	a3,a5
80001212:	871e                	mv	a4,t2
80001214:	8796                	mv	a5,t0
80001216:	00878293          	addi	t0,a5,8
8000121a:	0505                	addi	a0,a0,1
8000121c:	0502f163          	bleu	a6,t0,8000125e <core_list_init+0x21e>
80001220:	00470393          	addi	t2,a4,4
80001224:	0313fd63          	bleu	a7,t2,8000125e <core_list_init+0x21e>
80001228:	01051f13          	slli	t5,a0,0x10
8000122c:	010f5f93          	srli	t6,t5,0x10
80001230:	01cfcf33          	xor	t5,t6,t3
80001234:	0f0e                	slli	t5,t5,0x3
80001236:	078f7f13          	andi	t5,t5,120
8000123a:	007fff93          	andi	t6,t6,7
8000123e:	c394                	sw	a3,0(a5)
80001240:	01ff66b3          	or	a3,t5,t6
80001244:	c19c                	sw	a5,0(a1)
80001246:	00869f13          	slli	t5,a3,0x8
8000124a:	c3d8                	sw	a4,4(a5)
8000124c:	00df6fb3          	or	t6,t5,a3
80001250:	01f71023          	sh	t6,0(a4)
80001254:	00671123          	sh	t1,2(a4)
80001258:	86be                	mv	a3,a5
8000125a:	871e                	mv	a4,t2
8000125c:	8796                	mv	a5,t0
8000125e:	00878293          	addi	t0,a5,8
80001262:	00150f13          	addi	t5,a0,1
80001266:	0502f163          	bleu	a6,t0,800012a8 <core_list_init+0x268>
8000126a:	00470393          	addi	t2,a4,4
8000126e:	0313fd63          	bleu	a7,t2,800012a8 <core_list_init+0x268>
80001272:	010f1f93          	slli	t6,t5,0x10
80001276:	010fdf93          	srli	t6,t6,0x10
8000127a:	01cfcf33          	xor	t5,t6,t3
8000127e:	0f0e                	slli	t5,t5,0x3
80001280:	078f7f13          	andi	t5,t5,120
80001284:	007fff93          	andi	t6,t6,7
80001288:	c394                	sw	a3,0(a5)
8000128a:	01ff66b3          	or	a3,t5,t6
8000128e:	c19c                	sw	a5,0(a1)
80001290:	00869f13          	slli	t5,a3,0x8
80001294:	c3d8                	sw	a4,4(a5)
80001296:	00df6fb3          	or	t6,t5,a3
8000129a:	01f71023          	sh	t6,0(a4)
8000129e:	00671123          	sh	t1,2(a4)
800012a2:	86be                	mv	a3,a5
800012a4:	871e                	mv	a4,t2
800012a6:	8796                	mv	a5,t0
800012a8:	00878293          	addi	t0,a5,8
800012ac:	00250f13          	addi	t5,a0,2
800012b0:	0502f163          	bleu	a6,t0,800012f2 <core_list_init+0x2b2>
800012b4:	00470393          	addi	t2,a4,4
800012b8:	0313fd63          	bleu	a7,t2,800012f2 <core_list_init+0x2b2>
800012bc:	010f1f93          	slli	t6,t5,0x10
800012c0:	010fdf93          	srli	t6,t6,0x10
800012c4:	01cfcf33          	xor	t5,t6,t3
800012c8:	0f0e                	slli	t5,t5,0x3
800012ca:	078f7f13          	andi	t5,t5,120
800012ce:	007fff93          	andi	t6,t6,7
800012d2:	c394                	sw	a3,0(a5)
800012d4:	01ff66b3          	or	a3,t5,t6
800012d8:	c19c                	sw	a5,0(a1)
800012da:	00869f13          	slli	t5,a3,0x8
800012de:	c3d8                	sw	a4,4(a5)
800012e0:	00df6fb3          	or	t6,t5,a3
800012e4:	01f71023          	sh	t6,0(a4)
800012e8:	00671123          	sh	t1,2(a4)
800012ec:	86be                	mv	a3,a5
800012ee:	871e                	mv	a4,t2
800012f0:	8796                	mv	a5,t0
800012f2:	00878293          	addi	t0,a5,8
800012f6:	00350f13          	addi	t5,a0,3
800012fa:	0502f163          	bleu	a6,t0,8000133c <core_list_init+0x2fc>
800012fe:	00470393          	addi	t2,a4,4
80001302:	0313fd63          	bleu	a7,t2,8000133c <core_list_init+0x2fc>
80001306:	010f1f93          	slli	t6,t5,0x10
8000130a:	010fdf93          	srli	t6,t6,0x10
8000130e:	01cfcf33          	xor	t5,t6,t3
80001312:	0f0e                	slli	t5,t5,0x3
80001314:	078f7f13          	andi	t5,t5,120
80001318:	007fff93          	andi	t6,t6,7
8000131c:	c394                	sw	a3,0(a5)
8000131e:	01ff66b3          	or	a3,t5,t6
80001322:	c19c                	sw	a5,0(a1)
80001324:	00869f13          	slli	t5,a3,0x8
80001328:	c3d8                	sw	a4,4(a5)
8000132a:	00df6fb3          	or	t6,t5,a3
8000132e:	01f71023          	sh	t6,0(a4)
80001332:	00671123          	sh	t1,2(a4)
80001336:	86be                	mv	a3,a5
80001338:	871e                	mv	a4,t2
8000133a:	8796                	mv	a5,t0
8000133c:	00878293          	addi	t0,a5,8
80001340:	00450f13          	addi	t5,a0,4
80001344:	0502f163          	bleu	a6,t0,80001386 <core_list_init+0x346>
80001348:	00470393          	addi	t2,a4,4
8000134c:	0313fd63          	bleu	a7,t2,80001386 <core_list_init+0x346>
80001350:	010f1f93          	slli	t6,t5,0x10
80001354:	010fdf93          	srli	t6,t6,0x10
80001358:	01cfcf33          	xor	t5,t6,t3
8000135c:	0f0e                	slli	t5,t5,0x3
8000135e:	078f7f13          	andi	t5,t5,120
80001362:	007fff93          	andi	t6,t6,7
80001366:	c394                	sw	a3,0(a5)
80001368:	01ff66b3          	or	a3,t5,t6
8000136c:	c19c                	sw	a5,0(a1)
8000136e:	00869f13          	slli	t5,a3,0x8
80001372:	c3d8                	sw	a4,4(a5)
80001374:	00df6fb3          	or	t6,t5,a3
80001378:	01f71023          	sh	t6,0(a4)
8000137c:	00671123          	sh	t1,2(a4)
80001380:	86be                	mv	a3,a5
80001382:	871e                	mv	a4,t2
80001384:	8796                	mv	a5,t0
80001386:	00878293          	addi	t0,a5,8
8000138a:	00550f13          	addi	t5,a0,5
8000138e:	0502f163          	bleu	a6,t0,800013d0 <core_list_init+0x390>
80001392:	00470393          	addi	t2,a4,4
80001396:	0313fd63          	bleu	a7,t2,800013d0 <core_list_init+0x390>
8000139a:	010f1f93          	slli	t6,t5,0x10
8000139e:	010fdf93          	srli	t6,t6,0x10
800013a2:	01cfcf33          	xor	t5,t6,t3
800013a6:	0f0e                	slli	t5,t5,0x3
800013a8:	078f7f13          	andi	t5,t5,120
800013ac:	007fff93          	andi	t6,t6,7
800013b0:	c394                	sw	a3,0(a5)
800013b2:	01ff66b3          	or	a3,t5,t6
800013b6:	c19c                	sw	a5,0(a1)
800013b8:	00869f13          	slli	t5,a3,0x8
800013bc:	c3d8                	sw	a4,4(a5)
800013be:	00df6fb3          	or	t6,t5,a3
800013c2:	01f71023          	sh	t6,0(a4)
800013c6:	00671123          	sh	t1,2(a4)
800013ca:	86be                	mv	a3,a5
800013cc:	871e                	mv	a4,t2
800013ce:	8796                	mv	a5,t0
800013d0:	00878293          	addi	t0,a5,8
800013d4:	00650f13          	addi	t5,a0,6
800013d8:	0502f163          	bleu	a6,t0,8000141a <core_list_init+0x3da>
800013dc:	00470393          	addi	t2,a4,4
800013e0:	0313fd63          	bleu	a7,t2,8000141a <core_list_init+0x3da>
800013e4:	010f1f93          	slli	t6,t5,0x10
800013e8:	010fdf93          	srli	t6,t6,0x10
800013ec:	01cfcf33          	xor	t5,t6,t3
800013f0:	0f0e                	slli	t5,t5,0x3
800013f2:	078f7f13          	andi	t5,t5,120
800013f6:	007fff93          	andi	t6,t6,7
800013fa:	c394                	sw	a3,0(a5)
800013fc:	01ff66b3          	or	a3,t5,t6
80001400:	c19c                	sw	a5,0(a1)
80001402:	00869f13          	slli	t5,a3,0x8
80001406:	c3d8                	sw	a4,4(a5)
80001408:	00df6fb3          	or	t6,t5,a3
8000140c:	01f71023          	sh	t6,0(a4)
80001410:	00671123          	sh	t1,2(a4)
80001414:	86be                	mv	a3,a5
80001416:	871e                	mv	a4,t2
80001418:	8796                	mv	a5,t0
8000141a:	051d                	addi	a0,a0,7
8000141c:	daae9ae3          	bne	t4,a0,800011d0 <core_list_init+0x190>
80001420:	4815                	li	a6,5
80001422:	6891                	lui	a7,0x4
80001424:	030ed533          	divu	a0,t4,a6
80001428:	4705                	li	a4,1
8000142a:	20000813          	li	a6,512
8000142e:	18fd                	addi	a7,a7,-1
80001430:	a819                	j	80001446 <core_list_init+0x406>
80001432:	00e29123          	sh	a4,2(t0) # fffff002 <_sp+0x6ffef002>
80001436:	10080793          	addi	a5,a6,256
8000143a:	01079e93          	slli	t4,a5,0x10
8000143e:	0705                	addi	a4,a4,1
80001440:	010ed813          	srli	a6,t4,0x10
80001444:	86f2                	mv	a3,t3
80001446:	0006ae03          	lw	t3,0(a3)
8000144a:	020e0163          	beqz	t3,8000146c <core_list_init+0x42c>
8000144e:	0046a283          	lw	t0,4(a3)
80001452:	fea760e3          	bltu	a4,a0,80001432 <core_list_init+0x3f2>
80001456:	70087393          	andi	t2,a6,1792
8000145a:	00c74333          	xor	t1,a4,a2
8000145e:	0063efb3          	or	t6,t2,t1
80001462:	011fff33          	and	t5,t6,a7
80001466:	01e29123          	sh	t5,2(t0)
8000146a:	b7f1                	j	80001436 <core_list_init+0x3f6>
8000146c:	4505                	li	a0,1
8000146e:	4385                	li	t2,1
80001470:	88ae                	mv	a7,a1
80001472:	4681                	li	a3,0
80001474:	4581                	li	a1,0
80001476:	4281                	li	t0,0
80001478:	00757e93          	andi	t4,a0,7
8000147c:	0285                	addi	t0,t0,1
8000147e:	87c6                	mv	a5,a7
80001480:	4601                	li	a2,0
80001482:	040e8c63          	beqz	t4,800014da <core_list_init+0x49a>
80001486:	4305                	li	t1,1
80001488:	046e8463          	beq	t4,t1,800014d0 <core_list_init+0x490>
8000148c:	4f09                	li	t5,2
8000148e:	03ee8e63          	beq	t4,t5,800014ca <core_list_init+0x48a>
80001492:	4f8d                	li	t6,3
80001494:	03fe8863          	beq	t4,t6,800014c4 <core_list_init+0x484>
80001498:	4711                	li	a4,4
8000149a:	02ee8263          	beq	t4,a4,800014be <core_list_init+0x47e>
8000149e:	4815                	li	a6,5
800014a0:	010e8c63          	beq	t4,a6,800014b8 <core_list_init+0x478>
800014a4:	4e19                	li	t3,6
800014a6:	01ce8663          	beq	t4,t3,800014b2 <core_list_init+0x472>
800014aa:	0008a783          	lw	a5,0(a7) # 4000 <__stack_size+0x3800>
800014ae:	4605                	li	a2,1
800014b0:	c7a5                	beqz	a5,80001518 <core_list_init+0x4d8>
800014b2:	439c                	lw	a5,0(a5)
800014b4:	0605                	addi	a2,a2,1
800014b6:	c3ad                	beqz	a5,80001518 <core_list_init+0x4d8>
800014b8:	439c                	lw	a5,0(a5)
800014ba:	0605                	addi	a2,a2,1
800014bc:	cfb1                	beqz	a5,80001518 <core_list_init+0x4d8>
800014be:	439c                	lw	a5,0(a5)
800014c0:	0605                	addi	a2,a2,1
800014c2:	cbb9                	beqz	a5,80001518 <core_list_init+0x4d8>
800014c4:	439c                	lw	a5,0(a5)
800014c6:	0605                	addi	a2,a2,1
800014c8:	cba1                	beqz	a5,80001518 <core_list_init+0x4d8>
800014ca:	439c                	lw	a5,0(a5)
800014cc:	0605                	addi	a2,a2,1
800014ce:	c7a9                	beqz	a5,80001518 <core_list_init+0x4d8>
800014d0:	439c                	lw	a5,0(a5)
800014d2:	0605                	addi	a2,a2,1
800014d4:	c3b1                	beqz	a5,80001518 <core_list_init+0x4d8>
800014d6:	04a60163          	beq	a2,a0,80001518 <core_list_init+0x4d8>
800014da:	439c                	lw	a5,0(a5)
800014dc:	0605                	addi	a2,a2,1
800014de:	8eb2                	mv	t4,a2
800014e0:	cf85                	beqz	a5,80001518 <core_list_init+0x4d8>
800014e2:	439c                	lw	a5,0(a5)
800014e4:	0605                	addi	a2,a2,1
800014e6:	cb8d                	beqz	a5,80001518 <core_list_init+0x4d8>
800014e8:	439c                	lw	a5,0(a5)
800014ea:	002e8613          	addi	a2,t4,2
800014ee:	c78d                	beqz	a5,80001518 <core_list_init+0x4d8>
800014f0:	439c                	lw	a5,0(a5)
800014f2:	003e8613          	addi	a2,t4,3
800014f6:	c38d                	beqz	a5,80001518 <core_list_init+0x4d8>
800014f8:	439c                	lw	a5,0(a5)
800014fa:	004e8613          	addi	a2,t4,4
800014fe:	cf89                	beqz	a5,80001518 <core_list_init+0x4d8>
80001500:	439c                	lw	a5,0(a5)
80001502:	005e8613          	addi	a2,t4,5
80001506:	cb89                	beqz	a5,80001518 <core_list_init+0x4d8>
80001508:	439c                	lw	a5,0(a5)
8000150a:	006e8613          	addi	a2,t4,6
8000150e:	c789                	beqz	a5,80001518 <core_list_init+0x4d8>
80001510:	439c                	lw	a5,0(a5)
80001512:	007e8613          	addi	a2,t4,7
80001516:	f3e1                	bnez	a5,800014d6 <core_list_init+0x496>
80001518:	882a                	mv	a6,a0
8000151a:	c625                	beqz	a2,80001582 <core_list_init+0x542>
8000151c:	06080e63          	beqz	a6,80001598 <core_list_init+0x558>
80001520:	cfa5                	beqz	a5,80001598 <core_list_init+0x558>
80001522:	0048ae83          	lw	t4,4(a7)
80001526:	0047ae03          	lw	t3,4(a5)
8000152a:	000e9703          	lh	a4,0(t4)
8000152e:	002e1f83          	lh	t6,2(t3)
80001532:	002e9303          	lh	t1,2(t4)
80001536:	01071f13          	slli	t5,a4,0x10
8000153a:	010f5f13          	srli	t5,t5,0x10
8000153e:	008f5f13          	srli	t5,t5,0x8
80001542:	f0077713          	andi	a4,a4,-256
80001546:	01e76733          	or	a4,a4,t5
8000154a:	00ee9023          	sh	a4,0(t4)
8000154e:	000e1f03          	lh	t5,0(t3)
80001552:	41f30333          	sub	t1,t1,t6
80001556:	010f1e93          	slli	t4,t5,0x10
8000155a:	010edf93          	srli	t6,t4,0x10
8000155e:	f00f7713          	andi	a4,t5,-256
80001562:	008fdf13          	srli	t5,t6,0x8
80001566:	01e76eb3          	or	t4,a4,t5
8000156a:	01de1023          	sh	t4,0(t3)
8000156e:	02605563          	blez	t1,80001598 <core_list_init+0x558>
80001572:	8e3e                	mv	t3,a5
80001574:	439c                	lw	a5,0(a5)
80001576:	187d                	addi	a6,a6,-1
80001578:	ce81                	beqz	a3,80001590 <core_list_init+0x550>
8000157a:	01c6a023          	sw	t3,0(a3)
8000157e:	86f2                	mv	a3,t3
80001580:	fe51                	bnez	a2,8000151c <core_list_init+0x4dc>
80001582:	02080163          	beqz	a6,800015a4 <core_list_init+0x564>
80001586:	c39d                	beqz	a5,800015ac <core_list_init+0x56c>
80001588:	8e3e                	mv	t3,a5
8000158a:	187d                	addi	a6,a6,-1
8000158c:	439c                	lw	a5,0(a5)
8000158e:	f6f5                	bnez	a3,8000157a <core_list_init+0x53a>
80001590:	85f2                	mv	a1,t3
80001592:	86f2                	mv	a3,t3
80001594:	b7f5                	j	80001580 <core_list_init+0x540>
80001596:	0001                	nop
80001598:	8e46                	mv	t3,a7
8000159a:	167d                	addi	a2,a2,-1
8000159c:	0008a883          	lw	a7,0(a7)
800015a0:	bfe1                	j	80001578 <core_list_init+0x538>
800015a2:	0001                	nop
800015a4:	88be                	mv	a7,a5
800015a6:	ec0799e3          	bnez	a5,80001478 <core_list_init+0x438>
800015aa:	0001                	nop
800015ac:	0006a023          	sw	zero,0(a3)
800015b0:	00728863          	beq	t0,t2,800015c0 <core_list_init+0x580>
800015b4:	0506                	slli	a0,a0,0x1
800015b6:	ea059de3          	bnez	a1,80001470 <core_list_init+0x430>
800015ba:	00002023          	sw	zero,0(zero) # 0 <__stack_size-0x800>
800015be:	9002                	ebreak
800015c0:	852e                	mv	a0,a1
800015c2:	8082                	ret
800015c4:	c19c                	sw	a5,0(a1)
800015c6:	c5d8                	sw	a4,12(a1)
800015c8:	0005a423          	sw	zero,8(a1)
800015cc:	fff34393          	not	t2,t1
800015d0:	5f7d                	li	t5,-1
800015d2:	86be                	mv	a3,a5
800015d4:	01e81223          	sh	t5,4(a6)
800015d8:	00781323          	sh	t2,6(a6)
800015dc:	8716                	mv	a4,t0
800015de:	87f2                	mv	a5,t3
800015e0:	b45d                	j	80001086 <core_list_init+0x46>
800015e2:	01051f13          	slli	t5,a0,0x10
800015e6:	010f5f93          	srli	t6,t5,0x10
800015ea:	01cfcf33          	xor	t5,t6,t3
800015ee:	0f0e                	slli	t5,t5,0x3
800015f0:	078f7f13          	andi	t5,t5,120
800015f4:	007fff93          	andi	t6,t6,7
800015f8:	c394                	sw	a3,0(a5)
800015fa:	01ff66b3          	or	a3,t5,t6
800015fe:	c19c                	sw	a5,0(a1)
80001600:	00869f13          	slli	t5,a3,0x8
80001604:	c3d8                	sw	a4,4(a5)
80001606:	00df6fb3          	or	t6,t5,a3
8000160a:	01f71023          	sh	t6,0(a4)
8000160e:	00671123          	sh	t1,2(a4)
80001612:	86be                	mv	a3,a5
80001614:	871e                	mv	a4,t2
80001616:	8796                	mv	a5,t0
80001618:	b60d                	j	8000113a <core_list_init+0xfa>
8000161a:	01051f13          	slli	t5,a0,0x10
8000161e:	010f5f93          	srli	t6,t5,0x10
80001622:	01cfcf33          	xor	t5,t6,t3
80001626:	0f0e                	slli	t5,t5,0x3
80001628:	078f7f13          	andi	t5,t5,120
8000162c:	007fff93          	andi	t6,t6,7
80001630:	c394                	sw	a3,0(a5)
80001632:	01ff66b3          	or	a3,t5,t6
80001636:	c19c                	sw	a5,0(a1)
80001638:	00869f13          	slli	t5,a3,0x8
8000163c:	c3d8                	sw	a4,4(a5)
8000163e:	00df6fb3          	or	t6,t5,a3
80001642:	01f71023          	sh	t6,0(a4)
80001646:	00671123          	sh	t1,2(a4)
8000164a:	86be                	mv	a3,a5
8000164c:	871e                	mv	a4,t2
8000164e:	8796                	mv	a5,t0
80001650:	bce1                	j	80001128 <core_list_init+0xe8>
80001652:	01051f13          	slli	t5,a0,0x10
80001656:	010f5f93          	srli	t6,t5,0x10
8000165a:	01cfcf33          	xor	t5,t6,t3
8000165e:	0f0e                	slli	t5,t5,0x3
80001660:	078f7f13          	andi	t5,t5,120
80001664:	007fff93          	andi	t6,t6,7
80001668:	c394                	sw	a3,0(a5)
8000166a:	01ff66b3          	or	a3,t5,t6
8000166e:	c19c                	sw	a5,0(a1)
80001670:	00869f13          	slli	t5,a3,0x8
80001674:	c3d8                	sw	a4,4(a5)
80001676:	00df6fb3          	or	t6,t5,a3
8000167a:	01f71023          	sh	t6,0(a4)
8000167e:	00671123          	sh	t1,2(a4)
80001682:	86be                	mv	a3,a5
80001684:	871e                	mv	a4,t2
80001686:	8796                	mv	a5,t0
80001688:	b479                	j	80001116 <core_list_init+0xd6>
8000168a:	00470393          	addi	t2,a4,4
8000168e:	a713fbe3          	bleu	a7,t2,80001104 <core_list_init+0xc4>
80001692:	01051f13          	slli	t5,a0,0x10
80001696:	010f5f93          	srli	t6,t5,0x10
8000169a:	01cfcf33          	xor	t5,t6,t3
8000169e:	0f0e                	slli	t5,t5,0x3
800016a0:	078f7f13          	andi	t5,t5,120
800016a4:	007fff93          	andi	t6,t6,7
800016a8:	c394                	sw	a3,0(a5)
800016aa:	01ff66b3          	or	a3,t5,t6
800016ae:	c19c                	sw	a5,0(a1)
800016b0:	00869f13          	slli	t5,a3,0x8
800016b4:	c3d8                	sw	a4,4(a5)
800016b6:	00df6fb3          	or	t6,t5,a3
800016ba:	01f71023          	sh	t6,0(a4)
800016be:	00671123          	sh	t1,2(a4)
800016c2:	86be                	mv	a3,a5
800016c4:	871e                	mv	a4,t2
800016c6:	8796                	mv	a5,t0
800016c8:	bc35                	j	80001104 <core_list_init+0xc4>
	...

800016cc <iterate>:
800016cc:	1101                	addi	sp,sp,-32
800016ce:	c64e                	sw	s3,12(sp)
800016d0:	01c52983          	lw	s3,28(a0)
800016d4:	ce06                	sw	ra,28(sp)
800016d6:	cc22                	sw	s0,24(sp)
800016d8:	ca26                	sw	s1,20(sp)
800016da:	c84a                	sw	s2,16(sp)
800016dc:	c452                	sw	s4,8(sp)
800016de:	c256                	sw	s5,4(sp)
800016e0:	02052c23          	sw	zero,56(a0)
800016e4:	02052e23          	sw	zero,60(a0)
800016e8:	16098663          	beqz	s3,80001854 <iterate+0x188>
800016ec:	0039f793          	andi	a5,s3,3
800016f0:	842a                	mv	s0,a0
800016f2:	4481                	li	s1,0
800016f4:	cfc9                	beqz	a5,8000178e <iterate+0xc2>
800016f6:	4705                	li	a4,1
800016f8:	06e78263          	beq	a5,a4,8000175c <iterate+0x90>
800016fc:	4089                	li	ra,2
800016fe:	02178863          	beq	a5,ra,8000172e <iterate+0x62>
80001702:	4585                	li	a1,1
80001704:	ac0ff0ef          	jal	ra,800009c4 <core_bench_list>
80001708:	03845583          	lhu	a1,56(s0)
8000170c:	4485                	li	s1,1
8000170e:	1d6020ef          	jal	ra,800038e4 <crcu16>
80001712:	02a41c23          	sh	a0,56(s0)
80001716:	55fd                	li	a1,-1
80001718:	8522                	mv	a0,s0
8000171a:	aaaff0ef          	jal	ra,800009c4 <core_bench_list>
8000171e:	03845583          	lhu	a1,56(s0)
80001722:	1c2020ef          	jal	ra,800038e4 <crcu16>
80001726:	02a41c23          	sh	a0,56(s0)
8000172a:	02a41d23          	sh	a0,58(s0)
8000172e:	4585                	li	a1,1
80001730:	8522                	mv	a0,s0
80001732:	a92ff0ef          	jal	ra,800009c4 <core_bench_list>
80001736:	03845583          	lhu	a1,56(s0)
8000173a:	1aa020ef          	jal	ra,800038e4 <crcu16>
8000173e:	02a41c23          	sh	a0,56(s0)
80001742:	55fd                	li	a1,-1
80001744:	8522                	mv	a0,s0
80001746:	a7eff0ef          	jal	ra,800009c4 <core_bench_list>
8000174a:	03845583          	lhu	a1,56(s0)
8000174e:	196020ef          	jal	ra,800038e4 <crcu16>
80001752:	02a41c23          	sh	a0,56(s0)
80001756:	10048e63          	beqz	s1,80001872 <iterate+0x1a6>
8000175a:	0485                	addi	s1,s1,1
8000175c:	4585                	li	a1,1
8000175e:	8522                	mv	a0,s0
80001760:	a64ff0ef          	jal	ra,800009c4 <core_bench_list>
80001764:	03845583          	lhu	a1,56(s0)
80001768:	17c020ef          	jal	ra,800038e4 <crcu16>
8000176c:	02a41c23          	sh	a0,56(s0)
80001770:	55fd                	li	a1,-1
80001772:	8522                	mv	a0,s0
80001774:	a50ff0ef          	jal	ra,800009c4 <core_bench_list>
80001778:	03845583          	lhu	a1,56(s0)
8000177c:	168020ef          	jal	ra,800038e4 <crcu16>
80001780:	02a41c23          	sh	a0,56(s0)
80001784:	10048863          	beqz	s1,80001894 <iterate+0x1c8>
80001788:	0485                	addi	s1,s1,1
8000178a:	0c998563          	beq	s3,s1,80001854 <iterate+0x188>
8000178e:	4585                	li	a1,1
80001790:	8522                	mv	a0,s0
80001792:	a32ff0ef          	jal	ra,800009c4 <core_bench_list>
80001796:	03845583          	lhu	a1,56(s0)
8000179a:	00148913          	addi	s2,s1,1
8000179e:	146020ef          	jal	ra,800038e4 <crcu16>
800017a2:	02a41c23          	sh	a0,56(s0)
800017a6:	55fd                	li	a1,-1
800017a8:	8522                	mv	a0,s0
800017aa:	a1aff0ef          	jal	ra,800009c4 <core_bench_list>
800017ae:	03845583          	lhu	a1,56(s0)
800017b2:	132020ef          	jal	ra,800038e4 <crcu16>
800017b6:	82aa                	mv	t0,a0
800017b8:	02541c23          	sh	t0,56(s0)
800017bc:	4585                	li	a1,1
800017be:	8522                	mv	a0,s0
800017c0:	ccd5                	beqz	s1,8000187c <iterate+0x1b0>
800017c2:	a02ff0ef          	jal	ra,800009c4 <core_bench_list>
800017c6:	03845583          	lhu	a1,56(s0)
800017ca:	11a020ef          	jal	ra,800038e4 <crcu16>
800017ce:	02a41c23          	sh	a0,56(s0)
800017d2:	55fd                	li	a1,-1
800017d4:	8522                	mv	a0,s0
800017d6:	9eeff0ef          	jal	ra,800009c4 <core_bench_list>
800017da:	03845583          	lhu	a1,56(s0)
800017de:	106020ef          	jal	ra,800038e4 <crcu16>
800017e2:	02a41c23          	sh	a0,56(s0)
800017e6:	0a090363          	beqz	s2,8000188c <iterate+0x1c0>
800017ea:	4585                	li	a1,1
800017ec:	8522                	mv	a0,s0
800017ee:	9d6ff0ef          	jal	ra,800009c4 <core_bench_list>
800017f2:	03845583          	lhu	a1,56(s0)
800017f6:	00190a93          	addi	s5,s2,1
800017fa:	00290a13          	addi	s4,s2,2
800017fe:	0e6020ef          	jal	ra,800038e4 <crcu16>
80001802:	02a41c23          	sh	a0,56(s0)
80001806:	55fd                	li	a1,-1
80001808:	8522                	mv	a0,s0
8000180a:	9baff0ef          	jal	ra,800009c4 <core_bench_list>
8000180e:	03845583          	lhu	a1,56(s0)
80001812:	00390493          	addi	s1,s2,3
80001816:	0ce020ef          	jal	ra,800038e4 <crcu16>
8000181a:	832a                	mv	t1,a0
8000181c:	02641c23          	sh	t1,56(s0)
80001820:	4585                	li	a1,1
80001822:	8522                	mv	a0,s0
80001824:	060a8063          	beqz	s5,80001884 <iterate+0x1b8>
80001828:	99cff0ef          	jal	ra,800009c4 <core_bench_list>
8000182c:	03845583          	lhu	a1,56(s0)
80001830:	0b4020ef          	jal	ra,800038e4 <crcu16>
80001834:	02a41c23          	sh	a0,56(s0)
80001838:	55fd                	li	a1,-1
8000183a:	8522                	mv	a0,s0
8000183c:	988ff0ef          	jal	ra,800009c4 <core_bench_list>
80001840:	03845583          	lhu	a1,56(s0)
80001844:	0a0020ef          	jal	ra,800038e4 <crcu16>
80001848:	02a41c23          	sh	a0,56(s0)
8000184c:	000a0e63          	beqz	s4,80001868 <iterate+0x19c>
80001850:	f2999fe3          	bne	s3,s1,8000178e <iterate+0xc2>
80001854:	40f2                	lw	ra,28(sp)
80001856:	4462                	lw	s0,24(sp)
80001858:	44d2                	lw	s1,20(sp)
8000185a:	4942                	lw	s2,16(sp)
8000185c:	49b2                	lw	s3,12(sp)
8000185e:	4a22                	lw	s4,8(sp)
80001860:	4a92                	lw	s5,4(sp)
80001862:	4501                	li	a0,0
80001864:	6105                	addi	sp,sp,32
80001866:	8082                	ret
80001868:	02a41d23          	sh	a0,58(s0)
8000186c:	f29991e3          	bne	s3,s1,8000178e <iterate+0xc2>
80001870:	b7d5                	j	80001854 <iterate+0x188>
80001872:	02a41d23          	sh	a0,58(s0)
80001876:	0485                	addi	s1,s1,1
80001878:	b5d5                	j	8000175c <iterate+0x90>
8000187a:	0001                	nop
8000187c:	02541d23          	sh	t0,58(s0)
80001880:	b789                	j	800017c2 <iterate+0xf6>
80001882:	0001                	nop
80001884:	02641d23          	sh	t1,58(s0)
80001888:	b745                	j	80001828 <iterate+0x15c>
8000188a:	0001                	nop
8000188c:	02a41d23          	sh	a0,58(s0)
80001890:	bfa9                	j	800017ea <iterate+0x11e>
80001892:	0001                	nop
80001894:	02a41d23          	sh	a0,58(s0)
80001898:	bdc5                	j	80001788 <iterate+0xbc>
	...

8000189c <matrix_test>:
8000189c:	711d                	addi	sp,sp,-96
8000189e:	c6ce                	sw	s3,76(sp)
800018a0:	ce86                	sw	ra,92(sp)
800018a2:	79fd                	lui	s3,0xfffff
800018a4:	cca2                	sw	s0,88(sp)
800018a6:	caa6                	sw	s1,84(sp)
800018a8:	c8ca                	sw	s2,80(sp)
800018aa:	c4d2                	sw	s4,72(sp)
800018ac:	c2d6                	sw	s5,68(sp)
800018ae:	c0da                	sw	s6,64(sp)
800018b0:	de5e                	sw	s7,60(sp)
800018b2:	dc62                	sw	s8,56(sp)
800018b4:	da66                	sw	s9,52(sp)
800018b6:	d86a                	sw	s10,48(sp)
800018b8:	d66e                	sw	s11,44(sp)
800018ba:	c02e                	sw	a1,0(sp)
800018bc:	c232                	sw	a2,4(sp)
800018be:	c436                	sw	a3,8(sp)
800018c0:	013769b3          	or	s3,a4,s3
800018c4:	e119                	bnez	a0,800018ca <matrix_test+0x2e>
800018c6:	33e0106f          	j	80002c04 <matrix_test+0x1368>
800018ca:	01071a93          	slli	s5,a4,0x10
800018ce:	882a                	mv	a6,a0
800018d0:	010ada93          	srli	s5,s5,0x10
800018d4:	00151413          	slli	s0,a0,0x1
800018d8:	8bb2                	mv	s7,a2
800018da:	86b2                	mv	a3,a2
800018dc:	4481                	li	s1,0
800018de:	0001                	nop
800018e0:	ffe40793          	addi	a5,s0,-2
800018e4:	0017d093          	srli	ra,a5,0x1
800018e8:	00108293          	addi	t0,ra,1
800018ec:	0072f313          	andi	t1,t0,7
800018f0:	00d40633          	add	a2,s0,a3
800018f4:	08030763          	beqz	t1,80001982 <matrix_test+0xe6>
800018f8:	4585                	li	a1,1
800018fa:	06b30b63          	beq	t1,a1,80001970 <matrix_test+0xd4>
800018fe:	4389                	li	t2,2
80001900:	06730163          	beq	t1,t2,80001962 <matrix_test+0xc6>
80001904:	450d                	li	a0,3
80001906:	04a30763          	beq	t1,a0,80001954 <matrix_test+0xb8>
8000190a:	4891                	li	a7,4
8000190c:	03130d63          	beq	t1,a7,80001946 <matrix_test+0xaa>
80001910:	4915                	li	s2,5
80001912:	03230363          	beq	t1,s2,80001938 <matrix_test+0x9c>
80001916:	4a19                	li	s4,6
80001918:	01430963          	beq	t1,s4,8000192a <matrix_test+0x8e>
8000191c:	0006db03          	lhu	s6,0(a3)
80001920:	0689                	addi	a3,a3,2
80001922:	016a8c33          	add	s8,s5,s6
80001926:	ff869f23          	sh	s8,-2(a3)
8000192a:	0006dc83          	lhu	s9,0(a3)
8000192e:	0689                	addi	a3,a3,2
80001930:	019a8d33          	add	s10,s5,s9
80001934:	ffa69f23          	sh	s10,-2(a3)
80001938:	0006dd83          	lhu	s11,0(a3)
8000193c:	0689                	addi	a3,a3,2
8000193e:	01ba8e33          	add	t3,s5,s11
80001942:	ffc69f23          	sh	t3,-2(a3)
80001946:	0006de83          	lhu	t4,0(a3)
8000194a:	0689                	addi	a3,a3,2
8000194c:	01da8f33          	add	t5,s5,t4
80001950:	ffe69f23          	sh	t5,-2(a3)
80001954:	0006df83          	lhu	t6,0(a3)
80001958:	0689                	addi	a3,a3,2
8000195a:	01fa87b3          	add	a5,s5,t6
8000195e:	fef69f23          	sh	a5,-2(a3)
80001962:	0006d083          	lhu	ra,0(a3)
80001966:	0689                	addi	a3,a3,2
80001968:	001a82b3          	add	t0,s5,ra
8000196c:	fe569f23          	sh	t0,-2(a3)
80001970:	0006d303          	lhu	t1,0(a3)
80001974:	0689                	addi	a3,a3,2
80001976:	006a85b3          	add	a1,s5,t1
8000197a:	feb69f23          	sh	a1,-2(a3)
8000197e:	06d60563          	beq	a2,a3,800019e8 <matrix_test+0x14c>
80001982:	0006d383          	lhu	t2,0(a3)
80001986:	0026d903          	lhu	s2,2(a3)
8000198a:	0046da03          	lhu	s4,4(a3)
8000198e:	0066db03          	lhu	s6,6(a3)
80001992:	0086d883          	lhu	a7,8(a3)
80001996:	00a6d503          	lhu	a0,10(a3)
8000199a:	00c6dc03          	lhu	s8,12(a3)
8000199e:	00e6dc83          	lhu	s9,14(a3)
800019a2:	007a8d33          	add	s10,s5,t2
800019a6:	012a8db3          	add	s11,s5,s2
800019aa:	014a8e33          	add	t3,s5,s4
800019ae:	016a8eb3          	add	t4,s5,s6
800019b2:	011a8f33          	add	t5,s5,a7
800019b6:	00aa8fb3          	add	t6,s5,a0
800019ba:	018a80b3          	add	ra,s5,s8
800019be:	019a87b3          	add	a5,s5,s9
800019c2:	01a69023          	sh	s10,0(a3)
800019c6:	01b69123          	sh	s11,2(a3)
800019ca:	01c69223          	sh	t3,4(a3)
800019ce:	01d69323          	sh	t4,6(a3)
800019d2:	01e69423          	sh	t5,8(a3)
800019d6:	01f69523          	sh	t6,10(a3)
800019da:	00169623          	sh	ra,12(a3)
800019de:	00f69723          	sh	a5,14(a3)
800019e2:	06c1                	addi	a3,a3,16
800019e4:	f8d61fe3          	bne	a2,a3,80001982 <matrix_test+0xe6>
800019e8:	0485                	addi	s1,s1,1
800019ea:	86b2                	mv	a3,a2
800019ec:	ee981ae3          	bne	a6,s1,800018e0 <matrix_test+0x44>
800019f0:	4502                	lw	a0,0(sp)
800019f2:	4692                	lw	a3,4(sp)
800019f4:	00249b13          	slli	s6,s1,0x2
800019f8:	c82a                	sw	a0,16(sp)
800019fa:	4801                	li	a6,0
800019fc:	ffe40613          	addi	a2,s0,-2
80001a00:	00165293          	srli	t0,a2,0x1
80001a04:	00128313          	addi	t1,t0,1
80001a08:	00737393          	andi	t2,t1,7
80001a0c:	87aa                	mv	a5,a0
80001a0e:	00d405b3          	add	a1,s0,a3
80001a12:	08038f63          	beqz	t2,80001ab0 <matrix_test+0x214>
80001a16:	4905                	li	s2,1
80001a18:	09238263          	beq	t2,s2,80001a9c <matrix_test+0x200>
80001a1c:	4a09                	li	s4,2
80001a1e:	07438763          	beq	t2,s4,80001a8c <matrix_test+0x1f0>
80001a22:	488d                	li	a7,3
80001a24:	05138c63          	beq	t2,a7,80001a7c <matrix_test+0x1e0>
80001a28:	4c11                	li	s8,4
80001a2a:	05838163          	beq	t2,s8,80001a6c <matrix_test+0x1d0>
80001a2e:	4c95                	li	s9,5
80001a30:	03938663          	beq	t2,s9,80001a5c <matrix_test+0x1c0>
80001a34:	4d19                	li	s10,6
80001a36:	01a38b63          	beq	t2,s10,80001a4c <matrix_test+0x1b0>
80001a3a:	00069d83          	lh	s11,0(a3)
80001a3e:	00450793          	addi	a5,a0,4
80001a42:	0689                	addi	a3,a3,2
80001a44:	02ed8e33          	mul	t3,s11,a4
80001a48:	01c52023          	sw	t3,0(a0)
80001a4c:	00069e83          	lh	t4,0(a3)
80001a50:	0791                	addi	a5,a5,4
80001a52:	0689                	addi	a3,a3,2
80001a54:	02ee8f33          	mul	t5,t4,a4
80001a58:	ffe7ae23          	sw	t5,-4(a5)
80001a5c:	00069f83          	lh	t6,0(a3)
80001a60:	0791                	addi	a5,a5,4
80001a62:	0689                	addi	a3,a3,2
80001a64:	02ef80b3          	mul	ra,t6,a4
80001a68:	fe17ae23          	sw	ra,-4(a5)
80001a6c:	00069603          	lh	a2,0(a3)
80001a70:	0791                	addi	a5,a5,4
80001a72:	0689                	addi	a3,a3,2
80001a74:	02e602b3          	mul	t0,a2,a4
80001a78:	fe57ae23          	sw	t0,-4(a5)
80001a7c:	00069303          	lh	t1,0(a3)
80001a80:	0791                	addi	a5,a5,4
80001a82:	0689                	addi	a3,a3,2
80001a84:	02e303b3          	mul	t2,t1,a4
80001a88:	fe77ae23          	sw	t2,-4(a5)
80001a8c:	00069903          	lh	s2,0(a3)
80001a90:	0791                	addi	a5,a5,4
80001a92:	0689                	addi	a3,a3,2
80001a94:	02e90a33          	mul	s4,s2,a4
80001a98:	ff47ae23          	sw	s4,-4(a5)
80001a9c:	00069883          	lh	a7,0(a3)
80001aa0:	0791                	addi	a5,a5,4
80001aa2:	0689                	addi	a3,a3,2
80001aa4:	02e88c33          	mul	s8,a7,a4
80001aa8:	ff87ae23          	sw	s8,-4(a5)
80001aac:	06d58763          	beq	a1,a3,80001b1a <matrix_test+0x27e>
80001ab0:	00069c83          	lh	s9,0(a3)
80001ab4:	00269d03          	lh	s10,2(a3)
80001ab8:	00469d83          	lh	s11,4(a3)
80001abc:	00669e83          	lh	t4,6(a3)
80001ac0:	00869e03          	lh	t3,8(a3)
80001ac4:	00a69083          	lh	ra,10(a3)
80001ac8:	00c69383          	lh	t2,12(a3)
80001acc:	00e69603          	lh	a2,14(a3)
80001ad0:	02ec8f33          	mul	t5,s9,a4
80001ad4:	02078793          	addi	a5,a5,32
80001ad8:	06c1                	addi	a3,a3,16
80001ada:	02ed0fb3          	mul	t6,s10,a4
80001ade:	ffe7a023          	sw	t5,-32(a5)
80001ae2:	02ed82b3          	mul	t0,s11,a4
80001ae6:	fff7a223          	sw	t6,-28(a5)
80001aea:	02ee8333          	mul	t1,t4,a4
80001aee:	fe57a423          	sw	t0,-24(a5)
80001af2:	02ee0933          	mul	s2,t3,a4
80001af6:	fe67a623          	sw	t1,-20(a5)
80001afa:	02e08a33          	mul	s4,ra,a4
80001afe:	ff27a823          	sw	s2,-16(a5)
80001b02:	02e388b3          	mul	a7,t2,a4
80001b06:	ff47aa23          	sw	s4,-12(a5)
80001b0a:	02e60c33          	mul	s8,a2,a4
80001b0e:	ff17ac23          	sw	a7,-8(a5)
80001b12:	ff87ae23          	sw	s8,-4(a5)
80001b16:	f8d59de3          	bne	a1,a3,80001ab0 <matrix_test+0x214>
80001b1a:	0805                	addi	a6,a6,1
80001b1c:	955a                	add	a0,a0,s6
80001b1e:	86ae                	mv	a3,a1
80001b20:	ec981ee3          	bne	a6,s1,800019fc <matrix_test+0x160>
80001b24:	4582                	lw	a1,0(sp)
80001b26:	40900733          	neg	a4,s1
80001b2a:	00271e13          	slli	t3,a4,0x2
80001b2e:	01658db3          	add	s11,a1,s6
80001b32:	85ee                	mv	a1,s11
80001b34:	4501                	li	a0,0
80001b36:	4e81                	li	t4,0
80001b38:	4681                	li	a3,0
80001b3a:	4881                	li	a7,0
80001b3c:	00371313          	slli	t1,a4,0x3
80001b40:	00be0cb3          	add	s9,t3,a1
80001b44:	419587b3          	sub	a5,a1,s9
80001b48:	ffc78d13          	addi	s10,a5,-4
80001b4c:	002d5093          	srli	ra,s10,0x2
80001b50:	00108393          	addi	t2,ra,1
80001b54:	0073ff93          	andi	t6,t2,7
80001b58:	8666                	mv	a2,s9
80001b5a:	8876                	mv	a6,t4
80001b5c:	620f80e3          	beqz	t6,8000297c <matrix_test+0x10e0>
80001b60:	4f05                	li	t5,1
80001b62:	11ef8363          	beq	t6,t5,80001c68 <matrix_test+0x3cc>
80001b66:	4289                	li	t0,2
80001b68:	0c5f8d63          	beq	t6,t0,80001c42 <matrix_test+0x3a6>
80001b6c:	490d                	li	s2,3
80001b6e:	0b2f8863          	beq	t6,s2,80001c1e <matrix_test+0x382>
80001b72:	4a11                	li	s4,4
80001b74:	094f8263          	beq	t6,s4,80001bf8 <matrix_test+0x35c>
80001b78:	4c15                	li	s8,5
80001b7a:	058f8e63          	beq	t6,s8,80001bd6 <matrix_test+0x33a>
80001b7e:	4719                	li	a4,6
80001b80:	02ef8663          	beq	t6,a4,80001bac <matrix_test+0x310>
80001b84:	000ca803          	lw	a6,0(s9)
80001b88:	01051613          	slli	a2,a0,0x10
80001b8c:	01065513          	srli	a0,a2,0x10
80001b90:	96c2                	add	a3,a3,a6
80001b92:	00d9c463          	blt	s3,a3,80001b9a <matrix_test+0x2fe>
80001b96:	0560106f          	j	80002bec <matrix_test+0x1350>
80001b9a:	00a50693          	addi	a3,a0,10
80001b9e:	01069093          	slli	ra,a3,0x10
80001ba2:	4100d513          	srai	a0,ra,0x10
80001ba6:	4681                	li	a3,0
80001ba8:	004c8613          	addi	a2,s9,4
80001bac:	00062383          	lw	t2,0(a2)
80001bb0:	01051f93          	slli	t6,a0,0x10
80001bb4:	010fdf13          	srli	t5,t6,0x10
80001bb8:	969e                	add	a3,a3,t2
80001bba:	00d9d463          	ble	a3,s3,80001bc2 <matrix_test+0x326>
80001bbe:	7e30006f          	j	80002ba0 <matrix_test+0x1304>
80001bc2:	00782833          	slt	a6,a6,t2
80001bc6:	010f02b3          	add	t0,t5,a6
80001bca:	01029913          	slli	s2,t0,0x10
80001bce:	41095513          	srai	a0,s2,0x10
80001bd2:	0611                	addi	a2,a2,4
80001bd4:	881e                	mv	a6,t2
80001bd6:	4218                	lw	a4,0(a2)
80001bd8:	0542                	slli	a0,a0,0x10
80001bda:	01055e93          	srli	t4,a0,0x10
80001bde:	96ba                	add	a3,a3,a4
80001be0:	7ad9c6e3          	blt	s3,a3,80002b8c <matrix_test+0x12f0>
80001be4:	00e827b3          	slt	a5,a6,a4
80001be8:	00fe8d33          	add	s10,t4,a5
80001bec:	010d1093          	slli	ra,s10,0x10
80001bf0:	4100d513          	srai	a0,ra,0x10
80001bf4:	0611                	addi	a2,a2,4
80001bf6:	883a                	mv	a6,a4
80001bf8:	00062f83          	lw	t6,0(a2)
80001bfc:	01051f13          	slli	t5,a0,0x10
80001c00:	010f5293          	srli	t0,t5,0x10
80001c04:	96fe                	add	a3,a3,t6
80001c06:	72d9cde3          	blt	s3,a3,80002b40 <matrix_test+0x12a4>
80001c0a:	01f82833          	slt	a6,a6,t6
80001c0e:	01028933          	add	s2,t0,a6
80001c12:	01091a13          	slli	s4,s2,0x10
80001c16:	410a5513          	srai	a0,s4,0x10
80001c1a:	0611                	addi	a2,a2,4
80001c1c:	887e                	mv	a6,t6
80001c1e:	00062e83          	lw	t4,0(a2)
80001c22:	0542                	slli	a0,a0,0x10
80001c24:	01055793          	srli	a5,a0,0x10
80001c28:	96f6                	add	a3,a3,t4
80001c2a:	6cd9c5e3          	blt	s3,a3,80002af4 <matrix_test+0x1258>
80001c2e:	01d82d33          	slt	s10,a6,t4
80001c32:	01a780b3          	add	ra,a5,s10
80001c36:	01009393          	slli	t2,ra,0x10
80001c3a:	4103d513          	srai	a0,t2,0x10
80001c3e:	0611                	addi	a2,a2,4
80001c40:	8876                	mv	a6,t4
80001c42:	00062f03          	lw	t5,0(a2)
80001c46:	01051293          	slli	t0,a0,0x10
80001c4a:	0102d913          	srli	s2,t0,0x10
80001c4e:	96fa                	add	a3,a3,t5
80001c50:	68d9c8e3          	blt	s3,a3,80002ae0 <matrix_test+0x1244>
80001c54:	01e82833          	slt	a6,a6,t5
80001c58:	01090a33          	add	s4,s2,a6
80001c5c:	010a1c13          	slli	s8,s4,0x10
80001c60:	410c5513          	srai	a0,s8,0x10
80001c64:	0611                	addi	a2,a2,4
80001c66:	887a                	mv	a6,t5
80001c68:	00062e83          	lw	t4,0(a2)
80001c6c:	0542                	slli	a0,a0,0x10
80001c6e:	01055793          	srli	a5,a0,0x10
80001c72:	96f6                	add	a3,a3,t4
80001c74:	64d9cce3          	blt	s3,a3,80002acc <matrix_test+0x1230>
80001c78:	01d82d33          	slt	s10,a6,t4
80001c7c:	01a780b3          	add	ra,a5,s10
80001c80:	01009393          	slli	t2,ra,0x10
80001c84:	4103d513          	srai	a0,t2,0x10
80001c88:	0611                	addi	a2,a2,4
80001c8a:	4ec599e3          	bne	a1,a2,8000297c <matrix_test+0x10e0>
80001c8e:	0885                	addi	a7,a7,1
80001c90:	406c85b3          	sub	a1,s9,t1
80001c94:	ea9896e3          	bne	a7,s1,80001b40 <matrix_test+0x2a4>
80001c98:	4581                	li	a1,0
80001c9a:	35a020ef          	jal	ra,80003ff4 <crc16>
80001c9e:	4922                	lw	s2,8(sp)
80001ca0:	4c92                	lw	s9,4(sp)
80001ca2:	4c02                	lw	s8,0(sp)
80001ca4:	ca5e                	sw	s7,20(sp)
80001ca6:	c62a                	sw	a0,12(sp)
80001ca8:	00890d33          	add	s10,s2,s0
80001cac:	8bca                	mv	s7,s2
80001cae:	0001                	nop
80001cb0:	417d0a33          	sub	s4,s10,s7
80001cb4:	ffea0713          	addi	a4,s4,-2
80001cb8:	00175813          	srli	a6,a4,0x1
80001cbc:	00180513          	addi	a0,a6,1
80001cc0:	00757e93          	andi	t4,a0,7
80001cc4:	895e                	mv	s2,s7
80001cc6:	8a66                	mv	s4,s9
80001cc8:	4781                	li	a5,0
80001cca:	0a0e8663          	beqz	t4,80001d76 <matrix_test+0x4da>
80001cce:	4085                	li	ra,1
80001cd0:	081e8863          	beq	t4,ra,80001d60 <matrix_test+0x4c4>
80001cd4:	4389                	li	t2,2
80001cd6:	067e8c63          	beq	t4,t2,80001d4e <matrix_test+0x4b2>
80001cda:	4f8d                	li	t6,3
80001cdc:	07fe8063          	beq	t4,t6,80001d3c <matrix_test+0x4a0>
80001ce0:	4f11                	li	t5,4
80001ce2:	05ee8463          	beq	t4,t5,80001d2a <matrix_test+0x48e>
80001ce6:	4295                	li	t0,5
80001ce8:	025e8863          	beq	t4,t0,80001d18 <matrix_test+0x47c>
80001cec:	4699                	li	a3,6
80001cee:	00de8c63          	beq	t4,a3,80001d06 <matrix_test+0x46a>
80001cf2:	000c9603          	lh	a2,0(s9)
80001cf6:	000b9783          	lh	a5,0(s7)
80001cfa:	002c8a13          	addi	s4,s9,2
80001cfe:	002b8913          	addi	s2,s7,2
80001d02:	02f607b3          	mul	a5,a2,a5
80001d06:	000a1303          	lh	t1,0(s4)
80001d0a:	00091e03          	lh	t3,0(s2)
80001d0e:	0a09                	addi	s4,s4,2
80001d10:	0909                	addi	s2,s2,2
80001d12:	03c308b3          	mul	a7,t1,t3
80001d16:	97c6                	add	a5,a5,a7
80001d18:	000a1583          	lh	a1,0(s4)
80001d1c:	00091703          	lh	a4,0(s2)
80001d20:	0a09                	addi	s4,s4,2
80001d22:	0909                	addi	s2,s2,2
80001d24:	02e58833          	mul	a6,a1,a4
80001d28:	97c2                	add	a5,a5,a6
80001d2a:	000a1503          	lh	a0,0(s4)
80001d2e:	00091e83          	lh	t4,0(s2)
80001d32:	0a09                	addi	s4,s4,2
80001d34:	0909                	addi	s2,s2,2
80001d36:	03d500b3          	mul	ra,a0,t4
80001d3a:	9786                	add	a5,a5,ra
80001d3c:	000a1383          	lh	t2,0(s4)
80001d40:	00091f83          	lh	t6,0(s2)
80001d44:	0a09                	addi	s4,s4,2
80001d46:	0909                	addi	s2,s2,2
80001d48:	03f38f33          	mul	t5,t2,t6
80001d4c:	97fa                	add	a5,a5,t5
80001d4e:	000a1283          	lh	t0,0(s4)
80001d52:	00091683          	lh	a3,0(s2)
80001d56:	0a09                	addi	s4,s4,2
80001d58:	0909                	addi	s2,s2,2
80001d5a:	02d28633          	mul	a2,t0,a3
80001d5e:	97b2                	add	a5,a5,a2
80001d60:	000a1303          	lh	t1,0(s4)
80001d64:	00091e03          	lh	t3,0(s2)
80001d68:	0909                	addi	s2,s2,2
80001d6a:	0a09                	addi	s4,s4,2
80001d6c:	03c308b3          	mul	a7,t1,t3
80001d70:	97c6                	add	a5,a5,a7
80001d72:	092d0563          	beq	s10,s2,80001dfc <matrix_test+0x560>
80001d76:	000a1583          	lh	a1,0(s4)
80001d7a:	00091703          	lh	a4,0(s2)
80001d7e:	00291f83          	lh	t6,2(s2)
80001d82:	002a1083          	lh	ra,2(s4)
80001d86:	02e58733          	mul	a4,a1,a4
80001d8a:	004a1e03          	lh	t3,4(s4)
80001d8e:	00491383          	lh	t2,4(s2)
80001d92:	006a1883          	lh	a7,6(s4)
80001d96:	00691283          	lh	t0,6(s2)
80001d9a:	008a1503          	lh	a0,8(s4)
80001d9e:	00891f03          	lh	t5,8(s2)
80001da2:	00aa1583          	lh	a1,10(s4)
80001da6:	00a91e83          	lh	t4,10(s2)
80001daa:	00ca1603          	lh	a2,12(s4)
80001dae:	03f080b3          	mul	ra,ra,t6
80001db2:	00c91303          	lh	t1,12(s2)
80001db6:	00ea1683          	lh	a3,14(s4)
80001dba:	00e91803          	lh	a6,14(s2)
80001dbe:	97ba                	add	a5,a5,a4
80001dc0:	0941                	addi	s2,s2,16
80001dc2:	0a41                	addi	s4,s4,16
80001dc4:	027e0fb3          	mul	t6,t3,t2
80001dc8:	00178e33          	add	t3,a5,ra
80001dcc:	025883b3          	mul	t2,a7,t0
80001dd0:	01fe08b3          	add	a7,t3,t6
80001dd4:	03e502b3          	mul	t0,a0,t5
80001dd8:	00788533          	add	a0,a7,t2
80001ddc:	03d58733          	mul	a4,a1,t4
80001de0:	00550f33          	add	t5,a0,t0
80001de4:	026605b3          	mul	a1,a2,t1
80001de8:	00ef0eb3          	add	t4,t5,a4
80001dec:	03068633          	mul	a2,a3,a6
80001df0:	00be8333          	add	t1,t4,a1
80001df4:	00c307b3          	add	a5,t1,a2
80001df8:	f72d1fe3          	bne	s10,s2,80001d76 <matrix_test+0x4da>
80001dfc:	00fc2023          	sw	a5,0(s8)
80001e00:	0c11                	addi	s8,s8,4
80001e02:	9ca2                	add	s9,s9,s0
80001e04:	eb8d96e3          	bne	s11,s8,80001cb0 <matrix_test+0x414>
80001e08:	4bd2                	lw	s7,20(sp)
80001e0a:	4602                	lw	a2,0(sp)
80001e0c:	4501                	li	a0,0
80001e0e:	4301                	li	t1,0
80001e10:	4881                	li	a7,0
80001e12:	4581                	li	a1,0
80001e14:	8d9a                	mv	s11,t1
80001e16:	00062303          	lw	t1,0(a2)
80001e1a:	fff48d13          	addi	s10,s1,-1
80001e1e:	01051c13          	slli	s8,a0,0x10
80001e22:	989a                	add	a7,a7,t1
80001e24:	003d7c93          	andi	s9,s10,3
80001e28:	010c5913          	srli	s2,s8,0x10
80001e2c:	4719dce3          	ble	a7,s3,80002aa4 <matrix_test+0x1208>
80001e30:	00a90093          	addi	ra,s2,10
80001e34:	01009793          	slli	a5,ra,0x10
80001e38:	4107d513          	srai	a0,a5,0x10
80001e3c:	4881                	li	a7,0
80001e3e:	4685                	li	a3,1
80001e40:	00460713          	addi	a4,a2,4
80001e44:	879a                	mv	a5,t1
80001e46:	1a96f163          	bleu	s1,a3,80001fe8 <matrix_test+0x74c>
80001e4a:	100c8463          	beqz	s9,80001f52 <matrix_test+0x6b6>
80001e4e:	04dc8b63          	beq	s9,a3,80001ea4 <matrix_test+0x608>
80001e52:	4f89                	li	t6,2
80001e54:	03fc8463          	beq	s9,t6,80001e7c <matrix_test+0x5e0>
80001e58:	431c                	lw	a5,0(a4)
80001e5a:	01051e13          	slli	t3,a0,0x10
80001e5e:	010e5393          	srli	t2,t3,0x10
80001e62:	98be                	add	a7,a7,a5
80001e64:	5719c0e3          	blt	s3,a7,80002bc4 <matrix_test+0x1328>
80001e68:	00f322b3          	slt	t0,t1,a5
80001e6c:	00538533          	add	a0,t2,t0
80001e70:	01051f13          	slli	t5,a0,0x10
80001e74:	410f5513          	srai	a0,t5,0x10
80001e78:	0685                	addi	a3,a3,1
80001e7a:	0711                	addi	a4,a4,4
80001e7c:	00072303          	lw	t1,0(a4)
80001e80:	01051d93          	slli	s11,a0,0x10
80001e84:	010ddd13          	srli	s10,s11,0x10
80001e88:	989a                	add	a7,a7,t1
80001e8a:	4d19c5e3          	blt	s3,a7,80002b54 <matrix_test+0x12b8>
80001e8e:	0067acb3          	slt	s9,a5,t1
80001e92:	019d0c33          	add	s8,s10,s9
80001e96:	010c1913          	slli	s2,s8,0x10
80001e9a:	41095513          	srai	a0,s2,0x10
80001e9e:	0685                	addi	a3,a3,1
80001ea0:	0711                	addi	a4,a4,4
80001ea2:	879a                	mv	a5,t1
80001ea4:	00072303          	lw	t1,0(a4)
80001ea8:	01051093          	slli	ra,a0,0x10
80001eac:	0100df93          	srli	t6,ra,0x10
80001eb0:	989a                	add	a7,a7,t1
80001eb2:	4519cbe3          	blt	s3,a7,80002b08 <matrix_test+0x126c>
80001eb6:	0067ae33          	slt	t3,a5,t1
80001eba:	01cf83b3          	add	t2,t6,t3
80001ebe:	01039293          	slli	t0,t2,0x10
80001ec2:	4102d513          	srai	a0,t0,0x10
80001ec6:	0685                	addi	a3,a3,1
80001ec8:	0711                	addi	a4,a4,4
80001eca:	0896e463          	bltu	a3,s1,80001f52 <matrix_test+0x6b6>
80001ece:	aa29                	j	80001fe8 <matrix_test+0x74c>
80001ed0:	00472083          	lw	ra,4(a4)
80001ed4:	00ad0a13          	addi	s4,s10,10
80001ed8:	010a1813          	slli	a6,s4,0x10
80001edc:	41085913          	srai	s2,a6,0x10
80001ee0:	4881                	li	a7,0
80001ee2:	01091793          	slli	a5,s2,0x10
80001ee6:	00188db3          	add	s11,a7,ra
80001eea:	0685                	addi	a3,a3,1
80001eec:	0711                	addi	a4,a4,4
80001eee:	0107df93          	srli	t6,a5,0x10
80001ef2:	09b9dd63          	ble	s11,s3,80001f8c <matrix_test+0x6f0>
80001ef6:	00af8513          	addi	a0,t6,10
80001efa:	00472d03          	lw	s10,4(a4)
80001efe:	01051f13          	slli	t5,a0,0x10
80001f02:	410f5e93          	srai	t4,t5,0x10
80001f06:	4d81                	li	s11,0
80001f08:	010e9893          	slli	a7,t4,0x10
80001f0c:	01ad8fb3          	add	t6,s11,s10
80001f10:	0108d313          	srli	t1,a7,0x10
80001f14:	09f9ce63          	blt	s3,t6,80001fb0 <matrix_test+0x714>
80001f18:	01a0acb3          	slt	s9,ra,s10
80001f1c:	01930c33          	add	s8,t1,s9
80001f20:	00872303          	lw	t1,8(a4)
80001f24:	010c1913          	slli	s2,s8,0x10
80001f28:	41095093          	srai	ra,s2,0x10
80001f2c:	01009793          	slli	a5,ra,0x10
80001f30:	006f88b3          	add	a7,t6,t1
80001f34:	0107de13          	srli	t3,a5,0x10
80001f38:	0919cd63          	blt	s3,a7,80001fd2 <matrix_test+0x736>
80001f3c:	006d23b3          	slt	t2,s10,t1
80001f40:	007e02b3          	add	t0,t3,t2
80001f44:	01029513          	slli	a0,t0,0x10
80001f48:	068d                	addi	a3,a3,3
80001f4a:	8541                	srai	a0,a0,0x10
80001f4c:	0731                	addi	a4,a4,12
80001f4e:	0896fd63          	bleu	s1,a3,80001fe8 <matrix_test+0x74c>
80001f52:	00072e83          	lw	t4,0(a4)
80001f56:	01051d93          	slli	s11,a0,0x10
80001f5a:	010ddd13          	srli	s10,s11,0x10
80001f5e:	98f6                	add	a7,a7,t4
80001f60:	f719c8e3          	blt	s3,a7,80001ed0 <matrix_test+0x634>
80001f64:	01d32333          	slt	t1,t1,t4
80001f68:	00472083          	lw	ra,4(a4)
80001f6c:	006d0cb3          	add	s9,s10,t1
80001f70:	010c9c13          	slli	s8,s9,0x10
80001f74:	410c5913          	srai	s2,s8,0x10
80001f78:	01091793          	slli	a5,s2,0x10
80001f7c:	00188db3          	add	s11,a7,ra
80001f80:	0685                	addi	a3,a3,1
80001f82:	0711                	addi	a4,a4,4
80001f84:	0107df93          	srli	t6,a5,0x10
80001f88:	f7b9c7e3          	blt	s3,s11,80001ef6 <matrix_test+0x65a>
80001f8c:	001eae33          	slt	t3,t4,ra
80001f90:	01cf83b3          	add	t2,t6,t3
80001f94:	00472d03          	lw	s10,4(a4)
80001f98:	01039293          	slli	t0,t2,0x10
80001f9c:	4102de93          	srai	t4,t0,0x10
80001fa0:	010e9893          	slli	a7,t4,0x10
80001fa4:	01ad8fb3          	add	t6,s11,s10
80001fa8:	0108d313          	srli	t1,a7,0x10
80001fac:	f7f9d6e3          	ble	t6,s3,80001f18 <matrix_test+0x67c>
80001fb0:	00a30a13          	addi	s4,t1,10 # ffff800a <_sp+0x6ffe800a>
80001fb4:	00872303          	lw	t1,8(a4)
80001fb8:	010a1813          	slli	a6,s4,0x10
80001fbc:	41085093          	srai	ra,a6,0x10
80001fc0:	4f81                	li	t6,0
80001fc2:	01009793          	slli	a5,ra,0x10
80001fc6:	006f88b3          	add	a7,t6,t1
80001fca:	0107de13          	srli	t3,a5,0x10
80001fce:	f719d7e3          	ble	a7,s3,80001f3c <matrix_test+0x6a0>
80001fd2:	00ae0f13          	addi	t5,t3,10
80001fd6:	010f1e93          	slli	t4,t5,0x10
80001fda:	068d                	addi	a3,a3,3
80001fdc:	410ed513          	srai	a0,t4,0x10
80001fe0:	4881                	li	a7,0
80001fe2:	0731                	addi	a4,a4,12
80001fe4:	f696e7e3          	bltu	a3,s1,80001f52 <matrix_test+0x6b6>
80001fe8:	0585                	addi	a1,a1,1
80001fea:	965a                	add	a2,a2,s6
80001fec:	e295e4e3          	bltu	a1,s1,80001e14 <matrix_test+0x578>
80001ff0:	45b2                	lw	a1,12(sp)
80001ff2:	4c01                	li	s8,0
80001ff4:	000020ef          	jal	ra,80003ff4 <crc16>
80001ff8:	ce56                	sw	s5,28(sp)
80001ffa:	4c82                	lw	s9,0(sp)
80001ffc:	4d12                	lw	s10,4(sp)
80001ffe:	4aa2                	lw	s5,8(sp)
80002000:	c62a                	sw	a0,12(sp)
80002002:	ca5e                	sw	s7,20(sp)
80002004:	cc4e                	sw	s3,24(sp)
80002006:	0001                	nop
80002008:	89d6                	mv	s3,s5
8000200a:	8be6                	mv	s7,s9
8000200c:	4a01                	li	s4,0
8000200e:	0001                	nop
80002010:	000d1d83          	lh	s11,0(s10)
80002014:	00099903          	lh	s2,0(s3) # fffff000 <_sp+0x6ffef000>
80002018:	fff48813          	addi	a6,s1,-1
8000201c:	4e05                	li	t3,1
8000201e:	00787093          	andi	ra,a6,7
80002022:	032d87b3          	mul	a5,s11,s2
80002026:	002d0e93          	addi	t4,s10,2
8000202a:	00898f33          	add	t5,s3,s0
8000202e:	169e7063          	bleu	s1,t3,8000218e <matrix_test+0x8f2>
80002032:	0a008c63          	beqz	ra,800020ea <matrix_test+0x84e>
80002036:	09c08e63          	beq	ra,t3,800020d2 <matrix_test+0x836>
8000203a:	4f89                	li	t6,2
8000203c:	09f08163          	beq	ra,t6,800020be <matrix_test+0x822>
80002040:	430d                	li	t1,3
80002042:	06608463          	beq	ra,t1,800020aa <matrix_test+0x80e>
80002046:	4391                	li	t2,4
80002048:	04708763          	beq	ra,t2,80002096 <matrix_test+0x7fa>
8000204c:	4295                	li	t0,5
8000204e:	02508a63          	beq	ra,t0,80002082 <matrix_test+0x7e6>
80002052:	4519                	li	a0,6
80002054:	00a08d63          	beq	ra,a0,8000206e <matrix_test+0x7d2>
80002058:	000e9883          	lh	a7,0(t4)
8000205c:	000f1683          	lh	a3,0(t5)
80002060:	4e09                	li	t3,2
80002062:	004d0e93          	addi	t4,s10,4
80002066:	02d88733          	mul	a4,a7,a3
8000206a:	9f22                	add	t5,t5,s0
8000206c:	97ba                	add	a5,a5,a4
8000206e:	000e9583          	lh	a1,0(t4)
80002072:	000f1603          	lh	a2,0(t5)
80002076:	0e05                	addi	t3,t3,1
80002078:	0e89                	addi	t4,t4,2
8000207a:	02c58db3          	mul	s11,a1,a2
8000207e:	9f22                	add	t5,t5,s0
80002080:	97ee                	add	a5,a5,s11
80002082:	000e9903          	lh	s2,0(t4)
80002086:	000f1803          	lh	a6,0(t5)
8000208a:	0e05                	addi	t3,t3,1
8000208c:	0e89                	addi	t4,t4,2
8000208e:	030900b3          	mul	ra,s2,a6
80002092:	9f22                	add	t5,t5,s0
80002094:	9786                	add	a5,a5,ra
80002096:	000e9f83          	lh	t6,0(t4)
8000209a:	000f1303          	lh	t1,0(t5)
8000209e:	0e05                	addi	t3,t3,1
800020a0:	0e89                	addi	t4,t4,2
800020a2:	026f83b3          	mul	t2,t6,t1
800020a6:	9f22                	add	t5,t5,s0
800020a8:	979e                	add	a5,a5,t2
800020aa:	000e9283          	lh	t0,0(t4)
800020ae:	000f1503          	lh	a0,0(t5)
800020b2:	0e05                	addi	t3,t3,1
800020b4:	0e89                	addi	t4,t4,2
800020b6:	02a288b3          	mul	a7,t0,a0
800020ba:	9f22                	add	t5,t5,s0
800020bc:	97c6                	add	a5,a5,a7
800020be:	000e9703          	lh	a4,0(t4)
800020c2:	000f1683          	lh	a3,0(t5)
800020c6:	0e05                	addi	t3,t3,1
800020c8:	0e89                	addi	t4,t4,2
800020ca:	02d705b3          	mul	a1,a4,a3
800020ce:	9f22                	add	t5,t5,s0
800020d0:	97ae                	add	a5,a5,a1
800020d2:	000e9603          	lh	a2,0(t4)
800020d6:	000f1d83          	lh	s11,0(t5)
800020da:	0e05                	addi	t3,t3,1
800020dc:	0e89                	addi	t4,t4,2
800020de:	03b60933          	mul	s2,a2,s11
800020e2:	9f22                	add	t5,t5,s0
800020e4:	97ca                	add	a5,a5,s2
800020e6:	0a9e7463          	bleu	s1,t3,8000218e <matrix_test+0x8f2>
800020ea:	008f0833          	add	a6,t5,s0
800020ee:	000e9083          	lh	ra,0(t4)
800020f2:	000f1f83          	lh	t6,0(t5)
800020f6:	002e9883          	lh	a7,2(t4)
800020fa:	00081903          	lh	s2,0(a6)
800020fe:	03f08733          	mul	a4,ra,t6
80002102:	00880333          	add	t1,a6,s0
80002106:	008303b3          	add	t2,t1,s0
8000210a:	00031d83          	lh	s11,0(t1)
8000210e:	004e9283          	lh	t0,4(t4)
80002112:	008386b3          	add	a3,t2,s0
80002116:	00039083          	lh	ra,0(t2)
8000211a:	006e9303          	lh	t1,6(t4)
8000211e:	00868633          	add	a2,a3,s0
80002122:	008e9503          	lh	a0,8(t4)
80002126:	03288933          	mul	s2,a7,s2
8000212a:	00069383          	lh	t2,0(a3)
8000212e:	00860833          	add	a6,a2,s0
80002132:	00ae9583          	lh	a1,10(t4)
80002136:	00061f83          	lh	t6,0(a2)
8000213a:	00081883          	lh	a7,0(a6)
8000213e:	00ce9603          	lh	a2,12(t4)
80002142:	00880f33          	add	t5,a6,s0
80002146:	00ee9683          	lh	a3,14(t4)
8000214a:	000f1803          	lh	a6,0(t5)
8000214e:	03b282b3          	mul	t0,t0,s11
80002152:	97ba                	add	a5,a5,a4
80002154:	01278db3          	add	s11,a5,s2
80002158:	0e21                	addi	t3,t3,8
8000215a:	0ec1                	addi	t4,t4,16
8000215c:	9f22                	add	t5,t5,s0
8000215e:	02130333          	mul	t1,t1,ra
80002162:	005d8733          	add	a4,s11,t0
80002166:	027500b3          	mul	ra,a0,t2
8000216a:	00670533          	add	a0,a4,t1
8000216e:	03f583b3          	mul	t2,a1,t6
80002172:	001505b3          	add	a1,a0,ra
80002176:	03160fb3          	mul	t6,a2,a7
8000217a:	00758633          	add	a2,a1,t2
8000217e:	03068933          	mul	s2,a3,a6
80002182:	01f608b3          	add	a7,a2,t6
80002186:	012887b3          	add	a5,a7,s2
8000218a:	f69e60e3          	bltu	t3,s1,800020ea <matrix_test+0x84e>
8000218e:	00fba023          	sw	a5,0(s7)
80002192:	0a05                	addi	s4,s4,1
80002194:	0b91                	addi	s7,s7,4
80002196:	0989                	addi	s3,s3,2
80002198:	e69a6ce3          	bltu	s4,s1,80002010 <matrix_test+0x774>
8000219c:	0c05                	addi	s8,s8,1
8000219e:	9d22                	add	s10,s10,s0
800021a0:	9cda                	add	s9,s9,s6
800021a2:	e69c63e3          	bltu	s8,s1,80002008 <matrix_test+0x76c>
800021a6:	4bd2                	lw	s7,20(sp)
800021a8:	49e2                	lw	s3,24(sp)
800021aa:	4af2                	lw	s5,28(sp)
800021ac:	4602                	lw	a2,0(sp)
800021ae:	4501                	li	a0,0
800021b0:	4301                	li	t1,0
800021b2:	4881                	li	a7,0
800021b4:	4581                	li	a1,0
800021b6:	0001                	nop
800021b8:	8c9a                	mv	s9,t1
800021ba:	00062303          	lw	t1,0(a2)
800021be:	fff48d13          	addi	s10,s1,-1
800021c2:	01051e13          	slli	t3,a0,0x10
800021c6:	989a                	add	a7,a7,t1
800021c8:	003d7c13          	andi	s8,s10,3
800021cc:	010e5e93          	srli	t4,t3,0x10
800021d0:	0f19d4e3          	ble	a7,s3,80002ab8 <matrix_test+0x121c>
800021d4:	00ae8793          	addi	a5,t4,10
800021d8:	01079293          	slli	t0,a5,0x10
800021dc:	4102d513          	srai	a0,t0,0x10
800021e0:	4881                	li	a7,0
800021e2:	4685                	li	a3,1
800021e4:	00460713          	addi	a4,a2,4
800021e8:	879a                	mv	a5,t1
800021ea:	1a96f363          	bleu	s1,a3,80002390 <matrix_test+0xaf4>
800021ee:	100c0563          	beqz	s8,800022f8 <matrix_test+0xa5c>
800021f2:	04dc0b63          	beq	s8,a3,80002248 <matrix_test+0x9ac>
800021f6:	4d89                	li	s11,2
800021f8:	03bc0463          	beq	s8,s11,80002220 <matrix_test+0x984>
800021fc:	431c                	lw	a5,0(a4)
800021fe:	01051093          	slli	ra,a0,0x10
80002202:	0100d513          	srli	a0,ra,0x10
80002206:	98be                	add	a7,a7,a5
80002208:	1d19c8e3          	blt	s3,a7,80002bd8 <matrix_test+0x133c>
8000220c:	00f32333          	slt	t1,t1,a5
80002210:	006503b3          	add	t2,a0,t1
80002214:	01039f93          	slli	t6,t2,0x10
80002218:	410fd513          	srai	a0,t6,0x10
8000221c:	0685                	addi	a3,a3,1
8000221e:	0711                	addi	a4,a4,4
80002220:	00072a03          	lw	s4,0(a4)
80002224:	01051c93          	slli	s9,a0,0x10
80002228:	010cdd13          	srli	s10,s9,0x10
8000222c:	98d2                	add	a7,a7,s4
8000222e:	1519c5e3          	blt	s3,a7,80002b78 <matrix_test+0x12dc>
80002232:	0147ac33          	slt	s8,a5,s4
80002236:	018d0e33          	add	t3,s10,s8
8000223a:	010e1e93          	slli	t4,t3,0x10
8000223e:	410ed513          	srai	a0,t4,0x10
80002242:	0685                	addi	a3,a3,1
80002244:	0711                	addi	a4,a4,4
80002246:	87d2                	mv	a5,s4
80002248:	00072303          	lw	t1,0(a4)
8000224c:	01051293          	slli	t0,a0,0x10
80002250:	0102dd93          	srli	s11,t0,0x10
80002254:	989a                	add	a7,a7,t1
80002256:	0d19c3e3          	blt	s3,a7,80002b1c <matrix_test+0x1280>
8000225a:	0067a0b3          	slt	ra,a5,t1
8000225e:	001d8533          	add	a0,s11,ra
80002262:	01051393          	slli	t2,a0,0x10
80002266:	4103d513          	srai	a0,t2,0x10
8000226a:	0685                	addi	a3,a3,1
8000226c:	0711                	addi	a4,a4,4
8000226e:	0896e563          	bltu	a3,s1,800022f8 <matrix_test+0xa5c>
80002272:	aa39                	j	80002390 <matrix_test+0xaf4>
80002274:	00472283          	lw	t0,4(a4)
80002278:	00ad0f13          	addi	t5,s10,10
8000227c:	010f1813          	slli	a6,t5,0x10
80002280:	41085e93          	srai	t4,a6,0x10
80002284:	4881                	li	a7,0
80002286:	010e9793          	slli	a5,t4,0x10
8000228a:	00588cb3          	add	s9,a7,t0
8000228e:	0685                	addi	a3,a3,1
80002290:	0711                	addi	a4,a4,4
80002292:	0107dd93          	srli	s11,a5,0x10
80002296:	0999de63          	ble	s9,s3,80002332 <matrix_test+0xa96>
8000229a:	00ad8f93          	addi	t6,s11,10
8000229e:	00472d03          	lw	s10,4(a4)
800022a2:	010f9913          	slli	s2,t6,0x10
800022a6:	41095a13          	srai	s4,s2,0x10
800022aa:	4c81                	li	s9,0
800022ac:	010a1893          	slli	a7,s4,0x10
800022b0:	01ac8db3          	add	s11,s9,s10
800022b4:	0108d313          	srli	t1,a7,0x10
800022b8:	09b9cf63          	blt	s3,s11,80002356 <matrix_test+0xaba>
800022bc:	01a2ac33          	slt	s8,t0,s10
800022c0:	01830e33          	add	t3,t1,s8
800022c4:	00872303          	lw	t1,8(a4)
800022c8:	010e1e93          	slli	t4,t3,0x10
800022cc:	410ed293          	srai	t0,t4,0x10
800022d0:	01029793          	slli	a5,t0,0x10
800022d4:	006d88b3          	add	a7,s11,t1
800022d8:	0107d093          	srli	ra,a5,0x10
800022dc:	0919ce63          	blt	s3,a7,80002378 <matrix_test+0xadc>
800022e0:	006d2533          	slt	a0,s10,t1
800022e4:	00a083b3          	add	t2,ra,a0
800022e8:	01039f93          	slli	t6,t2,0x10
800022ec:	068d                	addi	a3,a3,3
800022ee:	410fd513          	srai	a0,t6,0x10
800022f2:	0731                	addi	a4,a4,12
800022f4:	0896fe63          	bleu	s1,a3,80002390 <matrix_test+0xaf4>
800022f8:	00072a03          	lw	s4,0(a4)
800022fc:	01051c93          	slli	s9,a0,0x10
80002300:	010cdd13          	srli	s10,s9,0x10
80002304:	98d2                	add	a7,a7,s4
80002306:	f719c7e3          	blt	s3,a7,80002274 <matrix_test+0x9d8>
8000230a:	01432333          	slt	t1,t1,s4
8000230e:	00472283          	lw	t0,4(a4)
80002312:	006d0c33          	add	s8,s10,t1
80002316:	010c1e13          	slli	t3,s8,0x10
8000231a:	410e5e93          	srai	t4,t3,0x10
8000231e:	010e9793          	slli	a5,t4,0x10
80002322:	00588cb3          	add	s9,a7,t0
80002326:	0685                	addi	a3,a3,1
80002328:	0711                	addi	a4,a4,4
8000232a:	0107dd93          	srli	s11,a5,0x10
8000232e:	f799c6e3          	blt	s3,s9,8000229a <matrix_test+0x9fe>
80002332:	005a20b3          	slt	ra,s4,t0
80002336:	001d8533          	add	a0,s11,ra
8000233a:	00472d03          	lw	s10,4(a4)
8000233e:	01051393          	slli	t2,a0,0x10
80002342:	4103da13          	srai	s4,t2,0x10
80002346:	010a1893          	slli	a7,s4,0x10
8000234a:	01ac8db3          	add	s11,s9,s10
8000234e:	0108d313          	srli	t1,a7,0x10
80002352:	f7b9d5e3          	ble	s11,s3,800022bc <matrix_test+0xa20>
80002356:	00a30f13          	addi	t5,t1,10
8000235a:	00872303          	lw	t1,8(a4)
8000235e:	010f1813          	slli	a6,t5,0x10
80002362:	41085293          	srai	t0,a6,0x10
80002366:	4d81                	li	s11,0
80002368:	01029793          	slli	a5,t0,0x10
8000236c:	006d88b3          	add	a7,s11,t1
80002370:	0107d093          	srli	ra,a5,0x10
80002374:	f719d6e3          	ble	a7,s3,800022e0 <matrix_test+0xa44>
80002378:	00a08913          	addi	s2,ra,10
8000237c:	01091a13          	slli	s4,s2,0x10
80002380:	068d                	addi	a3,a3,3
80002382:	410a5513          	srai	a0,s4,0x10
80002386:	4881                	li	a7,0
80002388:	0731                	addi	a4,a4,12
8000238a:	f696e7e3          	bltu	a3,s1,800022f8 <matrix_test+0xa5c>
8000238e:	0001                	nop
80002390:	0585                	addi	a1,a1,1
80002392:	965a                	add	a2,a2,s6
80002394:	e295e2e3          	bltu	a1,s1,800021b8 <matrix_test+0x91c>
80002398:	45b2                	lw	a1,12(sp)
8000239a:	45b010ef          	jal	ra,80003ff4 <crc16>
8000239e:	4e92                	lw	t4,4(sp)
800023a0:	4d02                	lw	s10,0(sp)
800023a2:	4e22                	lw	t3,8(sp)
800023a4:	85aa                	mv	a1,a0
800023a6:	4f01                	li	t5,0
800023a8:	8872                	mv	a6,t3
800023aa:	836a                	mv	t1,s10
800023ac:	4881                	li	a7,0
800023ae:	0001                	nop
800023b0:	000e9c83          	lh	s9,0(t4)
800023b4:	00081c03          	lh	s8,0(a6)
800023b8:	fff48293          	addi	t0,s1,-1
800023bc:	4605                	li	a2,1
800023be:	038c8db3          	mul	s11,s9,s8
800023c2:	0032f093          	andi	ra,t0,3
800023c6:	00880fb3          	add	t6,a6,s0
800023ca:	002e8293          	addi	t0,t4,2
800023ce:	402dd513          	srai	a0,s11,0x2
800023d2:	405dd793          	srai	a5,s11,0x5
800023d6:	00f57393          	andi	t2,a0,15
800023da:	07f7f913          	andi	s2,a5,127
800023de:	032383b3          	mul	t2,t2,s2
800023e2:	12967963          	bleu	s1,a2,80002514 <matrix_test+0xc78>
800023e6:	08008663          	beqz	ra,80002472 <matrix_test+0xbd6>
800023ea:	04c08e63          	beq	ra,a2,80002446 <matrix_test+0xbaa>
800023ee:	4a09                	li	s4,2
800023f0:	03408763          	beq	ra,s4,8000241e <matrix_test+0xb82>
800023f4:	00029683          	lh	a3,0(t0)
800023f8:	000f9703          	lh	a4,0(t6)
800023fc:	4609                	li	a2,2
800023fe:	004e8293          	addi	t0,t4,4
80002402:	02e68cb3          	mul	s9,a3,a4
80002406:	9fa2                	add	t6,t6,s0
80002408:	402cdc13          	srai	s8,s9,0x2
8000240c:	405cdd93          	srai	s11,s9,0x5
80002410:	00fc7093          	andi	ra,s8,15
80002414:	07fdf513          	andi	a0,s11,127
80002418:	02a087b3          	mul	a5,ra,a0
8000241c:	93be                	add	t2,t2,a5
8000241e:	00029903          	lh	s2,0(t0)
80002422:	000f9a03          	lh	s4,0(t6)
80002426:	0605                	addi	a2,a2,1
80002428:	0289                	addi	t0,t0,2
8000242a:	034906b3          	mul	a3,s2,s4
8000242e:	9fa2                	add	t6,t6,s0
80002430:	4026d713          	srai	a4,a3,0x2
80002434:	4056dc93          	srai	s9,a3,0x5
80002438:	00f77c13          	andi	s8,a4,15
8000243c:	07fcfd93          	andi	s11,s9,127
80002440:	03bc00b3          	mul	ra,s8,s11
80002444:	9386                	add	t2,t2,ra
80002446:	00029503          	lh	a0,0(t0)
8000244a:	000f9783          	lh	a5,0(t6)
8000244e:	0605                	addi	a2,a2,1
80002450:	0289                	addi	t0,t0,2
80002452:	02f50933          	mul	s2,a0,a5
80002456:	9fa2                	add	t6,t6,s0
80002458:	40295a13          	srai	s4,s2,0x2
8000245c:	40595693          	srai	a3,s2,0x5
80002460:	00fa7713          	andi	a4,s4,15
80002464:	07f6fc93          	andi	s9,a3,127
80002468:	03970c33          	mul	s8,a4,s9
8000246c:	93e2                	add	t2,t2,s8
8000246e:	0a967363          	bleu	s1,a2,80002514 <matrix_test+0xc78>
80002472:	008f8db3          	add	s11,t6,s0
80002476:	00029503          	lh	a0,0(t0)
8000247a:	000f9903          	lh	s2,0(t6)
8000247e:	008d80b3          	add	ra,s11,s0
80002482:	00229703          	lh	a4,2(t0)
80002486:	000d9783          	lh	a5,0(s11)
8000248a:	00429c83          	lh	s9,4(t0)
8000248e:	00808fb3          	add	t6,ra,s0
80002492:	00009c03          	lh	s8,0(ra)
80002496:	032506b3          	mul	a3,a0,s2
8000249a:	00629a03          	lh	s4,6(t0)
8000249e:	000f9d83          	lh	s11,0(t6)
800024a2:	0611                	addi	a2,a2,4
800024a4:	02a1                	addi	t0,t0,8
800024a6:	9fa2                	add	t6,t6,s0
800024a8:	02f70533          	mul	a0,a4,a5
800024ac:	4026d913          	srai	s2,a3,0x2
800024b0:	4056d713          	srai	a4,a3,0x5
800024b4:	07f77693          	andi	a3,a4,127
800024b8:	00f97793          	andi	a5,s2,15
800024bc:	038c80b3          	mul	ra,s9,s8
800024c0:	40255c93          	srai	s9,a0,0x2
800024c4:	8515                	srai	a0,a0,0x5
800024c6:	07f57713          	andi	a4,a0,127
800024ca:	00fcfc13          	andi	s8,s9,15
800024ce:	03ba0db3          	mul	s11,s4,s11
800024d2:	4050d913          	srai	s2,ra,0x5
800024d6:	4020da13          	srai	s4,ra,0x2
800024da:	00fa7513          	andi	a0,s4,15
800024de:	07f97093          	andi	ra,s2,127
800024e2:	02d787b3          	mul	a5,a5,a3
800024e6:	402ddc93          	srai	s9,s11,0x2
800024ea:	405dd693          	srai	a3,s11,0x5
800024ee:	07f6fa13          	andi	s4,a3,127
800024f2:	00fcfd93          	andi	s11,s9,15
800024f6:	02ec0c33          	mul	s8,s8,a4
800024fa:	93be                	add	t2,t2,a5
800024fc:	02150733          	mul	a4,a0,ra
80002500:	01838933          	add	s2,t2,s8
80002504:	034d8533          	mul	a0,s11,s4
80002508:	00e900b3          	add	ra,s2,a4
8000250c:	00a083b3          	add	t2,ra,a0
80002510:	f69661e3          	bltu	a2,s1,80002472 <matrix_test+0xbd6>
80002514:	00732023          	sw	t2,0(t1)
80002518:	0885                	addi	a7,a7,1
8000251a:	0311                	addi	t1,t1,4
8000251c:	0809                	addi	a6,a6,2
8000251e:	e898e9e3          	bltu	a7,s1,800023b0 <matrix_test+0xb14>
80002522:	0f05                	addi	t5,t5,1
80002524:	9ea2                	add	t4,t4,s0
80002526:	9d5a                	add	s10,s10,s6
80002528:	e89f60e3          	bltu	t5,s1,800023a8 <matrix_test+0xb0c>
8000252c:	4742                	lw	a4,16(sp)
8000252e:	4501                	li	a0,0
80002530:	4681                	li	a3,0
80002532:	4d81                	li	s11,0
80002534:	4601                	li	a2,0
80002536:	0001                	nop
80002538:	8d36                	mv	s10,a3
8000253a:	4314                	lw	a3,0(a4)
8000253c:	fff48e93          	addi	t4,s1,-1
80002540:	01051e13          	slli	t3,a0,0x10
80002544:	9db6                	add	s11,s11,a3
80002546:	003eff13          	andi	t5,t4,3
8000254a:	010e5293          	srli	t0,t3,0x10
8000254e:	55b9d163          	ble	s11,s3,80002a90 <matrix_test+0x11f4>
80002552:	00a28d93          	addi	s11,t0,10
80002556:	010d9a13          	slli	s4,s11,0x10
8000255a:	410a5513          	srai	a0,s4,0x10
8000255e:	4d81                	li	s11,0
80002560:	4885                	li	a7,1
80002562:	00470813          	addi	a6,a4,4
80002566:	87b6                	mv	a5,a3
80002568:	1a98f463          	bleu	s1,a7,80002710 <matrix_test+0xe74>
8000256c:	100f0663          	beqz	t5,80002678 <matrix_test+0xddc>
80002570:	051f0c63          	beq	t5,a7,800025c8 <matrix_test+0xd2c>
80002574:	4c09                	li	s8,2
80002576:	038f0563          	beq	t5,s8,800025a0 <matrix_test+0xd04>
8000257a:	00082783          	lw	a5,0(a6)
8000257e:	01051393          	slli	t2,a0,0x10
80002582:	0103d913          	srli	s2,t2,0x10
80002586:	9dbe                	add	s11,s11,a5
80002588:	63b9c663          	blt	s3,s11,80002bb4 <matrix_test+0x1318>
8000258c:	00f6a6b3          	slt	a3,a3,a5
80002590:	00d90533          	add	a0,s2,a3
80002594:	01051093          	slli	ra,a0,0x10
80002598:	4100d513          	srai	a0,ra,0x10
8000259c:	0885                	addi	a7,a7,1
8000259e:	0811                	addi	a6,a6,4
800025a0:	00082e83          	lw	t4,0(a6)
800025a4:	01051f13          	slli	t5,a0,0x10
800025a8:	010f5293          	srli	t0,t5,0x10
800025ac:	9df6                	add	s11,s11,t4
800025ae:	5bb9cd63          	blt	s3,s11,80002b68 <matrix_test+0x12cc>
800025b2:	01d7ae33          	slt	t3,a5,t4
800025b6:	01c28fb3          	add	t6,t0,t3
800025ba:	010f9793          	slli	a5,t6,0x10
800025be:	4107d513          	srai	a0,a5,0x10
800025c2:	0885                	addi	a7,a7,1
800025c4:	0811                	addi	a6,a6,4
800025c6:	87f6                	mv	a5,t4
800025c8:	00082683          	lw	a3,0(a6)
800025cc:	01051a13          	slli	s4,a0,0x10
800025d0:	010a5c13          	srli	s8,s4,0x10
800025d4:	9db6                	add	s11,s11,a3
800025d6:	55b9cd63          	blt	s3,s11,80002b30 <matrix_test+0x1294>
800025da:	00d7a3b3          	slt	t2,a5,a3
800025de:	007c0933          	add	s2,s8,t2
800025e2:	01091513          	slli	a0,s2,0x10
800025e6:	8541                	srai	a0,a0,0x10
800025e8:	0885                	addi	a7,a7,1
800025ea:	0811                	addi	a6,a6,4
800025ec:	0898e663          	bltu	a7,s1,80002678 <matrix_test+0xddc>
800025f0:	a205                	j	80002710 <matrix_test+0xe74>
800025f2:	0001                	nop
800025f4:	00af0d93          	addi	s11,t5,10
800025f8:	00482a03          	lw	s4,4(a6)
800025fc:	010d9793          	slli	a5,s11,0x10
80002600:	4107dc93          	srai	s9,a5,0x10
80002604:	4281                	li	t0,0
80002606:	010c9c13          	slli	s8,s9,0x10
8000260a:	01428f33          	add	t5,t0,s4
8000260e:	0885                	addi	a7,a7,1
80002610:	0811                	addi	a6,a6,4
80002612:	010c5393          	srli	t2,s8,0x10
80002616:	09e9df63          	ble	t5,s3,800026b4 <matrix_test+0xe18>
8000261a:	00a38313          	addi	t1,t2,10
8000261e:	00482283          	lw	t0,4(a6)
80002622:	01031d13          	slli	s10,t1,0x10
80002626:	410d5e93          	srai	t4,s10,0x10
8000262a:	4f01                	li	t5,0
8000262c:	010e9693          	slli	a3,t4,0x10
80002630:	005f03b3          	add	t2,t5,t0
80002634:	0106de13          	srli	t3,a3,0x10
80002638:	0a79c063          	blt	s3,t2,800026d8 <matrix_test+0xe3c>
8000263c:	005a2fb3          	slt	t6,s4,t0
80002640:	01fe0cb3          	add	s9,t3,t6
80002644:	00882683          	lw	a3,8(a6)
80002648:	010c9d93          	slli	s11,s9,0x10
8000264c:	410ddc13          	srai	s8,s11,0x10
80002650:	010c1913          	slli	s2,s8,0x10
80002654:	00d38db3          	add	s11,t2,a3
80002658:	01095093          	srli	ra,s2,0x10
8000265c:	09b9cf63          	blt	s3,s11,800026fa <matrix_test+0xe5e>
80002660:	00d2a533          	slt	a0,t0,a3
80002664:	00a08d33          	add	s10,ra,a0
80002668:	010d1e93          	slli	t4,s10,0x10
8000266c:	088d                	addi	a7,a7,3
8000266e:	410ed513          	srai	a0,t4,0x10
80002672:	0831                	addi	a6,a6,12
80002674:	0898fe63          	bleu	s1,a7,80002710 <matrix_test+0xe74>
80002678:	00082d03          	lw	s10,0(a6)
8000267c:	01051e93          	slli	t4,a0,0x10
80002680:	010edf13          	srli	t5,t4,0x10
80002684:	01ad82b3          	add	t0,s11,s10
80002688:	f659c6e3          	blt	s3,t0,800025f4 <matrix_test+0xd58>
8000268c:	01a6a6b3          	slt	a3,a3,s10
80002690:	00df0e33          	add	t3,t5,a3
80002694:	00482a03          	lw	s4,4(a6)
80002698:	010e1f93          	slli	t6,t3,0x10
8000269c:	410fdc93          	srai	s9,t6,0x10
800026a0:	010c9c13          	slli	s8,s9,0x10
800026a4:	01428f33          	add	t5,t0,s4
800026a8:	0885                	addi	a7,a7,1
800026aa:	0811                	addi	a6,a6,4
800026ac:	010c5393          	srli	t2,s8,0x10
800026b0:	f7e9c5e3          	blt	s3,t5,8000261a <matrix_test+0xd7e>
800026b4:	014d2933          	slt	s2,s10,s4
800026b8:	01238533          	add	a0,t2,s2
800026bc:	00482283          	lw	t0,4(a6)
800026c0:	01051093          	slli	ra,a0,0x10
800026c4:	4100de93          	srai	t4,ra,0x10
800026c8:	010e9693          	slli	a3,t4,0x10
800026cc:	005f03b3          	add	t2,t5,t0
800026d0:	0106de13          	srli	t3,a3,0x10
800026d4:	f679d4e3          	ble	t2,s3,8000263c <matrix_test+0xda0>
800026d8:	00ae0793          	addi	a5,t3,10
800026dc:	00882683          	lw	a3,8(a6)
800026e0:	01079a13          	slli	s4,a5,0x10
800026e4:	410a5c13          	srai	s8,s4,0x10
800026e8:	4381                	li	t2,0
800026ea:	010c1913          	slli	s2,s8,0x10
800026ee:	00d38db3          	add	s11,t2,a3
800026f2:	01095093          	srli	ra,s2,0x10
800026f6:	f7b9d5e3          	ble	s11,s3,80002660 <matrix_test+0xdc4>
800026fa:	00a08313          	addi	t1,ra,10
800026fe:	01031f13          	slli	t5,t1,0x10
80002702:	088d                	addi	a7,a7,3
80002704:	410f5513          	srai	a0,t5,0x10
80002708:	4d81                	li	s11,0
8000270a:	0831                	addi	a6,a6,12
8000270c:	f698e6e3          	bltu	a7,s1,80002678 <matrix_test+0xddc>
80002710:	0605                	addi	a2,a2,1
80002712:	975a                	add	a4,a4,s6
80002714:	e29662e3          	bltu	a2,s1,80002538 <matrix_test+0xc9c>
80002718:	0dd010ef          	jal	ra,80003ff4 <crc16>
8000271c:	4b01                	li	s6,0
8000271e:	0001                	nop
80002720:	000bd983          	lhu	s3,0(s7)
80002724:	fff48593          	addi	a1,s1,-1
80002728:	4705                	li	a4,1
8000272a:	415982b3          	sub	t0,s3,s5
8000272e:	005b9023          	sh	t0,0(s7)
80002732:	0075fe13          	andi	t3,a1,7
80002736:	002b8793          	addi	a5,s7,2
8000273a:	10977463          	bleu	s1,a4,80002842 <matrix_test+0xfa6>
8000273e:	080e0e63          	beqz	t3,800027da <matrix_test+0xf3e>
80002742:	08ee0263          	beq	t3,a4,800027c6 <matrix_test+0xf2a>
80002746:	4f89                	li	t6,2
80002748:	07fe0763          	beq	t3,t6,800027b6 <matrix_test+0xf1a>
8000274c:	4c8d                	li	s9,3
8000274e:	059e0c63          	beq	t3,s9,800027a6 <matrix_test+0xf0a>
80002752:	4a11                	li	s4,4
80002754:	054e0163          	beq	t3,s4,80002796 <matrix_test+0xefa>
80002758:	4c15                	li	s8,5
8000275a:	038e0663          	beq	t3,s8,80002786 <matrix_test+0xeea>
8000275e:	4399                	li	t2,6
80002760:	007e0b63          	beq	t3,t2,80002776 <matrix_test+0xeda>
80002764:	0007d683          	lhu	a3,0(a5)
80002768:	4709                	li	a4,2
8000276a:	41568933          	sub	s2,a3,s5
8000276e:	01279023          	sh	s2,0(a5)
80002772:	004b8793          	addi	a5,s7,4
80002776:	0007d083          	lhu	ra,0(a5)
8000277a:	0705                	addi	a4,a4,1
8000277c:	0789                	addi	a5,a5,2
8000277e:	41508d33          	sub	s10,ra,s5
80002782:	ffa79f23          	sh	s10,-2(a5)
80002786:	0007de83          	lhu	t4,0(a5)
8000278a:	0705                	addi	a4,a4,1
8000278c:	0789                	addi	a5,a5,2
8000278e:	415e8333          	sub	t1,t4,s5
80002792:	fe679f23          	sh	t1,-2(a5)
80002796:	0007df03          	lhu	t5,0(a5)
8000279a:	0705                	addi	a4,a4,1
8000279c:	0789                	addi	a5,a5,2
8000279e:	415f0db3          	sub	s11,t5,s5
800027a2:	ffb79f23          	sh	s11,-2(a5)
800027a6:	0007d883          	lhu	a7,0(a5)
800027aa:	0705                	addi	a4,a4,1
800027ac:	0789                	addi	a5,a5,2
800027ae:	41588833          	sub	a6,a7,s5
800027b2:	ff079f23          	sh	a6,-2(a5)
800027b6:	0007d603          	lhu	a2,0(a5)
800027ba:	0705                	addi	a4,a4,1
800027bc:	0789                	addi	a5,a5,2
800027be:	415609b3          	sub	s3,a2,s5
800027c2:	ff379f23          	sh	s3,-2(a5)
800027c6:	0007d583          	lhu	a1,0(a5)
800027ca:	0789                	addi	a5,a5,2
800027cc:	0705                	addi	a4,a4,1
800027ce:	415582b3          	sub	t0,a1,s5
800027d2:	fe579f23          	sh	t0,-2(a5)
800027d6:	06977663          	bleu	s1,a4,80002842 <matrix_test+0xfa6>
800027da:	0007df83          	lhu	t6,0(a5)
800027de:	0027dc83          	lhu	s9,2(a5)
800027e2:	0047de03          	lhu	t3,4(a5)
800027e6:	0067da03          	lhu	s4,6(a5)
800027ea:	0087dc03          	lhu	s8,8(a5)
800027ee:	00a7d383          	lhu	t2,10(a5)
800027f2:	00c7d903          	lhu	s2,12(a5)
800027f6:	00e7d683          	lhu	a3,14(a5)
800027fa:	415f80b3          	sub	ra,t6,s5
800027fe:	415c8d33          	sub	s10,s9,s5
80002802:	415e0eb3          	sub	t4,t3,s5
80002806:	415a0333          	sub	t1,s4,s5
8000280a:	415c0f33          	sub	t5,s8,s5
8000280e:	41538db3          	sub	s11,t2,s5
80002812:	415908b3          	sub	a7,s2,s5
80002816:	41568833          	sub	a6,a3,s5
8000281a:	00179023          	sh	ra,0(a5)
8000281e:	01a79123          	sh	s10,2(a5)
80002822:	01d79223          	sh	t4,4(a5)
80002826:	00679323          	sh	t1,6(a5)
8000282a:	01e79423          	sh	t5,8(a5)
8000282e:	01b79523          	sh	s11,10(a5)
80002832:	01179623          	sh	a7,12(a5)
80002836:	01079723          	sh	a6,14(a5)
8000283a:	0721                	addi	a4,a4,8
8000283c:	07c1                	addi	a5,a5,16
8000283e:	f8976ee3          	bltu	a4,s1,800027da <matrix_test+0xf3e>
80002842:	0b05                	addi	s6,s6,1
80002844:	9ba2                	add	s7,s7,s0
80002846:	ec9b6de3          	bltu	s6,s1,80002720 <matrix_test+0xe84>
8000284a:	01051413          	slli	s0,a0,0x10
8000284e:	41045513          	srai	a0,s0,0x10
80002852:	40f6                	lw	ra,92(sp)
80002854:	4466                	lw	s0,88(sp)
80002856:	44d6                	lw	s1,84(sp)
80002858:	4946                	lw	s2,80(sp)
8000285a:	49b6                	lw	s3,76(sp)
8000285c:	4a26                	lw	s4,72(sp)
8000285e:	4a96                	lw	s5,68(sp)
80002860:	4b06                	lw	s6,64(sp)
80002862:	5bf2                	lw	s7,60(sp)
80002864:	5c62                	lw	s8,56(sp)
80002866:	5cd2                	lw	s9,52(sp)
80002868:	5d42                	lw	s10,48(sp)
8000286a:	5db2                	lw	s11,44(sp)
8000286c:	6125                	addi	sp,sp,96
8000286e:	8082                	ret
80002870:	00462d03          	lw	s10,4(a2)
80002874:	00a90813          	addi	a6,s2,10
80002878:	01081793          	slli	a5,a6,0x10
8000287c:	4107d513          	srai	a0,a5,0x10
80002880:	4a01                	li	s4,0
80002882:	01051093          	slli	ra,a0,0x10
80002886:	01aa0c33          	add	s8,s4,s10
8000288a:	0611                	addi	a2,a2,4
8000288c:	0100d393          	srli	t2,ra,0x10
80002890:	1389d363          	ble	s8,s3,800029b6 <matrix_test+0x111a>
80002894:	00a38693          	addi	a3,t2,10
80002898:	4258                	lw	a4,4(a2)
8000289a:	01069913          	slli	s2,a3,0x10
8000289e:	41095a13          	srai	s4,s2,0x10
800028a2:	4c01                	li	s8,0
800028a4:	010a1e93          	slli	t4,s4,0x10
800028a8:	00ec0f33          	add	t5,s8,a4
800028ac:	010ed513          	srli	a0,t4,0x10
800028b0:	13e9c463          	blt	s3,t5,800029d8 <matrix_test+0x113c>
800028b4:	00ed2833          	slt	a6,s10,a4
800028b8:	010507b3          	add	a5,a0,a6
800028bc:	00862283          	lw	t0,8(a2)
800028c0:	01079d13          	slli	s10,a5,0x10
800028c4:	410d5f93          	srai	t6,s10,0x10
800028c8:	010f9693          	slli	a3,t6,0x10
800028cc:	005f0d33          	add	s10,t5,t0
800028d0:	0106d913          	srli	s2,a3,0x10
800028d4:	13a9c363          	blt	s3,s10,800029fa <matrix_test+0x115e>
800028d8:	00572a33          	slt	s4,a4,t0
800028dc:	01490c33          	add	s8,s2,s4
800028e0:	00c62083          	lw	ra,12(a2)
800028e4:	010c1713          	slli	a4,s8,0x10
800028e8:	41075813          	srai	a6,a4,0x10
800028ec:	01081793          	slli	a5,a6,0x10
800028f0:	001d0c33          	add	s8,s10,ra
800028f4:	0107d393          	srli	t2,a5,0x10
800028f8:	1389c263          	blt	s3,s8,80002a1c <matrix_test+0x1180>
800028fc:	0012afb3          	slt	t6,t0,ra
80002900:	01f38f33          	add	t5,t2,t6
80002904:	4a18                	lw	a4,16(a2)
80002906:	010f1293          	slli	t0,t5,0x10
8000290a:	4102da13          	srai	s4,t0,0x10
8000290e:	010a1e93          	slli	t4,s4,0x10
80002912:	00ec0f33          	add	t5,s8,a4
80002916:	010ed813          	srli	a6,t4,0x10
8000291a:	13e9c163          	blt	s3,t5,80002a3c <matrix_test+0x11a0>
8000291e:	00e0a533          	slt	a0,ra,a4
80002922:	00a80d33          	add	s10,a6,a0
80002926:	01462283          	lw	t0,20(a2)
8000292a:	010d1093          	slli	ra,s10,0x10
8000292e:	4100df93          	srai	t6,ra,0x10
80002932:	010f9693          	slli	a3,t6,0x10
80002936:	005f0d33          	add	s10,t5,t0
8000293a:	0106d913          	srli	s2,a3,0x10
8000293e:	13a9c063          	blt	s3,s10,80002a5e <matrix_test+0x11c2>
80002942:	00572a33          	slt	s4,a4,t0
80002946:	01490c33          	add	s8,s2,s4
8000294a:	01862e83          	lw	t4,24(a2)
8000294e:	010c1713          	slli	a4,s8,0x10
80002952:	41075513          	srai	a0,a4,0x10
80002956:	01051093          	slli	ra,a0,0x10
8000295a:	01dd06b3          	add	a3,s10,t4
8000295e:	0100d793          	srli	a5,ra,0x10
80002962:	10d9cf63          	blt	s3,a3,80002a80 <matrix_test+0x11e4>
80002966:	01d2a3b3          	slt	t2,t0,t4
8000296a:	00778fb3          	add	t6,a5,t2
8000296e:	010f9f13          	slli	t5,t6,0x10
80002972:	410f5513          	srai	a0,t5,0x10
80002976:	0671                	addi	a2,a2,28
80002978:	b0c58b63          	beq	a1,a2,80001c8e <matrix_test+0x3f2>
8000297c:	00062f03          	lw	t5,0(a2)
80002980:	01051293          	slli	t0,a0,0x10
80002984:	0102d913          	srli	s2,t0,0x10
80002988:	01e68a33          	add	s4,a3,t5
8000298c:	ef49c2e3          	blt	s3,s4,80002870 <matrix_test+0xfd4>
80002990:	01eeac33          	slt	s8,t4,t5
80002994:	01890733          	add	a4,s2,s8
80002998:	00462d03          	lw	s10,4(a2)
8000299c:	01071e93          	slli	t4,a4,0x10
800029a0:	410ed513          	srai	a0,t4,0x10
800029a4:	01051093          	slli	ra,a0,0x10
800029a8:	01aa0c33          	add	s8,s4,s10
800029ac:	0611                	addi	a2,a2,4
800029ae:	0100d393          	srli	t2,ra,0x10
800029b2:	ef89c1e3          	blt	s3,s8,80002894 <matrix_test+0xff8>
800029b6:	01af2fb3          	slt	t6,t5,s10
800029ba:	01f38f33          	add	t5,t2,t6
800029be:	4258                	lw	a4,4(a2)
800029c0:	010f1293          	slli	t0,t5,0x10
800029c4:	4102da13          	srai	s4,t0,0x10
800029c8:	010a1e93          	slli	t4,s4,0x10
800029cc:	00ec0f33          	add	t5,s8,a4
800029d0:	010ed513          	srli	a0,t4,0x10
800029d4:	efe9d0e3          	ble	t5,s3,800028b4 <matrix_test+0x1018>
800029d8:	00a50093          	addi	ra,a0,10
800029dc:	00862283          	lw	t0,8(a2)
800029e0:	01009393          	slli	t2,ra,0x10
800029e4:	4103df93          	srai	t6,t2,0x10
800029e8:	4f01                	li	t5,0
800029ea:	010f9693          	slli	a3,t6,0x10
800029ee:	005f0d33          	add	s10,t5,t0
800029f2:	0106d913          	srli	s2,a3,0x10
800029f6:	efa9d1e3          	ble	s10,s3,800028d8 <matrix_test+0x103c>
800029fa:	00a90e93          	addi	t4,s2,10
800029fe:	00c62083          	lw	ra,12(a2)
80002a02:	010e9513          	slli	a0,t4,0x10
80002a06:	41055813          	srai	a6,a0,0x10
80002a0a:	4d01                	li	s10,0
80002a0c:	01081793          	slli	a5,a6,0x10
80002a10:	001d0c33          	add	s8,s10,ra
80002a14:	0107d393          	srli	t2,a5,0x10
80002a18:	ef89d2e3          	ble	s8,s3,800028fc <matrix_test+0x1060>
80002a1c:	00a38693          	addi	a3,t2,10
80002a20:	4a18                	lw	a4,16(a2)
80002a22:	01069913          	slli	s2,a3,0x10
80002a26:	41095a13          	srai	s4,s2,0x10
80002a2a:	4c01                	li	s8,0
80002a2c:	010a1e93          	slli	t4,s4,0x10
80002a30:	00ec0f33          	add	t5,s8,a4
80002a34:	010ed813          	srli	a6,t4,0x10
80002a38:	efe9d3e3          	ble	t5,s3,8000291e <matrix_test+0x1082>
80002a3c:	00a80793          	addi	a5,a6,10
80002a40:	01462283          	lw	t0,20(a2)
80002a44:	01079393          	slli	t2,a5,0x10
80002a48:	4103df93          	srai	t6,t2,0x10
80002a4c:	4f01                	li	t5,0
80002a4e:	010f9693          	slli	a3,t6,0x10
80002a52:	005f0d33          	add	s10,t5,t0
80002a56:	0106d913          	srli	s2,a3,0x10
80002a5a:	efa9d4e3          	ble	s10,s3,80002942 <matrix_test+0x10a6>
80002a5e:	00a90e93          	addi	t4,s2,10
80002a62:	010e9813          	slli	a6,t4,0x10
80002a66:	01862e83          	lw	t4,24(a2)
80002a6a:	41085513          	srai	a0,a6,0x10
80002a6e:	4d01                	li	s10,0
80002a70:	01051093          	slli	ra,a0,0x10
80002a74:	01dd06b3          	add	a3,s10,t4
80002a78:	0100d793          	srli	a5,ra,0x10
80002a7c:	eed9d5e3          	ble	a3,s3,80002966 <matrix_test+0x10ca>
80002a80:	00a78293          	addi	t0,a5,10
80002a84:	01029693          	slli	a3,t0,0x10
80002a88:	4106d513          	srai	a0,a3,0x10
80002a8c:	4681                	li	a3,0
80002a8e:	b5e5                	j	80002976 <matrix_test+0x10da>
80002a90:	00dd2fb3          	slt	t6,s10,a3
80002a94:	01f287b3          	add	a5,t0,t6
80002a98:	01079c93          	slli	s9,a5,0x10
80002a9c:	410cd513          	srai	a0,s9,0x10
80002aa0:	b4c1                	j	80002560 <matrix_test+0xcc4>
80002aa2:	0001                	nop
80002aa4:	006daa33          	slt	s4,s11,t1
80002aa8:	014906b3          	add	a3,s2,s4
80002aac:	01069813          	slli	a6,a3,0x10
80002ab0:	41085513          	srai	a0,a6,0x10
80002ab4:	b8aff06f          	j	80001e3e <matrix_test+0x5a2>
80002ab8:	006caf33          	slt	t5,s9,t1
80002abc:	01ee86b3          	add	a3,t4,t5
80002ac0:	01069813          	slli	a6,a3,0x10
80002ac4:	41085513          	srai	a0,a6,0x10
80002ac8:	f1aff06f          	j	800021e2 <matrix_test+0x946>
80002acc:	00a78693          	addi	a3,a5,10
80002ad0:	01069f93          	slli	t6,a3,0x10
80002ad4:	410fd513          	srai	a0,t6,0x10
80002ad8:	4681                	li	a3,0
80002ada:	9aeff06f          	j	80001c88 <matrix_test+0x3ec>
80002ade:	0001                	nop
80002ae0:	00a90713          	addi	a4,s2,10
80002ae4:	01071e93          	slli	t4,a4,0x10
80002ae8:	410ed513          	srai	a0,t4,0x10
80002aec:	4681                	li	a3,0
80002aee:	976ff06f          	j	80001c64 <matrix_test+0x3c8>
80002af2:	0001                	nop
80002af4:	00a78693          	addi	a3,a5,10
80002af8:	01069f93          	slli	t6,a3,0x10
80002afc:	410fd513          	srai	a0,t6,0x10
80002b00:	4681                	li	a3,0
80002b02:	93cff06f          	j	80001c3e <matrix_test+0x3a2>
80002b06:	0001                	nop
80002b08:	00af8513          	addi	a0,t6,10
80002b0c:	01051f13          	slli	t5,a0,0x10
80002b10:	410f5513          	srai	a0,t5,0x10
80002b14:	4881                	li	a7,0
80002b16:	bb0ff06f          	j	80001ec6 <matrix_test+0x62a>
80002b1a:	0001                	nop
80002b1c:	00ad8f93          	addi	t6,s11,10
80002b20:	010f9913          	slli	s2,t6,0x10
80002b24:	41095513          	srai	a0,s2,0x10
80002b28:	4881                	li	a7,0
80002b2a:	f40ff06f          	j	8000226a <matrix_test+0x9ce>
80002b2e:	0001                	nop
80002b30:	00ac0093          	addi	ra,s8,10
80002b34:	01009313          	slli	t1,ra,0x10
80002b38:	41035513          	srai	a0,t1,0x10
80002b3c:	4d81                	li	s11,0
80002b3e:	b46d                	j	800025e8 <matrix_test+0xd4c>
80002b40:	00a28c13          	addi	s8,t0,10
80002b44:	010c1713          	slli	a4,s8,0x10
80002b48:	41075513          	srai	a0,a4,0x10
80002b4c:	4681                	li	a3,0
80002b4e:	8ccff06f          	j	80001c1a <matrix_test+0x37e>
80002b52:	0001                	nop
80002b54:	00ad0a13          	addi	s4,s10,10
80002b58:	010a1813          	slli	a6,s4,0x10
80002b5c:	41085513          	srai	a0,a6,0x10
80002b60:	4881                	li	a7,0
80002b62:	b3cff06f          	j	80001e9e <matrix_test+0x602>
80002b66:	0001                	nop
80002b68:	00a28c93          	addi	s9,t0,10
80002b6c:	010c9d93          	slli	s11,s9,0x10
80002b70:	410dd513          	srai	a0,s11,0x10
80002b74:	4d81                	li	s11,0
80002b76:	b4b1                	j	800025c2 <matrix_test+0xd26>
80002b78:	00ad0f13          	addi	t5,s10,10
80002b7c:	010f1813          	slli	a6,t5,0x10
80002b80:	41085513          	srai	a0,a6,0x10
80002b84:	4881                	li	a7,0
80002b86:	ebcff06f          	j	80002242 <matrix_test+0x9a6>
80002b8a:	0001                	nop
80002b8c:	00ae8693          	addi	a3,t4,10
80002b90:	01069393          	slli	t2,a3,0x10
80002b94:	4103d513          	srai	a0,t2,0x10
80002b98:	4681                	li	a3,0
80002b9a:	85aff06f          	j	80001bf4 <matrix_test+0x358>
80002b9e:	0001                	nop
80002ba0:	00af0a13          	addi	s4,t5,10
80002ba4:	010a1c13          	slli	s8,s4,0x10
80002ba8:	410c5513          	srai	a0,s8,0x10
80002bac:	4681                	li	a3,0
80002bae:	824ff06f          	j	80001bd2 <matrix_test+0x336>
80002bb2:	0001                	nop
80002bb4:	00a90313          	addi	t1,s2,10
80002bb8:	01031d13          	slli	s10,t1,0x10
80002bbc:	410d5513          	srai	a0,s10,0x10
80002bc0:	4d81                	li	s11,0
80002bc2:	bae9                	j	8000259c <matrix_test+0xd00>
80002bc4:	00a38893          	addi	a7,t2,10
80002bc8:	01089e93          	slli	t4,a7,0x10
80002bcc:	410ed513          	srai	a0,t4,0x10
80002bd0:	4881                	li	a7,0
80002bd2:	aa6ff06f          	j	80001e78 <matrix_test+0x5dc>
80002bd6:	0001                	nop
80002bd8:	00a50913          	addi	s2,a0,10
80002bdc:	01091893          	slli	a7,s2,0x10
80002be0:	4108d513          	srai	a0,a7,0x10
80002be4:	4881                	li	a7,0
80002be6:	e36ff06f          	j	8000221c <matrix_test+0x980>
80002bea:	0001                	nop
80002bec:	010eaeb3          	slt	t4,t4,a6
80002bf0:	01d507b3          	add	a5,a0,t4
80002bf4:	01079d13          	slli	s10,a5,0x10
80002bf8:	410d5513          	srai	a0,s10,0x10
80002bfc:	004c8613          	addi	a2,s9,4
80002c00:	fadfe06f          	j	80001bac <matrix_test+0x310>
80002c04:	4581                	li	a1,0
80002c06:	3ee010ef          	jal	ra,80003ff4 <crc16>
80002c0a:	85aa                	mv	a1,a0
80002c0c:	4501                	li	a0,0
80002c0e:	3e6010ef          	jal	ra,80003ff4 <crc16>
80002c12:	85aa                	mv	a1,a0
80002c14:	4501                	li	a0,0
80002c16:	3de010ef          	jal	ra,80003ff4 <crc16>
80002c1a:	85aa                	mv	a1,a0
80002c1c:	4501                	li	a0,0
80002c1e:	3d6010ef          	jal	ra,80003ff4 <crc16>
80002c22:	b125                	j	8000284a <matrix_test+0xfae>

80002c24 <core_bench_matrix>:
80002c24:	1141                	addi	sp,sp,-16
80002c26:	c422                	sw	s0,8(sp)
80002c28:	872e                	mv	a4,a1
80002c2a:	8432                	mv	s0,a2
80002c2c:	454c                	lw	a1,12(a0)
80002c2e:	4514                	lw	a3,8(a0)
80002c30:	4150                	lw	a2,4(a0)
80002c32:	4108                	lw	a0,0(a0)
80002c34:	c606                	sw	ra,12(sp)
80002c36:	c67fe0ef          	jal	ra,8000189c <matrix_test>
80002c3a:	85a2                	mv	a1,s0
80002c3c:	4422                	lw	s0,8(sp)
80002c3e:	40b2                	lw	ra,12(sp)
80002c40:	0141                	addi	sp,sp,16
80002c42:	3b20106f          	j	80003ff4 <crc16>
	...

80002c48 <core_init_matrix>:
80002c48:	7179                	addi	sp,sp,-48
80002c4a:	d622                	sw	s0,44(sp)
80002c4c:	d426                	sw	s1,40(sp)
80002c4e:	d24a                	sw	s2,36(sp)
80002c50:	d04e                	sw	s3,32(sp)
80002c52:	ce52                	sw	s4,28(sp)
80002c54:	cc56                	sw	s5,24(sp)
80002c56:	ca5a                	sw	s6,20(sp)
80002c58:	c85e                	sw	s7,16(sp)
80002c5a:	c662                	sw	s8,12(sp)
80002c5c:	c466                	sw	s9,8(sp)
80002c5e:	882a                	mv	a6,a0
80002c60:	e211                	bnez	a2,80002c64 <core_init_matrix+0x1c>
80002c62:	4605                	li	a2,1
80002c64:	058d                	addi	a1,a1,3
80002c66:	ffc5f493          	andi	s1,a1,-4
80002c6a:	4501                	li	a0,0
80002c6c:	00081563          	bnez	a6,80002c76 <core_init_matrix+0x2e>
80002c70:	a4d1                	j	80002f34 <core_init_matrix+0x2ec>
80002c72:	0001                	nop
80002c74:	853a                	mv	a0,a4
80002c76:	00150713          	addi	a4,a0,1
80002c7a:	02e707b3          	mul	a5,a4,a4
80002c7e:	00379313          	slli	t1,a5,0x3
80002c82:	ff0369e3          	bltu	t1,a6,80002c74 <core_init_matrix+0x2c>
80002c86:	02a503b3          	mul	t2,a0,a0
80002c8a:	89aa                	mv	s3,a0
80002c8c:	00139293          	slli	t0,t2,0x1
80002c90:	00548433          	add	s0,s1,t0
80002c94:	26050863          	beqz	a0,80002f04 <core_init_matrix+0x2bc>
80002c98:	6ec1                	lui	t4,0x10
80002c9a:	4f81                	li	t6,0
80002c9c:	4885                	li	a7,1
80002c9e:	40848f33          	sub	t5,s1,s0
80002ca2:	00151913          	slli	s2,a0,0x1
80002ca6:	1efd                	addi	t4,t4,-1
80002ca8:	03160633          	mul	a2,a2,a7
80002cac:	01089a13          	slli	s4,a7,0x10
80002cb0:	010a5a93          	srli	s5,s4,0x10
80002cb4:	fff8cb13          	not	s6,a7
80002cb8:	011b0bb3          	add	s7,s6,a7
80002cbc:	00ab8c33          	add	s8,s7,a0
80002cc0:	00188593          	addi	a1,a7,1
80002cc4:	003c7c93          	andi	s9,s8,3
80002cc8:	41158e33          	sub	t3,a1,a7
80002ccc:	03f90733          	mul	a4,s2,t6
80002cd0:	41f65813          	srai	a6,a2,0x1f
80002cd4:	01085793          	srli	a5,a6,0x10
80002cd8:	00f60333          	add	t1,a2,a5
80002cdc:	01d373b3          	and	t2,t1,t4
80002ce0:	40f38633          	sub	a2,t2,a5
80002ce4:	00ca8a33          	add	s4,s5,a2
80002ce8:	010a1b13          	slli	s6,s4,0x10
80002cec:	010b5b93          	srli	s7,s6,0x10
80002cf0:	9ade                	add	s5,s5,s7
80002cf2:	00e40333          	add	t1,s0,a4
80002cf6:	0ffafc13          	andi	s8,s5,255
80002cfa:	01731023          	sh	s7,0(t1)
80002cfe:	006f0733          	add	a4,t5,t1
80002d02:	01871023          	sh	s8,0(a4)
80002d06:	00230813          	addi	a6,t1,2
80002d0a:	1eae7763          	bleu	a0,t3,80002ef8 <core_init_matrix+0x2b0>
80002d0e:	0e0c8363          	beqz	s9,80002df4 <core_init_matrix+0x1ac>
80002d12:	4e05                	li	t3,1
80002d14:	09cc8a63          	beq	s9,t3,80002da8 <core_init_matrix+0x160>
80002d18:	4789                	li	a5,2
80002d1a:	04fc8563          	beq	s9,a5,80002d64 <core_init_matrix+0x11c>
80002d1e:	02b60633          	mul	a2,a2,a1
80002d22:	05c2                	slli	a1,a1,0x10
80002d24:	0105dc93          	srli	s9,a1,0x10
80002d28:	010f03b3          	add	t2,t5,a6
80002d2c:	00430813          	addi	a6,t1,4
80002d30:	00288593          	addi	a1,a7,2
80002d34:	41f65a13          	srai	s4,a2,0x1f
80002d38:	010a5b13          	srli	s6,s4,0x10
80002d3c:	01660bb3          	add	s7,a2,s6
80002d40:	01dbfab3          	and	s5,s7,t4
80002d44:	416a8633          	sub	a2,s5,s6
80002d48:	00cc8c33          	add	s8,s9,a2
80002d4c:	010c1713          	slli	a4,s8,0x10
80002d50:	01075e13          	srli	t3,a4,0x10
80002d54:	01cc87b3          	add	a5,s9,t3
80002d58:	01c31123          	sh	t3,2(t1)
80002d5c:	0ff7f313          	andi	t1,a5,255
80002d60:	00639023          	sh	t1,0(t2)
80002d64:	02b60633          	mul	a2,a2,a1
80002d68:	01059c93          	slli	s9,a1,0x10
80002d6c:	010cd393          	srli	t2,s9,0x10
80002d70:	010f0a33          	add	s4,t5,a6
80002d74:	0585                	addi	a1,a1,1
80002d76:	0809                	addi	a6,a6,2
80002d78:	41f65b13          	srai	s6,a2,0x1f
80002d7c:	010b5b93          	srli	s7,s6,0x10
80002d80:	01760ab3          	add	s5,a2,s7
80002d84:	01dafc33          	and	s8,s5,t4
80002d88:	417c0633          	sub	a2,s8,s7
80002d8c:	00c38733          	add	a4,t2,a2
80002d90:	01071e13          	slli	t3,a4,0x10
80002d94:	010e5313          	srli	t1,t3,0x10
80002d98:	006387b3          	add	a5,t2,t1
80002d9c:	fe681f23          	sh	t1,-2(a6)
80002da0:	0ff7fc93          	andi	s9,a5,255
80002da4:	019a1023          	sh	s9,0(s4)
80002da8:	02b60633          	mul	a2,a2,a1
80002dac:	01059393          	slli	t2,a1,0x10
80002db0:	0103da13          	srli	s4,t2,0x10
80002db4:	010f0b33          	add	s6,t5,a6
80002db8:	0809                	addi	a6,a6,2
80002dba:	0585                	addi	a1,a1,1
80002dbc:	41158bb3          	sub	s7,a1,a7
80002dc0:	41f65a93          	srai	s5,a2,0x1f
80002dc4:	010adc13          	srli	s8,s5,0x10
80002dc8:	01860733          	add	a4,a2,s8
80002dcc:	01d77e33          	and	t3,a4,t4
80002dd0:	418e0633          	sub	a2,t3,s8
80002dd4:	00ca0333          	add	t1,s4,a2
80002dd8:	01031793          	slli	a5,t1,0x10
80002ddc:	0107dc93          	srli	s9,a5,0x10
80002de0:	019a03b3          	add	t2,s4,s9
80002de4:	ff981f23          	sh	s9,-2(a6)
80002de8:	0ff3fa13          	andi	s4,t2,255
80002dec:	014b1023          	sh	s4,0(s6)
80002df0:	10abf463          	bleu	a0,s7,80002ef8 <core_init_matrix+0x2b0>
80002df4:	02b60633          	mul	a2,a2,a1
80002df8:	00258713          	addi	a4,a1,2
80002dfc:	01071c13          	slli	s8,a4,0x10
80002e00:	010c5e13          	srli	t3,s8,0x10
80002e04:	00158c93          	addi	s9,a1,1
80002e08:	010c9b93          	slli	s7,s9,0x10
80002e0c:	01059b13          	slli	s6,a1,0x10
80002e10:	010b5a13          	srli	s4,s6,0x10
80002e14:	010f07b3          	add	a5,t5,a6
80002e18:	010bdb13          	srli	s6,s7,0x10
80002e1c:	41f65393          	srai	t2,a2,0x1f
80002e20:	0103dc13          	srli	s8,t2,0x10
80002e24:	9662                	add	a2,a2,s8
80002e26:	01d673b3          	and	t2,a2,t4
80002e2a:	41838c33          	sub	s8,t2,s8
80002e2e:	039c0cb3          	mul	s9,s8,s9
80002e32:	018a0633          	add	a2,s4,s8
80002e36:	01061393          	slli	t2,a2,0x10
80002e3a:	0103dc13          	srli	s8,t2,0x10
80002e3e:	9a62                	add	s4,s4,s8
80002e40:	01881023          	sh	s8,0(a6)
80002e44:	0ffa7613          	andi	a2,s4,255
80002e48:	00c79023          	sh	a2,0(a5)
80002e4c:	8bbe                	mv	s7,a5
80002e4e:	8a3e                	mv	s4,a5
80002e50:	83be                	mv	t2,a5
80002e52:	41fcd793          	srai	a5,s9,0x1f
80002e56:	0107dc13          	srli	s8,a5,0x10
80002e5a:	9ce2                	add	s9,s9,s8
80002e5c:	01dcf633          	and	a2,s9,t4
80002e60:	418607b3          	sub	a5,a2,s8
80002e64:	02e78733          	mul	a4,a5,a4
80002e68:	00fb0c33          	add	s8,s6,a5
80002e6c:	010c1c93          	slli	s9,s8,0x10
80002e70:	010cd613          	srli	a2,s9,0x10
80002e74:	00c81123          	sh	a2,2(a6)
80002e78:	9b32                	add	s6,s6,a2
80002e7a:	00358a93          	addi	s5,a1,3
80002e7e:	0ffb7793          	andi	a5,s6,255
80002e82:	010a9313          	slli	t1,s5,0x10
80002e86:	00fb9123          	sh	a5,2(s7)
80002e8a:	41f75c13          	srai	s8,a4,0x1f
80002e8e:	010c5c93          	srli	s9,s8,0x10
80002e92:	9766                	add	a4,a4,s9
80002e94:	01d77633          	and	a2,a4,t4
80002e98:	41960b33          	sub	s6,a2,s9
80002e9c:	035b0ab3          	mul	s5,s6,s5
80002ea0:	016e07b3          	add	a5,t3,s6
80002ea4:	01079c13          	slli	s8,a5,0x10
80002ea8:	010c5c93          	srli	s9,s8,0x10
80002eac:	9e66                	add	t3,t3,s9
80002eae:	0821                	addi	a6,a6,8
80002eb0:	ff981e23          	sh	s9,-4(a6)
80002eb4:	0ffe7713          	andi	a4,t3,255
80002eb8:	00ea1223          	sh	a4,4(s4)
80002ebc:	01035313          	srli	t1,t1,0x10
80002ec0:	41fada13          	srai	s4,s5,0x1f
80002ec4:	010a5613          	srli	a2,s4,0x10
80002ec8:	00ca8b33          	add	s6,s5,a2
80002ecc:	01db7ab3          	and	s5,s6,t4
80002ed0:	40ca8633          	sub	a2,s5,a2
80002ed4:	00c307b3          	add	a5,t1,a2
80002ed8:	01079c13          	slli	s8,a5,0x10
80002edc:	010c5c93          	srli	s9,s8,0x10
80002ee0:	9366                	add	t1,t1,s9
80002ee2:	0591                	addi	a1,a1,4
80002ee4:	ff981f23          	sh	s9,-2(a6)
80002ee8:	0ff37e13          	andi	t3,t1,255
80002eec:	41158bb3          	sub	s7,a1,a7
80002ef0:	01c39323          	sh	t3,6(t2)
80002ef4:	f0abe0e3          	bltu	s7,a0,80002df4 <core_init_matrix+0x1ac>
80002ef8:	0f85                	addi	t6,t6,1
80002efa:	00aff563          	bleu	a0,t6,80002f04 <core_init_matrix+0x2bc>
80002efe:	88ae                	mv	a7,a1
80002f00:	b365                	j	80002ca8 <core_init_matrix+0x60>
80002f02:	0001                	nop
80002f04:	005408b3          	add	a7,s0,t0
80002f08:	c680                	sw	s0,8(a3)
80002f0a:	00388293          	addi	t0,a7,3
80002f0e:	5432                	lw	s0,44(sp)
80002f10:	ffc2f593          	andi	a1,t0,-4
80002f14:	c2c4                	sw	s1,4(a3)
80002f16:	0136a023          	sw	s3,0(a3)
80002f1a:	c6cc                	sw	a1,12(a3)
80002f1c:	54a2                	lw	s1,40(sp)
80002f1e:	5912                	lw	s2,36(sp)
80002f20:	5982                	lw	s3,32(sp)
80002f22:	4a72                	lw	s4,28(sp)
80002f24:	4ae2                	lw	s5,24(sp)
80002f26:	4b52                	lw	s6,20(sp)
80002f28:	4bc2                	lw	s7,16(sp)
80002f2a:	4c32                	lw	s8,12(sp)
80002f2c:	4ca2                	lw	s9,8(sp)
80002f2e:	6145                	addi	sp,sp,48
80002f30:	8082                	ret
80002f32:	0001                	nop
80002f34:	00248413          	addi	s0,s1,2
80002f38:	59fd                	li	s3,-1
80002f3a:	557d                	li	a0,-1
80002f3c:	4289                	li	t0,2
80002f3e:	bba9                	j	80002c98 <core_init_matrix+0x50>

80002f40 <core_init_state>:
80002f40:	4781                	li	a5,0
80002f42:	4681                	li	a3,0
80002f44:	1101                	addi	sp,sp,-32
80002f46:	0585                	addi	a1,a1,1
80002f48:	00f68733          	add	a4,a3,a5
80002f4c:	01059293          	slli	t0,a1,0x10
80002f50:	ce22                	sw	s0,28(sp)
80002f52:	cc26                	sw	s1,24(sp)
80002f54:	ca4a                	sw	s2,20(sp)
80002f56:	c84e                	sw	s3,16(sp)
80002f58:	c652                	sw	s4,12(sp)
80002f5a:	c456                	sw	s5,8(sp)
80002f5c:	c25a                	sw	s6,4(sp)
80002f5e:	90000fb7          	lui	t6,0x90000
80002f62:	90000337          	lui	t1,0x90000
80002f66:	90000f37          	lui	t5,0x90000
80002f6a:	90000eb7          	lui	t4,0x90000
80002f6e:	90000e37          	lui	t3,0x90000
80002f72:	c05e                	sw	s7,0(sp)
80002f74:	fff50893          	addi	a7,a0,-1
80002f78:	00170a93          	addi	s5,a4,1
80002f7c:	0102d593          	srli	a1,t0,0x10
80002f80:	4b01                	li	s6,0
80002f82:	4385                	li	t2,1
80002f84:	02c00293          	li	t0,44
80002f88:	4409                	li	s0,2
80002f8a:	448d                	li	s1,3
80002f8c:	4811                	li	a6,4
80002f8e:	4915                	li	s2,5
80002f90:	4999                	li	s3,6
80002f92:	4a21                	li	s4,8
80002f94:	574f8f93          	addi	t6,t6,1396 # 90000574 <_sp+0xffff0574>
80002f98:	54030313          	addi	t1,t1,1344 # 90000540 <_sp+0xffff0540>
80002f9c:	554f0f13          	addi	t5,t5,1364 # 90000554 <_sp+0xffff0554>
80002fa0:	584e8e93          	addi	t4,t4,1412 # 90000584 <_sp+0xffff0584>
80002fa4:	564e0e13          	addi	t3,t3,1380 # 90000564 <_sp+0xffff0564>
80002fa8:	051afa63          	bleu	a7,s5,80002ffc <core_init_state+0xbc>
80002fac:	efe5                	bnez	a5,800030a4 <core_init_state+0x164>
80002fae:	0075fa93          	andi	s5,a1,7
80002fb2:	ffda8793          	addi	a5,s5,-3
80002fb6:	01079b13          	slli	s6,a5,0x10
80002fba:	0035db93          	srli	s7,a1,0x3
80002fbe:	010b5a93          	srli	s5,s6,0x10
80002fc2:	003bf713          	andi	a4,s7,3
80002fc6:	17586063          	bltu	a6,s5,80003126 <core_init_state+0x1e6>
80002fca:	002a9793          	slli	a5,s5,0x2
80002fce:	00678bb3          	add	s7,a5,t1
80002fd2:	000bab03          	lw	s6,0(s7)
80002fd6:	00271a93          	slli	s5,a4,0x2
80002fda:	8b02                	jr	s6
80002fdc:	015e0733          	add	a4,t3,s5
80002fe0:	00072b03          	lw	s6,0(a4)
80002fe4:	47a1                	li	a5,8
80002fe6:	0585                	addi	a1,a1,1
80002fe8:	00f68733          	add	a4,a3,a5
80002fec:	01059b93          	slli	s7,a1,0x10
80002ff0:	00170a93          	addi	s5,a4,1
80002ff4:	010bd593          	srli	a1,s7,0x10
80002ff8:	fb1aeae3          	bltu	s5,a7,80002fac <core_init_state+0x6c>
80002ffc:	08a6f363          	bleu	a0,a3,80003082 <core_init_state+0x142>
80003000:	96b2                	add	a3,a3,a2
80003002:	962a                	add	a2,a2,a0
80003004:	40d607b3          	sub	a5,a2,a3
80003008:	0077f393          	andi	t2,a5,7
8000300c:	04038863          	beqz	t2,8000305c <core_init_state+0x11c>
80003010:	4405                	li	s0,1
80003012:	04838063          	beq	t2,s0,80003052 <core_init_state+0x112>
80003016:	4489                	li	s1,2
80003018:	02938a63          	beq	t2,s1,8000304c <core_init_state+0x10c>
8000301c:	450d                	li	a0,3
8000301e:	02a38463          	beq	t2,a0,80003046 <core_init_state+0x106>
80003022:	4811                	li	a6,4
80003024:	01038e63          	beq	t2,a6,80003040 <core_init_state+0x100>
80003028:	4895                	li	a7,5
8000302a:	01138863          	beq	t2,a7,8000303a <core_init_state+0xfa>
8000302e:	4919                	li	s2,6
80003030:	11239a63          	bne	t2,s2,80003144 <core_init_state+0x204>
80003034:	00068023          	sb	zero,0(a3)
80003038:	0685                	addi	a3,a3,1
8000303a:	00068023          	sb	zero,0(a3)
8000303e:	0685                	addi	a3,a3,1
80003040:	00068023          	sb	zero,0(a3)
80003044:	0685                	addi	a3,a3,1
80003046:	00068023          	sb	zero,0(a3)
8000304a:	0685                	addi	a3,a3,1
8000304c:	00068023          	sb	zero,0(a3)
80003050:	0685                	addi	a3,a3,1
80003052:	00068023          	sb	zero,0(a3)
80003056:	0685                	addi	a3,a3,1
80003058:	02c68563          	beq	a3,a2,80003082 <core_init_state+0x142>
8000305c:	00068023          	sb	zero,0(a3)
80003060:	000680a3          	sb	zero,1(a3)
80003064:	00068123          	sb	zero,2(a3)
80003068:	000681a3          	sb	zero,3(a3)
8000306c:	00068223          	sb	zero,4(a3)
80003070:	000682a3          	sb	zero,5(a3)
80003074:	00068323          	sb	zero,6(a3)
80003078:	000683a3          	sb	zero,7(a3)
8000307c:	06a1                	addi	a3,a3,8
8000307e:	fcc69fe3          	bne	a3,a2,8000305c <core_init_state+0x11c>
80003082:	4472                	lw	s0,28(sp)
80003084:	44e2                	lw	s1,24(sp)
80003086:	4952                	lw	s2,20(sp)
80003088:	49c2                	lw	s3,16(sp)
8000308a:	4a32                	lw	s4,12(sp)
8000308c:	4aa2                	lw	s5,8(sp)
8000308e:	4b12                	lw	s6,4(sp)
80003090:	4b82                	lw	s7,0(sp)
80003092:	6105                	addi	sp,sp,32
80003094:	8082                	ret
80003096:	0001                	nop
80003098:	015e87b3          	add	a5,t4,s5
8000309c:	0007ab03          	lw	s6,0(a5)
800030a0:	47a1                	li	a5,8
800030a2:	b791                	j	80002fe6 <core_init_state+0xa6>
800030a4:	000b4b83          	lbu	s7,0(s6)
800030a8:	96b2                	add	a3,a3,a2
800030aa:	01768023          	sb	s7,0(a3)
800030ae:	04778a63          	beq	a5,t2,80003102 <core_init_state+0x1c2>
800030b2:	001b4b83          	lbu	s7,1(s6)
800030b6:	017680a3          	sb	s7,1(a3)
800030ba:	04878463          	beq	a5,s0,80003102 <core_init_state+0x1c2>
800030be:	002b4b83          	lbu	s7,2(s6)
800030c2:	01768123          	sb	s7,2(a3)
800030c6:	02978e63          	beq	a5,s1,80003102 <core_init_state+0x1c2>
800030ca:	003b4b83          	lbu	s7,3(s6)
800030ce:	017681a3          	sb	s7,3(a3)
800030d2:	03078863          	beq	a5,a6,80003102 <core_init_state+0x1c2>
800030d6:	004b4b83          	lbu	s7,4(s6)
800030da:	01768223          	sb	s7,4(a3)
800030de:	03278263          	beq	a5,s2,80003102 <core_init_state+0x1c2>
800030e2:	005b4b83          	lbu	s7,5(s6)
800030e6:	017682a3          	sb	s7,5(a3)
800030ea:	01378c63          	beq	a5,s3,80003102 <core_init_state+0x1c2>
800030ee:	006b4b83          	lbu	s7,6(s6)
800030f2:	01768323          	sb	s7,6(a3)
800030f6:	01479663          	bne	a5,s4,80003102 <core_init_state+0x1c2>
800030fa:	007b4b03          	lbu	s6,7(s6)
800030fe:	016683a3          	sb	s6,7(a3)
80003102:	86d6                	mv	a3,s5
80003104:	0075fa93          	andi	s5,a1,7
80003108:	ffda8793          	addi	a5,s5,-3
8000310c:	9732                	add	a4,a4,a2
8000310e:	01079b13          	slli	s6,a5,0x10
80003112:	00570023          	sb	t0,0(a4)
80003116:	0035db93          	srli	s7,a1,0x3
8000311a:	010b5a93          	srli	s5,s6,0x10
8000311e:	003bf713          	andi	a4,s7,3
80003122:	eb5874e3          	bleu	s5,a6,80002fca <core_init_state+0x8a>
80003126:	00271a93          	slli	s5,a4,0x2
8000312a:	015f8733          	add	a4,t6,s5
8000312e:	00072b03          	lw	s6,0(a4)
80003132:	4791                	li	a5,4
80003134:	bd4d                	j	80002fe6 <core_init_state+0xa6>
80003136:	015f0bb3          	add	s7,t5,s5
8000313a:	000bab03          	lw	s6,0(s7)
8000313e:	47a1                	li	a5,8
80003140:	b55d                	j	80002fe6 <core_init_state+0xa6>
80003142:	0001                	nop
80003144:	00068023          	sb	zero,0(a3)
80003148:	0685                	addi	a3,a3,1
8000314a:	b5ed                	j	80003034 <core_init_state+0xf4>

8000314c <core_state_transition>:
8000314c:	411c                	lw	a5,0(a0)
8000314e:	0007c703          	lbu	a4,0(a5)
80003152:	cf31                	beqz	a4,800031ae <core_state_transition+0x62>
80003154:	02c00693          	li	a3,44
80003158:	00178613          	addi	a2,a5,1
8000315c:	24d70463          	beq	a4,a3,800033a4 <core_state_transition+0x258>
80003160:	0005a803          	lw	a6,0(a1)
80003164:	fd070893          	addi	a7,a4,-48
80003168:	0ff8f293          	andi	t0,a7,255
8000316c:	4325                	li	t1,9
8000316e:	00180393          	addi	t2,a6,1
80003172:	04536163          	bltu	t1,t0,800031b4 <core_state_transition+0x68>
80003176:	0075a023          	sw	t2,0(a1)
8000317a:	0017c703          	lbu	a4,1(a5)
8000317e:	24070d63          	beqz	a4,800033d8 <core_state_transition+0x28c>
80003182:	0789                	addi	a5,a5,2
80003184:	0ad70c63          	beq	a4,a3,8000323c <core_state_transition+0xf0>
80003188:	02e00f13          	li	t5,46
8000318c:	4fa5                	li	t6,9
8000318e:	02c00813          	li	a6,44
80003192:	fd070693          	addi	a3,a4,-48
80003196:	0ff6f893          	andi	a7,a3,255
8000319a:	0be70363          	beq	a4,t5,80003240 <core_state_transition+0xf4>
8000319e:	1b1fff63          	bleu	a7,t6,8000335c <core_state_transition+0x210>
800031a2:	4990                	lw	a2,16(a1)
800031a4:	4705                	li	a4,1
800031a6:	00160293          	addi	t0,a2,1
800031aa:	0055a823          	sw	t0,16(a1)
800031ae:	c11c                	sw	a5,0(a0)
800031b0:	853a                	mv	a0,a4
800031b2:	8082                	ret
800031b4:	02b00e13          	li	t3,43
800031b8:	03c70663          	beq	a4,t3,800031e4 <core_state_transition+0x98>
800031bc:	02d00e93          	li	t4,45
800031c0:	03d70263          	beq	a4,t4,800031e4 <core_state_transition+0x98>
800031c4:	02e00f13          	li	t5,46
800031c8:	1fe70263          	beq	a4,t5,800033ac <core_state_transition+0x260>
800031cc:	41d8                	lw	a4,4(a1)
800031ce:	0075a023          	sw	t2,0(a1)
800031d2:	87b2                	mv	a5,a2
800031d4:	00170f93          	addi	t6,a4,1
800031d8:	01f5a223          	sw	t6,4(a1)
800031dc:	4705                	li	a4,1
800031de:	c11c                	sw	a5,0(a0)
800031e0:	853a                	mv	a0,a4
800031e2:	8082                	ret
800031e4:	0075a023          	sw	t2,0(a1)
800031e8:	0017c803          	lbu	a6,1(a5)
800031ec:	1c080e63          	beqz	a6,800033c8 <core_state_transition+0x27c>
800031f0:	00278613          	addi	a2,a5,2
800031f4:	1cd80a63          	beq	a6,a3,800033c8 <core_state_transition+0x27c>
800031f8:	4594                	lw	a3,8(a1)
800031fa:	fd080893          	addi	a7,a6,-48
800031fe:	0ff8f293          	andi	t0,a7,255
80003202:	4325                	li	t1,9
80003204:	00168393          	addi	t2,a3,1
80003208:	00537e63          	bleu	t0,t1,80003224 <core_state_transition+0xd8>
8000320c:	02e00e13          	li	t3,46
80003210:	17c80c63          	beq	a6,t3,80003388 <core_state_transition+0x23c>
80003214:	0075a423          	sw	t2,8(a1)
80003218:	87b2                	mv	a5,a2
8000321a:	4705                	li	a4,1
8000321c:	c11c                	sw	a5,0(a0)
8000321e:	853a                	mv	a0,a4
80003220:	8082                	ret
80003222:	0001                	nop
80003224:	0075a423          	sw	t2,8(a1)
80003228:	0027c703          	lbu	a4,2(a5)
8000322c:	1a070663          	beqz	a4,800033d8 <core_state_transition+0x28c>
80003230:	02c00e93          	li	t4,44
80003234:	00160793          	addi	a5,a2,1
80003238:	f5d718e3          	bne	a4,t4,80003188 <core_state_transition+0x3c>
8000323c:	4711                	li	a4,4
8000323e:	bf85                	j	800031ae <core_state_transition+0x62>
80003240:	0105a383          	lw	t2,16(a1)
80003244:	00138e13          	addi	t3,t2,1
80003248:	01c5a823          	sw	t3,16(a1)
8000324c:	00164703          	lbu	a4,1(a2)
80003250:	18070863          	beqz	a4,800033e0 <core_state_transition+0x294>
80003254:	02c00e93          	li	t4,44
80003258:	00178e13          	addi	t3,a5,1
8000325c:	17d70263          	beq	a4,t4,800033c0 <core_state_transition+0x274>
80003260:	fd070693          	addi	a3,a4,-48
80003264:	04500f13          	li	t5,69
80003268:	0df77613          	andi	a2,a4,223
8000326c:	4fa5                	li	t6,9
8000326e:	02c00893          	li	a7,44
80003272:	0ff6f293          	andi	t0,a3,255
80003276:	03e60663          	beq	a2,t5,800032a2 <core_state_transition+0x156>
8000327a:	0e5fed63          	bltu	t6,t0,80003374 <core_state_transition+0x228>
8000327e:	0017c703          	lbu	a4,1(a5)
80003282:	001e0393          	addi	t2,t3,1
80003286:	87f2                	mv	a5,t3
80003288:	12070c63          	beqz	a4,800033c0 <core_state_transition+0x274>
8000328c:	17170563          	beq	a4,a7,800033f6 <core_state_transition+0x2aa>
80003290:	fd070693          	addi	a3,a4,-48
80003294:	0df77613          	andi	a2,a4,223
80003298:	8e1e                	mv	t3,t2
8000329a:	0ff6f293          	andi	t0,a3,255
8000329e:	fde61ee3          	bne	a2,t5,8000327a <core_state_transition+0x12e>
800032a2:	0145ae83          	lw	t4,20(a1)
800032a6:	001e8f13          	addi	t5,t4,1
800032aa:	01e5aa23          	sw	t5,20(a1)
800032ae:	0017cf83          	lbu	t6,1(a5)
800032b2:	100f8f63          	beqz	t6,800033d0 <core_state_transition+0x284>
800032b6:	02c00613          	li	a2,44
800032ba:	001e0793          	addi	a5,t3,1
800032be:	10cf8a63          	beq	t6,a2,800033d2 <core_state_transition+0x286>
800032c2:	00c5a883          	lw	a7,12(a1)
800032c6:	fd5f8693          	addi	a3,t6,-43
800032ca:	0fd6f293          	andi	t0,a3,253
800032ce:	00188313          	addi	t1,a7,1
800032d2:	0065a623          	sw	t1,12(a1)
800032d6:	00028763          	beqz	t0,800032e4 <core_state_transition+0x198>
800032da:	4705                	li	a4,1
800032dc:	c11c                	sw	a5,0(a0)
800032de:	853a                	mv	a0,a4
800032e0:	8082                	ret
800032e2:	0001                	nop
800032e4:	001e4803          	lbu	a6,1(t3)
800032e8:	0e080e63          	beqz	a6,800033e4 <core_state_transition+0x298>
800032ec:	002e0693          	addi	a3,t3,2
800032f0:	0ec80c63          	beq	a6,a2,800033e8 <core_state_transition+0x29c>
800032f4:	4d9c                	lw	a5,24(a1)
800032f6:	fd080713          	addi	a4,a6,-48
800032fa:	0ff77393          	andi	t2,a4,255
800032fe:	00178f13          	addi	t5,a5,1
80003302:	4ea5                	li	t4,9
80003304:	01e5ac23          	sw	t5,24(a1)
80003308:	007ef663          	bleu	t2,t4,80003314 <core_state_transition+0x1c8>
8000330c:	87b6                	mv	a5,a3
8000330e:	4705                	li	a4,1
80003310:	b7f1                	j	800032dc <core_state_transition+0x190>
80003312:	0001                	nop
80003314:	002e4303          	lbu	t1,2(t3)
80003318:	0c030c63          	beqz	t1,800033f0 <core_state_transition+0x2a4>
8000331c:	003e0793          	addi	a5,t3,3
80003320:	02c30c63          	beq	t1,a2,80003358 <core_state_transition+0x20c>
80003324:	4e25                	li	t3,9
80003326:	02c00f93          	li	t6,44
8000332a:	fd030613          	addi	a2,t1,-48
8000332e:	0ff67893          	andi	a7,a2,255
80003332:	011e7963          	bleu	a7,t3,80003344 <core_state_transition+0x1f8>
80003336:	41d4                	lw	a3,4(a1)
80003338:	4705                	li	a4,1
8000333a:	00168293          	addi	t0,a3,1
8000333e:	0055a223          	sw	t0,4(a1)
80003342:	b5b5                	j	800031ae <core_state_transition+0x62>
80003344:	0016c303          	lbu	t1,1(a3)
80003348:	00178813          	addi	a6,a5,1
8000334c:	86be                	mv	a3,a5
8000334e:	00030563          	beqz	t1,80003358 <core_state_transition+0x20c>
80003352:	87c2                	mv	a5,a6
80003354:	fdf31be3          	bne	t1,t6,8000332a <core_state_transition+0x1de>
80003358:	471d                	li	a4,7
8000335a:	bd91                	j	800031ae <core_state_transition+0x62>
8000335c:	00164703          	lbu	a4,1(a2)
80003360:	00178313          	addi	t1,a5,1
80003364:	863e                	mv	a2,a5
80003366:	ec070be3          	beqz	a4,8000323c <core_state_transition+0xf0>
8000336a:	879a                	mv	a5,t1
8000336c:	e30713e3          	bne	a4,a6,80003192 <core_state_transition+0x46>
80003370:	4711                	li	a4,4
80003372:	bd35                	j	800031ae <core_state_transition+0x62>
80003374:	0145a303          	lw	t1,20(a1)
80003378:	87f2                	mv	a5,t3
8000337a:	4705                	li	a4,1
8000337c:	00130813          	addi	a6,t1,1
80003380:	0105aa23          	sw	a6,20(a1)
80003384:	b52d                	j	800031ae <core_state_transition+0x62>
80003386:	0001                	nop
80003388:	0075a423          	sw	t2,8(a1)
8000338c:	0027c703          	lbu	a4,2(a5)
80003390:	c739                	beqz	a4,800033de <core_state_transition+0x292>
80003392:	02c00793          	li	a5,44
80003396:	00160e13          	addi	t3,a2,1
8000339a:	02f70363          	beq	a4,a5,800033c0 <core_state_transition+0x274>
8000339e:	87b2                	mv	a5,a2
800033a0:	b5c1                	j	80003260 <core_state_transition+0x114>
800033a2:	0001                	nop
800033a4:	87b2                	mv	a5,a2
800033a6:	4701                	li	a4,0
800033a8:	b519                	j	800031ae <core_state_transition+0x62>
800033aa:	0001                	nop
800033ac:	0075a023          	sw	t2,0(a1)
800033b0:	0017c703          	lbu	a4,1(a5)
800033b4:	c70d                	beqz	a4,800033de <core_state_transition+0x292>
800033b6:	00278e13          	addi	t3,a5,2
800033ba:	fed712e3          	bne	a4,a3,8000339e <core_state_transition+0x252>
800033be:	0001                	nop
800033c0:	87f2                	mv	a5,t3
800033c2:	4715                	li	a4,5
800033c4:	b3ed                	j	800031ae <core_state_transition+0x62>
800033c6:	0001                	nop
800033c8:	87b2                	mv	a5,a2
800033ca:	4709                	li	a4,2
800033cc:	b3cd                	j	800031ae <core_state_transition+0x62>
800033ce:	0001                	nop
800033d0:	87f2                	mv	a5,t3
800033d2:	470d                	li	a4,3
800033d4:	bbe9                	j	800031ae <core_state_transition+0x62>
800033d6:	0001                	nop
800033d8:	87b2                	mv	a5,a2
800033da:	4711                	li	a4,4
800033dc:	bbc9                	j	800031ae <core_state_transition+0x62>
800033de:	87b2                	mv	a5,a2
800033e0:	4715                	li	a4,5
800033e2:	b3f1                	j	800031ae <core_state_transition+0x62>
800033e4:	4719                	li	a4,6
800033e6:	b3e1                	j	800031ae <core_state_transition+0x62>
800033e8:	87b6                	mv	a5,a3
800033ea:	4719                	li	a4,6
800033ec:	b3c9                	j	800031ae <core_state_transition+0x62>
800033ee:	0001                	nop
800033f0:	87b6                	mv	a5,a3
800033f2:	471d                	li	a4,7
800033f4:	bb6d                	j	800031ae <core_state_transition+0x62>
800033f6:	879e                	mv	a5,t2
800033f8:	4715                	li	a4,5
800033fa:	bb55                	j	800031ae <core_state_transition+0x62>
800033fc:	0000                	unimp
	...

80003400 <core_bench_state>:
80003400:	7135                	addi	sp,sp,-160
80003402:	cd22                	sw	s0,152(sp)
80003404:	c94a                	sw	s2,144(sp)
80003406:	c74e                	sw	s3,140(sp)
80003408:	c552                	sw	s4,136(sp)
8000340a:	c356                	sw	s5,132(sp)
8000340c:	c15a                	sw	s6,128(sp)
8000340e:	cf06                	sw	ra,156(sp)
80003410:	cb26                	sw	s1,148(sp)
80003412:	dede                	sw	s7,124(sp)
80003414:	dce2                	sw	s8,120(sp)
80003416:	dae6                	sw	s9,116(sp)
80003418:	d8ea                	sw	s10,112(sp)
8000341a:	d6ee                	sw	s11,108(sp)
8000341c:	842e                	mv	s0,a1
8000341e:	0005c583          	lbu	a1,0(a1)
80003422:	ce22                	sw	s0,28(sp)
80003424:	c082                	sw	zero,64(sp)
80003426:	d002                	sw	zero,32(sp)
80003428:	c282                	sw	zero,68(sp)
8000342a:	d202                	sw	zero,36(sp)
8000342c:	c482                	sw	zero,72(sp)
8000342e:	d402                	sw	zero,40(sp)
80003430:	c682                	sw	zero,76(sp)
80003432:	d602                	sw	zero,44(sp)
80003434:	c882                	sw	zero,80(sp)
80003436:	d802                	sw	zero,48(sp)
80003438:	ca82                	sw	zero,84(sp)
8000343a:	da02                	sw	zero,52(sp)
8000343c:	cc82                	sw	zero,88(sp)
8000343e:	dc02                	sw	zero,56(sp)
80003440:	ce82                	sw	zero,92(sp)
80003442:	de02                	sw	zero,60(sp)
80003444:	8b2a                	mv	s6,a0
80003446:	8ab2                	mv	s5,a2
80003448:	8936                	mv	s2,a3
8000344a:	8a3a                	mv	s4,a4
8000344c:	89be                	mv	s3,a5
8000344e:	34058363          	beqz	a1,80003794 <core_bench_state+0x394>
80003452:	0084                	addi	s1,sp,64
80003454:	85a6                	mv	a1,s1
80003456:	0868                	addi	a0,sp,28
80003458:	39d5                	jal	8000314c <core_state_transition>
8000345a:	00251293          	slli	t0,a0,0x2
8000345e:	109c                	addi	a5,sp,96
80003460:	00578333          	add	t1,a5,t0
80003464:	4772                	lw	a4,28(sp)
80003466:	fc032383          	lw	t2,-64(t1)
8000346a:	00074603          	lbu	a2,0(a4)
8000346e:	00138693          	addi	a3,t2,1
80003472:	fcd32023          	sw	a3,-64(t1)
80003476:	fe79                	bnez	a2,80003454 <core_bench_state+0x54>
80003478:	ce22                	sw	s0,28(sp)
8000347a:	01640533          	add	a0,s0,s6
8000347e:	00044583          	lbu	a1,0(s0)
80003482:	30a47f63          	bleu	a0,s0,800037a0 <core_bench_state+0x3a0>
80003486:	8ba2                	mv	s7,s0
80003488:	02c00093          	li	ra,44
8000348c:	a021                	j	80003494 <core_bench_state+0x94>
8000348e:	0001                	nop
80003490:	000bc583          	lbu	a1,0(s7)
80003494:	0155c833          	xor	a6,a1,s5
80003498:	00158463          	beq	a1,ra,800034a0 <core_bench_state+0xa0>
8000349c:	010b8023          	sb	a6,0(s7)
800034a0:	48f2                	lw	a7,28(sp)
800034a2:	01488bb3          	add	s7,a7,s4
800034a6:	ce5e                	sw	s7,28(sp)
800034a8:	feabe4e3          	bltu	s7,a0,80003490 <core_bench_state+0x90>
800034ac:	00044583          	lbu	a1,0(s0)
800034b0:	ce22                	sw	s0,28(sp)
800034b2:	10058363          	beqz	a1,800035b8 <core_bench_state+0x1b8>
800034b6:	4e01                	li	t3,0
800034b8:	c62a                	sw	a0,12(sp)
800034ba:	4c96                	lw	s9,68(sp)
800034bc:	4086                	lw	ra,64(sp)
800034be:	43a6                	lw	t2,72(sp)
800034c0:	4c46                	lw	s8,80(sp)
800034c2:	4bd6                	lw	s7,84(sp)
800034c4:	42b6                	lw	t0,76(sp)
800034c6:	4fe6                	lw	t6,88(sp)
800034c8:	86a2                	mv	a3,s0
800034ca:	c402                	sw	zero,8(sp)
800034cc:	4d01                	li	s10,0
800034ce:	4a81                	li	s5,0
800034d0:	4701                	li	a4,0
800034d2:	c202                	sw	zero,4(sp)
800034d4:	4601                	li	a2,0
800034d6:	02c00893          	li	a7,44
800034da:	4325                	li	t1,9
800034dc:	04500d93          	li	s11,69
800034e0:	02e00b13          	li	s6,46
800034e4:	8572                	mv	a0,t3
800034e6:	a0a9                	j	80003530 <core_bench_state+0x130>
800034e8:	2e080a63          	beqz	a6,800037dc <core_bench_state+0x3dc>
800034ec:	00268e93          	addi	t4,a3,2
800034f0:	31180a63          	beq	a6,a7,80003804 <core_bench_state+0x404>
800034f4:	0026c603          	lbu	a2,2(a3)
800034f8:	85c2                	mv	a1,a6
800034fa:	fd058693          	addi	a3,a1,-48
800034fe:	0ff6f813          	andi	a6,a3,255
80003502:	11658b63          	beq	a1,s6,80003618 <core_bench_state+0x218>
80003506:	1f037163          	bleu	a6,t1,800036e8 <core_bench_state+0x2e8>
8000350a:	4f05                	li	t5,1
8000350c:	85b2                	mv	a1,a2
8000350e:	0c05                	addi	s8,s8,1
80003510:	86f6                	mv	a3,t4
80003512:	c27a                	sw	t5,4(sp)
80003514:	4605                	li	a2,1
80003516:	0001                	nop
80003518:	0f0a                	slli	t5,t5,0x2
8000351a:	06010813          	addi	a6,sp,96
8000351e:	01e80eb3          	add	t4,a6,t5
80003522:	fc0ea783          	lw	a5,-64(t4)
80003526:	00178e13          	addi	t3,a5,1
8000352a:	fdcea023          	sw	t3,-64(t4)
8000352e:	c9b9                	beqz	a1,80003584 <core_bench_state+0x184>
80003530:	0016c803          	lbu	a6,1(a3)
80003534:	00168f13          	addi	t5,a3,1
80003538:	25158a63          	beq	a1,a7,8000378c <core_bench_state+0x38c>
8000353c:	fd058e93          	addi	t4,a1,-48
80003540:	0ffef793          	andi	a5,t4,255
80003544:	0085                	addi	ra,ra,1
80003546:	faf371e3          	bleu	a5,t1,800034e8 <core_bench_state+0xe8>
8000354a:	02b00e13          	li	t3,43
8000354e:	1bc58b63          	beq	a1,t3,80003704 <core_bench_state+0x304>
80003552:	02d00613          	li	a2,45
80003556:	1ac58763          	beq	a1,a2,80003704 <core_bench_state+0x304>
8000355a:	21658d63          	beq	a1,s6,80003774 <core_bench_state+0x374>
8000355e:	86fa                	mv	a3,t5
80003560:	4f05                	li	t5,1
80003562:	85c2                	mv	a1,a6
80003564:	c47a                	sw	t5,8(sp)
80003566:	06010813          	addi	a6,sp,96
8000356a:	0f0a                	slli	t5,t5,0x2
8000356c:	01e80eb3          	add	t4,a6,t5
80003570:	fc0ea783          	lw	a5,-64(t4)
80003574:	0c85                	addi	s9,s9,1
80003576:	4605                	li	a2,1
80003578:	00178e13          	addi	t3,a5,1
8000357c:	fdcea023          	sw	t3,-64(t4)
80003580:	f9c5                	bnez	a1,80003530 <core_bench_state+0x130>
80003582:	0001                	nop
80003584:	88aa                	mv	a7,a0
80003586:	4532                	lw	a0,12(sp)
80003588:	30061163          	bnez	a2,8000388a <core_bench_state+0x48a>
8000358c:	00088363          	beqz	a7,80003592 <core_bench_state+0x192>
80003590:	c49e                	sw	t2,72(sp)
80003592:	4092                	lw	ra,4(sp)
80003594:	00008363          	beqz	ra,8000359a <core_bench_state+0x19a>
