
fpu-perf.riscv:     file format elf32-littleriscv


Disassembly of section .text:

80001048 <vprintfmt>:
80001048:	400007b7          	lui	a5,0x40000
8000104c:	714d                	addi	sp,sp,-336
8000104e:	17fd                	addi	a5,a5,-1
80001050:	15212023          	sw	s2,320(sp)
80001054:	13312e23          	sw	s3,316(sp)
80001058:	13412c23          	sw	s4,312(sp)
8000105c:	13512a23          	sw	s5,308(sp)
80001060:	13712623          	sw	s7,300(sp)
80001064:	14112623          	sw	ra,332(sp)
80001068:	14812423          	sw	s0,328(sp)
8000106c:	14912223          	sw	s1,324(sp)
80001070:	13612823          	sw	s6,304(sp)
80001074:	13812423          	sw	s8,296(sp)
80001078:	13912223          	sw	s9,292(sp)
8000107c:	13a12023          	sw	s10,288(sp)
80001080:	11b12e23          	sw	s11,284(sp)
80001084:	8a2a                	mv	s4,a0
80001086:	89ae                	mv	s3,a1
80001088:	8932                	mv	s2,a2
8000108a:	c436                	sw	a3,8(sp)
8000108c:	03000a93          	li	s5,48
80001090:	c63e                	sw	a5,12(sp)
80001092:	05700b93          	li	s7,87
80001096:	00094503          	lbu	a0,0(s2)
8000109a:	02500413          	li	s0,37
8000109e:	00850a63          	beq	a0,s0,800010b2 <vprintfmt+0x6a>
800010a2:	c929                	beqz	a0,800010f4 <vprintfmt+0xac>
800010a4:	85ce                	mv	a1,s3
800010a6:	0905                	addi	s2,s2,1
800010a8:	9a02                	jalr	s4
800010aa:	00094503          	lbu	a0,0(s2)
800010ae:	fe851ae3          	bne	a0,s0,800010a2 <vprintfmt+0x5a>
800010b2:	00194883          	lbu	a7,1(s2)
800010b6:	00190493          	addi	s1,s2,1
800010ba:	547d                	li	s0,-1
800010bc:	02000793          	li	a5,32
800010c0:	8726                	mv	a4,s1
800010c2:	c03e                	sw	a5,0(sp)
800010c4:	c222                	sw	s0,4(sp)
800010c6:	4601                	li	a2,0
800010c8:	05500693          	li	a3,85
800010cc:	45a5                	li	a1,9
800010ce:	02d00513          	li	a0,45
800010d2:	fdd88793          	addi	a5,a7,-35
800010d6:	0ff7f793          	andi	a5,a5,255
800010da:	00170913          	addi	s2,a4,1
800010de:	24f6e563          	bltu	a3,a5,80001328 <vprintfmt+0x2e0>
800010e2:	00004817          	auipc	a6,0x4
800010e6:	02680813          	addi	a6,a6,38 # 80005108 <main+0x5c4>
800010ea:	078a                	slli	a5,a5,0x2
800010ec:	97c2                	add	a5,a5,a6
800010ee:	439c                	lw	a5,0(a5)
800010f0:	97c2                	add	a5,a5,a6
800010f2:	8782                	jr	a5
800010f4:	14c12083          	lw	ra,332(sp)
800010f8:	14812403          	lw	s0,328(sp)
800010fc:	14412483          	lw	s1,324(sp)
80001100:	14012903          	lw	s2,320(sp)
80001104:	13c12983          	lw	s3,316(sp)
80001108:	13812a03          	lw	s4,312(sp)
8000110c:	13412a83          	lw	s5,308(sp)
80001110:	13012b03          	lw	s6,304(sp)
80001114:	12c12b83          	lw	s7,300(sp)
80001118:	12812c03          	lw	s8,296(sp)
8000111c:	12412c83          	lw	s9,292(sp)
80001120:	12012d03          	lw	s10,288(sp)
80001124:	11c12d83          	lw	s11,284(sp)
80001128:	6171                	addi	sp,sp,336
8000112a:	8082                	ret
8000112c:	4792                	lw	a5,4(sp)
8000112e:	0007d363          	bgez	a5,80001134 <vprintfmt+0xec>
80001132:	c202                	sw	zero,4(sp)
80001134:	00174883          	lbu	a7,1(a4)
80001138:	874a                	mv	a4,s2
8000113a:	bf61                	j	800010d2 <vprintfmt+0x8a>
8000113c:	44a1                	li	s1,8
8000113e:	4b01                	li	s6,0
80001140:	4785                	li	a5,1
80001142:	16c7cc63          	blt	a5,a2,800012ba <vprintfmt+0x272>
80001146:	47a2                	lw	a5,8(sp)
80001148:	4c01                	li	s8,0
8000114a:	0007ac83          	lw	s9,0(a5) # 40000000 <_tbss_end+0x3fffffbc>
8000114e:	0791                	addi	a5,a5,4
80001150:	c43e                	sw	a5,8(sp)
80001152:	8626                	mv	a2,s1
80001154:	4681                	li	a3,0
80001156:	8566                	mv	a0,s9
80001158:	85e2                	mv	a1,s8
8000115a:	367000ef          	jal	ra,80001cc0 <__umoddi3>
8000115e:	c82a                	sw	a0,16(sp)
80001160:	278b0e63          	beq	s6,s8,800013dc <vprintfmt+0x394>
80001164:	01410d13          	addi	s10,sp,20
80001168:	4405                	li	s0,1
8000116a:	8626                	mv	a2,s1
8000116c:	4681                	li	a3,0
8000116e:	8566                	mv	a0,s9
80001170:	85e2                	mv	a1,s8
80001172:	2de9                	jal	8000184c <__udivdi3>
80001174:	8626                	mv	a2,s1
80001176:	4681                	li	a3,0
80001178:	8caa                	mv	s9,a0
8000117a:	8c2e                	mv	s8,a1
8000117c:	345000ef          	jal	ra,80001cc0 <__umoddi3>
80001180:	00ad2023          	sw	a0,0(s10)
80001184:	00140d93          	addi	s11,s0,1
80001188:	0d11                	addi	s10,s10,4
8000118a:	018b0463          	beq	s6,s8,80001192 <vprintfmt+0x14a>
8000118e:	846e                	mv	s0,s11
80001190:	bfe9                	j	8000116a <vprintfmt+0x122>
80001192:	fe9cfee3          	bleu	s1,s9,8000118e <vprintfmt+0x146>
80001196:	4792                	lw	a5,4(sp)
80001198:	fff78493          	addi	s1,a5,-1
8000119c:	00fddc63          	ble	a5,s11,800011b4 <vprintfmt+0x16c>
800011a0:	4502                	lw	a0,0(sp)
800011a2:	85ce                	mv	a1,s3
800011a4:	14fd                	addi	s1,s1,-1
800011a6:	9a02                	jalr	s4
800011a8:	00148793          	addi	a5,s1,1
800011ac:	fefdcae3          	blt	s11,a5,800011a0 <vprintfmt+0x158>
800011b0:	efb053e3          	blez	s11,80001096 <vprintfmt+0x4e>
800011b4:	00241793          	slli	a5,s0,0x2
800011b8:	0a18                	addi	a4,sp,272
800011ba:	97ba                	add	a5,a5,a4
800011bc:	f007a503          	lw	a0,-256(a5)
800011c0:	47b2                	lw	a5,12(sp)
800011c2:	4b25                	li	s6,9
800011c4:	00f404b3          	add	s1,s0,a5
800011c8:	048a                	slli	s1,s1,0x2
800011ca:	081c                	addi	a5,sp,16
800011cc:	94be                	add	s1,s1,a5
800011ce:	a021                	j	800011d6 <vprintfmt+0x18e>
800011d0:	4088                	lw	a0,0(s1)
800011d2:	147d                	addi	s0,s0,-1
800011d4:	14f1                	addi	s1,s1,-4
800011d6:	87d6                	mv	a5,s5
800011d8:	00ab7363          	bleu	a0,s6,800011de <vprintfmt+0x196>
800011dc:	87de                	mv	a5,s7
800011de:	85ce                	mv	a1,s3
800011e0:	953e                	add	a0,a0,a5
800011e2:	9a02                	jalr	s4
800011e4:	fe8046e3          	bgtz	s0,800011d0 <vprintfmt+0x188>
800011e8:	b57d                	j	80001096 <vprintfmt+0x4e>
800011ea:	85ce                	mv	a1,s3
800011ec:	02500513          	li	a0,37
800011f0:	9a02                	jalr	s4
800011f2:	b555                	j	80001096 <vprintfmt+0x4e>
800011f4:	47a2                	lw	a5,8(sp)
800011f6:	00174883          	lbu	a7,1(a4)
800011fa:	874a                	mv	a4,s2
800011fc:	4380                	lw	s0,0(a5)
800011fe:	0791                	addi	a5,a5,4
80001200:	c43e                	sw	a5,8(sp)
80001202:	4792                	lw	a5,4(sp)
80001204:	ec07d7e3          	bgez	a5,800010d2 <vprintfmt+0x8a>
80001208:	c222                	sw	s0,4(sp)
8000120a:	547d                	li	s0,-1
8000120c:	b5d9                	j	800010d2 <vprintfmt+0x8a>
8000120e:	00174883          	lbu	a7,1(a4)
80001212:	c02a                	sw	a0,0(sp)
80001214:	874a                	mv	a4,s2
80001216:	bd75                	j	800010d2 <vprintfmt+0x8a>
80001218:	00174883          	lbu	a7,1(a4)
8000121c:	c056                	sw	s5,0(sp)
8000121e:	874a                	mv	a4,s2
80001220:	bd4d                	j	800010d2 <vprintfmt+0x8a>
80001222:	00174803          	lbu	a6,1(a4)
80001226:	fd088413          	addi	s0,a7,-48
8000122a:	fd080793          	addi	a5,a6,-48
8000122e:	1af5e463          	bltu	a1,a5,800013d6 <vprintfmt+0x38e>
80001232:	874a                	mv	a4,s2
80001234:	00241793          	slli	a5,s0,0x2
80001238:	943e                	add	s0,s0,a5
8000123a:	0705                	addi	a4,a4,1
8000123c:	0406                	slli	s0,s0,0x1
8000123e:	9442                	add	s0,s0,a6
80001240:	00074803          	lbu	a6,0(a4)
80001244:	fd040413          	addi	s0,s0,-48
80001248:	fd080793          	addi	a5,a6,-48
8000124c:	fef5f4e3          	bleu	a5,a1,80001234 <vprintfmt+0x1ec>
80001250:	88c2                	mv	a7,a6
80001252:	bf45                	j	80001202 <vprintfmt+0x1ba>
80001254:	47a2                	lw	a5,8(sp)
80001256:	85ce                	mv	a1,s3
80001258:	4388                	lw	a0,0(a5)
8000125a:	00478d93          	addi	s11,a5,4
8000125e:	9a02                	jalr	s4
80001260:	c46e                	sw	s11,8(sp)
80001262:	bd15                	j	80001096 <vprintfmt+0x4e>
80001264:	47a2                	lw	a5,8(sp)
80001266:	4384                	lw	s1,0(a5)
80001268:	00478d93          	addi	s11,a5,4
8000126c:	4792                	lw	a5,4(sp)
8000126e:	14048563          	beqz	s1,800013b8 <vprintfmt+0x370>
80001272:	0ef05463          	blez	a5,8000135a <vprintfmt+0x312>
80001276:	4702                	lw	a4,0(sp)
80001278:	02d00793          	li	a5,45
8000127c:	12f70763          	beq	a4,a5,800013aa <vprintfmt+0x362>
80001280:	18040063          	beqz	s0,80001400 <vprintfmt+0x3b8>
80001284:	0004c783          	lbu	a5,0(s1)
80001288:	c3e9                	beqz	a5,8000134a <vprintfmt+0x302>
8000128a:	00148793          	addi	a5,s1,1
8000128e:	00848633          	add	a2,s1,s0
80001292:	0af60463          	beq	a2,a5,8000133a <vprintfmt+0x2f2>
80001296:	00178713          	addi	a4,a5,1
8000129a:	fff74683          	lbu	a3,-1(a4)
8000129e:	10068b63          	beqz	a3,800013b4 <vprintfmt+0x36c>
800012a2:	87ba                	mv	a5,a4
800012a4:	b7fd                	j	80001292 <vprintfmt+0x24a>
800012a6:	00174883          	lbu	a7,1(a4)
800012aa:	0605                	addi	a2,a2,1
800012ac:	874a                	mv	a4,s2
800012ae:	b515                	j	800010d2 <vprintfmt+0x8a>
800012b0:	4785                	li	a5,1
800012b2:	44a9                	li	s1,10
800012b4:	4b01                	li	s6,0
800012b6:	e8c7d8e3          	ble	a2,a5,80001146 <vprintfmt+0xfe>
800012ba:	47a2                	lw	a5,8(sp)
800012bc:	079d                	addi	a5,a5,7
800012be:	9be1                	andi	a5,a5,-8
800012c0:	00878713          	addi	a4,a5,8
800012c4:	c43a                	sw	a4,8(sp)
800012c6:	0007ac83          	lw	s9,0(a5)
800012ca:	0047ac03          	lw	s8,4(a5)
800012ce:	b551                	j	80001152 <vprintfmt+0x10a>
800012d0:	44c1                	li	s1,16
800012d2:	4b01                	li	s6,0
800012d4:	b5b5                	j	80001140 <vprintfmt+0xf8>
800012d6:	4785                	li	a5,1
800012d8:	0cc7d263          	ble	a2,a5,8000139c <vprintfmt+0x354>
800012dc:	47a2                	lw	a5,8(sp)
800012de:	079d                	addi	a5,a5,7
800012e0:	9be1                	andi	a5,a5,-8
800012e2:	00878713          	addi	a4,a5,8
800012e6:	c43a                	sw	a4,8(sp)
800012e8:	4398                	lw	a4,0(a5)
800012ea:	43dc                	lw	a5,4(a5)
800012ec:	8c3e                	mv	s8,a5
800012ee:	8cba                	mv	s9,a4
800012f0:	0407d263          	bgez	a5,80001334 <vprintfmt+0x2ec>
800012f4:	85ce                	mv	a1,s3
800012f6:	02d00513          	li	a0,45
800012fa:	9a02                	jalr	s4
800012fc:	41900733          	neg	a4,s9
80001300:	00e036b3          	snez	a3,a4
80001304:	418007b3          	neg	a5,s8
80001308:	8cba                	mv	s9,a4
8000130a:	40d78c33          	sub	s8,a5,a3
8000130e:	44a9                	li	s1,10
80001310:	4b01                	li	s6,0
80001312:	b581                	j	80001152 <vprintfmt+0x10a>
80001314:	8556                	mv	a0,s5
80001316:	85ce                	mv	a1,s3
80001318:	9a02                	jalr	s4
8000131a:	85ce                	mv	a1,s3
8000131c:	07800513          	li	a0,120
80001320:	9a02                	jalr	s4
80001322:	44c1                	li	s1,16
80001324:	4b01                	li	s6,0
80001326:	b505                	j	80001146 <vprintfmt+0xfe>
80001328:	85ce                	mv	a1,s3
8000132a:	02500513          	li	a0,37
8000132e:	9a02                	jalr	s4
80001330:	8926                	mv	s2,s1
80001332:	b395                	j	80001096 <vprintfmt+0x4e>
80001334:	44a9                	li	s1,10
80001336:	4b01                	li	s6,0
80001338:	bd29                	j	80001152 <vprintfmt+0x10a>
8000133a:	409607b3          	sub	a5,a2,s1
8000133e:	4712                	lw	a4,4(sp)
80001340:	40f707b3          	sub	a5,a4,a5
80001344:	c23e                	sw	a5,4(sp)
80001346:	00f05a63          	blez	a5,8000135a <vprintfmt+0x312>
8000134a:	4c12                	lw	s8,4(sp)
8000134c:	4502                	lw	a0,0(sp)
8000134e:	1c7d                	addi	s8,s8,-1
80001350:	85ce                	mv	a1,s3
80001352:	9a02                	jalr	s4
80001354:	fe0c1ce3          	bnez	s8,8000134c <vprintfmt+0x304>
80001358:	c202                	sw	zero,4(sp)
8000135a:	0004c503          	lbu	a0,0(s1)
8000135e:	cd0d                	beqz	a0,80001398 <vprintfmt+0x350>
80001360:	5b7d                	li	s6,-1
80001362:	00044563          	bltz	s0,8000136c <vprintfmt+0x324>
80001366:	147d                	addi	s0,s0,-1
80001368:	01640b63          	beq	s0,s6,8000137e <vprintfmt+0x336>
8000136c:	85ce                	mv	a1,s3
8000136e:	9a02                	jalr	s4
80001370:	4792                	lw	a5,4(sp)
80001372:	0485                	addi	s1,s1,1
80001374:	0004c503          	lbu	a0,0(s1)
80001378:	17fd                	addi	a5,a5,-1
8000137a:	c23e                	sw	a5,4(sp)
8000137c:	f17d                	bnez	a0,80001362 <vprintfmt+0x31a>
8000137e:	4792                	lw	a5,4(sp)
80001380:	00f05c63          	blez	a5,80001398 <vprintfmt+0x350>
80001384:	02000413          	li	s0,32
80001388:	4792                	lw	a5,4(sp)
8000138a:	85ce                	mv	a1,s3
8000138c:	8522                	mv	a0,s0
8000138e:	17fd                	addi	a5,a5,-1
80001390:	84be                	mv	s1,a5
80001392:	c23e                	sw	a5,4(sp)
80001394:	9a02                	jalr	s4
80001396:	f8ed                	bnez	s1,80001388 <vprintfmt+0x340>
80001398:	c46e                	sw	s11,8(sp)
8000139a:	b9f5                	j	80001096 <vprintfmt+0x4e>
8000139c:	47a2                	lw	a5,8(sp)
8000139e:	4398                	lw	a4,0(a5)
800013a0:	0791                	addi	a5,a5,4
800013a2:	c43e                	sw	a5,8(sp)
800013a4:	41f75793          	srai	a5,a4,0x1f
800013a8:	b791                	j	800012ec <vprintfmt+0x2a4>
800013aa:	0004c503          	lbu	a0,0(s1)
800013ae:	d979                	beqz	a0,80001384 <vprintfmt+0x33c>
800013b0:	5b7d                	li	s6,-1
800013b2:	bf45                	j	80001362 <vprintfmt+0x31a>
800013b4:	8f85                	sub	a5,a5,s1
800013b6:	b761                	j	8000133e <vprintfmt+0x2f6>
800013b8:	02f05c63          	blez	a5,800013f0 <vprintfmt+0x3a8>
800013bc:	4702                	lw	a4,0(sp)
800013be:	02d00793          	li	a5,45
800013c2:	00004497          	auipc	s1,0x4
800013c6:	d0648493          	addi	s1,s1,-762 # 800050c8 <main+0x584>
800013ca:	02800513          	li	a0,40
800013ce:	eaf719e3          	bne	a4,a5,80001280 <vprintfmt+0x238>
800013d2:	5b7d                	li	s6,-1
800013d4:	b779                	j	80001362 <vprintfmt+0x31a>
800013d6:	88c2                	mv	a7,a6
800013d8:	874a                	mv	a4,s2
800013da:	b525                	j	80001202 <vprintfmt+0x1ba>
800013dc:	d89cf4e3          	bleu	s1,s9,80001164 <vprintfmt+0x11c>
800013e0:	4792                	lw	a5,4(sp)
800013e2:	4d85                	li	s11,1
800013e4:	4401                	li	s0,0
800013e6:	fff78493          	addi	s1,a5,-1
800013ea:	dafdcbe3          	blt	s11,a5,800011a0 <vprintfmt+0x158>
800013ee:	bbc9                	j	800011c0 <vprintfmt+0x178>
800013f0:	02800513          	li	a0,40
800013f4:	00004497          	auipc	s1,0x4
800013f8:	cd448493          	addi	s1,s1,-812 # 800050c8 <main+0x584>
800013fc:	5b7d                	li	s6,-1
800013fe:	b795                	j	80001362 <vprintfmt+0x31a>
80001400:	4781                	li	a5,0
80001402:	bf35                	j	8000133e <vprintfmt+0x2f6>

80001404 <sprintf_putch.2833>:
80001404:	419c                	lw	a5,0(a1)
80001406:	00a78023          	sb	a0,0(a5)
8000140a:	419c                	lw	a5,0(a1)
8000140c:	0785                	addi	a5,a5,1
8000140e:	c19c                	sw	a5,0(a1)
80001410:	8082                	ret

80001412 <syscall.constprop.2>:
80001412:	1141                	addi	sp,sp,-16
80001414:	c622                	sw	s0,12(sp)
80001416:	0800                	addi	s0,sp,16
80001418:	7119                	addi	sp,sp,-128
8000141a:	03f10813          	addi	a6,sp,63
8000141e:	fc087813          	andi	a6,a6,-64
80001422:	04000713          	li	a4,64
80001426:	00e82023          	sw	a4,0(a6)
8000142a:	4781                	li	a5,0
8000142c:	00f82223          	sw	a5,4(a6)
80001430:	4705                	li	a4,1
80001432:	00e82423          	sw	a4,8(a6)
80001436:	4781                	li	a5,0
80001438:	00f82623          	sw	a5,12(a6)
8000143c:	00a82823          	sw	a0,16(a6)
80001440:	00b82a23          	sw	a1,20(a6)
80001444:	00c82c23          	sw	a2,24(a6)
80001448:	00d82e23          	sw	a3,28(a6)
8000144c:	0330000f          	fence	rw,rw
80001450:	00000697          	auipc	a3,0x0
80001454:	bb068693          	addi	a3,a3,-1104 # 80001000 <tohost>
80001458:	0106a023          	sw	a6,0(a3)
8000145c:	4781                	li	a5,0
8000145e:	c2dc                	sw	a5,4(a3)
80001460:	00000697          	auipc	a3,0x0
80001464:	be068693          	addi	a3,a3,-1056 # 80001040 <fromhost>
80001468:	4298                	lw	a4,0(a3)
8000146a:	42dc                	lw	a5,4(a3)
8000146c:	8fd9                	or	a5,a5,a4
8000146e:	dfed                	beqz	a5,80001468 <syscall.constprop.2+0x56>
80001470:	4701                	li	a4,0
80001472:	c298                	sw	a4,0(a3)
80001474:	4781                	li	a5,0
80001476:	c2dc                	sw	a5,4(a3)
80001478:	0330000f          	fence	rw,rw
8000147c:	ff040113          	addi	sp,s0,-16
80001480:	00082503          	lw	a0,0(a6)
80001484:	4432                	lw	s0,12(sp)
80001486:	00482583          	lw	a1,4(a6)
8000148a:	0141                	addi	sp,sp,16
8000148c:	8082                	ret

8000148e <putchar>:
8000148e:	1141                	addi	sp,sp,-16
80001490:	c422                	sw	s0,8(sp)
80001492:	04022583          	lw	a1,64(tp) # 40 <buflen.2719>
80001496:	00020793          	mv	a5,tp
8000149a:	c606                	sw	ra,12(sp)
8000149c:	97ae                	add	a5,a5,a1
8000149e:	00158613          	addi	a2,a1,1
800014a2:	00a78023          	sb	a0,0(a5)
800014a6:	04c22023          	sw	a2,64(tp) # 40 <buflen.2719>
800014aa:	47a9                	li	a5,10
800014ac:	00f50b63          	beq	a0,a5,800014c2 <putchar+0x34>
800014b0:	04000793          	li	a5,64
800014b4:	00f60763          	beq	a2,a5,800014c2 <putchar+0x34>
800014b8:	40b2                	lw	ra,12(sp)
800014ba:	4501                	li	a0,0
800014bc:	4422                	lw	s0,8(sp)
800014be:	0141                	addi	sp,sp,16
800014c0:	8082                	ret
800014c2:	41f65693          	srai	a3,a2,0x1f
800014c6:	00020513          	mv	a0,tp
800014ca:	4581                	li	a1,0
800014cc:	3799                	jal	80001412 <syscall.constprop.2>
800014ce:	40b2                	lw	ra,12(sp)
800014d0:	04022023          	sw	zero,64(tp) # 40 <buflen.2719>
800014d4:	4501                	li	a0,0
800014d6:	4422                	lw	s0,8(sp)
800014d8:	0141                	addi	sp,sp,16
800014da:	8082                	ret

800014dc <setStats>:
800014dc:	b00027f3          	csrr	a5,mcycle
800014e0:	ed11                	bnez	a0,800014fc <setStats+0x20>
800014e2:	00004717          	auipc	a4,0x4
800014e6:	02672703          	lw	a4,38(a4) # 80005508 <counters>
800014ea:	8f99                	sub	a5,a5,a4
800014ec:	00004717          	auipc	a4,0x4
800014f0:	be470713          	addi	a4,a4,-1052 # 800050d0 <main+0x58c>
800014f4:	00004297          	auipc	t0,0x4
800014f8:	00e2a623          	sw	a4,12(t0) # 80005500 <counter_names>
800014fc:	00004717          	auipc	a4,0x4
80001500:	00c70713          	addi	a4,a4,12 # 80005508 <counters>
80001504:	c31c                	sw	a5,0(a4)
80001506:	b02027f3          	csrr	a5,minstret
8000150a:	ed11                	bnez	a0,80001526 <setStats+0x4a>
8000150c:	00004697          	auipc	a3,0x4
80001510:	0006a683          	lw	a3,0(a3) # 8000550c <counters+0x4>
80001514:	8f95                	sub	a5,a5,a3
80001516:	00004697          	auipc	a3,0x4
8000151a:	bc268693          	addi	a3,a3,-1086 # 800050d8 <main+0x594>
8000151e:	00004297          	auipc	t0,0x4
80001522:	fed2a323          	sw	a3,-26(t0) # 80005504 <counter_names+0x4>
80001526:	c35c                	sw	a5,4(a4)
80001528:	8082                	ret

8000152a <tohost_exit>:
8000152a:	0506                	slli	a0,a0,0x1
8000152c:	00000697          	auipc	a3,0x0
80001530:	ad468693          	addi	a3,a3,-1324 # 80001000 <tohost>
80001534:	00156713          	ori	a4,a0,1
80001538:	4781                	li	a5,0
8000153a:	c298                	sw	a4,0(a3)
8000153c:	c2dc                	sw	a5,4(a3)
8000153e:	a001                	j	8000153e <tohost_exit+0x14>

80001540 <handle_trap>:
80001540:	6605                	lui	a2,0x1
80001542:	00000797          	auipc	a5,0x0
80001546:	abe78793          	addi	a5,a5,-1346 # 80001000 <tohost>
8000154a:	a7360613          	addi	a2,a2,-1421 # a73 <_tbss_end+0xa2f>
8000154e:	4681                	li	a3,0
80001550:	c390                	sw	a2,0(a5)
80001552:	c3d4                	sw	a3,4(a5)
80001554:	a001                	j	80001554 <handle_trap+0x14>

80001556 <exit>:
80001556:	1141                	addi	sp,sp,-16
80001558:	c606                	sw	ra,12(sp)
8000155a:	3fc1                	jal	8000152a <tohost_exit>

8000155c <abort>:
8000155c:	00000797          	auipc	a5,0x0
80001560:	aa478793          	addi	a5,a5,-1372 # 80001000 <tohost>
80001564:	10d00613          	li	a2,269
80001568:	4681                	li	a3,0
8000156a:	c390                	sw	a2,0(a5)
8000156c:	c3d4                	sw	a3,4(a5)
8000156e:	a001                	j	8000156e <abort+0x12>

80001570 <printstr>:
80001570:	00054783          	lbu	a5,0(a0)
80001574:	cb91                	beqz	a5,80001588 <printstr+0x18>
80001576:	862a                	mv	a2,a0
80001578:	0605                	addi	a2,a2,1
8000157a:	00064783          	lbu	a5,0(a2)
8000157e:	ffed                	bnez	a5,80001578 <printstr+0x8>
80001580:	8e09                	sub	a2,a2,a0
80001582:	4681                	li	a3,0
80001584:	4581                	li	a1,0
80001586:	b571                	j	80001412 <syscall.constprop.2>
80001588:	4601                	li	a2,0
8000158a:	bfe5                	j	80001582 <printstr+0x12>

8000158c <thread_entry>:
8000158c:	c111                	beqz	a0,80001590 <thread_entry+0x4>
8000158e:	a001                	j	8000158e <thread_entry+0x2>
80001590:	8082                	ret

80001592 <printhex>:
80001592:	7179                	addi	sp,sp,-48
80001594:	d606                	sw	ra,44(sp)
80001596:	01b10713          	addi	a4,sp,27
8000159a:	00b10e13          	addi	t3,sp,11
8000159e:	4325                	li	t1,9
800015a0:	05700893          	li	a7,87
800015a4:	03000e93          	li	t4,48
800015a8:	00f57693          	andi	a3,a0,15
800015ac:	01c59613          	slli	a2,a1,0x1c
800015b0:	8111                	srli	a0,a0,0x4
800015b2:	87c6                	mv	a5,a7
800015b4:	0ff6f813          	andi	a6,a3,255
800015b8:	00d36363          	bltu	t1,a3,800015be <printhex+0x2c>
800015bc:	87f6                	mv	a5,t4
800015be:	97c2                	add	a5,a5,a6
800015c0:	00f70023          	sb	a5,0(a4)
800015c4:	177d                	addi	a4,a4,-1
800015c6:	8d51                	or	a0,a0,a2
800015c8:	8191                	srli	a1,a1,0x4
800015ca:	fcee1fe3          	bne	t3,a4,800015a8 <printhex+0x16>
800015ce:	0068                	addi	a0,sp,12
800015d0:	00010e23          	sb	zero,28(sp)
800015d4:	3f71                	jal	80001570 <printstr>
800015d6:	50b2                	lw	ra,44(sp)
800015d8:	6145                	addi	sp,sp,48
800015da:	8082                	ret

800015dc <printf>:
800015dc:	7139                	addi	sp,sp,-64
800015de:	02410313          	addi	t1,sp,36
800015e2:	d22e                	sw	a1,36(sp)
800015e4:	d432                	sw	a2,40(sp)
800015e6:	d636                	sw	a3,44(sp)
800015e8:	862a                	mv	a2,a0
800015ea:	869a                	mv	a3,t1
800015ec:	00000517          	auipc	a0,0x0
800015f0:	ea250513          	addi	a0,a0,-350 # 8000148e <putchar>
800015f4:	4581                	li	a1,0
800015f6:	ce06                	sw	ra,28(sp)
800015f8:	d83a                	sw	a4,48(sp)
800015fa:	da3e                	sw	a5,52(sp)
800015fc:	dc42                	sw	a6,56(sp)
800015fe:	de46                	sw	a7,60(sp)
80001600:	c61a                	sw	t1,12(sp)
80001602:	3499                	jal	80001048 <vprintfmt>
80001604:	40f2                	lw	ra,28(sp)
80001606:	4501                	li	a0,0
80001608:	6121                	addi	sp,sp,64
8000160a:	8082                	ret

8000160c <sprintf>:
8000160c:	715d                	addi	sp,sp,-80
8000160e:	03810313          	addi	t1,sp,56
80001612:	d422                	sw	s0,40(sp)
80001614:	c62a                	sw	a0,12(sp)
80001616:	dc32                	sw	a2,56(sp)
80001618:	de36                	sw	a3,60(sp)
8000161a:	842a                	mv	s0,a0
8000161c:	862e                	mv	a2,a1
8000161e:	00000517          	auipc	a0,0x0
80001622:	de650513          	addi	a0,a0,-538 # 80001404 <sprintf_putch.2833>
80001626:	006c                	addi	a1,sp,12
80001628:	869a                	mv	a3,t1
8000162a:	d606                	sw	ra,44(sp)
8000162c:	c2be                	sw	a5,68(sp)
8000162e:	c0ba                	sw	a4,64(sp)
80001630:	c4c2                	sw	a6,72(sp)
80001632:	c6c6                	sw	a7,76(sp)
80001634:	ce1a                	sw	t1,28(sp)
80001636:	3c09                	jal	80001048 <vprintfmt>
80001638:	47b2                	lw	a5,12(sp)
8000163a:	00078023          	sb	zero,0(a5)
8000163e:	4532                	lw	a0,12(sp)
80001640:	50b2                	lw	ra,44(sp)
80001642:	8d01                	sub	a0,a0,s0
80001644:	5422                	lw	s0,40(sp)
80001646:	6161                	addi	sp,sp,80
80001648:	8082                	ret

8000164a <memcpy>:
8000164a:	00c5e7b3          	or	a5,a1,a2
8000164e:	8fc9                	or	a5,a5,a0
80001650:	8b8d                	andi	a5,a5,3
80001652:	962a                	add	a2,a2,a0
80001654:	cf89                	beqz	a5,8000166e <memcpy+0x24>
80001656:	87aa                	mv	a5,a0
80001658:	02c57763          	bleu	a2,a0,80001686 <memcpy+0x3c>
8000165c:	0585                	addi	a1,a1,1
8000165e:	fff5c703          	lbu	a4,-1(a1)
80001662:	0785                	addi	a5,a5,1
80001664:	fee78fa3          	sb	a4,-1(a5)
80001668:	fec79ae3          	bne	a5,a2,8000165c <memcpy+0x12>
8000166c:	8082                	ret
8000166e:	fec57fe3          	bleu	a2,a0,8000166c <memcpy+0x22>
80001672:	87aa                	mv	a5,a0
80001674:	0591                	addi	a1,a1,4
80001676:	ffc5a703          	lw	a4,-4(a1)
8000167a:	0791                	addi	a5,a5,4
8000167c:	fee7ae23          	sw	a4,-4(a5)
80001680:	fec7eae3          	bltu	a5,a2,80001674 <memcpy+0x2a>
80001684:	8082                	ret
80001686:	8082                	ret

80001688 <memset>:
80001688:	00c567b3          	or	a5,a0,a2
8000168c:	8b8d                	andi	a5,a5,3
8000168e:	cf89                	beqz	a5,800016a8 <memset+0x20>
80001690:	962a                	add	a2,a2,a0
80001692:	0ff5f593          	andi	a1,a1,255
80001696:	87aa                	mv	a5,a0
80001698:	02c57a63          	bleu	a2,a0,800016cc <memset+0x44>
8000169c:	0785                	addi	a5,a5,1
8000169e:	feb78fa3          	sb	a1,-1(a5)
800016a2:	fec79de3          	bne	a5,a2,8000169c <memset+0x14>
800016a6:	8082                	ret
800016a8:	0ff5f593          	andi	a1,a1,255
800016ac:	00859713          	slli	a4,a1,0x8
800016b0:	8f4d                	or	a4,a4,a1
800016b2:	01071793          	slli	a5,a4,0x10
800016b6:	962a                	add	a2,a2,a0
800016b8:	8f5d                	or	a4,a4,a5
800016ba:	fec576e3          	bleu	a2,a0,800016a6 <memset+0x1e>
800016be:	87aa                	mv	a5,a0
800016c0:	0791                	addi	a5,a5,4
800016c2:	fee7ae23          	sw	a4,-4(a5)
800016c6:	fec7ede3          	bltu	a5,a2,800016c0 <memset+0x38>
800016ca:	8082                	ret
800016cc:	8082                	ret

800016ce <_init>:
800016ce:	7179                	addi	sp,sp,-48
800016d0:	d226                	sw	s1,36(sp)
800016d2:	d04a                	sw	s2,32(sp)
800016d4:	00020913          	mv	s2,tp
800016d8:	00020493          	mv	s1,tp
800016dc:	409904b3          	sub	s1,s2,s1
800016e0:	d606                	sw	ra,44(sp)
800016e2:	d422                	sw	s0,40(sp)
800016e4:	ce4e                	sw	s3,28(sp)
800016e6:	1800                	addi	s0,sp,48
800016e8:	cc52                	sw	s4,24(sp)
800016ea:	ca56                	sw	s5,20(sp)
800016ec:	c85a                	sw	s6,16(sp)
800016ee:	c65e                	sw	s7,12(sp)
800016f0:	8a2a                	mv	s4,a0
800016f2:	7119                	addi	sp,sp,-128
800016f4:	8512                	mv	a0,tp
800016f6:	8aae                	mv	s5,a1
800016f8:	8626                	mv	a2,s1
800016fa:	00004597          	auipc	a1,0x4
800016fe:	f0658593          	addi	a1,a1,-250 # 80005600 <_end>
80001702:	8b12                	mv	s6,tp
80001704:	3799                	jal	8000164a <memcpy>
80001706:	04420613          	addi	a2,tp,68 # 44 <_tbss_end>
8000170a:	41260633          	sub	a2,a2,s2
8000170e:	009b0533          	add	a0,s6,s1
80001712:	4581                	li	a1,0
80001714:	3f95                	jal	80001688 <memset>
80001716:	85d6                	mv	a1,s5
80001718:	8552                	mv	a0,s4
8000171a:	3d8d                	jal	8000158c <thread_entry>
8000171c:	03f10993          	addi	s3,sp,63
80001720:	4581                	li	a1,0
80001722:	4501                	li	a0,0
80001724:	fc09f993          	andi	s3,s3,-64
80001728:	41c030ef          	jal	ra,80004b44 <main>
8000172c:	8b2a                	mv	s6,a0
8000172e:	00004497          	auipc	s1,0x4
80001732:	dda48493          	addi	s1,s1,-550 # 80005508 <counters>
80001736:	00004917          	auipc	s2,0x4
8000173a:	dca90913          	addi	s2,s2,-566 # 80005500 <counter_names>
8000173e:	00004a97          	auipc	s5,0x4
80001742:	dd2a8a93          	addi	s5,s5,-558 # 80005510 <Arr_1_Glob>
80001746:	8a4e                	mv	s4,s3
80001748:	00004b97          	auipc	s7,0x4
8000174c:	9b4b8b93          	addi	s7,s7,-1612 # 800050fc <main+0x5b8>
80001750:	4094                	lw	a3,0(s1)
80001752:	ea99                	bnez	a3,80001768 <_init+0x9a>
80001754:	0491                	addi	s1,s1,4
80001756:	0911                	addi	s2,s2,4
80001758:	ff549ce3          	bne	s1,s5,80001750 <_init+0x82>
8000175c:	01498463          	beq	s3,s4,80001764 <_init+0x96>
80001760:	854e                	mv	a0,s3
80001762:	3539                	jal	80001570 <printstr>
80001764:	855a                	mv	a0,s6
80001766:	33d1                	jal	8000152a <tohost_exit>
80001768:	00092603          	lw	a2,0(s2)
8000176c:	8552                	mv	a0,s4
8000176e:	85de                	mv	a1,s7
80001770:	3d71                	jal	8000160c <sprintf>
80001772:	9a2a                	add	s4,s4,a0
80001774:	b7c5                	j	80001754 <_init+0x86>

80001776 <strlen>:
80001776:	00054783          	lbu	a5,0(a0)
8000177a:	cb89                	beqz	a5,8000178c <strlen+0x16>
8000177c:	87aa                	mv	a5,a0
8000177e:	0785                	addi	a5,a5,1
80001780:	0007c703          	lbu	a4,0(a5)
80001784:	ff6d                	bnez	a4,8000177e <strlen+0x8>
80001786:	40a78533          	sub	a0,a5,a0
8000178a:	8082                	ret
8000178c:	4501                	li	a0,0
8000178e:	8082                	ret

80001790 <strnlen>:
80001790:	c185                	beqz	a1,800017b0 <strnlen+0x20>
80001792:	00054783          	lbu	a5,0(a0)
80001796:	cf89                	beqz	a5,800017b0 <strnlen+0x20>
80001798:	95aa                	add	a1,a1,a0
8000179a:	87aa                	mv	a5,a0
8000179c:	a021                	j	800017a4 <strnlen+0x14>
8000179e:	0007c703          	lbu	a4,0(a5)
800017a2:	c701                	beqz	a4,800017aa <strnlen+0x1a>
800017a4:	0785                	addi	a5,a5,1
800017a6:	feb79ce3          	bne	a5,a1,8000179e <strnlen+0xe>
800017aa:	40a78533          	sub	a0,a5,a0
800017ae:	8082                	ret
800017b0:	4501                	li	a0,0
800017b2:	8082                	ret

800017b4 <strcmp>:
800017b4:	0505                	addi	a0,a0,1
800017b6:	fff54783          	lbu	a5,-1(a0)
800017ba:	0585                	addi	a1,a1,1
800017bc:	fff5c703          	lbu	a4,-1(a1)
800017c0:	c791                	beqz	a5,800017cc <strcmp+0x18>
800017c2:	fee789e3          	beq	a5,a4,800017b4 <strcmp>
800017c6:	40e78533          	sub	a0,a5,a4
800017ca:	8082                	ret
800017cc:	4781                	li	a5,0
800017ce:	bfe5                	j	800017c6 <strcmp+0x12>

800017d0 <strcpy>:
800017d0:	87aa                	mv	a5,a0
800017d2:	0585                	addi	a1,a1,1
800017d4:	fff5c703          	lbu	a4,-1(a1)
800017d8:	0785                	addi	a5,a5,1
800017da:	fee78fa3          	sb	a4,-1(a5)
800017de:	fb75                	bnez	a4,800017d2 <strcpy+0x2>
800017e0:	8082                	ret

800017e2 <atol>:
800017e2:	00054703          	lbu	a4,0(a0)
800017e6:	02000693          	li	a3,32
800017ea:	87aa                	mv	a5,a0
800017ec:	00d71863          	bne	a4,a3,800017fc <atol+0x1a>
800017f0:	86ba                	mv	a3,a4
800017f2:	0785                	addi	a5,a5,1
800017f4:	0007c703          	lbu	a4,0(a5)
800017f8:	fed70de3          	beq	a4,a3,800017f2 <atol+0x10>
800017fc:	fd570693          	addi	a3,a4,-43
80001800:	0fd6f693          	andi	a3,a3,253
80001804:	c69d                	beqz	a3,80001832 <atol+0x50>
80001806:	0007c683          	lbu	a3,0(a5)
8000180a:	4601                	li	a2,0
8000180c:	ce8d                	beqz	a3,80001846 <atol+0x64>
8000180e:	4701                	li	a4,0
80001810:	0785                	addi	a5,a5,1
80001812:	00271513          	slli	a0,a4,0x2
80001816:	fd068593          	addi	a1,a3,-48
8000181a:	0007c683          	lbu	a3,0(a5)
8000181e:	953a                	add	a0,a0,a4
80001820:	0506                	slli	a0,a0,0x1
80001822:	00a58733          	add	a4,a1,a0
80001826:	f6ed                	bnez	a3,80001810 <atol+0x2e>
80001828:	c219                	beqz	a2,8000182e <atol+0x4c>
8000182a:	40e00733          	neg	a4,a4
8000182e:	853a                	mv	a0,a4
80001830:	8082                	ret
80001832:	0017c683          	lbu	a3,1(a5)
80001836:	fd370713          	addi	a4,a4,-45
8000183a:	00173613          	seqz	a2,a4
8000183e:	0785                	addi	a5,a5,1
80001840:	f6f9                	bnez	a3,8000180e <atol+0x2c>
80001842:	4701                	li	a4,0
80001844:	b7d5                	j	80001828 <atol+0x46>
80001846:	4701                	li	a4,0
80001848:	b7dd                	j	8000182e <atol+0x4c>
8000184a:	0000                	unimp

8000184c <__udivdi3>:
8000184c:	00068313          	mv	t1,a3
80001850:	00060893          	mv	a7,a2
80001854:	00050e13          	mv	t3,a0
80001858:	00058813          	mv	a6,a1
8000185c:	0c069e63          	bnez	a3,80001938 <__udivdi3+0xec>
80001860:	12c5f863          	bleu	a2,a1,80001990 <__udivdi3+0x144>
80001864:	000107b7          	lui	a5,0x10
80001868:	22f67663          	bleu	a5,a2,80001a94 <__udivdi3+0x248>
8000186c:	0ff00793          	li	a5,255
80001870:	00c7f463          	bleu	a2,a5,80001878 <__udivdi3+0x2c>
80001874:	00800313          	li	t1,8
80001878:	80005737          	lui	a4,0x80005
8000187c:	006657b3          	srl	a5,a2,t1
80001880:	3a070713          	addi	a4,a4,928 # 800053a0 <__global_pointer$+0xfffffba8>
80001884:	00e787b3          	add	a5,a5,a4
80001888:	0007c783          	lbu	a5,0(a5) # 10000 <_tbss_end+0xffbc>
8000188c:	00678333          	add	t1,a5,t1
80001890:	02000793          	li	a5,32
80001894:	406787b3          	sub	a5,a5,t1
80001898:	00078c63          	beqz	a5,800018b0 <__udivdi3+0x64>
8000189c:	00f59733          	sll	a4,a1,a5
800018a0:	00655333          	srl	t1,a0,t1
800018a4:	00f618b3          	sll	a7,a2,a5
800018a8:	00e36833          	or	a6,t1,a4
800018ac:	00f51e33          	sll	t3,a0,a5
800018b0:	0108d593          	srli	a1,a7,0x10
800018b4:	02b85733          	divu	a4,a6,a1
800018b8:	01089613          	slli	a2,a7,0x10
800018bc:	01065613          	srli	a2,a2,0x10
800018c0:	010e5793          	srli	a5,t3,0x10
800018c4:	02b876b3          	remu	a3,a6,a1
800018c8:	02e60533          	mul	a0,a2,a4
800018cc:	01069693          	slli	a3,a3,0x10
800018d0:	00f6e833          	or	a6,a3,a5
800018d4:	00a87c63          	bleu	a0,a6,800018ec <__udivdi3+0xa0>
800018d8:	01180833          	add	a6,a6,a7
800018dc:	fff70793          	addi	a5,a4,-1
800018e0:	01186463          	bltu	a6,a7,800018e8 <__udivdi3+0x9c>
800018e4:	3ca86863          	bltu	a6,a0,80001cb4 <__udivdi3+0x468>
800018e8:	00078713          	mv	a4,a5
800018ec:	40a80833          	sub	a6,a6,a0
800018f0:	02b85533          	divu	a0,a6,a1
800018f4:	010e1e13          	slli	t3,t3,0x10
800018f8:	010e5e13          	srli	t3,t3,0x10
800018fc:	02b87833          	remu	a6,a6,a1
80001900:	02a60633          	mul	a2,a2,a0
80001904:	01081813          	slli	a6,a6,0x10
80001908:	01c86833          	or	a6,a6,t3
8000190c:	00c87c63          	bleu	a2,a6,80001924 <__udivdi3+0xd8>
80001910:	01088833          	add	a6,a7,a6
80001914:	fff50793          	addi	a5,a0,-1
80001918:	33186663          	bltu	a6,a7,80001c44 <__udivdi3+0x3f8>
8000191c:	ffe50513          	addi	a0,a0,-2
80001920:	32c87263          	bleu	a2,a6,80001c44 <__udivdi3+0x3f8>
80001924:	01071793          	slli	a5,a4,0x10
80001928:	00a7e7b3          	or	a5,a5,a0
8000192c:	00000593          	li	a1,0
80001930:	00078513          	mv	a0,a5
80001934:	00008067          	ret
80001938:	12d5e663          	bltu	a1,a3,80001a64 <__udivdi3+0x218>
8000193c:	000107b7          	lui	a5,0x10
80001940:	12f6ea63          	bltu	a3,a5,80001a74 <__udivdi3+0x228>
80001944:	01000737          	lui	a4,0x1000
80001948:	01800793          	li	a5,24
8000194c:	00e6f463          	bleu	a4,a3,80001954 <__udivdi3+0x108>
80001950:	01000793          	li	a5,16
80001954:	800058b7          	lui	a7,0x80005
80001958:	00f6d733          	srl	a4,a3,a5
8000195c:	3a088893          	addi	a7,a7,928 # 800053a0 <__global_pointer$+0xfffffba8>
80001960:	01170733          	add	a4,a4,a7
80001964:	00074e03          	lbu	t3,0(a4) # 1000000 <_tbss_end+0xffffbc>
80001968:	02000e93          	li	t4,32
8000196c:	00fe0e33          	add	t3,t3,a5
80001970:	41ce8eb3          	sub	t4,t4,t3
80001974:	120e9a63          	bnez	t4,80001aa8 <__udivdi3+0x25c>
80001978:	00000593          	li	a1,0
8000197c:	00100793          	li	a5,1
80001980:	0f036663          	bltu	t1,a6,80001a6c <__udivdi3+0x220>
80001984:	00c537b3          	sltu	a5,a0,a2
80001988:	0017c793          	xori	a5,a5,1
8000198c:	0e00006f          	j	80001a6c <__udivdi3+0x220>
80001990:	00061663          	bnez	a2,8000199c <__udivdi3+0x150>
80001994:	00100893          	li	a7,1
80001998:	02c8d8b3          	divu	a7,a7,a2
8000199c:	000107b7          	lui	a5,0x10
800019a0:	0ef8e263          	bltu	a7,a5,80001a84 <__udivdi3+0x238>
800019a4:	010007b7          	lui	a5,0x1000
800019a8:	01800313          	li	t1,24
800019ac:	00f8f463          	bleu	a5,a7,800019b4 <__udivdi3+0x168>
800019b0:	01000313          	li	t1,16
800019b4:	80005737          	lui	a4,0x80005
800019b8:	0068d7b3          	srl	a5,a7,t1
800019bc:	3a070713          	addi	a4,a4,928 # 800053a0 <__global_pointer$+0xfffffba8>
800019c0:	00e787b3          	add	a5,a5,a4
800019c4:	0007c783          	lbu	a5,0(a5) # 1000000 <_tbss_end+0xffffbc>
800019c8:	00678333          	add	t1,a5,t1
800019cc:	02000793          	li	a5,32
800019d0:	406787b3          	sub	a5,a5,t1
800019d4:	1c079263          	bnez	a5,80001b98 <__udivdi3+0x34c>
800019d8:	01089f13          	slli	t5,a7,0x10
800019dc:	41158733          	sub	a4,a1,a7
800019e0:	0108de93          	srli	t4,a7,0x10
800019e4:	010f5f13          	srli	t5,t5,0x10
800019e8:	00100593          	li	a1,1
800019ec:	010e5793          	srli	a5,t3,0x10
800019f0:	03d756b3          	divu	a3,a4,t4
800019f4:	03d77733          	remu	a4,a4,t4
800019f8:	03e68633          	mul	a2,a3,t5
800019fc:	01071713          	slli	a4,a4,0x10
80001a00:	00f767b3          	or	a5,a4,a5
80001a04:	00c7fc63          	bleu	a2,a5,80001a1c <__udivdi3+0x1d0>
80001a08:	011787b3          	add	a5,a5,a7
80001a0c:	fff68713          	addi	a4,a3,-1
80001a10:	0117e463          	bltu	a5,a7,80001a18 <__udivdi3+0x1cc>
80001a14:	28c7ea63          	bltu	a5,a2,80001ca8 <__udivdi3+0x45c>
80001a18:	00070693          	mv	a3,a4
80001a1c:	40c787b3          	sub	a5,a5,a2
80001a20:	03d7d533          	divu	a0,a5,t4
80001a24:	010e1e13          	slli	t3,t3,0x10
80001a28:	010e5e13          	srli	t3,t3,0x10
80001a2c:	03d7f7b3          	remu	a5,a5,t4
80001a30:	03e50f33          	mul	t5,a0,t5
80001a34:	01079793          	slli	a5,a5,0x10
80001a38:	01c7e7b3          	or	a5,a5,t3
80001a3c:	01e7fc63          	bleu	t5,a5,80001a54 <__udivdi3+0x208>
80001a40:	00f887b3          	add	a5,a7,a5
80001a44:	fff50713          	addi	a4,a0,-1
80001a48:	1f17ea63          	bltu	a5,a7,80001c3c <__udivdi3+0x3f0>
80001a4c:	ffe50513          	addi	a0,a0,-2
80001a50:	1fe7f663          	bleu	t5,a5,80001c3c <__udivdi3+0x3f0>
80001a54:	01069793          	slli	a5,a3,0x10
80001a58:	00a7e7b3          	or	a5,a5,a0
80001a5c:	00078513          	mv	a0,a5
80001a60:	00008067          	ret
80001a64:	00000593          	li	a1,0
80001a68:	00000793          	li	a5,0
80001a6c:	00078513          	mv	a0,a5
80001a70:	00008067          	ret
80001a74:	0ff00e13          	li	t3,255
80001a78:	00de37b3          	sltu	a5,t3,a3
80001a7c:	00379793          	slli	a5,a5,0x3
80001a80:	ed5ff06f          	j	80001954 <__udivdi3+0x108>
80001a84:	0ff00793          	li	a5,255
80001a88:	f317f6e3          	bleu	a7,a5,800019b4 <__udivdi3+0x168>
80001a8c:	00800313          	li	t1,8
80001a90:	f25ff06f          	j	800019b4 <__udivdi3+0x168>
80001a94:	010007b7          	lui	a5,0x1000
80001a98:	01800313          	li	t1,24
80001a9c:	dcf67ee3          	bleu	a5,a2,80001878 <__udivdi3+0x2c>
80001aa0:	01000313          	li	t1,16
80001aa4:	dd5ff06f          	j	80001878 <__udivdi3+0x2c>
80001aa8:	01c65833          	srl	a6,a2,t3
80001aac:	01d696b3          	sll	a3,a3,t4
80001ab0:	00d86833          	or	a6,a6,a3
80001ab4:	01c5d8b3          	srl	a7,a1,t3
80001ab8:	01085f13          	srli	t5,a6,0x10
80001abc:	03e8d333          	divu	t1,a7,t5
80001ac0:	01081713          	slli	a4,a6,0x10
80001ac4:	01075713          	srli	a4,a4,0x10
80001ac8:	01d595b3          	sll	a1,a1,t4
80001acc:	01c55e33          	srl	t3,a0,t3
80001ad0:	00be65b3          	or	a1,t3,a1
80001ad4:	0105d693          	srli	a3,a1,0x10
80001ad8:	01d61633          	sll	a2,a2,t4
80001adc:	03e8f8b3          	remu	a7,a7,t5
80001ae0:	026707b3          	mul	a5,a4,t1
80001ae4:	01089893          	slli	a7,a7,0x10
80001ae8:	00d8e6b3          	or	a3,a7,a3
80001aec:	00f6fa63          	bleu	a5,a3,80001b00 <__udivdi3+0x2b4>
80001af0:	010686b3          	add	a3,a3,a6
80001af4:	fff30893          	addi	a7,t1,-1
80001af8:	1906f863          	bleu	a6,a3,80001c88 <__udivdi3+0x43c>
80001afc:	00088313          	mv	t1,a7
80001b00:	40f686b3          	sub	a3,a3,a5
80001b04:	03e6de33          	divu	t3,a3,t5
80001b08:	01059593          	slli	a1,a1,0x10
80001b0c:	0105d593          	srli	a1,a1,0x10
80001b10:	03e6f6b3          	remu	a3,a3,t5
80001b14:	03c708b3          	mul	a7,a4,t3
80001b18:	01069693          	slli	a3,a3,0x10
80001b1c:	00b6e733          	or	a4,a3,a1
80001b20:	01177a63          	bleu	a7,a4,80001b34 <__udivdi3+0x2e8>
80001b24:	01070733          	add	a4,a4,a6
80001b28:	fffe0793          	addi	a5,t3,-1
80001b2c:	15077663          	bleu	a6,a4,80001c78 <__udivdi3+0x42c>
80001b30:	00078e13          	mv	t3,a5
80001b34:	01031793          	slli	a5,t1,0x10
80001b38:	00010f37          	lui	t5,0x10
80001b3c:	01c7e7b3          	or	a5,a5,t3
80001b40:	ffff0693          	addi	a3,t5,-1 # ffff <_tbss_end+0xffbb>
80001b44:	00d7f5b3          	and	a1,a5,a3
80001b48:	0107d313          	srli	t1,a5,0x10
80001b4c:	00d676b3          	and	a3,a2,a3
80001b50:	01065613          	srli	a2,a2,0x10
80001b54:	02d58e33          	mul	t3,a1,a3
80001b58:	41170733          	sub	a4,a4,a7
80001b5c:	02c585b3          	mul	a1,a1,a2
80001b60:	010e5813          	srli	a6,t3,0x10
80001b64:	02d306b3          	mul	a3,t1,a3
80001b68:	00d585b3          	add	a1,a1,a3
80001b6c:	00b805b3          	add	a1,a6,a1
80001b70:	02c30633          	mul	a2,t1,a2
80001b74:	00d5f463          	bleu	a3,a1,80001b7c <__udivdi3+0x330>
80001b78:	01e60633          	add	a2,a2,t5
80001b7c:	0105d693          	srli	a3,a1,0x10
80001b80:	00c68633          	add	a2,a3,a2
80001b84:	0ec76463          	bltu	a4,a2,80001c6c <__udivdi3+0x420>
80001b88:	0cc70263          	beq	a4,a2,80001c4c <__udivdi3+0x400>
80001b8c:	00000593          	li	a1,0
80001b90:	00078513          	mv	a0,a5
80001b94:	00008067          	ret
80001b98:	00f898b3          	sll	a7,a7,a5
80001b9c:	0065d633          	srl	a2,a1,t1
80001ba0:	0108de93          	srli	t4,a7,0x10
80001ba4:	03d65fb3          	divu	t6,a2,t4
80001ba8:	01089f13          	slli	t5,a7,0x10
80001bac:	010f5f13          	srli	t5,t5,0x10
80001bb0:	00f59733          	sll	a4,a1,a5
80001bb4:	00f51e33          	sll	t3,a0,a5
80001bb8:	00655333          	srl	t1,a0,t1
80001bbc:	00e36733          	or	a4,t1,a4
80001bc0:	01075593          	srli	a1,a4,0x10
80001bc4:	03d676b3          	remu	a3,a2,t4
80001bc8:	03ff07b3          	mul	a5,t5,t6
80001bcc:	01069693          	slli	a3,a3,0x10
80001bd0:	00b6e6b3          	or	a3,a3,a1
80001bd4:	00f6fe63          	bleu	a5,a3,80001bf0 <__udivdi3+0x3a4>
80001bd8:	011686b3          	add	a3,a3,a7
80001bdc:	ffff8613          	addi	a2,t6,-1
80001be0:	0d16e063          	bltu	a3,a7,80001ca0 <__udivdi3+0x454>
80001be4:	0af6fe63          	bleu	a5,a3,80001ca0 <__udivdi3+0x454>
80001be8:	ffef8f93          	addi	t6,t6,-2
80001bec:	011686b3          	add	a3,a3,a7
80001bf0:	40f686b3          	sub	a3,a3,a5
80001bf4:	03d6d7b3          	divu	a5,a3,t4
80001bf8:	01071313          	slli	t1,a4,0x10
80001bfc:	01035313          	srli	t1,t1,0x10
80001c00:	03d6f6b3          	remu	a3,a3,t4
80001c04:	02ff0633          	mul	a2,t5,a5
80001c08:	01069713          	slli	a4,a3,0x10
80001c0c:	00676733          	or	a4,a4,t1
80001c10:	00c77e63          	bleu	a2,a4,80001c2c <__udivdi3+0x3e0>
80001c14:	01170733          	add	a4,a4,a7
80001c18:	fff78693          	addi	a3,a5,-1 # ffffff <_tbss_end+0xffffbb>
80001c1c:	07176e63          	bltu	a4,a7,80001c98 <__udivdi3+0x44c>
80001c20:	06c77c63          	bleu	a2,a4,80001c98 <__udivdi3+0x44c>
80001c24:	ffe78793          	addi	a5,a5,-2
80001c28:	01170733          	add	a4,a4,a7
80001c2c:	010f9593          	slli	a1,t6,0x10
80001c30:	40c70733          	sub	a4,a4,a2
80001c34:	00f5e5b3          	or	a1,a1,a5
80001c38:	db5ff06f          	j	800019ec <__udivdi3+0x1a0>
80001c3c:	00070513          	mv	a0,a4
80001c40:	e15ff06f          	j	80001a54 <__udivdi3+0x208>
80001c44:	00078513          	mv	a0,a5
80001c48:	cddff06f          	j	80001924 <__udivdi3+0xd8>
80001c4c:	000106b7          	lui	a3,0x10
80001c50:	fff68693          	addi	a3,a3,-1 # ffff <_tbss_end+0xffbb>
80001c54:	00d5f733          	and	a4,a1,a3
80001c58:	01071713          	slli	a4,a4,0x10
80001c5c:	00de7e33          	and	t3,t3,a3
80001c60:	01d51533          	sll	a0,a0,t4
80001c64:	01c70733          	add	a4,a4,t3
80001c68:	f2e572e3          	bleu	a4,a0,80001b8c <__udivdi3+0x340>
80001c6c:	fff78793          	addi	a5,a5,-1
80001c70:	00000593          	li	a1,0
80001c74:	f1dff06f          	j	80001b90 <__udivdi3+0x344>
80001c78:	eb177ce3          	bleu	a7,a4,80001b30 <__udivdi3+0x2e4>
80001c7c:	ffee0e13          	addi	t3,t3,-2
80001c80:	01070733          	add	a4,a4,a6
80001c84:	eb1ff06f          	j	80001b34 <__udivdi3+0x2e8>
80001c88:	e6f6fae3          	bleu	a5,a3,80001afc <__udivdi3+0x2b0>
80001c8c:	ffe30313          	addi	t1,t1,-2
80001c90:	010686b3          	add	a3,a3,a6
80001c94:	e6dff06f          	j	80001b00 <__udivdi3+0x2b4>
80001c98:	00068793          	mv	a5,a3
80001c9c:	f91ff06f          	j	80001c2c <__udivdi3+0x3e0>
80001ca0:	00060f93          	mv	t6,a2
80001ca4:	f4dff06f          	j	80001bf0 <__udivdi3+0x3a4>
80001ca8:	ffe68693          	addi	a3,a3,-2
80001cac:	011787b3          	add	a5,a5,a7
80001cb0:	d6dff06f          	j	80001a1c <__udivdi3+0x1d0>
80001cb4:	ffe70713          	addi	a4,a4,-2
80001cb8:	01180833          	add	a6,a6,a7
80001cbc:	c31ff06f          	j	800018ec <__udivdi3+0xa0>

80001cc0 <__umoddi3>:
80001cc0:	00068893          	mv	a7,a3
80001cc4:	00060813          	mv	a6,a2
80001cc8:	00050e93          	mv	t4,a0
80001ccc:	00058313          	mv	t1,a1
80001cd0:	0c069863          	bnez	a3,80001da0 <__umoddi3+0xe0>
80001cd4:	12c5fa63          	bleu	a2,a1,80001e08 <__umoddi3+0x148>
80001cd8:	000107b7          	lui	a5,0x10
80001cdc:	1ef66c63          	bltu	a2,a5,80001ed4 <__umoddi3+0x214>
80001ce0:	010007b7          	lui	a5,0x1000
80001ce4:	01800893          	li	a7,24
80001ce8:	00f67463          	bleu	a5,a2,80001cf0 <__umoddi3+0x30>
80001cec:	01000893          	li	a7,16
80001cf0:	80005737          	lui	a4,0x80005
80001cf4:	011657b3          	srl	a5,a2,a7
80001cf8:	3a070713          	addi	a4,a4,928 # 800053a0 <__global_pointer$+0xfffffba8>
80001cfc:	00e787b3          	add	a5,a5,a4
80001d00:	0007c783          	lbu	a5,0(a5) # 1000000 <_tbss_end+0xffffbc>
80001d04:	02000e13          	li	t3,32
80001d08:	011788b3          	add	a7,a5,a7
80001d0c:	411e0e33          	sub	t3,t3,a7
80001d10:	000e0c63          	beqz	t3,80001d28 <__umoddi3+0x68>
80001d14:	01c595b3          	sll	a1,a1,t3
80001d18:	011558b3          	srl	a7,a0,a7
80001d1c:	01c61833          	sll	a6,a2,t3
80001d20:	00b8e333          	or	t1,a7,a1
80001d24:	01c51eb3          	sll	t4,a0,t3
80001d28:	01085613          	srli	a2,a6,0x10
80001d2c:	02c357b3          	divu	a5,t1,a2
80001d30:	01081513          	slli	a0,a6,0x10
80001d34:	01055513          	srli	a0,a0,0x10
80001d38:	010ed713          	srli	a4,t4,0x10
80001d3c:	02c376b3          	remu	a3,t1,a2
80001d40:	02f507b3          	mul	a5,a0,a5
80001d44:	01069693          	slli	a3,a3,0x10
80001d48:	00e6e733          	or	a4,a3,a4
80001d4c:	00f77863          	bleu	a5,a4,80001d5c <__umoddi3+0x9c>
80001d50:	01070733          	add	a4,a4,a6
80001d54:	01076463          	bltu	a4,a6,80001d5c <__umoddi3+0x9c>
80001d58:	36f76c63          	bltu	a4,a5,800020d0 <__umoddi3+0x410>
80001d5c:	40f70733          	sub	a4,a4,a5
80001d60:	02c756b3          	divu	a3,a4,a2
80001d64:	010e9793          	slli	a5,t4,0x10
80001d68:	0107d793          	srli	a5,a5,0x10
80001d6c:	02c77733          	remu	a4,a4,a2
80001d70:	02d50533          	mul	a0,a0,a3
80001d74:	01071713          	slli	a4,a4,0x10
80001d78:	00f767b3          	or	a5,a4,a5
80001d7c:	00a7fa63          	bleu	a0,a5,80001d90 <__umoddi3+0xd0>
80001d80:	010787b3          	add	a5,a5,a6
80001d84:	0107e663          	bltu	a5,a6,80001d90 <__umoddi3+0xd0>
80001d88:	00a7f463          	bleu	a0,a5,80001d90 <__umoddi3+0xd0>
80001d8c:	010787b3          	add	a5,a5,a6
80001d90:	40a78533          	sub	a0,a5,a0
80001d94:	01c55533          	srl	a0,a0,t3
80001d98:	00000593          	li	a1,0
80001d9c:	00008067          	ret
80001da0:	fed5eee3          	bltu	a1,a3,80001d9c <__umoddi3+0xdc>
80001da4:	000107b7          	lui	a5,0x10
80001da8:	10f6e663          	bltu	a3,a5,80001eb4 <__umoddi3+0x1f4>
80001dac:	01000737          	lui	a4,0x1000
80001db0:	01800793          	li	a5,24
80001db4:	00e6f463          	bleu	a4,a3,80001dbc <__umoddi3+0xfc>
80001db8:	01000793          	li	a5,16
80001dbc:	80005e37          	lui	t3,0x80005
80001dc0:	3a0e0e13          	addi	t3,t3,928 # 800053a0 <__global_pointer$+0xfffffba8>
80001dc4:	00f6d733          	srl	a4,a3,a5
80001dc8:	01c70733          	add	a4,a4,t3
80001dcc:	00074f03          	lbu	t5,0(a4) # 1000000 <_tbss_end+0xffffbc>
80001dd0:	02000e13          	li	t3,32
80001dd4:	00ff0f33          	add	t5,t5,a5
80001dd8:	41ee0e33          	sub	t3,t3,t5
80001ddc:	100e1463          	bnez	t3,80001ee4 <__umoddi3+0x224>
80001de0:	0068e663          	bltu	a7,t1,80001dec <__umoddi3+0x12c>
80001de4:	00050793          	mv	a5,a0
80001de8:	010eea63          	bltu	t4,a6,80001dfc <__umoddi3+0x13c>
80001dec:	40c507b3          	sub	a5,a0,a2
80001df0:	40d585b3          	sub	a1,a1,a3
80001df4:	00f536b3          	sltu	a3,a0,a5
80001df8:	40d58333          	sub	t1,a1,a3
80001dfc:	00078513          	mv	a0,a5
80001e00:	00030593          	mv	a1,t1
80001e04:	00008067          	ret
80001e08:	00061663          	bnez	a2,80001e14 <__umoddi3+0x154>
80001e0c:	00100813          	li	a6,1
80001e10:	02c85833          	divu	a6,a6,a2
80001e14:	000107b7          	lui	a5,0x10
80001e18:	0af86663          	bltu	a6,a5,80001ec4 <__umoddi3+0x204>
80001e1c:	010007b7          	lui	a5,0x1000
80001e20:	01800893          	li	a7,24
80001e24:	00f87463          	bleu	a5,a6,80001e2c <__umoddi3+0x16c>
80001e28:	01000893          	li	a7,16
80001e2c:	80005737          	lui	a4,0x80005
80001e30:	011857b3          	srl	a5,a6,a7
80001e34:	3a070713          	addi	a4,a4,928 # 800053a0 <__global_pointer$+0xfffffba8>
80001e38:	00e787b3          	add	a5,a5,a4
80001e3c:	0007c783          	lbu	a5,0(a5) # 1000000 <_tbss_end+0xffffbc>
80001e40:	02000e13          	li	t3,32
80001e44:	011788b3          	add	a7,a5,a7
80001e48:	411e0e33          	sub	t3,t3,a7
80001e4c:	1c0e1063          	bnez	t3,8000200c <__umoddi3+0x34c>
80001e50:	01081793          	slli	a5,a6,0x10
80001e54:	410585b3          	sub	a1,a1,a6
80001e58:	01085613          	srli	a2,a6,0x10
80001e5c:	0107d793          	srli	a5,a5,0x10
80001e60:	010ed713          	srli	a4,t4,0x10
80001e64:	02c5d6b3          	divu	a3,a1,a2
80001e68:	02c5f5b3          	remu	a1,a1,a2
80001e6c:	02f686b3          	mul	a3,a3,a5
80001e70:	01059593          	slli	a1,a1,0x10
80001e74:	00e5e733          	or	a4,a1,a4
80001e78:	00d77a63          	bleu	a3,a4,80001e8c <__umoddi3+0x1cc>
80001e7c:	01070733          	add	a4,a4,a6
80001e80:	01076663          	bltu	a4,a6,80001e8c <__umoddi3+0x1cc>
80001e84:	00d77463          	bleu	a3,a4,80001e8c <__umoddi3+0x1cc>
80001e88:	01070733          	add	a4,a4,a6
80001e8c:	40d70733          	sub	a4,a4,a3
80001e90:	02c75533          	divu	a0,a4,a2
80001e94:	010e9e93          	slli	t4,t4,0x10
80001e98:	010ede93          	srli	t4,t4,0x10
80001e9c:	02c77733          	remu	a4,a4,a2
80001ea0:	02f50533          	mul	a0,a0,a5
80001ea4:	01071713          	slli	a4,a4,0x10
80001ea8:	01d767b3          	or	a5,a4,t4
80001eac:	eea7f2e3          	bleu	a0,a5,80001d90 <__umoddi3+0xd0>
80001eb0:	ed1ff06f          	j	80001d80 <__umoddi3+0xc0>
80001eb4:	0ff00f13          	li	t5,255
80001eb8:	00df37b3          	sltu	a5,t5,a3
80001ebc:	00379793          	slli	a5,a5,0x3
80001ec0:	efdff06f          	j	80001dbc <__umoddi3+0xfc>
80001ec4:	0ff00793          	li	a5,255
80001ec8:	f707f2e3          	bleu	a6,a5,80001e2c <__umoddi3+0x16c>
80001ecc:	00800893          	li	a7,8
80001ed0:	f5dff06f          	j	80001e2c <__umoddi3+0x16c>
80001ed4:	0ff00793          	li	a5,255
80001ed8:	e0c7fce3          	bleu	a2,a5,80001cf0 <__umoddi3+0x30>
80001edc:	00800893          	li	a7,8
80001ee0:	e11ff06f          	j	80001cf0 <__umoddi3+0x30>
80001ee4:	01e657b3          	srl	a5,a2,t5
80001ee8:	01c696b3          	sll	a3,a3,t3
80001eec:	00d7e6b3          	or	a3,a5,a3
80001ef0:	01e5d8b3          	srl	a7,a1,t5
80001ef4:	0106d713          	srli	a4,a3,0x10
80001ef8:	02e8d333          	divu	t1,a7,a4
80001efc:	01069f93          	slli	t6,a3,0x10
80001f00:	01e557b3          	srl	a5,a0,t5
80001f04:	010fdf93          	srli	t6,t6,0x10
80001f08:	01c595b3          	sll	a1,a1,t3
80001f0c:	00b7e5b3          	or	a1,a5,a1
80001f10:	01c617b3          	sll	a5,a2,t3
80001f14:	0105d813          	srli	a6,a1,0x10
80001f18:	01c51533          	sll	a0,a0,t3
80001f1c:	02e8f8b3          	remu	a7,a7,a4
80001f20:	026f8633          	mul	a2,t6,t1
80001f24:	01089893          	slli	a7,a7,0x10
80001f28:	0108e833          	or	a6,a7,a6
80001f2c:	00c87a63          	bleu	a2,a6,80001f40 <__umoddi3+0x280>
80001f30:	00d80833          	add	a6,a6,a3
80001f34:	fff30893          	addi	a7,t1,-1
80001f38:	18d87463          	bleu	a3,a6,800020c0 <__umoddi3+0x400>
80001f3c:	00088313          	mv	t1,a7
80001f40:	40c80833          	sub	a6,a6,a2
80001f44:	02e85633          	divu	a2,a6,a4
80001f48:	01059593          	slli	a1,a1,0x10
80001f4c:	0105d593          	srli	a1,a1,0x10
80001f50:	02e87833          	remu	a6,a6,a4
80001f54:	02cf8fb3          	mul	t6,t6,a2
80001f58:	01081713          	slli	a4,a6,0x10
80001f5c:	00b76733          	or	a4,a4,a1
80001f60:	01f77a63          	bleu	t6,a4,80001f74 <__umoddi3+0x2b4>
80001f64:	00d70733          	add	a4,a4,a3
80001f68:	fff60593          	addi	a1,a2,-1
80001f6c:	14d77263          	bleu	a3,a4,800020b0 <__umoddi3+0x3f0>
80001f70:	00058613          	mv	a2,a1
80001f74:	01031313          	slli	t1,t1,0x10
80001f78:	000105b7          	lui	a1,0x10
80001f7c:	00c36333          	or	t1,t1,a2
80001f80:	fff58893          	addi	a7,a1,-1 # ffff <_tbss_end+0xffbb>
80001f84:	01137eb3          	and	t4,t1,a7
80001f88:	0107d613          	srli	a2,a5,0x10
80001f8c:	01035313          	srli	t1,t1,0x10
80001f90:	0117f8b3          	and	a7,a5,a7
80001f94:	031e82b3          	mul	t0,t4,a7
80001f98:	41f70733          	sub	a4,a4,t6
80001f9c:	02ce8eb3          	mul	t4,t4,a2
80001fa0:	0102d813          	srli	a6,t0,0x10
80001fa4:	031308b3          	mul	a7,t1,a7
80001fa8:	011e8eb3          	add	t4,t4,a7
80001fac:	01d80833          	add	a6,a6,t4
80001fb0:	02c30633          	mul	a2,t1,a2
80001fb4:	01187463          	bleu	a7,a6,80001fbc <__umoddi3+0x2fc>
80001fb8:	00b60633          	add	a2,a2,a1
80001fbc:	000108b7          	lui	a7,0x10
80001fc0:	fff88893          	addi	a7,a7,-1 # ffff <_tbss_end+0xffbb>
80001fc4:	01085593          	srli	a1,a6,0x10
80001fc8:	01187833          	and	a6,a6,a7
80001fcc:	01081813          	slli	a6,a6,0x10
80001fd0:	0112f2b3          	and	t0,t0,a7
80001fd4:	00c58633          	add	a2,a1,a2
80001fd8:	00580833          	add	a6,a6,t0
80001fdc:	0ac76e63          	bltu	a4,a2,80002098 <__umoddi3+0x3d8>
80001fe0:	0ec70c63          	beq	a4,a2,800020d8 <__umoddi3+0x418>
80001fe4:	40c705b3          	sub	a1,a4,a2
80001fe8:	00080793          	mv	a5,a6
80001fec:	40f507b3          	sub	a5,a0,a5
80001ff0:	00f53533          	sltu	a0,a0,a5
80001ff4:	40a585b3          	sub	a1,a1,a0
80001ff8:	01e59f33          	sll	t5,a1,t5
80001ffc:	01c7d533          	srl	a0,a5,t3
80002000:	00af6533          	or	a0,t5,a0
80002004:	01c5d5b3          	srl	a1,a1,t3
80002008:	00008067          	ret
8000200c:	01c81833          	sll	a6,a6,t3
80002010:	0115d733          	srl	a4,a1,a7
80002014:	01085613          	srli	a2,a6,0x10
80002018:	02c756b3          	divu	a3,a4,a2
8000201c:	01081793          	slli	a5,a6,0x10
80002020:	0107d793          	srli	a5,a5,0x10
80002024:	011558b3          	srl	a7,a0,a7
80002028:	01c51eb3          	sll	t4,a0,t3
8000202c:	01c595b3          	sll	a1,a1,t3
80002030:	00b8e5b3          	or	a1,a7,a1
80002034:	0105d893          	srli	a7,a1,0x10
80002038:	02c77733          	remu	a4,a4,a2
8000203c:	02d78533          	mul	a0,a5,a3
80002040:	01071693          	slli	a3,a4,0x10
80002044:	0116e6b3          	or	a3,a3,a7
80002048:	00a6fa63          	bleu	a0,a3,8000205c <__umoddi3+0x39c>
8000204c:	010686b3          	add	a3,a3,a6
80002050:	0106e663          	bltu	a3,a6,8000205c <__umoddi3+0x39c>
80002054:	00a6f463          	bleu	a0,a3,8000205c <__umoddi3+0x39c>
80002058:	010686b3          	add	a3,a3,a6
8000205c:	40a686b3          	sub	a3,a3,a0
80002060:	02c6d733          	divu	a4,a3,a2
80002064:	01059893          	slli	a7,a1,0x10
80002068:	0108d893          	srli	a7,a7,0x10
8000206c:	02c6f6b3          	remu	a3,a3,a2
80002070:	02e78733          	mul	a4,a5,a4
80002074:	01069593          	slli	a1,a3,0x10
80002078:	0115e5b3          	or	a1,a1,a7
8000207c:	00e5fa63          	bleu	a4,a1,80002090 <__umoddi3+0x3d0>
80002080:	010585b3          	add	a1,a1,a6
80002084:	0105e663          	bltu	a1,a6,80002090 <__umoddi3+0x3d0>
80002088:	00e5f463          	bleu	a4,a1,80002090 <__umoddi3+0x3d0>
8000208c:	010585b3          	add	a1,a1,a6
80002090:	40e585b3          	sub	a1,a1,a4
80002094:	dcdff06f          	j	80001e60 <__umoddi3+0x1a0>
80002098:	40f807b3          	sub	a5,a6,a5
8000209c:	40d605b3          	sub	a1,a2,a3
800020a0:	00f83833          	sltu	a6,a6,a5
800020a4:	410585b3          	sub	a1,a1,a6
800020a8:	40b705b3          	sub	a1,a4,a1
800020ac:	f41ff06f          	j	80001fec <__umoddi3+0x32c>
800020b0:	edf770e3          	bleu	t6,a4,80001f70 <__umoddi3+0x2b0>
800020b4:	ffe60613          	addi	a2,a2,-2
800020b8:	00d70733          	add	a4,a4,a3
800020bc:	eb9ff06f          	j	80001f74 <__umoddi3+0x2b4>
800020c0:	e6c87ee3          	bleu	a2,a6,80001f3c <__umoddi3+0x27c>
800020c4:	ffe30313          	addi	t1,t1,-2
800020c8:	00d80833          	add	a6,a6,a3
800020cc:	e75ff06f          	j	80001f40 <__umoddi3+0x280>
800020d0:	01070733          	add	a4,a4,a6
800020d4:	c89ff06f          	j	80001d5c <__umoddi3+0x9c>
800020d8:	fd0560e3          	bltu	a0,a6,80002098 <__umoddi3+0x3d8>
800020dc:	00080793          	mv	a5,a6
800020e0:	00000593          	li	a1,0
800020e4:	f09ff06f          	j	80001fec <__umoddi3+0x32c>

800020e8 <__addsf3>:
800020e8:	ff010113          	addi	sp,sp,-16
800020ec:	00800737          	lui	a4,0x800
800020f0:	fff70713          	addi	a4,a4,-1 # 7fffff <_tbss_end+0x7fffbb>
800020f4:	0175d613          	srli	a2,a1,0x17
800020f8:	00912223          	sw	s1,4(sp)
800020fc:	01755493          	srli	s1,a0,0x17
80002100:	00e57833          	and	a6,a0,a4
80002104:	01f55693          	srli	a3,a0,0x1f
80002108:	00e5f8b3          	and	a7,a1,a4
8000210c:	01212023          	sw	s2,0(sp)
80002110:	0ff4f493          	andi	s1,s1,255
80002114:	0ff67613          	andi	a2,a2,255
80002118:	00112623          	sw	ra,12(sp)
8000211c:	00812423          	sw	s0,8(sp)
80002120:	01f5d593          	srli	a1,a1,0x1f
80002124:	00068913          	mv	s2,a3
80002128:	00381793          	slli	a5,a6,0x3
8000212c:	00389313          	slli	t1,a7,0x3
80002130:	40c48533          	sub	a0,s1,a2
80002134:	16b68e63          	beq	a3,a1,800022b0 <__addsf3+0x1c8>
80002138:	26a05063          	blez	a0,80002398 <__addsf3+0x2b0>
8000213c:	10061063          	bnez	a2,8000223c <__addsf3+0x154>
80002140:	1e030063          	beqz	t1,80002320 <__addsf3+0x238>
80002144:	fff50713          	addi	a4,a0,-1
80002148:	20071e63          	bnez	a4,80002364 <__addsf3+0x27c>
8000214c:	406787b3          	sub	a5,a5,t1
80002150:	00100493          	li	s1,1
80002154:	00579713          	slli	a4,a5,0x5
80002158:	12075063          	bgez	a4,80002278 <__addsf3+0x190>
8000215c:	04000737          	lui	a4,0x4000
80002160:	fff70713          	addi	a4,a4,-1 # 3ffffff <_tbss_end+0x3ffffbb>
80002164:	00e7f433          	and	s0,a5,a4
80002168:	00040513          	mv	a0,s0
8000216c:	169020ef          	jal	ra,80004ad4 <__clzsi2>
80002170:	ffb50513          	addi	a0,a0,-5
80002174:	00a41733          	sll	a4,s0,a0
80002178:	24954663          	blt	a0,s1,800023c4 <__addsf3+0x2dc>
8000217c:	40950533          	sub	a0,a0,s1
80002180:	00150513          	addi	a0,a0,1
80002184:	02000793          	li	a5,32
80002188:	40a787b3          	sub	a5,a5,a0
8000218c:	00f717b3          	sll	a5,a4,a5
80002190:	00f037b3          	snez	a5,a5
80002194:	00a75733          	srl	a4,a4,a0
80002198:	00f767b3          	or	a5,a4,a5
8000219c:	0077f713          	andi	a4,a5,7
800021a0:	00090693          	mv	a3,s2
800021a4:	00000493          	li	s1,0
800021a8:	00070a63          	beqz	a4,800021bc <__addsf3+0xd4>
800021ac:	00f7f613          	andi	a2,a5,15
800021b0:	00400713          	li	a4,4
800021b4:	00e60463          	beq	a2,a4,800021bc <__addsf3+0xd4>
800021b8:	00e787b3          	add	a5,a5,a4
800021bc:	00579713          	slli	a4,a5,0x5
800021c0:	0c075263          	bgez	a4,80002284 <__addsf3+0x19c>
800021c4:	00148493          	addi	s1,s1,1
800021c8:	0ff00713          	li	a4,255
800021cc:	16e48c63          	beq	s1,a4,80002344 <__addsf3+0x25c>
800021d0:	0037d713          	srli	a4,a5,0x3
800021d4:	1f8007b7          	lui	a5,0x1f800
800021d8:	fff78793          	addi	a5,a5,-1 # 1f7fffff <_tbss_end+0x1f7fffbb>
800021dc:	00f777b3          	and	a5,a4,a5
800021e0:	00800737          	lui	a4,0x800
800021e4:	fff70713          	addi	a4,a4,-1 # 7fffff <_tbss_end+0x7fffbb>
800021e8:	00e7f7b3          	and	a5,a5,a4
800021ec:	0ff4f493          	andi	s1,s1,255
800021f0:	00800537          	lui	a0,0x800
800021f4:	fff50513          	addi	a0,a0,-1 # 7fffff <_tbss_end+0x7fffbb>
800021f8:	00a7f7b3          	and	a5,a5,a0
800021fc:	80800537          	lui	a0,0x80800
80002200:	fff50513          	addi	a0,a0,-1 # 807fffff <__global_pointer$+0x7fa807>
80002204:	01749493          	slli	s1,s1,0x17
80002208:	00a7f533          	and	a0,a5,a0
8000220c:	00c12083          	lw	ra,12(sp)
80002210:	800007b7          	lui	a5,0x80000
80002214:	00956533          	or	a0,a0,s1
80002218:	fff7c793          	not	a5,a5
8000221c:	01f69693          	slli	a3,a3,0x1f
80002220:	00f57533          	and	a0,a0,a5
80002224:	00d56533          	or	a0,a0,a3
80002228:	00812403          	lw	s0,8(sp)
8000222c:	00412483          	lw	s1,4(sp)
80002230:	00012903          	lw	s2,0(sp)
80002234:	01010113          	addi	sp,sp,16
80002238:	00008067          	ret
8000223c:	04000637          	lui	a2,0x4000
80002240:	0ff00713          	li	a4,255
80002244:	00c36333          	or	t1,t1,a2
80002248:	10e48263          	beq	s1,a4,8000234c <__addsf3+0x264>
8000224c:	01b00713          	li	a4,27
80002250:	10a74463          	blt	a4,a0,80002358 <__addsf3+0x270>
80002254:	02000713          	li	a4,32
80002258:	40a70733          	sub	a4,a4,a0
8000225c:	00e31733          	sll	a4,t1,a4
80002260:	00a35533          	srl	a0,t1,a0
80002264:	00e03733          	snez	a4,a4
80002268:	00e56533          	or	a0,a0,a4
8000226c:	40a787b3          	sub	a5,a5,a0
80002270:	00579713          	slli	a4,a5,0x5
80002274:	ee0744e3          	bltz	a4,8000215c <__addsf3+0x74>
80002278:	0077f713          	andi	a4,a5,7
8000227c:	00090693          	mv	a3,s2
80002280:	f20716e3          	bnez	a4,800021ac <__addsf3+0xc4>
80002284:	0037d413          	srli	s0,a5,0x3
80002288:	0ff00793          	li	a5,255
8000228c:	0ef49c63          	bne	s1,a5,80002384 <__addsf3+0x29c>
80002290:	0a040a63          	beqz	s0,80002344 <__addsf3+0x25c>
80002294:	004007b7          	lui	a5,0x400
80002298:	00800737          	lui	a4,0x800
8000229c:	00f467b3          	or	a5,s0,a5
800022a0:	fff70713          	addi	a4,a4,-1 # 7fffff <_tbss_end+0x7fffbb>
800022a4:	00e7f7b3          	and	a5,a5,a4
800022a8:	0ff00493          	li	s1,255
800022ac:	f45ff06f          	j	800021f0 <__addsf3+0x108>
800022b0:	12a05863          	blez	a0,800023e0 <__addsf3+0x2f8>
800022b4:	06060e63          	beqz	a2,80002330 <__addsf3+0x248>
800022b8:	04000637          	lui	a2,0x4000
800022bc:	0ff00713          	li	a4,255
800022c0:	00c36333          	or	t1,t1,a2
800022c4:	08e48463          	beq	s1,a4,8000234c <__addsf3+0x264>
800022c8:	01b00713          	li	a4,27
800022cc:	22a74c63          	blt	a4,a0,80002504 <__addsf3+0x41c>
800022d0:	02000713          	li	a4,32
800022d4:	40a70733          	sub	a4,a4,a0
800022d8:	00e31733          	sll	a4,t1,a4
800022dc:	00a35533          	srl	a0,t1,a0
800022e0:	00e03333          	snez	t1,a4
800022e4:	00656533          	or	a0,a0,t1
800022e8:	00a787b3          	add	a5,a5,a0
800022ec:	00579713          	slli	a4,a5,0x5
800022f0:	f80754e3          	bgez	a4,80002278 <__addsf3+0x190>
800022f4:	00148493          	addi	s1,s1,1
800022f8:	0ff00713          	li	a4,255
800022fc:	04e48263          	beq	s1,a4,80002340 <__addsf3+0x258>
80002300:	7e0005b7          	lui	a1,0x7e000
80002304:	0017d613          	srli	a2,a5,0x1
80002308:	fff58593          	addi	a1,a1,-1 # 7dffffff <_tbss_end+0x7dffffbb>
8000230c:	0017f793          	andi	a5,a5,1
80002310:	00b67633          	and	a2,a2,a1
80002314:	00f667b3          	or	a5,a2,a5
80002318:	0077f713          	andi	a4,a5,7
8000231c:	e8dff06f          	j	800021a8 <__addsf3+0xc0>
80002320:	0ff00713          	li	a4,255
80002324:	04e50463          	beq	a0,a4,8000236c <__addsf3+0x284>
80002328:	00050493          	mv	s1,a0
8000232c:	e91ff06f          	j	800021bc <__addsf3+0xd4>
80002330:	12031c63          	bnez	t1,80002468 <__addsf3+0x380>
80002334:	0ff00713          	li	a4,255
80002338:	fee518e3          	bne	a0,a4,80002328 <__addsf3+0x240>
8000233c:	fe0796e3          	bnez	a5,80002328 <__addsf3+0x240>
80002340:	0ff00493          	li	s1,255
80002344:	00000793          	li	a5,0
80002348:	ea9ff06f          	j	800021f0 <__addsf3+0x108>
8000234c:	e60798e3          	bnez	a5,800021bc <__addsf3+0xd4>
80002350:	0ff00493          	li	s1,255
80002354:	ff1ff06f          	j	80002344 <__addsf3+0x25c>
80002358:	00100513          	li	a0,1
8000235c:	40a787b3          	sub	a5,a5,a0
80002360:	f11ff06f          	j	80002270 <__addsf3+0x188>
80002364:	0ff00613          	li	a2,255
80002368:	12c51063          	bne	a0,a2,80002488 <__addsf3+0x3a0>
8000236c:	fc078ae3          	beqz	a5,80002340 <__addsf3+0x258>
80002370:	0ff00493          	li	s1,255
80002374:	e49ff06f          	j	800021bc <__addsf3+0xd4>
80002378:	00040793          	mv	a5,s0
8000237c:	ee041ee3          	bnez	s0,80002278 <__addsf3+0x190>
80002380:	00000693          	li	a3,0
80002384:	008007b7          	lui	a5,0x800
80002388:	fff78793          	addi	a5,a5,-1 # 7fffff <_tbss_end+0x7fffbb>
8000238c:	00f477b3          	and	a5,s0,a5
80002390:	0ff4f493          	andi	s1,s1,255
80002394:	e5dff06f          	j	800021f0 <__addsf3+0x108>
80002398:	06051c63          	bnez	a0,80002410 <__addsf3+0x328>
8000239c:	00148613          	addi	a2,s1,1
800023a0:	0ff67613          	andi	a2,a2,255
800023a4:	00100513          	li	a0,1
800023a8:	14c55263          	ble	a2,a0,800024ec <__addsf3+0x404>
800023ac:	40678433          	sub	s0,a5,t1
800023b0:	00541713          	slli	a4,s0,0x5
800023b4:	0a075263          	bgez	a4,80002458 <__addsf3+0x370>
800023b8:	40f30433          	sub	s0,t1,a5
800023bc:	00058913          	mv	s2,a1
800023c0:	da9ff06f          	j	80002168 <__addsf3+0x80>
800023c4:	fc0007b7          	lui	a5,0xfc000
800023c8:	fff78793          	addi	a5,a5,-1 # fbffffff <__global_pointer$+0x7bffa807>
800023cc:	00f777b3          	and	a5,a4,a5
800023d0:	40a484b3          	sub	s1,s1,a0
800023d4:	00777713          	andi	a4,a4,7
800023d8:	00090693          	mv	a3,s2
800023dc:	dcdff06f          	j	800021a8 <__addsf3+0xc0>
800023e0:	12051663          	bnez	a0,8000250c <__addsf3+0x424>
800023e4:	00148613          	addi	a2,s1,1
800023e8:	0ff67713          	andi	a4,a2,255
800023ec:	00100593          	li	a1,1
800023f0:	0ce5d663          	ble	a4,a1,800024bc <__addsf3+0x3d4>
800023f4:	0ff00713          	li	a4,255
800023f8:	f4e604e3          	beq	a2,a4,80002340 <__addsf3+0x258>
800023fc:	006787b3          	add	a5,a5,t1
80002400:	0017d793          	srli	a5,a5,0x1
80002404:	0077f713          	andi	a4,a5,7
80002408:	00060493          	mv	s1,a2
8000240c:	d9dff06f          	j	800021a8 <__addsf3+0xc0>
80002410:	08048063          	beqz	s1,80002490 <__addsf3+0x3a8>
80002414:	40a006b3          	neg	a3,a0
80002418:	0ff00713          	li	a4,255
8000241c:	04000537          	lui	a0,0x4000
80002420:	00a7e7b3          	or	a5,a5,a0
80002424:	12e60663          	beq	a2,a4,80002550 <__addsf3+0x468>
80002428:	01b00713          	li	a4,27
8000242c:	1ad74e63          	blt	a4,a3,800025e8 <__addsf3+0x500>
80002430:	02000713          	li	a4,32
80002434:	40d70733          	sub	a4,a4,a3
80002438:	00e79733          	sll	a4,a5,a4
8000243c:	00e03733          	snez	a4,a4
80002440:	00d7d7b3          	srl	a5,a5,a3
80002444:	00e7e7b3          	or	a5,a5,a4
80002448:	40f307b3          	sub	a5,t1,a5
8000244c:	00060493          	mv	s1,a2
80002450:	00058913          	mv	s2,a1
80002454:	d01ff06f          	j	80002154 <__addsf3+0x6c>
80002458:	d00418e3          	bnez	s0,80002168 <__addsf3+0x80>
8000245c:	00000693          	li	a3,0
80002460:	00000493          	li	s1,0
80002464:	f21ff06f          	j	80002384 <__addsf3+0x29c>
80002468:	fff50713          	addi	a4,a0,-1 # 3ffffff <_tbss_end+0x3ffffbb>
8000246c:	04071063          	bnez	a4,800024ac <__addsf3+0x3c4>
80002470:	006787b3          	add	a5,a5,t1
80002474:	00579713          	slli	a4,a5,0x5
80002478:	00100493          	li	s1,1
8000247c:	de075ee3          	bgez	a4,80002278 <__addsf3+0x190>
80002480:	00200493          	li	s1,2
80002484:	e7dff06f          	j	80002300 <__addsf3+0x218>
80002488:	00070513          	mv	a0,a4
8000248c:	dc1ff06f          	j	8000224c <__addsf3+0x164>
80002490:	0a079863          	bnez	a5,80002540 <__addsf3+0x458>
80002494:	0ff00793          	li	a5,255
80002498:	00058693          	mv	a3,a1
8000249c:	0af60c63          	beq	a2,a5,80002554 <__addsf3+0x46c>
800024a0:	00030793          	mv	a5,t1
800024a4:	00060493          	mv	s1,a2
800024a8:	d15ff06f          	j	800021bc <__addsf3+0xd4>
800024ac:	0ff00613          	li	a2,255
800024b0:	eac50ee3          	beq	a0,a2,8000236c <__addsf3+0x284>
800024b4:	00070513          	mv	a0,a4
800024b8:	e11ff06f          	j	800022c8 <__addsf3+0x1e0>
800024bc:	0a049263          	bnez	s1,80002560 <__addsf3+0x478>
800024c0:	02078e63          	beqz	a5,800024fc <__addsf3+0x414>
800024c4:	ce030ce3          	beqz	t1,800021bc <__addsf3+0xd4>
800024c8:	006787b3          	add	a5,a5,t1
800024cc:	00579713          	slli	a4,a5,0x5
800024d0:	da0754e3          	bgez	a4,80002278 <__addsf3+0x190>
800024d4:	fc000637          	lui	a2,0xfc000
800024d8:	fff60613          	addi	a2,a2,-1 # fbffffff <__global_pointer$+0x7bffa807>
800024dc:	0077f713          	andi	a4,a5,7
800024e0:	00058493          	mv	s1,a1
800024e4:	00c7f7b3          	and	a5,a5,a2
800024e8:	cc1ff06f          	j	800021a8 <__addsf3+0xc0>
800024ec:	04049063          	bnez	s1,8000252c <__addsf3+0x444>
800024f0:	0c079c63          	bnez	a5,800025c8 <__addsf3+0x4e0>
800024f4:	12030063          	beqz	t1,80002614 <__addsf3+0x52c>
800024f8:	00058693          	mv	a3,a1
800024fc:	00030793          	mv	a5,t1
80002500:	cbdff06f          	j	800021bc <__addsf3+0xd4>
80002504:	00100513          	li	a0,1
80002508:	de1ff06f          	j	800022e8 <__addsf3+0x200>
8000250c:	06049e63          	bnez	s1,80002588 <__addsf3+0x4a0>
80002510:	0e079063          	bnez	a5,800025f0 <__addsf3+0x508>
80002514:	0ff00793          	li	a5,255
80002518:	f8f614e3          	bne	a2,a5,800024a0 <__addsf3+0x3b8>
8000251c:	e20302e3          	beqz	t1,80002340 <__addsf3+0x258>
80002520:	00030793          	mv	a5,t1
80002524:	0ff00493          	li	s1,255
80002528:	c95ff06f          	j	800021bc <__addsf3+0xd4>
8000252c:	02079c63          	bnez	a5,80002564 <__addsf3+0x47c>
80002530:	0c030c63          	beqz	t1,80002608 <__addsf3+0x520>
80002534:	00058693          	mv	a3,a1
80002538:	00030793          	mv	a5,t1
8000253c:	fe9ff06f          	j	80002524 <__addsf3+0x43c>
80002540:	fff54693          	not	a3,a0
80002544:	f00682e3          	beqz	a3,80002448 <__addsf3+0x360>
80002548:	0ff00713          	li	a4,255
8000254c:	ece61ee3          	bne	a2,a4,80002428 <__addsf3+0x340>
80002550:	00058693          	mv	a3,a1
80002554:	f40316e3          	bnez	t1,800024a0 <__addsf3+0x3b8>
80002558:	0ff00493          	li	s1,255
8000255c:	de9ff06f          	j	80002344 <__addsf3+0x25c>
80002560:	fc0780e3          	beqz	a5,80002520 <__addsf3+0x438>
80002564:	e00306e3          	beqz	t1,80002370 <__addsf3+0x288>
80002568:	01186833          	or	a6,a6,a7
8000256c:	00981713          	slli	a4,a6,0x9
80002570:	0ff00493          	li	s1,255
80002574:	c40754e3          	bgez	a4,800021bc <__addsf3+0xd4>
80002578:	040007b7          	lui	a5,0x4000
8000257c:	00000693          	li	a3,0
80002580:	ff878793          	addi	a5,a5,-8 # 3fffff8 <_tbss_end+0x3ffffb4>
80002584:	d01ff06f          	j	80002284 <__addsf3+0x19c>
80002588:	040005b7          	lui	a1,0x4000
8000258c:	0ff00713          	li	a4,255
80002590:	40a00533          	neg	a0,a0
80002594:	00b7e7b3          	or	a5,a5,a1
80002598:	fae60ee3          	beq	a2,a4,80002554 <__addsf3+0x46c>
8000259c:	01b00713          	li	a4,27
800025a0:	08a74063          	blt	a4,a0,80002620 <__addsf3+0x538>
800025a4:	02000713          	li	a4,32
800025a8:	40a70733          	sub	a4,a4,a0
800025ac:	00e79733          	sll	a4,a5,a4
800025b0:	00e03733          	snez	a4,a4
800025b4:	00a7d7b3          	srl	a5,a5,a0
800025b8:	00e7e7b3          	or	a5,a5,a4
800025bc:	006787b3          	add	a5,a5,t1
800025c0:	00060493          	mv	s1,a2
800025c4:	d29ff06f          	j	800022ec <__addsf3+0x204>
800025c8:	be030ae3          	beqz	t1,800021bc <__addsf3+0xd4>
800025cc:	40678433          	sub	s0,a5,t1
800025d0:	00541713          	slli	a4,s0,0x5
800025d4:	da0752e3          	bgez	a4,80002378 <__addsf3+0x290>
800025d8:	40f307b3          	sub	a5,t1,a5
800025dc:	0077f713          	andi	a4,a5,7
800025e0:	00058693          	mv	a3,a1
800025e4:	bc5ff06f          	j	800021a8 <__addsf3+0xc0>
800025e8:	00100793          	li	a5,1
800025ec:	e5dff06f          	j	80002448 <__addsf3+0x360>
800025f0:	fff54513          	not	a0,a0
800025f4:	fc0504e3          	beqz	a0,800025bc <__addsf3+0x4d4>
800025f8:	0ff00713          	li	a4,255
800025fc:	fae610e3          	bne	a2,a4,8000259c <__addsf3+0x4b4>
80002600:	d40300e3          	beqz	t1,80002340 <__addsf3+0x258>
80002604:	f1dff06f          	j	80002520 <__addsf3+0x438>
80002608:	00000693          	li	a3,0
8000260c:	00070413          	mv	s0,a4
80002610:	c85ff06f          	j	80002294 <__addsf3+0x1ac>
80002614:	00000413          	li	s0,0
80002618:	00000693          	li	a3,0
8000261c:	d69ff06f          	j	80002384 <__addsf3+0x29c>
80002620:	00100793          	li	a5,1
80002624:	f99ff06f          	j	800025bc <__addsf3+0x4d4>

80002628 <__divsf3>:
80002628:	fc010113          	addi	sp,sp,-64
8000262c:	01755793          	srli	a5,a0,0x17
80002630:	00800737          	lui	a4,0x800
80002634:	02812c23          	sw	s0,56(sp)
80002638:	03412423          	sw	s4,40(sp)
8000263c:	03612023          	sw	s6,32(sp)
80002640:	01f55a13          	srli	s4,a0,0x1f
80002644:	fff70713          	addi	a4,a4,-1 # 7fffff <_tbss_end+0x7fffbb>
80002648:	02112e23          	sw	ra,60(sp)
8000264c:	02912a23          	sw	s1,52(sp)
80002650:	03212823          	sw	s2,48(sp)
80002654:	03312623          	sw	s3,44(sp)
80002658:	03512223          	sw	s5,36(sp)
8000265c:	01712e23          	sw	s7,28(sp)
80002660:	0ff7f793          	andi	a5,a5,255
80002664:	00e57433          	and	s0,a0,a4
80002668:	000a0b13          	mv	s6,s4
8000266c:	18078263          	beqz	a5,800027f0 <__divsf3+0x1c8>
80002670:	0ff00713          	li	a4,255
80002674:	06e78e63          	beq	a5,a4,800026f0 <__divsf3+0xc8>
80002678:	00341413          	slli	s0,s0,0x3
8000267c:	04000737          	lui	a4,0x4000
80002680:	00e46433          	or	s0,s0,a4
80002684:	f8178a93          	addi	s5,a5,-127
80002688:	00000493          	li	s1,0
8000268c:	00000b93          	li	s7,0
80002690:	0175d513          	srli	a0,a1,0x17
80002694:	00800937          	lui	s2,0x800
80002698:	fff90913          	addi	s2,s2,-1 # 7fffff <_tbss_end+0x7fffbb>
8000269c:	0ff57513          	andi	a0,a0,255
800026a0:	0125f933          	and	s2,a1,s2
800026a4:	01f5d993          	srli	s3,a1,0x1f
800026a8:	06050e63          	beqz	a0,80002724 <__divsf3+0xfc>
800026ac:	0ff00793          	li	a5,255
800026b0:	16f50e63          	beq	a0,a5,8000282c <__divsf3+0x204>
800026b4:	00391913          	slli	s2,s2,0x3
800026b8:	040007b7          	lui	a5,0x4000
800026bc:	00f96933          	or	s2,s2,a5
800026c0:	f8150513          	addi	a0,a0,-127
800026c4:	00000713          	li	a4,0
800026c8:	00e4e4b3          	or	s1,s1,a4
800026cc:	800057b7          	lui	a5,0x80005
800026d0:	26078793          	addi	a5,a5,608 # 80005260 <__global_pointer$+0xfffffa68>
800026d4:	00249493          	slli	s1,s1,0x2
800026d8:	00f484b3          	add	s1,s1,a5
800026dc:	0004a683          	lw	a3,0(s1)
800026e0:	013a47b3          	xor	a5,s4,s3
800026e4:	00078613          	mv	a2,a5
800026e8:	40aa8533          	sub	a0,s5,a0
800026ec:	00068067          	jr	a3
800026f0:	00800493          	li	s1,8
800026f4:	00078a93          	mv	s5,a5
800026f8:	00200b93          	li	s7,2
800026fc:	f8040ae3          	beqz	s0,80002690 <__divsf3+0x68>
80002700:	0175d513          	srli	a0,a1,0x17
80002704:	00800937          	lui	s2,0x800
80002708:	fff90913          	addi	s2,s2,-1 # 7fffff <_tbss_end+0x7fffbb>
8000270c:	0ff57513          	andi	a0,a0,255
80002710:	00c00493          	li	s1,12
80002714:	00300b93          	li	s7,3
80002718:	0125f933          	and	s2,a1,s2
8000271c:	01f5d993          	srli	s3,a1,0x1f
80002720:	f80516e3          	bnez	a0,800026ac <__divsf3+0x84>
80002724:	10091e63          	bnez	s2,80002840 <__divsf3+0x218>
80002728:	00000513          	li	a0,0
8000272c:	00100713          	li	a4,1
80002730:	00e4e4b3          	or	s1,s1,a4
80002734:	800057b7          	lui	a5,0x80005
80002738:	2a078793          	addi	a5,a5,672 # 800052a0 <__global_pointer$+0xfffffaa8>
8000273c:	00249493          	slli	s1,s1,0x2
80002740:	00f484b3          	add	s1,s1,a5
80002744:	0004a683          	lw	a3,0(s1)
80002748:	013a47b3          	xor	a5,s4,s3
8000274c:	40aa8533          	sub	a0,s5,a0
80002750:	00068067          	jr	a3
80002754:	0ff00513          	li	a0,255
80002758:	00000413          	li	s0,0
8000275c:	00800737          	lui	a4,0x800
80002760:	fff70713          	addi	a4,a4,-1 # 7fffff <_tbss_end+0x7fffbb>
80002764:	00e47433          	and	s0,s0,a4
80002768:	01751713          	slli	a4,a0,0x17
8000276c:	80800537          	lui	a0,0x80800
80002770:	fff50513          	addi	a0,a0,-1 # 807fffff <__global_pointer$+0x7fa807>
80002774:	00a47533          	and	a0,s0,a0
80002778:	03c12083          	lw	ra,60(sp)
8000277c:	80000437          	lui	s0,0x80000
80002780:	fff44413          	not	s0,s0
80002784:	00e56533          	or	a0,a0,a4
80002788:	00857533          	and	a0,a0,s0
8000278c:	01f79793          	slli	a5,a5,0x1f
80002790:	00f56533          	or	a0,a0,a5
80002794:	03812403          	lw	s0,56(sp)
80002798:	03412483          	lw	s1,52(sp)
8000279c:	03012903          	lw	s2,48(sp)
800027a0:	02c12983          	lw	s3,44(sp)
800027a4:	02812a03          	lw	s4,40(sp)
800027a8:	02412a83          	lw	s5,36(sp)
800027ac:	02012b03          	lw	s6,32(sp)
800027b0:	01c12b83          	lw	s7,28(sp)
800027b4:	04010113          	addi	sp,sp,64
800027b8:	00008067          	ret
800027bc:	00090413          	mv	s0,s2
800027c0:	00098b13          	mv	s6,s3
800027c4:	00070b93          	mv	s7,a4
800027c8:	00200793          	li	a5,2
800027cc:	2cfb8663          	beq	s7,a5,80002a98 <__divsf3+0x470>
800027d0:	00300793          	li	a5,3
800027d4:	2afb8263          	beq	s7,a5,80002a78 <__divsf3+0x450>
800027d8:	00100793          	li	a5,1
800027dc:	22fb9a63          	bne	s7,a5,80002a10 <__divsf3+0x3e8>
800027e0:	001b7793          	andi	a5,s6,1
800027e4:	00000513          	li	a0,0
800027e8:	00000413          	li	s0,0
800027ec:	f71ff06f          	j	8000275c <__divsf3+0x134>
800027f0:	00400493          	li	s1,4
800027f4:	00000a93          	li	s5,0
800027f8:	00100b93          	li	s7,1
800027fc:	e8040ae3          	beqz	s0,80002690 <__divsf3+0x68>
80002800:	00040513          	mv	a0,s0
80002804:	00b12623          	sw	a1,12(sp)
80002808:	2cc020ef          	jal	ra,80004ad4 <__clzsi2>
8000280c:	ffb50793          	addi	a5,a0,-5
80002810:	00f41433          	sll	s0,s0,a5
80002814:	f8a00793          	li	a5,-118
80002818:	40a78ab3          	sub	s5,a5,a0
8000281c:	00000493          	li	s1,0
80002820:	00000b93          	li	s7,0
80002824:	00c12583          	lw	a1,12(sp)
80002828:	e69ff06f          	j	80002690 <__divsf3+0x68>
8000282c:	00091663          	bnez	s2,80002838 <__divsf3+0x210>
80002830:	00200713          	li	a4,2
80002834:	efdff06f          	j	80002730 <__divsf3+0x108>
80002838:	00300713          	li	a4,3
8000283c:	e8dff06f          	j	800026c8 <__divsf3+0xa0>
80002840:	00090513          	mv	a0,s2
80002844:	290020ef          	jal	ra,80004ad4 <__clzsi2>
80002848:	ffb50793          	addi	a5,a0,-5
8000284c:	00f91933          	sll	s2,s2,a5
80002850:	f8a00793          	li	a5,-118
80002854:	40a78533          	sub	a0,a5,a0
80002858:	00000713          	li	a4,0
8000285c:	e6dff06f          	j	800026c8 <__divsf3+0xa0>
80002860:	00800437          	lui	s0,0x800
80002864:	00000793          	li	a5,0
80002868:	fff40413          	addi	s0,s0,-1 # 7fffff <_tbss_end+0x7fffbb>
8000286c:	0ff00513          	li	a0,255
80002870:	eedff06f          	j	8000275c <__divsf3+0x134>
80002874:	1a070263          	beqz	a4,80002a18 <__divsf3+0x3f0>
80002878:	00100793          	li	a5,1
8000287c:	40e78733          	sub	a4,a5,a4
80002880:	01b00793          	li	a5,27
80002884:	18e7dc63          	ble	a4,a5,80002a1c <__divsf3+0x3f4>
80002888:	00167793          	andi	a5,a2,1
8000288c:	00000513          	li	a0,0
80002890:	00000413          	li	s0,0
80002894:	ec9ff06f          	j	8000275c <__divsf3+0x134>
80002898:	00591313          	slli	t1,s2,0x5
8000289c:	01035893          	srli	a7,t1,0x10
800028a0:	13247663          	bleu	s2,s0,800029cc <__divsf3+0x3a4>
800028a4:	031455b3          	divu	a1,s0,a7
800028a8:	000106b7          	lui	a3,0x10
800028ac:	fff68693          	addi	a3,a3,-1 # ffff <_tbss_end+0xffbb>
800028b0:	00d376b3          	and	a3,t1,a3
800028b4:	fff50513          	addi	a0,a0,-1
800028b8:	00040813          	mv	a6,s0
800028bc:	00000713          	li	a4,0
800028c0:	02b68e33          	mul	t3,a3,a1
800028c4:	03187833          	remu	a6,a6,a7
800028c8:	01081813          	slli	a6,a6,0x10
800028cc:	010767b3          	or	a5,a4,a6
800028d0:	01c7fe63          	bleu	t3,a5,800028ec <__divsf3+0x2c4>
800028d4:	006787b3          	add	a5,a5,t1
800028d8:	fff58713          	addi	a4,a1,-1 # 3ffffff <_tbss_end+0x3ffffbb>
800028dc:	1267e663          	bltu	a5,t1,80002a08 <__divsf3+0x3e0>
800028e0:	13c7f463          	bleu	t3,a5,80002a08 <__divsf3+0x3e0>
800028e4:	ffe58593          	addi	a1,a1,-2
800028e8:	006787b3          	add	a5,a5,t1
800028ec:	41c787b3          	sub	a5,a5,t3
800028f0:	0317d733          	divu	a4,a5,a7
800028f4:	0317f7b3          	remu	a5,a5,a7
800028f8:	02d70433          	mul	s0,a4,a3
800028fc:	01079793          	slli	a5,a5,0x10
80002900:	0087fe63          	bleu	s0,a5,8000291c <__divsf3+0x2f4>
80002904:	006787b3          	add	a5,a5,t1
80002908:	fff70693          	addi	a3,a4,-1
8000290c:	0e67ea63          	bltu	a5,t1,80002a00 <__divsf3+0x3d8>
80002910:	0e87f863          	bleu	s0,a5,80002a00 <__divsf3+0x3d8>
80002914:	ffe70713          	addi	a4,a4,-2
80002918:	006787b3          	add	a5,a5,t1
8000291c:	01059593          	slli	a1,a1,0x10
80002920:	40878433          	sub	s0,a5,s0
80002924:	00e5e5b3          	or	a1,a1,a4
80002928:	00803433          	snez	s0,s0
8000292c:	0085e433          	or	s0,a1,s0
80002930:	07f50713          	addi	a4,a0,127
80002934:	f4e050e3          	blez	a4,80002874 <__divsf3+0x24c>
80002938:	00747793          	andi	a5,s0,7
8000293c:	00078a63          	beqz	a5,80002950 <__divsf3+0x328>
80002940:	00f47793          	andi	a5,s0,15
80002944:	00400693          	li	a3,4
80002948:	00d78463          	beq	a5,a3,80002950 <__divsf3+0x328>
8000294c:	00d40433          	add	s0,s0,a3
80002950:	00441793          	slli	a5,s0,0x4
80002954:	0007da63          	bgez	a5,80002968 <__divsf3+0x340>
80002958:	f80007b7          	lui	a5,0xf8000
8000295c:	fff78793          	addi	a5,a5,-1 # f7ffffff <__global_pointer$+0x77ffa807>
80002960:	00f47433          	and	s0,s0,a5
80002964:	08050713          	addi	a4,a0,128
80002968:	0fe00793          	li	a5,254
8000296c:	04e7d663          	ble	a4,a5,800029b8 <__divsf3+0x390>
80002970:	00167793          	andi	a5,a2,1
80002974:	0ff00513          	li	a0,255
80002978:	00000413          	li	s0,0
8000297c:	de1ff06f          	j	8000275c <__divsf3+0x134>
80002980:	00078b13          	mv	s6,a5
80002984:	e5dff06f          	j	800027e0 <__divsf3+0x1b8>
80002988:	00000913          	li	s2,0
8000298c:	01246933          	or	s2,s0,s2
80002990:	00991793          	slli	a5,s2,0x9
80002994:	ec07c6e3          	bltz	a5,80002860 <__divsf3+0x238>
80002998:	004007b7          	lui	a5,0x400
8000299c:	00f46433          	or	s0,s0,a5
800029a0:	008007b7          	lui	a5,0x800
800029a4:	fff78793          	addi	a5,a5,-1 # 7fffff <_tbss_end+0x7fffbb>
800029a8:	00f47433          	and	s0,s0,a5
800029ac:	0ff00513          	li	a0,255
800029b0:	000a0793          	mv	a5,s4
800029b4:	da9ff06f          	j	8000275c <__divsf3+0x134>
800029b8:	00641413          	slli	s0,s0,0x6
800029bc:	00945413          	srli	s0,s0,0x9
800029c0:	0ff77513          	andi	a0,a4,255
800029c4:	00167793          	andi	a5,a2,1
800029c8:	d95ff06f          	j	8000275c <__divsf3+0x134>
800029cc:	00145813          	srli	a6,s0,0x1
800029d0:	031855b3          	divu	a1,a6,a7
800029d4:	000106b7          	lui	a3,0x10
800029d8:	fff68693          	addi	a3,a3,-1 # ffff <_tbss_end+0xffbb>
800029dc:	00d376b3          	and	a3,t1,a3
800029e0:	01f41713          	slli	a4,s0,0x1f
800029e4:	01075713          	srli	a4,a4,0x10
800029e8:	02d58e33          	mul	t3,a1,a3
800029ec:	ed9ff06f          	j	800028c4 <__divsf3+0x29c>
800029f0:	00098b13          	mv	s6,s3
800029f4:	00070b93          	mv	s7,a4
800029f8:	00000413          	li	s0,0
800029fc:	dcdff06f          	j	800027c8 <__divsf3+0x1a0>
80002a00:	00068713          	mv	a4,a3
80002a04:	f19ff06f          	j	8000291c <__divsf3+0x2f4>
80002a08:	00070593          	mv	a1,a4
80002a0c:	ee1ff06f          	j	800028ec <__divsf3+0x2c4>
80002a10:	000b0613          	mv	a2,s6
80002a14:	f1dff06f          	j	80002930 <__divsf3+0x308>
80002a18:	00100713          	li	a4,1
80002a1c:	02000793          	li	a5,32
80002a20:	40e787b3          	sub	a5,a5,a4
80002a24:	00f417b3          	sll	a5,s0,a5
80002a28:	00e45733          	srl	a4,s0,a4
80002a2c:	00f037b3          	snez	a5,a5
80002a30:	00f767b3          	or	a5,a4,a5
80002a34:	0077f713          	andi	a4,a5,7
80002a38:	00070a63          	beqz	a4,80002a4c <__divsf3+0x424>
80002a3c:	00f7f713          	andi	a4,a5,15
80002a40:	00400693          	li	a3,4
80002a44:	00d70463          	beq	a4,a3,80002a4c <__divsf3+0x424>
80002a48:	00d787b3          	add	a5,a5,a3
80002a4c:	00579713          	slli	a4,a5,0x5
80002a50:	00075a63          	bgez	a4,80002a64 <__divsf3+0x43c>
80002a54:	00167793          	andi	a5,a2,1
80002a58:	00100513          	li	a0,1
80002a5c:	00000413          	li	s0,0
80002a60:	cfdff06f          	j	8000275c <__divsf3+0x134>
80002a64:	00679413          	slli	s0,a5,0x6
80002a68:	00945413          	srli	s0,s0,0x9
80002a6c:	00167793          	andi	a5,a2,1
80002a70:	00000513          	li	a0,0
80002a74:	ce9ff06f          	j	8000275c <__divsf3+0x134>
80002a78:	004007b7          	lui	a5,0x400
80002a7c:	00f46433          	or	s0,s0,a5
80002a80:	008007b7          	lui	a5,0x800
80002a84:	fff78793          	addi	a5,a5,-1 # 7fffff <_tbss_end+0x7fffbb>
80002a88:	00f47433          	and	s0,s0,a5
80002a8c:	0ff00513          	li	a0,255
80002a90:	001b7793          	andi	a5,s6,1
80002a94:	cc9ff06f          	j	8000275c <__divsf3+0x134>
80002a98:	001b7793          	andi	a5,s6,1
80002a9c:	0ff00513          	li	a0,255
80002aa0:	00000413          	li	s0,0
80002aa4:	cb9ff06f          	j	8000275c <__divsf3+0x134>

80002aa8 <__mulsf3>:
80002aa8:	fd010113          	addi	sp,sp,-48
80002aac:	02812423          	sw	s0,40(sp)
80002ab0:	01755793          	srli	a5,a0,0x17
80002ab4:	00800437          	lui	s0,0x800
80002ab8:	01512a23          	sw	s5,20(sp)
80002abc:	fff40413          	addi	s0,s0,-1 # 7fffff <_tbss_end+0x7fffbb>
80002ac0:	02112623          	sw	ra,44(sp)
80002ac4:	02912223          	sw	s1,36(sp)
80002ac8:	03212023          	sw	s2,32(sp)
80002acc:	01312e23          	sw	s3,28(sp)
80002ad0:	01412c23          	sw	s4,24(sp)
80002ad4:	01612823          	sw	s6,16(sp)
80002ad8:	0ff7f793          	andi	a5,a5,255
80002adc:	00857433          	and	s0,a0,s0
80002ae0:	01f55a93          	srli	s5,a0,0x1f
80002ae4:	18078263          	beqz	a5,80002c68 <__mulsf3+0x1c0>
80002ae8:	0ff00713          	li	a4,255
80002aec:	08e78263          	beq	a5,a4,80002b70 <__mulsf3+0xc8>
80002af0:	00341413          	slli	s0,s0,0x3
80002af4:	04000737          	lui	a4,0x4000
80002af8:	00e46433          	or	s0,s0,a4
80002afc:	f8178a13          	addi	s4,a5,-127
80002b00:	00000913          	li	s2,0
80002b04:	00000b13          	li	s6,0
80002b08:	0175d793          	srli	a5,a1,0x17
80002b0c:	008004b7          	lui	s1,0x800
80002b10:	fff48493          	addi	s1,s1,-1 # 7fffff <_tbss_end+0x7fffbb>
80002b14:	0ff7f793          	andi	a5,a5,255
80002b18:	0095f4b3          	and	s1,a1,s1
80002b1c:	01f5d993          	srli	s3,a1,0x1f
80002b20:	08078263          	beqz	a5,80002ba4 <__mulsf3+0xfc>
80002b24:	0ff00713          	li	a4,255
80002b28:	16e78e63          	beq	a5,a4,80002ca4 <__mulsf3+0x1fc>
80002b2c:	04000737          	lui	a4,0x4000
80002b30:	00349493          	slli	s1,s1,0x3
80002b34:	00e4e4b3          	or	s1,s1,a4
80002b38:	f8178793          	addi	a5,a5,-127
80002b3c:	00000713          	li	a4,0
80002b40:	00fa0a33          	add	s4,s4,a5
80002b44:	00f00693          	li	a3,15
80002b48:	012767b3          	or	a5,a4,s2
80002b4c:	013ac633          	xor	a2,s5,s3
80002b50:	001a0593          	addi	a1,s4,1
80002b54:	16f6ee63          	bltu	a3,a5,80002cd0 <__mulsf3+0x228>
80002b58:	800056b7          	lui	a3,0x80005
80002b5c:	2e068693          	addi	a3,a3,736 # 800052e0 <__global_pointer$+0xfffffae8>
80002b60:	00279793          	slli	a5,a5,0x2
80002b64:	00d787b3          	add	a5,a5,a3
80002b68:	0007a683          	lw	a3,0(a5)
80002b6c:	00068067          	jr	a3
80002b70:	00800913          	li	s2,8
80002b74:	00078a13          	mv	s4,a5
80002b78:	00200b13          	li	s6,2
80002b7c:	f80406e3          	beqz	s0,80002b08 <__mulsf3+0x60>
80002b80:	0175d793          	srli	a5,a1,0x17
80002b84:	008004b7          	lui	s1,0x800
80002b88:	fff48493          	addi	s1,s1,-1 # 7fffff <_tbss_end+0x7fffbb>
80002b8c:	0ff7f793          	andi	a5,a5,255
80002b90:	00c00913          	li	s2,12
80002b94:	00300b13          	li	s6,3
80002b98:	0095f4b3          	and	s1,a1,s1
80002b9c:	01f5d993          	srli	s3,a1,0x1f
80002ba0:	f80792e3          	bnez	a5,80002b24 <__mulsf3+0x7c>
80002ba4:	00000793          	li	a5,0
80002ba8:	00100713          	li	a4,1
80002bac:	f8048ae3          	beqz	s1,80002b40 <__mulsf3+0x98>
80002bb0:	00048513          	mv	a0,s1
80002bb4:	721010ef          	jal	ra,80004ad4 <__clzsi2>
80002bb8:	ffb50793          	addi	a5,a0,-5
80002bbc:	00f494b3          	sll	s1,s1,a5
80002bc0:	f8a00793          	li	a5,-118
80002bc4:	40a787b3          	sub	a5,a5,a0
80002bc8:	00000713          	li	a4,0
80002bcc:	f75ff06f          	j	80002b40 <__mulsf3+0x98>
80002bd0:	00098613          	mv	a2,s3
80002bd4:	00200793          	li	a5,2
80002bd8:	0cf70c63          	beq	a4,a5,80002cb0 <__mulsf3+0x208>
80002bdc:	00300793          	li	a5,3
80002be0:	28f70863          	beq	a4,a5,80002e70 <__mulsf3+0x3c8>
80002be4:	00100793          	li	a5,1
80002be8:	22f71063          	bne	a4,a5,80002e08 <__mulsf3+0x360>
80002bec:	00f67ab3          	and	s5,a2,a5
80002bf0:	00000513          	li	a0,0
80002bf4:	00000413          	li	s0,0
80002bf8:	008007b7          	lui	a5,0x800
80002bfc:	fff78793          	addi	a5,a5,-1 # 7fffff <_tbss_end+0x7fffbb>
80002c00:	00f47433          	and	s0,s0,a5
80002c04:	01751793          	slli	a5,a0,0x17
80002c08:	80800537          	lui	a0,0x80800
80002c0c:	fff50513          	addi	a0,a0,-1 # 807fffff <__global_pointer$+0x7fa807>
80002c10:	00a47533          	and	a0,s0,a0
80002c14:	02c12083          	lw	ra,44(sp)
80002c18:	80000437          	lui	s0,0x80000
80002c1c:	00f56533          	or	a0,a0,a5
80002c20:	fff44413          	not	s0,s0
80002c24:	01fa9793          	slli	a5,s5,0x1f
80002c28:	00857533          	and	a0,a0,s0
80002c2c:	00f56533          	or	a0,a0,a5
80002c30:	02812403          	lw	s0,40(sp)
80002c34:	02412483          	lw	s1,36(sp)
80002c38:	02012903          	lw	s2,32(sp)
80002c3c:	01c12983          	lw	s3,28(sp)
80002c40:	01812a03          	lw	s4,24(sp)
80002c44:	01412a83          	lw	s5,20(sp)
80002c48:	01012b03          	lw	s6,16(sp)
80002c4c:	03010113          	addi	sp,sp,48
80002c50:	00008067          	ret
80002c54:	00800437          	lui	s0,0x800
80002c58:	00000a93          	li	s5,0
80002c5c:	fff40413          	addi	s0,s0,-1 # 7fffff <_tbss_end+0x7fffbb>
80002c60:	0ff00513          	li	a0,255
80002c64:	f95ff06f          	j	80002bf8 <__mulsf3+0x150>
80002c68:	00400913          	li	s2,4
80002c6c:	00000a13          	li	s4,0
80002c70:	00100b13          	li	s6,1
80002c74:	e8040ae3          	beqz	s0,80002b08 <__mulsf3+0x60>
80002c78:	00040513          	mv	a0,s0
80002c7c:	00b12623          	sw	a1,12(sp)
80002c80:	655010ef          	jal	ra,80004ad4 <__clzsi2>
80002c84:	ffb50793          	addi	a5,a0,-5
80002c88:	00f41433          	sll	s0,s0,a5
80002c8c:	f8a00793          	li	a5,-118
80002c90:	40a78a33          	sub	s4,a5,a0
80002c94:	00000913          	li	s2,0
80002c98:	00000b13          	li	s6,0
80002c9c:	00c12583          	lw	a1,12(sp)
80002ca0:	e69ff06f          	j	80002b08 <__mulsf3+0x60>
80002ca4:	00903733          	snez	a4,s1
80002ca8:	00270713          	addi	a4,a4,2 # 4000002 <_tbss_end+0x3ffffbe>
80002cac:	e95ff06f          	j	80002b40 <__mulsf3+0x98>
80002cb0:	00167a93          	andi	s5,a2,1
80002cb4:	0ff00513          	li	a0,255
80002cb8:	00000413          	li	s0,0
80002cbc:	f3dff06f          	j	80002bf8 <__mulsf3+0x150>
80002cc0:	00040493          	mv	s1,s0
80002cc4:	000a8613          	mv	a2,s5
80002cc8:	000b0713          	mv	a4,s6
80002ccc:	f09ff06f          	j	80002bd4 <__mulsf3+0x12c>
80002cd0:	00010337          	lui	t1,0x10
80002cd4:	fff30793          	addi	a5,t1,-1 # ffff <_tbss_end+0xffbb>
80002cd8:	01045513          	srli	a0,s0,0x10
80002cdc:	0104d893          	srli	a7,s1,0x10
80002ce0:	00f47433          	and	s0,s0,a5
80002ce4:	00f4f4b3          	and	s1,s1,a5
80002ce8:	02940833          	mul	a6,s0,s1
80002cec:	029504b3          	mul	s1,a0,s1
80002cf0:	01085713          	srli	a4,a6,0x10
80002cf4:	02888433          	mul	s0,a7,s0
80002cf8:	009406b3          	add	a3,s0,s1
80002cfc:	00d70733          	add	a4,a4,a3
80002d00:	03150533          	mul	a0,a0,a7
80002d04:	00977463          	bleu	s1,a4,80002d0c <__mulsf3+0x264>
80002d08:	00650533          	add	a0,a0,t1
80002d0c:	000106b7          	lui	a3,0x10
80002d10:	fff68693          	addi	a3,a3,-1 # ffff <_tbss_end+0xffbb>
80002d14:	00d777b3          	and	a5,a4,a3
80002d18:	01079793          	slli	a5,a5,0x10
80002d1c:	00d87833          	and	a6,a6,a3
80002d20:	010787b3          	add	a5,a5,a6
80002d24:	00679493          	slli	s1,a5,0x6
80002d28:	01075413          	srli	s0,a4,0x10
80002d2c:	009034b3          	snez	s1,s1
80002d30:	01a7d793          	srli	a5,a5,0x1a
80002d34:	00a40433          	add	s0,s0,a0
80002d38:	00f4e7b3          	or	a5,s1,a5
80002d3c:	00641413          	slli	s0,s0,0x6
80002d40:	00f464b3          	or	s1,s0,a5
80002d44:	00449793          	slli	a5,s1,0x4
80002d48:	0007da63          	bgez	a5,80002d5c <__mulsf3+0x2b4>
80002d4c:	0014d793          	srli	a5,s1,0x1
80002d50:	0014f413          	andi	s0,s1,1
80002d54:	0087e4b3          	or	s1,a5,s0
80002d58:	00058a13          	mv	s4,a1
80002d5c:	07fa0713          	addi	a4,s4,127
80002d60:	08e05263          	blez	a4,80002de4 <__mulsf3+0x33c>
80002d64:	0074f793          	andi	a5,s1,7
80002d68:	00078a63          	beqz	a5,80002d7c <__mulsf3+0x2d4>
80002d6c:	00f4f793          	andi	a5,s1,15
80002d70:	00400693          	li	a3,4
80002d74:	00d78463          	beq	a5,a3,80002d7c <__mulsf3+0x2d4>
80002d78:	00d484b3          	add	s1,s1,a3
80002d7c:	00449793          	slli	a5,s1,0x4
80002d80:	0007da63          	bgez	a5,80002d94 <__mulsf3+0x2ec>
80002d84:	f80007b7          	lui	a5,0xf8000
80002d88:	fff78793          	addi	a5,a5,-1 # f7ffffff <__global_pointer$+0x77ffa807>
80002d8c:	00f4f4b3          	and	s1,s1,a5
80002d90:	080a0713          	addi	a4,s4,128
80002d94:	0fe00793          	li	a5,254
80002d98:	f0e7cce3          	blt	a5,a4,80002cb0 <__mulsf3+0x208>
80002d9c:	00649413          	slli	s0,s1,0x6
80002da0:	00945413          	srli	s0,s0,0x9
80002da4:	0ff77513          	andi	a0,a4,255
80002da8:	00167a93          	andi	s5,a2,1
80002dac:	e4dff06f          	j	80002bf8 <__mulsf3+0x150>
80002db0:	00040493          	mv	s1,s0
80002db4:	000b0713          	mv	a4,s6
80002db8:	e1dff06f          	j	80002bd4 <__mulsf3+0x12c>
80002dbc:	009464b3          	or	s1,s0,s1
80002dc0:	00949793          	slli	a5,s1,0x9
80002dc4:	e807c8e3          	bltz	a5,80002c54 <__mulsf3+0x1ac>
80002dc8:	004007b7          	lui	a5,0x400
80002dcc:	00f46433          	or	s0,s0,a5
80002dd0:	008007b7          	lui	a5,0x800
80002dd4:	fff78793          	addi	a5,a5,-1 # 7fffff <_tbss_end+0x7fffbb>
80002dd8:	00f47433          	and	s0,s0,a5
80002ddc:	0ff00513          	li	a0,255
80002de0:	e19ff06f          	j	80002bf8 <__mulsf3+0x150>
80002de4:	02070663          	beqz	a4,80002e10 <__mulsf3+0x368>
80002de8:	00100413          	li	s0,1
80002dec:	40e40733          	sub	a4,s0,a4
80002df0:	01b00793          	li	a5,27
80002df4:	02e7d063          	ble	a4,a5,80002e14 <__mulsf3+0x36c>
80002df8:	00867ab3          	and	s5,a2,s0
80002dfc:	00000513          	li	a0,0
80002e00:	00000413          	li	s0,0
80002e04:	df5ff06f          	j	80002bf8 <__mulsf3+0x150>
80002e08:	00058a13          	mv	s4,a1
80002e0c:	f51ff06f          	j	80002d5c <__mulsf3+0x2b4>
80002e10:	00100713          	li	a4,1
80002e14:	02000793          	li	a5,32
80002e18:	40e787b3          	sub	a5,a5,a4
80002e1c:	00f497b3          	sll	a5,s1,a5
80002e20:	00e4d433          	srl	s0,s1,a4
80002e24:	00f037b3          	snez	a5,a5
80002e28:	00f467b3          	or	a5,s0,a5
80002e2c:	0077f713          	andi	a4,a5,7
80002e30:	00070a63          	beqz	a4,80002e44 <__mulsf3+0x39c>
80002e34:	00f7f713          	andi	a4,a5,15
80002e38:	00400693          	li	a3,4
80002e3c:	00d70463          	beq	a4,a3,80002e44 <__mulsf3+0x39c>
80002e40:	00d787b3          	add	a5,a5,a3
80002e44:	00579713          	slli	a4,a5,0x5
80002e48:	00075a63          	bgez	a4,80002e5c <__mulsf3+0x3b4>
80002e4c:	00167a93          	andi	s5,a2,1
80002e50:	00100513          	li	a0,1
80002e54:	00000413          	li	s0,0
80002e58:	da1ff06f          	j	80002bf8 <__mulsf3+0x150>
80002e5c:	00679413          	slli	s0,a5,0x6
80002e60:	00945413          	srli	s0,s0,0x9
80002e64:	00167a93          	andi	s5,a2,1
80002e68:	00000513          	li	a0,0
80002e6c:	d8dff06f          	j	80002bf8 <__mulsf3+0x150>
80002e70:	004007b7          	lui	a5,0x400
80002e74:	00f4e433          	or	s0,s1,a5
80002e78:	008007b7          	lui	a5,0x800
80002e7c:	fff78793          	addi	a5,a5,-1 # 7fffff <_tbss_end+0x7fffbb>
80002e80:	00f47433          	and	s0,s0,a5
80002e84:	00167a93          	andi	s5,a2,1
80002e88:	0ff00513          	li	a0,255
80002e8c:	d6dff06f          	j	80002bf8 <__mulsf3+0x150>

80002e90 <__fixsfsi>:
80002e90:	00800637          	lui	a2,0x800
80002e94:	01755793          	srli	a5,a0,0x17
80002e98:	fff60713          	addi	a4,a2,-1 # 7fffff <_tbss_end+0x7fffbb>
80002e9c:	0ff7f793          	andi	a5,a5,255
80002ea0:	07e00593          	li	a1,126
80002ea4:	00e576b3          	and	a3,a0,a4
80002ea8:	01f55713          	srli	a4,a0,0x1f
80002eac:	04f5d263          	ble	a5,a1,80002ef0 <__fixsfsi+0x60>
80002eb0:	09d00593          	li	a1,157
80002eb4:	02f5c663          	blt	a1,a5,80002ee0 <__fixsfsi+0x50>
80002eb8:	09500593          	li	a1,149
80002ebc:	00c6e6b3          	or	a3,a3,a2
80002ec0:	02f5cc63          	blt	a1,a5,80002ef8 <__fixsfsi+0x68>
80002ec4:	09600613          	li	a2,150
80002ec8:	40f607b3          	sub	a5,a2,a5
80002ecc:	00f6d7b3          	srl	a5,a3,a5
80002ed0:	40f00533          	neg	a0,a5
80002ed4:	02071063          	bnez	a4,80002ef4 <__fixsfsi+0x64>
80002ed8:	00078513          	mv	a0,a5
80002edc:	00008067          	ret
80002ee0:	80000537          	lui	a0,0x80000
80002ee4:	fff54513          	not	a0,a0
80002ee8:	00a70533          	add	a0,a4,a0
80002eec:	00008067          	ret
80002ef0:	00000513          	li	a0,0
80002ef4:	00008067          	ret
80002ef8:	f6a78793          	addi	a5,a5,-150
80002efc:	00f697b3          	sll	a5,a3,a5
80002f00:	fd1ff06f          	j	80002ed0 <__fixsfsi+0x40>

80002f04 <__adddf3>:
80002f04:	001007b7          	lui	a5,0x100
80002f08:	fff78e93          	addi	t4,a5,-1 # fffff <_tbss_end+0xfffbb>
80002f0c:	fe010113          	addi	sp,sp,-32
80002f10:	01d5f7b3          	and	a5,a1,t4
80002f14:	01d6f8b3          	and	a7,a3,t4
80002f18:	00379713          	slli	a4,a5,0x3
80002f1c:	0146d813          	srli	a6,a3,0x14
80002f20:	01d65e13          	srli	t3,a2,0x1d
80002f24:	00812c23          	sw	s0,24(sp)
80002f28:	01312623          	sw	s3,12(sp)
80002f2c:	0145d413          	srli	s0,a1,0x14
80002f30:	01d55793          	srli	a5,a0,0x1d
80002f34:	01f5d593          	srli	a1,a1,0x1f
80002f38:	00389893          	slli	a7,a7,0x3
80002f3c:	00112e23          	sw	ra,28(sp)
80002f40:	00912a23          	sw	s1,20(sp)
80002f44:	01212823          	sw	s2,16(sp)
80002f48:	01f6d693          	srli	a3,a3,0x1f
80002f4c:	7ff47413          	andi	s0,s0,2047
80002f50:	00058993          	mv	s3,a1
80002f54:	00e7e7b3          	or	a5,a5,a4
80002f58:	00351313          	slli	t1,a0,0x3
80002f5c:	7ff87813          	andi	a6,a6,2047
80002f60:	011e68b3          	or	a7,t3,a7
80002f64:	00361613          	slli	a2,a2,0x3
80002f68:	10d58863          	beq	a1,a3,80003078 <__adddf3+0x174>
80002f6c:	41040e33          	sub	t3,s0,a6
80002f70:	31c05a63          	blez	t3,80003284 <__adddf3+0x380>
80002f74:	0a081e63          	bnez	a6,80003030 <__adddf3+0x12c>
80002f78:	00c8e733          	or	a4,a7,a2
80002f7c:	12071063          	bnez	a4,8000309c <__adddf3+0x198>
80002f80:	7ff00713          	li	a4,2047
80002f84:	000e0413          	mv	s0,t3
80002f88:	3eee0463          	beq	t3,a4,80003370 <__adddf3+0x46c>
80002f8c:	00879713          	slli	a4,a5,0x8
80002f90:	1c075e63          	bgez	a4,8000316c <__adddf3+0x268>
80002f94:	00140413          	addi	s0,s0,1
80002f98:	7ff00713          	li	a4,2047
80002f9c:	36e40863          	beq	s0,a4,8000330c <__adddf3+0x408>
80002fa0:	ff800737          	lui	a4,0xff800
80002fa4:	fff70713          	addi	a4,a4,-1 # ff7fffff <__global_pointer$+0x7f7fa807>
80002fa8:	00e7f7b3          	and	a5,a5,a4
80002fac:	01d79693          	slli	a3,a5,0x1d
80002fb0:	00335713          	srli	a4,t1,0x3
80002fb4:	00979793          	slli	a5,a5,0x9
80002fb8:	00e6e733          	or	a4,a3,a4
80002fbc:	00c7d793          	srli	a5,a5,0xc
80002fc0:	7ff47413          	andi	s0,s0,2047
80002fc4:	00100537          	lui	a0,0x100
80002fc8:	00000693          	li	a3,0
80002fcc:	00070613          	mv	a2,a4
80002fd0:	fff50513          	addi	a0,a0,-1 # fffff <_tbss_end+0xfffbb>
80002fd4:	fff00737          	lui	a4,0xfff00
80002fd8:	00d77733          	and	a4,a4,a3
80002fdc:	00a7f7b3          	and	a5,a5,a0
80002fe0:	00f767b3          	or	a5,a4,a5
80002fe4:	80100737          	lui	a4,0x80100
80002fe8:	fff70713          	addi	a4,a4,-1 # 800fffff <__global_pointer$+0xfa807>
80002fec:	00e7f733          	and	a4,a5,a4
80002ff0:	01441413          	slli	s0,s0,0x14
80002ff4:	800007b7          	lui	a5,0x80000
80002ff8:	00876433          	or	s0,a4,s0
80002ffc:	fff7c793          	not	a5,a5
80003000:	01c12083          	lw	ra,28(sp)
80003004:	01f59593          	slli	a1,a1,0x1f
80003008:	00f47433          	and	s0,s0,a5
8000300c:	00b466b3          	or	a3,s0,a1
80003010:	00060513          	mv	a0,a2
80003014:	00068593          	mv	a1,a3
80003018:	01812403          	lw	s0,24(sp)
8000301c:	01412483          	lw	s1,20(sp)
80003020:	01012903          	lw	s2,16(sp)
80003024:	00c12983          	lw	s3,12(sp)
80003028:	02010113          	addi	sp,sp,32
8000302c:	00008067          	ret
80003030:	008006b7          	lui	a3,0x800
80003034:	7ff00713          	li	a4,2047
80003038:	00d8e8b3          	or	a7,a7,a3
8000303c:	22e40063          	beq	s0,a4,8000325c <__adddf3+0x358>
80003040:	03800713          	li	a4,56
80003044:	17c74063          	blt	a4,t3,800031a4 <__adddf3+0x2a0>
80003048:	01f00713          	li	a4,31
8000304c:	37c74663          	blt	a4,t3,800033b8 <__adddf3+0x4b4>
80003050:	02000693          	li	a3,32
80003054:	41c686b3          	sub	a3,a3,t3
80003058:	01c65933          	srl	s2,a2,t3
8000305c:	00d89733          	sll	a4,a7,a3
80003060:	00d61633          	sll	a2,a2,a3
80003064:	01276733          	or	a4,a4,s2
80003068:	00c03933          	snez	s2,a2
8000306c:	01276733          	or	a4,a4,s2
80003070:	01c8d8b3          	srl	a7,a7,t3
80003074:	13c0006f          	j	800031b0 <__adddf3+0x2ac>
80003078:	410406b3          	sub	a3,s0,a6
8000307c:	28d05e63          	blez	a3,80003318 <__adddf3+0x414>
80003080:	16081463          	bnez	a6,800031e8 <__adddf3+0x2e4>
80003084:	00c8e733          	or	a4,a7,a2
80003088:	3e071063          	bnez	a4,80003468 <__adddf3+0x564>
8000308c:	7ff00713          	li	a4,2047
80003090:	4ae68c63          	beq	a3,a4,80003548 <__adddf3+0x644>
80003094:	00068413          	mv	s0,a3
80003098:	ef5ff06f          	j	80002f8c <__adddf3+0x88>
8000309c:	fffe0713          	addi	a4,t3,-1
800030a0:	2c071063          	bnez	a4,80003360 <__adddf3+0x45c>
800030a4:	40c30933          	sub	s2,t1,a2
800030a8:	411787b3          	sub	a5,a5,a7
800030ac:	01233733          	sltu	a4,t1,s2
800030b0:	40e787b3          	sub	a5,a5,a4
800030b4:	00100413          	li	s0,1
800030b8:	00879713          	slli	a4,a5,0x8
800030bc:	10075663          	bgez	a4,800031c8 <__adddf3+0x2c4>
800030c0:	00800637          	lui	a2,0x800
800030c4:	fff60613          	addi	a2,a2,-1 # 7fffff <_tbss_end+0x7fffbb>
800030c8:	00c7f4b3          	and	s1,a5,a2
800030cc:	1e048e63          	beqz	s1,800032c8 <__adddf3+0x3c4>
800030d0:	00048513          	mv	a0,s1
800030d4:	201010ef          	jal	ra,80004ad4 <__clzsi2>
800030d8:	ff850713          	addi	a4,a0,-8
800030dc:	01f00793          	li	a5,31
800030e0:	20e7c063          	blt	a5,a4,800032e0 <__adddf3+0x3dc>
800030e4:	02000793          	li	a5,32
800030e8:	40e787b3          	sub	a5,a5,a4
800030ec:	00f95533          	srl	a0,s2,a5
800030f0:	00e497b3          	sll	a5,s1,a4
800030f4:	00f567b3          	or	a5,a0,a5
800030f8:	00e91933          	sll	s2,s2,a4
800030fc:	1e874a63          	blt	a4,s0,800032f0 <__adddf3+0x3ec>
80003100:	40870433          	sub	s0,a4,s0
80003104:	00140613          	addi	a2,s0,1
80003108:	01f00713          	li	a4,31
8000310c:	26c74a63          	blt	a4,a2,80003380 <__adddf3+0x47c>
80003110:	02000693          	li	a3,32
80003114:	40c686b3          	sub	a3,a3,a2
80003118:	00c955b3          	srl	a1,s2,a2
8000311c:	00d91733          	sll	a4,s2,a3
80003120:	00d796b3          	sll	a3,a5,a3
80003124:	00b6e6b3          	or	a3,a3,a1
80003128:	00e03733          	snez	a4,a4
8000312c:	00e6e933          	or	s2,a3,a4
80003130:	00c7d7b3          	srl	a5,a5,a2
80003134:	00797713          	andi	a4,s2,7
80003138:	00098593          	mv	a1,s3
8000313c:	00000413          	li	s0,0
80003140:	00090313          	mv	t1,s2
80003144:	e40704e3          	beqz	a4,80002f8c <__adddf3+0x88>
80003148:	00f97713          	andi	a4,s2,15
8000314c:	00400693          	li	a3,4
80003150:	00090313          	mv	t1,s2
80003154:	e2d70ce3          	beq	a4,a3,80002f8c <__adddf3+0x88>
80003158:	00d90333          	add	t1,s2,a3
8000315c:	01233733          	sltu	a4,t1,s2
80003160:	00e787b3          	add	a5,a5,a4
80003164:	00879713          	slli	a4,a5,0x8
80003168:	e20746e3          	bltz	a4,80002f94 <__adddf3+0x90>
8000316c:	01d79693          	slli	a3,a5,0x1d
80003170:	00335713          	srli	a4,t1,0x3
80003174:	00d76733          	or	a4,a4,a3
80003178:	7ff00693          	li	a3,2047
8000317c:	0037d793          	srli	a5,a5,0x3
80003180:	0ed41863          	bne	s0,a3,80003270 <__adddf3+0x36c>
80003184:	00f766b3          	or	a3,a4,a5
80003188:	5a068c63          	beqz	a3,80003740 <__adddf3+0x83c>
8000318c:	000806b7          	lui	a3,0x80
80003190:	00d7e7b3          	or	a5,a5,a3
80003194:	001006b7          	lui	a3,0x100
80003198:	fff68693          	addi	a3,a3,-1 # fffff <_tbss_end+0xfffbb>
8000319c:	00d7f7b3          	and	a5,a5,a3
800031a0:	e25ff06f          	j	80002fc4 <__adddf3+0xc0>
800031a4:	00c8e633          	or	a2,a7,a2
800031a8:	00c03733          	snez	a4,a2
800031ac:	00000893          	li	a7,0
800031b0:	40e30933          	sub	s2,t1,a4
800031b4:	01233733          	sltu	a4,t1,s2
800031b8:	411787b3          	sub	a5,a5,a7
800031bc:	40e787b3          	sub	a5,a5,a4
800031c0:	00879713          	slli	a4,a5,0x8
800031c4:	ee074ee3          	bltz	a4,800030c0 <__adddf3+0x1bc>
800031c8:	00797713          	andi	a4,s2,7
800031cc:	00098593          	mv	a1,s3
800031d0:	f6071ce3          	bnez	a4,80003148 <__adddf3+0x244>
800031d4:	01d79693          	slli	a3,a5,0x1d
800031d8:	00395713          	srli	a4,s2,0x3
800031dc:	00d76733          	or	a4,a4,a3
800031e0:	0037d793          	srli	a5,a5,0x3
800031e4:	0840006f          	j	80003268 <__adddf3+0x364>
800031e8:	00800537          	lui	a0,0x800
800031ec:	7ff00713          	li	a4,2047
800031f0:	00a8e8b3          	or	a7,a7,a0
800031f4:	06e40463          	beq	s0,a4,8000325c <__adddf3+0x358>
800031f8:	03800713          	li	a4,56
800031fc:	28d75c63          	ble	a3,a4,80003494 <__adddf3+0x590>
80003200:	00c8e633          	or	a2,a7,a2
80003204:	00c03733          	snez	a4,a2
80003208:	00000893          	li	a7,0
8000320c:	00670933          	add	s2,a4,t1
80003210:	00f887b3          	add	a5,a7,a5
80003214:	00693733          	sltu	a4,s2,t1
80003218:	00e787b3          	add	a5,a5,a4
8000321c:	00879713          	slli	a4,a5,0x8
80003220:	fa0754e3          	bgez	a4,800031c8 <__adddf3+0x2c4>
80003224:	00140413          	addi	s0,s0,1
80003228:	7ff00713          	li	a4,2047
8000322c:	3ce40463          	beq	s0,a4,800035f4 <__adddf3+0x6f0>
80003230:	ff800737          	lui	a4,0xff800
80003234:	fff70713          	addi	a4,a4,-1 # ff7fffff <__global_pointer$+0x7f7fa807>
80003238:	00e7f7b3          	and	a5,a5,a4
8000323c:	00195713          	srli	a4,s2,0x1
80003240:	00197913          	andi	s2,s2,1
80003244:	01276733          	or	a4,a4,s2
80003248:	01f79913          	slli	s2,a5,0x1f
8000324c:	00e96933          	or	s2,s2,a4
80003250:	0017d793          	srli	a5,a5,0x1
80003254:	00797713          	andi	a4,s2,7
80003258:	ee9ff06f          	j	80003140 <__adddf3+0x23c>
8000325c:	0067e733          	or	a4,a5,t1
80003260:	d20716e3          	bnez	a4,80002f8c <__adddf3+0x88>
80003264:	00000793          	li	a5,0
80003268:	7ff00693          	li	a3,2047
8000326c:	f0d40ce3          	beq	s0,a3,80003184 <__adddf3+0x280>
80003270:	001006b7          	lui	a3,0x100
80003274:	fff68693          	addi	a3,a3,-1 # fffff <_tbss_end+0xfffbb>
80003278:	00d7f7b3          	and	a5,a5,a3
8000327c:	7ff47413          	andi	s0,s0,2047
80003280:	d45ff06f          	j	80002fc4 <__adddf3+0xc0>
80003284:	160e1263          	bnez	t3,800033e8 <__adddf3+0x4e4>
80003288:	00140713          	addi	a4,s0,1
8000328c:	7ff77713          	andi	a4,a4,2047
80003290:	00100813          	li	a6,1
80003294:	2ce85463          	ble	a4,a6,8000355c <__adddf3+0x658>
80003298:	40c30933          	sub	s2,t1,a2
8000329c:	01233733          	sltu	a4,t1,s2
800032a0:	411784b3          	sub	s1,a5,a7
800032a4:	40e484b3          	sub	s1,s1,a4
800032a8:	00849713          	slli	a4,s1,0x8
800032ac:	1a075263          	bgez	a4,80003450 <__adddf3+0x54c>
800032b0:	40660933          	sub	s2,a2,t1
800032b4:	40f887b3          	sub	a5,a7,a5
800032b8:	01263633          	sltu	a2,a2,s2
800032bc:	40c784b3          	sub	s1,a5,a2
800032c0:	00068993          	mv	s3,a3
800032c4:	e00496e3          	bnez	s1,800030d0 <__adddf3+0x1cc>
800032c8:	00090513          	mv	a0,s2
800032cc:	009010ef          	jal	ra,80004ad4 <__clzsi2>
800032d0:	02050513          	addi	a0,a0,32 # 800020 <_tbss_end+0x7fffdc>
800032d4:	ff850713          	addi	a4,a0,-8
800032d8:	01f00793          	li	a5,31
800032dc:	e0e7d4e3          	ble	a4,a5,800030e4 <__adddf3+0x1e0>
800032e0:	fd850793          	addi	a5,a0,-40
800032e4:	00f917b3          	sll	a5,s2,a5
800032e8:	00000913          	li	s2,0
800032ec:	e0875ae3          	ble	s0,a4,80003100 <__adddf3+0x1fc>
800032f0:	40e40433          	sub	s0,s0,a4
800032f4:	ff800737          	lui	a4,0xff800
800032f8:	fff70713          	addi	a4,a4,-1 # ff7fffff <__global_pointer$+0x7f7fa807>
800032fc:	00e7f7b3          	and	a5,a5,a4
80003300:	00098593          	mv	a1,s3
80003304:	00797713          	andi	a4,s2,7
80003308:	e39ff06f          	j	80003140 <__adddf3+0x23c>
8000330c:	00000793          	li	a5,0
80003310:	00000713          	li	a4,0
80003314:	cb1ff06f          	j	80002fc4 <__adddf3+0xc0>
80003318:	28069c63          	bnez	a3,800035b0 <__adddf3+0x6ac>
8000331c:	00140693          	addi	a3,s0,1
80003320:	7ff6f713          	andi	a4,a3,2047
80003324:	00100813          	li	a6,1
80003328:	1ce85e63          	ble	a4,a6,80003504 <__adddf3+0x600>
8000332c:	7ff00713          	li	a4,2047
80003330:	32e68263          	beq	a3,a4,80003654 <__adddf3+0x750>
80003334:	00c30633          	add	a2,t1,a2
80003338:	00663733          	sltu	a4,a2,t1
8000333c:	011787b3          	add	a5,a5,a7
80003340:	00e787b3          	add	a5,a5,a4
80003344:	01f79713          	slli	a4,a5,0x1f
80003348:	00165613          	srli	a2,a2,0x1
8000334c:	00c76933          	or	s2,a4,a2
80003350:	0017d793          	srli	a5,a5,0x1
80003354:	00797713          	andi	a4,s2,7
80003358:	00068413          	mv	s0,a3
8000335c:	de5ff06f          	j	80003140 <__adddf3+0x23c>
80003360:	7ff00693          	li	a3,2047
80003364:	00de0663          	beq	t3,a3,80003370 <__adddf3+0x46c>
80003368:	00070e13          	mv	t3,a4
8000336c:	cd5ff06f          	j	80003040 <__adddf3+0x13c>
80003370:	0067e733          	or	a4,a5,t1
80003374:	14070863          	beqz	a4,800034c4 <__adddf3+0x5c0>
80003378:	7ff00413          	li	s0,2047
8000337c:	c11ff06f          	j	80002f8c <__adddf3+0x88>
80003380:	fe140413          	addi	s0,s0,-31
80003384:	02000693          	li	a3,32
80003388:	0087d433          	srl	s0,a5,s0
8000338c:	00000713          	li	a4,0
80003390:	00d60863          	beq	a2,a3,800033a0 <__adddf3+0x49c>
80003394:	04000713          	li	a4,64
80003398:	40c70733          	sub	a4,a4,a2
8000339c:	00e79733          	sll	a4,a5,a4
800033a0:	00e96733          	or	a4,s2,a4
800033a4:	00e03733          	snez	a4,a4
800033a8:	00e46933          	or	s2,s0,a4
800033ac:	00000793          	li	a5,0
800033b0:	00000413          	li	s0,0
800033b4:	e15ff06f          	j	800031c8 <__adddf3+0x2c4>
800033b8:	02000593          	li	a1,32
800033bc:	01c8d733          	srl	a4,a7,t3
800033c0:	00000693          	li	a3,0
800033c4:	00be0863          	beq	t3,a1,800033d4 <__adddf3+0x4d0>
800033c8:	04000693          	li	a3,64
800033cc:	41c685b3          	sub	a1,a3,t3
800033d0:	00b896b3          	sll	a3,a7,a1
800033d4:	00c6e633          	or	a2,a3,a2
800033d8:	00c03933          	snez	s2,a2
800033dc:	01276733          	or	a4,a4,s2
800033e0:	00000893          	li	a7,0
800033e4:	dcdff06f          	j	800031b0 <__adddf3+0x2ac>
800033e8:	0e040463          	beqz	s0,800034d0 <__adddf3+0x5cc>
800033ec:	00800537          	lui	a0,0x800
800033f0:	7ff00713          	li	a4,2047
800033f4:	41c005b3          	neg	a1,t3
800033f8:	00a7e7b3          	or	a5,a5,a0
800033fc:	22e80863          	beq	a6,a4,8000362c <__adddf3+0x728>
80003400:	03800713          	li	a4,56
80003404:	24b74063          	blt	a4,a1,80003644 <__adddf3+0x740>
80003408:	01f00713          	li	a4,31
8000340c:	38b74e63          	blt	a4,a1,800037a8 <__adddf3+0x8a4>
80003410:	02000513          	li	a0,32
80003414:	40b50533          	sub	a0,a0,a1
80003418:	00a79733          	sll	a4,a5,a0
8000341c:	00b35e33          	srl	t3,t1,a1
80003420:	00a31533          	sll	a0,t1,a0
80003424:	01c76733          	or	a4,a4,t3
80003428:	00a03933          	snez	s2,a0
8000342c:	01276733          	or	a4,a4,s2
80003430:	00b7d5b3          	srl	a1,a5,a1
80003434:	40e60933          	sub	s2,a2,a4
80003438:	40b887b3          	sub	a5,a7,a1
8000343c:	01263633          	sltu	a2,a2,s2
80003440:	40c787b3          	sub	a5,a5,a2
80003444:	00080413          	mv	s0,a6
80003448:	00068993          	mv	s3,a3
8000344c:	c6dff06f          	j	800030b8 <__adddf3+0x1b4>
80003450:	00996733          	or	a4,s2,s1
80003454:	c6071ce3          	bnez	a4,800030cc <__adddf3+0x1c8>
80003458:	00000793          	li	a5,0
8000345c:	00000593          	li	a1,0
80003460:	00000413          	li	s0,0
80003464:	e05ff06f          	j	80003268 <__adddf3+0x364>
80003468:	fff68713          	addi	a4,a3,-1
8000346c:	08071463          	bnez	a4,800034f4 <__adddf3+0x5f0>
80003470:	00c30933          	add	s2,t1,a2
80003474:	00693733          	sltu	a4,s2,t1
80003478:	011787b3          	add	a5,a5,a7
8000347c:	00e787b3          	add	a5,a5,a4
80003480:	00879713          	slli	a4,a5,0x8
80003484:	00100413          	li	s0,1
80003488:	d40750e3          	bgez	a4,800031c8 <__adddf3+0x2c4>
8000348c:	00200413          	li	s0,2
80003490:	da1ff06f          	j	80003230 <__adddf3+0x32c>
80003494:	01f00713          	li	a4,31
80003498:	0ed74463          	blt	a4,a3,80003580 <__adddf3+0x67c>
8000349c:	02000513          	li	a0,32
800034a0:	40d50533          	sub	a0,a0,a3
800034a4:	00a89733          	sll	a4,a7,a0
800034a8:	00d65833          	srl	a6,a2,a3
800034ac:	00a61633          	sll	a2,a2,a0
800034b0:	01076733          	or	a4,a4,a6
800034b4:	00c03933          	snez	s2,a2
800034b8:	01276733          	or	a4,a4,s2
800034bc:	00d8d8b3          	srl	a7,a7,a3
800034c0:	d4dff06f          	j	8000320c <__adddf3+0x308>
800034c4:	00000793          	li	a5,0
800034c8:	000e0413          	mv	s0,t3
800034cc:	d9dff06f          	j	80003268 <__adddf3+0x364>
800034d0:	0067e733          	or	a4,a5,t1
800034d4:	12071663          	bnez	a4,80003600 <__adddf3+0x6fc>
800034d8:	7ff00793          	li	a5,2047
800034dc:	14f80863          	beq	a6,a5,8000362c <__adddf3+0x728>
800034e0:	00068593          	mv	a1,a3
800034e4:	00088793          	mv	a5,a7
800034e8:	00060313          	mv	t1,a2
800034ec:	00080413          	mv	s0,a6
800034f0:	a9dff06f          	j	80002f8c <__adddf3+0x88>
800034f4:	7ff00513          	li	a0,2047
800034f8:	04a68863          	beq	a3,a0,80003548 <__adddf3+0x644>
800034fc:	00070693          	mv	a3,a4
80003500:	cf9ff06f          	j	800031f8 <__adddf3+0x2f4>
80003504:	0067e733          	or	a4,a5,t1
80003508:	24041263          	bnez	s0,8000374c <__adddf3+0x848>
8000350c:	06070463          	beqz	a4,80003574 <__adddf3+0x670>
80003510:	00c8e733          	or	a4,a7,a2
80003514:	a6070ce3          	beqz	a4,80002f8c <__adddf3+0x88>
80003518:	00c30933          	add	s2,t1,a2
8000351c:	00693733          	sltu	a4,s2,t1
80003520:	011787b3          	add	a5,a5,a7
80003524:	00e787b3          	add	a5,a5,a4
80003528:	00879713          	slli	a4,a5,0x8
8000352c:	c8075ee3          	bgez	a4,800031c8 <__adddf3+0x2c4>
80003530:	ff800737          	lui	a4,0xff800
80003534:	fff70713          	addi	a4,a4,-1 # ff7fffff <__global_pointer$+0x7f7fa807>
80003538:	00e7f7b3          	and	a5,a5,a4
8000353c:	00080413          	mv	s0,a6
80003540:	00797713          	andi	a4,s2,7
80003544:	bfdff06f          	j	80003140 <__adddf3+0x23c>
80003548:	0067e733          	or	a4,a5,t1
8000354c:	b40714e3          	bnez	a4,80003094 <__adddf3+0x190>
80003550:	00000793          	li	a5,0
80003554:	00068413          	mv	s0,a3
80003558:	d11ff06f          	j	80003268 <__adddf3+0x364>
8000355c:	0067e733          	or	a4,a5,t1
80003560:	06041a63          	bnez	s0,800035d4 <__adddf3+0x6d0>
80003564:	16071063          	bnez	a4,800036c4 <__adddf3+0x7c0>
80003568:	00c8e733          	or	a4,a7,a2
8000356c:	22070863          	beqz	a4,8000379c <__adddf3+0x898>
80003570:	00068593          	mv	a1,a3
80003574:	00088793          	mv	a5,a7
80003578:	00060313          	mv	t1,a2
8000357c:	a11ff06f          	j	80002f8c <__adddf3+0x88>
80003580:	02000813          	li	a6,32
80003584:	00d8d733          	srl	a4,a7,a3
80003588:	00000513          	li	a0,0
8000358c:	01068863          	beq	a3,a6,8000359c <__adddf3+0x698>
80003590:	04000513          	li	a0,64
80003594:	40d506b3          	sub	a3,a0,a3
80003598:	00d89533          	sll	a0,a7,a3
8000359c:	00c56633          	or	a2,a0,a2
800035a0:	00c03933          	snez	s2,a2
800035a4:	01276733          	or	a4,a4,s2
800035a8:	00000893          	li	a7,0
800035ac:	c61ff06f          	j	8000320c <__adddf3+0x308>
800035b0:	0a041a63          	bnez	s0,80003664 <__adddf3+0x760>
800035b4:	0067e733          	or	a4,a5,t1
800035b8:	22071063          	bnez	a4,800037d8 <__adddf3+0x8d4>
800035bc:	7ff00793          	li	a5,2047
800035c0:	24f80063          	beq	a6,a5,80003800 <__adddf3+0x8fc>
800035c4:	00088793          	mv	a5,a7
800035c8:	00060313          	mv	t1,a2
800035cc:	00080413          	mv	s0,a6
800035d0:	9bdff06f          	j	80002f8c <__adddf3+0x88>
800035d4:	12071663          	bnez	a4,80003700 <__adddf3+0x7fc>
800035d8:	00c8e7b3          	or	a5,a7,a2
800035dc:	22078863          	beqz	a5,8000380c <__adddf3+0x908>
800035e0:	00068593          	mv	a1,a3
800035e4:	00088793          	mv	a5,a7
800035e8:	00060313          	mv	t1,a2
800035ec:	7ff00413          	li	s0,2047
800035f0:	99dff06f          	j	80002f8c <__adddf3+0x88>
800035f4:	00000793          	li	a5,0
800035f8:	00000713          	li	a4,0
800035fc:	c6dff06f          	j	80003268 <__adddf3+0x364>
80003600:	fffe4593          	not	a1,t3
80003604:	02059063          	bnez	a1,80003624 <__adddf3+0x720>
80003608:	40660933          	sub	s2,a2,t1
8000360c:	40f887b3          	sub	a5,a7,a5
80003610:	01263633          	sltu	a2,a2,s2
80003614:	40c787b3          	sub	a5,a5,a2
80003618:	00080413          	mv	s0,a6
8000361c:	00068993          	mv	s3,a3
80003620:	a99ff06f          	j	800030b8 <__adddf3+0x1b4>
80003624:	7ff00713          	li	a4,2047
80003628:	dce81ce3          	bne	a6,a4,80003400 <__adddf3+0x4fc>
8000362c:	00c8e733          	or	a4,a7,a2
80003630:	00068593          	mv	a1,a3
80003634:	f80718e3          	bnez	a4,800035c4 <__adddf3+0x6c0>
80003638:	00000793          	li	a5,0
8000363c:	00080413          	mv	s0,a6
80003640:	c29ff06f          	j	80003268 <__adddf3+0x364>
80003644:	0067e733          	or	a4,a5,t1
80003648:	00e03733          	snez	a4,a4
8000364c:	00000593          	li	a1,0
80003650:	de5ff06f          	j	80003434 <__adddf3+0x530>
80003654:	00068413          	mv	s0,a3
80003658:	00000793          	li	a5,0
8000365c:	00000713          	li	a4,0
80003660:	c09ff06f          	j	80003268 <__adddf3+0x364>
80003664:	00800537          	lui	a0,0x800
80003668:	7ff00713          	li	a4,2047
8000366c:	40d006b3          	neg	a3,a3
80003670:	00a7e7b3          	or	a5,a5,a0
80003674:	18e80663          	beq	a6,a4,80003800 <__adddf3+0x8fc>
80003678:	03800713          	li	a4,56
8000367c:	1ad74263          	blt	a4,a3,80003820 <__adddf3+0x91c>
80003680:	01f00713          	li	a4,31
80003684:	1cd74263          	blt	a4,a3,80003848 <__adddf3+0x944>
80003688:	02000513          	li	a0,32
8000368c:	40d50533          	sub	a0,a0,a3
80003690:	00a79733          	sll	a4,a5,a0
80003694:	00d35e33          	srl	t3,t1,a3
80003698:	00a31533          	sll	a0,t1,a0
8000369c:	01c76733          	or	a4,a4,t3
800036a0:	00a03933          	snez	s2,a0
800036a4:	01276733          	or	a4,a4,s2
800036a8:	00d7d7b3          	srl	a5,a5,a3
800036ac:	00c70933          	add	s2,a4,a2
800036b0:	011787b3          	add	a5,a5,a7
800036b4:	00c93633          	sltu	a2,s2,a2
800036b8:	00c787b3          	add	a5,a5,a2
800036bc:	00080413          	mv	s0,a6
800036c0:	b5dff06f          	j	8000321c <__adddf3+0x318>
800036c4:	00c8e733          	or	a4,a7,a2
800036c8:	8c0702e3          	beqz	a4,80002f8c <__adddf3+0x88>
800036cc:	40c30933          	sub	s2,t1,a2
800036d0:	01233733          	sltu	a4,t1,s2
800036d4:	411785b3          	sub	a1,a5,a7
800036d8:	40e585b3          	sub	a1,a1,a4
800036dc:	00859713          	slli	a4,a1,0x8
800036e0:	0a075863          	bgez	a4,80003790 <__adddf3+0x88c>
800036e4:	40660933          	sub	s2,a2,t1
800036e8:	40f887b3          	sub	a5,a7,a5
800036ec:	01263633          	sltu	a2,a2,s2
800036f0:	40c787b3          	sub	a5,a5,a2
800036f4:	00797713          	andi	a4,s2,7
800036f8:	00068593          	mv	a1,a3
800036fc:	a45ff06f          	j	80003140 <__adddf3+0x23c>
80003700:	00c8e633          	or	a2,a7,a2
80003704:	c6060ae3          	beqz	a2,80003378 <__adddf3+0x474>
80003708:	00f8e8b3          	or	a7,a7,a5
8000370c:	00989713          	slli	a4,a7,0x9
80003710:	12074063          	bltz	a4,80003830 <__adddf3+0x92c>
80003714:	200006b7          	lui	a3,0x20000
80003718:	fff68693          	addi	a3,a3,-1 # 1fffffff <_tbss_end+0x1fffffbb>
8000371c:	01d79713          	slli	a4,a5,0x1d
80003720:	00d57533          	and	a0,a0,a3
80003724:	00a76733          	or	a4,a4,a0
80003728:	ff87f793          	andi	a5,a5,-8
8000372c:	01d75693          	srli	a3,a4,0x1d
80003730:	00d7e7b3          	or	a5,a5,a3
80003734:	00371313          	slli	t1,a4,0x3
80003738:	7ff00413          	li	s0,2047
8000373c:	851ff06f          	j	80002f8c <__adddf3+0x88>
80003740:	00000713          	li	a4,0
80003744:	00000793          	li	a5,0
80003748:	87dff06f          	j	80002fc4 <__adddf3+0xc0>
8000374c:	e8070ce3          	beqz	a4,800035e4 <__adddf3+0x6e0>
80003750:	00c8e633          	or	a2,a7,a2
80003754:	c20602e3          	beqz	a2,80003378 <__adddf3+0x474>
80003758:	00f8e8b3          	or	a7,a7,a5
8000375c:	00989713          	slli	a4,a7,0x9
80003760:	0c074863          	bltz	a4,80003830 <__adddf3+0x92c>
80003764:	20000737          	lui	a4,0x20000
80003768:	fff70713          	addi	a4,a4,-1 # 1fffffff <_tbss_end+0x1fffffbb>
8000376c:	01d79313          	slli	t1,a5,0x1d
80003770:	00e57533          	and	a0,a0,a4
80003774:	00a36733          	or	a4,t1,a0
80003778:	01d75693          	srli	a3,a4,0x1d
8000377c:	ff87f793          	andi	a5,a5,-8
80003780:	00f6e7b3          	or	a5,a3,a5
80003784:	00371313          	slli	t1,a4,0x3
80003788:	7ff00413          	li	s0,2047
8000378c:	801ff06f          	j	80002f8c <__adddf3+0x88>
80003790:	00b96733          	or	a4,s2,a1
80003794:	00058793          	mv	a5,a1
80003798:	a20718e3          	bnez	a4,800031c8 <__adddf3+0x2c4>
8000379c:	00000793          	li	a5,0
800037a0:	00000593          	li	a1,0
800037a4:	ac5ff06f          	j	80003268 <__adddf3+0x364>
800037a8:	02000e13          	li	t3,32
800037ac:	00b7d733          	srl	a4,a5,a1
800037b0:	00000513          	li	a0,0
800037b4:	01c58863          	beq	a1,t3,800037c4 <__adddf3+0x8c0>
800037b8:	04000513          	li	a0,64
800037bc:	40b505b3          	sub	a1,a0,a1
800037c0:	00b79533          	sll	a0,a5,a1
800037c4:	00656533          	or	a0,a0,t1
800037c8:	00a03933          	snez	s2,a0
800037cc:	01276733          	or	a4,a4,s2
800037d0:	00000593          	li	a1,0
800037d4:	c61ff06f          	j	80003434 <__adddf3+0x530>
800037d8:	fff6c693          	not	a3,a3
800037dc:	00069e63          	bnez	a3,800037f8 <__adddf3+0x8f4>
800037e0:	00c30933          	add	s2,t1,a2
800037e4:	011787b3          	add	a5,a5,a7
800037e8:	00c93633          	sltu	a2,s2,a2
800037ec:	00c787b3          	add	a5,a5,a2
800037f0:	00080413          	mv	s0,a6
800037f4:	a29ff06f          	j	8000321c <__adddf3+0x318>
800037f8:	7ff00713          	li	a4,2047
800037fc:	e6e81ee3          	bne	a6,a4,80003678 <__adddf3+0x774>
80003800:	00c8e733          	or	a4,a7,a2
80003804:	dc0710e3          	bnez	a4,800035c4 <__adddf3+0x6c0>
80003808:	e31ff06f          	j	80003638 <__adddf3+0x734>
8000380c:	00000593          	li	a1,0
80003810:	000e8793          	mv	a5,t4
80003814:	fff00713          	li	a4,-1
80003818:	7ff00413          	li	s0,2047
8000381c:	a4dff06f          	j	80003268 <__adddf3+0x364>
80003820:	0067e733          	or	a4,a5,t1
80003824:	00e03733          	snez	a4,a4
80003828:	00000793          	li	a5,0
8000382c:	e81ff06f          	j	800036ac <__adddf3+0x7a8>
80003830:	008007b7          	lui	a5,0x800
80003834:	00000593          	li	a1,0
80003838:	ff800313          	li	t1,-8
8000383c:	fff78793          	addi	a5,a5,-1 # 7fffff <_tbss_end+0x7fffbb>
80003840:	7ff00413          	li	s0,2047
80003844:	f48ff06f          	j	80002f8c <__adddf3+0x88>
80003848:	02000e13          	li	t3,32
8000384c:	00d7d733          	srl	a4,a5,a3
80003850:	00000513          	li	a0,0
80003854:	01c68863          	beq	a3,t3,80003864 <__adddf3+0x960>
80003858:	04000513          	li	a0,64
8000385c:	40d506b3          	sub	a3,a0,a3
80003860:	00d79533          	sll	a0,a5,a3
80003864:	00656533          	or	a0,a0,t1
80003868:	00a03933          	snez	s2,a0
8000386c:	01276733          	or	a4,a4,s2
80003870:	00000793          	li	a5,0
80003874:	e39ff06f          	j	800036ac <__adddf3+0x7a8>

80003878 <__divdf3>:
80003878:	fc010113          	addi	sp,sp,-64
8000387c:	02812c23          	sw	s0,56(sp)
80003880:	0145d793          	srli	a5,a1,0x14
80003884:	00100437          	lui	s0,0x100
80003888:	03412423          	sw	s4,40(sp)
8000388c:	03512223          	sw	s5,36(sp)
80003890:	01812c23          	sw	s8,24(sp)
80003894:	01f5da13          	srli	s4,a1,0x1f
80003898:	fff40413          	addi	s0,s0,-1 # fffff <_tbss_end+0xfffbb>
8000389c:	02112e23          	sw	ra,60(sp)
800038a0:	02912a23          	sw	s1,52(sp)
800038a4:	03212823          	sw	s2,48(sp)
800038a8:	03312623          	sw	s3,44(sp)
800038ac:	03612023          	sw	s6,32(sp)
800038b0:	01712e23          	sw	s7,28(sp)
800038b4:	01912a23          	sw	s9,20(sp)
800038b8:	7ff7f793          	andi	a5,a5,2047
800038bc:	00060c13          	mv	s8,a2
800038c0:	0085f433          	and	s0,a1,s0
800038c4:	000a0a93          	mv	s5,s4
800038c8:	1e078263          	beqz	a5,80003aac <__divdf3+0x234>
800038cc:	7ff00713          	li	a4,2047
800038d0:	00050993          	mv	s3,a0
800038d4:	08e78a63          	beq	a5,a4,80003968 <__divdf3+0xf0>
800038d8:	00341593          	slli	a1,s0,0x3
800038dc:	01d55b13          	srli	s6,a0,0x1d
800038e0:	00800437          	lui	s0,0x800
800038e4:	008b6b33          	or	s6,s6,s0
800038e8:	00bb6b33          	or	s6,s6,a1
800038ec:	00351993          	slli	s3,a0,0x3
800038f0:	c0178b93          	addi	s7,a5,-1023
800038f4:	00000913          	li	s2,0
800038f8:	00000c93          	li	s9,0
800038fc:	0146d513          	srli	a0,a3,0x14
80003900:	001004b7          	lui	s1,0x100
80003904:	fff48493          	addi	s1,s1,-1 # fffff <_tbss_end+0xfffbb>
80003908:	7ff57513          	andi	a0,a0,2047
8000390c:	0096f4b3          	and	s1,a3,s1
80003910:	01f6d413          	srli	s0,a3,0x1f
80003914:	08050463          	beqz	a0,8000399c <__divdf3+0x124>
80003918:	7ff00793          	li	a5,2047
8000391c:	1ef50663          	beq	a0,a5,80003b08 <__divdf3+0x290>
80003920:	01dc5793          	srli	a5,s8,0x1d
80003924:	00800737          	lui	a4,0x800
80003928:	00349493          	slli	s1,s1,0x3
8000392c:	00e7e7b3          	or	a5,a5,a4
80003930:	0097e4b3          	or	s1,a5,s1
80003934:	003c1613          	slli	a2,s8,0x3
80003938:	c0150513          	addi	a0,a0,-1023 # 7ffc01 <_tbss_end+0x7ffbbd>
8000393c:	00000693          	li	a3,0
80003940:	0126e7b3          	or	a5,a3,s2
80003944:	80005737          	lui	a4,0x80005
80003948:	32070713          	addi	a4,a4,800 # 80005320 <__global_pointer$+0xfffffb28>
8000394c:	00279793          	slli	a5,a5,0x2
80003950:	00e787b3          	add	a5,a5,a4
80003954:	0007a783          	lw	a5,0(a5)
80003958:	008a4733          	xor	a4,s4,s0
8000395c:	00070813          	mv	a6,a4
80003960:	40ab8533          	sub	a0,s7,a0
80003964:	00078067          	jr	a5
80003968:	00856b33          	or	s6,a0,s0
8000396c:	1e0b1063          	bnez	s6,80003b4c <__divdf3+0x2d4>
80003970:	0146d513          	srli	a0,a3,0x14
80003974:	001004b7          	lui	s1,0x100
80003978:	fff48493          	addi	s1,s1,-1 # fffff <_tbss_end+0xfffbb>
8000397c:	7ff57513          	andi	a0,a0,2047
80003980:	00000993          	li	s3,0
80003984:	00800913          	li	s2,8
80003988:	00078b93          	mv	s7,a5
8000398c:	00200c93          	li	s9,2
80003990:	0096f4b3          	and	s1,a3,s1
80003994:	01f6d413          	srli	s0,a3,0x1f
80003998:	f80510e3          	bnez	a0,80003918 <__divdf3+0xa0>
8000399c:	009c6633          	or	a2,s8,s1
800039a0:	16060e63          	beqz	a2,80003b1c <__divdf3+0x2a4>
800039a4:	26048663          	beqz	s1,80003c10 <__divdf3+0x398>
800039a8:	00048513          	mv	a0,s1
800039ac:	128010ef          	jal	ra,80004ad4 <__clzsi2>
800039b0:	ff550713          	addi	a4,a0,-11
800039b4:	01c00793          	li	a5,28
800039b8:	24e7c463          	blt	a5,a4,80003c00 <__divdf3+0x388>
800039bc:	01d00793          	li	a5,29
800039c0:	ff850613          	addi	a2,a0,-8
800039c4:	40e787b3          	sub	a5,a5,a4
800039c8:	00c494b3          	sll	s1,s1,a2
800039cc:	00fc57b3          	srl	a5,s8,a5
800039d0:	0097e4b3          	or	s1,a5,s1
800039d4:	00cc1633          	sll	a2,s8,a2
800039d8:	c0d00793          	li	a5,-1011
800039dc:	40a78533          	sub	a0,a5,a0
800039e0:	00000693          	li	a3,0
800039e4:	f5dff06f          	j	80003940 <__divdf3+0xc8>
800039e8:	7ff00793          	li	a5,2047
800039ec:	00000693          	li	a3,0
800039f0:	00000993          	li	s3,0
800039f4:	00100637          	lui	a2,0x100
800039f8:	00000593          	li	a1,0
800039fc:	fff00437          	lui	s0,0xfff00
80003a00:	fff60613          	addi	a2,a2,-1 # fffff <_tbss_end+0xfffbb>
80003a04:	00b47433          	and	s0,s0,a1
80003a08:	00c6f6b3          	and	a3,a3,a2
80003a0c:	00d46433          	or	s0,s0,a3
80003a10:	01479693          	slli	a3,a5,0x14
80003a14:	801007b7          	lui	a5,0x80100
80003a18:	fff78793          	addi	a5,a5,-1 # 800fffff <__global_pointer$+0xfa807>
80003a1c:	00f477b3          	and	a5,s0,a5
80003a20:	00d7e7b3          	or	a5,a5,a3
80003a24:	03c12083          	lw	ra,60(sp)
80003a28:	800006b7          	lui	a3,0x80000
80003a2c:	fff6c693          	not	a3,a3
80003a30:	01f71713          	slli	a4,a4,0x1f
80003a34:	00d7f7b3          	and	a5,a5,a3
80003a38:	00098513          	mv	a0,s3
80003a3c:	00e7e5b3          	or	a1,a5,a4
80003a40:	03812403          	lw	s0,56(sp)
80003a44:	03412483          	lw	s1,52(sp)
80003a48:	03012903          	lw	s2,48(sp)
80003a4c:	02c12983          	lw	s3,44(sp)
80003a50:	02812a03          	lw	s4,40(sp)
80003a54:	02412a83          	lw	s5,36(sp)
80003a58:	02012b03          	lw	s6,32(sp)
80003a5c:	01c12b83          	lw	s7,28(sp)
80003a60:	01812c03          	lw	s8,24(sp)
80003a64:	01412c83          	lw	s9,20(sp)
80003a68:	04010113          	addi	sp,sp,64
80003a6c:	00008067          	ret
80003a70:	00040a93          	mv	s5,s0
80003a74:	00048b13          	mv	s6,s1
80003a78:	00060993          	mv	s3,a2
80003a7c:	00068c93          	mv	s9,a3
80003a80:	00200793          	li	a5,2
80003a84:	60fc8263          	beq	s9,a5,80004088 <__divdf3+0x810>
80003a88:	00300793          	li	a5,3
80003a8c:	60fc8863          	beq	s9,a5,8000409c <__divdf3+0x824>
80003a90:	00100793          	li	a5,1
80003a94:	50fc9863          	bne	s9,a5,80003fa4 <__divdf3+0x72c>
80003a98:	000a8713          	mv	a4,s5
80003a9c:	00000793          	li	a5,0
80003aa0:	00000693          	li	a3,0
80003aa4:	00000993          	li	s3,0
80003aa8:	f4dff06f          	j	800039f4 <__divdf3+0x17c>
80003aac:	00856b33          	or	s6,a0,s0
80003ab0:	00050493          	mv	s1,a0
80003ab4:	080b0263          	beqz	s6,80003b38 <__divdf3+0x2c0>
80003ab8:	00d12623          	sw	a3,12(sp)
80003abc:	12040a63          	beqz	s0,80003bf0 <__divdf3+0x378>
80003ac0:	00040513          	mv	a0,s0
80003ac4:	010010ef          	jal	ra,80004ad4 <__clzsi2>
80003ac8:	00c12683          	lw	a3,12(sp)
80003acc:	ff550793          	addi	a5,a0,-11
80003ad0:	01c00713          	li	a4,28
80003ad4:	10f74663          	blt	a4,a5,80003be0 <__divdf3+0x368>
80003ad8:	01d00b13          	li	s6,29
80003adc:	ff850993          	addi	s3,a0,-8
80003ae0:	40fb0b33          	sub	s6,s6,a5
80003ae4:	013415b3          	sll	a1,s0,s3
80003ae8:	0164db33          	srl	s6,s1,s6
80003aec:	00bb6b33          	or	s6,s6,a1
80003af0:	013499b3          	sll	s3,s1,s3
80003af4:	c0d00793          	li	a5,-1011
80003af8:	40a78bb3          	sub	s7,a5,a0
80003afc:	00000913          	li	s2,0
80003b00:	00000c93          	li	s9,0
80003b04:	df9ff06f          	j	800038fc <__divdf3+0x84>
80003b08:	009c6633          	or	a2,s8,s1
80003b0c:	02061063          	bnez	a2,80003b2c <__divdf3+0x2b4>
80003b10:	00000493          	li	s1,0
80003b14:	00200693          	li	a3,2
80003b18:	e29ff06f          	j	80003940 <__divdf3+0xc8>
80003b1c:	00000493          	li	s1,0
80003b20:	00000513          	li	a0,0
80003b24:	00100693          	li	a3,1
80003b28:	e19ff06f          	j	80003940 <__divdf3+0xc8>
80003b2c:	000c0613          	mv	a2,s8
80003b30:	00300693          	li	a3,3
80003b34:	e0dff06f          	j	80003940 <__divdf3+0xc8>
80003b38:	00000993          	li	s3,0
80003b3c:	00400913          	li	s2,4
80003b40:	00000b93          	li	s7,0
80003b44:	00100c93          	li	s9,1
80003b48:	db5ff06f          	j	800038fc <__divdf3+0x84>
80003b4c:	00040b13          	mv	s6,s0
80003b50:	00c00913          	li	s2,12
80003b54:	00078b93          	mv	s7,a5
80003b58:	00300c93          	li	s9,3
80003b5c:	da1ff06f          	j	800038fc <__divdf3+0x84>
80003b60:	001006b7          	lui	a3,0x100
80003b64:	00000713          	li	a4,0
80003b68:	fff68693          	addi	a3,a3,-1 # fffff <_tbss_end+0xfffbb>
80003b6c:	fff00993          	li	s3,-1
80003b70:	7ff00793          	li	a5,2047
80003b74:	e81ff06f          	j	800039f4 <__divdf3+0x17c>
80003b78:	40f585b3          	sub	a1,a1,a5
80003b7c:	03800713          	li	a4,56
80003b80:	48b75263          	ble	a1,a4,80004004 <__divdf3+0x78c>
80003b84:	00187713          	andi	a4,a6,1
80003b88:	00000793          	li	a5,0
80003b8c:	00000693          	li	a3,0
80003b90:	00000993          	li	s3,0
80003b94:	e61ff06f          	j	800039f4 <__divdf3+0x17c>
80003b98:	0964e663          	bltu	s1,s6,80003c24 <__divdf3+0x3ac>
80003b9c:	089b0263          	beq	s6,s1,80003c20 <__divdf3+0x3a8>
80003ba0:	00098793          	mv	a5,s3
80003ba4:	fff50513          	addi	a0,a0,-1
80003ba8:	000b0693          	mv	a3,s6
80003bac:	00000993          	li	s3,0
80003bb0:	0880006f          	j	80003c38 <__divdf3+0x3c0>
80003bb4:	009b64b3          	or	s1,s6,s1
80003bb8:	00c49793          	slli	a5,s1,0xc
80003bbc:	fa07c2e3          	bltz	a5,80003b60 <__divdf3+0x2e8>
80003bc0:	000806b7          	lui	a3,0x80
80003bc4:	001007b7          	lui	a5,0x100
80003bc8:	fff78793          	addi	a5,a5,-1 # fffff <_tbss_end+0xfffbb>
80003bcc:	00db66b3          	or	a3,s6,a3
80003bd0:	00f6f6b3          	and	a3,a3,a5
80003bd4:	000a0713          	mv	a4,s4
80003bd8:	7ff00793          	li	a5,2047
80003bdc:	e19ff06f          	j	800039f4 <__divdf3+0x17c>
80003be0:	fd850593          	addi	a1,a0,-40
80003be4:	00b49b33          	sll	s6,s1,a1
80003be8:	00000993          	li	s3,0
80003bec:	f09ff06f          	j	80003af4 <__divdf3+0x27c>
80003bf0:	6e5000ef          	jal	ra,80004ad4 <__clzsi2>
80003bf4:	02050513          	addi	a0,a0,32
80003bf8:	00c12683          	lw	a3,12(sp)
80003bfc:	ed1ff06f          	j	80003acc <__divdf3+0x254>
80003c00:	fd850493          	addi	s1,a0,-40
80003c04:	009c14b3          	sll	s1,s8,s1
80003c08:	00000613          	li	a2,0
80003c0c:	dcdff06f          	j	800039d8 <__divdf3+0x160>
80003c10:	000c0513          	mv	a0,s8
80003c14:	6c1000ef          	jal	ra,80004ad4 <__clzsi2>
80003c18:	02050513          	addi	a0,a0,32
80003c1c:	d95ff06f          	j	800039b0 <__divdf3+0x138>
80003c20:	f8c9e0e3          	bltu	s3,a2,80003ba0 <__divdf3+0x328>
80003c24:	0019d713          	srli	a4,s3,0x1
80003c28:	01fb1793          	slli	a5,s6,0x1f
80003c2c:	001b5693          	srli	a3,s6,0x1
80003c30:	00e7e7b3          	or	a5,a5,a4
80003c34:	01f99993          	slli	s3,s3,0x1f
80003c38:	01865713          	srli	a4,a2,0x18
80003c3c:	00849493          	slli	s1,s1,0x8
80003c40:	009764b3          	or	s1,a4,s1
80003c44:	0104d893          	srli	a7,s1,0x10
80003c48:	0316de33          	divu	t3,a3,a7
80003c4c:	01049313          	slli	t1,s1,0x10
80003c50:	01035313          	srli	t1,t1,0x10
80003c54:	0107d713          	srli	a4,a5,0x10
80003c58:	00861613          	slli	a2,a2,0x8
80003c5c:	0316f6b3          	remu	a3,a3,a7
80003c60:	03c305b3          	mul	a1,t1,t3
80003c64:	01069693          	slli	a3,a3,0x10
80003c68:	00d76733          	or	a4,a4,a3
80003c6c:	00b77e63          	bleu	a1,a4,80003c88 <__divdf3+0x410>
80003c70:	00970733          	add	a4,a4,s1
80003c74:	fffe0693          	addi	a3,t3,-1
80003c78:	24976e63          	bltu	a4,s1,80003ed4 <__divdf3+0x65c>
80003c7c:	24b77c63          	bleu	a1,a4,80003ed4 <__divdf3+0x65c>
80003c80:	ffee0e13          	addi	t3,t3,-2
80003c84:	00970733          	add	a4,a4,s1
80003c88:	40b70733          	sub	a4,a4,a1
80003c8c:	031756b3          	divu	a3,a4,a7
80003c90:	01079793          	slli	a5,a5,0x10
80003c94:	0107d793          	srli	a5,a5,0x10
80003c98:	03177733          	remu	a4,a4,a7
80003c9c:	02d30eb3          	mul	t4,t1,a3
80003ca0:	01071713          	slli	a4,a4,0x10
80003ca4:	00e7e733          	or	a4,a5,a4
80003ca8:	01d77e63          	bleu	t4,a4,80003cc4 <__divdf3+0x44c>
80003cac:	00970733          	add	a4,a4,s1
80003cb0:	fff68793          	addi	a5,a3,-1 # 7ffff <_tbss_end+0x7ffbb>
80003cb4:	20976c63          	bltu	a4,s1,80003ecc <__divdf3+0x654>
80003cb8:	21d77a63          	bleu	t4,a4,80003ecc <__divdf3+0x654>
80003cbc:	ffe68693          	addi	a3,a3,-2
80003cc0:	00970733          	add	a4,a4,s1
80003cc4:	010e1e13          	slli	t3,t3,0x10
80003cc8:	000103b7          	lui	t2,0x10
80003ccc:	00de6b33          	or	s6,t3,a3
80003cd0:	fff38593          	addi	a1,t2,-1 # ffff <_tbss_end+0xffbb>
80003cd4:	00bb7f33          	and	t5,s6,a1
80003cd8:	010b5f93          	srli	t6,s6,0x10
80003cdc:	01065e13          	srli	t3,a2,0x10
80003ce0:	00b675b3          	and	a1,a2,a1
80003ce4:	02bf86b3          	mul	a3,t6,a1
80003ce8:	41d70eb3          	sub	t4,a4,t4
80003cec:	02bf02b3          	mul	t0,t5,a1
80003cf0:	03ee07b3          	mul	a5,t3,t5
80003cf4:	0102d713          	srli	a4,t0,0x10
80003cf8:	00d787b3          	add	a5,a5,a3
80003cfc:	00f707b3          	add	a5,a4,a5
80003d00:	03cf8fb3          	mul	t6,t6,t3
80003d04:	00d7f463          	bleu	a3,a5,80003d0c <__divdf3+0x494>
80003d08:	007f8fb3          	add	t6,t6,t2
80003d0c:	000106b7          	lui	a3,0x10
80003d10:	fff68693          	addi	a3,a3,-1 # ffff <_tbss_end+0xffbb>
80003d14:	0107d713          	srli	a4,a5,0x10
80003d18:	00d7f7b3          	and	a5,a5,a3
80003d1c:	01079793          	slli	a5,a5,0x10
80003d20:	00d2f2b3          	and	t0,t0,a3
80003d24:	01f70fb3          	add	t6,a4,t6
80003d28:	005787b3          	add	a5,a5,t0
80003d2c:	15feea63          	bltu	t4,t6,80003e80 <__divdf3+0x608>
80003d30:	41fe8733          	sub	a4,t4,t6
80003d34:	15fe8263          	beq	t4,t6,80003e78 <__divdf3+0x600>
80003d38:	40f987b3          	sub	a5,s3,a5
80003d3c:	00f9b9b3          	sltu	s3,s3,a5
80003d40:	41370733          	sub	a4,a4,s3
80003d44:	1ce48463          	beq	s1,a4,80003f0c <__divdf3+0x694>
80003d48:	03175eb3          	divu	t4,a4,a7
80003d4c:	0107d693          	srli	a3,a5,0x10
80003d50:	03177733          	remu	a4,a4,a7
80003d54:	03d30f33          	mul	t5,t1,t4
80003d58:	01071713          	slli	a4,a4,0x10
80003d5c:	00e6e733          	or	a4,a3,a4
80003d60:	01e77e63          	bleu	t5,a4,80003d7c <__divdf3+0x504>
80003d64:	00970733          	add	a4,a4,s1
80003d68:	fffe8693          	addi	a3,t4,-1
80003d6c:	24976463          	bltu	a4,s1,80003fb4 <__divdf3+0x73c>
80003d70:	25e77263          	bleu	t5,a4,80003fb4 <__divdf3+0x73c>
80003d74:	ffee8e93          	addi	t4,t4,-2
80003d78:	00970733          	add	a4,a4,s1
80003d7c:	41e70733          	sub	a4,a4,t5
80003d80:	031759b3          	divu	s3,a4,a7
80003d84:	01079793          	slli	a5,a5,0x10
80003d88:	0107d793          	srli	a5,a5,0x10
80003d8c:	03177733          	remu	a4,a4,a7
80003d90:	03330333          	mul	t1,t1,s3
80003d94:	01071713          	slli	a4,a4,0x10
80003d98:	00e7e7b3          	or	a5,a5,a4
80003d9c:	0067fe63          	bleu	t1,a5,80003db8 <__divdf3+0x540>
80003da0:	009787b3          	add	a5,a5,s1
80003da4:	fff98713          	addi	a4,s3,-1
80003da8:	2097e263          	bltu	a5,s1,80003fac <__divdf3+0x734>
80003dac:	2067f063          	bleu	t1,a5,80003fac <__divdf3+0x734>
80003db0:	ffe98993          	addi	s3,s3,-2
80003db4:	009787b3          	add	a5,a5,s1
80003db8:	010e9e93          	slli	t4,t4,0x10
80003dbc:	013ee9b3          	or	s3,t4,s3
80003dc0:	01099693          	slli	a3,s3,0x10
80003dc4:	0109de93          	srli	t4,s3,0x10
80003dc8:	0106d693          	srli	a3,a3,0x10
80003dcc:	02d588b3          	mul	a7,a1,a3
80003dd0:	406787b3          	sub	a5,a5,t1
80003dd4:	02de06b3          	mul	a3,t3,a3
80003dd8:	0108d713          	srli	a4,a7,0x10
80003ddc:	02be85b3          	mul	a1,t4,a1
80003de0:	00b686b3          	add	a3,a3,a1
80003de4:	00d70733          	add	a4,a4,a3
80003de8:	03de0e33          	mul	t3,t3,t4
80003dec:	00b77663          	bleu	a1,a4,80003df8 <__divdf3+0x580>
80003df0:	000106b7          	lui	a3,0x10
80003df4:	00de0e33          	add	t3,t3,a3
80003df8:	000105b7          	lui	a1,0x10
80003dfc:	fff58593          	addi	a1,a1,-1 # ffff <_tbss_end+0xffbb>
80003e00:	01075693          	srli	a3,a4,0x10
80003e04:	00b77733          	and	a4,a4,a1
80003e08:	01071713          	slli	a4,a4,0x10
80003e0c:	00b8f8b3          	and	a7,a7,a1
80003e10:	01c68e33          	add	t3,a3,t3
80003e14:	01170733          	add	a4,a4,a7
80003e18:	09c7fa63          	bleu	t3,a5,80003eac <__divdf3+0x634>
80003e1c:	00f487b3          	add	a5,s1,a5
80003e20:	fff98693          	addi	a3,s3,-1
80003e24:	1897fc63          	bleu	s1,a5,80003fbc <__divdf3+0x744>
80003e28:	00068993          	mv	s3,a3
80003e2c:	0bc78c63          	beq	a5,t3,80003ee4 <__divdf3+0x66c>
80003e30:	0019e993          	ori	s3,s3,1
80003e34:	3ff50793          	addi	a5,a0,1023
80003e38:	0ef05063          	blez	a5,80003f18 <__divdf3+0x6a0>
80003e3c:	0079f713          	andi	a4,s3,7
80003e40:	14071263          	bnez	a4,80003f84 <__divdf3+0x70c>
80003e44:	007b1713          	slli	a4,s6,0x7
80003e48:	00075a63          	bgez	a4,80003e5c <__divdf3+0x5e4>
80003e4c:	ff0007b7          	lui	a5,0xff000
80003e50:	fff78793          	addi	a5,a5,-1 # feffffff <__global_pointer$+0x7effa807>
80003e54:	00fb7b33          	and	s6,s6,a5
80003e58:	40050793          	addi	a5,a0,1024
80003e5c:	7fe00713          	li	a4,2046
80003e60:	08f75663          	ble	a5,a4,80003eec <__divdf3+0x674>
80003e64:	00187713          	andi	a4,a6,1
80003e68:	7ff00793          	li	a5,2047
80003e6c:	00000693          	li	a3,0
80003e70:	00000993          	li	s3,0
80003e74:	b81ff06f          	j	800039f4 <__divdf3+0x17c>
80003e78:	00000713          	li	a4,0
80003e7c:	eaf9fee3          	bleu	a5,s3,80003d38 <__divdf3+0x4c0>
80003e80:	00c989b3          	add	s3,s3,a2
80003e84:	00c9b6b3          	sltu	a3,s3,a2
80003e88:	009686b3          	add	a3,a3,s1
80003e8c:	01d686b3          	add	a3,a3,t4
80003e90:	fffb0e93          	addi	t4,s6,-1
80003e94:	02d4f263          	bleu	a3,s1,80003eb8 <__divdf3+0x640>
80003e98:	13f6ea63          	bltu	a3,t6,80003fcc <__divdf3+0x754>
80003e9c:	1cdf8e63          	beq	t6,a3,80004078 <__divdf3+0x800>
80003ea0:	41f68733          	sub	a4,a3,t6
80003ea4:	000e8b13          	mv	s6,t4
80003ea8:	e91ff06f          	j	80003d38 <__divdf3+0x4c0>
80003eac:	f9c792e3          	bne	a5,t3,80003e30 <__divdf3+0x5b8>
80003eb0:	f80702e3          	beqz	a4,80003e34 <__divdf3+0x5bc>
80003eb4:	f69ff06f          	j	80003e1c <__divdf3+0x5a4>
80003eb8:	fed494e3          	bne	s1,a3,80003ea0 <__divdf3+0x628>
80003ebc:	fcc9fee3          	bleu	a2,s3,80003e98 <__divdf3+0x620>
80003ec0:	41f48733          	sub	a4,s1,t6
80003ec4:	000e8b13          	mv	s6,t4
80003ec8:	e71ff06f          	j	80003d38 <__divdf3+0x4c0>
80003ecc:	00078693          	mv	a3,a5
80003ed0:	df5ff06f          	j	80003cc4 <__divdf3+0x44c>
80003ed4:	00068e13          	mv	t3,a3
80003ed8:	db1ff06f          	j	80003c88 <__divdf3+0x410>
80003edc:	10e66663          	bltu	a2,a4,80003fe8 <__divdf3+0x770>
80003ee0:	00068993          	mv	s3,a3
80003ee4:	f4c716e3          	bne	a4,a2,80003e30 <__divdf3+0x5b8>
80003ee8:	f4dff06f          	j	80003e34 <__divdf3+0x5bc>
80003eec:	01db1713          	slli	a4,s6,0x1d
80003ef0:	0039d993          	srli	s3,s3,0x3
80003ef4:	009b1693          	slli	a3,s6,0x9
80003ef8:	013769b3          	or	s3,a4,s3
80003efc:	00c6d693          	srli	a3,a3,0xc
80003f00:	7ff7f793          	andi	a5,a5,2047
80003f04:	00187713          	andi	a4,a6,1
80003f08:	aedff06f          	j	800039f4 <__divdf3+0x17c>
80003f0c:	3ff50793          	addi	a5,a0,1023
80003f10:	fff00993          	li	s3,-1
80003f14:	06f04e63          	bgtz	a5,80003f90 <__divdf3+0x718>
80003f18:	00100593          	li	a1,1
80003f1c:	c4079ee3          	bnez	a5,80003b78 <__divdf3+0x300>
80003f20:	02000713          	li	a4,32
80003f24:	40b70733          	sub	a4,a4,a1
80003f28:	00eb17b3          	sll	a5,s6,a4
80003f2c:	00b9d6b3          	srl	a3,s3,a1
80003f30:	00e99733          	sll	a4,s3,a4
80003f34:	00e03733          	snez	a4,a4
80003f38:	00d7e7b3          	or	a5,a5,a3
80003f3c:	00e7e7b3          	or	a5,a5,a4
80003f40:	0077f713          	andi	a4,a5,7
80003f44:	00bb55b3          	srl	a1,s6,a1
80003f48:	02070063          	beqz	a4,80003f68 <__divdf3+0x6f0>
80003f4c:	00f7f713          	andi	a4,a5,15
80003f50:	00400693          	li	a3,4
80003f54:	00d70a63          	beq	a4,a3,80003f68 <__divdf3+0x6f0>
80003f58:	00478713          	addi	a4,a5,4
80003f5c:	00f737b3          	sltu	a5,a4,a5
80003f60:	00f585b3          	add	a1,a1,a5
80003f64:	00070793          	mv	a5,a4
80003f68:	00859713          	slli	a4,a1,0x8
80003f6c:	0e075663          	bgez	a4,80004058 <__divdf3+0x7e0>
80003f70:	00187713          	andi	a4,a6,1
80003f74:	00100793          	li	a5,1
80003f78:	00000693          	li	a3,0
80003f7c:	00000993          	li	s3,0
80003f80:	a75ff06f          	j	800039f4 <__divdf3+0x17c>
80003f84:	00f9f713          	andi	a4,s3,15
80003f88:	00400693          	li	a3,4
80003f8c:	ead70ce3          	beq	a4,a3,80003e44 <__divdf3+0x5cc>
80003f90:	00498713          	addi	a4,s3,4
80003f94:	013739b3          	sltu	s3,a4,s3
80003f98:	013b0b33          	add	s6,s6,s3
80003f9c:	00070993          	mv	s3,a4
80003fa0:	ea5ff06f          	j	80003e44 <__divdf3+0x5cc>
80003fa4:	000a8813          	mv	a6,s5
80003fa8:	e8dff06f          	j	80003e34 <__divdf3+0x5bc>
80003fac:	00070993          	mv	s3,a4
80003fb0:	e09ff06f          	j	80003db8 <__divdf3+0x540>
80003fb4:	00068e93          	mv	t4,a3
80003fb8:	dc5ff06f          	j	80003d7c <__divdf3+0x504>
80003fbc:	03c7e663          	bltu	a5,t3,80003fe8 <__divdf3+0x770>
80003fc0:	f0fe0ee3          	beq	t3,a5,80003edc <__divdf3+0x664>
80003fc4:	00068993          	mv	s3,a3
80003fc8:	e69ff06f          	j	80003e30 <__divdf3+0x5b8>
80003fcc:	00c989b3          	add	s3,s3,a2
80003fd0:	00c9b733          	sltu	a4,s3,a2
80003fd4:	00970733          	add	a4,a4,s1
80003fd8:	00d70733          	add	a4,a4,a3
80003fdc:	ffeb0b13          	addi	s6,s6,-2
80003fe0:	41f70733          	sub	a4,a4,t6
80003fe4:	d55ff06f          	j	80003d38 <__divdf3+0x4c0>
80003fe8:	00161593          	slli	a1,a2,0x1
80003fec:	00c5b633          	sltu	a2,a1,a2
80003ff0:	009604b3          	add	s1,a2,s1
80003ff4:	ffe98693          	addi	a3,s3,-2
80003ff8:	009787b3          	add	a5,a5,s1
80003ffc:	00058613          	mv	a2,a1
80004000:	e29ff06f          	j	80003e28 <__divdf3+0x5b0>
80004004:	01f00713          	li	a4,31
80004008:	f0b75ce3          	ble	a1,a4,80003f20 <__divdf3+0x6a8>
8000400c:	fe100713          	li	a4,-31
80004010:	40f707b3          	sub	a5,a4,a5
80004014:	02000693          	li	a3,32
80004018:	00fb57b3          	srl	a5,s6,a5
8000401c:	00000713          	li	a4,0
80004020:	00d58863          	beq	a1,a3,80004030 <__divdf3+0x7b8>
80004024:	04000713          	li	a4,64
80004028:	40b705b3          	sub	a1,a4,a1
8000402c:	00bb1733          	sll	a4,s6,a1
80004030:	01376733          	or	a4,a4,s3
80004034:	00e03733          	snez	a4,a4
80004038:	00e7e7b3          	or	a5,a5,a4
8000403c:	0077f593          	andi	a1,a5,7
80004040:	00000693          	li	a3,0
80004044:	02058063          	beqz	a1,80004064 <__divdf3+0x7ec>
80004048:	00f7f713          	andi	a4,a5,15
8000404c:	00400693          	li	a3,4
80004050:	00000593          	li	a1,0
80004054:	f0d712e3          	bne	a4,a3,80003f58 <__divdf3+0x6e0>
80004058:	00959693          	slli	a3,a1,0x9
8000405c:	00c6d693          	srli	a3,a3,0xc
80004060:	01d59593          	slli	a1,a1,0x1d
80004064:	0037d793          	srli	a5,a5,0x3
80004068:	00b7e9b3          	or	s3,a5,a1
8000406c:	00187713          	andi	a4,a6,1
80004070:	00000793          	li	a5,0
80004074:	981ff06f          	j	800039f4 <__divdf3+0x17c>
80004078:	f4f9eae3          	bltu	s3,a5,80003fcc <__divdf3+0x754>
8000407c:	000e8b13          	mv	s6,t4
80004080:	00000713          	li	a4,0
80004084:	cb5ff06f          	j	80003d38 <__divdf3+0x4c0>
80004088:	000a8713          	mv	a4,s5
8000408c:	7ff00793          	li	a5,2047
80004090:	00000693          	li	a3,0
80004094:	00000993          	li	s3,0
80004098:	95dff06f          	j	800039f4 <__divdf3+0x17c>
8000409c:	000807b7          	lui	a5,0x80
800040a0:	00fb66b3          	or	a3,s6,a5
800040a4:	001007b7          	lui	a5,0x100
800040a8:	fff78793          	addi	a5,a5,-1 # fffff <_tbss_end+0xfffbb>
800040ac:	00f6f6b3          	and	a3,a3,a5
800040b0:	000a8713          	mv	a4,s5
800040b4:	7ff00793          	li	a5,2047
800040b8:	93dff06f          	j	800039f4 <__divdf3+0x17c>

800040bc <__muldf3>:
800040bc:	fc010113          	addi	sp,sp,-64
800040c0:	02812c23          	sw	s0,56(sp)
800040c4:	0145d793          	srli	a5,a1,0x14
800040c8:	00100437          	lui	s0,0x100
800040cc:	03212823          	sw	s2,48(sp)
800040d0:	03312623          	sw	s3,44(sp)
800040d4:	01712e23          	sw	s7,28(sp)
800040d8:	fff40413          	addi	s0,s0,-1 # fffff <_tbss_end+0xfffbb>
800040dc:	02112e23          	sw	ra,60(sp)
800040e0:	02912a23          	sw	s1,52(sp)
800040e4:	03412423          	sw	s4,40(sp)
800040e8:	03512223          	sw	s5,36(sp)
800040ec:	03612023          	sw	s6,32(sp)
800040f0:	01812c23          	sw	s8,24(sp)
800040f4:	7ff7f793          	andi	a5,a5,2047
800040f8:	00060b93          	mv	s7,a2
800040fc:	00050913          	mv	s2,a0
80004100:	0085f433          	and	s0,a1,s0
80004104:	01f5d993          	srli	s3,a1,0x1f
80004108:	1e078063          	beqz	a5,800042e8 <__muldf3+0x22c>
8000410c:	7ff00713          	li	a4,2047
80004110:	08e78e63          	beq	a5,a4,800041ac <__muldf3+0xf0>
80004114:	01d55713          	srli	a4,a0,0x1d
80004118:	00800637          	lui	a2,0x800
8000411c:	00341413          	slli	s0,s0,0x3
80004120:	00c76733          	or	a4,a4,a2
80004124:	00876433          	or	s0,a4,s0
80004128:	00351b13          	slli	s6,a0,0x3
8000412c:	c0178a93          	addi	s5,a5,-1023
80004130:	00000913          	li	s2,0
80004134:	00000c13          	li	s8,0
80004138:	0146d513          	srli	a0,a3,0x14
8000413c:	001004b7          	lui	s1,0x100
80004140:	fff48493          	addi	s1,s1,-1 # fffff <_tbss_end+0xfffbb>
80004144:	7ff57513          	andi	a0,a0,2047
80004148:	0096f4b3          	and	s1,a3,s1
8000414c:	01f6da13          	srli	s4,a3,0x1f
80004150:	08050863          	beqz	a0,800041e0 <__muldf3+0x124>
80004154:	7ff00793          	li	a5,2047
80004158:	1ef50463          	beq	a0,a5,80004340 <__muldf3+0x284>
8000415c:	00800737          	lui	a4,0x800
80004160:	01dbd793          	srli	a5,s7,0x1d
80004164:	00e7e7b3          	or	a5,a5,a4
80004168:	00349493          	slli	s1,s1,0x3
8000416c:	0097e4b3          	or	s1,a5,s1
80004170:	003b9713          	slli	a4,s7,0x3
80004174:	c0150513          	addi	a0,a0,-1023
80004178:	00000613          	li	a2,0
8000417c:	00aa8533          	add	a0,s5,a0
80004180:	012667b3          	or	a5,a2,s2
80004184:	00f00693          	li	a3,15
80004188:	0149c5b3          	xor	a1,s3,s4
8000418c:	00150813          	addi	a6,a0,1
80004190:	22f6e863          	bltu	a3,a5,800043c0 <__muldf3+0x304>
80004194:	800056b7          	lui	a3,0x80005
80004198:	00279793          	slli	a5,a5,0x2
8000419c:	36068693          	addi	a3,a3,864 # 80005360 <__global_pointer$+0xfffffb68>
800041a0:	00d787b3          	add	a5,a5,a3
800041a4:	0007a783          	lw	a5,0(a5)
800041a8:	00078067          	jr	a5
800041ac:	00856b33          	or	s6,a0,s0
800041b0:	1a0b1c63          	bnez	s6,80004368 <__muldf3+0x2ac>
800041b4:	0146d513          	srli	a0,a3,0x14
800041b8:	001004b7          	lui	s1,0x100
800041bc:	fff48493          	addi	s1,s1,-1 # fffff <_tbss_end+0xfffbb>
800041c0:	7ff57513          	andi	a0,a0,2047
800041c4:	00000413          	li	s0,0
800041c8:	00800913          	li	s2,8
800041cc:	00078a93          	mv	s5,a5
800041d0:	00200c13          	li	s8,2
800041d4:	0096f4b3          	and	s1,a3,s1
800041d8:	01f6da13          	srli	s4,a3,0x1f
800041dc:	f6051ce3          	bnez	a0,80004154 <__muldf3+0x98>
800041e0:	009be733          	or	a4,s7,s1
800041e4:	18070c63          	beqz	a4,8000437c <__muldf3+0x2c0>
800041e8:	44048863          	beqz	s1,80004638 <__muldf3+0x57c>
800041ec:	00048513          	mv	a0,s1
800041f0:	0e5000ef          	jal	ra,80004ad4 <__clzsi2>
800041f4:	ff550693          	addi	a3,a0,-11
800041f8:	01c00793          	li	a5,28
800041fc:	42d7c663          	blt	a5,a3,80004628 <__muldf3+0x56c>
80004200:	01d00793          	li	a5,29
80004204:	ff850713          	addi	a4,a0,-8
80004208:	40d787b3          	sub	a5,a5,a3
8000420c:	00e494b3          	sll	s1,s1,a4
80004210:	00fbd7b3          	srl	a5,s7,a5
80004214:	0097e4b3          	or	s1,a5,s1
80004218:	00eb9733          	sll	a4,s7,a4
8000421c:	c0d00793          	li	a5,-1011
80004220:	40a78533          	sub	a0,a5,a0
80004224:	00000613          	li	a2,0
80004228:	f55ff06f          	j	8000417c <__muldf3+0xc0>
8000422c:	000a0593          	mv	a1,s4
80004230:	00200793          	li	a5,2
80004234:	12f60063          	beq	a2,a5,80004354 <__muldf3+0x298>
80004238:	00300793          	li	a5,3
8000423c:	52f60e63          	beq	a2,a5,80004778 <__muldf3+0x6bc>
80004240:	00100793          	li	a5,1
80004244:	48f61863          	bne	a2,a5,800046d4 <__muldf3+0x618>
80004248:	00f5f9b3          	and	s3,a1,a5
8000424c:	00000413          	li	s0,0
80004250:	00000793          	li	a5,0
80004254:	00000b13          	li	s6,0
80004258:	001004b7          	lui	s1,0x100
8000425c:	00000593          	li	a1,0
80004260:	fff48493          	addi	s1,s1,-1 # fffff <_tbss_end+0xfffbb>
80004264:	fff00737          	lui	a4,0xfff00
80004268:	00b77733          	and	a4,a4,a1
8000426c:	00947433          	and	s0,s0,s1
80004270:	00876433          	or	s0,a4,s0
80004274:	01479713          	slli	a4,a5,0x14
80004278:	801007b7          	lui	a5,0x80100
8000427c:	fff78793          	addi	a5,a5,-1 # 800fffff <__global_pointer$+0xfa807>
80004280:	00f477b3          	and	a5,s0,a5
80004284:	00e7e7b3          	or	a5,a5,a4
80004288:	03c12083          	lw	ra,60(sp)
8000428c:	80000737          	lui	a4,0x80000
80004290:	fff74713          	not	a4,a4
80004294:	01f99993          	slli	s3,s3,0x1f
80004298:	00e7f7b3          	and	a5,a5,a4
8000429c:	000b0513          	mv	a0,s6
800042a0:	0137e5b3          	or	a1,a5,s3
800042a4:	03812403          	lw	s0,56(sp)
800042a8:	03412483          	lw	s1,52(sp)
800042ac:	03012903          	lw	s2,48(sp)
800042b0:	02c12983          	lw	s3,44(sp)
800042b4:	02812a03          	lw	s4,40(sp)
800042b8:	02412a83          	lw	s5,36(sp)
800042bc:	02012b03          	lw	s6,32(sp)
800042c0:	01c12b83          	lw	s7,28(sp)
800042c4:	01812c03          	lw	s8,24(sp)
800042c8:	04010113          	addi	sp,sp,64
800042cc:	00008067          	ret
800042d0:	00100437          	lui	s0,0x100
800042d4:	00000993          	li	s3,0
800042d8:	fff40413          	addi	s0,s0,-1 # fffff <_tbss_end+0xfffbb>
800042dc:	fff00b13          	li	s6,-1
800042e0:	7ff00793          	li	a5,2047
800042e4:	f75ff06f          	j	80004258 <__muldf3+0x19c>
800042e8:	00856b33          	or	s6,a0,s0
800042ec:	0a0b0663          	beqz	s6,80004398 <__muldf3+0x2dc>
800042f0:	00d12623          	sw	a3,12(sp)
800042f4:	36040263          	beqz	s0,80004658 <__muldf3+0x59c>
800042f8:	00040513          	mv	a0,s0
800042fc:	7d8000ef          	jal	ra,80004ad4 <__clzsi2>
80004300:	00c12683          	lw	a3,12(sp)
80004304:	ff550713          	addi	a4,a0,-11
80004308:	01c00793          	li	a5,28
8000430c:	32e7ce63          	blt	a5,a4,80004648 <__muldf3+0x58c>
80004310:	01d00793          	li	a5,29
80004314:	ff850493          	addi	s1,a0,-8
80004318:	40e787b3          	sub	a5,a5,a4
8000431c:	00941433          	sll	s0,s0,s1
80004320:	00f957b3          	srl	a5,s2,a5
80004324:	0087e433          	or	s0,a5,s0
80004328:	00991b33          	sll	s6,s2,s1
8000432c:	c0d00793          	li	a5,-1011
80004330:	40a78ab3          	sub	s5,a5,a0
80004334:	00000913          	li	s2,0
80004338:	00000c13          	li	s8,0
8000433c:	dfdff06f          	j	80004138 <__muldf3+0x7c>
80004340:	009be733          	or	a4,s7,s1
80004344:	04071463          	bnez	a4,8000438c <__muldf3+0x2d0>
80004348:	00000493          	li	s1,0
8000434c:	00200613          	li	a2,2
80004350:	e2dff06f          	j	8000417c <__muldf3+0xc0>
80004354:	0015f993          	andi	s3,a1,1
80004358:	7ff00793          	li	a5,2047
8000435c:	00000413          	li	s0,0
80004360:	00000b13          	li	s6,0
80004364:	ef5ff06f          	j	80004258 <__muldf3+0x19c>
80004368:	00050b13          	mv	s6,a0
8000436c:	00c00913          	li	s2,12
80004370:	00078a93          	mv	s5,a5
80004374:	00300c13          	li	s8,3
80004378:	dc1ff06f          	j	80004138 <__muldf3+0x7c>
8000437c:	00000493          	li	s1,0
80004380:	00000513          	li	a0,0
80004384:	00100613          	li	a2,1
80004388:	df5ff06f          	j	8000417c <__muldf3+0xc0>
8000438c:	000b8713          	mv	a4,s7
80004390:	00300613          	li	a2,3
80004394:	de9ff06f          	j	8000417c <__muldf3+0xc0>
80004398:	00000413          	li	s0,0
8000439c:	00400913          	li	s2,4
800043a0:	00000a93          	li	s5,0
800043a4:	00100c13          	li	s8,1
800043a8:	d91ff06f          	j	80004138 <__muldf3+0x7c>
800043ac:	00040493          	mv	s1,s0
800043b0:	000b0713          	mv	a4,s6
800043b4:	00098593          	mv	a1,s3
800043b8:	000c0613          	mv	a2,s8
800043bc:	e75ff06f          	j	80004230 <__muldf3+0x174>
800043c0:	00010337          	lui	t1,0x10
800043c4:	fff30793          	addi	a5,t1,-1 # ffff <_tbss_end+0xffbb>
800043c8:	010b5693          	srli	a3,s6,0x10
800043cc:	01075293          	srli	t0,a4,0x10
800043d0:	00fb7b33          	and	s6,s6,a5
800043d4:	00f77733          	and	a4,a4,a5
800043d8:	02eb07b3          	mul	a5,s6,a4
800043dc:	02e688b3          	mul	a7,a3,a4
800043e0:	0107de93          	srli	t4,a5,0x10
800043e4:	03628633          	mul	a2,t0,s6
800043e8:	01160633          	add	a2,a2,a7
800043ec:	00ce8eb3          	add	t4,t4,a2
800043f0:	02568633          	mul	a2,a3,t0
800043f4:	011ef463          	bleu	a7,t4,800043fc <__muldf3+0x340>
800043f8:	00660633          	add	a2,a2,t1
800043fc:	00010fb7          	lui	t6,0x10
80004400:	ffff8313          	addi	t1,t6,-1 # ffff <_tbss_end+0xffbb>
80004404:	0104df13          	srli	t5,s1,0x10
80004408:	0064f4b3          	and	s1,s1,t1
8000440c:	006ef8b3          	and	a7,t4,t1
80004410:	0067f7b3          	and	a5,a5,t1
80004414:	01089893          	slli	a7,a7,0x10
80004418:	029b0e33          	mul	t3,s6,s1
8000441c:	00f888b3          	add	a7,a7,a5
80004420:	010ede93          	srli	t4,t4,0x10
80004424:	02968333          	mul	t1,a3,s1
80004428:	010e5793          	srli	a5,t3,0x10
8000442c:	036f0b33          	mul	s6,t5,s6
80004430:	006b0b33          	add	s6,s6,t1
80004434:	01678b33          	add	s6,a5,s6
80004438:	03e687b3          	mul	a5,a3,t5
8000443c:	006b7463          	bleu	t1,s6,80004444 <__muldf3+0x388>
80004440:	01f787b3          	add	a5,a5,t6
80004444:	000106b7          	lui	a3,0x10
80004448:	fff68393          	addi	t2,a3,-1 # ffff <_tbss_end+0xffbb>
8000444c:	01045f93          	srli	t6,s0,0x10
80004450:	00747433          	and	s0,s0,t2
80004454:	007b7333          	and	t1,s6,t2
80004458:	007e7e33          	and	t3,t3,t2
8000445c:	01031313          	slli	t1,t1,0x10
80004460:	02e403b3          	mul	t2,s0,a4
80004464:	01c30333          	add	t1,t1,t3
80004468:	010b5b13          	srli	s6,s6,0x10
8000446c:	00fb07b3          	add	a5,s6,a5
80004470:	006e8eb3          	add	t4,t4,t1
80004474:	02828933          	mul	s2,t0,s0
80004478:	0103de13          	srli	t3,t2,0x10
8000447c:	02ef8733          	mul	a4,t6,a4
80004480:	00e90933          	add	s2,s2,a4
80004484:	012e0e33          	add	t3,t3,s2
80004488:	03f282b3          	mul	t0,t0,t6
8000448c:	00ee7463          	bleu	a4,t3,80004494 <__muldf3+0x3d8>
80004490:	00d282b3          	add	t0,t0,a3
80004494:	00010937          	lui	s2,0x10
80004498:	fff90713          	addi	a4,s2,-1 # ffff <_tbss_end+0xffbb>
8000449c:	00ee76b3          	and	a3,t3,a4
800044a0:	010e5e13          	srli	t3,t3,0x10
800044a4:	00e3f3b3          	and	t2,t2,a4
800044a8:	005e0e33          	add	t3,t3,t0
800044ac:	01069693          	slli	a3,a3,0x10
800044b0:	029402b3          	mul	t0,s0,s1
800044b4:	007686b3          	add	a3,a3,t2
800044b8:	029f8733          	mul	a4,t6,s1
800044bc:	0102d493          	srli	s1,t0,0x10
800044c0:	028f0433          	mul	s0,t5,s0
800044c4:	00e40433          	add	s0,s0,a4
800044c8:	00848433          	add	s0,s1,s0
800044cc:	03ff0f33          	mul	t5,t5,t6
800044d0:	00e47463          	bleu	a4,s0,800044d8 <__muldf3+0x41c>
800044d4:	012f0f33          	add	t5,t5,s2
800044d8:	00010737          	lui	a4,0x10
800044dc:	fff70713          	addi	a4,a4,-1 # ffff <_tbss_end+0xffbb>
800044e0:	00e474b3          	and	s1,s0,a4
800044e4:	00e2f2b3          	and	t0,t0,a4
800044e8:	01049493          	slli	s1,s1,0x10
800044ec:	01d60633          	add	a2,a2,t4
800044f0:	005484b3          	add	s1,s1,t0
800044f4:	00663333          	sltu	t1,a2,t1
800044f8:	00f484b3          	add	s1,s1,a5
800044fc:	00c68633          	add	a2,a3,a2
80004500:	00930fb3          	add	t6,t1,s1
80004504:	00d636b3          	sltu	a3,a2,a3
80004508:	01fe0733          	add	a4,t3,t6
8000450c:	00e68eb3          	add	t4,a3,a4
80004510:	00f4b7b3          	sltu	a5,s1,a5
80004514:	006fb4b3          	sltu	s1,t6,t1
80004518:	0097e4b3          	or	s1,a5,s1
8000451c:	01c73e33          	sltu	t3,a4,t3
80004520:	00deb6b3          	sltu	a3,t4,a3
80004524:	01045413          	srli	s0,s0,0x10
80004528:	008484b3          	add	s1,s1,s0
8000452c:	00de66b3          	or	a3,t3,a3
80004530:	00d484b3          	add	s1,s1,a3
80004534:	00961713          	slli	a4,a2,0x9
80004538:	01e484b3          	add	s1,s1,t5
8000453c:	017ed793          	srli	a5,t4,0x17
80004540:	01176733          	or	a4,a4,a7
80004544:	00949493          	slli	s1,s1,0x9
80004548:	00e03733          	snez	a4,a4
8000454c:	01765613          	srli	a2,a2,0x17
80004550:	00f4e4b3          	or	s1,s1,a5
80004554:	00c76733          	or	a4,a4,a2
80004558:	009e9e93          	slli	t4,t4,0x9
8000455c:	00749793          	slli	a5,s1,0x7
80004560:	01d76733          	or	a4,a4,t4
80004564:	0207d063          	bgez	a5,80004584 <__muldf3+0x4c8>
80004568:	00175793          	srli	a5,a4,0x1
8000456c:	00177713          	andi	a4,a4,1
80004570:	01f49693          	slli	a3,s1,0x1f
80004574:	00e7e733          	or	a4,a5,a4
80004578:	00d76733          	or	a4,a4,a3
8000457c:	0014d493          	srli	s1,s1,0x1
80004580:	00080513          	mv	a0,a6
80004584:	3ff50793          	addi	a5,a0,1023
80004588:	0ef05063          	blez	a5,80004668 <__muldf3+0x5ac>
8000458c:	00777693          	andi	a3,a4,7
80004590:	02068063          	beqz	a3,800045b0 <__muldf3+0x4f4>
80004594:	00f77693          	andi	a3,a4,15
80004598:	00400613          	li	a2,4
8000459c:	00c68a63          	beq	a3,a2,800045b0 <__muldf3+0x4f4>
800045a0:	00c706b3          	add	a3,a4,a2
800045a4:	00e6b733          	sltu	a4,a3,a4
800045a8:	00e484b3          	add	s1,s1,a4
800045ac:	00068713          	mv	a4,a3
800045b0:	00749693          	slli	a3,s1,0x7
800045b4:	0006da63          	bgez	a3,800045c8 <__muldf3+0x50c>
800045b8:	ff0007b7          	lui	a5,0xff000
800045bc:	fff78793          	addi	a5,a5,-1 # feffffff <__global_pointer$+0x7effa807>
800045c0:	00f4f4b3          	and	s1,s1,a5
800045c4:	40050793          	addi	a5,a0,1024
800045c8:	7fe00693          	li	a3,2046
800045cc:	d8f6c4e3          	blt	a3,a5,80004354 <__muldf3+0x298>
800045d0:	01d49b13          	slli	s6,s1,0x1d
800045d4:	00375713          	srli	a4,a4,0x3
800045d8:	00949493          	slli	s1,s1,0x9
800045dc:	00eb6b33          	or	s6,s6,a4
800045e0:	00c4d413          	srli	s0,s1,0xc
800045e4:	7ff7f793          	andi	a5,a5,2047
800045e8:	0015f993          	andi	s3,a1,1
800045ec:	c6dff06f          	j	80004258 <__muldf3+0x19c>
800045f0:	00040493          	mv	s1,s0
800045f4:	000b0713          	mv	a4,s6
800045f8:	000c0613          	mv	a2,s8
800045fc:	c35ff06f          	j	80004230 <__muldf3+0x174>
80004600:	009464b3          	or	s1,s0,s1
80004604:	00c49793          	slli	a5,s1,0xc
80004608:	cc07c4e3          	bltz	a5,800042d0 <__muldf3+0x214>
8000460c:	000804b7          	lui	s1,0x80
80004610:	001007b7          	lui	a5,0x100
80004614:	fff78793          	addi	a5,a5,-1 # fffff <_tbss_end+0xfffbb>
80004618:	00946433          	or	s0,s0,s1
8000461c:	00f47433          	and	s0,s0,a5
80004620:	7ff00793          	li	a5,2047
80004624:	c35ff06f          	j	80004258 <__muldf3+0x19c>
80004628:	fd850493          	addi	s1,a0,-40
8000462c:	009b94b3          	sll	s1,s7,s1
80004630:	00000713          	li	a4,0
80004634:	be9ff06f          	j	8000421c <__muldf3+0x160>
80004638:	000b8513          	mv	a0,s7
8000463c:	498000ef          	jal	ra,80004ad4 <__clzsi2>
80004640:	02050513          	addi	a0,a0,32
80004644:	bb1ff06f          	j	800041f4 <__muldf3+0x138>
80004648:	fd850413          	addi	s0,a0,-40
8000464c:	00891433          	sll	s0,s2,s0
80004650:	00000b13          	li	s6,0
80004654:	cd9ff06f          	j	8000432c <__muldf3+0x270>
80004658:	47c000ef          	jal	ra,80004ad4 <__clzsi2>
8000465c:	02050513          	addi	a0,a0,32
80004660:	00c12683          	lw	a3,12(sp)
80004664:	ca1ff06f          	j	80004304 <__muldf3+0x248>
80004668:	00100613          	li	a2,1
8000466c:	06079863          	bnez	a5,800046dc <__muldf3+0x620>
80004670:	02000793          	li	a5,32
80004674:	40c787b3          	sub	a5,a5,a2
80004678:	00f496b3          	sll	a3,s1,a5
8000467c:	00c75533          	srl	a0,a4,a2
80004680:	00f717b3          	sll	a5,a4,a5
80004684:	00f037b3          	snez	a5,a5
80004688:	00a6e733          	or	a4,a3,a0
8000468c:	00f76733          	or	a4,a4,a5
80004690:	00777793          	andi	a5,a4,7
80004694:	00c4d4b3          	srl	s1,s1,a2
80004698:	02078063          	beqz	a5,800046b8 <__muldf3+0x5fc>
8000469c:	00f77793          	andi	a5,a4,15
800046a0:	00400693          	li	a3,4
800046a4:	00d78a63          	beq	a5,a3,800046b8 <__muldf3+0x5fc>
800046a8:	00070793          	mv	a5,a4
800046ac:	00478713          	addi	a4,a5,4
800046b0:	00f737b3          	sltu	a5,a4,a5
800046b4:	00f484b3          	add	s1,s1,a5
800046b8:	00849793          	slli	a5,s1,0x8
800046bc:	0807dc63          	bgez	a5,80004754 <__muldf3+0x698>
800046c0:	0015f993          	andi	s3,a1,1
800046c4:	00100793          	li	a5,1
800046c8:	00000413          	li	s0,0
800046cc:	00000b13          	li	s6,0
800046d0:	b89ff06f          	j	80004258 <__muldf3+0x19c>
800046d4:	00080513          	mv	a0,a6
800046d8:	eadff06f          	j	80004584 <__muldf3+0x4c8>
800046dc:	40f60633          	sub	a2,a2,a5
800046e0:	03800693          	li	a3,56
800046e4:	00c6dc63          	ble	a2,a3,800046fc <__muldf3+0x640>
800046e8:	0015f993          	andi	s3,a1,1
800046ec:	00000793          	li	a5,0
800046f0:	00000413          	li	s0,0
800046f4:	00000b13          	li	s6,0
800046f8:	b61ff06f          	j	80004258 <__muldf3+0x19c>
800046fc:	01f00693          	li	a3,31
80004700:	f6c6d8e3          	ble	a2,a3,80004670 <__muldf3+0x5b4>
80004704:	fe100693          	li	a3,-31
80004708:	40f687b3          	sub	a5,a3,a5
8000470c:	02000513          	li	a0,32
80004710:	00f4d7b3          	srl	a5,s1,a5
80004714:	00000693          	li	a3,0
80004718:	00a60863          	beq	a2,a0,80004728 <__muldf3+0x66c>
8000471c:	04000693          	li	a3,64
80004720:	40c686b3          	sub	a3,a3,a2
80004724:	00d496b3          	sll	a3,s1,a3
80004728:	00e6e733          	or	a4,a3,a4
8000472c:	00e03733          	snez	a4,a4
80004730:	00e7e7b3          	or	a5,a5,a4
80004734:	0077f493          	andi	s1,a5,7
80004738:	00000413          	li	s0,0
8000473c:	02048463          	beqz	s1,80004764 <__muldf3+0x6a8>
80004740:	00f7f713          	andi	a4,a5,15
80004744:	00400693          	li	a3,4
80004748:	00000493          	li	s1,0
8000474c:	f6d710e3          	bne	a4,a3,800046ac <__muldf3+0x5f0>
80004750:	00078713          	mv	a4,a5
80004754:	00949413          	slli	s0,s1,0x9
80004758:	00c45413          	srli	s0,s0,0xc
8000475c:	01d49493          	slli	s1,s1,0x1d
80004760:	00070793          	mv	a5,a4
80004764:	0037d793          	srli	a5,a5,0x3
80004768:	0097eb33          	or	s6,a5,s1
8000476c:	0015f993          	andi	s3,a1,1
80004770:	00000793          	li	a5,0
80004774:	ae5ff06f          	j	80004258 <__muldf3+0x19c>
80004778:	00080437          	lui	s0,0x80
8000477c:	001007b7          	lui	a5,0x100
80004780:	fff78793          	addi	a5,a5,-1 # fffff <_tbss_end+0xfffbb>
80004784:	0084e433          	or	s0,s1,s0
80004788:	00f47433          	and	s0,s0,a5
8000478c:	0015f993          	andi	s3,a1,1
80004790:	00070b13          	mv	s6,a4
80004794:	7ff00793          	li	a5,2047
80004798:	ac1ff06f          	j	80004258 <__muldf3+0x19c>

8000479c <__extendsfdf2>:
8000479c:	01755793          	srli	a5,a0,0x17
800047a0:	ff010113          	addi	sp,sp,-16
800047a4:	0ff7f793          	andi	a5,a5,255
800047a8:	00812423          	sw	s0,8(sp)
800047ac:	00178713          	addi	a4,a5,1
800047b0:	00800437          	lui	s0,0x800
800047b4:	00912223          	sw	s1,4(sp)
800047b8:	fff40413          	addi	s0,s0,-1 # 7fffff <_tbss_end+0x7fffbb>
800047bc:	00112623          	sw	ra,12(sp)
800047c0:	0ff77713          	andi	a4,a4,255
800047c4:	00100693          	li	a3,1
800047c8:	00857433          	and	s0,a0,s0
800047cc:	01f55493          	srli	s1,a0,0x1f
800047d0:	06e6de63          	ble	a4,a3,8000484c <__extendsfdf2+0xb0>
800047d4:	001006b7          	lui	a3,0x100
800047d8:	00345713          	srli	a4,s0,0x3
800047dc:	fff68693          	addi	a3,a3,-1 # fffff <_tbss_end+0xfffbb>
800047e0:	00d77733          	and	a4,a4,a3
800047e4:	01d41413          	slli	s0,s0,0x1d
800047e8:	38078793          	addi	a5,a5,896
800047ec:	00100637          	lui	a2,0x100
800047f0:	00000593          	li	a1,0
800047f4:	fff006b7          	lui	a3,0xfff00
800047f8:	fff60613          	addi	a2,a2,-1 # fffff <_tbss_end+0xfffbb>
800047fc:	00b6f6b3          	and	a3,a3,a1
80004800:	00c77733          	and	a4,a4,a2
80004804:	00e6e6b3          	or	a3,a3,a4
80004808:	80100737          	lui	a4,0x80100
8000480c:	7ff7f793          	andi	a5,a5,2047
80004810:	fff70713          	addi	a4,a4,-1 # 800fffff <__global_pointer$+0xfa807>
80004814:	00e6f733          	and	a4,a3,a4
80004818:	01479793          	slli	a5,a5,0x14
8000481c:	00f767b3          	or	a5,a4,a5
80004820:	00c12083          	lw	ra,12(sp)
80004824:	80000737          	lui	a4,0x80000
80004828:	fff74713          	not	a4,a4
8000482c:	01f49493          	slli	s1,s1,0x1f
80004830:	00e7f7b3          	and	a5,a5,a4
80004834:	00040513          	mv	a0,s0
80004838:	0097e5b3          	or	a1,a5,s1
8000483c:	00812403          	lw	s0,8(sp)
80004840:	00412483          	lw	s1,4(sp)
80004844:	01010113          	addi	sp,sp,16
80004848:	00008067          	ret
8000484c:	04079463          	bnez	a5,80004894 <__extendsfdf2+0xf8>
80004850:	06040863          	beqz	s0,800048c0 <__extendsfdf2+0x124>
80004854:	00040513          	mv	a0,s0
80004858:	27c000ef          	jal	ra,80004ad4 <__clzsi2>
8000485c:	00a00793          	li	a5,10
80004860:	06a7c663          	blt	a5,a0,800048cc <__extendsfdf2+0x130>
80004864:	00b00713          	li	a4,11
80004868:	40a70733          	sub	a4,a4,a0
8000486c:	01550793          	addi	a5,a0,21
80004870:	00e45733          	srl	a4,s0,a4
80004874:	00f41433          	sll	s0,s0,a5
80004878:	38900793          	li	a5,905
8000487c:	001006b7          	lui	a3,0x100
80004880:	40a787b3          	sub	a5,a5,a0
80004884:	fff68693          	addi	a3,a3,-1 # fffff <_tbss_end+0xfffbb>
80004888:	00d77733          	and	a4,a4,a3
8000488c:	7ff7f793          	andi	a5,a5,2047
80004890:	f5dff06f          	j	800047ec <__extendsfdf2+0x50>
80004894:	7ff00793          	li	a5,2047
80004898:	00000713          	li	a4,0
8000489c:	f40408e3          	beqz	s0,800047ec <__extendsfdf2+0x50>
800048a0:	00345713          	srli	a4,s0,0x3
800048a4:	000806b7          	lui	a3,0x80
800048a8:	00d76733          	or	a4,a4,a3
800048ac:	001006b7          	lui	a3,0x100
800048b0:	fff68693          	addi	a3,a3,-1 # fffff <_tbss_end+0xfffbb>
800048b4:	01d41413          	slli	s0,s0,0x1d
800048b8:	00d77733          	and	a4,a4,a3
800048bc:	f31ff06f          	j	800047ec <__extendsfdf2+0x50>
800048c0:	00000793          	li	a5,0
800048c4:	00000713          	li	a4,0
800048c8:	f25ff06f          	j	800047ec <__extendsfdf2+0x50>
800048cc:	ff550713          	addi	a4,a0,-11
800048d0:	00e41733          	sll	a4,s0,a4
800048d4:	00000413          	li	s0,0
800048d8:	fa1ff06f          	j	80004878 <__extendsfdf2+0xdc>

800048dc <__truncdfsf2>:
800048dc:	0145d693          	srli	a3,a1,0x14
800048e0:	001007b7          	lui	a5,0x100
800048e4:	7ff6f693          	andi	a3,a3,2047
800048e8:	fff78793          	addi	a5,a5,-1 # fffff <_tbss_end+0xfffbb>
800048ec:	00f5f7b3          	and	a5,a1,a5
800048f0:	00168813          	addi	a6,a3,1
800048f4:	00379793          	slli	a5,a5,0x3
800048f8:	01d55713          	srli	a4,a0,0x1d
800048fc:	7ff87813          	andi	a6,a6,2047
80004900:	00100313          	li	t1,1
80004904:	01f5d593          	srli	a1,a1,0x1f
80004908:	00f76633          	or	a2,a4,a5
8000490c:	00351893          	slli	a7,a0,0x3
80004910:	0b035e63          	ble	a6,t1,800049cc <__truncdfsf2+0xf0>
80004914:	c8068813          	addi	a6,a3,-896
80004918:	0fe00313          	li	t1,254
8000491c:	0ff00713          	li	a4,255
80004920:	00000793          	li	a5,0
80004924:	07034863          	blt	t1,a6,80004994 <__truncdfsf2+0xb8>
80004928:	13005263          	blez	a6,80004a4c <__truncdfsf2+0x170>
8000492c:	00651713          	slli	a4,a0,0x6
80004930:	01d8d793          	srli	a5,a7,0x1d
80004934:	00e03733          	snez	a4,a4
80004938:	00f76733          	or	a4,a4,a5
8000493c:	00361793          	slli	a5,a2,0x3
80004940:	00e7e7b3          	or	a5,a5,a4
80004944:	0077f713          	andi	a4,a5,7
80004948:	00070a63          	beqz	a4,8000495c <__truncdfsf2+0x80>
8000494c:	00f7f713          	andi	a4,a5,15
80004950:	00400693          	li	a3,4
80004954:	00d70463          	beq	a4,a3,8000495c <__truncdfsf2+0x80>
80004958:	00478793          	addi	a5,a5,4
8000495c:	04000737          	lui	a4,0x4000
80004960:	00e7f733          	and	a4,a5,a4
80004964:	16070463          	beqz	a4,80004acc <__truncdfsf2+0x1f0>
80004968:	00180713          	addi	a4,a6,1
8000496c:	0ff00693          	li	a3,255
80004970:	0cd70a63          	beq	a4,a3,80004a44 <__truncdfsf2+0x168>
80004974:	1f8006b7          	lui	a3,0x1f800
80004978:	fff68693          	addi	a3,a3,-1 # 1f7fffff <_tbss_end+0x1f7fffbb>
8000497c:	0037d793          	srli	a5,a5,0x3
80004980:	00d7f7b3          	and	a5,a5,a3
80004984:	008006b7          	lui	a3,0x800
80004988:	fff68693          	addi	a3,a3,-1 # 7fffff <_tbss_end+0x7fffbb>
8000498c:	00d7f7b3          	and	a5,a5,a3
80004990:	0ff77713          	andi	a4,a4,255
80004994:	00800537          	lui	a0,0x800
80004998:	fff50513          	addi	a0,a0,-1 # 7fffff <_tbss_end+0x7fffbb>
8000499c:	00a7f7b3          	and	a5,a5,a0
800049a0:	80800537          	lui	a0,0x80800
800049a4:	fff50513          	addi	a0,a0,-1 # 807fffff <__global_pointer$+0x7fa807>
800049a8:	01771713          	slli	a4,a4,0x17
800049ac:	00a7f533          	and	a0,a5,a0
800049b0:	800007b7          	lui	a5,0x80000
800049b4:	00e56533          	or	a0,a0,a4
800049b8:	fff7c793          	not	a5,a5
800049bc:	01f59593          	slli	a1,a1,0x1f
800049c0:	00f57533          	and	a0,a0,a5
800049c4:	00b56533          	or	a0,a0,a1
800049c8:	00008067          	ret
800049cc:	02068463          	beqz	a3,800049f4 <__truncdfsf2+0x118>
800049d0:	011668b3          	or	a7,a2,a7
800049d4:	0ff00713          	li	a4,255
800049d8:	00000793          	li	a5,0
800049dc:	fa088ce3          	beqz	a7,80004994 <__truncdfsf2+0xb8>
800049e0:	00361613          	slli	a2,a2,0x3
800049e4:	020007b7          	lui	a5,0x2000
800049e8:	00f667b3          	or	a5,a2,a5
800049ec:	00070813          	mv	a6,a4
800049f0:	f55ff06f          	j	80004944 <__truncdfsf2+0x68>
800049f4:	011667b3          	or	a5,a2,a7
800049f8:	00078a63          	beqz	a5,80004a0c <__truncdfsf2+0x130>
800049fc:	00500793          	li	a5,5
80004a00:	0ff00713          	li	a4,255
80004a04:	0037d793          	srli	a5,a5,0x3
80004a08:	00e68c63          	beq	a3,a4,80004a20 <__truncdfsf2+0x144>
80004a0c:	00800737          	lui	a4,0x800
80004a10:	fff70713          	addi	a4,a4,-1 # 7fffff <_tbss_end+0x7fffbb>
80004a14:	00e7f7b3          	and	a5,a5,a4
80004a18:	0ff6f713          	andi	a4,a3,255
80004a1c:	f79ff06f          	j	80004994 <__truncdfsf2+0xb8>
80004a20:	02078063          	beqz	a5,80004a40 <__truncdfsf2+0x164>
80004a24:	00400737          	lui	a4,0x400
80004a28:	00e7e7b3          	or	a5,a5,a4
80004a2c:	00800737          	lui	a4,0x800
80004a30:	fff70713          	addi	a4,a4,-1 # 7fffff <_tbss_end+0x7fffbb>
80004a34:	00e7f7b3          	and	a5,a5,a4
80004a38:	00068713          	mv	a4,a3
80004a3c:	f59ff06f          	j	80004994 <__truncdfsf2+0xb8>
80004a40:	00068713          	mv	a4,a3
80004a44:	00000793          	li	a5,0
80004a48:	f4dff06f          	j	80004994 <__truncdfsf2+0xb8>
80004a4c:	fe900793          	li	a5,-23
80004a50:	04f84063          	blt	a6,a5,80004a90 <__truncdfsf2+0x1b4>
80004a54:	01e00793          	li	a5,30
80004a58:	00800537          	lui	a0,0x800
80004a5c:	410787b3          	sub	a5,a5,a6
80004a60:	01f00713          	li	a4,31
80004a64:	00a66633          	or	a2,a2,a0
80004a68:	02f74863          	blt	a4,a5,80004a98 <__truncdfsf2+0x1bc>
80004a6c:	c8268693          	addi	a3,a3,-894
80004a70:	00d89733          	sll	a4,a7,a3
80004a74:	00e03733          	snez	a4,a4
80004a78:	00d61633          	sll	a2,a2,a3
80004a7c:	00f8d8b3          	srl	a7,a7,a5
80004a80:	00c767b3          	or	a5,a4,a2
80004a84:	00f8e7b3          	or	a5,a7,a5
80004a88:	00000813          	li	a6,0
80004a8c:	eb9ff06f          	j	80004944 <__truncdfsf2+0x68>
80004a90:	00000693          	li	a3,0
80004a94:	f69ff06f          	j	800049fc <__truncdfsf2+0x120>
80004a98:	ffe00713          	li	a4,-2
80004a9c:	41070733          	sub	a4,a4,a6
80004aa0:	02000813          	li	a6,32
80004aa4:	00e65733          	srl	a4,a2,a4
80004aa8:	00000513          	li	a0,0
80004aac:	01078663          	beq	a5,a6,80004ab8 <__truncdfsf2+0x1dc>
80004ab0:	ca268693          	addi	a3,a3,-862
80004ab4:	00d61533          	sll	a0,a2,a3
80004ab8:	011567b3          	or	a5,a0,a7
80004abc:	00f037b3          	snez	a5,a5
80004ac0:	00f767b3          	or	a5,a4,a5
80004ac4:	00000813          	li	a6,0
80004ac8:	e7dff06f          	j	80004944 <__truncdfsf2+0x68>
80004acc:	00080693          	mv	a3,a6
80004ad0:	f31ff06f          	j	80004a00 <__truncdfsf2+0x124>

80004ad4 <__clzsi2>:
80004ad4:	000107b7          	lui	a5,0x10
80004ad8:	02f57c63          	bleu	a5,a0,80004b10 <__clzsi2+0x3c>
80004adc:	0ff00713          	li	a4,255
80004ae0:	01800693          	li	a3,24
80004ae4:	00800793          	li	a5,8
80004ae8:	00a76663          	bltu	a4,a0,80004af4 <__clzsi2+0x20>
80004aec:	02000693          	li	a3,32
80004af0:	00000793          	li	a5,0
80004af4:	80005737          	lui	a4,0x80005
80004af8:	00f557b3          	srl	a5,a0,a5
80004afc:	3a070713          	addi	a4,a4,928 # 800053a0 <__global_pointer$+0xfffffba8>
80004b00:	00e787b3          	add	a5,a5,a4
80004b04:	0007c503          	lbu	a0,0(a5) # 10000 <_tbss_end+0xffbc>
80004b08:	40a68533          	sub	a0,a3,a0
80004b0c:	00008067          	ret
80004b10:	01000737          	lui	a4,0x1000
80004b14:	00800693          	li	a3,8
80004b18:	01800793          	li	a5,24
80004b1c:	fce57ce3          	bleu	a4,a0,80004af4 <__clzsi2+0x20>
80004b20:	01000693          	li	a3,16
80004b24:	00068793          	mv	a5,a3
80004b28:	80005737          	lui	a4,0x80005
80004b2c:	00f557b3          	srl	a5,a0,a5
80004b30:	3a070713          	addi	a4,a4,928 # 800053a0 <__global_pointer$+0xfffffba8>
80004b34:	00e787b3          	add	a5,a5,a4
80004b38:	0007c503          	lbu	a0,0(a5)
80004b3c:	40a68533          	sub	a0,a3,a0
80004b40:	00008067          	ret

Disassembly of section .text.startup:

80004b44 <main>:
80004b44:	737d                	lui	t1,0xfffff
80004b46:	81010113          	addi	sp,sp,-2032
80004b4a:	b8030313          	addi	t1,t1,-1152 # ffffeb80 <__global_pointer$+0x7fff9388>
80004b4e:	7e112623          	sw	ra,2028(sp)
80004b52:	7e812423          	sw	s0,2024(sp)
80004b56:	7e912223          	sw	s1,2020(sp)
80004b5a:	7f212023          	sw	s2,2016(sp)
80004b5e:	7d312e23          	sw	s3,2012(sp)
80004b62:	7d412c23          	sw	s4,2008(sp)
80004b66:	7d512a23          	sw	s5,2004(sp)
80004b6a:	7d612823          	sw	s6,2000(sp)
80004b6e:	7d712623          	sw	s7,1996(sp)
80004b72:	7d812423          	sw	s8,1992(sp)
80004b76:	7d912223          	sw	s9,1988(sp)
80004b7a:	7da12023          	sw	s10,1984(sp)
80004b7e:	7bb12e23          	sw	s11,1980(sp)
80004b82:	00000517          	auipc	a0,0x0
80004b86:	48a50513          	addi	a0,a0,1162 # 8000500c <main+0x4c8>
80004b8a:	911a                	add	sp,sp,t1
80004b8c:	a51fc0ef          	jal	ra,800015dc <printf>
80004b90:	00001797          	auipc	a5,0x1
80004b94:	9587a783          	lw	a5,-1704(a5) # 800054e8 <Reg>
80004b98:	42078b63          	beqz	a5,80004fce <main+0x48a>
80004b9c:	00000517          	auipc	a0,0x0
80004ba0:	47450513          	addi	a0,a0,1140 # 80005010 <main+0x4cc>
80004ba4:	a39fc0ef          	jal	ra,800015dc <printf>
80004ba8:	000f4637          	lui	a2,0xf4
80004bac:	24060613          	addi	a2,a2,576 # f4240 <_tbss_end+0xf41fc>
80004bb0:	00000597          	auipc	a1,0x0
80004bb4:	4bc58593          	addi	a1,a1,1212 # 8000506c <main+0x528>
80004bb8:	00000517          	auipc	a0,0x0
80004bbc:	4c050513          	addi	a0,a0,1216 # 80005078 <main+0x534>
80004bc0:	a1dfc0ef          	jal	ra,800015dc <printf>
80004bc4:	00000517          	auipc	a0,0x0
80004bc8:	44850513          	addi	a0,a0,1096 # 8000500c <main+0x4c8>
80004bcc:	a11fc0ef          	jal	ra,800015dc <printf>
80004bd0:	4505                	li	a0,1
80004bd2:	90bfc0ef          	jal	ra,800014dc <setStats>
80004bd6:	b0002773          	csrr	a4,mcycle
80004bda:	6609                	lui	a2,0x2
80004bdc:	080c                	addi	a1,sp,16
80004bde:	76f9                	lui	a3,0xffffe
80004be0:	c2060613          	addi	a2,a2,-992 # 1c20 <_tbss_end+0x1bdc>
80004be4:	3e068a93          	addi	s5,a3,992 # ffffe3e0 <__global_pointer$+0x7fff8be8>
80004be8:	962e                	add	a2,a2,a1
80004bea:	9ab2                	add	s5,s5,a2
80004bec:	6609                	lui	a2,0x2
80004bee:	c2060613          	addi	a2,a2,-992 # 1c20 <_tbss_end+0x1bdc>
80004bf2:	00000797          	auipc	a5,0x0
80004bf6:	41678793          	addi	a5,a5,1046 # 80005008 <main+0x4c4>
80004bfa:	962e                	add	a2,a2,a1
80004bfc:	4384                	lw	s1,0(a5)
80004bfe:	96b2                	add	a3,a3,a2
80004c00:	00000797          	auipc	a5,0x0
80004c04:	3f878793          	addi	a5,a5,1016 # 80004ff8 <main+0x4b4>
80004c08:	0007a903          	lw	s2,0(a5)
80004c0c:	0047a983          	lw	s3,4(a5)
80004c10:	c036                	sw	a3,0(sp)
80004c12:	00000797          	auipc	a5,0x0
80004c16:	3ee78793          	addi	a5,a5,1006 # 80005000 <main+0x4bc>
80004c1a:	6689                	lui	a3,0x2
80004c1c:	0007ab03          	lw	s6,0(a5)
80004c20:	0047ab83          	lw	s7,4(a5)
80004c24:	c2068693          	addi	a3,a3,-992 # 1c20 <_tbss_end+0x1bdc>
80004c28:	00001297          	auipc	t0,0x1
80004c2c:	8ae2ae23          	sw	a4,-1860(t0) # 800054e4 <Begin_Time>
80004c30:	4702                	lw	a4,0(sp)
80004c32:	77fd                	lui	a5,0xfffff
80004c34:	96ae                	add	a3,a3,a1
80004c36:	96be                	add	a3,a3,a5
80004c38:	004a8413          	addi	s0,s5,4
80004c3c:	3e972023          	sw	s1,992(a4)
80004c40:	d526a023          	sw	s2,-704(a3)
80004c44:	d536a223          	sw	s3,-700(a3)
80004c48:	d4868a13          	addi	s4,a3,-696
80004c4c:	18ca8a93          	addi	s5,s5,396
80004c50:	8c5a                	mv	s8,s6
80004c52:	8cde                	mv	s9,s7
80004c54:	a019                	j	80004c5a <main+0x116>
80004c56:	0411                	addi	s0,s0,4
80004c58:	0a21                	addi	s4,s4,8
80004c5a:	8526                	mv	a0,s1
80004c5c:	3681                	jal	8000479c <__extendsfdf2>
80004c5e:	865a                	mv	a2,s6
80004c60:	86de                	mv	a3,s7
80004c62:	aa2fe0ef          	jal	ra,80002f04 <__adddf3>
80004c66:	399d                	jal	800048dc <__truncdfsf2>
80004c68:	84aa                	mv	s1,a0
80004c6a:	85ce                	mv	a1,s3
80004c6c:	854a                	mv	a0,s2
80004c6e:	8662                	mv	a2,s8
80004c70:	86e6                	mv	a3,s9
80004c72:	c004                	sw	s1,0(s0)
80004c74:	a90fe0ef          	jal	ra,80002f04 <__adddf3>
80004c78:	00aa2023          	sw	a0,0(s4)
80004c7c:	00ba2223          	sw	a1,4(s4)
80004c80:	892a                	mv	s2,a0
80004c82:	89ae                	mv	s3,a1
80004c84:	fd5419e3          	bne	s0,s5,80004c56 <main+0x112>
80004c88:	6689                	lui	a3,0x2
80004c8a:	0810                	addi	a2,sp,16
80004c8c:	77f9                	lui	a5,0xffffe
80004c8e:	c2068693          	addi	a3,a3,-992 # 1c20 <_tbss_end+0x1bdc>
80004c92:	3e078993          	addi	s3,a5,992 # ffffe3e0 <__global_pointer$+0x7fff8be8>
80004c96:	96b2                	add	a3,a3,a2
80004c98:	99b6                	add	s3,s3,a3
80004c9a:	6689                	lui	a3,0x2
80004c9c:	777d                	lui	a4,0xfffff
80004c9e:	c2068693          	addi	a3,a3,-992 # 1c20 <_tbss_end+0x1bdc>
80004ca2:	d4070b93          	addi	s7,a4,-704 # ffffed40 <__global_pointer$+0x7fff9548>
80004ca6:	96b2                	add	a3,a3,a2
80004ca8:	9bb6                	add	s7,s7,a3
80004caa:	6689                	lui	a3,0x2
80004cac:	c2068693          	addi	a3,a3,-992 # 1c20 <_tbss_end+0x1bdc>
80004cb0:	06070713          	addi	a4,a4,96
80004cb4:	96b2                	add	a3,a3,a2
80004cb6:	00e68933          	add	s2,a3,a4
80004cba:	6709                	lui	a4,0x2
80004cbc:	c2070713          	addi	a4,a4,-992 # 1c20 <_tbss_end+0x1bdc>
80004cc0:	57078793          	addi	a5,a5,1392
80004cc4:	9732                	add	a4,a4,a2
80004cc6:	00f70a33          	add	s4,a4,a5
80004cca:	19098c93          	addi	s9,s3,400
80004cce:	8b52                	mv	s6,s4
80004cd0:	8aca                	mv	s5,s2
80004cd2:	845e                	mv	s0,s7
80004cd4:	84ce                	mv	s1,s3
80004cd6:	0004ac03          	lw	s8,0(s1) # 80000 <_tbss_end+0x7ffbc>
80004cda:	0421                	addi	s0,s0,8
80004cdc:	0aa1                	addi	s5,s5,8
80004cde:	8562                	mv	a0,s8
80004ce0:	3c75                	jal	8000479c <__extendsfdf2>
80004ce2:	862a                	mv	a2,a0
80004ce4:	86ae                	mv	a3,a1
80004ce6:	ff842503          	lw	a0,-8(s0)
80004cea:	ffc42583          	lw	a1,-4(s0)
80004cee:	0b11                	addi	s6,s6,4
80004cf0:	0491                	addi	s1,s1,4
80004cf2:	a12fe0ef          	jal	ra,80002f04 <__adddf3>
80004cf6:	feaaac23          	sw	a0,-8(s5)
80004cfa:	febaae23          	sw	a1,-4(s5)
80004cfe:	8562                	mv	a0,s8
80004d00:	85e2                	mv	a1,s8
80004d02:	be6fd0ef          	jal	ra,800020e8 <__addsf3>
80004d06:	feab2e23          	sw	a0,-4(s6)
80004d0a:	fd9496e3          	bne	s1,s9,80004cd6 <main+0x192>
80004d0e:	6789                	lui	a5,0x2
80004d10:	0818                	addi	a4,sp,16
80004d12:	7b7d                	lui	s6,0xfffff
80004d14:	c2078793          	addi	a5,a5,-992 # 1c20 <_tbss_end+0x1bdc>
80004d18:	97ba                	add	a5,a5,a4
80004d1a:	380b0b13          	addi	s6,s6,896 # fffff380 <__global_pointer$+0x7fff9b88>
80004d1e:	9b3e                	add	s6,s6,a5
80004d20:	6789                	lui	a5,0x2
80004d22:	7af9                	lui	s5,0xffffe
80004d24:	c2078793          	addi	a5,a5,-992 # 1c20 <_tbss_end+0x1bdc>
80004d28:	700a8a93          	addi	s5,s5,1792 # ffffe700 <__global_pointer$+0x7fff8f08>
80004d2c:	97ba                	add	a5,a5,a4
80004d2e:	9abe                	add	s5,s5,a5
80004d30:	8d56                	mv	s10,s5
80004d32:	8cda                	mv	s9,s6
80004d34:	8c5e                	mv	s8,s7
80004d36:	844e                	mv	s0,s3
80004d38:	00042d83          	lw	s11,0(s0)
80004d3c:	0c21                	addi	s8,s8,8
80004d3e:	0ca1                	addi	s9,s9,8
80004d40:	856e                	mv	a0,s11
80004d42:	3ca9                	jal	8000479c <__extendsfdf2>
80004d44:	862a                	mv	a2,a0
80004d46:	86ae                	mv	a3,a1
80004d48:	ff8c2503          	lw	a0,-8(s8)
80004d4c:	ffcc2583          	lw	a1,-4(s8)
80004d50:	0d11                	addi	s10,s10,4
80004d52:	0411                	addi	s0,s0,4
80004d54:	b68ff0ef          	jal	ra,800040bc <__muldf3>
80004d58:	feacac23          	sw	a0,-8(s9)
80004d5c:	febcae23          	sw	a1,-4(s9)
80004d60:	856e                	mv	a0,s11
80004d62:	85ee                	mv	a1,s11
80004d64:	d45fd0ef          	jal	ra,80002aa8 <__mulsf3>
80004d68:	fead2e23          	sw	a0,-4(s10)
80004d6c:	fc9416e3          	bne	s0,s1,80004d38 <main+0x1f4>
80004d70:	8c5e                	mv	s8,s7
80004d72:	84ce                	mv	s1,s3
80004d74:	00000d13          	li	s10,0
80004d78:	c002                	sw	zero,0(sp)
80004d7a:	c202                	sw	zero,4(sp)
80004d7c:	0004ac83          	lw	s9,0(s1)
80004d80:	0c21                	addi	s8,s8,8
80004d82:	0491                	addi	s1,s1,4
80004d84:	8566                	mv	a0,s9
80004d86:	3c19                	jal	8000479c <__extendsfdf2>
80004d88:	ff8c2603          	lw	a2,-8(s8)
80004d8c:	ffcc2683          	lw	a3,-4(s8)
80004d90:	b2cff0ef          	jal	ra,800040bc <__muldf3>
80004d94:	862a                	mv	a2,a0
80004d96:	86ae                	mv	a3,a1
80004d98:	4502                	lw	a0,0(sp)
80004d9a:	4592                	lw	a1,4(sp)
80004d9c:	968fe0ef          	jal	ra,80002f04 <__adddf3>
80004da0:	c02a                	sw	a0,0(sp)
80004da2:	c22e                	sw	a1,4(sp)
80004da4:	8566                	mv	a0,s9
80004da6:	85e6                	mv	a1,s9
80004da8:	d01fd0ef          	jal	ra,80002aa8 <__mulsf3>
80004dac:	85aa                	mv	a1,a0
80004dae:	856a                	mv	a0,s10
80004db0:	b38fd0ef          	jal	ra,800020e8 <__addsf3>
80004db4:	8d2a                	mv	s10,a0
80004db6:	fc9413e3          	bne	s0,s1,80004d7c <main+0x238>
80004dba:	6785                	lui	a5,0x1
80004dbc:	5e078793          	addi	a5,a5,1504 # 15e0 <_tbss_end+0x159c>
80004dc0:	0818                	addi	a4,sp,16
80004dc2:	00f70c33          	add	s8,a4,a5
80004dc6:	6789                	lui	a5,0x2
80004dc8:	74fd                	lui	s1,0xfffff
80004dca:	c2078793          	addi	a5,a5,-992 # 1c20 <_tbss_end+0x1bdc>
80004dce:	a2048493          	addi	s1,s1,-1504 # ffffea20 <__global_pointer$+0x7fff9228>
80004dd2:	97ba                	add	a5,a5,a4
80004dd4:	94be                	add	s1,s1,a5
80004dd6:	8da6                	mv	s11,s1
80004dd8:	8ce2                	mv	s9,s8
80004dda:	0009a783          	lw	a5,0(s3)
80004dde:	0ba1                	addi	s7,s7,8
80004de0:	0ca1                	addi	s9,s9,8
80004de2:	853e                	mv	a0,a5
80004de4:	c63e                	sw	a5,12(sp)
80004de6:	3a5d                	jal	8000479c <__extendsfdf2>
80004de8:	ff8ba603          	lw	a2,-8(s7)
80004dec:	ffcba683          	lw	a3,-4(s7)
80004df0:	0d91                	addi	s11,s11,4
80004df2:	0991                	addi	s3,s3,4
80004df4:	a85fe0ef          	jal	ra,80003878 <__divdf3>
80004df8:	47b2                	lw	a5,12(sp)
80004dfa:	feacac23          	sw	a0,-8(s9)
80004dfe:	febcae23          	sw	a1,-4(s9)
80004e02:	853e                	mv	a0,a5
80004e04:	85be                	mv	a1,a5
80004e06:	823fd0ef          	jal	ra,80002628 <__divsf3>
80004e0a:	feadae23          	sw	a0,-4(s11)
80004e0e:	fd3416e3          	bne	s0,s3,80004dda <main+0x296>
80004e12:	856a                	mv	a0,s10
80004e14:	3261                	jal	8000479c <__extendsfdf2>
80004e16:	4602                	lw	a2,0(sp)
80004e18:	4692                	lw	a3,4(sp)
80004e1a:	8eafe0ef          	jal	ra,80002f04 <__adddf3>
80004e1e:	3c7d                	jal	800048dc <__truncdfsf2>
80004e20:	6709                	lui	a4,0x2
80004e22:	0814                	addi	a3,sp,16
80004e24:	c2070713          	addi	a4,a4,-992 # 1c20 <_tbss_end+0x1bdc>
80004e28:	77fd                	lui	a5,0xfffff
80004e2a:	9736                	add	a4,a4,a3
80004e2c:	6a078b93          	addi	s7,a5,1696 # fffff6a0 <__global_pointer$+0x7fff9ea8>
80004e30:	89078993          	addi	s3,a5,-1904
80004e34:	bb078413          	addi	s0,a5,-1104
80004e38:	97ba                	add	a5,a5,a4
80004e3a:	6709                	lui	a4,0x2
80004e3c:	c2070713          	addi	a4,a4,-992 # 1c20 <_tbss_end+0x1bdc>
80004e40:	9736                	add	a4,a4,a3
