
spmv.riscv:     file format elf32-littleriscv


Disassembly of section .text.init:

80000000 <_start>:
80000000:	4081                	li	ra,0
80000002:	4101                	li	sp,0
80000004:	4181                	li	gp,0
80000006:	4201                	li	tp,0
80000008:	4281                	li	t0,0
8000000a:	4301                	li	t1,0
8000000c:	4381                	li	t2,0
8000000e:	4401                	li	s0,0
80000010:	4481                	li	s1,0
80000012:	4501                	li	a0,0
80000014:	4581                	li	a1,0
80000016:	4601                	li	a2,0
80000018:	4681                	li	a3,0
8000001a:	4701                	li	a4,0
8000001c:	4781                	li	a5,0
8000001e:	4801                	li	a6,0
80000020:	4881                	li	a7,0
80000022:	4901                	li	s2,0
80000024:	4981                	li	s3,0
80000026:	4a01                	li	s4,0
80000028:	4a81                	li	s5,0
8000002a:	4b01                	li	s6,0
8000002c:	4b81                	li	s7,0
8000002e:	4c01                	li	s8,0
80000030:	4c81                	li	s9,0
80000032:	4d01                	li	s10,0
80000034:	4d81                	li	s11,0
80000036:	4e01                	li	t3,0
80000038:	4e81                	li	t4,0
8000003a:	4f01                	li	t5,0
8000003c:	4f81                	li	t6,0
8000003e:	62f9                	lui	t0,0x1e
80000040:	3002a073          	csrs	mstatus,t0
80000044:	4285                	li	t0,1
80000046:	02fe                	slli	t0,t0,0x1f
80000048:	0002c863          	bltz	t0,80000058 <_start+0x58>
8000004c:	4505                	li	a0,1
8000004e:	00001297          	auipc	t0,0x1
80000052:	faa2a923          	sw	a0,-78(t0) # 80001000 <tohost>
80000056:	bfdd                	j	8000004c <_start+0x4c>
80000058:	00000297          	auipc	t0,0x0
8000005c:	09028293          	addi	t0,t0,144 # 800000e8 <_start+0xe8>
80000060:	30529073          	csrw	mtvec,t0
80000064:	00301073          	fssr	zero
80000068:	f0000053          	fmv.w.x	ft0,zero
8000006c:	f00000d3          	fmv.w.x	ft1,zero
80000070:	f0000153          	fmv.w.x	ft2,zero
80000074:	f00001d3          	fmv.w.x	ft3,zero
80000078:	f0000253          	fmv.w.x	ft4,zero
8000007c:	f00002d3          	fmv.w.x	ft5,zero
80000080:	f0000353          	fmv.w.x	ft6,zero
80000084:	f00003d3          	fmv.w.x	ft7,zero
80000088:	f0000453          	fmv.w.x	fs0,zero
8000008c:	f00004d3          	fmv.w.x	fs1,zero
80000090:	f0000553          	fmv.w.x	fa0,zero
80000094:	f00005d3          	fmv.w.x	fa1,zero
80000098:	f0000653          	fmv.w.x	fa2,zero
8000009c:	f00006d3          	fmv.w.x	fa3,zero
800000a0:	f0000753          	fmv.w.x	fa4,zero
800000a4:	f00007d3          	fmv.w.x	fa5,zero
800000a8:	f0000853          	fmv.w.x	fa6,zero
800000ac:	f00008d3          	fmv.w.x	fa7,zero
800000b0:	f0000953          	fmv.w.x	fs2,zero
800000b4:	f00009d3          	fmv.w.x	fs3,zero
800000b8:	f0000a53          	fmv.w.x	fs4,zero
800000bc:	f0000ad3          	fmv.w.x	fs5,zero
800000c0:	f0000b53          	fmv.w.x	fs6,zero
800000c4:	f0000bd3          	fmv.w.x	fs7,zero
800000c8:	f0000c53          	fmv.w.x	fs8,zero
800000cc:	f0000cd3          	fmv.w.x	fs9,zero
800000d0:	f0000d53          	fmv.w.x	fs10,zero
800000d4:	f0000dd3          	fmv.w.x	fs11,zero
800000d8:	f0000e53          	fmv.w.x	ft8,zero
800000dc:	f0000ed3          	fmv.w.x	ft9,zero
800000e0:	f0000f53          	fmv.w.x	ft10,zero
800000e4:	f0000fd3          	fmv.w.x	ft11,zero
800000e8:	00000297          	auipc	t0,0x0
800000ec:	03c28293          	addi	t0,t0,60 # 80000124 <trap_entry>
800000f0:	30529073          	csrw	mtvec,t0
800000f4:	10000197          	auipc	gp,0x10000
800000f8:	70c18193          	addi	gp,gp,1804 # 90000800 <__global_pointer$>
800000fc:	1000a217          	auipc	tp,0x1000a
80000100:	a0320213          	addi	tp,tp,-1533 # 90009aff <_end+0x3f>
80000104:	fc027213          	andi	tp,tp,-64
80000108:	f1402573          	csrr	a0,mhartid
8000010c:	4585                	li	a1,1
8000010e:	00b57063          	bleu	a1,a0,8000010e <_start+0x10e>
80000112:	01151613          	slli	a2,a0,0x11
80000116:	9232                	add	tp,tp,a2
80000118:	00150113          	addi	sp,a0,1
8000011c:	0146                	slli	sp,sp,0x11
8000011e:	9112                	add	sp,sp,tp
80000120:	69e0106f          	j	800017be <_init>

80000124 <trap_entry>:
80000124:	716d                	addi	sp,sp,-272
80000126:	c206                	sw	ra,4(sp)
80000128:	c40a                	sw	sp,8(sp)
8000012a:	c60e                	sw	gp,12(sp)
8000012c:	c812                	sw	tp,16(sp)
8000012e:	ca16                	sw	t0,20(sp)
80000130:	cc1a                	sw	t1,24(sp)
80000132:	ce1e                	sw	t2,28(sp)
80000134:	d022                	sw	s0,32(sp)
80000136:	d226                	sw	s1,36(sp)
80000138:	d42a                	sw	a0,40(sp)
8000013a:	d62e                	sw	a1,44(sp)
8000013c:	d832                	sw	a2,48(sp)
8000013e:	da36                	sw	a3,52(sp)
80000140:	dc3a                	sw	a4,56(sp)
80000142:	de3e                	sw	a5,60(sp)
80000144:	c0c2                	sw	a6,64(sp)
80000146:	c2c6                	sw	a7,68(sp)
80000148:	c4ca                	sw	s2,72(sp)
8000014a:	c6ce                	sw	s3,76(sp)
8000014c:	c8d2                	sw	s4,80(sp)
8000014e:	cad6                	sw	s5,84(sp)
80000150:	ccda                	sw	s6,88(sp)
80000152:	cede                	sw	s7,92(sp)
80000154:	d0e2                	sw	s8,96(sp)
80000156:	d2e6                	sw	s9,100(sp)
80000158:	d4ea                	sw	s10,104(sp)
8000015a:	d6ee                	sw	s11,108(sp)
8000015c:	d8f2                	sw	t3,112(sp)
8000015e:	daf6                	sw	t4,116(sp)
80000160:	dcfa                	sw	t5,120(sp)
80000162:	defe                	sw	t6,124(sp)
80000164:	34202573          	csrr	a0,mcause
80000168:	341025f3          	csrr	a1,mepc
8000016c:	860a                	mv	a2,sp
8000016e:	4be010ef          	jal	ra,8000162c <handle_trap>
80000172:	34151073          	csrw	mepc,a0
80000176:	000022b7          	lui	t0,0x2
8000017a:	80028293          	addi	t0,t0,-2048 # 1800 <_tbss_end+0x17bc>
8000017e:	3002a073          	csrs	mstatus,t0
80000182:	4092                	lw	ra,4(sp)
80000184:	4122                	lw	sp,8(sp)
80000186:	41b2                	lw	gp,12(sp)
80000188:	4242                	lw	tp,16(sp)
8000018a:	42d2                	lw	t0,20(sp)
8000018c:	4362                	lw	t1,24(sp)
8000018e:	43f2                	lw	t2,28(sp)
80000190:	5402                	lw	s0,32(sp)
80000192:	5492                	lw	s1,36(sp)
80000194:	5522                	lw	a0,40(sp)
80000196:	55b2                	lw	a1,44(sp)
80000198:	5642                	lw	a2,48(sp)
8000019a:	56d2                	lw	a3,52(sp)
8000019c:	5762                	lw	a4,56(sp)
8000019e:	57f2                	lw	a5,60(sp)
800001a0:	4806                	lw	a6,64(sp)
800001a2:	4896                	lw	a7,68(sp)
800001a4:	4926                	lw	s2,72(sp)
800001a6:	49b6                	lw	s3,76(sp)
800001a8:	4a46                	lw	s4,80(sp)
800001aa:	4ad6                	lw	s5,84(sp)
800001ac:	4b66                	lw	s6,88(sp)
800001ae:	4bf6                	lw	s7,92(sp)
800001b0:	5c06                	lw	s8,96(sp)
800001b2:	5c96                	lw	s9,100(sp)
800001b4:	5d26                	lw	s10,104(sp)
800001b6:	5db6                	lw	s11,108(sp)
800001b8:	5e46                	lw	t3,112(sp)
800001ba:	5ed6                	lw	t4,116(sp)
800001bc:	5f66                	lw	t5,120(sp)
800001be:	5ff6                	lw	t6,124(sp)
800001c0:	6151                	addi	sp,sp,272
800001c2:	30200073          	mret

Disassembly of section .tohost:

80001000 <tohost>:
	...

80001040 <fromhost>:
	...

Disassembly of section .text:

80001048 <spmv>:
80001048:	0ea05e63          	blez	a0,80001144 <spmv+0xfc>
8000104c:	1141                	addi	sp,sp,-16
8000104e:	050a                	slli	a0,a0,0x2
80001050:	c622                	sw	s0,12(sp)
80001052:	00a70f33          	add	t5,a4,a0
80001056:	00472283          	lw	t0,4(a4)
8000105a:	00072f83          	lw	t6,0(a4)
8000105e:	ffd28393          	addi	t2,t0,-3
80001062:	0c7fdc63          	ble	t2,t6,8000113a <spmv+0xf2>
80001066:	d20006d3          	fcvt.d.w	fa3,zero
8000106a:	003f9813          	slli	a6,t6,0x3
8000106e:	002f9513          	slli	a0,t6,0x2
80001072:	22d68653          	fmv.d	fa2,fa3
80001076:	22d68753          	fmv.d	fa4,fa3
8000107a:	22d687d3          	fmv.d	fa5,fa3
8000107e:	982e                	add	a6,a6,a1
80001080:	9532                	add	a0,a0,a2
80001082:	847e                	mv	s0,t6
80001084:	00052e83          	lw	t4,0(a0)
80001088:	00452e03          	lw	t3,4(a0)
8000108c:	00852303          	lw	t1,8(a0)
80001090:	00c52883          	lw	a7,12(a0)
80001094:	0e8e                	slli	t4,t4,0x3
80001096:	0e0e                	slli	t3,t3,0x3
80001098:	030e                	slli	t1,t1,0x3
8000109a:	088e                	slli	a7,a7,0x3
8000109c:	9eb6                	add	t4,t4,a3
8000109e:	9e36                	add	t3,t3,a3
800010a0:	9336                	add	t1,t1,a3
800010a2:	98b6                	add	a7,a7,a3
800010a4:	00083287          	fld	ft5,0(a6)
800010a8:	00883187          	fld	ft3,8(a6)
800010ac:	01083087          	fld	ft1,16(a6)
800010b0:	01883507          	fld	fa0,24(a6)
800010b4:	000eb207          	fld	ft4,0(t4)
800010b8:	000e3107          	fld	ft2,0(t3)
800010bc:	00033007          	fld	ft0,0(t1)
800010c0:	0008b587          	fld	fa1,0(a7)
800010c4:	0411                	addi	s0,s0,4
800010c6:	7a42f7c3          	fmadd.d	fa5,ft5,ft4,fa5
800010ca:	7221f743          	fmadd.d	fa4,ft3,ft2,fa4
800010ce:	6200f643          	fmadd.d	fa2,ft1,ft0,fa2
800010d2:	6ab576c3          	fmadd.d	fa3,fa0,fa1,fa3
800010d6:	02080813          	addi	a6,a6,32
800010da:	0541                	addi	a0,a0,16
800010dc:	fa7444e3          	blt	s0,t2,80001084 <spmv+0x3c>
800010e0:	02c77753          	fadd.d	fa4,fa4,fa2
800010e4:	ffc28513          	addi	a0,t0,-4
800010e8:	41f50533          	sub	a0,a0,t6
800010ec:	9971                	andi	a0,a0,-4
800010ee:	0f91                	addi	t6,t6,4
800010f0:	9faa                	add	t6,t6,a0
800010f2:	02d77753          	fadd.d	fa4,fa4,fa3
800010f6:	025fd763          	ble	t0,t6,80001124 <spmv+0xdc>
800010fa:	003f9893          	slli	a7,t6,0x3
800010fe:	002f9813          	slli	a6,t6,0x2
80001102:	028e                	slli	t0,t0,0x3
80001104:	98ae                	add	a7,a7,a1
80001106:	9832                	add	a6,a6,a2
80001108:	92ae                	add	t0,t0,a1
8000110a:	00082503          	lw	a0,0(a6)
8000110e:	0008b607          	fld	fa2,0(a7)
80001112:	08a1                	addi	a7,a7,8
80001114:	050e                	slli	a0,a0,0x3
80001116:	9536                	add	a0,a0,a3
80001118:	2114                	fld	fa3,0(a0)
8000111a:	0811                	addi	a6,a6,4
8000111c:	7ad677c3          	fmadd.d	fa5,fa2,fa3,fa5
80001120:	ff1295e3          	bne	t0,a7,8000110a <spmv+0xc2>
80001124:	02e7f7d3          	fadd.d	fa5,fa5,fa4
80001128:	07a1                	addi	a5,a5,8
8000112a:	0711                	addi	a4,a4,4
8000112c:	fef7bc27          	fsd	fa5,-8(a5)
80001130:	f2ef13e3          	bne	t5,a4,80001056 <spmv+0xe>
80001134:	4432                	lw	s0,12(sp)
80001136:	0141                	addi	sp,sp,16
80001138:	8082                	ret
8000113a:	d2000753          	fcvt.d.w	fa4,zero
8000113e:	22e707d3          	fmv.d	fa5,fa4
80001142:	bf55                	j	800010f6 <spmv+0xae>
80001144:	8082                	ret

80001146 <vprintfmt>:
80001146:	714d                	addi	sp,sp,-336
80001148:	13a12023          	sw	s10,288(sp)
8000114c:	40000d37          	lui	s10,0x40000
80001150:	fffd0793          	addi	a5,s10,-1 # 3fffffff <_tbss_end+0x3fffffbb>
80001154:	14812423          	sw	s0,328(sp)
80001158:	14912223          	sw	s1,324(sp)
8000115c:	15212023          	sw	s2,320(sp)
80001160:	13512a23          	sw	s5,308(sp)
80001164:	14112623          	sw	ra,332(sp)
80001168:	13312e23          	sw	s3,316(sp)
8000116c:	13412c23          	sw	s4,312(sp)
80001170:	13612823          	sw	s6,304(sp)
80001174:	13712623          	sw	s7,300(sp)
80001178:	13812423          	sw	s8,296(sp)
8000117c:	13912223          	sw	s9,292(sp)
80001180:	11b12e23          	sw	s11,284(sp)
80001184:	892a                	mv	s2,a0
80001186:	84ae                	mv	s1,a1
80001188:	8432                	mv	s0,a2
8000118a:	c436                	sw	a3,8(sp)
8000118c:	02500a93          	li	s5,37
80001190:	c63e                	sw	a5,12(sp)
80001192:	a029                	j	8000119c <vprintfmt+0x56>
80001194:	c531                	beqz	a0,800011e0 <vprintfmt+0x9a>
80001196:	85a6                	mv	a1,s1
80001198:	0405                	addi	s0,s0,1
8000119a:	9902                	jalr	s2
8000119c:	00044503          	lbu	a0,0(s0)
800011a0:	ff551ae3          	bne	a0,s5,80001194 <vprintfmt+0x4e>
800011a4:	00144683          	lbu	a3,1(s0)
800011a8:	00140b13          	addi	s6,s0,1
800011ac:	875a                	mv	a4,s6
800011ae:	02000b93          	li	s7,32
800011b2:	5a7d                	li	s4,-1
800011b4:	59fd                	li	s3,-1
800011b6:	4581                	li	a1,0
800011b8:	05500513          	li	a0,85
800011bc:	4825                	li	a6,9
800011be:	fdd68793          	addi	a5,a3,-35
800011c2:	0ff7f793          	andi	a5,a5,255
800011c6:	00170413          	addi	s0,a4,1
800011ca:	26f56263          	bltu	a0,a5,8000142e <vprintfmt+0x2e8>
800011ce:	10008617          	auipc	a2,0x10008
800011d2:	5ca60613          	addi	a2,a2,1482 # 90009798 <val+0x4af8>
800011d6:	078a                	slli	a5,a5,0x2
800011d8:	97b2                	add	a5,a5,a2
800011da:	439c                	lw	a5,0(a5)
800011dc:	97b2                	add	a5,a5,a2
800011de:	8782                	jr	a5
800011e0:	14c12083          	lw	ra,332(sp)
800011e4:	14812403          	lw	s0,328(sp)
800011e8:	14412483          	lw	s1,324(sp)
800011ec:	14012903          	lw	s2,320(sp)
800011f0:	13c12983          	lw	s3,316(sp)
800011f4:	13812a03          	lw	s4,312(sp)
800011f8:	13412a83          	lw	s5,308(sp)
800011fc:	13012b03          	lw	s6,304(sp)
80001200:	12c12b83          	lw	s7,300(sp)
80001204:	12812c03          	lw	s8,296(sp)
80001208:	12412c83          	lw	s9,292(sp)
8000120c:	12012d03          	lw	s10,288(sp)
80001210:	11c12d83          	lw	s11,284(sp)
80001214:	6171                	addi	sp,sp,336
80001216:	8082                	ret
80001218:	4b21                	li	s6,8
8000121a:	c202                	sw	zero,4(sp)
8000121c:	4785                	li	a5,1
8000121e:	1ab7d963          	ble	a1,a5,800013d0 <vprintfmt+0x28a>
80001222:	47a2                	lw	a5,8(sp)
80001224:	00778c93          	addi	s9,a5,7
80001228:	ff8cf793          	andi	a5,s9,-8
8000122c:	0007ad83          	lw	s11,0(a5)
80001230:	0047ac03          	lw	s8,4(a5)
80001234:	00878713          	addi	a4,a5,8
80001238:	c43a                	sw	a4,8(sp)
8000123a:	865a                	mv	a2,s6
8000123c:	4681                	li	a3,0
8000123e:	856e                	mv	a0,s11
80001240:	85e2                	mv	a1,s8
80001242:	755000ef          	jal	ra,80002196 <__umoddi3>
80001246:	c82a                	sw	a0,16(sp)
80001248:	4781                	li	a5,0
8000124a:	1f878863          	beq	a5,s8,8000143a <vprintfmt+0x2f4>
8000124e:	01410c93          	addi	s9,sp,20
80001252:	4a05                	li	s4,1
80001254:	865a                	mv	a2,s6
80001256:	4681                	li	a3,0
80001258:	856e                	mv	a0,s11
8000125a:	85e2                	mv	a1,s8
8000125c:	399000ef          	jal	ra,80001df4 <__udivdi3>
80001260:	865a                	mv	a2,s6
80001262:	4681                	li	a3,0
80001264:	8daa                	mv	s11,a0
80001266:	8c2e                	mv	s8,a1
80001268:	72f000ef          	jal	ra,80002196 <__umoddi3>
8000126c:	4792                	lw	a5,4(sp)
8000126e:	00aca023          	sw	a0,0(s9)
80001272:	001a0d13          	addi	s10,s4,1
80001276:	0c91                	addi	s9,s9,4
80001278:	01878463          	beq	a5,s8,80001280 <vprintfmt+0x13a>
8000127c:	8a6a                	mv	s4,s10
8000127e:	bfd9                	j	80001254 <vprintfmt+0x10e>
80001280:	ff6dfee3          	bleu	s6,s11,8000127c <vprintfmt+0x136>
80001284:	013d5863          	ble	s3,s10,80001294 <vprintfmt+0x14e>
80001288:	19fd                	addi	s3,s3,-1
8000128a:	85a6                	mv	a1,s1
8000128c:	855e                	mv	a0,s7
8000128e:	9902                	jalr	s2
80001290:	ff3d4ce3          	blt	s10,s3,80001288 <vprintfmt+0x142>
80001294:	002a1793          	slli	a5,s4,0x2
80001298:	0a18                	addi	a4,sp,272
8000129a:	97ba                	add	a5,a5,a4
8000129c:	f007a503          	lw	a0,-256(a5)
800012a0:	47b2                	lw	a5,12(sp)
800012a2:	4b25                	li	s6,9
800012a4:	00fa09b3          	add	s3,s4,a5
800012a8:	098a                	slli	s3,s3,0x2
800012aa:	081c                	addi	a5,sp,16
800012ac:	99be                	add	s3,s3,a5
800012ae:	a029                	j	800012b8 <vprintfmt+0x172>
800012b0:	0009a503          	lw	a0,0(s3)
800012b4:	1a7d                	addi	s4,s4,-1
800012b6:	19f1                	addi	s3,s3,-4
800012b8:	03000793          	li	a5,48
800012bc:	00ab7463          	bleu	a0,s6,800012c4 <vprintfmt+0x17e>
800012c0:	05700793          	li	a5,87
800012c4:	85a6                	mv	a1,s1
800012c6:	953e                	add	a0,a0,a5
800012c8:	9902                	jalr	s2
800012ca:	ff4043e3          	bgtz	s4,800012b0 <vprintfmt+0x16a>
800012ce:	b5f9                	j	8000119c <vprintfmt+0x56>
800012d0:	03000513          	li	a0,48
800012d4:	85a6                	mv	a1,s1
800012d6:	9902                	jalr	s2
800012d8:	85a6                	mv	a1,s1
800012da:	07800513          	li	a0,120
800012de:	9902                	jalr	s2
800012e0:	47a2                	lw	a5,8(sp)
800012e2:	4b41                	li	s6,16
800012e4:	c202                	sw	zero,4(sp)
800012e6:	00478693          	addi	a3,a5,4
800012ea:	47a2                	lw	a5,8(sp)
800012ec:	4c01                	li	s8,0
800012ee:	0007ad83          	lw	s11,0(a5)
800012f2:	c436                	sw	a3,8(sp)
800012f4:	b799                	j	8000123a <vprintfmt+0xf4>
800012f6:	47a2                	lw	a5,8(sp)
800012f8:	00174683          	lbu	a3,1(a4)
800012fc:	8722                	mv	a4,s0
800012fe:	0007aa03          	lw	s4,0(a5)
80001302:	0791                	addi	a5,a5,4
80001304:	c43e                	sw	a5,8(sp)
80001306:	ea09dce3          	bgez	s3,800011be <vprintfmt+0x78>
8000130a:	89d2                	mv	s3,s4
8000130c:	5a7d                	li	s4,-1
8000130e:	bd45                	j	800011be <vprintfmt+0x78>
80001310:	00174683          	lbu	a3,1(a4)
80001314:	02d00b93          	li	s7,45
80001318:	8722                	mv	a4,s0
8000131a:	b555                	j	800011be <vprintfmt+0x78>
8000131c:	fff9c793          	not	a5,s3
80001320:	87fd                	srai	a5,a5,0x1f
80001322:	00174683          	lbu	a3,1(a4)
80001326:	00f9f9b3          	and	s3,s3,a5
8000132a:	8722                	mv	a4,s0
8000132c:	bd49                	j	800011be <vprintfmt+0x78>
8000132e:	00174683          	lbu	a3,1(a4)
80001332:	03000b93          	li	s7,48
80001336:	8722                	mv	a4,s0
80001338:	b559                	j	800011be <vprintfmt+0x78>
8000133a:	00174603          	lbu	a2,1(a4)
8000133e:	fd068a13          	addi	s4,a3,-48
80001342:	8722                	mv	a4,s0
80001344:	fd060793          	addi	a5,a2,-48
80001348:	86b2                	mv	a3,a2
8000134a:	faf86ee3          	bltu	a6,a5,80001306 <vprintfmt+0x1c0>
8000134e:	002a1793          	slli	a5,s4,0x2
80001352:	9a3e                	add	s4,s4,a5
80001354:	0705                	addi	a4,a4,1
80001356:	0a06                	slli	s4,s4,0x1
80001358:	9a32                	add	s4,s4,a2
8000135a:	00074603          	lbu	a2,0(a4)
8000135e:	fd0a0a13          	addi	s4,s4,-48
80001362:	fd060793          	addi	a5,a2,-48
80001366:	86b2                	mv	a3,a2
80001368:	fef873e3          	bleu	a5,a6,8000134e <vprintfmt+0x208>
8000136c:	bf69                	j	80001306 <vprintfmt+0x1c0>
8000136e:	47a2                	lw	a5,8(sp)
80001370:	85a6                	mv	a1,s1
80001372:	4388                	lw	a0,0(a5)
80001374:	00478c93          	addi	s9,a5,4
80001378:	9902                	jalr	s2
8000137a:	c466                	sw	s9,8(sp)
8000137c:	b505                	j	8000119c <vprintfmt+0x56>
8000137e:	4785                	li	a5,1
80001380:	12b7d963          	ble	a1,a5,800014b2 <vprintfmt+0x36c>
80001384:	47a2                	lw	a5,8(sp)
80001386:	079d                	addi	a5,a5,7
80001388:	9be1                	andi	a5,a5,-8
8000138a:	0007ad83          	lw	s11,0(a5)
8000138e:	0047ac03          	lw	s8,4(a5)
80001392:	00878713          	addi	a4,a5,8
80001396:	c43a                	sw	a4,8(sp)
80001398:	000c5f63          	bgez	s8,800013b6 <vprintfmt+0x270>
8000139c:	85a6                	mv	a1,s1
8000139e:	02d00513          	li	a0,45
800013a2:	9902                	jalr	s2
800013a4:	41b00733          	neg	a4,s11
800013a8:	00e036b3          	snez	a3,a4
800013ac:	418007b3          	neg	a5,s8
800013b0:	8dba                	mv	s11,a4
800013b2:	40d78c33          	sub	s8,a5,a3
800013b6:	4b29                	li	s6,10
800013b8:	c202                	sw	zero,4(sp)
800013ba:	b541                	j	8000123a <vprintfmt+0xf4>
800013bc:	00174683          	lbu	a3,1(a4)
800013c0:	0585                	addi	a1,a1,1
800013c2:	8722                	mv	a4,s0
800013c4:	bbed                	j	800011be <vprintfmt+0x78>
800013c6:	c202                	sw	zero,4(sp)
800013c8:	4785                	li	a5,1
800013ca:	4b29                	li	s6,10
800013cc:	e4b7cbe3          	blt	a5,a1,80001222 <vprintfmt+0xdc>
800013d0:	47a2                	lw	a5,8(sp)
800013d2:	00478693          	addi	a3,a5,4
800013d6:	bf11                	j	800012ea <vprintfmt+0x1a4>
800013d8:	4b41                	li	s6,16
800013da:	c202                	sw	zero,4(sp)
800013dc:	b581                	j	8000121c <vprintfmt+0xd6>
800013de:	00174683          	lbu	a3,1(a4)
800013e2:	8722                	mv	a4,s0
800013e4:	bbe9                	j	800011be <vprintfmt+0x78>
800013e6:	85a6                	mv	a1,s1
800013e8:	02500513          	li	a0,37
800013ec:	9902                	jalr	s2
800013ee:	b37d                	j	8000119c <vprintfmt+0x56>
800013f0:	47a2                	lw	a5,8(sp)
800013f2:	0007ab03          	lw	s6,0(a5)
800013f6:	00478c93          	addi	s9,a5,4
800013fa:	0c0b0763          	beqz	s6,800014c8 <vprintfmt+0x382>
800013fe:	05305c63          	blez	s3,80001456 <vprintfmt+0x310>
80001402:	02d00793          	li	a5,45
80001406:	0afb8163          	beq	s7,a5,800014a8 <vprintfmt+0x362>
8000140a:	080a0263          	beqz	s4,8000148e <vprintfmt+0x348>
8000140e:	000b4783          	lbu	a5,0(s6)
80001412:	cfb5                	beqz	a5,8000148e <vprintfmt+0x348>
80001414:	001b0793          	addi	a5,s6,1
80001418:	014b0633          	add	a2,s6,s4
8000141c:	0cf60963          	beq	a2,a5,800014ee <vprintfmt+0x3a8>
80001420:	00178713          	addi	a4,a5,1
80001424:	fff74683          	lbu	a3,-1(a4)
80001428:	c28d                	beqz	a3,8000144a <vprintfmt+0x304>
8000142a:	87ba                	mv	a5,a4
8000142c:	bfc5                	j	8000141c <vprintfmt+0x2d6>
8000142e:	85a6                	mv	a1,s1
80001430:	02500513          	li	a0,37
80001434:	9902                	jalr	s2
80001436:	845a                	mv	s0,s6
80001438:	b395                	j	8000119c <vprintfmt+0x56>
8000143a:	e16dfae3          	bleu	s6,s11,8000124e <vprintfmt+0x108>
8000143e:	4785                	li	a5,1
80001440:	4a01                	li	s4,0
80001442:	4d05                	li	s10,1
80001444:	e537c2e3          	blt	a5,s3,80001288 <vprintfmt+0x142>
80001448:	bda1                	j	800012a0 <vprintfmt+0x15a>
8000144a:	416787b3          	sub	a5,a5,s6
8000144e:	40f989b3          	sub	s3,s3,a5
80001452:	03304e63          	bgtz	s3,8000148e <vprintfmt+0x348>
80001456:	000b4503          	lbu	a0,0(s6)
8000145a:	c505                	beqz	a0,80001482 <vprintfmt+0x33c>
8000145c:	5bfd                	li	s7,-1
8000145e:	020a5463          	bgez	s4,80001486 <vprintfmt+0x340>
80001462:	85a6                	mv	a1,s1
80001464:	0b05                	addi	s6,s6,1
80001466:	9902                	jalr	s2
80001468:	000b4503          	lbu	a0,0(s6)
8000146c:	19fd                	addi	s3,s3,-1
8000146e:	f965                	bnez	a0,8000145e <vprintfmt+0x318>
80001470:	01305963          	blez	s3,80001482 <vprintfmt+0x33c>
80001474:	19fd                	addi	s3,s3,-1
80001476:	85a6                	mv	a1,s1
80001478:	02000513          	li	a0,32
8000147c:	9902                	jalr	s2
8000147e:	fe099be3          	bnez	s3,80001474 <vprintfmt+0x32e>
80001482:	c466                	sw	s9,8(sp)
80001484:	bb21                	j	8000119c <vprintfmt+0x56>
80001486:	1a7d                	addi	s4,s4,-1
80001488:	fd7a1de3          	bne	s4,s7,80001462 <vprintfmt+0x31c>
8000148c:	b7d5                	j	80001470 <vprintfmt+0x32a>
8000148e:	19fd                	addi	s3,s3,-1
80001490:	85a6                	mv	a1,s1
80001492:	855e                	mv	a0,s7
80001494:	9902                	jalr	s2
80001496:	fc0980e3          	beqz	s3,80001456 <vprintfmt+0x310>
8000149a:	19fd                	addi	s3,s3,-1
8000149c:	85a6                	mv	a1,s1
8000149e:	855e                	mv	a0,s7
800014a0:	9902                	jalr	s2
800014a2:	fe0996e3          	bnez	s3,8000148e <vprintfmt+0x348>
800014a6:	bf45                	j	80001456 <vprintfmt+0x310>
800014a8:	000b4503          	lbu	a0,0(s6)
800014ac:	d561                	beqz	a0,80001474 <vprintfmt+0x32e>
800014ae:	5bfd                	li	s7,-1
800014b0:	b77d                	j	8000145e <vprintfmt+0x318>
800014b2:	4722                	lw	a4,8(sp)
800014b4:	00470793          	addi	a5,a4,4
800014b8:	e191                	bnez	a1,800014bc <vprintfmt+0x376>
800014ba:	4722                	lw	a4,8(sp)
800014bc:	00072d83          	lw	s11,0(a4)
800014c0:	c43e                	sw	a5,8(sp)
800014c2:	41fddc13          	srai	s8,s11,0x1f
800014c6:	bdc9                	j	80001398 <vprintfmt+0x252>
800014c8:	01305b63          	blez	s3,800014de <vprintfmt+0x398>
800014cc:	02d00793          	li	a5,45
800014d0:	00fb8763          	beq	s7,a5,800014de <vprintfmt+0x398>
800014d4:	10008b17          	auipc	s6,0x10008
800014d8:	41cb0b13          	addi	s6,s6,1052 # 900098f0 <val+0x4c50>
800014dc:	b73d                	j	8000140a <vprintfmt+0x2c4>
800014de:	10008b17          	auipc	s6,0x10008
800014e2:	412b0b13          	addi	s6,s6,1042 # 900098f0 <val+0x4c50>
800014e6:	02800513          	li	a0,40
800014ea:	5bfd                	li	s7,-1
800014ec:	bf8d                	j	8000145e <vprintfmt+0x318>
800014ee:	41660633          	sub	a2,a2,s6
800014f2:	40c989b3          	sub	s3,s3,a2
800014f6:	f9304ce3          	bgtz	s3,8000148e <vprintfmt+0x348>
800014fa:	bfb1                	j	80001456 <vprintfmt+0x310>

800014fc <sprintf_putch.2925>:
800014fc:	419c                	lw	a5,0(a1)
800014fe:	00a78023          	sb	a0,0(a5)
80001502:	419c                	lw	a5,0(a1)
80001504:	0785                	addi	a5,a5,1
80001506:	c19c                	sw	a5,0(a1)
80001508:	8082                	ret

8000150a <syscall.constprop.2>:
8000150a:	7119                	addi	sp,sp,-128
8000150c:	03f10813          	addi	a6,sp,63
80001510:	fc087813          	andi	a6,a6,-64
80001514:	04000713          	li	a4,64
80001518:	00e82023          	sw	a4,0(a6)
8000151c:	4781                	li	a5,0
8000151e:	00f82223          	sw	a5,4(a6)
80001522:	4705                	li	a4,1
80001524:	00e82423          	sw	a4,8(a6)
80001528:	4781                	li	a5,0
8000152a:	00f82623          	sw	a5,12(a6)
8000152e:	00a82823          	sw	a0,16(a6)
80001532:	00b82a23          	sw	a1,20(a6)
80001536:	00c82c23          	sw	a2,24(a6)
8000153a:	00d82e23          	sw	a3,28(a6)
8000153e:	0ff0000f          	fence
80001542:	00000697          	auipc	a3,0x0
80001546:	abe68693          	addi	a3,a3,-1346 # 80001000 <tohost>
8000154a:	0106a023          	sw	a6,0(a3)
8000154e:	4781                	li	a5,0
80001550:	c2dc                	sw	a5,4(a3)
80001552:	00000697          	auipc	a3,0x0
80001556:	aee68693          	addi	a3,a3,-1298 # 80001040 <fromhost>
8000155a:	4298                	lw	a4,0(a3)
8000155c:	42dc                	lw	a5,4(a3)
8000155e:	8f5d                	or	a4,a4,a5
80001560:	df6d                	beqz	a4,8000155a <syscall.constprop.2+0x50>
80001562:	4701                	li	a4,0
80001564:	c298                	sw	a4,0(a3)
80001566:	4781                	li	a5,0
80001568:	c2dc                	sw	a5,4(a3)
8000156a:	0ff0000f          	fence
8000156e:	00082503          	lw	a0,0(a6)
80001572:	00482583          	lw	a1,4(a6)
80001576:	6109                	addi	sp,sp,128
80001578:	8082                	ret

8000157a <putchar>:
8000157a:	1141                	addi	sp,sp,-16
8000157c:	c422                	sw	s0,8(sp)
8000157e:	04022583          	lw	a1,64(tp) # 40 <buflen.2811>
80001582:	00020793          	mv	a5,tp
80001586:	c606                	sw	ra,12(sp)
80001588:	97ae                	add	a5,a5,a1
8000158a:	00158613          	addi	a2,a1,1
8000158e:	00a78023          	sb	a0,0(a5)
80001592:	04c22023          	sw	a2,64(tp) # 40 <buflen.2811>
80001596:	47a9                	li	a5,10
80001598:	00f50b63          	beq	a0,a5,800015ae <putchar+0x34>
8000159c:	04000793          	li	a5,64
800015a0:	00f60763          	beq	a2,a5,800015ae <putchar+0x34>
800015a4:	40b2                	lw	ra,12(sp)
800015a6:	4422                	lw	s0,8(sp)
800015a8:	4501                	li	a0,0
800015aa:	0141                	addi	sp,sp,16
800015ac:	8082                	ret
800015ae:	41f65693          	srai	a3,a2,0x1f
800015b2:	00020513          	mv	a0,tp
800015b6:	4581                	li	a1,0
800015b8:	3f89                	jal	8000150a <syscall.constprop.2>
800015ba:	04022023          	sw	zero,64(tp) # 40 <buflen.2811>
800015be:	40b2                	lw	ra,12(sp)
800015c0:	4422                	lw	s0,8(sp)
800015c2:	4501                	li	a0,0
800015c4:	0141                	addi	sp,sp,16
800015c6:	8082                	ret

800015c8 <setStats>:
800015c8:	b00027f3          	csrr	a5,mcycle
800015cc:	10008717          	auipc	a4,0x10008
800015d0:	4bc70713          	addi	a4,a4,1212 # 90009a88 <counters>
800015d4:	e919                	bnez	a0,800015ea <setStats+0x22>
800015d6:	4314                	lw	a3,0(a4)
800015d8:	10008617          	auipc	a2,0x10008
800015dc:	32060613          	addi	a2,a2,800 # 900098f8 <val+0x4c58>
800015e0:	10008597          	auipc	a1,0x10008
800015e4:	4ac5a023          	sw	a2,1184(a1) # 90009a80 <counter_names>
800015e8:	8f95                	sub	a5,a5,a3
800015ea:	10008697          	auipc	a3,0x10008
800015ee:	48f6af23          	sw	a5,1182(a3) # 90009a88 <counters>
800015f2:	b02027f3          	csrr	a5,minstret
800015f6:	e919                	bnez	a0,8000160c <setStats+0x44>
800015f8:	4358                	lw	a4,4(a4)
800015fa:	10008697          	auipc	a3,0x10008
800015fe:	30668693          	addi	a3,a3,774 # 90009900 <val+0x4c60>
80001602:	10008617          	auipc	a2,0x10008
80001606:	48d62123          	sw	a3,1154(a2) # 90009a84 <counter_names+0x4>
8000160a:	8f99                	sub	a5,a5,a4
8000160c:	10008717          	auipc	a4,0x10008
80001610:	48f72023          	sw	a5,1152(a4) # 90009a8c <counters+0x4>
80001614:	8082                	ret

80001616 <tohost_exit>:
80001616:	0506                	slli	a0,a0,0x1
80001618:	00000697          	auipc	a3,0x0
8000161c:	9e868693          	addi	a3,a3,-1560 # 80001000 <tohost>
80001620:	00156713          	ori	a4,a0,1
80001624:	4781                	li	a5,0
80001626:	c298                	sw	a4,0(a3)
80001628:	c2dc                	sw	a5,4(a3)
8000162a:	a001                	j	8000162a <tohost_exit+0x14>

8000162c <handle_trap>:
8000162c:	6605                	lui	a2,0x1
8000162e:	00000797          	auipc	a5,0x0
80001632:	9d278793          	addi	a5,a5,-1582 # 80001000 <tohost>
80001636:	a7360613          	addi	a2,a2,-1421 # a73 <_tbss_end+0xa2f>
8000163a:	4681                	li	a3,0
8000163c:	c390                	sw	a2,0(a5)
8000163e:	c3d4                	sw	a3,4(a5)
80001640:	a001                	j	80001640 <handle_trap+0x14>

80001642 <exit>:
80001642:	1141                	addi	sp,sp,-16
80001644:	c606                	sw	ra,12(sp)
80001646:	3fc1                	jal	80001616 <tohost_exit>

80001648 <abort>:
80001648:	00000797          	auipc	a5,0x0
8000164c:	9b878793          	addi	a5,a5,-1608 # 80001000 <tohost>
80001650:	10d00613          	li	a2,269
80001654:	4681                	li	a3,0
80001656:	c390                	sw	a2,0(a5)
80001658:	c3d4                	sw	a3,4(a5)
8000165a:	a001                	j	8000165a <abort+0x12>

8000165c <printstr>:
8000165c:	00054783          	lbu	a5,0(a0)
80001660:	862a                	mv	a2,a0
80001662:	cb89                	beqz	a5,80001674 <printstr+0x18>
80001664:	0605                	addi	a2,a2,1
80001666:	00064783          	lbu	a5,0(a2)
8000166a:	ffed                	bnez	a5,80001664 <printstr+0x8>
8000166c:	8e09                	sub	a2,a2,a0
8000166e:	4681                	li	a3,0
80001670:	4581                	li	a1,0
80001672:	bd61                	j	8000150a <syscall.constprop.2>
80001674:	4601                	li	a2,0
80001676:	4681                	li	a3,0
80001678:	4581                	li	a1,0
8000167a:	bd41                	j	8000150a <syscall.constprop.2>

8000167c <thread_entry>:
8000167c:	c111                	beqz	a0,80001680 <thread_entry+0x4>
8000167e:	a001                	j	8000167e <thread_entry+0x2>
80001680:	8082                	ret

80001682 <printhex>:
80001682:	7179                	addi	sp,sp,-48
80001684:	d606                	sw	ra,44(sp)
80001686:	01b10793          	addi	a5,sp,27
8000168a:	00b10313          	addi	t1,sp,11
8000168e:	48a5                	li	a7,9
80001690:	00f57693          	andi	a3,a0,15
80001694:	01c59813          	slli	a6,a1,0x1c
80001698:	8111                	srli	a0,a0,0x4
8000169a:	05700613          	li	a2,87
8000169e:	0ff6f713          	andi	a4,a3,255
800016a2:	00d8e463          	bltu	a7,a3,800016aa <printhex+0x28>
800016a6:	03000613          	li	a2,48
800016aa:	9732                	add	a4,a4,a2
800016ac:	00e78023          	sb	a4,0(a5)
800016b0:	17fd                	addi	a5,a5,-1
800016b2:	00a86533          	or	a0,a6,a0
800016b6:	8191                	srli	a1,a1,0x4
800016b8:	fcf31ce3          	bne	t1,a5,80001690 <printhex+0xe>
800016bc:	0068                	addi	a0,sp,12
800016be:	00010e23          	sb	zero,28(sp)
800016c2:	3f69                	jal	8000165c <printstr>
800016c4:	50b2                	lw	ra,44(sp)
800016c6:	6145                	addi	sp,sp,48
800016c8:	8082                	ret

800016ca <printf>:
800016ca:	7139                	addi	sp,sp,-64
800016cc:	02410313          	addi	t1,sp,36
800016d0:	d22e                	sw	a1,36(sp)
800016d2:	d432                	sw	a2,40(sp)
800016d4:	d636                	sw	a3,44(sp)
800016d6:	862a                	mv	a2,a0
800016d8:	869a                	mv	a3,t1
800016da:	00000517          	auipc	a0,0x0
800016de:	ea050513          	addi	a0,a0,-352 # 8000157a <putchar>
800016e2:	4581                	li	a1,0
800016e4:	ce06                	sw	ra,28(sp)
800016e6:	d83a                	sw	a4,48(sp)
800016e8:	da3e                	sw	a5,52(sp)
800016ea:	dc42                	sw	a6,56(sp)
800016ec:	de46                	sw	a7,60(sp)
800016ee:	c61a                	sw	t1,12(sp)
800016f0:	3c99                	jal	80001146 <vprintfmt>
800016f2:	40f2                	lw	ra,28(sp)
800016f4:	4501                	li	a0,0
800016f6:	6121                	addi	sp,sp,64
800016f8:	8082                	ret

800016fa <sprintf>:
800016fa:	715d                	addi	sp,sp,-80
800016fc:	03810313          	addi	t1,sp,56
80001700:	d422                	sw	s0,40(sp)
80001702:	c62a                	sw	a0,12(sp)
80001704:	dc32                	sw	a2,56(sp)
80001706:	de36                	sw	a3,60(sp)
80001708:	842a                	mv	s0,a0
8000170a:	862e                	mv	a2,a1
8000170c:	00000517          	auipc	a0,0x0
80001710:	df050513          	addi	a0,a0,-528 # 800014fc <sprintf_putch.2925>
80001714:	006c                	addi	a1,sp,12
80001716:	869a                	mv	a3,t1
80001718:	d606                	sw	ra,44(sp)
8000171a:	c2be                	sw	a5,68(sp)
8000171c:	c0ba                	sw	a4,64(sp)
8000171e:	c4c2                	sw	a6,72(sp)
80001720:	c6c6                	sw	a7,76(sp)
80001722:	ce1a                	sw	t1,28(sp)
80001724:	340d                	jal	80001146 <vprintfmt>
80001726:	47b2                	lw	a5,12(sp)
80001728:	00078023          	sb	zero,0(a5)
8000172c:	4532                	lw	a0,12(sp)
8000172e:	50b2                	lw	ra,44(sp)
80001730:	8d01                	sub	a0,a0,s0
80001732:	5422                	lw	s0,40(sp)
80001734:	6161                	addi	sp,sp,80
80001736:	8082                	ret

80001738 <memcpy>:
80001738:	00c5e7b3          	or	a5,a1,a2
8000173c:	8fc9                	or	a5,a5,a0
8000173e:	8b8d                	andi	a5,a5,3
80001740:	00c506b3          	add	a3,a0,a2
80001744:	cf91                	beqz	a5,80001760 <memcpy+0x28>
80001746:	962e                	add	a2,a2,a1
80001748:	87aa                	mv	a5,a0
8000174a:	02d57763          	bleu	a3,a0,80001778 <memcpy+0x40>
8000174e:	0585                	addi	a1,a1,1
80001750:	fff5c703          	lbu	a4,-1(a1)
80001754:	0785                	addi	a5,a5,1
80001756:	fee78fa3          	sb	a4,-1(a5)
8000175a:	feb61ae3          	bne	a2,a1,8000174e <memcpy+0x16>
8000175e:	8082                	ret
80001760:	fed57fe3          	bleu	a3,a0,8000175e <memcpy+0x26>
80001764:	87aa                	mv	a5,a0
80001766:	0591                	addi	a1,a1,4
80001768:	ffc5a703          	lw	a4,-4(a1)
8000176c:	0791                	addi	a5,a5,4
8000176e:	fee7ae23          	sw	a4,-4(a5)
80001772:	fed7eae3          	bltu	a5,a3,80001766 <memcpy+0x2e>
80001776:	8082                	ret
80001778:	8082                	ret

8000177a <memset>:
8000177a:	00c567b3          	or	a5,a0,a2
8000177e:	8b8d                	andi	a5,a5,3
80001780:	962a                	add	a2,a2,a0
80001782:	cf81                	beqz	a5,8000179a <memset+0x20>
80001784:	0ff5f593          	andi	a1,a1,255
80001788:	87aa                	mv	a5,a0
8000178a:	02c57963          	bleu	a2,a0,800017bc <memset+0x42>
8000178e:	0785                	addi	a5,a5,1
80001790:	feb78fa3          	sb	a1,-1(a5)
80001794:	fef61de3          	bne	a2,a5,8000178e <memset+0x14>
80001798:	8082                	ret
8000179a:	0ff5f593          	andi	a1,a1,255
8000179e:	00859713          	slli	a4,a1,0x8
800017a2:	8f4d                	or	a4,a4,a1
800017a4:	01071793          	slli	a5,a4,0x10
800017a8:	8f5d                	or	a4,a4,a5
800017aa:	fec577e3          	bleu	a2,a0,80001798 <memset+0x1e>
800017ae:	87aa                	mv	a5,a0
800017b0:	0791                	addi	a5,a5,4
800017b2:	fee7ae23          	sw	a4,-4(a5)
800017b6:	fec7ede3          	bltu	a5,a2,800017b0 <memset+0x36>
800017ba:	8082                	ret
800017bc:	8082                	ret

800017be <_init>:
800017be:	7135                	addi	sp,sp,-160
800017c0:	cd22                	sw	s0,152(sp)
800017c2:	cb26                	sw	s1,148(sp)
800017c4:	00020493          	mv	s1,tp
800017c8:	00020413          	mv	s0,tp
800017cc:	40848433          	sub	s0,s1,s0
800017d0:	8622                	mv	a2,s0
800017d2:	c74e                	sw	s3,140(sp)
800017d4:	c552                	sw	s4,136(sp)
800017d6:	89aa                	mv	s3,a0
800017d8:	8a2e                	mv	s4,a1
800017da:	8512                	mv	a0,tp
800017dc:	10008597          	auipc	a1,0x10008
800017e0:	2e458593          	addi	a1,a1,740 # 90009ac0 <_end>
800017e4:	cf06                	sw	ra,156(sp)
800017e6:	c94a                	sw	s2,144(sp)
800017e8:	c356                	sw	s5,132(sp)
800017ea:	8a92                	mv	s5,tp
800017ec:	37b1                	jal	80001738 <memcpy>
800017ee:	04420613          	addi	a2,tp,68 # 44 <_tbss_end>
800017f2:	8e05                	sub	a2,a2,s1
800017f4:	4581                	li	a1,0
800017f6:	008a8533          	add	a0,s5,s0
800017fa:	3741                	jal	8000177a <memset>
800017fc:	85d2                	mv	a1,s4
800017fe:	854e                	mv	a0,s3
80001800:	3db5                	jal	8000167c <thread_entry>
80001802:	4581                	li	a1,0
80001804:	4501                	li	a0,0
80001806:	2a15                	jal	8000193a <main>
80001808:	10008417          	auipc	s0,0x10008
8000180c:	28040413          	addi	s0,s0,640 # 90009a88 <counters>
80001810:	4014                	lw	a3,0(s0)
80001812:	03f10913          	addi	s2,sp,63
80001816:	fc097913          	andi	s2,s2,-64
8000181a:	84aa                	mv	s1,a0
8000181c:	ea85                	bnez	a3,8000184c <_init+0x8e>
8000181e:	4054                	lw	a3,4(s0)
80001820:	e299                	bnez	a3,80001826 <_init+0x68>
80001822:	8526                	mv	a0,s1
80001824:	3bcd                	jal	80001616 <tohost_exit>
80001826:	844a                	mv	s0,s2
80001828:	10008997          	auipc	s3,0x10008
8000182c:	25898993          	addi	s3,s3,600 # 90009a80 <counter_names>
80001830:	0049a603          	lw	a2,4(s3)
80001834:	8522                	mv	a0,s0
80001836:	10008597          	auipc	a1,0x10008
8000183a:	0ee58593          	addi	a1,a1,238 # 90009924 <val+0x4c84>
8000183e:	3d75                	jal	800016fa <sprintf>
80001840:	942a                	add	s0,s0,a0
80001842:	fe8900e3          	beq	s2,s0,80001822 <_init+0x64>
80001846:	854a                	mv	a0,s2
80001848:	3d11                	jal	8000165c <printstr>
8000184a:	bfe1                	j	80001822 <_init+0x64>
8000184c:	10008997          	auipc	s3,0x10008
80001850:	23498993          	addi	s3,s3,564 # 90009a80 <counter_names>
80001854:	0009a603          	lw	a2,0(s3)
80001858:	10008597          	auipc	a1,0x10008
8000185c:	0cc58593          	addi	a1,a1,204 # 90009924 <val+0x4c84>
80001860:	854a                	mv	a0,s2
80001862:	3d61                	jal	800016fa <sprintf>
80001864:	4054                	lw	a3,4(s0)
80001866:	00a90433          	add	s0,s2,a0
8000186a:	dee1                	beqz	a3,80001842 <_init+0x84>
8000186c:	b7d1                	j	80001830 <_init+0x72>

8000186e <strlen>:
8000186e:	00054783          	lbu	a5,0(a0)
80001872:	872a                	mv	a4,a0
80001874:	c799                	beqz	a5,80001882 <strlen+0x14>
80001876:	0505                	addi	a0,a0,1
80001878:	00054783          	lbu	a5,0(a0)
8000187c:	ffed                	bnez	a5,80001876 <strlen+0x8>
8000187e:	8d19                	sub	a0,a0,a4
80001880:	8082                	ret
80001882:	4501                	li	a0,0
80001884:	8082                	ret

80001886 <strnlen>:
80001886:	872a                	mv	a4,a0
80001888:	cd91                	beqz	a1,800018a4 <strnlen+0x1e>
8000188a:	00054783          	lbu	a5,0(a0)
8000188e:	cb99                	beqz	a5,800018a4 <strnlen+0x1e>
80001890:	95aa                	add	a1,a1,a0
80001892:	a021                	j	8000189a <strnlen+0x14>
80001894:	00054783          	lbu	a5,0(a0)
80001898:	c781                	beqz	a5,800018a0 <strnlen+0x1a>
8000189a:	0505                	addi	a0,a0,1
8000189c:	feb51ce3          	bne	a0,a1,80001894 <strnlen+0xe>
800018a0:	8d19                	sub	a0,a0,a4
800018a2:	8082                	ret
800018a4:	4501                	li	a0,0
800018a6:	8082                	ret

800018a8 <strcmp>:
800018a8:	0505                	addi	a0,a0,1
800018aa:	fff54783          	lbu	a5,-1(a0)
800018ae:	0585                	addi	a1,a1,1
800018b0:	fff5c703          	lbu	a4,-1(a1)
800018b4:	c791                	beqz	a5,800018c0 <strcmp+0x18>
800018b6:	fee789e3          	beq	a5,a4,800018a8 <strcmp>
800018ba:	40e78533          	sub	a0,a5,a4
800018be:	8082                	ret
800018c0:	4781                	li	a5,0
800018c2:	bfe5                	j	800018ba <strcmp+0x12>

800018c4 <strcpy>:
800018c4:	87aa                	mv	a5,a0
800018c6:	0585                	addi	a1,a1,1
800018c8:	fff5c703          	lbu	a4,-1(a1)
800018cc:	0785                	addi	a5,a5,1
800018ce:	fee78fa3          	sb	a4,-1(a5)
800018d2:	fb75                	bnez	a4,800018c6 <strcpy+0x2>
800018d4:	8082                	ret

800018d6 <atol>:
800018d6:	00054783          	lbu	a5,0(a0)
800018da:	02000713          	li	a4,32
800018de:	00e79763          	bne	a5,a4,800018ec <atol+0x16>
800018e2:	0505                	addi	a0,a0,1
800018e4:	00054783          	lbu	a5,0(a0)
800018e8:	fee78de3          	beq	a5,a4,800018e2 <atol+0xc>
800018ec:	fd578713          	addi	a4,a5,-43
800018f0:	0fd77713          	andi	a4,a4,253
800018f4:	c715                	beqz	a4,80001920 <atol+0x4a>
800018f6:	00054683          	lbu	a3,0(a0)
800018fa:	87aa                	mv	a5,a0
800018fc:	4601                	li	a2,0
800018fe:	ce85                	beqz	a3,80001936 <atol+0x60>
80001900:	4501                	li	a0,0
80001902:	0785                	addi	a5,a5,1
80001904:	fd068593          	addi	a1,a3,-48
80001908:	00251713          	slli	a4,a0,0x2
8000190c:	0007c683          	lbu	a3,0(a5)
80001910:	953a                	add	a0,a0,a4
80001912:	0506                	slli	a0,a0,0x1
80001914:	952e                	add	a0,a0,a1
80001916:	f6f5                	bnez	a3,80001902 <atol+0x2c>
80001918:	c219                	beqz	a2,8000191e <atol+0x48>
8000191a:	40a00533          	neg	a0,a0
8000191e:	8082                	ret
80001920:	00154683          	lbu	a3,1(a0)
80001924:	fd378793          	addi	a5,a5,-45
80001928:	0017b613          	seqz	a2,a5
8000192c:	00150793          	addi	a5,a0,1
80001930:	fae1                	bnez	a3,80001900 <atol+0x2a>
80001932:	4501                	li	a0,0
80001934:	b7d5                	j	80001918 <atol+0x42>
80001936:	4501                	li	a0,0
80001938:	8082                	ret

Disassembly of section .text.startup:

8000193a <main>:
8000193a:	81010113          	addi	sp,sp,-2032
8000193e:	6705                	lui	a4,0x1
80001940:	7e112623          	sw	ra,2028(sp)
80001944:	7e812423          	sw	s0,2024(sp)
80001948:	77fd                	lui	a5,0xfffff
8000194a:	84010113          	addi	sp,sp,-1984
8000194e:	fa070713          	addi	a4,a4,-96 # fa0 <_tbss_end+0xf5c>
80001952:	06078793          	addi	a5,a5,96 # fffff060 <_end+0x6fff55a0>
80001956:	970a                	add	a4,a4,sp
80001958:	00f70433          	add	s0,a4,a5
8000195c:	10000697          	auipc	a3,0x10000
80001960:	e2468693          	addi	a3,a3,-476 # 90001780 <x>
80001964:	0fffe717          	auipc	a4,0xfffe
80001968:	6a470713          	addi	a4,a4,1700 # 90000008 <ptr>
8000196c:	10001617          	auipc	a2,0x10001
80001970:	db460613          	addi	a2,a2,-588 # 90002720 <idx>
80001974:	10003597          	auipc	a1,0x10003
80001978:	32c58593          	addi	a1,a1,812 # 90004ca0 <val>
8000197c:	87a2                	mv	a5,s0
8000197e:	1f400513          	li	a0,500
80001982:	ec6ff0ef          	jal	ra,80001048 <spmv>
80001986:	4505                	li	a0,1
80001988:	3181                	jal	800015c8 <setStats>
8000198a:	87a2                	mv	a5,s0
8000198c:	0fffe717          	auipc	a4,0xfffe
80001990:	67c70713          	addi	a4,a4,1660 # 90000008 <ptr>
80001994:	10000697          	auipc	a3,0x10000
80001998:	dec68693          	addi	a3,a3,-532 # 90001780 <x>
8000199c:	10001617          	auipc	a2,0x10001
800019a0:	d8460613          	addi	a2,a2,-636 # 90002720 <idx>
800019a4:	10003597          	auipc	a1,0x10003
800019a8:	2fc58593          	addi	a1,a1,764 # 90004ca0 <val>
800019ac:	1f400513          	li	a0,500
800019b0:	e98ff0ef          	jal	ra,80001048 <spmv>
800019b4:	4501                	li	a0,0
800019b6:	3909                	jal	800015c8 <setStats>
800019b8:	87a2                	mv	a5,s0
800019ba:	0ffff697          	auipc	a3,0xffff
800019be:	e2e68693          	addi	a3,a3,-466 # 900007e8 <verify_data+0x8>
800019c2:	0fffe717          	auipc	a4,0xfffe
800019c6:	63e73787          	fld	fa5,1598(a4) # 90000000 <__umoddi3+0xfffde6a>
800019ca:	4601                	li	a2,0
800019cc:	1f400593          	li	a1,500
800019d0:	a019                	j	800019d6 <main+0x9c>
800019d2:	ff86b787          	fld	fa5,-8(a3)
800019d6:	2390                	fld	fa2,0(a5)
800019d8:	2298                	fld	fa4,0(a3)
800019da:	2794                	fld	fa3,8(a5)
800019dc:	a2c7a553          	feq.d	a0,fa5,fa2
800019e0:	06c1                	addi	a3,a3,16
800019e2:	a2d72753          	feq.d	a4,fa4,fa3
800019e6:	07c1                	addi	a5,a5,16
800019e8:	cf19                	beqz	a4,80001a06 <main+0xcc>
800019ea:	cd11                	beqz	a0,80001a06 <main+0xcc>
800019ec:	0609                	addi	a2,a2,2
800019ee:	feb612e3          	bne	a2,a1,800019d2 <main+0x98>
800019f2:	4501                	li	a0,0
800019f4:	7c010113          	addi	sp,sp,1984
800019f8:	7ec12083          	lw	ra,2028(sp)
800019fc:	7e812403          	lw	s0,2024(sp)
80001a00:	7f010113          	addi	sp,sp,2032
80001a04:	8082                	ret
80001a06:	0605                	addi	a2,a2,1
80001a08:	9532                	add	a0,a0,a2
80001a0a:	b7ed                	j	800019f4 <main+0xba>
80001a0c:	1141                	addi	sp,sp,-16
80001a0e:	10008517          	auipc	a0,0x10008
80001a12:	efe50513          	addi	a0,a0,-258 # 9000990c <val+0x4c6c>
80001a16:	c606                	sw	ra,12(sp)
80001a18:	3191                	jal	8000165c <printstr>
80001a1a:	40b2                	lw	ra,12(sp)
80001a1c:	557d                	li	a0,-1
80001a1e:	0141                	addi	sp,sp,16
80001a20:	8082                	ret

Disassembly of section .text.__moddi3:

80001a22 <__moddi3>:
80001a22:	4801                	li	a6,0
80001a24:	1205c163          	bltz	a1,80001b46 <__moddi3+0x124>
80001a28:	0006d963          	bgez	a3,80001a3a <__moddi3+0x18>
80001a2c:	40c00633          	neg	a2,a2
80001a30:	00c037b3          	snez	a5,a2
80001a34:	40d006b3          	neg	a3,a3
80001a38:	8e9d                	sub	a3,a3,a5
80001a3a:	87b6                	mv	a5,a3
80001a3c:	88b2                	mv	a7,a2
80001a3e:	8e2a                	mv	t3,a0
80001a40:	8eae                	mv	t4,a1
80001a42:	eacd                	bnez	a3,80001af4 <__moddi3+0xd2>
80001a44:	10c5fa63          	bleu	a2,a1,80001b58 <__moddi3+0x136>
80001a48:	6741                	lui	a4,0x10
80001a4a:	1ce66063          	bltu	a2,a4,80001c0a <__moddi3+0x1e8>
80001a4e:	010007b7          	lui	a5,0x1000
80001a52:	36f66f63          	bltu	a2,a5,80001dd0 <__moddi3+0x3ae>
80001a56:	01865693          	srli	a3,a2,0x18
80001a5a:	47e1                	li	a5,24
80001a5c:	10008717          	auipc	a4,0x10008
80001a60:	f2470713          	addi	a4,a4,-220 # 90009980 <__clz_tab>
80001a64:	9736                	add	a4,a4,a3
80001a66:	00074683          	lbu	a3,0(a4)
80001a6a:	02000313          	li	t1,32
80001a6e:	97b6                	add	a5,a5,a3
80001a70:	40f30333          	sub	t1,t1,a5
80001a74:	00030c63          	beqz	t1,80001a8c <__moddi3+0x6a>
80001a78:	006595b3          	sll	a1,a1,t1
80001a7c:	00f557b3          	srl	a5,a0,a5
80001a80:	006618b3          	sll	a7,a2,t1
80001a84:	00b7eeb3          	or	t4,a5,a1
80001a88:	00651e33          	sll	t3,a0,t1
80001a8c:	0108d613          	srli	a2,a7,0x10
80001a90:	02ced7b3          	divu	a5,t4,a2
80001a94:	01089513          	slli	a0,a7,0x10
80001a98:	8141                	srli	a0,a0,0x10
80001a9a:	010e5713          	srli	a4,t3,0x10
80001a9e:	02cef6b3          	remu	a3,t4,a2
80001aa2:	02f507b3          	mul	a5,a0,a5
80001aa6:	06c2                	slli	a3,a3,0x10
80001aa8:	8f55                	or	a4,a4,a3
80001aaa:	00f77863          	bleu	a5,a4,80001aba <__moddi3+0x98>
80001aae:	9746                	add	a4,a4,a7
80001ab0:	01176563          	bltu	a4,a7,80001aba <__moddi3+0x98>
80001ab4:	00f77363          	bleu	a5,a4,80001aba <__moddi3+0x98>
80001ab8:	9746                	add	a4,a4,a7
80001aba:	8f1d                	sub	a4,a4,a5
80001abc:	02c756b3          	divu	a3,a4,a2
80001ac0:	010e1793          	slli	a5,t3,0x10
80001ac4:	83c1                	srli	a5,a5,0x10
80001ac6:	02c77733          	remu	a4,a4,a2
80001aca:	02d50533          	mul	a0,a0,a3
80001ace:	0742                	slli	a4,a4,0x10
80001ad0:	8fd9                	or	a5,a5,a4
80001ad2:	10a7e763          	bltu	a5,a0,80001be0 <__moddi3+0x1be>
80001ad6:	40a78533          	sub	a0,a5,a0
80001ada:	00655533          	srl	a0,a0,t1
80001ade:	4581                	li	a1,0
80001ae0:	00080963          	beqz	a6,80001af2 <__moddi3+0xd0>
80001ae4:	40a00533          	neg	a0,a0
80001ae8:	00a037b3          	snez	a5,a0
80001aec:	40b005b3          	neg	a1,a1
80001af0:	8d9d                	sub	a1,a1,a5
80001af2:	8082                	ret
80001af4:	fed5e6e3          	bltu	a1,a3,80001ae0 <__moddi3+0xbe>
80001af8:	67c1                	lui	a5,0x10
80001afa:	12f6e163          	bltu	a3,a5,80001c1c <__moddi3+0x1fa>
80001afe:	010007b7          	lui	a5,0x1000
80001b02:	2cf6e363          	bltu	a3,a5,80001dc8 <__moddi3+0x3a6>
80001b06:	0186d893          	srli	a7,a3,0x18
80001b0a:	4761                	li	a4,24
80001b0c:	10008797          	auipc	a5,0x10008
80001b10:	e7478793          	addi	a5,a5,-396 # 90009980 <__clz_tab>
80001b14:	97c6                	add	a5,a5,a7
80001b16:	0007cf03          	lbu	t5,0(a5)
80001b1a:	02000e13          	li	t3,32
80001b1e:	9f3a                	add	t5,t5,a4
80001b20:	41ee0e33          	sub	t3,t3,t5
80001b24:	180e1063          	bnez	t3,80001ca4 <__moddi3+0x282>
80001b28:	00b6e563          	bltu	a3,a1,80001b32 <__moddi3+0x110>
80001b2c:	88aa                	mv	a7,a0
80001b2e:	00c56963          	bltu	a0,a2,80001b40 <__moddi3+0x11e>
80001b32:	40c508b3          	sub	a7,a0,a2
80001b36:	8d95                	sub	a1,a1,a3
80001b38:	011536b3          	sltu	a3,a0,a7
80001b3c:	40d58eb3          	sub	t4,a1,a3
80001b40:	8546                	mv	a0,a7
80001b42:	85f6                	mv	a1,t4
80001b44:	bf71                	j	80001ae0 <__moddi3+0xbe>
80001b46:	40a00533          	neg	a0,a0
80001b4a:	00a037b3          	snez	a5,a0
80001b4e:	40b005b3          	neg	a1,a1
80001b52:	8d9d                	sub	a1,a1,a5
80001b54:	587d                	li	a6,-1
80001b56:	bdc9                	j	80001a28 <__moddi3+0x6>
80001b58:	e601                	bnez	a2,80001b60 <__moddi3+0x13e>
80001b5a:	4885                	li	a7,1
80001b5c:	02d8d8b3          	divu	a7,a7,a3
80001b60:	6741                	lui	a4,0x10
80001b62:	08e8eb63          	bltu	a7,a4,80001bf8 <__moddi3+0x1d6>
80001b66:	010007b7          	lui	a5,0x1000
80001b6a:	24f8eb63          	bltu	a7,a5,80001dc0 <__moddi3+0x39e>
80001b6e:	0188d693          	srli	a3,a7,0x18
80001b72:	47e1                	li	a5,24
80001b74:	10008717          	auipc	a4,0x10008
80001b78:	e0c70713          	addi	a4,a4,-500 # 90009980 <__clz_tab>
80001b7c:	9736                	add	a4,a4,a3
80001b7e:	00074703          	lbu	a4,0(a4)
80001b82:	02000313          	li	t1,32
80001b86:	97ba                	add	a5,a5,a4
80001b88:	40f30333          	sub	t1,t1,a5
80001b8c:	0a031063          	bnez	t1,80001c2c <__moddi3+0x20a>
80001b90:	01089e93          	slli	t4,a7,0x10
80001b94:	411585b3          	sub	a1,a1,a7
80001b98:	0108d613          	srli	a2,a7,0x10
80001b9c:	010ede93          	srli	t4,t4,0x10
80001ba0:	010e5713          	srli	a4,t3,0x10
80001ba4:	02c5d6b3          	divu	a3,a1,a2
80001ba8:	02c5f5b3          	remu	a1,a1,a2
80001bac:	03d686b3          	mul	a3,a3,t4
80001bb0:	05c2                	slli	a1,a1,0x10
80001bb2:	8f4d                	or	a4,a4,a1
80001bb4:	00d77763          	bleu	a3,a4,80001bc2 <__moddi3+0x1a0>
80001bb8:	9746                	add	a4,a4,a7
80001bba:	01176463          	bltu	a4,a7,80001bc2 <__moddi3+0x1a0>
80001bbe:	22d76463          	bltu	a4,a3,80001de6 <__moddi3+0x3c4>
80001bc2:	8f15                	sub	a4,a4,a3
80001bc4:	02c75533          	divu	a0,a4,a2
80001bc8:	0e42                	slli	t3,t3,0x10
80001bca:	010e5e13          	srli	t3,t3,0x10
80001bce:	02c77733          	remu	a4,a4,a2
80001bd2:	03d50533          	mul	a0,a0,t4
80001bd6:	0742                	slli	a4,a4,0x10
80001bd8:	01c767b3          	or	a5,a4,t3
80001bdc:	00a7f863          	bleu	a0,a5,80001bec <__moddi3+0x1ca>
80001be0:	97c6                	add	a5,a5,a7
80001be2:	0117e563          	bltu	a5,a7,80001bec <__moddi3+0x1ca>
80001be6:	00a7f363          	bleu	a0,a5,80001bec <__moddi3+0x1ca>
80001bea:	97c6                	add	a5,a5,a7
80001bec:	40a78533          	sub	a0,a5,a0
80001bf0:	00655533          	srl	a0,a0,t1
80001bf4:	4581                	li	a1,0
80001bf6:	b5ed                	j	80001ae0 <__moddi3+0xbe>
80001bf8:	0ff00713          	li	a4,255
80001bfc:	86c6                	mv	a3,a7
80001bfe:	f7177be3          	bleu	a7,a4,80001b74 <__moddi3+0x152>
80001c02:	0088d693          	srli	a3,a7,0x8
80001c06:	47a1                	li	a5,8
80001c08:	b7b5                	j	80001b74 <__moddi3+0x152>
80001c0a:	0ff00713          	li	a4,255
80001c0e:	86b2                	mv	a3,a2
80001c10:	e4c776e3          	bleu	a2,a4,80001a5c <__moddi3+0x3a>
80001c14:	00865693          	srli	a3,a2,0x8
80001c18:	47a1                	li	a5,8
80001c1a:	b589                	j	80001a5c <__moddi3+0x3a>
80001c1c:	0ff00793          	li	a5,255
80001c20:	1ad7fc63          	bleu	a3,a5,80001dd8 <__moddi3+0x3b6>
80001c24:	0086d893          	srli	a7,a3,0x8
80001c28:	4721                	li	a4,8
80001c2a:	b5cd                	j	80001b0c <__moddi3+0xea>
80001c2c:	006898b3          	sll	a7,a7,t1
80001c30:	00f5d733          	srl	a4,a1,a5
80001c34:	0108d613          	srli	a2,a7,0x10
80001c38:	02c756b3          	divu	a3,a4,a2
80001c3c:	01089e93          	slli	t4,a7,0x10
80001c40:	00f557b3          	srl	a5,a0,a5
80001c44:	010ede93          	srli	t4,t4,0x10
80001c48:	006595b3          	sll	a1,a1,t1
80001c4c:	8ddd                	or	a1,a1,a5
80001c4e:	0105df13          	srli	t5,a1,0x10
80001c52:	00651e33          	sll	t3,a0,t1
80001c56:	02c77733          	remu	a4,a4,a2
80001c5a:	02de87b3          	mul	a5,t4,a3
80001c5e:	01071693          	slli	a3,a4,0x10
80001c62:	01e6e6b3          	or	a3,a3,t5
80001c66:	00f6f863          	bleu	a5,a3,80001c76 <__moddi3+0x254>
80001c6a:	96c6                	add	a3,a3,a7
80001c6c:	0116e563          	bltu	a3,a7,80001c76 <__moddi3+0x254>
80001c70:	00f6f363          	bleu	a5,a3,80001c76 <__moddi3+0x254>
80001c74:	96c6                	add	a3,a3,a7
80001c76:	8e9d                	sub	a3,a3,a5
80001c78:	02c6d733          	divu	a4,a3,a2
80001c7c:	01059793          	slli	a5,a1,0x10
80001c80:	83c1                	srli	a5,a5,0x10
80001c82:	02c6f6b3          	remu	a3,a3,a2
80001c86:	02ee8733          	mul	a4,t4,a4
80001c8a:	01069593          	slli	a1,a3,0x10
80001c8e:	8ddd                	or	a1,a1,a5
80001c90:	00e5f863          	bleu	a4,a1,80001ca0 <__moddi3+0x27e>
80001c94:	95c6                	add	a1,a1,a7
80001c96:	0115e563          	bltu	a1,a7,80001ca0 <__moddi3+0x27e>
80001c9a:	00e5f363          	bleu	a4,a1,80001ca0 <__moddi3+0x27e>
80001c9e:	95c6                	add	a1,a1,a7
80001ca0:	8d99                	sub	a1,a1,a4
80001ca2:	bdfd                	j	80001ba0 <__moddi3+0x17e>
80001ca4:	01e65333          	srl	t1,a2,t5
80001ca8:	01c696b3          	sll	a3,a3,t3
80001cac:	00d366b3          	or	a3,t1,a3
80001cb0:	01e5d8b3          	srl	a7,a1,t5
80001cb4:	0106d713          	srli	a4,a3,0x10
80001cb8:	02e8d333          	divu	t1,a7,a4
80001cbc:	01069f93          	slli	t6,a3,0x10
80001cc0:	010fdf93          	srli	t6,t6,0x10
80001cc4:	01e557b3          	srl	a5,a0,t5
80001cc8:	01c595b3          	sll	a1,a1,t3
80001ccc:	8ddd                	or	a1,a1,a5
80001cce:	0105d293          	srli	t0,a1,0x10
80001cd2:	01c617b3          	sll	a5,a2,t3
80001cd6:	01c51533          	sll	a0,a0,t3
80001cda:	02e8f8b3          	remu	a7,a7,a4
80001cde:	026f8eb3          	mul	t4,t6,t1
80001ce2:	08c2                	slli	a7,a7,0x10
80001ce4:	0058e633          	or	a2,a7,t0
80001ce8:	01d67b63          	bleu	t4,a2,80001cfe <__moddi3+0x2dc>
80001cec:	9636                	add	a2,a2,a3
80001cee:	fff30893          	addi	a7,t1,-1
80001cf2:	0ed66863          	bltu	a2,a3,80001de2 <__moddi3+0x3c0>
80001cf6:	0fd67663          	bleu	t4,a2,80001de2 <__moddi3+0x3c0>
80001cfa:	1379                	addi	t1,t1,-2
80001cfc:	9636                	add	a2,a2,a3
80001cfe:	41d60633          	sub	a2,a2,t4
80001d02:	02e658b3          	divu	a7,a2,a4
80001d06:	05c2                	slli	a1,a1,0x10
80001d08:	81c1                	srli	a1,a1,0x10
80001d0a:	02e67633          	remu	a2,a2,a4
80001d0e:	031f8fb3          	mul	t6,t6,a7
80001d12:	01061713          	slli	a4,a2,0x10
80001d16:	8f4d                	or	a4,a4,a1
80001d18:	01f77b63          	bleu	t6,a4,80001d2e <__moddi3+0x30c>
80001d1c:	9736                	add	a4,a4,a3
80001d1e:	fff88613          	addi	a2,a7,-1
80001d22:	0ad76e63          	bltu	a4,a3,80001dde <__moddi3+0x3bc>
80001d26:	0bf77c63          	bleu	t6,a4,80001dde <__moddi3+0x3bc>
80001d2a:	18f9                	addi	a7,a7,-2
80001d2c:	9736                	add	a4,a4,a3
80001d2e:	0342                	slli	t1,t1,0x10
80001d30:	63c1                	lui	t2,0x10
80001d32:	01136333          	or	t1,t1,a7
80001d36:	fff38893          	addi	a7,t2,-1 # ffff <_tbss_end+0xffbb>
80001d3a:	01137eb3          	and	t4,t1,a7
80001d3e:	0107d593          	srli	a1,a5,0x10
80001d42:	01035313          	srli	t1,t1,0x10
80001d46:	0117f8b3          	and	a7,a5,a7
80001d4a:	031e82b3          	mul	t0,t4,a7
80001d4e:	41f70733          	sub	a4,a4,t6
80001d52:	031308b3          	mul	a7,t1,a7
80001d56:	0102d613          	srli	a2,t0,0x10
80001d5a:	02be8eb3          	mul	t4,t4,a1
80001d5e:	9ec6                	add	t4,t4,a7
80001d60:	9676                	add	a2,a2,t4
80001d62:	02b30333          	mul	t1,t1,a1
80001d66:	01167363          	bleu	a7,a2,80001d6c <__moddi3+0x34a>
80001d6a:	931e                	add	t1,t1,t2
80001d6c:	68c1                	lui	a7,0x10
80001d6e:	18fd                	addi	a7,a7,-1
80001d70:	01065593          	srli	a1,a2,0x10
80001d74:	01167633          	and	a2,a2,a7
80001d78:	0642                	slli	a2,a2,0x10
80001d7a:	0112f2b3          	and	t0,t0,a7
80001d7e:	932e                	add	t1,t1,a1
80001d80:	9616                	add	a2,a2,t0
80001d82:	00676863          	bltu	a4,t1,80001d92 <__moddi3+0x370>
80001d86:	06670263          	beq	a4,t1,80001dea <__moddi3+0x3c8>
80001d8a:	406705b3          	sub	a1,a4,t1
80001d8e:	87b2                	mv	a5,a2
80001d90:	a811                	j	80001da4 <__moddi3+0x382>
80001d92:	40f607b3          	sub	a5,a2,a5
80001d96:	40d305b3          	sub	a1,t1,a3
80001d9a:	00f63633          	sltu	a2,a2,a5
80001d9e:	8d91                	sub	a1,a1,a2
80001da0:	40b705b3          	sub	a1,a4,a1
80001da4:	40f507b3          	sub	a5,a0,a5
80001da8:	00f53533          	sltu	a0,a0,a5
80001dac:	8d89                	sub	a1,a1,a0
80001dae:	01e59f33          	sll	t5,a1,t5
80001db2:	01c7d533          	srl	a0,a5,t3
80001db6:	00af6533          	or	a0,t5,a0
80001dba:	01c5d5b3          	srl	a1,a1,t3
80001dbe:	b30d                	j	80001ae0 <__moddi3+0xbe>
80001dc0:	0108d693          	srli	a3,a7,0x10
80001dc4:	47c1                	li	a5,16
80001dc6:	b37d                	j	80001b74 <__moddi3+0x152>
80001dc8:	0106d893          	srli	a7,a3,0x10
80001dcc:	4741                	li	a4,16
80001dce:	bb3d                	j	80001b0c <__moddi3+0xea>
80001dd0:	01065693          	srli	a3,a2,0x10
80001dd4:	47c1                	li	a5,16
80001dd6:	b159                	j	80001a5c <__moddi3+0x3a>
80001dd8:	88b6                	mv	a7,a3
80001dda:	4701                	li	a4,0
80001ddc:	bb05                	j	80001b0c <__moddi3+0xea>
80001dde:	88b2                	mv	a7,a2
80001de0:	b7b9                	j	80001d2e <__moddi3+0x30c>
80001de2:	8346                	mv	t1,a7
80001de4:	bf29                	j	80001cfe <__moddi3+0x2dc>
80001de6:	9746                	add	a4,a4,a7
80001de8:	bbe9                	j	80001bc2 <__moddi3+0x1a0>
80001dea:	fac564e3          	bltu	a0,a2,80001d92 <__moddi3+0x370>
80001dee:	87b2                	mv	a5,a2
80001df0:	4581                	li	a1,0
80001df2:	bf4d                	j	80001da4 <__moddi3+0x382>

Disassembly of section .text.__udivdi3:

80001df4 <__udivdi3>:
80001df4:	87b6                	mv	a5,a3
80001df6:	88b2                	mv	a7,a2
80001df8:	832a                	mv	t1,a0
80001dfa:	882e                	mv	a6,a1
80001dfc:	eacd                	bnez	a3,80001eae <__udivdi3+0xba>
80001dfe:	0ec5fa63          	bleu	a2,a1,80001ef2 <__udivdi3+0xfe>
80001e02:	6741                	lui	a4,0x10
80001e04:	1ae66e63          	bltu	a2,a4,80001fc0 <__udivdi3+0x1cc>
80001e08:	010007b7          	lui	a5,0x1000
80001e0c:	34f66a63          	bltu	a2,a5,80002160 <__udivdi3+0x36c>
80001e10:	01865693          	srli	a3,a2,0x18
80001e14:	47e1                	li	a5,24
80001e16:	10008717          	auipc	a4,0x10008
80001e1a:	b6a70713          	addi	a4,a4,-1174 # 90009980 <__clz_tab>
80001e1e:	9736                	add	a4,a4,a3
80001e20:	00074703          	lbu	a4,0(a4)
80001e24:	97ba                	add	a5,a5,a4
80001e26:	02000713          	li	a4,32
80001e2a:	8f1d                	sub	a4,a4,a5
80001e2c:	cb19                	beqz	a4,80001e42 <__udivdi3+0x4e>
80001e2e:	00e59833          	sll	a6,a1,a4
80001e32:	00f557b3          	srl	a5,a0,a5
80001e36:	00e618b3          	sll	a7,a2,a4
80001e3a:	0107e833          	or	a6,a5,a6
80001e3e:	00e51333          	sll	t1,a0,a4
80001e42:	0108d613          	srli	a2,a7,0x10
80001e46:	02c85533          	divu	a0,a6,a2
80001e4a:	01089693          	slli	a3,a7,0x10
80001e4e:	82c1                	srli	a3,a3,0x10
80001e50:	01035793          	srli	a5,t1,0x10
80001e54:	02c87733          	remu	a4,a6,a2
80001e58:	02a685b3          	mul	a1,a3,a0
80001e5c:	0742                	slli	a4,a4,0x10
80001e5e:	00f76833          	or	a6,a4,a5
80001e62:	00b87a63          	bleu	a1,a6,80001e76 <__udivdi3+0x82>
80001e66:	9846                	add	a6,a6,a7
80001e68:	fff50793          	addi	a5,a0,-1
80001e6c:	01186463          	bltu	a6,a7,80001e74 <__udivdi3+0x80>
80001e70:	30b86d63          	bltu	a6,a1,8000218a <__udivdi3+0x396>
80001e74:	853e                	mv	a0,a5
80001e76:	40b80833          	sub	a6,a6,a1
80001e7a:	02c85733          	divu	a4,a6,a2
80001e7e:	0342                	slli	t1,t1,0x10
80001e80:	01035313          	srli	t1,t1,0x10
80001e84:	02c87833          	remu	a6,a6,a2
80001e88:	02e686b3          	mul	a3,a3,a4
80001e8c:	0842                	slli	a6,a6,0x10
80001e8e:	00686833          	or	a6,a6,t1
80001e92:	00d87a63          	bleu	a3,a6,80001ea6 <__udivdi3+0xb2>
80001e96:	9846                	add	a6,a6,a7
80001e98:	fff70793          	addi	a5,a4,-1
80001e9c:	13186b63          	bltu	a6,a7,80001fd2 <__udivdi3+0x1de>
80001ea0:	1779                	addi	a4,a4,-2
80001ea2:	12d87863          	bleu	a3,a6,80001fd2 <__udivdi3+0x1de>
80001ea6:	0542                	slli	a0,a0,0x10
80001ea8:	8d59                	or	a0,a0,a4
80001eaa:	4581                	li	a1,0
80001eac:	8082                	ret
80001eae:	0ed5e563          	bltu	a1,a3,80001f98 <__udivdi3+0x1a4>
80001eb2:	67c1                	lui	a5,0x10
80001eb4:	0ef6e563          	bltu	a3,a5,80001f9e <__udivdi3+0x1aa>
80001eb8:	010007b7          	lui	a5,0x1000
80001ebc:	28f6e763          	bltu	a3,a5,8000214a <__udivdi3+0x356>
80001ec0:	0186d713          	srli	a4,a3,0x18
80001ec4:	4861                	li	a6,24
80001ec6:	10008797          	auipc	a5,0x10008
80001eca:	aba78793          	addi	a5,a5,-1350 # 90009980 <__clz_tab>
80001ece:	97ba                	add	a5,a5,a4
80001ed0:	0007c703          	lbu	a4,0(a5)
80001ed4:	02000793          	li	a5,32
80001ed8:	9742                	add	a4,a4,a6
80001eda:	40e78333          	sub	t1,a5,a4
80001ede:	0e031e63          	bnez	t1,80001fda <__udivdi3+0x1e6>
80001ee2:	28b6e363          	bltu	a3,a1,80002168 <__udivdi3+0x374>
80001ee6:	00c53533          	sltu	a0,a0,a2
80001eea:	00154513          	xori	a0,a0,1
80001eee:	4581                	li	a1,0
80001ef0:	8082                	ret
80001ef2:	e601                	bnez	a2,80001efa <__udivdi3+0x106>
80001ef4:	4705                	li	a4,1
80001ef6:	02c758b3          	divu	a7,a4,a2
80001efa:	6741                	lui	a4,0x10
80001efc:	0ae8e963          	bltu	a7,a4,80001fae <__udivdi3+0x1ba>
80001f00:	010007b7          	lui	a5,0x1000
80001f04:	24f8ea63          	bltu	a7,a5,80002158 <__udivdi3+0x364>
80001f08:	0188d693          	srli	a3,a7,0x18
80001f0c:	47e1                	li	a5,24
80001f0e:	10008717          	auipc	a4,0x10008
80001f12:	a7270713          	addi	a4,a4,-1422 # 90009980 <__clz_tab>
80001f16:	9736                	add	a4,a4,a3
80001f18:	00074683          	lbu	a3,0(a4)
80001f1c:	02000f93          	li	t6,32
80001f20:	96be                	add	a3,a3,a5
80001f22:	40df8fb3          	sub	t6,t6,a3
80001f26:	160f9e63          	bnez	t6,800020a2 <__udivdi3+0x2ae>
80001f2a:	01089e93          	slli	t4,a7,0x10
80001f2e:	41158733          	sub	a4,a1,a7
80001f32:	0108df13          	srli	t5,a7,0x10
80001f36:	010ede93          	srli	t4,t4,0x10
80001f3a:	4585                	li	a1,1
80001f3c:	01035793          	srli	a5,t1,0x10
80001f40:	03e75533          	divu	a0,a4,t5
80001f44:	03e77733          	remu	a4,a4,t5
80001f48:	03d506b3          	mul	a3,a0,t4
80001f4c:	0742                	slli	a4,a4,0x10
80001f4e:	8fd9                	or	a5,a5,a4
80001f50:	00d7fa63          	bleu	a3,a5,80001f64 <__udivdi3+0x170>
80001f54:	97c6                	add	a5,a5,a7
80001f56:	fff50713          	addi	a4,a0,-1
80001f5a:	0117e463          	bltu	a5,a7,80001f62 <__udivdi3+0x16e>
80001f5e:	22d7e963          	bltu	a5,a3,80002190 <__udivdi3+0x39c>
80001f62:	853a                	mv	a0,a4
80001f64:	8f95                	sub	a5,a5,a3
80001f66:	03e7d633          	divu	a2,a5,t5
80001f6a:	0342                	slli	t1,t1,0x10
80001f6c:	01035313          	srli	t1,t1,0x10
80001f70:	03e7f7b3          	remu	a5,a5,t5
80001f74:	03d60eb3          	mul	t4,a2,t4
80001f78:	07c2                	slli	a5,a5,0x10
80001f7a:	0067e7b3          	or	a5,a5,t1
80001f7e:	01d7fa63          	bleu	t4,a5,80001f92 <__udivdi3+0x19e>
80001f82:	97c6                	add	a5,a5,a7
80001f84:	fff60713          	addi	a4,a2,-1
80001f88:	0517e763          	bltu	a5,a7,80001fd6 <__udivdi3+0x1e2>
80001f8c:	1679                	addi	a2,a2,-2
80001f8e:	05d7f463          	bleu	t4,a5,80001fd6 <__udivdi3+0x1e2>
80001f92:	0542                	slli	a0,a0,0x10
80001f94:	8d51                	or	a0,a0,a2
80001f96:	8082                	ret
80001f98:	4581                	li	a1,0
80001f9a:	4501                	li	a0,0
80001f9c:	8082                	ret
80001f9e:	0ff00793          	li	a5,255
80001fa2:	1ad7f863          	bleu	a3,a5,80002152 <__udivdi3+0x35e>
80001fa6:	0086d713          	srli	a4,a3,0x8
80001faa:	4821                	li	a6,8
80001fac:	bf29                	j	80001ec6 <__udivdi3+0xd2>
80001fae:	0ff00713          	li	a4,255
80001fb2:	86c6                	mv	a3,a7
80001fb4:	f5177de3          	bleu	a7,a4,80001f0e <__udivdi3+0x11a>
80001fb8:	0088d693          	srli	a3,a7,0x8
80001fbc:	47a1                	li	a5,8
80001fbe:	bf81                	j	80001f0e <__udivdi3+0x11a>
80001fc0:	0ff00713          	li	a4,255
80001fc4:	86b2                	mv	a3,a2
80001fc6:	e4c778e3          	bleu	a2,a4,80001e16 <__udivdi3+0x22>
80001fca:	00865693          	srli	a3,a2,0x8
80001fce:	47a1                	li	a5,8
80001fd0:	b599                	j	80001e16 <__udivdi3+0x22>
80001fd2:	873e                	mv	a4,a5
80001fd4:	bdc9                	j	80001ea6 <__udivdi3+0xb2>
80001fd6:	863a                	mv	a2,a4
80001fd8:	bf6d                	j	80001f92 <__udivdi3+0x19e>
80001fda:	00e657b3          	srl	a5,a2,a4
80001fde:	006696b3          	sll	a3,a3,t1
80001fe2:	8edd                	or	a3,a3,a5
80001fe4:	00e5d8b3          	srl	a7,a1,a4
80001fe8:	0106df13          	srli	t5,a3,0x10
80001fec:	03e8deb3          	divu	t4,a7,t5
80001ff0:	01069e13          	slli	t3,a3,0x10
80001ff4:	010e5e13          	srli	t3,t3,0x10
80001ff8:	00659833          	sll	a6,a1,t1
80001ffc:	00e55733          	srl	a4,a0,a4
80002000:	01076833          	or	a6,a4,a6
80002004:	01085793          	srli	a5,a6,0x10
80002008:	00661633          	sll	a2,a2,t1
8000200c:	03e8f8b3          	remu	a7,a7,t5
80002010:	03de05b3          	mul	a1,t3,t4
80002014:	08c2                	slli	a7,a7,0x10
80002016:	00f8e7b3          	or	a5,a7,a5
8000201a:	00b7f863          	bleu	a1,a5,8000202a <__udivdi3+0x236>
8000201e:	97b6                	add	a5,a5,a3
80002020:	fffe8713          	addi	a4,t4,-1
80002024:	14d7fa63          	bleu	a3,a5,80002178 <__udivdi3+0x384>
80002028:	8eba                	mv	t4,a4
8000202a:	8f8d                	sub	a5,a5,a1
8000202c:	03e7d733          	divu	a4,a5,t5
80002030:	0842                	slli	a6,a6,0x10
80002032:	01085813          	srli	a6,a6,0x10
80002036:	03e7f7b3          	remu	a5,a5,t5
8000203a:	02ee08b3          	mul	a7,t3,a4
8000203e:	07c2                	slli	a5,a5,0x10
80002040:	0107e5b3          	or	a1,a5,a6
80002044:	0115f863          	bleu	a7,a1,80002054 <__udivdi3+0x260>
80002048:	95b6                	add	a1,a1,a3
8000204a:	fff70793          	addi	a5,a4,-1
8000204e:	12d5f063          	bleu	a3,a1,8000216e <__udivdi3+0x37a>
80002052:	873e                	mv	a4,a5
80002054:	0ec2                	slli	t4,t4,0x10
80002056:	6f41                	lui	t5,0x10
80002058:	00eeeeb3          	or	t4,t4,a4
8000205c:	ffff0793          	addi	a5,t5,-1 # ffff <_tbss_end+0xffbb>
80002060:	00fef733          	and	a4,t4,a5
80002064:	010ed813          	srli	a6,t4,0x10
80002068:	8ff1                	and	a5,a5,a2
8000206a:	8241                	srli	a2,a2,0x10
8000206c:	02f70e33          	mul	t3,a4,a5
80002070:	411585b3          	sub	a1,a1,a7
80002074:	02c70733          	mul	a4,a4,a2
80002078:	010e5693          	srli	a3,t3,0x10
8000207c:	02f807b3          	mul	a5,a6,a5
80002080:	973e                	add	a4,a4,a5
80002082:	9736                	add	a4,a4,a3
80002084:	02c80633          	mul	a2,a6,a2
80002088:	00f77363          	bleu	a5,a4,8000208e <__udivdi3+0x29a>
8000208c:	967a                	add	a2,a2,t5
8000208e:	01075813          	srli	a6,a4,0x10
80002092:	9642                	add	a2,a2,a6
80002094:	0ac5e763          	bltu	a1,a2,80002142 <__udivdi3+0x34e>
80002098:	08c58a63          	beq	a1,a2,8000212c <__udivdi3+0x338>
8000209c:	8576                	mv	a0,t4
8000209e:	4581                	li	a1,0
800020a0:	8082                	ret
800020a2:	01f898b3          	sll	a7,a7,t6
800020a6:	00d5d633          	srl	a2,a1,a3
800020aa:	0108df13          	srli	t5,a7,0x10
800020ae:	03e65e33          	divu	t3,a2,t5
800020b2:	00d557b3          	srl	a5,a0,a3
800020b6:	01089e93          	slli	t4,a7,0x10
800020ba:	01f59733          	sll	a4,a1,t6
800020be:	010ede93          	srli	t4,t4,0x10
800020c2:	8f5d                	or	a4,a4,a5
800020c4:	01075593          	srli	a1,a4,0x10
800020c8:	01f51333          	sll	t1,a0,t6
800020cc:	03e676b3          	remu	a3,a2,t5
800020d0:	03ce87b3          	mul	a5,t4,t3
800020d4:	06c2                	slli	a3,a3,0x10
800020d6:	8ecd                	or	a3,a3,a1
800020d8:	00f6fb63          	bleu	a5,a3,800020ee <__udivdi3+0x2fa>
800020dc:	96c6                	add	a3,a3,a7
800020de:	fffe0613          	addi	a2,t3,-1
800020e2:	0b16e263          	bltu	a3,a7,80002186 <__udivdi3+0x392>
800020e6:	0af6f063          	bleu	a5,a3,80002186 <__udivdi3+0x392>
800020ea:	1e79                	addi	t3,t3,-2
800020ec:	96c6                	add	a3,a3,a7
800020ee:	8e9d                	sub	a3,a3,a5
800020f0:	03e6d7b3          	divu	a5,a3,t5
800020f4:	01071813          	slli	a6,a4,0x10
800020f8:	01085813          	srli	a6,a6,0x10
800020fc:	03e6f6b3          	remu	a3,a3,t5
80002100:	02fe8633          	mul	a2,t4,a5
80002104:	01069713          	slli	a4,a3,0x10
80002108:	01076733          	or	a4,a4,a6
8000210c:	00c77b63          	bleu	a2,a4,80002122 <__udivdi3+0x32e>
80002110:	9746                	add	a4,a4,a7
80002112:	fff78693          	addi	a3,a5,-1 # ffffff <_tbss_end+0xffffbb>
80002116:	07176663          	bltu	a4,a7,80002182 <__udivdi3+0x38e>
8000211a:	06c77463          	bleu	a2,a4,80002182 <__udivdi3+0x38e>
8000211e:	17f9                	addi	a5,a5,-2
80002120:	9746                	add	a4,a4,a7
80002122:	010e1593          	slli	a1,t3,0x10
80002126:	8f11                	sub	a4,a4,a2
80002128:	8ddd                	or	a1,a1,a5
8000212a:	bd09                	j	80001f3c <__udivdi3+0x148>
8000212c:	67c1                	lui	a5,0x10
8000212e:	17fd                	addi	a5,a5,-1
80002130:	8f7d                	and	a4,a4,a5
80002132:	00fe7e33          	and	t3,t3,a5
80002136:	0742                	slli	a4,a4,0x10
80002138:	006517b3          	sll	a5,a0,t1
8000213c:	9772                	add	a4,a4,t3
8000213e:	f4e7ffe3          	bleu	a4,a5,8000209c <__udivdi3+0x2a8>
80002142:	fffe8513          	addi	a0,t4,-1
80002146:	4581                	li	a1,0
80002148:	8082                	ret
8000214a:	0106d713          	srli	a4,a3,0x10
8000214e:	4841                	li	a6,16
80002150:	bb9d                	j	80001ec6 <__udivdi3+0xd2>
80002152:	8736                	mv	a4,a3
80002154:	4801                	li	a6,0
80002156:	bb85                	j	80001ec6 <__udivdi3+0xd2>
80002158:	0108d693          	srli	a3,a7,0x10
8000215c:	47c1                	li	a5,16
8000215e:	bb45                	j	80001f0e <__udivdi3+0x11a>
80002160:	01065693          	srli	a3,a2,0x10
80002164:	47c1                	li	a5,16
80002166:	b945                	j	80001e16 <__udivdi3+0x22>
80002168:	4581                	li	a1,0
8000216a:	4505                	li	a0,1
8000216c:	8082                	ret
8000216e:	ef15f2e3          	bleu	a7,a1,80002052 <__udivdi3+0x25e>
80002172:	1779                	addi	a4,a4,-2
80002174:	95b6                	add	a1,a1,a3
80002176:	bdf9                	j	80002054 <__udivdi3+0x260>
80002178:	eab7f8e3          	bleu	a1,a5,80002028 <__udivdi3+0x234>
8000217c:	1ef9                	addi	t4,t4,-2
8000217e:	97b6                	add	a5,a5,a3
80002180:	b56d                	j	8000202a <__udivdi3+0x236>
80002182:	87b6                	mv	a5,a3
80002184:	bf79                	j	80002122 <__udivdi3+0x32e>
80002186:	8e32                	mv	t3,a2
80002188:	b79d                	j	800020ee <__udivdi3+0x2fa>
8000218a:	1579                	addi	a0,a0,-2
8000218c:	9846                	add	a6,a6,a7
8000218e:	b1e5                	j	80001e76 <__udivdi3+0x82>
80002190:	1579                	addi	a0,a0,-2
80002192:	97c6                	add	a5,a5,a7
80002194:	bbc1                	j	80001f64 <__udivdi3+0x170>

Disassembly of section .text.__umoddi3:

80002196 <__umoddi3>:
80002196:	87b6                	mv	a5,a3
80002198:	8832                	mv	a6,a2
8000219a:	832a                	mv	t1,a0
8000219c:	8e2e                	mv	t3,a1
8000219e:	e6d5                	bnez	a3,8000224a <__umoddi3+0xb4>
800021a0:	0ec5fe63          	bleu	a2,a1,8000229c <__umoddi3+0x106>
800021a4:	6741                	lui	a4,0x10
800021a6:	1ae67263          	bleu	a4,a2,8000234a <__umoddi3+0x1b4>
800021aa:	0ff00713          	li	a4,255
800021ae:	86b2                	mv	a3,a2
800021b0:	00c77563          	bleu	a2,a4,800021ba <__umoddi3+0x24>
800021b4:	00865693          	srli	a3,a2,0x8
800021b8:	47a1                	li	a5,8
800021ba:	10007717          	auipc	a4,0x10007
800021be:	7c670713          	addi	a4,a4,1990 # 90009980 <__clz_tab>
800021c2:	9736                	add	a4,a4,a3
800021c4:	00074683          	lbu	a3,0(a4)
800021c8:	02000893          	li	a7,32
800021cc:	97b6                	add	a5,a5,a3
800021ce:	40f888b3          	sub	a7,a7,a5
800021d2:	00088c63          	beqz	a7,800021ea <__umoddi3+0x54>
800021d6:	011595b3          	sll	a1,a1,a7
800021da:	00f557b3          	srl	a5,a0,a5
800021de:	01161833          	sll	a6,a2,a7
800021e2:	00b7ee33          	or	t3,a5,a1
800021e6:	01151333          	sll	t1,a0,a7
800021ea:	01085613          	srli	a2,a6,0x10
800021ee:	02ce57b3          	divu	a5,t3,a2
800021f2:	01081513          	slli	a0,a6,0x10
800021f6:	8141                	srli	a0,a0,0x10
800021f8:	01035713          	srli	a4,t1,0x10
800021fc:	02ce76b3          	remu	a3,t3,a2
80002200:	02f507b3          	mul	a5,a0,a5
80002204:	06c2                	slli	a3,a3,0x10
80002206:	8f55                	or	a4,a4,a3
80002208:	00f77763          	bleu	a5,a4,80002216 <__umoddi3+0x80>
8000220c:	9742                	add	a4,a4,a6
8000220e:	01076463          	bltu	a4,a6,80002216 <__umoddi3+0x80>
80002212:	30f76163          	bltu	a4,a5,80002514 <__umoddi3+0x37e>
80002216:	8f1d                	sub	a4,a4,a5
80002218:	02c756b3          	divu	a3,a4,a2
8000221c:	01031793          	slli	a5,t1,0x10
80002220:	83c1                	srli	a5,a5,0x10
80002222:	02c77733          	remu	a4,a4,a2
80002226:	02d50533          	mul	a0,a0,a3
8000222a:	0742                	slli	a4,a4,0x10
8000222c:	8fd9                	or	a5,a5,a4
8000222e:	00a7f863          	bleu	a0,a5,8000223e <__umoddi3+0xa8>
80002232:	97c2                	add	a5,a5,a6
80002234:	0107e563          	bltu	a5,a6,8000223e <__umoddi3+0xa8>
80002238:	00a7f363          	bleu	a0,a5,8000223e <__umoddi3+0xa8>
8000223c:	97c2                	add	a5,a5,a6
8000223e:	40a78533          	sub	a0,a5,a0
80002242:	01155533          	srl	a0,a0,a7
80002246:	4581                	li	a1,0
80002248:	8082                	ret
8000224a:	fed5efe3          	bltu	a1,a3,80002248 <__umoddi3+0xb2>
8000224e:	67c1                	lui	a5,0x10
80002250:	0cf6ec63          	bltu	a3,a5,80002328 <__umoddi3+0x192>
80002254:	010007b7          	lui	a5,0x1000
80002258:	28f6e563          	bltu	a3,a5,800024e2 <__umoddi3+0x34c>
8000225c:	0186d813          	srli	a6,a3,0x18
80002260:	4761                	li	a4,24
80002262:	10007797          	auipc	a5,0x10007
80002266:	71e78793          	addi	a5,a5,1822 # 90009980 <__clz_tab>
8000226a:	97c2                	add	a5,a5,a6
8000226c:	0007ce83          	lbu	t4,0(a5)
80002270:	02000313          	li	t1,32
80002274:	9eba                	add	t4,t4,a4
80002276:	41d30333          	sub	t1,t1,t4
8000227a:	0e031063          	bnez	t1,8000235a <__umoddi3+0x1c4>
8000227e:	00b6e563          	bltu	a3,a1,80002288 <__umoddi3+0xf2>
80002282:	882a                	mv	a6,a0
80002284:	00c56963          	bltu	a0,a2,80002296 <__umoddi3+0x100>
80002288:	40c50833          	sub	a6,a0,a2
8000228c:	8d95                	sub	a1,a1,a3
8000228e:	010536b3          	sltu	a3,a0,a6
80002292:	40d58e33          	sub	t3,a1,a3
80002296:	8542                	mv	a0,a6
80002298:	85f2                	mv	a1,t3
8000229a:	8082                	ret
8000229c:	e601                	bnez	a2,800022a4 <__umoddi3+0x10e>
8000229e:	4705                	li	a4,1
800022a0:	02c75833          	divu	a6,a4,a2
800022a4:	6741                	lui	a4,0x10
800022a6:	08e86963          	bltu	a6,a4,80002338 <__umoddi3+0x1a2>
800022aa:	010007b7          	lui	a5,0x1000
800022ae:	24f86163          	bltu	a6,a5,800024f0 <__umoddi3+0x35a>
800022b2:	01885693          	srli	a3,a6,0x18
800022b6:	47e1                	li	a5,24
800022b8:	10007717          	auipc	a4,0x10007
800022bc:	6c870713          	addi	a4,a4,1736 # 90009980 <__clz_tab>
800022c0:	9736                	add	a4,a4,a3
800022c2:	00074703          	lbu	a4,0(a4)
800022c6:	02000893          	li	a7,32
800022ca:	97ba                	add	a5,a5,a4
800022cc:	40f888b3          	sub	a7,a7,a5
800022d0:	16089663          	bnez	a7,8000243c <__umoddi3+0x2a6>
800022d4:	01081e13          	slli	t3,a6,0x10
800022d8:	410585b3          	sub	a1,a1,a6
800022dc:	01085613          	srli	a2,a6,0x10
800022e0:	010e5e13          	srli	t3,t3,0x10
800022e4:	01035713          	srli	a4,t1,0x10
800022e8:	02c5d6b3          	divu	a3,a1,a2
800022ec:	02c5f5b3          	remu	a1,a1,a2
800022f0:	03c686b3          	mul	a3,a3,t3
800022f4:	05c2                	slli	a1,a1,0x10
800022f6:	8f4d                	or	a4,a4,a1
800022f8:	00d77863          	bleu	a3,a4,80002308 <__umoddi3+0x172>
800022fc:	9742                	add	a4,a4,a6
800022fe:	01076563          	bltu	a4,a6,80002308 <__umoddi3+0x172>
80002302:	00d77363          	bleu	a3,a4,80002308 <__umoddi3+0x172>
80002306:	9742                	add	a4,a4,a6
80002308:	8f15                	sub	a4,a4,a3
8000230a:	02c75533          	divu	a0,a4,a2
8000230e:	0342                	slli	t1,t1,0x10
80002310:	01035313          	srli	t1,t1,0x10
80002314:	02c77733          	remu	a4,a4,a2
80002318:	03c50533          	mul	a0,a0,t3
8000231c:	0742                	slli	a4,a4,0x10
8000231e:	006767b3          	or	a5,a4,t1
80002322:	f0a7fee3          	bleu	a0,a5,8000223e <__umoddi3+0xa8>
80002326:	b731                	j	80002232 <__umoddi3+0x9c>
80002328:	0ff00793          	li	a5,255
8000232c:	1ad7ff63          	bleu	a3,a5,800024ea <__umoddi3+0x354>
80002330:	0086d813          	srli	a6,a3,0x8
80002334:	4721                	li	a4,8
80002336:	b735                	j	80002262 <__umoddi3+0xcc>
80002338:	0ff00713          	li	a4,255
8000233c:	86c2                	mv	a3,a6
8000233e:	f7077de3          	bleu	a6,a4,800022b8 <__umoddi3+0x122>
80002342:	00885693          	srli	a3,a6,0x8
80002346:	47a1                	li	a5,8
80002348:	bf85                	j	800022b8 <__umoddi3+0x122>
8000234a:	010007b7          	lui	a5,0x1000
8000234e:	1af66563          	bltu	a2,a5,800024f8 <__umoddi3+0x362>
80002352:	01865693          	srli	a3,a2,0x18
80002356:	47e1                	li	a5,24
80002358:	b58d                	j	800021ba <__umoddi3+0x24>
8000235a:	01d658b3          	srl	a7,a2,t4
8000235e:	006696b3          	sll	a3,a3,t1
80002362:	00d8e6b3          	or	a3,a7,a3
80002366:	01d5d833          	srl	a6,a1,t4
8000236a:	0106d713          	srli	a4,a3,0x10
8000236e:	02e858b3          	divu	a7,a6,a4
80002372:	01069f13          	slli	t5,a3,0x10
80002376:	010f5f13          	srli	t5,t5,0x10
8000237a:	01d557b3          	srl	a5,a0,t4
8000237e:	006595b3          	sll	a1,a1,t1
80002382:	8ddd                	or	a1,a1,a5
80002384:	0105df93          	srli	t6,a1,0x10
80002388:	006617b3          	sll	a5,a2,t1
8000238c:	00651533          	sll	a0,a0,t1
80002390:	02e87833          	remu	a6,a6,a4
80002394:	031f0e33          	mul	t3,t5,a7
80002398:	0842                	slli	a6,a6,0x10
8000239a:	01f86633          	or	a2,a6,t6
8000239e:	01c67863          	bleu	t3,a2,800023ae <__umoddi3+0x218>
800023a2:	9636                	add	a2,a2,a3
800023a4:	fff88813          	addi	a6,a7,-1 # ffff <_tbss_end+0xffbb>
800023a8:	16d67163          	bleu	a3,a2,8000250a <__umoddi3+0x374>
800023ac:	88c2                	mv	a7,a6
800023ae:	41c60633          	sub	a2,a2,t3
800023b2:	02e65833          	divu	a6,a2,a4
800023b6:	05c2                	slli	a1,a1,0x10
800023b8:	81c1                	srli	a1,a1,0x10
800023ba:	02e67633          	remu	a2,a2,a4
800023be:	030f0f33          	mul	t5,t5,a6
800023c2:	01061713          	slli	a4,a2,0x10
800023c6:	8f4d                	or	a4,a4,a1
800023c8:	01e77863          	bleu	t5,a4,800023d8 <__umoddi3+0x242>
800023cc:	9736                	add	a4,a4,a3
800023ce:	fff80613          	addi	a2,a6,-1
800023d2:	12d77763          	bleu	a3,a4,80002500 <__umoddi3+0x36a>
800023d6:	8832                	mv	a6,a2
800023d8:	08c2                	slli	a7,a7,0x10
800023da:	62c1                	lui	t0,0x10
800023dc:	0108e8b3          	or	a7,a7,a6
800023e0:	fff28813          	addi	a6,t0,-1 # ffff <_tbss_end+0xffbb>
800023e4:	0108fe33          	and	t3,a7,a6
800023e8:	0107d593          	srli	a1,a5,0x10
800023ec:	0108d893          	srli	a7,a7,0x10
800023f0:	0107f833          	and	a6,a5,a6
800023f4:	030e0fb3          	mul	t6,t3,a6
800023f8:	41e70733          	sub	a4,a4,t5
800023fc:	03088833          	mul	a6,a7,a6
80002400:	010fd613          	srli	a2,t6,0x10
80002404:	02be0e33          	mul	t3,t3,a1
80002408:	9e42                	add	t3,t3,a6
8000240a:	9672                	add	a2,a2,t3
8000240c:	02b888b3          	mul	a7,a7,a1
80002410:	01067363          	bleu	a6,a2,80002416 <__umoddi3+0x280>
80002414:	9896                	add	a7,a7,t0
80002416:	6841                	lui	a6,0x10
80002418:	187d                	addi	a6,a6,-1
8000241a:	01065593          	srli	a1,a2,0x10
8000241e:	01067633          	and	a2,a2,a6
80002422:	0642                	slli	a2,a2,0x10
80002424:	010fffb3          	and	t6,t6,a6
80002428:	98ae                	add	a7,a7,a1
8000242a:	967e                	add	a2,a2,t6
8000242c:	09176463          	bltu	a4,a7,800024b4 <__umoddi3+0x31e>
80002430:	0f170463          	beq	a4,a7,80002518 <__umoddi3+0x382>
80002434:	411705b3          	sub	a1,a4,a7
80002438:	87b2                	mv	a5,a2
8000243a:	a071                	j	800024c6 <__umoddi3+0x330>
8000243c:	01181833          	sll	a6,a6,a7
80002440:	00f5d733          	srl	a4,a1,a5
80002444:	01085613          	srli	a2,a6,0x10
80002448:	02c756b3          	divu	a3,a4,a2
8000244c:	01081e13          	slli	t3,a6,0x10
80002450:	00f557b3          	srl	a5,a0,a5
80002454:	010e5e13          	srli	t3,t3,0x10
80002458:	011595b3          	sll	a1,a1,a7
8000245c:	8ddd                	or	a1,a1,a5
8000245e:	0105de93          	srli	t4,a1,0x10
80002462:	01151333          	sll	t1,a0,a7
80002466:	02c77733          	remu	a4,a4,a2
8000246a:	02de07b3          	mul	a5,t3,a3
8000246e:	01071693          	slli	a3,a4,0x10
80002472:	01d6e6b3          	or	a3,a3,t4
80002476:	00f6f863          	bleu	a5,a3,80002486 <__umoddi3+0x2f0>
8000247a:	96c2                	add	a3,a3,a6
8000247c:	0106e563          	bltu	a3,a6,80002486 <__umoddi3+0x2f0>
80002480:	00f6f363          	bleu	a5,a3,80002486 <__umoddi3+0x2f0>
80002484:	96c2                	add	a3,a3,a6
80002486:	8e9d                	sub	a3,a3,a5
80002488:	02c6d733          	divu	a4,a3,a2
8000248c:	01059793          	slli	a5,a1,0x10
80002490:	83c1                	srli	a5,a5,0x10
80002492:	02c6f6b3          	remu	a3,a3,a2
80002496:	02ee0733          	mul	a4,t3,a4
8000249a:	01069593          	slli	a1,a3,0x10
8000249e:	8ddd                	or	a1,a1,a5
800024a0:	00e5f863          	bleu	a4,a1,800024b0 <__umoddi3+0x31a>
800024a4:	95c2                	add	a1,a1,a6
800024a6:	0105e563          	bltu	a1,a6,800024b0 <__umoddi3+0x31a>
800024aa:	00e5f363          	bleu	a4,a1,800024b0 <__umoddi3+0x31a>
800024ae:	95c2                	add	a1,a1,a6
800024b0:	8d99                	sub	a1,a1,a4
800024b2:	bd0d                	j	800022e4 <__umoddi3+0x14e>
800024b4:	40f607b3          	sub	a5,a2,a5
800024b8:	40d885b3          	sub	a1,a7,a3
800024bc:	00f63633          	sltu	a2,a2,a5
800024c0:	8d91                	sub	a1,a1,a2
800024c2:	40b705b3          	sub	a1,a4,a1
800024c6:	40f507b3          	sub	a5,a0,a5
800024ca:	00f53533          	sltu	a0,a0,a5
800024ce:	8d89                	sub	a1,a1,a0
800024d0:	01d59eb3          	sll	t4,a1,t4
800024d4:	0067d533          	srl	a0,a5,t1
800024d8:	00aee533          	or	a0,t4,a0
800024dc:	0065d5b3          	srl	a1,a1,t1
800024e0:	8082                	ret
800024e2:	0106d813          	srli	a6,a3,0x10
800024e6:	4741                	li	a4,16
800024e8:	bbad                	j	80002262 <__umoddi3+0xcc>
800024ea:	8836                	mv	a6,a3
800024ec:	4701                	li	a4,0
800024ee:	bb95                	j	80002262 <__umoddi3+0xcc>
800024f0:	01085693          	srli	a3,a6,0x10
800024f4:	47c1                	li	a5,16
800024f6:	b3c9                	j	800022b8 <__umoddi3+0x122>
800024f8:	01065693          	srli	a3,a2,0x10
800024fc:	47c1                	li	a5,16
800024fe:	b975                	j	800021ba <__umoddi3+0x24>
80002500:	ede77be3          	bleu	t5,a4,800023d6 <__umoddi3+0x240>
80002504:	1879                	addi	a6,a6,-2
80002506:	9736                	add	a4,a4,a3
80002508:	bdc1                	j	800023d8 <__umoddi3+0x242>
8000250a:	ebc671e3          	bleu	t3,a2,800023ac <__umoddi3+0x216>
8000250e:	18f9                	addi	a7,a7,-2
80002510:	9636                	add	a2,a2,a3
80002512:	bd71                	j	800023ae <__umoddi3+0x218>
80002514:	9742                	add	a4,a4,a6
80002516:	b301                	j	80002216 <__umoddi3+0x80>
80002518:	f8c56ee3          	bltu	a0,a2,800024b4 <__umoddi3+0x31e>
8000251c:	87b2                	mv	a5,a2
8000251e:	4581                	li	a1,0
80002520:	b75d                	j	800024c6 <__umoddi3+0x330>

Disassembly of section .sdata:

90000000 <__global_pointer$-0x800>:
90000000:	0000                	unimp
90000002:	0000                	unimp
90000004:	fa62                	fsw	fs8,52(sp)
90000006:	4138                	lw	a4,64(a0)

Disassembly of section .rodata:

90000008 <ptr>:
90000008:	0000                	unimp
9000000a:	0000                	unimp
9000000c:	0004                	0x4
9000000e:	0000                	unimp
90000010:	0008                	0x8
90000012:	0000                	unimp
90000014:	000a                	c.slli	zero,0x2
90000016:	0000                	unimp
90000018:	0000000f          	fence	unknown,unknown
9000001c:	0016                	c.slli	zero,0x5
9000001e:	0000                	unimp
90000020:	001d                	c.nop	7
90000022:	0000                	unimp
90000024:	0021                	c.nop	8
90000026:	0000                	unimp
90000028:	0022                	c.slli	zero,0x8
9000002a:	0000                	unimp
9000002c:	0024                	addi	s1,sp,8
9000002e:	0000                	unimp
90000030:	00000027          	0x27
90000034:	002c                	addi	a1,sp,8
90000036:	0000                	unimp
90000038:	002c                	addi	a1,sp,8
9000003a:	0000                	unimp
9000003c:	0000002f          	0x2f
90000040:	00000037          	lui	zero,0x0
90000044:	003d                	c.nop	15
90000046:	0000                	unimp
90000048:	0042                	c.slli	zero,0x10
9000004a:	0000                	unimp
9000004c:	0044                	addi	s1,sp,4
9000004e:	0000                	unimp
90000050:	0000004b          	fnmsub.s	ft0,ft0,ft0,ft0,rne
90000054:	0052                	c.slli	zero,0x14
90000056:	0000                	unimp
90000058:	0056                	c.slli	zero,0x15
9000005a:	0000                	unimp
9000005c:	0000005b          	0x5b
90000060:	0062                	c.slli	zero,0x18
90000062:	0000                	unimp
90000064:	0068                	addi	a0,sp,12
90000066:	0000                	unimp
90000068:	006d                	c.nop	27
9000006a:	0000                	unimp
9000006c:	0071                	c.nop	28
9000006e:	0000                	unimp
90000070:	007e                	c.slli	zero,0x1f
90000072:	0000                	unimp
90000074:	00000083          	lb	ra,0(zero) # 0 <_tdata_begin>
90000078:	0086                	slli	ra,ra,0x1
9000007a:	0000                	unimp
9000007c:	0088                	addi	a0,sp,64
9000007e:	0000                	unimp
90000080:	0000008f          	0x8f
90000084:	0099                	addi	ra,ra,6
90000086:	0000                	unimp
90000088:	009f 0000 00a8      	0xa80000009f
9000008e:	0000                	unimp
90000090:	00aa                	slli	ra,ra,0xa
90000092:	0000                	unimp
90000094:	00ae                	slli	ra,ra,0xb
90000096:	0000                	unimp
90000098:	00b0                	addi	a2,sp,72
9000009a:	0000                	unimp
9000009c:	00b4                	addi	a3,sp,72
9000009e:	0000                	unimp
900000a0:	000000bb          	0xbb
900000a4:	00c0                	addi	s0,sp,68
900000a6:	0000                	unimp
900000a8:	00c6                	slli	ra,ra,0x11
900000aa:	0000                	unimp
900000ac:	00c8                	addi	a0,sp,68
900000ae:	0000                	unimp
900000b0:	00cc                	addi	a1,sp,68
900000b2:	0000                	unimp
900000b4:	000000d3          	fadd.s	ft1,ft0,ft0,rne
900000b8:	00d5                	addi	ra,ra,21
900000ba:	0000                	unimp
900000bc:	00de                	slli	ra,ra,0x17
900000be:	0000                	unimp
900000c0:	00e1                	addi	ra,ra,24
900000c2:	0000                	unimp
900000c4:	00e4                	addi	s1,sp,76
900000c6:	0000                	unimp
900000c8:	00e9                	addi	ra,ra,26
900000ca:	0000                	unimp
900000cc:	00f1                	addi	ra,ra,28
900000ce:	0000                	unimp
900000d0:	000000f7          	0xf7
900000d4:	00fd                	addi	ra,ra,31
900000d6:	0000                	unimp
900000d8:	0100                	addi	s0,sp,128
900000da:	0000                	unimp
900000dc:	0106                	slli	sp,sp,0x1
900000de:	0000                	unimp
900000e0:	0108                	addi	a0,sp,128
900000e2:	0000                	unimp
900000e4:	010e                	slli	sp,sp,0x3
900000e6:	0000                	unimp
900000e8:	0112                	slli	sp,sp,0x4
900000ea:	0000                	unimp
900000ec:	0115                	addi	sp,sp,5
900000ee:	0000                	unimp
900000f0:	0000011b          	0x11b
900000f4:	0120                	addi	s0,sp,136
900000f6:	0000                	unimp
900000f8:	0126                	slli	sp,sp,0x9
900000fa:	0000                	unimp
900000fc:	012d                	addi	sp,sp,11
900000fe:	0000                	unimp
90000100:	00000133          	add	sp,zero,zero
90000104:	0138                	addi	a4,sp,136
90000106:	0000                	unimp
90000108:	0000013b          	0x13b
9000010c:	0000013f 00000145 	0x1450000013f
90000114:	0149                	addi	sp,sp,18
90000116:	0000                	unimp
90000118:	014c                	addi	a1,sp,132
9000011a:	0000                	unimp
9000011c:	0152                	slli	sp,sp,0x14
9000011e:	0000                	unimp
90000120:	0154                	addi	a3,sp,132
90000122:	0000                	unimp
90000124:	0156                	slli	sp,sp,0x15
90000126:	0000                	unimp
90000128:	015c                	addi	a5,sp,132
9000012a:	0000                	unimp
9000012c:	0161                	addi	sp,sp,24
9000012e:	0000                	unimp
90000130:	00000167          	jalr	sp,zero
90000134:	016a                	slli	sp,sp,0x1a
90000136:	0000                	unimp
90000138:	016e                	slli	sp,sp,0x1b
9000013a:	0000                	unimp
9000013c:	0170                	addi	a2,sp,140
9000013e:	0000                	unimp
90000140:	0176                	slli	sp,sp,0x1d
90000142:	0000                	unimp
90000144:	00000183          	lb	gp,0(zero) # 0 <_tdata_begin>
90000148:	0189                	addi	gp,gp,2
9000014a:	0000                	unimp
9000014c:	0190                	addi	a2,sp,192
9000014e:	0000                	unimp
90000150:	00000193          	li	gp,0
90000154:	0196                	slli	gp,gp,0x5
90000156:	0000                	unimp
90000158:	019c                	addi	a5,sp,192
9000015a:	0000                	unimp
9000015c:	01a4                	addi	s1,sp,200
9000015e:	0000                	unimp
90000160:	01a9                	addi	gp,gp,10
90000162:	0000                	unimp
90000164:	01ac                	addi	a1,sp,200
90000166:	0000                	unimp
90000168:	01b1                	addi	gp,gp,12
9000016a:	0000                	unimp
9000016c:	01b9                	addi	gp,gp,14
9000016e:	0000                	unimp
90000170:	01ba                	slli	gp,gp,0xe
90000172:	0000                	unimp
90000174:	01c0                	addi	s0,sp,196
90000176:	0000                	unimp
90000178:	01c8                	addi	a0,sp,196
9000017a:	0000                	unimp
9000017c:	01ce                	slli	gp,gp,0x13
9000017e:	0000                	unimp
90000180:	01d4                	addi	a3,sp,196
90000182:	0000                	unimp
90000184:	01d5                	addi	gp,gp,21
90000186:	0000                	unimp
90000188:	01dd                	addi	gp,gp,23
9000018a:	0000                	unimp
9000018c:	01df 0000 01e5      	0x1e5000001df
90000192:	0000                	unimp
90000194:	01ea                	slli	gp,gp,0x1a
90000196:	0000                	unimp
90000198:	000001ef          	jal	gp,90000198 <ptr+0x190>
9000019c:	01f5                	addi	gp,gp,29
9000019e:	0000                	unimp
900001a0:	01fc                	addi	a5,sp,204
900001a2:	0000                	unimp
900001a4:	0201                	addi	tp,tp,0
900001a6:	0000                	unimp
900001a8:	0206                	slli	tp,tp,0x1
900001aa:	0000                	unimp
900001ac:	020c                	addi	a1,sp,256
900001ae:	0000                	unimp
900001b0:	0214                	addi	a3,sp,256
900001b2:	0000                	unimp
900001b4:	00000217          	auipc	tp,0x0
900001b8:	021a                	slli	tp,tp,0x6
900001ba:	0000                	unimp
900001bc:	021e                	slli	tp,tp,0x7
900001be:	0000                	unimp
900001c0:	0222                	slli	tp,tp,0x8
900001c2:	0000                	unimp
900001c4:	0228                	addi	a0,sp,264
900001c6:	0000                	unimp
900001c8:	0231                	addi	tp,tp,12
900001ca:	0000                	unimp
900001cc:	00000233          	add	tp,zero,zero
900001d0:	00000237          	lui	tp,0x0
900001d4:	0000023b          	0x23b
900001d8:	023e                	slli	tp,tp,0xf
900001da:	0000                	unimp
900001dc:	0240                	addi	s0,sp,260
900001de:	0000                	unimp
900001e0:	0245                	addi	tp,tp,17
900001e2:	0000                	unimp
900001e4:	0248                	addi	a0,sp,260
900001e6:	0000                	unimp
900001e8:	024c                	addi	a1,sp,260
900001ea:	0000                	unimp
900001ec:	0250                	addi	a2,sp,260
900001ee:	0000                	unimp
900001f0:	0251                	addi	tp,tp,20
900001f2:	0000                	unimp
900001f4:	0255                	addi	tp,tp,21
900001f6:	0000                	unimp
900001f8:	00000257          	0x257
900001fc:	025f 0000 0264      	0x2640000025f
90000202:	0000                	unimp
90000204:	00000267          	jalr	tp,zero
90000208:	0000026b          	0x26b
9000020c:	0272                	slli	tp,tp,0x1c
9000020e:	0000                	unimp
90000210:	0279                	addi	tp,tp,30
90000212:	0000                	unimp
90000214:	0280                	addi	s0,sp,320
90000216:	0000                	unimp
90000218:	0286                	slli	t0,t0,0x1
9000021a:	0000                	unimp
9000021c:	028a                	slli	t0,t0,0x2
9000021e:	0000                	unimp
90000220:	028d                	addi	t0,t0,3
90000222:	0000                	unimp
90000224:	00000293          	li	t0,0
90000228:	0299                	addi	t0,t0,6
9000022a:	0000                	unimp
9000022c:	029e                	slli	t0,t0,0x7
9000022e:	0000                	unimp
90000230:	02a1                	addi	t0,t0,8
90000232:	0000                	unimp
90000234:	02a6                	slli	t0,t0,0x9
90000236:	0000                	unimp
90000238:	02ad                	addi	t0,t0,11
9000023a:	0000                	unimp
9000023c:	000002b3          	add	t0,zero,zero
90000240:	02b9                	addi	t0,t0,14
90000242:	0000                	unimp
90000244:	000002bf 000002c4 	0x2c4000002bf
9000024c:	02c8                	addi	a0,sp,324
9000024e:	0000                	unimp
90000250:	02cd                	addi	t0,t0,19
90000252:	0000                	unimp
90000254:	000002cf          	fnmadd.s	ft5,ft0,ft0,ft0,rne
90000258:	02d2                	slli	t0,t0,0x14
9000025a:	0000                	unimp
9000025c:	02d5                	addi	t0,t0,21
9000025e:	0000                	unimp
90000260:	02dc                	addi	a5,sp,324
90000262:	0000                	unimp
90000264:	02e0                	addi	s0,sp,332
90000266:	0000                	unimp
90000268:	02e2                	slli	t0,t0,0x18
9000026a:	0000                	unimp
9000026c:	02e6                	slli	t0,t0,0x19
9000026e:	0000                	unimp
90000270:	000002eb          	0x2eb
90000274:	02f1                	addi	t0,t0,28
90000276:	0000                	unimp
90000278:	02f5                	addi	t0,t0,29
9000027a:	0000                	unimp
9000027c:	000002fb          	0x2fb
90000280:	02ff                	0x2ff
90000282:	0000                	unimp
90000284:	0301                	addi	t1,t1,0
90000286:	0000                	unimp
90000288:	0301                	addi	t1,t1,0
9000028a:	0000                	unimp
9000028c:	0309                	addi	t1,t1,2
9000028e:	0000                	unimp
90000290:	030c                	addi	a1,sp,384
90000292:	0000                	unimp
90000294:	0310                	addi	a2,sp,384
90000296:	0000                	unimp
90000298:	0316                	slli	t1,t1,0x5
9000029a:	0000                	unimp
9000029c:	031d                	addi	t1,t1,7
9000029e:	0000                	unimp
900002a0:	00000327          	0x327
900002a4:	032a                	slli	t1,t1,0xa
900002a6:	0000                	unimp
900002a8:	032d                	addi	t1,t1,11
900002aa:	0000                	unimp
900002ac:	0000032f          	0x32f
900002b0:	0331                	addi	t1,t1,12
900002b2:	0000                	unimp
900002b4:	0336                	slli	t1,t1,0xd
900002b6:	0000                	unimp
900002b8:	033d                	addi	t1,t1,15
900002ba:	0000                	unimp
900002bc:	033e                	slli	t1,t1,0xf
900002be:	0000                	unimp
900002c0:	00000343          	fmadd.s	ft6,ft0,ft0,ft0,rne
900002c4:	034c                	addi	a1,sp,388
900002c6:	0000                	unimp
900002c8:	0350                	addi	a2,sp,388
900002ca:	0000                	unimp
900002cc:	00000353          	fadd.s	ft6,ft0,ft0,rne
900002d0:	0356                	slli	t1,t1,0x15
900002d2:	0000                	unimp
900002d4:	035e                	slli	t1,t1,0x17
900002d6:	0000                	unimp
900002d8:	0360                	addi	s0,sp,396
900002da:	0000                	unimp
900002dc:	0369                	addi	t1,t1,26
900002de:	0000                	unimp
900002e0:	036c                	addi	a1,sp,396
900002e2:	0000                	unimp
900002e4:	0371                	addi	t1,t1,28
900002e6:	0000                	unimp
900002e8:	0374                	addi	a3,sp,396
900002ea:	0000                	unimp
900002ec:	0378                	addi	a4,sp,396
900002ee:	0000                	unimp
900002f0:	037f                	0x37f
900002f2:	0000                	unimp
900002f4:	00000383          	lb	t2,0(zero) # 0 <_tdata_begin>
900002f8:	0385                	addi	t2,t2,1
900002fa:	0000                	unimp
900002fc:	0388                	addi	a0,sp,448
900002fe:	0000                	unimp
90000300:	038c                	addi	a1,sp,448
90000302:	0000                	unimp
90000304:	0390                	addi	a2,sp,448
90000306:	0000                	unimp
90000308:	00000397          	auipc	t2,0x0
9000030c:	039f 0000 03a3      	0x3a30000039f
90000312:	0000                	unimp
90000314:	03a9                	addi	t2,t2,10
90000316:	0000                	unimp
90000318:	03ad                	addi	t2,t2,11
9000031a:	0000                	unimp
9000031c:	03b0                	addi	a2,sp,456
9000031e:	0000                	unimp
90000320:	03b4                	addi	a3,sp,456
90000322:	0000                	unimp
90000324:	03b6                	slli	t2,t2,0xd
90000326:	0000                	unimp
90000328:	000003bb          	0x3bb
9000032c:	03c0                	addi	s0,sp,452
9000032e:	0000                	unimp
90000330:	000003c3          	fmadd.s	ft7,ft0,ft0,ft0,rne
90000334:	03ca                	slli	t2,t2,0x12
90000336:	0000                	unimp
90000338:	000003cf          	fnmadd.s	ft7,ft0,ft0,ft0,rne
9000033c:	000003d3          	fadd.s	ft7,ft0,ft0,rne
90000340:	000003d7          	0x3d7
90000344:	03d9                	addi	t2,t2,22
90000346:	0000                	unimp
90000348:	03e0                	addi	s0,sp,460
9000034a:	0000                	unimp
9000034c:	03e1                	addi	t2,t2,24
9000034e:	0000                	unimp
90000350:	03e6                	slli	t2,t2,0x19
90000352:	0000                	unimp
90000354:	03e9                	addi	t2,t2,26
90000356:	0000                	unimp
90000358:	03f0                	addi	a2,sp,460
9000035a:	0000                	unimp
9000035c:	03f4                	addi	a3,sp,460
9000035e:	0000                	unimp
90000360:	03f6                	slli	t2,t2,0x1d
90000362:	0000                	unimp
90000364:	03fa                	slli	t2,t2,0x1e
90000366:	0000                	unimp
90000368:	03ff                	0x3ff
9000036a:	0000                	unimp
9000036c:	0406                	slli	s0,s0,0x1
9000036e:	0000                	unimp
90000370:	040c                	addi	a1,sp,512
90000372:	0000                	unimp
90000374:	0410                	addi	a2,sp,512
90000376:	0000                	unimp
90000378:	0415                	addi	s0,s0,5
9000037a:	0000                	unimp
9000037c:	041c                	addi	a5,sp,512
9000037e:	0000                	unimp
90000380:	0422                	slli	s0,s0,0x8
90000382:	0000                	unimp
90000384:	0425                	addi	s0,s0,9
90000386:	0000                	unimp
90000388:	042a                	slli	s0,s0,0xa
9000038a:	0000                	unimp
9000038c:	042d                	addi	s0,s0,11
9000038e:	0000                	unimp
90000390:	0000042f          	0x42f
90000394:	0435                	addi	s0,s0,13
90000396:	0000                	unimp
90000398:	0438                	addi	a4,sp,520
9000039a:	0000                	unimp
9000039c:	043c                	addi	a5,sp,520
9000039e:	0000                	unimp
900003a0:	0000043f 00000442 	0x4420000043f
900003a8:	0444                	addi	s1,sp,516
900003aa:	0000                	unimp
900003ac:	00000447          	fmsub.s	fs0,ft0,ft0,ft0,rne
900003b0:	044c                	addi	a1,sp,516
900003b2:	0000                	unimp
900003b4:	044e                	slli	s0,s0,0x13
900003b6:	0000                	unimp
900003b8:	0456                	slli	s0,s0,0x15
900003ba:	0000                	unimp
900003bc:	045d                	addi	s0,s0,23
900003be:	0000                	unimp
900003c0:	0462                	slli	s0,s0,0x18
900003c2:	0000                	unimp
900003c4:	046a                	slli	s0,s0,0x1a
900003c6:	0000                	unimp
900003c8:	046d                	addi	s0,s0,27
900003ca:	0000                	unimp
900003cc:	0472                	slli	s0,s0,0x1c
900003ce:	0000                	unimp
900003d0:	0476                	slli	s0,s0,0x1d
900003d2:	0000                	unimp
900003d4:	0478                	addi	a4,sp,524
900003d6:	0000                	unimp
900003d8:	047a                	slli	s0,s0,0x1e
900003da:	0000                	unimp
900003dc:	0481                	addi	s1,s1,0
900003de:	0000                	unimp
900003e0:	0486                	slli	s1,s1,0x1
900003e2:	0000                	unimp
900003e4:	0488                	addi	a0,sp,576
900003e6:	0000                	unimp
900003e8:	0000048f          	0x48f
900003ec:	0494                	addi	a3,sp,576
900003ee:	0000                	unimp
900003f0:	0498                	addi	a4,sp,576
900003f2:	0000                	unimp
900003f4:	0000049b          	0x49b
900003f8:	049f 0000 04a4      	0x4a40000049f
900003fe:	0000                	unimp
90000400:	000004a7          	0x4a7
90000404:	04a9                	addi	s1,s1,10
90000406:	0000                	unimp
90000408:	04ac                	addi	a1,sp,584
9000040a:	0000                	unimp
9000040c:	04b4                	addi	a3,sp,584
9000040e:	0000                	unimp
90000410:	04ba                	slli	s1,s1,0xe
90000412:	0000                	unimp
90000414:	04c0                	addi	s0,sp,580
90000416:	0000                	unimp
90000418:	000004c3          	fmadd.s	fs1,ft0,ft0,ft0,rne
9000041c:	04c5                	addi	s1,s1,17
9000041e:	0000                	unimp
90000420:	04c9                	addi	s1,s1,18
90000422:	0000                	unimp
90000424:	04cd                	addi	s1,s1,19
90000426:	0000                	unimp
90000428:	04d2                	slli	s1,s1,0x14
9000042a:	0000                	unimp
9000042c:	04d4                	addi	a3,sp,580
9000042e:	0000                	unimp
90000430:	000004d7          	0x4d7
90000434:	04dc                	addi	a5,sp,580
90000436:	0000                	unimp
90000438:	04e0                	addi	s0,sp,588
9000043a:	0000                	unimp
9000043c:	04e5                	addi	s1,s1,25
9000043e:	0000                	unimp
90000440:	04e8                	addi	a0,sp,588
90000442:	0000                	unimp
90000444:	04f0                	addi	a2,sp,588
90000446:	0000                	unimp
90000448:	04f4                	addi	a3,sp,588
9000044a:	0000                	unimp
9000044c:	000004f7          	0x4f7
90000450:	04f8                	addi	a4,sp,588
90000452:	0000                	unimp
90000454:	000004fb          	0x4fb
90000458:	04fe                	slli	s1,s1,0x1f
9000045a:	0000                	unimp
9000045c:	0504                	addi	s1,sp,640
9000045e:	0000                	unimp
90000460:	00000507          	0x507
90000464:	0000050b          	0x50b
90000468:	0510                	addi	a2,sp,640
9000046a:	0000                	unimp
9000046c:	0514                	addi	a3,sp,640
9000046e:	0000                	unimp
90000470:	0518                	addi	a4,sp,640
90000472:	0000                	unimp
90000474:	051a                	slli	a0,a0,0x6
90000476:	0000                	unimp
90000478:	0521                	addi	a0,a0,8
9000047a:	0000                	unimp
9000047c:	0525                	addi	a0,a0,9
9000047e:	0000                	unimp
90000480:	052a                	slli	a0,a0,0xa
90000482:	0000                	unimp
90000484:	052e                	slli	a0,a0,0xb
90000486:	0000                	unimp
90000488:	0534                	addi	a3,sp,648
9000048a:	0000                	unimp
9000048c:	0538                	addi	a4,sp,648
9000048e:	0000                	unimp
90000490:	0540                	addi	s0,sp,644
90000492:	0000                	unimp
90000494:	0545                	addi	a0,a0,17
90000496:	0000                	unimp
90000498:	054c                	addi	a1,sp,644
9000049a:	0000                	unimp
9000049c:	00000553          	fadd.s	fa0,ft0,ft0,rne
900004a0:	0558                	addi	a4,sp,644
900004a2:	0000                	unimp
900004a4:	0559                	addi	a0,a0,22
900004a6:	0000                	unimp
900004a8:	0562                	slli	a0,a0,0x18
900004aa:	0000                	unimp
900004ac:	0565                	addi	a0,a0,25
900004ae:	0000                	unimp
900004b0:	0569                	addi	a0,a0,26
900004b2:	0000                	unimp
900004b4:	056c                	addi	a1,sp,652
900004b6:	0000                	unimp
900004b8:	00000573          	0x573
900004bc:	00000577          	0x577
900004c0:	057f                	0x57f
900004c2:	0000                	unimp
900004c4:	0586                	slli	a1,a1,0x1
900004c6:	0000                	unimp
900004c8:	058e                	slli	a1,a1,0x3
900004ca:	0000                	unimp
900004cc:	0591                	addi	a1,a1,4
900004ce:	0000                	unimp
900004d0:	0599                	addi	a1,a1,6
900004d2:	0000                	unimp
900004d4:	0000059b          	0x59b
900004d8:	059e                	slli	a1,a1,0x7
900004da:	0000                	unimp
900004dc:	059f 0000 05a5      	0x5a50000059f
900004e2:	0000                	unimp
900004e4:	05a8                	addi	a0,sp,712
900004e6:	0000                	unimp
900004e8:	05aa                	slli	a1,a1,0xa
900004ea:	0000                	unimp
900004ec:	05ad                	addi	a1,a1,11
900004ee:	0000                	unimp
900004f0:	05b0                	addi	a2,sp,712
900004f2:	0000                	unimp
900004f4:	05be                	slli	a1,a1,0xf
900004f6:	0000                	unimp
900004f8:	05c0                	addi	s0,sp,708
900004fa:	0000                	unimp
900004fc:	000005c3          	fmadd.s	fa1,ft0,ft0,ft0,rne
90000500:	05c9                	addi	a1,a1,18
90000502:	0000                	unimp
90000504:	000005cf          	fnmadd.s	fa1,ft0,ft0,ft0,rne
90000508:	000005d3          	fadd.s	fa1,ft0,ft0,rne
9000050c:	05d6                	slli	a1,a1,0x15
9000050e:	0000                	unimp
90000510:	05d9                	addi	a1,a1,22
90000512:	0000                	unimp
90000514:	05da                	slli	a1,a1,0x16
90000516:	0000                	unimp
90000518:	05df 0000 05e3      	0x5e3000005df
9000051e:	0000                	unimp
90000520:	05e9                	addi	a1,a1,26
90000522:	0000                	unimp
90000524:	05ed                	addi	a1,a1,27
90000526:	0000                	unimp
90000528:	05f4                	addi	a3,sp,716
9000052a:	0000                	unimp
9000052c:	05f9                	addi	a1,a1,30
9000052e:	0000                	unimp
90000530:	05fe                	slli	a1,a1,0x1f
90000532:	0000                	unimp
90000534:	0606                	slli	a2,a2,0x1
90000536:	0000                	unimp
90000538:	0000060b          	0x60b
9000053c:	060e                	slli	a2,a2,0x3
9000053e:	0000                	unimp
90000540:	060e                	slli	a2,a2,0x3
90000542:	0000                	unimp
90000544:	0610                	addi	a2,sp,768
90000546:	0000                	unimp
90000548:	0611                	addi	a2,a2,4
9000054a:	0000                	unimp
9000054c:	0614                	addi	a3,sp,768
9000054e:	0000                	unimp
90000550:	00000617          	auipc	a2,0x0
90000554:	0000061b          	0x61b
90000558:	00000623          	sb	zero,12(zero) # c <_tdata_begin+0xc>
9000055c:	0629                	addi	a2,a2,10
9000055e:	0000                	unimp
90000560:	062c                	addi	a1,sp,776
90000562:	0000                	unimp
90000564:	0631                	addi	a2,a2,12
90000566:	0000                	unimp
90000568:	0636                	slli	a2,a2,0xd
9000056a:	0000                	unimp
9000056c:	063a                	slli	a2,a2,0xe
9000056e:	0000                	unimp
90000570:	063e                	slli	a2,a2,0xf
90000572:	0000                	unimp
90000574:	0640                	addi	s0,sp,772
90000576:	0000                	unimp
90000578:	0642                	slli	a2,a2,0x10
9000057a:	0000                	unimp
9000057c:	064a                	slli	a2,a2,0x12
9000057e:	0000                	unimp
90000580:	0000064f          	fnmadd.s	fa2,ft0,ft0,ft0,rne
90000584:	0654                	addi	a3,sp,772
90000586:	0000                	unimp
90000588:	065c                	addi	a5,sp,772
9000058a:	0000                	unimp
9000058c:	0662                	slli	a2,a2,0x18
9000058e:	0000                	unimp
90000590:	0665                	addi	a2,a2,25
90000592:	0000                	unimp
90000594:	0671                	addi	a2,a2,28
90000596:	0000                	unimp
90000598:	0674                	addi	a3,sp,780
9000059a:	0000                	unimp
9000059c:	0678                	addi	a4,sp,780
9000059e:	0000                	unimp
900005a0:	067e                	slli	a2,a2,0x1f
900005a2:	0000                	unimp
900005a4:	0680                	addi	s0,sp,832
900005a6:	0000                	unimp
900005a8:	0686                	slli	a3,a3,0x1
900005aa:	0000                	unimp
900005ac:	068a                	slli	a3,a3,0x2
900005ae:	0000                	unimp
900005b0:	068e                	slli	a3,a3,0x3
900005b2:	0000                	unimp
900005b4:	00000697          	auipc	a3,0x0
900005b8:	06a1                	addi	a3,a3,8
900005ba:	0000                	unimp
900005bc:	06a8                	addi	a0,sp,840
900005be:	0000                	unimp
900005c0:	06ad                	addi	a3,a3,11
900005c2:	0000                	unimp
900005c4:	000006b3          	add	a3,zero,zero
900005c8:	06b8                	addi	a4,sp,840
900005ca:	0000                	unimp
900005cc:	06bd                	addi	a3,a3,15
900005ce:	0000                	unimp
900005d0:	06c0                	addi	s0,sp,836
900005d2:	0000                	unimp
900005d4:	06c8                	addi	a0,sp,836
900005d6:	0000                	unimp
900005d8:	06cc                	addi	a1,sp,836
900005da:	0000                	unimp
900005dc:	000006d3          	fadd.s	fa3,ft0,ft0,rne
900005e0:	06d6                	slli	a3,a3,0x15
900005e2:	0000                	unimp
900005e4:	06da                	slli	a3,a3,0x16
900005e6:	0000                	unimp
900005e8:	06e0                	addi	s0,sp,844
900005ea:	0000                	unimp
900005ec:	000006e3          	beqz	zero,90000df8 <__global_pointer$+0x5f8>
900005f0:	06e5                	addi	a3,a3,25
900005f2:	0000                	unimp
900005f4:	06ed                	addi	a3,a3,27
900005f6:	0000                	unimp
900005f8:	06f5                	addi	a3,a3,29
900005fa:	0000                	unimp
900005fc:	000006f7          	0x6f7
90000600:	06fc                	addi	a5,sp,844
90000602:	0000                	unimp
90000604:	00000703          	lb	a4,0(zero) # 0 <_tdata_begin>
90000608:	070a                	slli	a4,a4,0x2
9000060a:	0000                	unimp
9000060c:	0712                	slli	a4,a4,0x4
9000060e:	0000                	unimp
90000610:	00000717          	auipc	a4,0x0
90000614:	071c                	addi	a5,sp,896
90000616:	0000                	unimp
90000618:	0720                	addi	s0,sp,904
9000061a:	0000                	unimp
9000061c:	0725                	addi	a4,a4,9
9000061e:	0000                	unimp
90000620:	072c                	addi	a1,sp,904
90000622:	0000                	unimp
90000624:	0000072f          	0x72f
90000628:	00000733          	add	a4,zero,zero
9000062c:	00000737          	lui	a4,0x0
90000630:	0739                	addi	a4,a4,14
90000632:	0000                	unimp
90000634:	073e                	slli	a4,a4,0xf
90000636:	0000                	unimp
90000638:	00000743          	fmadd.s	fa4,ft0,ft0,ft0,rne
9000063c:	00000747          	fmsub.s	fa4,ft0,ft0,ft0,rne
90000640:	0751                	addi	a4,a4,20
90000642:	0000                	unimp
90000644:	0758                	addi	a4,sp,900
90000646:	0000                	unimp
90000648:	075a                	slli	a4,a4,0x16
9000064a:	0000                	unimp
9000064c:	00000763          	beqz	zero,9000065a <ptr+0x652>
90000650:	00000767          	jalr	a4,zero
90000654:	0000076b          	0x76b
90000658:	0770                	addi	a2,sp,908
9000065a:	0000                	unimp
9000065c:	0775                	addi	a4,a4,29
9000065e:	0000                	unimp
90000660:	077a                	slli	a4,a4,0x1e
90000662:	0000                	unimp
90000664:	077f                	0x77f
90000666:	0000                	unimp
90000668:	00000783          	lb	a5,0(zero) # 0 <_tdata_begin>
9000066c:	00000787          	0x787
90000670:	078c                	addi	a1,sp,960
90000672:	0000                	unimp
90000674:	0792                	slli	a5,a5,0x4
90000676:	0000                	unimp
90000678:	00000797          	auipc	a5,0x0
9000067c:	079d                	addi	a5,a5,7
9000067e:	0000                	unimp
90000680:	07a2                	slli	a5,a5,0x8
90000682:	0000                	unimp
90000684:	07a8                	addi	a0,sp,968
90000686:	0000                	unimp
90000688:	07ad                	addi	a5,a5,11
9000068a:	0000                	unimp
9000068c:	07b0                	addi	a2,sp,968
9000068e:	0000                	unimp
90000690:	07b6                	slli	a5,a5,0xd
90000692:	0000                	unimp
90000694:	07bc                	addi	a5,sp,968
90000696:	0000                	unimp
90000698:	000007bf 000007c6 	0x7c6000007bf
900006a0:	07c8                	addi	a0,sp,964
900006a2:	0000                	unimp
900006a4:	000007cb          	fnmsub.s	fa5,ft0,ft0,ft0,rne
900006a8:	07d2                	slli	a5,a5,0x14
900006aa:	0000                	unimp
900006ac:	000007db          	0x7db
900006b0:	07e1                	addi	a5,a5,24
900006b2:	0000                	unimp
900006b4:	07e8                	addi	a0,sp,972
900006b6:	0000                	unimp
900006b8:	07ec                	addi	a1,sp,972
900006ba:	0000                	unimp
900006bc:	000007f3          	0x7f3
900006c0:	07f5                	addi	a5,a5,29
900006c2:	0000                	unimp
900006c4:	0800                	addi	s0,sp,16
900006c6:	0000                	unimp
900006c8:	00000807          	0x807
900006cc:	0000080f          	0x80f
900006d0:	00000813          	li	a6,0
900006d4:	0815                	addi	a6,a6,5
900006d6:	0000                	unimp
900006d8:	081e                	slli	a6,a6,0x7
900006da:	0000                	unimp
900006dc:	0821                	addi	a6,a6,8
900006de:	0000                	unimp
900006e0:	0825                	addi	a6,a6,9
900006e2:	0000                	unimp
900006e4:	0826                	slli	a6,a6,0x9
900006e6:	0000                	unimp
900006e8:	082a                	slli	a6,a6,0xa
900006ea:	0000                	unimp
900006ec:	0831                	addi	a6,a6,12
900006ee:	0000                	unimp
900006f0:	0835                	addi	a6,a6,13
900006f2:	0000                	unimp
900006f4:	0000083b          	0x83b
900006f8:	083e                	slli	a6,a6,0xf
900006fa:	0000                	unimp
900006fc:	0840                	addi	s0,sp,20
900006fe:	0000                	unimp
90000700:	0844                	addi	s1,sp,20
90000702:	0000                	unimp
90000704:	00000847          	fmsub.s	fa6,ft0,ft0,ft0,rne
90000708:	084a                	slli	a6,a6,0x12
9000070a:	0000                	unimp
9000070c:	0851                	addi	a6,a6,20
9000070e:	0000                	unimp
90000710:	0858                	addi	a4,sp,20
90000712:	0000                	unimp
90000714:	085f 0000 0862      	0x8620000085f
9000071a:	0000                	unimp
9000071c:	086c                	addi	a1,sp,28
9000071e:	0000                	unimp
90000720:	0872                	slli	a6,a6,0x1c
90000722:	0000                	unimp
90000724:	0000087b          	0x87b
90000728:	087f                	0x87f
9000072a:	0000                	unimp
9000072c:	00000883          	lb	a7,0(zero) # 0 <_tdata_begin>
90000730:	088a                	slli	a7,a7,0x2
90000732:	0000                	unimp
90000734:	088d                	addi	a7,a7,3
90000736:	0000                	unimp
90000738:	0892                	slli	a7,a7,0x4
9000073a:	0000                	unimp
9000073c:	0896                	slli	a7,a7,0x5
9000073e:	0000                	unimp
90000740:	089e                	slli	a7,a7,0x7
90000742:	0000                	unimp
90000744:	000008a3          	sb	zero,17(zero) # 11 <_tdata_begin+0x11>
90000748:	000008a7          	0x8a7
9000074c:	08ae                	slli	a7,a7,0xb
9000074e:	0000                	unimp
90000750:	08b4                	addi	a3,sp,88
90000752:	0000                	unimp
90000754:	08bd                	addi	a7,a7,15
90000756:	0000                	unimp
90000758:	08c1                	addi	a7,a7,16
9000075a:	0000                	unimp
9000075c:	08c5                	addi	a7,a7,17
9000075e:	0000                	unimp
90000760:	08d0                	addi	a2,sp,84
90000762:	0000                	unimp
90000764:	000008d3          	fadd.s	fa7,ft0,ft0,rne
90000768:	08dd                	addi	a7,a7,23
9000076a:	0000                	unimp
9000076c:	08e0                	addi	s0,sp,92
9000076e:	0000                	unimp
90000770:	000008e3          	beqz	zero,90000f80 <__global_pointer$+0x780>
90000774:	08e6                	slli	a7,a7,0x19
90000776:	0000                	unimp
90000778:	000008e7          	jalr	a7,zero
9000077c:	08e9                	addi	a7,a7,26
9000077e:	0000                	unimp
90000780:	000008ef          	jal	a7,90000780 <ptr+0x778>
90000784:	08f4                	addi	a3,sp,92
90000786:	0000                	unimp
90000788:	08f9                	addi	a7,a7,30
9000078a:	0000                	unimp
9000078c:	0900                	addi	s0,sp,144
9000078e:	0000                	unimp
90000790:	00000907          	0x907
90000794:	090c                	addi	a1,sp,144
90000796:	0000                	unimp
90000798:	0000090f          	0x90f
9000079c:	0912                	slli	s2,s2,0x4
9000079e:	0000                	unimp
900007a0:	00000917          	auipc	s2,0x0
900007a4:	091d                	addi	s2,s2,7
900007a6:	0000                	unimp
900007a8:	0924                	addi	s1,sp,152
900007aa:	0000                	unimp
900007ac:	00000927          	0x927
900007b0:	0929                	addi	s2,s2,10
900007b2:	0000                	unimp
900007b4:	092e                	slli	s2,s2,0xb
900007b6:	0000                	unimp
900007b8:	0936                	slli	s2,s2,0xd
900007ba:	0000                	unimp
900007bc:	093d                	addi	s2,s2,15
900007be:	0000                	unimp
900007c0:	093d                	addi	s2,s2,15
900007c2:	0000                	unimp
900007c4:	0940                	addi	s0,sp,148
900007c6:	0000                	unimp
900007c8:	0945                	addi	s2,s2,17
900007ca:	0000                	unimp
900007cc:	0000094b          	fnmsub.s	fs2,ft0,ft0,ft0,rne
900007d0:	0954                	addi	a3,sp,148
900007d2:	0000                	unimp
900007d4:	095a                	slli	s2,s2,0x16
900007d6:	0000                	unimp
900007d8:	095f 0000 0000      	0x95f
	...

900007e0 <verify_data>:
900007e0:	0000                	unimp
900007e2:	0000                	unimp
900007e4:	fa62                	fsw	fs8,52(sp)
900007e6:	4138                	lw	a4,64(a0)
900007e8:	0000                	unimp
900007ea:	0000                	unimp
900007ec:	28c8                	fld	fa0,144(s1)
900007ee:	413a                	lw	sp,140(sp)
900007f0:	0000                	unimp
900007f2:	0000                	unimp
900007f4:	6960                	flw	fs0,84(a0)
900007f6:	4101                	li	sp,0
900007f8:	0000                	unimp
900007fa:	0000                	unimp
900007fc:	41319027          	0x41319027
90000800:	0000                	unimp
90000802:	0000                	unimp
90000804:	8495                	srai	s1,s1,0x5
90000806:	4139                	li	sp,14
90000808:	0000                	unimp
9000080a:	0000                	unimp
9000080c:	4a0a                	lw	s4,128(sp)
9000080e:	4145                	li	sp,17
90000810:	0000                	unimp
90000812:	0000                	unimp
90000814:	1521                	addi	a0,a0,-24
90000816:	4136                	lw	sp,76(sp)
90000818:	0000                	unimp
9000081a:	0000                	unimp
9000081c:	cfb0                	sw	a2,88(a5)
9000081e:	4119                	li	sp,6
90000820:	0000                	unimp
90000822:	0000                	unimp
90000824:	3a40                	fld	fs0,176(a2)
90000826:	40de                	lw	ra,212(sp)
90000828:	0000                	unimp
9000082a:	0000                	unimp
9000082c:	711e                	flw	ft2,228(sp)
9000082e:	0000412f          	0x412f
90000832:	0000                	unimp
90000834:	5f94                	lw	a3,56(a5)
90000836:	4134                	lw	a3,64(a0)
	...
90000844:	792c                	flw	fa1,112(a0)
90000846:	4122                	lw	sp,8(sp)
90000848:	0000                	unimp
9000084a:	8000                	0x8000
9000084c:	6216                	flw	ft4,68(sp)
9000084e:	4141                	li	sp,16
90000850:	0000                	unimp
90000852:	0000                	unimp
90000854:	35c0                	fld	fs0,168(a1)
90000856:	412a                	lw	sp,136(sp)
90000858:	0000                	unimp
9000085a:	0000                	unimp
9000085c:	f578                	fsw	fa4,108(a0)
9000085e:	410d                	li	sp,3
90000860:	0000                	unimp
90000862:	0000                	unimp
90000864:	04c4                	addi	s1,sp,580
90000866:	412d                	li	sp,11
90000868:	0000                	unimp
9000086a:	0000                	unimp
9000086c:	8468                	0x8468
9000086e:	4125                	li	sp,9
90000870:	0000                	unimp
90000872:	0000                	unimp
90000874:	0518                	addi	a4,sp,640
90000876:	4134                	lw	a3,64(a0)
90000878:	0000                	unimp
9000087a:	0000                	unimp
9000087c:	8b7c                	0x8b7c
9000087e:	4130                	lw	a2,64(a0)
90000880:	0000                	unimp
90000882:	0000                	unimp
90000884:	09f6                	slli	s3,s3,0x1d
90000886:	413c                	lw	a5,64(a0)
90000888:	0000                	unimp
9000088a:	0000                	unimp
9000088c:	5652                	lw	a2,52(sp)
9000088e:	4132                	lw	sp,12(sp)
90000890:	0000                	unimp
90000892:	0000                	unimp
90000894:	0224                	addi	s1,sp,264
90000896:	4142                	lw	sp,16(sp)
90000898:	0000                	unimp
9000089a:	0000                	unimp
9000089c:	b82c                	fsd	fa1,112(s0)
9000089e:	4136                	lw	sp,76(sp)
900008a0:	0000                	unimp
900008a2:	0000                	unimp
900008a4:	0064                	addi	s1,sp,12
900008a6:	4125                	li	sp,9
900008a8:	0000                	unimp
900008aa:	0000                	unimp
900008ac:	14dd                	addi	s1,s1,-9
900008ae:	4144                	lw	s1,4(a0)
900008b0:	0000                	unimp
900008b2:	0000                	unimp
900008b4:	9ae4                	0x9ae4
900008b6:	4136                	lw	sp,76(sp)
900008b8:	0000                	unimp
900008ba:	0000                	unimp
900008bc:	2aec                	fld	fa1,208(a3)
900008be:	4124                	lw	s1,64(a0)
900008c0:	0000                	unimp
900008c2:	0000                	unimp
900008c4:	2554                	fld	fa3,136(a0)
900008c6:	4115                	li	sp,5
900008c8:	0000                	unimp
900008ca:	0000                	unimp
900008cc:	ff4a                	fsw	fs2,188(sp)
900008ce:	412d                	li	sp,11
900008d0:	0000                	unimp
900008d2:	0000                	unimp
900008d4:	41355f17          	auipc	t5,0x41355
900008d8:	0000                	unimp
900008da:	0000                	unimp
900008dc:	ae69                	j	90000c76 <__global_pointer$+0x476>
900008de:	4130                	lw	a2,64(a0)
900008e0:	0000                	unimp
900008e2:	0000                	unimp
900008e4:	cada                	sw	s6,84(sp)
900008e6:	4145                	li	sp,17
900008e8:	0000                	unimp
900008ea:	0000                	unimp
900008ec:	747e                	flw	fs0,252(sp)
900008ee:	4130                	lw	a2,64(a0)
900008f0:	0000                	unimp
900008f2:	0000                	unimp
900008f4:	64e2                	flw	fs1,24(sp)
900008f6:	4130                	lw	a2,64(a0)
900008f8:	0000                	unimp
900008fa:	0000                	unimp
900008fc:	afb8                	fsd	fa4,88(a5)
900008fe:	4121                	li	sp,8
90000900:	0000                	unimp
90000902:	0000                	unimp
90000904:	c850                	sw	a2,20(s0)
90000906:	0000413b          	0x413b
9000090a:	8000                	0x8000
9000090c:	2184                	fld	fs1,0(a1)
9000090e:	4144                	lw	s1,4(a0)
90000910:	0000                	unimp
90000912:	0000                	unimp
90000914:	a059                	j	9000099a <__global_pointer$+0x19a>
90000916:	0000413f e27e0000 	0xe27e00000000413f
9000091e:	4126                	lw	sp,72(sp)
90000920:	0000                	unimp
90000922:	0000                	unimp
90000924:	fd58                	fsw	fa4,60(a0)
90000926:	4124                	lw	s1,64(a0)
90000928:	0000                	unimp
9000092a:	0000                	unimp
9000092c:	3910                	fld	fa2,48(a0)
9000092e:	411d                	li	sp,7
90000930:	0000                	unimp
90000932:	0000                	unimp
90000934:	9e12                	add	t3,t3,tp
90000936:	4136                	lw	sp,76(sp)
90000938:	0000                	unimp
9000093a:	0000                	unimp
9000093c:	6c15                	lui	s8,0x5
9000093e:	4132                	lw	sp,12(sp)
90000940:	0000                	unimp
90000942:	0000                	unimp
90000944:	413551fb          	0x413551fb
90000948:	0000                	unimp
9000094a:	0000                	unimp
9000094c:	3df8                	fld	fa4,248(a1)
9000094e:	4128                	lw	a0,64(a0)
90000950:	0000                	unimp
90000952:	0000                	unimp
90000954:	9812                	add	a6,a6,tp
90000956:	412e                	lw	sp,200(sp)
90000958:	0000                	unimp
9000095a:	0000                	unimp
9000095c:	33e6                	fld	ft7,120(sp)
9000095e:	4139                	li	sp,14
90000960:	0000                	unimp
90000962:	0000                	unimp
90000964:	6582                	flw	fa1,0(sp)
90000966:	0000412f          	0x412f
9000096a:	0000                	unimp
9000096c:	275e                	fld	fa4,464(sp)
9000096e:	4132                	lw	sp,12(sp)
90000970:	0000                	unimp
90000972:	0000                	unimp
90000974:	16ed                	addi	a3,a3,-5
90000976:	00004137          	lui	sp,0x4
9000097a:	0000                	unimp
9000097c:	89ec                	0x89ec
9000097e:	4132                	lw	sp,12(sp)
90000980:	0000                	unimp
90000982:	0000                	unimp
90000984:	8956                	mv	s2,s5
90000986:	4126                	lw	sp,72(sp)
90000988:	0000                	unimp
9000098a:	0000                	unimp
9000098c:	5756                	lw	a4,116(sp)
9000098e:	00004123          	0x4123
90000992:	0000                	unimp
90000994:	6b02                	flw	fs6,0(sp)
90000996:	4132                	lw	sp,12(sp)
90000998:	0000                	unimp
9000099a:	0000                	unimp
9000099c:	c732                	sw	a2,140(sp)
9000099e:	4124                	lw	s1,64(a0)
900009a0:	0000                	unimp
900009a2:	0000                	unimp
900009a4:	71e4                	flw	fs1,100(a1)
900009a6:	0000412b          	0x412b
900009aa:	0000                	unimp
900009ac:	4141600f          	0x4141600f
900009b0:	0000                	unimp
900009b2:	0000                	unimp
900009b4:	982e                	add	a6,a6,a1
900009b6:	00004127          	fsq	ft0,2(zero) # 2 <_tdata_begin+0x2>
900009ba:	0000                	unimp
900009bc:	507f                	0x507f
900009be:	413e                	lw	sp,204(sp)
900009c0:	0000                	unimp
900009c2:	0000                	unimp
900009c4:	afa0                	fsd	fs0,88(a5)
900009c6:	0000412b          	0x412b
900009ca:	0000                	unimp
900009cc:	b548                	fsd	fa0,168(a0)
900009ce:	0000412b          	0x412b
900009d2:	0000                	unimp
900009d4:	41377bcb          	fnmsub.s	fs7,fa4,fs3,fs0
900009d8:	0000                	unimp
900009da:	0000                	unimp
900009dc:	d714                	sw	a3,40(a4)
900009de:	0000412f          	0x412f
900009e2:	0000                	unimp
900009e4:	ce04                	sw	s1,24(a2)
900009e6:	4124                	lw	s1,64(a0)
900009e8:	0000                	unimp
900009ea:	0000                	unimp
900009ec:	d808                	sw	a0,48(s0)
900009ee:	410a                	lw	sp,128(sp)
900009f0:	0000                	unimp
900009f2:	0000                	unimp
900009f4:	5232                	lw	tp,44(sp)
900009f6:	4135                	li	sp,13
900009f8:	0000                	unimp
900009fa:	8000                	0x8000
900009fc:	aa04                	fsd	fs1,16(a2)
900009fe:	4140                	lw	s0,4(a0)
90000a00:	0000                	unimp
90000a02:	0000                	unimp
90000a04:	74b2                	flw	fs1,44(sp)
90000a06:	00004137          	lui	sp,0x4
90000a0a:	0000                	unimp
90000a0c:	47e0                	lw	s0,76(a5)
90000a0e:	4110                	lw	a2,0(a0)
90000a10:	0000                	unimp
90000a12:	0000                	unimp
90000a14:	2e7a                	fld	ft8,408(sp)
90000a16:	4121                	li	sp,8
90000a18:	0000                	unimp
90000a1a:	0000                	unimp
90000a1c:	e445                	bnez	s0,90000ac4 <__global_pointer$+0x2c4>
90000a1e:	0000413b          	0x413b
90000a22:	0000                	unimp
90000a24:	e008                	fsw	fa0,0(s0)
90000a26:	4130                	lw	a2,64(a0)
90000a28:	0000                	unimp
90000a2a:	0000                	unimp
90000a2c:	722c                	flw	fa1,96(a2)
90000a2e:	4141                	li	sp,16
90000a30:	0000                	unimp
90000a32:	0000                	unimp
90000a34:	15da                	slli	a1,a1,0x36
90000a36:	0000412b          	0x412b
90000a3a:	0000                	unimp
90000a3c:	f264                	fsw	fs1,100(a2)
90000a3e:	4114                	lw	a3,0(a0)
90000a40:	0000                	unimp
90000a42:	0000                	unimp
90000a44:	29f0                	fld	fa2,208(a1)
90000a46:	410d                	li	sp,3
90000a48:	0000                	unimp
90000a4a:	0000                	unimp
90000a4c:	9c39                	0x9c39
90000a4e:	4139                	li	sp,14
90000a50:	0000                	unimp
90000a52:	8000                	0x8000
90000a54:	d621                	beqz	a2,9000099c <__global_pointer$+0x19c>
90000a56:	00004143          	fmadd.s	ft2,ft0,ft0,ft0,rmm
90000a5a:	0000                	unimp
90000a5c:	7b78                	flw	fa4,116(a4)
90000a5e:	4119                	li	sp,6
90000a60:	0000                	unimp
90000a62:	0000                	unimp
90000a64:	aadf 4137 0000      	0x4137aadf
90000a6a:	0000                	unimp
90000a6c:	5c82                	lw	s9,32(sp)
90000a6e:	4128                	lw	a0,64(a0)
90000a70:	0000                	unimp
90000a72:	0000                	unimp
90000a74:	55fc                	lw	a5,108(a1)
90000a76:	4118                	lw	a4,0(a0)
90000a78:	0000                	unimp
90000a7a:	0000                	unimp
90000a7c:	62b1                	lui	t0,0xc
90000a7e:	0000413f c7ba0000 	0xc7ba00000000413f
90000a86:	00004133          	xor	sp,zero,zero
90000a8a:	0000                	unimp
90000a8c:	fe58                	fsw	fa4,60(a2)
90000a8e:	0000412b          	0x412b
90000a92:	0000                	unimp
90000a94:	4230                	lw	a2,64(a2)
90000a96:	00004107          	flq	ft2,0(zero) # 0 <_tdata_begin>
90000a9a:	0000                	unimp
90000a9c:	eb3c                	fsw	fa5,80(a4)
90000a9e:	412a                	lw	sp,136(sp)
90000aa0:	0000                	unimp
90000aa2:	0000                	unimp
90000aa4:	413e3303          	0x413e3303
90000aa8:	0000                	unimp
90000aaa:	0000                	unimp
90000aac:	b7a0                	fsd	fs0,104(a5)
90000aae:	40e8                	lw	a0,68(s1)
90000ab0:	0000                	unimp
90000ab2:	0000                	unimp
90000ab4:	fcf2                	fsw	ft8,120(sp)
90000ab6:	0000412f          	0x412f
90000aba:	0000                	unimp
90000abc:	413e069b          	0x413e069b
90000ac0:	0000                	unimp
90000ac2:	0000                	unimp
90000ac4:	413d2c4f          	fnmadd.s	fs8,fs10,fs3,fs0,rdn
90000ac8:	0000                	unimp
90000aca:	0000                	unimp
90000acc:	edd9                	bnez	a1,90000b6a <__global_pointer$+0x36a>
90000ace:	413c                	lw	a5,64(a0)
90000ad0:	0000                	unimp
90000ad2:	0000                	unimp
90000ad4:	cbc0                	sw	s0,20(a5)
90000ad6:	40d6                	lw	ra,84(sp)
90000ad8:	0000                	unimp
90000ada:	0000                	unimp
90000adc:	48de                	lw	a7,212(sp)
90000ade:	4144                	lw	s1,4(a0)
90000ae0:	0000                	unimp
90000ae2:	0000                	unimp
90000ae4:	72a0                	flw	fs0,96(a3)
90000ae6:	4111                	li	sp,4
90000ae8:	0000                	unimp
90000aea:	0000                	unimp
90000aec:	57d2                	lw	a5,52(sp)
90000aee:	0000412f          	0x412f
90000af2:	0000                	unimp
90000af4:	c732                	sw	a2,140(sp)
90000af6:	412d                	li	sp,11
90000af8:	0000                	unimp
90000afa:	8000                	0x8000
90000afc:	fc2e                	fsw	fa1,56(sp)
90000afe:	4142                	lw	sp,16(sp)
90000b00:	0000                	unimp
90000b02:	0000                	unimp
90000b04:	69c4                	flw	fs1,20(a1)
90000b06:	4129                	li	sp,10
90000b08:	0000                	unimp
90000b0a:	0000                	unimp
90000b0c:	c2c4                	sw	s1,4(a3)
90000b0e:	4129                	li	sp,10
90000b10:	0000                	unimp
90000b12:	0000                	unimp
90000b14:	0e10                	addi	a2,sp,784
90000b16:	4135                	li	sp,13
90000b18:	0000                	unimp
90000b1a:	0000                	unimp
90000b1c:	4021                	c.li	zero,8
90000b1e:	0000413b          	0x413b
90000b22:	8000                	0x8000
90000b24:	4142cb73          	0x4142cb73
90000b28:	0000                	unimp
90000b2a:	0000                	unimp
90000b2c:	e0bc                	fsw	fa5,64(s1)
90000b2e:	00004127          	fsq	ft0,2(zero) # 2 <_tdata_begin+0x2>
90000b32:	0000                	unimp
90000b34:	fb84                	fsw	fs1,48(a5)
90000b36:	412d                	li	sp,11
90000b38:	0000                	unimp
90000b3a:	0000                	unimp
90000b3c:	99b8                	0x99b8
90000b3e:	4122                	lw	sp,8(sp)
90000b40:	0000                	unimp
90000b42:	0000                	unimp
90000b44:	8d96                	mv	s11,t0
90000b46:	4125                	li	sp,9
90000b48:	0000                	unimp
90000b4a:	0000                	unimp
90000b4c:	413e3bd7          	0x413e3bd7
90000b50:	0000                	unimp
90000b52:	0000                	unimp
90000b54:	6736                	flw	fa4,76(sp)
90000b56:	413c                	lw	a5,64(a0)
90000b58:	0000                	unimp
90000b5a:	8000                	0x8000
90000b5c:	60b5                	lui	ra,0xd
90000b5e:	4140                	lw	s0,4(a0)
90000b60:	0000                	unimp
90000b62:	0000                	unimp
90000b64:	87c0                	0x87c0
90000b66:	410e                	lw	sp,192(sp)
90000b68:	0000                	unimp
90000b6a:	0000                	unimp
90000b6c:	cbcc                	sw	a1,20(a5)
90000b6e:	4131                	li	sp,12
90000b70:	0000                	unimp
90000b72:	0000                	unimp
90000b74:	c2ae                	sw	a1,68(sp)
90000b76:	00004133          	xor	sp,zero,zero
90000b7a:	0000                	unimp
90000b7c:	24f8                	fld	fa4,200(s1)
90000b7e:	00004107          	flq	ft2,0(zero) # 0 <_tdata_begin>
90000b82:	0000                	unimp
90000b84:	192e                	slli	s2,s2,0x2b
90000b86:	412a                	lw	sp,136(sp)
90000b88:	0000                	unimp
90000b8a:	0000                	unimp
90000b8c:	b12c                	fsd	fa1,96(a0)
90000b8e:	412e                	lw	sp,200(sp)
90000b90:	0000                	unimp
90000b92:	0000                	unimp
90000b94:	9774                	0x9774
90000b96:	412d                	li	sp,11
90000b98:	0000                	unimp
90000b9a:	0000                	unimp
90000b9c:	9662                	add	a2,a2,s8
90000b9e:	4125                	li	sp,9
90000ba0:	0000                	unimp
90000ba2:	0000                	unimp
90000ba4:	20f2                	fld	ft1,280(sp)
90000ba6:	4121                	li	sp,8
90000ba8:	0000                	unimp
90000baa:	0000                	unimp
90000bac:	1e00                	addi	s0,sp,816
90000bae:	40f5                	li	ra,29
90000bb0:	0000                	unimp
90000bb2:	0000                	unimp
90000bb4:	e8e2                	fsw	fs8,80(sp)
90000bb6:	4125                	li	sp,9
90000bb8:	0000                	unimp
90000bba:	0000                	unimp
90000bbc:	de70                	sw	a2,124(a2)
90000bbe:	000040f7          	0x40f7
90000bc2:	0000                	unimp
90000bc4:	e506                	fsw	ft1,136(sp)
90000bc6:	413c                	lw	a5,64(a0)
90000bc8:	0000                	unimp
90000bca:	0000                	unimp
90000bcc:	c7ba                	sw	a4,204(sp)
90000bce:	00004127          	fsq	ft0,2(zero) # 2 <_tdata_begin+0x2>
90000bd2:	0000                	unimp
90000bd4:	3a7c                	fld	fa5,240(a2)
90000bd6:	411a                	lw	sp,132(sp)
90000bd8:	0000                	unimp
90000bda:	0000                	unimp
90000bdc:	4ec0                	lw	s0,28(a3)
90000bde:	40f8                	lw	a4,68(s1)
90000be0:	0000                	unimp
90000be2:	0000                	unimp
90000be4:	6f8d                	lui	t6,0x3
90000be6:	413c                	lw	a5,64(a0)
90000be8:	0000                	unimp
90000bea:	0000                	unimp
90000bec:	4d04                	lw	s1,24(a0)
90000bee:	4141                	li	sp,16
90000bf0:	0000                	unimp
90000bf2:	0000                	unimp
90000bf4:	fe14                	fsw	fa3,56(a2)
90000bf6:	412c                	lw	a1,64(a0)
90000bf8:	0000                	unimp
90000bfa:	0000                	unimp
90000bfc:	d338                	sw	a4,96(a4)
90000bfe:	00004127          	fsq	ft0,2(zero) # 2 <_tdata_begin+0x2>
90000c02:	0000                	unimp
90000c04:	bd00                	fsd	fs0,56(a0)
90000c06:	4121                	li	sp,8
90000c08:	0000                	unimp
90000c0a:	0000                	unimp
90000c0c:	0108                	addi	a0,sp,128
90000c0e:	4118                	lw	a4,0(a0)
90000c10:	0000                	unimp
90000c12:	8000                	0x8000
90000c14:	49a8                	lw	a0,80(a1)
90000c16:	4140                	lw	s0,4(a0)
90000c18:	0000                	unimp
90000c1a:	0000                	unimp
90000c1c:	fe1c                	fsw	fa5,56(a2)
90000c1e:	4132                	lw	sp,12(sp)
90000c20:	0000                	unimp
90000c22:	0000                	unimp
90000c24:	413ce9bb          	0x413ce9bb
90000c28:	0000                	unimp
90000c2a:	0000                	unimp
90000c2c:	1ec8                	addi	a0,sp,884
90000c2e:	412d                	li	sp,11
90000c30:	0000                	unimp
90000c32:	0000                	unimp
90000c34:	f57e                	fsw	ft11,168(sp)
90000c36:	4135                	li	sp,13
90000c38:	0000                	unimp
90000c3a:	0000                	unimp
90000c3c:	c9f0                	sw	a2,84(a1)
90000c3e:	00004127          	fsq	ft0,2(zero) # 2 <_tdata_begin+0x2>
90000c42:	0000                	unimp
90000c44:	41364457          	0x41364457
90000c48:	0000                	unimp
90000c4a:	0000                	unimp
90000c4c:	e6b2                	fsw	fa2,76(sp)
90000c4e:	412a                	lw	sp,136(sp)
90000c50:	0000                	unimp
90000c52:	8000                	0x8000
90000c54:	ccdd                	beqz	s1,90000d12 <__global_pointer$+0x512>
90000c56:	4140                	lw	s0,4(a0)
90000c58:	0000                	unimp
90000c5a:	0000                	unimp
90000c5c:	15e9                	addi	a1,a1,-6
90000c5e:	4136                	lw	sp,76(sp)
90000c60:	0000                	unimp
90000c62:	0000                	unimp
90000c64:	1165                	addi	sp,sp,-7
90000c66:	00004133          	xor	sp,zero,zero
90000c6a:	0000                	unimp
90000c6c:	59e0                	lw	s0,116(a1)
90000c6e:	00004127          	fsq	ft0,2(zero) # 2 <_tdata_begin+0x2>
90000c72:	0000                	unimp
90000c74:	ccd0                	sw	a2,28(s1)
90000c76:	411d                	li	sp,7
90000c78:	0000                	unimp
90000c7a:	0000                	unimp
90000c7c:	8c0e                	mv	s8,gp
90000c7e:	4129                	li	sp,10
90000c80:	0000                	unimp
90000c82:	0000                	unimp
90000c84:	4132de4b          	fnmsub.s	ft8,ft5,fs3,fs0,unknown
90000c88:	0000                	unimp
90000c8a:	8000                	0x8000
90000c8c:	6795                	lui	a5,0x5
90000c8e:	4141                	li	sp,16
90000c90:	0000                	unimp
90000c92:	0000                	unimp
90000c94:	7392                	flw	ft7,36(sp)
90000c96:	413e                	lw	sp,204(sp)
90000c98:	0000                	unimp
90000c9a:	0000                	unimp
90000c9c:	2dc0                	fld	fs0,152(a1)
90000c9e:	40d9                	li	ra,22
90000ca0:	0000                	unimp
90000ca2:	0000                	unimp
90000ca4:	4c08                	lw	a0,24(s0)
90000ca6:	4120                	lw	s0,64(a0)
90000ca8:	0000                	unimp
90000caa:	0000                	unimp
90000cac:	4136adb3          	0x4136adb3
90000cb0:	0000                	unimp
90000cb2:	0000                	unimp
90000cb4:	41335b5b          	0x41335b5b
90000cb8:	0000                	unimp
90000cba:	0000                	unimp
90000cbc:	b626                	fsd	fs1,296(sp)
90000cbe:	412a                	lw	sp,136(sp)
90000cc0:	0000                	unimp
90000cc2:	0000                	unimp
90000cc4:	b924                	fsd	fs1,112(a0)
90000cc6:	4126                	lw	sp,72(sp)
90000cc8:	0000                	unimp
90000cca:	0000                	unimp
90000ccc:	851f 4135 0000      	0x4135851f
90000cd2:	0000                	unimp
90000cd4:	1c90                	addi	a2,sp,624
90000cd6:	00004127          	fsq	ft0,2(zero) # 2 <_tdata_begin+0x2>
	...
90000ce2:	0000                	unimp
90000ce4:	413d5643          	fmadd.s	fa2,fs10,fs3,fs0,unknown
90000ce8:	0000                	unimp
90000cea:	0000                	unimp
90000cec:	5b48                	lw	a0,52(a4)
90000cee:	4118                	lw	a4,0(a0)
90000cf0:	0000                	unimp
90000cf2:	0000                	unimp
90000cf4:	bea2                	fsd	fs0,376(sp)
90000cf6:	4136                	lw	sp,76(sp)
90000cf8:	0000                	unimp
90000cfa:	0000                	unimp
90000cfc:	413683c7          	fmsub.s	ft7,fa3,fs3,fs0,rne
90000d00:	0000                	unimp
90000d02:	0000                	unimp
90000d04:	3965                	jal	900009bc <__global_pointer$+0x1bc>
90000d06:	4138                	lw	a4,64(a0)
90000d08:	0000                	unimp
90000d0a:	0000                	unimp
90000d0c:	4139dfb3          	sra	t6,s3,s3
90000d10:	0000                	unimp
90000d12:	0000                	unimp
90000d14:	ab84                	fsd	fs1,16(a5)
90000d16:	00004123          	0x4123
90000d1a:	0000                	unimp
90000d1c:	5bcc                	lw	a1,52(a5)
90000d1e:	4120                	lw	s0,64(a0)
90000d20:	0000                	unimp
90000d22:	0000                	unimp
90000d24:	6180                	flw	fs0,0(a1)
90000d26:	0000410b          	0x410b
90000d2a:	0000                	unimp
90000d2c:	46a0                	lw	s0,72(a3)
90000d2e:	4119                	li	sp,6
90000d30:	0000                	unimp
90000d32:	0000                	unimp
90000d34:	f615                	bnez	a2,90000c60 <__global_pointer$+0x460>
90000d36:	413e                	lw	sp,204(sp)
90000d38:	0000                	unimp
90000d3a:	8000                	0x8000
90000d3c:	fc88                	fsw	fa0,56(s1)
90000d3e:	414d                	li	sp,19
90000d40:	0000                	unimp
90000d42:	0000                	unimp
90000d44:	0920                	addi	s0,sp,152
90000d46:	00004117          	auipc	sp,0x4
90000d4a:	0000                	unimp
90000d4c:	2902                	fld	fs2,0(sp)
90000d4e:	4130                	lw	a2,64(a0)
90000d50:	0000                	unimp
90000d52:	0000                	unimp
90000d54:	e9e1                	bnez	a1,90000e24 <__global_pointer$+0x624>
90000d56:	413d                	li	sp,15
90000d58:	0000                	unimp
90000d5a:	0000                	unimp
90000d5c:	4135f757          	0x4135f757
90000d60:	0000                	unimp
90000d62:	0000                	unimp
90000d64:	81b4                	0x81b4
90000d66:	4116                	lw	sp,68(sp)
90000d68:	0000                	unimp
90000d6a:	0000                	unimp
90000d6c:	165c                	addi	a5,sp,804
90000d6e:	411c                	lw	a5,0(a0)
90000d70:	0000                	unimp
90000d72:	0000                	unimp
90000d74:	4142ea63          	bltu	t0,s4,90001188 <__global_pointer$+0x988>
90000d78:	0000                	unimp
90000d7a:	0000                	unimp
90000d7c:	af40                	fsd	fs0,152(a4)
90000d7e:	40f9                	li	ra,30
90000d80:	0000                	unimp
90000d82:	0000                	unimp
90000d84:	4135c3b3          	0x4135c3b3
90000d88:	0000                	unimp
90000d8a:	0000                	unimp
90000d8c:	d0c2                	sw	a6,96(sp)
90000d8e:	00004123          	0x4123
90000d92:	0000                	unimp
90000d94:	bdd1                	j	90000c68 <__global_pointer$+0x468>
90000d96:	4140                	lw	s0,4(a0)
90000d98:	0000                	unimp
90000d9a:	0000                	unimp
90000d9c:	0570                	addi	a2,sp,652
90000d9e:	412c                	lw	a1,64(a0)
90000da0:	0000                	unimp
90000da2:	0000                	unimp
90000da4:	4899                	li	a7,6
90000da6:	4138                	lw	a4,64(a0)
90000da8:	0000                	unimp
90000daa:	0000                	unimp
90000dac:	0209                	addi	tp,tp,2
90000dae:	4141                	li	sp,16
90000db0:	0000                	unimp
90000db2:	0000                	unimp
90000db4:	8560                	0x8560
90000db6:	411a                	lw	sp,132(sp)
90000db8:	0000                	unimp
90000dba:	0000                	unimp
90000dbc:	e3b0                	fsw	fa2,64(a5)
90000dbe:	4124                	lw	s1,64(a0)
90000dc0:	0000                	unimp
90000dc2:	0000                	unimp
90000dc4:	ccec                	sw	a1,92(s1)
90000dc6:	412e                	lw	sp,200(sp)
90000dc8:	0000                	unimp
90000dca:	0000                	unimp
90000dcc:	3650                	fld	fa2,168(a2)
90000dce:	0000410b          	0x410b
90000dd2:	0000                	unimp
90000dd4:	54c4                	lw	s1,44(s1)
90000dd6:	4122                	lw	sp,8(sp)
90000dd8:	0000                	unimp
90000dda:	0000                	unimp
90000ddc:	e136                	fsw	fa3,128(sp)
90000dde:	412e                	lw	sp,200(sp)
90000de0:	0000                	unimp
90000de2:	0000                	unimp
90000de4:	29da                	fld	fs3,400(sp)
90000de6:	4134                	lw	a3,64(a0)
90000de8:	0000                	unimp
90000dea:	0000                	unimp
90000dec:	843e                	mv	s0,a5
90000dee:	4129                	li	sp,10
90000df0:	0000                	unimp
90000df2:	8000                	0x8000
90000df4:	06b6                	slli	a3,a3,0xd
90000df6:	00004143          	fmadd.s	ft2,ft0,ft0,ft0,rmm
90000dfa:	0000                	unimp
90000dfc:	1ae2                	slli	s5,s5,0x38
90000dfe:	4136                	lw	sp,76(sp)
90000e00:	0000                	unimp
90000e02:	0000                	unimp
90000e04:	5e74                	lw	a3,124(a2)
90000e06:	00004133          	xor	sp,zero,zero
90000e0a:	0000                	unimp
90000e0c:	e981                	bnez	a1,90000e1c <__global_pointer$+0x61c>
90000e0e:	00004133          	xor	sp,zero,zero
90000e12:	0000                	unimp
90000e14:	0fa0                	addi	s0,sp,984
90000e16:	40f8                	lw	a4,68(s1)
90000e18:	0000                	unimp
90000e1a:	0000                	unimp
90000e1c:	7e01                	lui	t3,0xfffe0
90000e1e:	4142                	lw	sp,16(sp)
90000e20:	0000                	unimp
90000e22:	0000                	unimp
90000e24:	f5b5                	bnez	a1,90000d90 <__global_pointer$+0x590>
90000e26:	00004137          	lui	sp,0x4
90000e2a:	0000                	unimp
90000e2c:	75e8                	flw	fa0,108(a1)
90000e2e:	4112                	lw	sp,4(sp)
90000e30:	0000                	unimp
90000e32:	8000                	0x8000
90000e34:	688e                	flw	fa7,192(sp)
90000e36:	4145                	li	sp,17
90000e38:	0000                	unimp
90000e3a:	0000                	unimp
90000e3c:	6834                	flw	fa3,80(s0)
90000e3e:	00004137          	lui	sp,0x4
90000e42:	0000                	unimp
90000e44:	41365613          	srai	a2,a2,0x13
90000e48:	0000                	unimp
90000e4a:	0000                	unimp
90000e4c:	41308e53          	0x41308e53
90000e50:	0000                	unimp
90000e52:	0000                	unimp
90000e54:	89d0                	0x89d0
90000e56:	40fd                	li	ra,31
90000e58:	0000                	unimp
90000e5a:	0000                	unimp
90000e5c:	f779                	bnez	a4,90000e2a <__global_pointer$+0x62a>
90000e5e:	4139                	li	sp,14
90000e60:	0000                	unimp
90000e62:	0000                	unimp
90000e64:	ede0                	fsw	fs0,92(a1)
90000e66:	40fa                	lw	ra,156(sp)
90000e68:	0000                	unimp
90000e6a:	0000                	unimp
90000e6c:	a37a                	fsd	ft10,384(sp)
90000e6e:	412c                	lw	a1,64(a0)
90000e70:	0000                	unimp
90000e72:	0000                	unimp
90000e74:	1bad                	addi	s7,s7,-21
90000e76:	4132                	lw	sp,12(sp)
90000e78:	0000                	unimp
90000e7a:	0000                	unimp
90000e7c:	414134c7          	fmsub.s	fs1,ft2,fs4,fs0,rup
90000e80:	0000                	unimp
90000e82:	0000                	unimp
90000e84:	ffa0                	fsw	fs0,120(a5)
90000e86:	4119                	li	sp,6
90000e88:	0000                	unimp
90000e8a:	0000                	unimp
90000e8c:	f7dc                	fsw	fa5,44(a5)
90000e8e:	4116                	lw	sp,68(sp)
90000e90:	0000                	unimp
90000e92:	0000                	unimp
90000e94:	d648                	sw	a0,44(a2)
90000e96:	4114                	lw	a3,0(a0)
90000e98:	0000                	unimp
90000e9a:	0000                	unimp
90000e9c:	31d5                	jal	90000b80 <__global_pointer$+0x380>
90000e9e:	4130                	lw	a2,64(a0)
90000ea0:	0000                	unimp
90000ea2:	0000                	unimp
90000ea4:	413ee683          	0x413ee683
90000ea8:	0000                	unimp
90000eaa:	0000                	unimp
90000eac:	e078                	fsw	fa4,68(s0)
90000eae:	411f 0000 0000      	0x411f
90000eb4:	4498                	lw	a4,8(s1)
90000eb6:	4122                	lw	sp,8(sp)
90000eb8:	0000                	unimp
90000eba:	0000                	unimp
90000ebc:	8af0                	0x8af0
90000ebe:	412e                	lw	sp,200(sp)
90000ec0:	0000                	unimp
90000ec2:	8000                	0x8000
90000ec4:	3270                	fld	fa2,224(a2)
90000ec6:	4141                	li	sp,16
90000ec8:	0000                	unimp
90000eca:	0000                	unimp
90000ecc:	413c5803          	lhu	a6,1043(s8) # 5413 <_tbss_end+0x53cf>
90000ed0:	0000                	unimp
90000ed2:	0000                	unimp
90000ed4:	24e4                	fld	fs1,200(s1)
90000ed6:	4115                	li	sp,5
90000ed8:	0000                	unimp
90000eda:	0000                	unimp
90000edc:	413486a3          	sb	s3,1037(s1)
90000ee0:	0000                	unimp
90000ee2:	0000                	unimp
90000ee4:	ccc2                	sw	a6,88(sp)
90000ee6:	4120                	lw	s0,64(a0)
90000ee8:	0000                	unimp
90000eea:	0000                	unimp
90000eec:	1718                	addi	a4,sp,928
90000eee:	00004133          	xor	sp,zero,zero
90000ef2:	0000                	unimp
90000ef4:	ccd0                	sw	a2,28(s1)
90000ef6:	412c                	lw	a1,64(a0)
90000ef8:	0000                	unimp
90000efa:	0000                	unimp
90000efc:	ccac                	sw	a1,88(s1)
90000efe:	4124                	lw	s1,64(a0)
90000f00:	0000                	unimp
90000f02:	0000                	unimp
90000f04:	f788                	fsw	fa0,40(a5)
90000f06:	4120                	lw	s0,64(a0)
90000f08:	0000                	unimp
90000f0a:	0000                	unimp
90000f0c:	ca8c                	sw	a1,16(a3)
90000f0e:	00004127          	fsq	ft0,2(zero) # 2 <_tdata_begin+0x2>
90000f12:	0000                	unimp
90000f14:	4c50                	lw	a2,28(s0)
90000f16:	4112                	lw	sp,4(sp)
90000f18:	0000                	unimp
90000f1a:	0000                	unimp
90000f1c:	41360f83          	lb	t6,1043(a2) # 90000963 <__global_pointer$+0x163>
90000f20:	0000                	unimp
90000f22:	0000                	unimp
90000f24:	1164                	addi	s1,sp,172
90000f26:	411c                	lw	a5,0(a0)
90000f28:	0000                	unimp
90000f2a:	0000                	unimp
90000f2c:	a358                	fsd	fa4,128(a4)
90000f2e:	00004127          	fsq	ft0,2(zero) # 2 <_tdata_begin+0x2>
90000f32:	0000                	unimp
90000f34:	dfa0                	sw	s0,120(a5)
90000f36:	411d                	li	sp,7
90000f38:	0000                	unimp
90000f3a:	8000                	0x8000
90000f3c:	5e86                	lw	t4,96(sp)
90000f3e:	4142                	lw	sp,16(sp)
90000f40:	0000                	unimp
90000f42:	0000                	unimp
90000f44:	413807f7          	0x413807f7
90000f48:	0000                	unimp
90000f4a:	0000                	unimp
90000f4c:	e0f4                	fsw	fa3,68(s1)
90000f4e:	4138                	lw	a4,64(a0)
90000f50:	0000                	unimp
90000f52:	0000                	unimp
90000f54:	1ac5                	addi	s5,s5,-15
90000f56:	413d                	li	sp,15
90000f58:	0000                	unimp
90000f5a:	0000                	unimp
90000f5c:	f04a                	fsw	fs2,32(sp)
90000f5e:	4120                	lw	s0,64(a0)
90000f60:	0000                	unimp
90000f62:	0000                	unimp
90000f64:	079e                	slli	a5,a5,0x7
90000f66:	413d                	li	sp,15
90000f68:	0000                	unimp
90000f6a:	0000                	unimp
90000f6c:	e2ff                	0xe2ff
90000f6e:	4131                	li	sp,12
90000f70:	0000                	unimp
90000f72:	0000                	unimp
90000f74:	66d8                	flw	fa4,12(a3)
90000f76:	4101                	li	sp,0
90000f78:	0000                	unimp
90000f7a:	0000                	unimp
90000f7c:	36a0                	fld	fs0,104(a3)
90000f7e:	0000411b          	0x411b
90000f82:	0000                	unimp
90000f84:	4134ff97          	auipc	t6,0x4134f
90000f88:	0000                	unimp
90000f8a:	0000                	unimp
90000f8c:	5105                	li	sp,-31
90000f8e:	4132                	lw	sp,12(sp)
90000f90:	0000                	unimp
90000f92:	0000                	unimp
90000f94:	fe04                	fsw	fs1,56(a2)
90000f96:	00004113          	xori	sp,zero,0
90000f9a:	0000                	unimp
90000f9c:	a072                	fsd	ft8,0(sp)
90000f9e:	00004137          	lui	sp,0x4
90000fa2:	0000                	unimp
90000fa4:	4130e247          	fmsub.s	ft4,ft1,fs3,fs0,unknown
90000fa8:	0000                	unimp
90000faa:	0000                	unimp
90000fac:	1e94                	addi	a3,sp,880
90000fae:	0000412b          	0x412b
90000fb2:	0000                	unimp
90000fb4:	0f20                	addi	s0,sp,920
90000fb6:	40e4                	lw	s1,68(s1)
90000fb8:	0000                	unimp
90000fba:	0000                	unimp
90000fbc:	0056                	c.slli	zero,0x15
90000fbe:	00004133          	xor	sp,zero,zero
90000fc2:	0000                	unimp
90000fc4:	ce54                	sw	a3,28(a2)
90000fc6:	4129                	li	sp,10
90000fc8:	0000                	unimp
90000fca:	0000                	unimp
90000fcc:	4132cd57          	0x4132cd57
90000fd0:	0000                	unimp
90000fd2:	0000                	unimp
90000fd4:	a5c4                	fsd	fs1,136(a1)
90000fd6:	00004117          	auipc	sp,0x4
90000fda:	0000                	unimp
90000fdc:	84ac                	0x84ac
90000fde:	411a                	lw	sp,132(sp)
90000fe0:	0000                	unimp
90000fe2:	0000                	unimp
90000fe4:	41325f23          	0x41325f23
90000fe8:	0000                	unimp
90000fea:	0000                	unimp
90000fec:	57c5                	li	a5,-15
90000fee:	4134                	lw	a3,64(a0)
90000ff0:	0000                	unimp
90000ff2:	0000                	unimp
90000ff4:	8514                	0x8514
90000ff6:	4139                	li	sp,14
90000ff8:	0000                	unimp
90000ffa:	0000                	unimp
90000ffc:	5426                	lw	s0,104(sp)
90000ffe:	4121                	li	sp,8
90001000:	0000                	unimp
90001002:	0000                	unimp
90001004:	4000                	lw	s0,0(s0)
90001006:	40c6                	lw	ra,80(sp)
90001008:	0000                	unimp
9000100a:	0000                	unimp
9000100c:	420c                	lw	a1,0(a2)
9000100e:	00004123          	0x4123
90001012:	0000                	unimp
90001014:	d362                	sw	s8,164(sp)
90001016:	00004133          	xor	sp,zero,zero
9000101a:	0000                	unimp
9000101c:	f5f0                	fsw	fa2,108(a1)
9000101e:	4125                	li	sp,9
90001020:	0000                	unimp
90001022:	0000                	unimp
90001024:	cb72                	sw	t3,148(sp)
90001026:	4125                	li	sp,9
90001028:	0000                	unimp
9000102a:	0000                	unimp
9000102c:	1c1c                	addi	a5,sp,560
9000102e:	4116                	lw	sp,68(sp)
90001030:	0000                	unimp
90001032:	0000                	unimp
90001034:	f661                	bnez	a2,90000ffc <__global_pointer$+0x7fc>
90001036:	00004133          	xor	sp,zero,zero
9000103a:	0000                	unimp
9000103c:	33ae                	fld	ft7,232(sp)
9000103e:	4120                	lw	s0,64(a0)
90001040:	0000                	unimp
90001042:	0000                	unimp
90001044:	4de8                	lw	a0,92(a1)
90001046:	4118                	lw	a4,0(a0)
90001048:	0000                	unimp
9000104a:	0000                	unimp
9000104c:	058a                	slli	a1,a1,0x2
9000104e:	0000412b          	0x412b
90001052:	0000                	unimp
90001054:	4143e36b          	0x4143e36b
90001058:	0000                	unimp
9000105a:	0000                	unimp
9000105c:	aa72                	fsd	ft8,272(sp)
9000105e:	4134                	lw	a3,64(a0)
90001060:	0000                	unimp
90001062:	0000                	unimp
90001064:	c7a0                	sw	s0,72(a5)
90001066:	411a                	lw	sp,132(sp)
90001068:	0000                	unimp
9000106a:	0000                	unimp
9000106c:	cb80                	sw	s0,16(a5)
9000106e:	00004107          	flq	ft2,0(zero) # 0 <_tdata_begin>
90001072:	0000                	unimp
90001074:	c13e                	sw	a5,128(sp)
90001076:	4125                	li	sp,9
90001078:	0000                	unimp
9000107a:	0000                	unimp
9000107c:	d548                	sw	a0,44(a0)
9000107e:	412e                	lw	sp,200(sp)
90001080:	0000                	unimp
90001082:	0000                	unimp
90001084:	41412207          	flw	ft4,1044(sp) # 900053ea <val+0x74a>
90001088:	0000                	unimp
9000108a:	0000                	unimp
9000108c:	f3a4                	fsw	fs1,96(a5)
9000108e:	4116                	lw	sp,68(sp)
90001090:	0000                	unimp
90001092:	0000                	unimp
90001094:	c2b4                	sw	a3,64(a3)
90001096:	412a                	lw	sp,136(sp)
90001098:	0000                	unimp
9000109a:	0000                	unimp
9000109c:	afcc                	fsd	fa1,152(a5)
9000109e:	4139                	li	sp,14
900010a0:	0000                	unimp
900010a2:	0000                	unimp
900010a4:	2530                	fld	fa2,72(a0)
900010a6:	412d                	li	sp,11
900010a8:	0000                	unimp
900010aa:	0000                	unimp
900010ac:	413041ef          	jal	gp,90005cbe <val+0x101e>
900010b0:	0000                	unimp
900010b2:	0000                	unimp
900010b4:	3ad4                	fld	fa3,176(a3)
900010b6:	412c                	lw	a1,64(a0)
900010b8:	0000                	unimp
900010ba:	0000                	unimp
900010bc:	6c81                	0x6c81
900010be:	413a                	lw	sp,140(sp)
900010c0:	0000                	unimp
900010c2:	0000                	unimp
900010c4:	4131950f          	0x4131950f
900010c8:	0000                	unimp
900010ca:	0000                	unimp
900010cc:	f329                	bnez	a4,9000100e <__global_pointer$+0x80e>
900010ce:	0000413f a3390000 	0xa33900000000413f
900010d6:	4132                	lw	sp,12(sp)
900010d8:	0000                	unimp
900010da:	0000                	unimp
900010dc:	357c                	fld	fa5,232(a0)
900010de:	00004123          	0x4123
900010e2:	0000                	unimp
900010e4:	5b18                	lw	a4,48(a4)
900010e6:	0000413f 2ab88000 	0x2ab880000000413f
900010ee:	4144                	lw	s1,4(a0)
900010f0:	0000                	unimp
900010f2:	0000                	unimp
900010f4:	41342e47          	fmsub.s	ft8,fs0,fs3,fs0,rdn
900010f8:	0000                	unimp
900010fa:	0000                	unimp
900010fc:	c540                	sw	s0,12(a0)
900010fe:	4136                	lw	sp,76(sp)
90001100:	0000                	unimp
90001102:	0000                	unimp
90001104:	2522                	fld	fa0,8(sp)
90001106:	413c                	lw	a5,64(a0)
90001108:	0000                	unimp
9000110a:	0000                	unimp
9000110c:	808e                	mv	ra,gp
9000110e:	0000413b          	0x413b
90001112:	0000                	unimp
90001114:	3800                	fld	fs0,48(s0)
90001116:	0000408b          	0x408b
9000111a:	0000                	unimp
9000111c:	999c                	0x999c
9000111e:	4134                	lw	a3,64(a0)
90001120:	0000                	unimp
90001122:	0000                	unimp
90001124:	85dc                	0x85dc
90001126:	412d                	li	sp,11
90001128:	0000                	unimp
9000112a:	0000                	unimp
9000112c:	1922                	slli	s2,s2,0x28
9000112e:	00004127          	fsq	ft0,2(zero) # 2 <_tdata_begin+0x2>
90001132:	0000                	unimp
90001134:	87d4                	0x87d4
90001136:	4121                	li	sp,8
90001138:	0000                	unimp
9000113a:	0000                	unimp
9000113c:	c5f8                	sw	a4,76(a1)
9000113e:	00004133          	xor	sp,zero,zero
90001142:	0000                	unimp
90001144:	b5aa                	fsd	fa0,232(sp)
90001146:	0000413b          	0x413b
9000114a:	0000                	unimp
9000114c:	8906                	mv	s2,ra
9000114e:	4145                	li	sp,17
90001150:	0000                	unimp
90001152:	8000                	0x8000
90001154:	cb90                	sw	a2,16(a5)
90001156:	4140                	lw	s0,4(a0)
90001158:	0000                	unimp
9000115a:	0000                	unimp
9000115c:	d2ee                	sw	s11,100(sp)
9000115e:	4144                	lw	s1,4(a0)
90001160:	0000                	unimp
90001162:	0000                	unimp
90001164:	cca4                	sw	s1,88(s1)
90001166:	4122                	lw	sp,8(sp)
90001168:	0000                	unimp
9000116a:	0000                	unimp
9000116c:	b005                	j	9000098c <__global_pointer$+0x18c>
9000116e:	4141                	li	sp,16
90001170:	0000                	unimp
90001172:	0000                	unimp
90001174:	4eb4                	lw	a3,88(a3)
90001176:	4114                	lw	a3,0(a0)
90001178:	0000                	unimp
9000117a:	0000                	unimp
9000117c:	ae04                	fsd	fs1,24(a2)
9000117e:	4111                	li	sp,4
90001180:	0000                	unimp
90001182:	0000                	unimp
90001184:	e140                	fsw	fs0,4(a0)
90001186:	000040f7          	0x40f7
9000118a:	0000                	unimp
9000118c:	413cb58b          	0x413cb58b
90001190:	0000                	unimp
90001192:	0000                	unimp
90001194:	9d68                	0x9d68
90001196:	412e                	lw	sp,200(sp)
90001198:	0000                	unimp
9000119a:	0000                	unimp
9000119c:	7084                	flw	fs1,32(s1)
9000119e:	4125                	li	sp,9
900011a0:	0000                	unimp
900011a2:	0000                	unimp
900011a4:	fb88                	fsw	fa0,48(a5)
900011a6:	4118                	lw	a4,0(a0)
900011a8:	0000                	unimp
900011aa:	0000                	unimp
900011ac:	affc                	fsd	fa5,216(a5)
900011ae:	00004123          	0x4123
900011b2:	8000                	0x8000
900011b4:	d0fd                	beqz	s1,9000119a <__global_pointer$+0x99a>
900011b6:	0000414b          	fnmsub.s	ft2,ft0,ft0,ft0,rmm
900011ba:	0000                	unimp
900011bc:	16a0                	addi	s0,sp,872
900011be:	4126                	lw	sp,72(sp)
900011c0:	0000                	unimp
900011c2:	0000                	unimp
900011c4:	b558                	fsd	fa4,168(a0)
900011c6:	411e                	lw	sp,196(sp)
900011c8:	0000                	unimp
900011ca:	0000                	unimp
900011cc:	8d4c                	0x8d4c
900011ce:	4138                	lw	a4,64(a0)
900011d0:	0000                	unimp
900011d2:	0000                	unimp
900011d4:	22ad                	jal	9000133e <__global_pointer$+0xb3e>
900011d6:	4139                	li	sp,14
900011d8:	0000                	unimp
900011da:	0000                	unimp
900011dc:	ed5a                	fsw	fs6,152(sp)
900011de:	4121                	li	sp,8
900011e0:	0000                	unimp
900011e2:	0000                	unimp
900011e4:	7536                	flw	fa0,108(sp)
900011e6:	4126                	lw	sp,72(sp)
900011e8:	0000                	unimp
900011ea:	0000                	unimp
900011ec:	5770                	lw	a2,108(a4)
900011ee:	4124                	lw	s1,64(a0)
900011f0:	0000                	unimp
900011f2:	0000                	unimp
900011f4:	b680                	fsd	fs0,40(a3)
900011f6:	40da                	lw	ra,148(sp)
900011f8:	0000                	unimp
900011fa:	0000                	unimp
900011fc:	e4e4                	fsw	fs1,76(s1)
900011fe:	0000412f          	0x412f
90001202:	0000                	unimp
90001204:	49fc                	lw	a5,84(a1)
90001206:	4118                	lw	a4,0(a0)
90001208:	0000                	unimp
9000120a:	0000                	unimp
9000120c:	9672                	add	a2,a2,t3
9000120e:	4130                	lw	a2,64(a0)
90001210:	0000                	unimp
90001212:	0000                	unimp
90001214:	e970                	fsw	fa2,84(a0)
90001216:	4131                	li	sp,12
90001218:	0000                	unimp
9000121a:	0000                	unimp
9000121c:	df0a                	sw	sp,188(sp)
9000121e:	4138                	lw	a4,64(a0)
90001220:	0000                	unimp
90001222:	0000                	unimp
90001224:	5bf5                	li	s7,-3
90001226:	4134                	lw	a3,64(a0)
90001228:	0000                	unimp
9000122a:	0000                	unimp
9000122c:	50b4                	lw	a3,96(s1)
9000122e:	413c                	lw	a5,64(a0)
90001230:	0000                	unimp
90001232:	0000                	unimp
90001234:	cc05                	beqz	s0,9000126c <__global_pointer$+0xa6c>
90001236:	4145                	li	sp,17
90001238:	0000                	unimp
9000123a:	0000                	unimp
9000123c:	7704                	flw	fs1,40(a4)
9000123e:	4134                	lw	a3,64(a0)
90001240:	0000                	unimp
90001242:	0000                	unimp
90001244:	9120                	0x9120
90001246:	4114                	lw	a3,0(a0)
	...
90001254:	d214                	sw	a3,32(a2)
90001256:	411f 0000 0000      	0x411f
9000125c:	efc0                	fsw	fs0,28(a5)
9000125e:	40e9                	li	ra,26
90001260:	0000                	unimp
90001262:	0000                	unimp
90001264:	ea0c                	fsw	fa1,16(a2)
90001266:	412a                	lw	sp,136(sp)
90001268:	0000                	unimp
9000126a:	0000                	unimp
9000126c:	e928                	fsw	fa0,80(a0)
9000126e:	4102                	lw	sp,0(sp)
90001270:	0000                	unimp
90001272:	0000                	unimp
90001274:	c6ec                	sw	a1,76(a3)
90001276:	412c                	lw	a1,64(a0)
90001278:	0000                	unimp
9000127a:	0000                	unimp
9000127c:	e284                	fsw	fs1,0(a3)
9000127e:	4132                	lw	sp,12(sp)
90001280:	0000                	unimp
90001282:	0000                	unimp
90001284:	0cc8                	addi	a0,sp,596
90001286:	4129                	li	sp,10
90001288:	0000                	unimp
9000128a:	0000                	unimp
9000128c:	affe                	fsd	ft11,472(sp)
9000128e:	4121                	li	sp,8
90001290:	0000                	unimp
90001292:	0000                	unimp
90001294:	ecbd                	bnez	s1,90001312 <__global_pointer$+0xb12>
90001296:	4135                	li	sp,13
90001298:	0000                	unimp
9000129a:	0000                	unimp
9000129c:	e62e                	fsw	fa1,12(sp)
9000129e:	413e                	lw	sp,204(sp)
900012a0:	0000                	unimp
900012a2:	0000                	unimp
900012a4:	5c84                	lw	s1,56(s1)
900012a6:	00004123          	0x4123
900012aa:	0000                	unimp
900012ac:	4dc0                	lw	s0,28(a1)
900012ae:	4129                	li	sp,10
900012b0:	0000                	unimp
900012b2:	0000                	unimp
900012b4:	3164                	fld	fs1,224(a0)
900012b6:	4112                	lw	sp,4(sp)
900012b8:	0000                	unimp
900012ba:	0000                	unimp
900012bc:	1220                	addi	s0,sp,296
900012be:	4109                	li	sp,2
900012c0:	0000                	unimp
900012c2:	0000                	unimp
900012c4:	c14e                	sw	s3,128(sp)
900012c6:	4138                	lw	a4,64(a0)
900012c8:	0000                	unimp
900012ca:	0000                	unimp
900012cc:	4131de6b          	0x4131de6b
900012d0:	0000                	unimp
900012d2:	0000                	unimp
900012d4:	e486                	fsw	ft1,72(sp)
900012d6:	4129                	li	sp,10
900012d8:	0000                	unimp
900012da:	8000                	0x8000
900012dc:	70b8                	flw	fa4,96(s1)
900012de:	4142                	lw	sp,16(sp)
900012e0:	0000                	unimp
900012e2:	0000                	unimp
900012e4:	c35c                	sw	a5,4(a4)
900012e6:	413e                	lw	sp,204(sp)
900012e8:	0000                	unimp
900012ea:	0000                	unimp
900012ec:	d5b8                	sw	a4,104(a1)
900012ee:	00004117          	auipc	sp,0x4
900012f2:	0000                	unimp
900012f4:	c429                	beqz	s0,9000133e <__global_pointer$+0xb3e>
900012f6:	4144                	lw	s1,4(a0)
900012f8:	0000                	unimp
900012fa:	0000                	unimp
900012fc:	f544                	fsw	fs1,44(a0)
900012fe:	4115                	li	sp,5
90001300:	0000                	unimp
90001302:	0000                	unimp
90001304:	dcb8                	sw	a4,120(s1)
90001306:	4112                	lw	sp,4(sp)
90001308:	0000                	unimp
9000130a:	0000                	unimp
9000130c:	3292                	fld	ft5,288(sp)
9000130e:	4130                	lw	a2,64(a0)
90001310:	0000                	unimp
90001312:	0000                	unimp
90001314:	2108                	fld	fa0,0(a0)
90001316:	4112                	lw	sp,4(sp)
90001318:	0000                	unimp
9000131a:	0000                	unimp
9000131c:	41340417          	auipc	s0,0x41340
90001320:	0000                	unimp
90001322:	0000                	unimp
90001324:	a264                	fsd	fs1,192(a2)
90001326:	4112                	lw	sp,4(sp)
90001328:	0000                	unimp
9000132a:	0000                	unimp
9000132c:	1742                	slli	a4,a4,0x30
9000132e:	412a                	lw	sp,136(sp)
90001330:	0000                	unimp
90001332:	0000                	unimp
90001334:	0ebc                	addi	a5,sp,856
90001336:	0000413b          	0x413b
9000133a:	8000                	0x8000
9000133c:	4429                	li	s0,10
9000133e:	4144                	lw	s1,4(a0)
90001340:	0000                	unimp
90001342:	0000                	unimp
90001344:	5874                	lw	a3,116(s0)
90001346:	0000412b          	0x412b
9000134a:	0000                	unimp
9000134c:	5068                	lw	a0,100(s0)
9000134e:	4130                	lw	a2,64(a0)
90001350:	0000                	unimp
90001352:	0000                	unimp
90001354:	b215                	j	90000c78 <__global_pointer$+0x478>
90001356:	00004137          	lui	sp,0x4
9000135a:	0000                	unimp
9000135c:	b1fd                	j	9000104a <__global_pointer$+0x84a>
9000135e:	4135                	li	sp,13
90001360:	0000                	unimp
90001362:	0000                	unimp
90001364:	e8a8                	fsw	fa0,80(s1)
90001366:	411a                	lw	sp,132(sp)
90001368:	0000                	unimp
9000136a:	0000                	unimp
9000136c:	73d8                	flw	fa4,36(a5)
9000136e:	410a                	lw	sp,128(sp)
90001370:	0000                	unimp
90001372:	0000                	unimp
90001374:	4050                	lw	a2,4(s0)
90001376:	4139                	li	sp,14
90001378:	0000                	unimp
9000137a:	0000                	unimp
9000137c:	d7a4                	sw	s1,104(a5)
9000137e:	411f 0000 0000      	0x411f
90001384:	a3fc                	fsd	fa5,192(a5)
90001386:	4128                	lw	a0,64(a0)
90001388:	0000                	unimp
9000138a:	0000                	unimp
9000138c:	f5ea                	fsw	fs10,232(sp)
9000138e:	4132                	lw	sp,12(sp)
90001390:	0000                	unimp
90001392:	0000                	unimp
90001394:	4ad0                	lw	a2,20(a3)
90001396:	4134                	lw	a3,64(a0)
90001398:	0000                	unimp
9000139a:	0000                	unimp
9000139c:	ce88                	sw	a0,24(a3)
9000139e:	4112                	lw	sp,4(sp)
900013a0:	0000                	unimp
900013a2:	0000                	unimp
900013a4:	10fe                	slli	ra,ra,0x3f
900013a6:	4120                	lw	s0,64(a0)
900013a8:	0000                	unimp
900013aa:	0000                	unimp
900013ac:	4840                	lw	s0,20(s0)
900013ae:	000040db          	0x40db
900013b2:	0000                	unimp
900013b4:	2286                	fld	ft5,64(sp)
900013b6:	4136                	lw	sp,76(sp)
900013b8:	0000                	unimp
900013ba:	0000                	unimp
900013bc:	4138bfe3          	0x4138bfe3
900013c0:	0000                	unimp
900013c2:	0000                	unimp
900013c4:	6364                	flw	fs1,68(a4)
900013c6:	4128                	lw	a0,64(a0)
900013c8:	0000                	unimp
900013ca:	0000                	unimp
900013cc:	07f1                	addi	a5,a5,28
900013ce:	4135                	li	sp,13
900013d0:	0000                	unimp
900013d2:	0000                	unimp
900013d4:	39de                	fld	fs3,496(sp)
900013d6:	00004143          	fmadd.s	ft2,ft0,ft0,ft0,rmm
900013da:	0000                	unimp
900013dc:	8876                	mv	a6,t4
900013de:	4131                	li	sp,12
900013e0:	0000                	unimp
900013e2:	0000                	unimp
900013e4:	b2c2                	fsd	fa6,352(sp)
900013e6:	4121                	li	sp,8
900013e8:	0000                	unimp
900013ea:	0000                	unimp
900013ec:	1999                	addi	s3,s3,-26
900013ee:	413c                	lw	a5,64(a0)
900013f0:	0000                	unimp
900013f2:	0000                	unimp
900013f4:	413cea87          	0x413cea87
900013f8:	0000                	unimp
900013fa:	0000                	unimp
900013fc:	cca4                	sw	s1,88(s1)
900013fe:	412e                	lw	sp,200(sp)
90001400:	0000                	unimp
90001402:	0000                	unimp
90001404:	5496                	lw	s1,100(sp)
90001406:	413d                	li	sp,15
90001408:	0000                	unimp
9000140a:	0000                	unimp
9000140c:	41439b8b          	0x41439b8b
90001410:	0000                	unimp
90001412:	0000                	unimp
90001414:	0180                	addi	s0,sp,192
90001416:	4119                	li	sp,6
90001418:	0000                	unimp
9000141a:	0000                	unimp
9000141c:	01fc                	addi	a5,sp,204
9000141e:	0000411b          	0x411b
90001422:	0000                	unimp
90001424:	efb0                	fsw	fa2,88(a5)
90001426:	4110                	lw	a2,0(a0)
90001428:	0000                	unimp
9000142a:	0000                	unimp
9000142c:	e52a                	fsw	fa0,136(sp)
9000142e:	412d                	li	sp,11
90001430:	0000                	unimp
90001432:	0000                	unimp
90001434:	3e9f 4135 0000      	0x41353e9f
9000143a:	0000                	unimp
9000143c:	3dc6                	fld	fs11,112(sp)
9000143e:	0000412f          	0x412f
90001442:	0000                	unimp
90001444:	b6b2                	fsd	fa2,360(sp)
90001446:	413c                	lw	a5,64(a0)
90001448:	0000                	unimp
9000144a:	8000                	0x8000
9000144c:	8f5f 4142 0000      	0x41428f5f
90001452:	0000                	unimp
90001454:	8714                	0x8714
90001456:	4141                	li	sp,16
90001458:	0000                	unimp
9000145a:	0000                	unimp
9000145c:	8de6                	mv	s11,s9
9000145e:	4120                	lw	s0,64(a0)
90001460:	0000                	unimp
90001462:	0000                	unimp
90001464:	e024                	fsw	fs1,64(s0)
90001466:	4134                	lw	a3,64(a0)
90001468:	0000                	unimp
9000146a:	0000                	unimp
9000146c:	6c30                	flw	fa2,88(s0)
9000146e:	4129                	li	sp,10
90001470:	0000                	unimp
90001472:	0000                	unimp
90001474:	ae38                	fsd	fa4,88(a2)
90001476:	0000412f          	0x412f
9000147a:	0000                	unimp
9000147c:	a7d0                	fsd	fa2,136(a5)
9000147e:	4126                	lw	sp,72(sp)
90001480:	0000                	unimp
90001482:	0000                	unimp
90001484:	88ad                	andi	s1,s1,11
90001486:	00004137          	lui	sp,0x4
9000148a:	0000                	unimp
9000148c:	03d5                	addi	t2,t2,21
9000148e:	4141                	li	sp,16
90001490:	0000                	unimp
90001492:	0000                	unimp
90001494:	0f35                	addi	t5,t5,13
90001496:	00004133          	xor	sp,zero,zero
9000149a:	0000                	unimp
9000149c:	fa68                	fsw	fa0,116(a2)
9000149e:	412a                	lw	sp,136(sp)
900014a0:	0000                	unimp
900014a2:	0000                	unimp
900014a4:	41339fab          	0x41339fab
900014a8:	0000                	unimp
900014aa:	0000                	unimp
900014ac:	4130d247          	fmsub.s	ft4,ft1,fs3,fs0,unknown
900014b0:	0000                	unimp
900014b2:	0000                	unimp
900014b4:	32c1                	jal	90000e74 <__global_pointer$+0x674>
900014b6:	4139                	li	sp,14
900014b8:	0000                	unimp
900014ba:	0000                	unimp
900014bc:	47c6                	lw	a5,80(sp)
900014be:	0000413b          	0x413b
900014c2:	0000                	unimp
900014c4:	e82a                	fsw	fa0,16(sp)
900014c6:	4134                	lw	a3,64(a0)
900014c8:	0000                	unimp
900014ca:	0000                	unimp
900014cc:	4144dc2b          	0x4144dc2b
900014d0:	0000                	unimp
900014d2:	8000                	0x8000
900014d4:	64e8                	flw	fa0,76(s1)
900014d6:	4146                	lw	sp,80(sp)
900014d8:	0000                	unimp
900014da:	0000                	unimp
900014dc:	4ff4                	lw	a3,92(a5)
900014de:	0000411b          	0x411b
900014e2:	0000                	unimp
900014e4:	7cb6                	flw	fs9,108(sp)
900014e6:	4126                	lw	sp,72(sp)
900014e8:	0000                	unimp
900014ea:	0000                	unimp
900014ec:	4c4c                	lw	a1,28(s0)
900014ee:	4129                	li	sp,10
900014f0:	0000                	unimp
900014f2:	0000                	unimp
900014f4:	9b1e                	add	s6,s6,t2
900014f6:	00004137          	lui	sp,0x4
900014fa:	0000                	unimp
900014fc:	604c                	flw	fa1,4(s0)
900014fe:	00004127          	fsq	ft0,2(zero) # 2 <_tdata_begin+0x2>
90001502:	0000                	unimp
90001504:	c93d                	beqz	a0,9000157a <__global_pointer$+0xd7a>
90001506:	4135                	li	sp,13
90001508:	0000                	unimp
9000150a:	0000                	unimp
9000150c:	2f00                	fld	fs0,24(a4)
9000150e:	0000410f          	0x410f
90001512:	0000                	unimp
90001514:	76b8                	flw	fa4,104(a3)
90001516:	4100                	lw	s0,0(a0)
90001518:	0000                	unimp
9000151a:	0000                	unimp
9000151c:	606a                	flw	ft0,152(sp)
9000151e:	4138                	lw	a4,64(a0)
90001520:	0000                	unimp
90001522:	0000                	unimp
90001524:	943e                	add	s0,s0,a5
90001526:	4140                	lw	s0,4(a0)
90001528:	0000                	unimp
9000152a:	0000                	unimp
9000152c:	1dd6                	slli	s11,s11,0x35
9000152e:	4132                	lw	sp,12(sp)
90001530:	0000                	unimp
90001532:	0000                	unimp
90001534:	0ace                	slli	s5,s5,0x13
90001536:	4142                	lw	sp,16(sp)
90001538:	0000                	unimp
9000153a:	0000                	unimp
9000153c:	9e89                	0x9e89
9000153e:	4132                	lw	sp,12(sp)
90001540:	0000                	unimp
90001542:	0000                	unimp
90001544:	dc71                	beqz	s0,90001520 <__global_pointer$+0xd20>
90001546:	413a                	lw	sp,140(sp)
90001548:	0000                	unimp
9000154a:	0000                	unimp
9000154c:	5480                	lw	s0,40(s1)
9000154e:	40f2                	lw	ra,28(sp)
90001550:	0000                	unimp
90001552:	8000                	0x8000
90001554:	5cb0                	lw	a2,120(s1)
90001556:	4145                	li	sp,17
90001558:	0000                	unimp
9000155a:	0000                	unimp
9000155c:	cd6e                	sw	s11,152(sp)
9000155e:	4134                	lw	a3,64(a0)
90001560:	0000                	unimp
90001562:	0000                	unimp
90001564:	e850                	fsw	fa2,20(s0)
90001566:	4141                	li	sp,16
90001568:	0000                	unimp
9000156a:	0000                	unimp
9000156c:	9e5c                	0x9e5c
9000156e:	4110                	lw	a2,0(a0)
90001570:	0000                	unimp
90001572:	0000                	unimp
90001574:	7440                	flw	fs0,44(s0)
90001576:	40e0                	lw	s0,68(s1)
90001578:	0000                	unimp
9000157a:	0000                	unimp
9000157c:	3075                	jal	90000e28 <__global_pointer$+0x628>
9000157e:	4132                	lw	sp,12(sp)
90001580:	0000                	unimp
90001582:	0000                	unimp
90001584:	e794                	fsw	fa3,8(a5)
90001586:	4114                	lw	a3,0(a0)
90001588:	0000                	unimp
9000158a:	0000                	unimp
9000158c:	bbf0                	fsd	fa2,240(a5)
9000158e:	4115                	li	sp,5
90001590:	0000                	unimp
90001592:	0000                	unimp
90001594:	ac10                	fsd	fa2,24(s0)
90001596:	4100                	lw	s0,0(a0)
90001598:	0000                	unimp
9000159a:	0000                	unimp
9000159c:	f4b8                	fsw	fa4,104(s1)
9000159e:	4139                	li	sp,14
900015a0:	0000                	unimp
900015a2:	0000                	unimp
900015a4:	e9ae                	fsw	fa1,208(sp)
900015a6:	4140                	lw	s0,4(a0)
900015a8:	0000                	unimp
900015aa:	0000                	unimp
900015ac:	72f6                	flw	ft5,124(sp)
900015ae:	4134                	lw	a3,64(a0)
900015b0:	0000                	unimp
900015b2:	0000                	unimp
900015b4:	45b6                	lw	a1,76(sp)
900015b6:	413c                	lw	a5,64(a0)
900015b8:	0000                	unimp
900015ba:	0000                	unimp
900015bc:	b9fc                	fsd	fa5,240(a1)
900015be:	4121                	li	sp,8
900015c0:	0000                	unimp
900015c2:	0000                	unimp
900015c4:	ddc8                	sw	a0,60(a1)
900015c6:	4118                	lw	a4,0(a0)
900015c8:	0000                	unimp
900015ca:	0000                	unimp
900015cc:	62fa                	flw	ft5,156(sp)
900015ce:	413c                	lw	a5,64(a0)
900015d0:	0000                	unimp
900015d2:	0000                	unimp
900015d4:	7e48                	flw	fa0,60(a2)
900015d6:	4108                	lw	a0,0(a0)
900015d8:	0000                	unimp
900015da:	0000                	unimp
900015dc:	1ff6                	slli	t6,t6,0x3d
900015de:	412d                	li	sp,11
900015e0:	0000                	unimp
900015e2:	0000                	unimp
900015e4:	29ca                	fld	fs3,144(sp)
900015e6:	412d                	li	sp,11
900015e8:	0000                	unimp
900015ea:	0000                	unimp
900015ec:	0b95                	addi	s7,s7,5
900015ee:	4141                	li	sp,16
900015f0:	0000                	unimp
900015f2:	0000                	unimp
900015f4:	a29a                	fsd	ft6,320(sp)
900015f6:	413e                	lw	sp,204(sp)
900015f8:	0000                	unimp
900015fa:	0000                	unimp
900015fc:	b986                	fsd	ft1,240(sp)
900015fe:	00004123          	0x4123
90001602:	8000                	0x8000
90001604:	b1d5                	j	900012e8 <__global_pointer$+0xae8>
90001606:	4144                	lw	s1,4(a0)
90001608:	0000                	unimp
9000160a:	0000                	unimp
9000160c:	36ec                	fld	fa1,232(a3)
9000160e:	00004133          	xor	sp,zero,zero
90001612:	0000                	unimp
90001614:	1145                	addi	sp,sp,-15
90001616:	4142                	lw	sp,16(sp)
90001618:	0000                	unimp
9000161a:	0000                	unimp
9000161c:	a85f 4137 0000      	0x4137a85f
90001622:	0000                	unimp
90001624:	4131b6c7          	fmsub.s	fa3,ft3,fs3,fs0,rup
90001628:	0000                	unimp
9000162a:	0000                	unimp
9000162c:	257c                	fld	fa5,200(a0)
9000162e:	412e                	lw	sp,200(sp)
90001630:	0000                	unimp
90001632:	0000                	unimp
90001634:	d86a                	sw	s10,48(sp)
90001636:	00004123          	0x4123
9000163a:	0000                	unimp
9000163c:	6d98                	flw	fa4,24(a1)
9000163e:	4129                	li	sp,10
90001640:	0000                	unimp
90001642:	0000                	unimp
90001644:	7840                	flw	fs0,52(s0)
90001646:	4116                	lw	sp,68(sp)
90001648:	0000                	unimp
9000164a:	0000                	unimp
9000164c:	804d                	srli	s0,s0,0x13
9000164e:	413e                	lw	sp,204(sp)
90001650:	0000                	unimp
90001652:	0000                	unimp
90001654:	7454                	flw	fa3,44(s0)
90001656:	413a                	lw	sp,140(sp)
90001658:	0000                	unimp
9000165a:	0000                	unimp
9000165c:	0590                	addi	a2,sp,704
9000165e:	4130                	lw	a2,64(a0)
90001660:	0000                	unimp
90001662:	0000                	unimp
90001664:	41303303          	0x41303303
90001668:	0000                	unimp
9000166a:	0000                	unimp
9000166c:	7749                	lui	a4,0xffff2
9000166e:	4131                	li	sp,12
90001670:	0000                	unimp
90001672:	0000                	unimp
90001674:	3aad                	jal	90000fee <__global_pointer$+0x7ee>
90001676:	00004133          	xor	sp,zero,zero
9000167a:	0000                	unimp
9000167c:	f8c6                	fsw	fa7,112(sp)
9000167e:	4129                	li	sp,10
90001680:	0000                	unimp
90001682:	0000                	unimp
90001684:	a128                	fsd	fa0,64(a0)
90001686:	4135                	li	sp,13
90001688:	0000                	unimp
9000168a:	0000                	unimp
9000168c:	41459153          	0x41459153
90001690:	0000                	unimp
90001692:	0000                	unimp
90001694:	2a16                	fld	fs4,320(sp)
90001696:	4130                	lw	a2,64(a0)
90001698:	0000                	unimp
9000169a:	0000                	unimp
9000169c:	413739d7          	0x413739d7
900016a0:	0000                	unimp
900016a2:	0000                	unimp
900016a4:	bc8e                	fsd	ft3,120(sp)
900016a6:	0000412f          	0x412f
900016aa:	0000                	unimp
900016ac:	7aba                	flw	fs5,172(sp)
900016ae:	4125                	li	sp,9
900016b0:	0000                	unimp
900016b2:	0000                	unimp
900016b4:	95fc                	0x95fc
900016b6:	0000412f          	0x412f
900016ba:	0000                	unimp
900016bc:	0c40                	addi	s0,sp,532
900016be:	000040d3          	fadd.s	ft1,ft0,ft0,rmm
900016c2:	0000                	unimp
900016c4:	d2c8                	sw	a0,36(a3)
900016c6:	4109                	li	sp,2
900016c8:	0000                	unimp
900016ca:	0000                	unimp
900016cc:	4b6d                	li	s6,27
900016ce:	4136                	lw	sp,76(sp)
900016d0:	0000                	unimp
900016d2:	0000                	unimp
900016d4:	4132e683          	0x4132e683
900016d8:	0000                	unimp
900016da:	0000                	unimp
900016dc:	94a2                	add	s1,s1,s0
900016de:	4135                	li	sp,13
900016e0:	0000                	unimp
900016e2:	0000                	unimp
900016e4:	9199                	srli	a1,a1,0x26
900016e6:	4131                	li	sp,12
900016e8:	0000                	unimp
900016ea:	8000                	0x8000
900016ec:	8c59                	or	s0,s0,a4
900016ee:	4140                	lw	s0,4(a0)
900016f0:	0000                	unimp
900016f2:	0000                	unimp
900016f4:	cd3c                	sw	a5,88(a0)
900016f6:	4130                	lw	a2,64(a0)
900016f8:	0000                	unimp
900016fa:	0000                	unimp
900016fc:	1052                	c.slli	zero,0x34
900016fe:	4131                	li	sp,12
90001700:	0000                	unimp
90001702:	0000                	unimp
90001704:	7700                	flw	fs0,40(a4)
90001706:	4114                	lw	a3,0(a0)
90001708:	0000                	unimp
9000170a:	0000                	unimp
9000170c:	ec3a                	fsw	fa4,24(sp)
